{
  "contractName": "AccessControl",
  "abi": [
    {
      "inputs": [],
      "stateMutability": "nonpayable",
      "type": "constructor"
    },
    {
      "anonymous": false,
      "inputs": [
        {
          "indexed": true,
          "internalType": "bytes32",
          "name": "role",
          "type": "bytes32"
        },
        {
          "indexed": true,
          "internalType": "bytes32",
          "name": "previousAdminRole",
          "type": "bytes32"
        },
        {
          "indexed": true,
          "internalType": "bytes32",
          "name": "newAdminRole",
          "type": "bytes32"
        }
      ],
      "name": "RoleAdminChanged",
      "type": "event"
    },
    {
      "anonymous": false,
      "inputs": [
        {
          "indexed": true,
          "internalType": "bytes32",
          "name": "role",
          "type": "bytes32"
        },
        {
          "indexed": true,
          "internalType": "address",
          "name": "account",
          "type": "address"
        },
        {
          "indexed": true,
          "internalType": "address",
          "name": "sender",
          "type": "address"
        }
      ],
      "name": "RoleGranted",
      "type": "event"
    },
    {
      "anonymous": false,
      "inputs": [
        {
          "indexed": true,
          "internalType": "bytes32",
          "name": "role",
          "type": "bytes32"
        },
        {
          "indexed": true,
          "internalType": "address",
          "name": "account",
          "type": "address"
        }
      ],
      "name": "RoleRevoked",
      "type": "event"
    },
    {
      "inputs": [
        {
          "internalType": "bytes32",
          "name": "role",
          "type": "bytes32"
        },
        {
          "internalType": "address",
          "name": "account",
          "type": "address"
        }
      ],
      "name": "hasRole",
      "outputs": [
        {
          "internalType": "bool",
          "name": "",
          "type": "bool"
        }
      ],
      "stateMutability": "view",
      "type": "function",
      "constant": true
    },
    {
      "inputs": [
        {
          "internalType": "bytes32",
          "name": "role",
          "type": "bytes32"
        }
      ],
      "name": "getRoleExist",
      "outputs": [
        {
          "internalType": "bytes32",
          "name": "",
          "type": "bytes32"
        }
      ],
      "stateMutability": "view",
      "type": "function",
      "constant": true
    },
    {
      "inputs": [
        {
          "internalType": "bytes32",
          "name": "role",
          "type": "bytes32"
        },
        {
          "internalType": "address",
          "name": "account",
          "type": "address"
        }
      ],
      "name": "grantRole",
      "outputs": [],
      "stateMutability": "nonpayable",
      "type": "function"
    },
    {
      "inputs": [
        {
          "internalType": "bytes32",
          "name": "role",
          "type": "bytes32"
        },
        {
          "internalType": "address",
          "name": "account",
          "type": "address"
        }
      ],
      "name": "revokeRole",
      "outputs": [],
      "stateMutability": "nonpayable",
      "type": "function"
    },
    {
      "inputs": [
        {
          "internalType": "bytes32",
          "name": "role",
          "type": "bytes32"
        }
      ],
      "name": "renounceRole",
      "outputs": [],
      "stateMutability": "nonpayable",
      "type": "function"
    },
    {
      "inputs": [
        {
          "internalType": "bytes32",
          "name": "role",
          "type": "bytes32"
        }
      ],
      "name": "addNewRoleAdmin",
      "outputs": [],
      "stateMutability": "nonpayable",
      "type": "function"
    },
    {
      "inputs": [
        {
          "internalType": "bytes32",
          "name": "role",
          "type": "bytes32"
        }
      ],
      "name": "removeNewRoleAdmin",
      "outputs": [],
      "stateMutability": "nonpayable",
      "type": "function"
    }
  ],
  "bytecode": "0x60806040527fdf8b4c520ffe197c5343c6f5aec59570151ef9a492f2c624fd45ddde6135ec426001557fb39b9469ac3ddf8d58f06201f7e17350a277b429ed2a39727bf2f3a5165dba1a6002557fc951d7098b66ba0b8b77265b6e9cf0e187d73125a42bcd0061b09a68be42181060035534801561007c57600080fd5b506001600080600154815260200190815260200160002060000160006100a661015660201b60201c565b73ffffffffffffffffffffffffffffffffffffffff1673ffffffffffffffffffffffffffffffffffffffff16815260200190815260200160002060006101000a81548160ff02191690831515021790555060015460008060015481526020019081526020016000206001018190555060025460008060025481526020019081526020016000206001018190555060035460008060035481526020019081526020016000206001018190555061015e565b600033905090565b610abc8061016d6000396000f3fe608060405234801561001057600080fd5b506004361061007d5760003560e01c80638bb9c5bf1161005b5780638bb9c5bf146100ea57806391d1485414610106578063baaf412314610136578063d547741f146101525761007d565b80632f2ff15d146100825780634bca15fa1461009e57806367cf635f146100ba575b600080fd5b61009c600480360381019061009791906108d0565b61016e565b005b6100b860048036038101906100b39190610910565b6102f1565b005b6100d460048036038101906100cf9190610910565b6103ab565b6040516100e1919061094c565b60405180910390f35b61010460048036038101906100ff9190610910565b6103ca565b005b610120600480360381019061011b91906108d0565b6104fb565b60405161012d9190610982565b60405180910390f35b610150600480360381019061014b9190610910565b6105b4565b005b61016c600480360381019061016791906108d0565b6106c2565b005b816000801b61017c826103ab565b036101bc576040517f08c379a00000000000000000000000000000000000000000000000000000000081526004016101b3906109fa565b60405180910390fd5b6001546101d0816101cb61082f565b6104fb565b61020f576040517f08c379a000000000000000000000000000000000000000000000000000000000815260040161020690610a66565b60405180910390fd5b61021984846104fb565b6102eb57600160008086815260200190815260200160002060000160008573ffffffffffffffffffffffffffffffffffffffff1673ffffffffffffffffffffffffffffffffffffffff16815260200190815260200160002060006101000a81548160ff02191690831515021790555061029061082f565b73ffffffffffffffffffffffffffffffffffffffff168373ffffffffffffffffffffffffffffffffffffffff16857f2f8788117e7eff1d82e926ec794901d17c78024a50270940304540a733656f0d60405160405180910390a45b50505050565b6001546103058161030061082f565b6104fb565b610344576040517f08c379a000000000000000000000000000000000000000000000000000000000815260040161033b90610a66565b60405180910390fd5b6000801b610351836103ab565b1461035b57600080fd5b8160008084815260200190815260200160002060010181905550816000801b837fbd79b86ffe0ab8e8776151514217cd7cacd52c909f66475c3af44e129f0b00ff60405160405180910390a45050565b6000806000838152602001908152602001600020600101549050919050565b6103d3816103ab565b6103e4816103df61082f565b6104fb565b610423576040517f08c379a000000000000000000000000000000000000000000000000000000000815260040161041a90610a66565b60405180910390fd5b6104348261042f61082f565b6104fb565b156104f7576000806000848152602001908152602001600020600001600061045a61082f565b73ffffffffffffffffffffffffffffffffffffffff1673ffffffffffffffffffffffffffffffffffffffff16815260200190815260200160002060006101000a81548160ff0219169083151502179055506104b361082f565b73ffffffffffffffffffffffffffffffffffffffff16827f155aaafb6329a2098580462df33ec4b7441b19729b9601c5fc17ae1cf99a8a5260405160405180910390a35b5050565b6000826000801b61050b826103ab565b0361054b576040517f08c379a0000000000000000000000000000000000000000000000000000000008152600401610542906109fa565b60405180910390fd5b60008085815260200190815260200160002060000160008473ffffffffffffffffffffffffffffffffffffffff1673ffffffffffffffffffffffffffffffffffffffff16815260200190815260200160002060009054906101000a900460ff1691505092915050565b806000801b6105c2826103ab565b03610602576040517f08c379a00000000000000000000000000000000000000000000000000000000081526004016105f9906109fa565b60405180910390fd5b6001546106168161061161082f565b6104fb565b610655576040517f08c379a000000000000000000000000000000000000000000000000000000000815260040161064c90610a66565b60405180910390fd5b600154830361066357600080fd5b600061066e846103ab565b90506000801b600080868152602001908152602001600020600101819055508381857fbd79b86ffe0ab8e8776151514217cd7cacd52c909f66475c3af44e129f0b00ff60405160405180910390a450505050565b816000801b6106d0826103ab565b03610710576040517f08c379a0000000000000000000000000000000000000000000000000000000008152600401610707906109fa565b60405180910390fd5b6001546107248161071f61082f565b6104fb565b610763576040517f08c379a000000000000000000000000000000000000000000000000000000000815260040161075a90610a66565b60405180910390fd5b61076d84846104fb565b1561082957600080600086815260200190815260200160002060000160008573ffffffffffffffffffffffffffffffffffffffff1673ffffffffffffffffffffffffffffffffffffffff16815260200190815260200160002060006101000a81548160ff0219169083151502179055506107e561082f565b73ffffffffffffffffffffffffffffffffffffffff16847f155aaafb6329a2098580462df33ec4b7441b19729b9601c5fc17ae1cf99a8a5260405160405180910390a35b50505050565b600033905090565b600080fd5b6000819050919050565b61084f8161083c565b811461085a57600080fd5b50565b60008135905061086c81610846565b92915050565b600073ffffffffffffffffffffffffffffffffffffffff82169050919050565b600061089d82610872565b9050919050565b6108ad81610892565b81146108b857600080fd5b50565b6000813590506108ca816108a4565b92915050565b600080604083850312156108e7576108e6610837565b5b60006108f58582860161085d565b9250506020610906858286016108bb565b9150509250929050565b60006020828403121561092657610925610837565b5b60006109348482850161085d565b91505092915050565b6109468161083c565b82525050565b6000602082019050610961600083018461093d565b92915050565b60008115159050919050565b61097c81610967565b82525050565b60006020820190506109976000830184610973565b92915050565b600082825260208201905092915050565b7f526f6c652069736e277420657869737465640000000000000000000000000000600082015250565b60006109e460128361099d565b91506109ef826109ae565b602082019050919050565b60006020820190508181036000830152610a13816109d7565b9050919050565b7f596f7520617265206e6f7420616c6c6f77656400000000000000000000000000600082015250565b6000610a5060138361099d565b9150610a5b82610a1a565b602082019050919050565b60006020820190508181036000830152610a7f81610a43565b905091905056fea26469706673582212205c80ec9a9d3b6e94f06d56be6b8ed36d2036afe667ea35cdc4fe0e5226c38b8f64736f6c634300080e0033",
  "immutableReferences": {},
  "source": "// SPDX-License-Identifier: MIT\r\n\r\npragma solidity >=0.8.0;\r\n\r\nimport \"./interfaces/IAccessControl.sol\";\r\nimport \"@openzeppelin/contracts/utils/Context.sol\";\r\n\r\ncontract AccessControl is Context, IAccessControl {\r\n    mapping(bytes32 => RoleData) private _roles;\r\n\r\n    bytes32 internal ADMIN_ROLE = keccak256(\"ADMIN\");\r\n    bytes32 internal LECTURER_ROLE = keccak256(\"LECTURER\");\r\n    bytes32 internal STUDENT_ROLE = keccak256(\"STUDENT\");\r\n\r\n    constructor() {\r\n        _roles[ADMIN_ROLE].members[_msgSender()] = true;\r\n        _roles[ADMIN_ROLE].role = ADMIN_ROLE;\r\n        _roles[LECTURER_ROLE].role = LECTURER_ROLE;\r\n        _roles[STUDENT_ROLE].role = STUDENT_ROLE;\r\n    }\r\n\r\n    modifier onlyRole(bytes32 role) {\r\n        require(hasRole(role, _msgSender()), \"You are not allowed\");\r\n        _;\r\n    }\r\n\r\n    modifier onlyRoleExist(bytes32 role) {\r\n        require(getRoleExist(role) != bytes32(0), \"Role isn't existed\");\r\n        _;\r\n    }\r\n\r\n    function hasRole(bytes32 role, address account)\r\n        public\r\n        view\r\n        onlyRoleExist(role)\r\n        override\r\n        returns (bool)\r\n    {\r\n        return _roles[role].members[account];\r\n    }\r\n\r\n    function getRoleExist(bytes32 role) public view override returns (bytes32) {\r\n        return _roles[role].role;\r\n    }\r\n\r\n    function grantRole(bytes32 role, address account)\r\n        public\r\n        override\r\n        onlyRoleExist(role)\r\n        onlyRole(ADMIN_ROLE)\r\n    {\r\n        if (!hasRole(role, account)) {\r\n            _roles[role].members[account] = true;\r\n            emit RoleGranted(role, account, _msgSender());\r\n        }\r\n    }\r\n\r\n    function revokeRole(bytes32 role, address account)\r\n        public\r\n        override\r\n        virtual\r\n        onlyRoleExist(role)\r\n        onlyRole(ADMIN_ROLE)\r\n    {\r\n        if (hasRole(role, account)) {\r\n            _roles[role].members[account] = false;\r\n            emit RoleRevoked(role, _msgSender());\r\n        }\r\n    }\r\n\r\n    function renounceRole(bytes32 role)\r\n        public\r\n        override\r\n        onlyRole(getRoleExist(role))\r\n    {\r\n        if (hasRole(role, _msgSender())) {\r\n            _roles[role].members[_msgSender()] = false;\r\n            emit RoleRevoked(role, _msgSender());\r\n        }\r\n    }\r\n\r\n    function addNewRoleAdmin(bytes32 role) public override virtual onlyRole(ADMIN_ROLE) {\r\n        require(getRoleExist(role) == bytes32(0));\r\n        _roles[role].role = role;\r\n        emit RoleAdminChanged(role, bytes32(0), role);\r\n    }\r\n\r\n    function removeNewRoleAdmin(bytes32 role)\r\n        public\r\n        override\r\n        virtual\r\n        onlyRoleExist(role)\r\n        onlyRole(ADMIN_ROLE)\r\n    {\r\n        require(role != ADMIN_ROLE);\r\n        bytes32 previousAdminRole = getRoleExist(role);\r\n        _roles[role].role = bytes32(0);\r\n        emit RoleAdminChanged(role, previousAdminRole, role);\r\n    }\r\n}\r\n",
  "sourcePath": "E:\\KLTN\\KLTN\\KLTN-contracts\\contracts\\studentmanager\\AccessControl.sol",
  "compiler": {
    "name": "solc",
    "version": "0.8.14+commit.80d49f37.Emscripten.clang"
  },
  "schemaVersion": "3.4.3",
  "updatedAt": "2022-06-13T07:55:43.812Z",
  "networkType": "ethereum",
  "devdoc": {
    "kind": "dev",
    "methods": {},
    "version": 1
  },
  "userdoc": {
    "kind": "user",
    "methods": {},
    "version": 1
  }
}