{
  "contractName": "ActivateNFT",
  "abi": [
    {
      "inputs": [
        {
          "internalType": "address",
          "name": "_accessControl",
          "type": "address"
        },
        {
          "internalType": "address",
          "name": "_UITNFT",
          "type": "address"
        }
      ],
      "stateMutability": "nonpayable",
      "type": "constructor"
    },
    {
      "anonymous": false,
      "inputs": [
        {
          "indexed": false,
          "internalType": "uint256[]",
          "name": "_activateIds",
          "type": "uint256[]"
        },
        {
          "indexed": false,
          "internalType": "uint256",
          "name": "_cancelRequestTime",
          "type": "uint256"
        }
      ],
      "name": "ActivateNFTRequestCanceled",
      "type": "event"
    },
    {
      "anonymous": false,
      "inputs": [
        {
          "indexed": false,
          "internalType": "uint256",
          "name": "_activateId",
          "type": "uint256"
        },
        {
          "indexed": false,
          "internalType": "uint256",
          "name": "_itemId",
          "type": "uint256"
        },
        {
          "indexed": false,
          "internalType": "uint256",
          "name": "_amount",
          "type": "uint256"
        },
        {
          "indexed": false,
          "internalType": "uint256",
          "name": "_requestedTime",
          "type": "uint256"
        },
        {
          "indexed": false,
          "internalType": "address",
          "name": "_owner",
          "type": "address"
        }
      ],
      "name": "ActivateNFTRequested",
      "type": "event"
    },
    {
      "anonymous": false,
      "inputs": [
        {
          "indexed": false,
          "internalType": "uint256",
          "name": "_activateId",
          "type": "uint256"
        },
        {
          "indexed": false,
          "internalType": "uint256",
          "name": "_itemId",
          "type": "uint256"
        },
        {
          "indexed": false,
          "internalType": "uint256",
          "name": "_amount",
          "type": "uint256"
        },
        {
          "indexed": false,
          "internalType": "uint256",
          "name": "_activatedTime",
          "type": "uint256"
        },
        {
          "indexed": false,
          "internalType": "address",
          "name": "_owner",
          "type": "address"
        },
        {
          "indexed": false,
          "internalType": "bool",
          "name": "_isCourseNFT",
          "type": "bool"
        }
      ],
      "name": "NFTActivated",
      "type": "event"
    },
    {
      "anonymous": false,
      "inputs": [
        {
          "indexed": true,
          "internalType": "address",
          "name": "previousOwner",
          "type": "address"
        },
        {
          "indexed": true,
          "internalType": "address",
          "name": "newOwner",
          "type": "address"
        }
      ],
      "name": "OwnershipTransferred",
      "type": "event"
    },
    {
      "anonymous": false,
      "inputs": [
        {
          "indexed": false,
          "internalType": "address",
          "name": "account",
          "type": "address"
        }
      ],
      "name": "Paused",
      "type": "event"
    },
    {
      "anonymous": false,
      "inputs": [
        {
          "indexed": false,
          "internalType": "address",
          "name": "account",
          "type": "address"
        }
      ],
      "name": "Unpaused",
      "type": "event"
    },
    {
      "inputs": [],
      "name": "UITNFT",
      "outputs": [
        {
          "internalType": "address",
          "name": "",
          "type": "address"
        }
      ],
      "stateMutability": "view",
      "type": "function",
      "constant": true
    },
    {
      "inputs": [],
      "name": "accessControl",
      "outputs": [
        {
          "internalType": "address",
          "name": "",
          "type": "address"
        }
      ],
      "stateMutability": "view",
      "type": "function",
      "constant": true
    },
    {
      "inputs": [
        {
          "internalType": "uint256",
          "name": "",
          "type": "uint256"
        }
      ],
      "name": "activateInfoList",
      "outputs": [
        {
          "internalType": "uint256",
          "name": "activateId",
          "type": "uint256"
        },
        {
          "internalType": "address",
          "name": "ownerOfRequest",
          "type": "address"
        },
        {
          "internalType": "uint256",
          "name": "itemId",
          "type": "uint256"
        },
        {
          "internalType": "uint256",
          "name": "amount",
          "type": "uint256"
        },
        {
          "internalType": "uint256",
          "name": "requestedTime",
          "type": "uint256"
        },
        {
          "internalType": "uint256",
          "name": "activatedTime",
          "type": "uint256"
        },
        {
          "internalType": "bool",
          "name": "isRequested",
          "type": "bool"
        },
        {
          "internalType": "bool",
          "name": "isActivate",
          "type": "bool"
        }
      ],
      "stateMutability": "view",
      "type": "function",
      "constant": true
    },
    {
      "inputs": [],
      "name": "marketplaceAddress",
      "outputs": [
        {
          "internalType": "address",
          "name": "",
          "type": "address"
        }
      ],
      "stateMutability": "view",
      "type": "function",
      "constant": true
    },
    {
      "inputs": [
        {
          "internalType": "address",
          "name": "",
          "type": "address"
        },
        {
          "internalType": "address",
          "name": "",
          "type": "address"
        },
        {
          "internalType": "uint256[]",
          "name": "",
          "type": "uint256[]"
        },
        {
          "internalType": "uint256[]",
          "name": "",
          "type": "uint256[]"
        },
        {
          "internalType": "bytes",
          "name": "",
          "type": "bytes"
        }
      ],
      "name": "onERC1155BatchReceived",
      "outputs": [
        {
          "internalType": "bytes4",
          "name": "",
          "type": "bytes4"
        }
      ],
      "stateMutability": "nonpayable",
      "type": "function"
    },
    {
      "inputs": [
        {
          "internalType": "address",
          "name": "",
          "type": "address"
        },
        {
          "internalType": "address",
          "name": "",
          "type": "address"
        },
        {
          "internalType": "uint256",
          "name": "",
          "type": "uint256"
        },
        {
          "internalType": "uint256",
          "name": "",
          "type": "uint256"
        },
        {
          "internalType": "bytes",
          "name": "",
          "type": "bytes"
        }
      ],
      "name": "onERC1155Received",
      "outputs": [
        {
          "internalType": "bytes4",
          "name": "",
          "type": "bytes4"
        }
      ],
      "stateMutability": "nonpayable",
      "type": "function"
    },
    {
      "inputs": [],
      "name": "owner",
      "outputs": [
        {
          "internalType": "address",
          "name": "",
          "type": "address"
        }
      ],
      "stateMutability": "view",
      "type": "function",
      "constant": true
    },
    {
      "inputs": [],
      "name": "paused",
      "outputs": [
        {
          "internalType": "bool",
          "name": "",
          "type": "bool"
        }
      ],
      "stateMutability": "view",
      "type": "function",
      "constant": true
    },
    {
      "inputs": [],
      "name": "renounceOwnership",
      "outputs": [],
      "stateMutability": "nonpayable",
      "type": "function"
    },
    {
      "inputs": [
        {
          "internalType": "bytes4",
          "name": "interfaceId",
          "type": "bytes4"
        }
      ],
      "name": "supportsInterface",
      "outputs": [
        {
          "internalType": "bool",
          "name": "",
          "type": "bool"
        }
      ],
      "stateMutability": "view",
      "type": "function",
      "constant": true
    },
    {
      "inputs": [
        {
          "internalType": "address",
          "name": "newOwner",
          "type": "address"
        }
      ],
      "name": "transferOwnership",
      "outputs": [],
      "stateMutability": "nonpayable",
      "type": "function"
    },
    {
      "inputs": [
        {
          "internalType": "address",
          "name": "_marketplaceAddress",
          "type": "address"
        }
      ],
      "name": "setMarketplaceAddress",
      "outputs": [],
      "stateMutability": "nonpayable",
      "type": "function"
    },
    {
      "inputs": [
        {
          "internalType": "uint256",
          "name": "_itemId",
          "type": "uint256"
        },
        {
          "internalType": "uint256",
          "name": "_amount",
          "type": "uint256"
        }
      ],
      "name": "requestActivateNFT",
      "outputs": [],
      "stateMutability": "nonpayable",
      "type": "function"
    },
    {
      "inputs": [
        {
          "internalType": "uint256[]",
          "name": "_activateIds",
          "type": "uint256[]"
        }
      ],
      "name": "cancelRequestActivateNFT",
      "outputs": [],
      "stateMutability": "nonpayable",
      "type": "function"
    },
    {
      "inputs": [
        {
          "internalType": "uint256[]",
          "name": "_activateIds",
          "type": "uint256[]"
        }
      ],
      "name": "activateNFT",
      "outputs": [],
      "stateMutability": "nonpayable",
      "type": "function"
    },
    {
      "inputs": [
        {
          "internalType": "address",
          "name": "_accessControl",
          "type": "address"
        }
      ],
      "name": "setAccessControl",
      "outputs": [],
      "stateMutability": "nonpayable",
      "type": "function"
    },
    {
      "inputs": [],
      "name": "pause",
      "outputs": [],
      "stateMutability": "nonpayable",
      "type": "function"
    },
    {
      "inputs": [],
      "name": "unpause",
      "outputs": [],
      "stateMutability": "nonpayable",
      "type": "function"
    }
  ],
  "bytecode": "0x60a06040523480156200001157600080fd5b5060405162002ecf38038062002ecf8339818101604052810190620000379190620002cf565b60008060006101000a81548160ff02191690831515021790555062000071620000656200019860201b60201c565b620001a060201b60201c565b60018081905550600073ffffffffffffffffffffffffffffffffffffffff168273ffffffffffffffffffffffffffffffffffffffff1603620000ea576040517f08c379a0000000000000000000000000000000000000000000000000000000008152600401620000e1906200039d565b60405180910390fd5b600073ffffffffffffffffffffffffffffffffffffffff168173ffffffffffffffffffffffffffffffffffffffff16036200015c576040517f08c379a0000000000000000000000000000000000000000000000000000000008152600401620001539062000435565b60405180910390fd5b8073ffffffffffffffffffffffffffffffffffffffff1660808173ffffffffffffffffffffffffffffffffffffffff1681525050505062000457565b600033905090565b60008060019054906101000a900473ffffffffffffffffffffffffffffffffffffffff16905081600060016101000a81548173ffffffffffffffffffffffffffffffffffffffff021916908373ffffffffffffffffffffffffffffffffffffffff1602179055508173ffffffffffffffffffffffffffffffffffffffff168173ffffffffffffffffffffffffffffffffffffffff167f8be0079c531659141344cd1fd0a4f28419497f9722a3daafe3b4186f6b6457e060405160405180910390a35050565b600080fd5b600073ffffffffffffffffffffffffffffffffffffffff82169050919050565b600062000297826200026a565b9050919050565b620002a9816200028a565b8114620002b557600080fd5b50565b600081519050620002c9816200029e565b92915050565b60008060408385031215620002e957620002e862000265565b5b6000620002f985828601620002b8565b92505060206200030c85828601620002b8565b9150509250929050565b600082825260208201905092915050565b7f41637469766174654e46543a2041636365737320636f6e74726f6c20636f6e7460008201527f726163742063616e6e6f74206265203000000000000000000000000000000000602082015250565b60006200038560308362000316565b9150620003928262000327565b604082019050919050565b60006020820190508181036000830152620003b88162000376565b9050919050565b7f41637469766174654e46543a205549544e46546f6b656e206d757374206e6f7460008201527f2062652061646472657373203000000000000000000000000000000000000000602082015250565b60006200041d602d8362000316565b91506200042a82620003bf565b604082019050919050565b6000602082019050818103600083015262000450816200040e565b9050919050565b608051612a396200049660003960008181610493015281816105d60152818161081a0152818161099f01528181610da401526112c10152612a396000f3fe608060405234801561001057600080fd5b50600436106101165760003560e01c80638da5cb5b116100a2578063c949cf7d11610071578063c949cf7d14610281578063cca4d73b1461029d578063daa17f49146102d4578063f23a6e61146102f2578063f2fde38b1461032257610116565b80638da5cb5b146101fb578063a8a40f8c14610219578063b47cc55614610235578063bc197c811461025157610116565b80633b88699b116100e95780633b88699b146101a15780633f4ba83a146101bf5780635c975abb146101c9578063715018a6146101e75780638456cb59146101f157610116565b806301ffc9a71461011b5780630dcd0c201461014b57806313007d551461016757806319129e5a14610185575b600080fd5b6101356004803603810190610130919061185a565b61033e565b60405161014291906118a2565b60405180910390f35b610165600480360381019061016091906118f3565b6103b8565b005b61016f6108b7565b60405161017c9190611974565b60405180910390f35b61019f600480360381019061019a91906119bb565b6108dd565b005b6101a961099d565b6040516101b69190611974565b60405180910390f35b6101c76109c1565b005b6101d1610a47565b6040516101de91906118a2565b60405180910390f35b6101ef610a5d565b005b6101f9610ae5565b005b610203610b6b565b6040516102109190611974565b60405180910390f35b610233600480360381019061022e9190611b41565b610b94565b005b61024f600480360381019061024a91906119bb565b610f36565b005b61026b60048036038101906102669190611c3f565b611077565b6040516102789190611d1d565b60405180910390f35b61029b60048036038101906102969190611b41565b61108c565b005b6102b760048036038101906102b29190611d38565b6113b0565b6040516102cb989796959493929190611d74565b60405180910390f35b6102dc611442565b6040516102e99190611974565b60405180910390f35b61030c60048036038101906103079190611df2565b611468565b6040516103199190611d1d565b60405180910390f35b61033c600480360381019061033791906119bb565b61147d565b005b60007f4e2312e0000000000000000000000000000000000000000000000000000000007bffffffffffffffffffffffffffffffffffffffffffffffffffffffff1916827bffffffffffffffffffffffffffffffffffffffffffffffffffffffff191614806103b157506103b082611574565b5b9050919050565b6103c0610a47565b15610400576040517f08c379a00000000000000000000000000000000000000000000000000000000081526004016103f790611ee6565b60405180910390fd5b600260015403610445576040517f08c379a000000000000000000000000000000000000000000000000000000000815260040161043c90611f52565b60405180910390fd5b600260018190555060008111610490576040517f08c379a000000000000000000000000000000000000000000000000000000000815260040161048790611fbe565b60405180910390fd5b807f000000000000000000000000000000000000000000000000000000000000000073ffffffffffffffffffffffffffffffffffffffff1662fdd58e33856040518363ffffffff1660e01b81526004016104eb929190611fde565b602060405180830381865afa158015610508573d6000803e3d6000fd5b505050506040513d601f19601f8201168201806040525081019061052c919061201c565b101561056d576040517f08c379a0000000000000000000000000000000000000000000000000000000008152600401610564906120bb565b60405180910390fd5b6000600480549050905060006040518061010001604052808381526020013373ffffffffffffffffffffffffffffffffffffffff1681526020018581526020018481526020014281526020016000815260200160011515815260200160001515815250905060007f000000000000000000000000000000000000000000000000000000000000000073ffffffffffffffffffffffffffffffffffffffff1663d188929f866040518263ffffffff1660e01b815260040161062d91906120db565b6000604051808303816000875af115801561064c573d6000803e3d6000fd5b505050506040513d6000823e3d601f19601f82011682018060405250810190610675919061226c565b90508060200151156106e55760018260c00190151590811515815250507fa6339fcd095f8d8805782f31fcb3075eaee0ca2ec6a09f047ce3a188bee5fbe06001846106c091906122e4565b8686423360016040516106d89695949392919061233a565b60405180910390a1610731565b7f54dcb3e9f95f49fa68a8c81df673aab73f65de00ce9c87c639fbf8b53bb2a3c760018461071391906122e4565b8686423360405161072895949392919061239b565b60405180910390a15b60048290806001815401808255809150506001900390600052602060002090600702016000909190919091506000820151816000015560208201518160010160006101000a81548173ffffffffffffffffffffffffffffffffffffffff021916908373ffffffffffffffffffffffffffffffffffffffff16021790555060408201518160020155606082015181600301556080820151816004015560a0820151816005015560c08201518160060160006101000a81548160ff02191690831515021790555060e08201518160060160016101000a81548160ff02191690831515021790555050507f000000000000000000000000000000000000000000000000000000000000000073ffffffffffffffffffffffffffffffffffffffff1663f242432a333088886040518563ffffffff1660e01b81526004016108779493929190612425565b600060405180830381600087803b15801561089157600080fd5b505af11580156108a5573d6000803e3d6000fd5b50505050505050600180819055505050565b600260009054906101000a900473ffffffffffffffffffffffffffffffffffffffff1681565b6108e56115de565b73ffffffffffffffffffffffffffffffffffffffff16610903610b6b565b73ffffffffffffffffffffffffffffffffffffffff1614610959576040517f08c379a0000000000000000000000000000000000000000000000000000000008152600401610950906124c9565b60405180910390fd5b80600260006101000a81548173ffffffffffffffffffffffffffffffffffffffff021916908373ffffffffffffffffffffffffffffffffffffffff16021790555050565b7f000000000000000000000000000000000000000000000000000000000000000081565b6109c96115de565b73ffffffffffffffffffffffffffffffffffffffff166109e7610b6b565b73ffffffffffffffffffffffffffffffffffffffff1614610a3d576040517f08c379a0000000000000000000000000000000000000000000000000000000008152600401610a34906124c9565b60405180910390fd5b610a456115e6565b565b60008060009054906101000a900460ff16905090565b610a656115de565b73ffffffffffffffffffffffffffffffffffffffff16610a83610b6b565b73ffffffffffffffffffffffffffffffffffffffff1614610ad9576040517f08c379a0000000000000000000000000000000000000000000000000000000008152600401610ad0906124c9565b60405180910390fd5b610ae36000611687565b565b610aed6115de565b73ffffffffffffffffffffffffffffffffffffffff16610b0b610b6b565b73ffffffffffffffffffffffffffffffffffffffff1614610b61576040517f08c379a0000000000000000000000000000000000000000000000000000000008152600401610b58906124c9565b60405180910390fd5b610b6961174c565b565b60008060019054906101000a900473ffffffffffffffffffffffffffffffffffffffff16905090565b600360009054906101000a900473ffffffffffffffffffffffffffffffffffffffff1673ffffffffffffffffffffffffffffffffffffffff163373ffffffffffffffffffffffffffffffffffffffff1614610bee57600080fd5b610bf6610a47565b15610c36576040517f08c379a0000000000000000000000000000000000000000000000000000000008152600401610c2d90611ee6565b60405180910390fd5b600260015403610c7b576040517f08c379a0000000000000000000000000000000000000000000000000000000008152600401610c7290611f52565b60405180910390fd5b600260018190555060005b8151811015610f2b5760006004838381518110610ca657610ca56124e9565b5b602002602001015181548110610cbf57610cbe6124e9565b5b906000526020600020906007020190508060060160009054906101000a900460ff16610d20576040517f08c379a0000000000000000000000000000000000000000000000000000000008152600401610d179061258a565b60405180910390fd5b8060060160019054906101000a900460ff16610d71576040517f08c379a0000000000000000000000000000000000000000000000000000000008152600401610d689061261c565b60405180910390fd5b60008160020154905060018260060160016101000a81548160ff02191690831515021790555042826005018190555060007f000000000000000000000000000000000000000000000000000000000000000073ffffffffffffffffffffffffffffffffffffffff1663d188929f836040518263ffffffff1660e01b8152600401610dfb91906120db565b6000604051808303816000875af1158015610e1a573d6000803e3d6000fd5b505050506040513d6000823e3d601f19601f82011682018060405250810190610e43919061226c565b9050806020015115610eb4577fa6339fcd095f8d8805782f31fcb3075eaee0ca2ec6a09f047ce3a188bee5fbe0858581518110610e8357610e826124e9565b5b602002602001015183856003015442336001604051610ea79695949392919061233a565b60405180910390a1610f15565b7fa6339fcd095f8d8805782f31fcb3075eaee0ca2ec6a09f047ce3a188bee5fbe0858581518110610ee857610ee76124e9565b5b602002602001015183856003015442336000604051610f0c9695949392919061233a565b60405180910390a15b5050508080610f239061263c565b915050610c86565b506001808190555050565b600260009054906101000a900473ffffffffffffffffffffffffffffffffffffffff1673ffffffffffffffffffffffffffffffffffffffff166391d148547fdf8b4c520ffe197c5343c6f5aec59570151ef9a492f2c624fd45ddde6135ec42336040518363ffffffff1660e01b8152600401610fb392919061269d565b602060405180830381865afa158015610fd0573d6000803e3d6000fd5b505050506040513d601f19601f82011682018060405250810190610ff491906126c6565b611033576040517f08c379a000000000000000000000000000000000000000000000000000000000815260040161102a90612765565b60405180910390fd5b80600360006101000a81548173ffffffffffffffffffffffffffffffffffffffff021916908373ffffffffffffffffffffffffffffffffffffffff16021790555050565b600063bc197c8160e01b905095945050505050565b611094610a47565b156110d4576040517f08c379a00000000000000000000000000000000000000000000000000000000081526004016110cb90611ee6565b60405180910390fd5b600260015403611119576040517f08c379a000000000000000000000000000000000000000000000000000000000815260040161111090611f52565b60405180910390fd5b600260018190555060005b815181101561136c5760006004838381518110611144576111436124e9565b5b60200260200101518154811061115d5761115c6124e9565b5b906000526020600020906007020190503373ffffffffffffffffffffffffffffffffffffffff168160010160009054906101000a900473ffffffffffffffffffffffffffffffffffffffff1673ffffffffffffffffffffffffffffffffffffffff16146111ff576040517f08c379a00000000000000000000000000000000000000000000000000000000081526004016111f6906127f7565b60405180910390fd5b8060060160009054906101000a900460ff16611250576040517f08c379a00000000000000000000000000000000000000000000000000000000081526004016112479061258a565b60405180910390fd5b8060060160019054906101000a900460ff16156112a2576040517f08c379a00000000000000000000000000000000000000000000000000000000081526004016112999061261c565b60405180910390fd5b60008160060160006101000a81548160ff0219169083151502179055507f000000000000000000000000000000000000000000000000000000000000000073ffffffffffffffffffffffffffffffffffffffff1663f242432a3033846002015485600301546040518563ffffffff1660e01b81526004016113269493929190612425565b600060405180830381600087803b15801561134057600080fd5b505af1158015611354573d6000803e3d6000fd5b505050505080806113649061263c565b915050611124565b507f8e9a7d43b9ff0515fbe8f1db68c5ec8c07de5a37206d115f6d418de434ac1ab9814260405161139e9291906128d5565b60405180910390a16001808190555050565b600481815481106113c057600080fd5b90600052602060002090600702016000915090508060000154908060010160009054906101000a900473ffffffffffffffffffffffffffffffffffffffff16908060020154908060030154908060040154908060050154908060060160009054906101000a900460ff16908060060160019054906101000a900460ff16905088565b600360009054906101000a900473ffffffffffffffffffffffffffffffffffffffff1681565b600063f23a6e6160e01b905095945050505050565b6114856115de565b73ffffffffffffffffffffffffffffffffffffffff166114a3610b6b565b73ffffffffffffffffffffffffffffffffffffffff16146114f9576040517f08c379a00000000000000000000000000000000000000000000000000000000081526004016114f0906124c9565b60405180910390fd5b600073ffffffffffffffffffffffffffffffffffffffff168173ffffffffffffffffffffffffffffffffffffffff1603611568576040517f08c379a000000000000000000000000000000000000000000000000000000000815260040161155f90612977565b60405180910390fd5b61157181611687565b50565b60007f01ffc9a7000000000000000000000000000000000000000000000000000000007bffffffffffffffffffffffffffffffffffffffffffffffffffffffff1916827bffffffffffffffffffffffffffffffffffffffffffffffffffffffff1916149050919050565b600033905090565b6115ee610a47565b61162d576040517f08c379a0000000000000000000000000000000000000000000000000000000008152600401611624906129e3565b60405180910390fd5b60008060006101000a81548160ff0219169083151502179055507f5db9ee0a495bf2e6ff9c91a7834c1ba4fdd244a5e8aa4e537bd38aeae4b073aa6116706115de565b60405161167d9190611974565b60405180910390a1565b60008060019054906101000a900473ffffffffffffffffffffffffffffffffffffffff16905081600060016101000a81548173ffffffffffffffffffffffffffffffffffffffff021916908373ffffffffffffffffffffffffffffffffffffffff1602179055508173ffffffffffffffffffffffffffffffffffffffff168173ffffffffffffffffffffffffffffffffffffffff167f8be0079c531659141344cd1fd0a4f28419497f9722a3daafe3b4186f6b6457e060405160405180910390a35050565b611754610a47565b15611794576040517f08c379a000000000000000000000000000000000000000000000000000000000815260040161178b90611ee6565b60405180910390fd5b60016000806101000a81548160ff0219169083151502179055507f62e78cea01bee320cd4e420270b5ea74000d11b0c9f74754ebdbfc544b05a2586117d76115de565b6040516117e49190611974565b60405180910390a1565b6000604051905090565b600080fd5b600080fd5b60007fffffffff0000000000000000000000000000000000000000000000000000000082169050919050565b61183781611802565b811461184257600080fd5b50565b6000813590506118548161182e565b92915050565b6000602082840312156118705761186f6117f8565b5b600061187e84828501611845565b91505092915050565b60008115159050919050565b61189c81611887565b82525050565b60006020820190506118b76000830184611893565b92915050565b6000819050919050565b6118d0816118bd565b81146118db57600080fd5b50565b6000813590506118ed816118c7565b92915050565b6000806040838503121561190a576119096117f8565b5b6000611918858286016118de565b9250506020611929858286016118de565b9150509250929050565b600073ffffffffffffffffffffffffffffffffffffffff82169050919050565b600061195e82611933565b9050919050565b61196e81611953565b82525050565b60006020820190506119896000830184611965565b92915050565b61199881611953565b81146119a357600080fd5b50565b6000813590506119b58161198f565b92915050565b6000602082840312156119d1576119d06117f8565b5b60006119df848285016119a6565b91505092915050565b600080fd5b6000601f19601f8301169050919050565b7f4e487b7100000000000000000000000000000000000000000000000000000000600052604160045260246000fd5b611a36826119ed565b810181811067ffffffffffffffff82111715611a5557611a546119fe565b5b80604052505050565b6000611a686117ee565b9050611a748282611a2d565b919050565b600067ffffffffffffffff821115611a9457611a936119fe565b5b602082029050602081019050919050565b600080fd5b6000611abd611ab884611a79565b611a5e565b90508083825260208201905060208402830185811115611ae057611adf611aa5565b5b835b81811015611b095780611af588826118de565b845260208401935050602081019050611ae2565b5050509392505050565b600082601f830112611b2857611b276119e8565b5b8135611b38848260208601611aaa565b91505092915050565b600060208284031215611b5757611b566117f8565b5b600082013567ffffffffffffffff811115611b7557611b746117fd565b5b611b8184828501611b13565b91505092915050565b600080fd5b600067ffffffffffffffff821115611baa57611ba96119fe565b5b611bb3826119ed565b9050602081019050919050565b82818337600083830152505050565b6000611be2611bdd84611b8f565b611a5e565b905082815260208101848484011115611bfe57611bfd611b8a565b5b611c09848285611bc0565b509392505050565b600082601f830112611c2657611c256119e8565b5b8135611c36848260208601611bcf565b91505092915050565b600080600080600060a08688031215611c5b57611c5a6117f8565b5b6000611c69888289016119a6565b9550506020611c7a888289016119a6565b945050604086013567ffffffffffffffff811115611c9b57611c9a6117fd565b5b611ca788828901611b13565b935050606086013567ffffffffffffffff811115611cc857611cc76117fd565b5b611cd488828901611b13565b925050608086013567ffffffffffffffff811115611cf557611cf46117fd565b5b611d0188828901611c11565b9150509295509295909350565b611d1781611802565b82525050565b6000602082019050611d326000830184611d0e565b92915050565b600060208284031215611d4e57611d4d6117f8565b5b6000611d5c848285016118de565b91505092915050565b611d6e816118bd565b82525050565b600061010082019050611d8a600083018b611d65565b611d97602083018a611965565b611da46040830189611d65565b611db16060830188611d65565b611dbe6080830187611d65565b611dcb60a0830186611d65565b611dd860c0830185611893565b611de560e0830184611893565b9998505050505050505050565b600080600080600060a08688031215611e0e57611e0d6117f8565b5b6000611e1c888289016119a6565b9550506020611e2d888289016119a6565b9450506040611e3e888289016118de565b9350506060611e4f888289016118de565b925050608086013567ffffffffffffffff811115611e7057611e6f6117fd565b5b611e7c88828901611c11565b9150509295509295909350565b600082825260208201905092915050565b7f5061757361626c653a2070617573656400000000000000000000000000000000600082015250565b6000611ed0601083611e89565b9150611edb82611e9a565b602082019050919050565b60006020820190508181036000830152611eff81611ec3565b9050919050565b7f5265656e7472616e637947756172643a207265656e7472616e742063616c6c00600082015250565b6000611f3c601f83611e89565b9150611f4782611f06565b602082019050919050565b60006020820190508181036000830152611f6b81611f2f565b9050919050565b7f41637469766174654e46543a20616d6f756e74206973207a65726f0000000000600082015250565b6000611fa8601b83611e89565b9150611fb382611f72565b602082019050919050565b60006020820190508181036000830152611fd781611f9b565b9050919050565b6000604082019050611ff36000830185611965565b6120006020830184611d65565b9392505050565b600081519050612016816118c7565b92915050565b600060208284031215612032576120316117f8565b5b600061204084828501612007565b91505092915050565b7f41637469766174654e46543a2042616c616e6365206f66206974656d73206c6560008201527f7373207468616e20616d6f756e74000000000000000000000000000000000000602082015250565b60006120a5602e83611e89565b91506120b082612049565b604082019050919050565b600060208201905081810360008301526120d481612098565b9050919050565b60006020820190506120f06000830184611d65565b92915050565b600080fd5b600080fd5b600067ffffffffffffffff82111561211b5761211a6119fe565b5b612124826119ed565b9050602081019050919050565b60005b8381101561214f578082015181840152602081019050612134565b8381111561215e576000848401525b50505050565b600061217761217284612100565b611a5e565b90508281526020810184848401111561219357612192611b8a565b5b61219e848285612131565b509392505050565b600082601f8301126121bb576121ba6119e8565b5b81516121cb848260208601612164565b91505092915050565b6121dd81611887565b81146121e857600080fd5b50565b6000815190506121fa816121d4565b92915050565b600060408284031215612216576122156120f6565b5b6122206040611a5e565b9050600082015167ffffffffffffffff8111156122405761223f6120fb565b5b61224c848285016121a6565b6000830152506020612260848285016121eb565b60208301525092915050565b600060208284031215612282576122816117f8565b5b600082015167ffffffffffffffff8111156122a05761229f6117fd565b5b6122ac84828501612200565b91505092915050565b7f4e487b7100000000000000000000000000000000000000000000000000000000600052601160045260246000fd5b60006122ef826118bd565b91506122fa836118bd565b9250827fffffffffffffffffffffffffffffffffffffffffffffffffffffffffffffffff0382111561232f5761232e6122b5565b5b828201905092915050565b600060c08201905061234f6000830189611d65565b61235c6020830188611d65565b6123696040830187611d65565b6123766060830186611d65565b6123836080830185611965565b61239060a0830184611893565b979650505050505050565b600060a0820190506123b06000830188611d65565b6123bd6020830187611d65565b6123ca6040830186611d65565b6123d76060830185611d65565b6123e46080830184611965565b9695505050505050565b600082825260208201905092915050565b50565b600061240f6000836123ee565b915061241a826123ff565b600082019050919050565b600060a08201905061243a6000830187611965565b6124476020830186611965565b6124546040830185611d65565b6124616060830184611d65565b818103608083015261247281612402565b905095945050505050565b7f4f776e61626c653a2063616c6c6572206973206e6f7420746865206f776e6572600082015250565b60006124b3602083611e89565b91506124be8261247d565b602082019050919050565b600060208201905081810360008301526124e2816124a6565b9050919050565b7f4e487b7100000000000000000000000000000000000000000000000000000000600052603260045260246000fd5b7f41637469766174654e46543a206163746976617465496e666f206973206e6f7460008201527f2072657175657374656400000000000000000000000000000000000000000000602082015250565b6000612574602a83611e89565b915061257f82612518565b604082019050919050565b600060208201905081810360008301526125a381612567565b9050919050565b7f41637469766174654e46543a206163746976617465496e666f20697320616c7260008201527f6561647920616374697661746564000000000000000000000000000000000000602082015250565b6000612606602e83611e89565b9150612611826125aa565b604082019050919050565b60006020820190508181036000830152612635816125f9565b9050919050565b6000612647826118bd565b91507fffffffffffffffffffffffffffffffffffffffffffffffffffffffffffffffff8203612679576126786122b5565b5b600182019050919050565b6000819050919050565b61269781612684565b82525050565b60006040820190506126b2600083018561268e565b6126bf6020830184611965565b9392505050565b6000602082840312156126dc576126db6117f8565b5b60006126ea848285016121eb565b91505092915050565b7f4d61726b6574706c6163653a204f6e6c792061646d696e2063616e2063616c6c60008201527f20746869732066756e6374696f6e000000000000000000000000000000000000602082015250565b600061274f602e83611e89565b915061275a826126f3565b604082019050919050565b6000602082019050818103600083015261277e81612742565b9050919050565b7f41637469766174654e46543a204e6f74206f776e6572206f662072657175657360008201527f7400000000000000000000000000000000000000000000000000000000000000602082015250565b60006127e1602183611e89565b91506127ec82612785565b604082019050919050565b60006020820190508181036000830152612810816127d4565b9050919050565b600081519050919050565b600082825260208201905092915050565b6000819050602082019050919050565b61284c816118bd565b82525050565b600061285e8383612843565b60208301905092915050565b6000602082019050919050565b600061288282612817565b61288c8185612822565b935061289783612833565b8060005b838110156128c85781516128af8882612852565b97506128ba8361286a565b92505060018101905061289b565b5085935050505092915050565b600060408201905081810360008301526128ef8185612877565b90506128fe6020830184611d65565b9392505050565b7f4f776e61626c653a206e6577206f776e657220697320746865207a65726f206160008201527f6464726573730000000000000000000000000000000000000000000000000000602082015250565b6000612961602683611e89565b915061296c82612905565b604082019050919050565b6000602082019050818103600083015261299081612954565b9050919050565b7f5061757361626c653a206e6f7420706175736564000000000000000000000000600082015250565b60006129cd601483611e89565b91506129d882612997565b602082019050919050565b600060208201905081810360008301526129fc816129c0565b905091905056fea2646970667358221220c3565a6c62ebf7cb93d0b0080ca253ff5c461cc4df9d3d0a1e23f8abac0c975364736f6c634300080e0033",
  "immutableReferences": {
    "4854": [
      {
        "length": 32,
        "start": 1171
      },
      {
        "length": 32,
        "start": 1494
      },
      {
        "length": 32,
        "start": 2074
      },
      {
        "length": 32,
        "start": 2463
      },
      {
        "length": 32,
        "start": 3492
      },
      {
        "length": 32,
        "start": 4801
      }
    ]
  },
  "source": "//SPDX-License-Identifier: MIT\r\npragma solidity ^0.8.0;\r\n\r\nimport \"./interfaces/IActivateNFT.sol\";\r\nimport \"../studentmanager/interfaces/IAccessControl.sol\";\r\nimport \"../token/interfaces/IUITNFTToken.sol\";\r\nimport \"@openzeppelin/contracts/token/ERC20/IERC20.sol\";\r\nimport \"@openzeppelin/contracts/token/ERC20/utils/SafeERC20.sol\";\r\nimport \"@openzeppelin/contracts/token/ERC1155/IERC1155.sol\";\r\nimport \"@openzeppelin/contracts/token/ERC1155/IERC1155Receiver.sol\";\r\nimport {ERC1155Holder} from \"@openzeppelin/contracts/token/ERC1155/utils/ERC1155Holder.sol\";\r\nimport \"@openzeppelin/contracts/access/Ownable.sol\";\r\nimport \"@openzeppelin/contracts/security/ReentrancyGuard.sol\";\r\nimport \"@openzeppelin/contracts/utils/Counters.sol\";\r\nimport \"@openzeppelin/contracts/security/Pausable.sol\";\r\n\r\ncontract ActivateNFT is\r\n    IActivateNFT,\r\n    Pausable,\r\n    Ownable,\r\n    ReentrancyGuard,\r\n    ERC1155Holder\r\n{\r\n    using SafeERC20 for IERC20;\r\n    using Counters for Counters.Counter;\r\n\r\n    address public accessControl;\r\n    address public marketplaceAddress;\r\n    address public immutable UITNFT;\r\n\r\n    bytes32 internal constant ADMIN_ROLE = keccak256(\"ADMIN\");\r\n\r\n    ActivateInfo[] public activateInfoList;\r\n\r\n    constructor(address _accessControl, address _UITNFT) {\r\n        require(\r\n            _accessControl != address(0),\r\n            \"ActivateNFT: Access control contract cannot be 0\"\r\n        );\r\n        require(\r\n            _UITNFT != address(0),\r\n            \"ActivateNFT: UITNFToken must not be address 0\"\r\n        );\r\n        UITNFT = _UITNFT;\r\n    }\r\n\r\n    modifier onlyAdmin() {\r\n        require(\r\n            IAccessControl(accessControl).hasRole(ADMIN_ROLE, msg.sender),\r\n            \"Marketplace: Only admin can call this function\"\r\n        );\r\n        _;\r\n    }\r\n\r\n    modifier onlyMarketplace() {\r\n        require(msg.sender == marketplaceAddress);\r\n        _;\r\n    }\r\n\r\n    function setMarketplaceAddress(address _marketplaceAddress)\r\n        external\r\n        onlyAdmin\r\n    {\r\n        marketplaceAddress = _marketplaceAddress;\r\n    }\r\n\r\n    /** USER\r\n     * @dev Requset to activateNFT\r\n     * @param _itemId itemId\r\n     * @param _amount amount of item want to activate\r\n     */\r\n    function requestActivateNFT(uint _itemId, uint _amount)\r\n        external\r\n        override\r\n        whenNotPaused\r\n        nonReentrant\r\n    {\r\n        require(_amount > 0, \"ActivateNFT: amount is zero\");\r\n        require(\r\n            IERC1155(UITNFT).balanceOf(msg.sender, _itemId) >= _amount,\r\n            \"ActivateNFT: Balance of items less than amount\"\r\n        );\r\n        uint activateId = activateInfoList.length;\r\n        ActivateInfo memory activateInfo = ActivateInfo(\r\n            activateId,\r\n            msg.sender,\r\n            _itemId,\r\n            _amount,\r\n            block.timestamp,\r\n            0,\r\n            true,\r\n            false\r\n        );\r\n        NFTInfo memory nftInfo = IUITNFTToken(UITNFT).getNFTInfo(_itemId);\r\n\r\n        if (nftInfo.isCourseNFT) {\r\n            activateInfo.isRequested = true;\r\n\r\n            emit NFTActivated(\r\n                activateId + 1,\r\n                _itemId,\r\n                _amount,\r\n                block.timestamp,\r\n                msg.sender,\r\n                true\r\n            );\r\n        } else\r\n            emit ActivateNFTRequested(\r\n                activateId + 1,\r\n                _itemId,\r\n                _amount,\r\n                block.timestamp,\r\n                msg.sender\r\n            );\r\n\r\n        activateInfoList.push(activateInfo);\r\n        IERC1155(UITNFT).safeTransferFrom(\r\n            msg.sender,\r\n            address(this),\r\n            _itemId,\r\n            _amount,\r\n            \"\"\r\n        );\r\n    }\r\n\r\n    /** USER\r\n     * @dev cancel request activate NFT\r\n     * @param _activateIds itemId arrays\r\n     */\r\n    function cancelRequestActivateNFT(uint[] memory _activateIds)\r\n        external\r\n        override\r\n        whenNotPaused\r\n        nonReentrant\r\n    {\r\n        for (uint i = 0; i < _activateIds.length; i++){\r\n            ActivateInfo storage activateInfo = activateInfoList[_activateIds[i]];\r\n            require(\r\n                activateInfo.ownerOfRequest == msg.sender,\r\n                \"ActivateNFT: Not owner of request\"\r\n            );\r\n            require(\r\n                activateInfo.isRequested,\r\n                \"ActivateNFT: activateInfo is not requested\"\r\n            );\r\n            require(\r\n                !activateInfo.isActivate,\r\n                \"ActivateNFT: activateInfo is already activated\"\r\n            );\r\n\r\n            activateInfo.isRequested = false;\r\n            IERC1155(UITNFT).safeTransferFrom(\r\n                address(this),\r\n                msg.sender,\r\n                activateInfo.itemId,\r\n                activateInfo.amount,\r\n                \"\"\r\n            );\r\n        }\r\n\r\n        emit ActivateNFTRequestCanceled(_activateIds, block.timestamp);\r\n    }\r\n\r\n    /** ADMIN\r\n     * @dev activate NFT\r\n     * @param _activateIds itemId arrays\r\n     */\r\n    function activateNFT(uint[] memory _activateIds)\r\n        external\r\n        override\r\n        onlyMarketplace\r\n        whenNotPaused\r\n        nonReentrant\r\n    {\r\n        for (uint i = 0; i < _activateIds.length; i++){\r\n            ActivateInfo storage activateInfo = activateInfoList[_activateIds[i]];\r\n            require(\r\n                activateInfo.isRequested,\r\n                \"ActivateNFT: activateInfo is not requested\"\r\n            );\r\n            require(\r\n                activateInfo.isActivate,\r\n                \"ActivateNFT: activateInfo is already activated\"\r\n            );\r\n            uint itemId = activateInfo.itemId;\r\n\r\n            activateInfo.isActivate = true;\r\n            activateInfo.activatedTime = block.timestamp;\r\n\r\n            NFTInfo memory nftInfo = IUITNFTToken(UITNFT).getNFTInfo(itemId);\r\n            if (nftInfo.isCourseNFT)\r\n                emit NFTActivated(\r\n                    _activateIds[i],\r\n                    itemId,\r\n                    activateInfo.amount,\r\n                    block.timestamp,\r\n                    msg.sender,\r\n                    true\r\n                );\r\n            else\r\n                emit NFTActivated(\r\n                    _activateIds[i],\r\n                    itemId,\r\n                    activateInfo.amount,\r\n                    block.timestamp,\r\n                    msg.sender,\r\n                    false\r\n                );\r\n        }\r\n    }\r\n\r\n    function setAccessControl(address _accessControl) external onlyOwner {\r\n        accessControl = _accessControl;\r\n    }\r\n\r\n    /**\r\n     * @dev Pause the contract.\r\n     */\r\n    function pause() external onlyOwner {\r\n        _pause();\r\n    }\r\n\r\n    /**\r\n     * @dev Unpause the contract.\r\n     */\r\n    function unpause() external onlyOwner {\r\n        _unpause();\r\n    }\r\n}\r\n",
  "sourcePath": "E:\\KLTN\\KLTN\\KLTN-contracts\\contracts\\activateNFT\\ActivateNFT.sol",
  "compiler": {
    "name": "solc",
    "version": "0.8.14+commit.80d49f37.Emscripten.clang"
  },
  "schemaVersion": "3.4.3",
  "updatedAt": "2022-06-13T07:53:06.541Z",
  "networkType": "ethereum",
  "devdoc": {
    "kind": "dev",
    "methods": {
      "activateNFT(uint256[])": {
        "details": "activate NFT",
        "params": {
          "_activateIds": "itemId arrays"
        }
      },
      "cancelRequestActivateNFT(uint256[])": {
        "details": "cancel request activate NFT",
        "params": {
          "_activateIds": "itemId arrays"
        }
      },
      "owner()": {
        "details": "Returns the address of the current owner."
      },
      "pause()": {
        "details": "Pause the contract."
      },
      "paused()": {
        "details": "Returns true if the contract is paused, and false otherwise."
      },
      "renounceOwnership()": {
        "details": "Leaves the contract without owner. It will not be possible to call `onlyOwner` functions anymore. Can only be called by the current owner. NOTE: Renouncing ownership will leave the contract without an owner, thereby removing any functionality that is only available to the owner."
      },
      "requestActivateNFT(uint256,uint256)": {
        "details": "Requset to activateNFT",
        "params": {
          "_amount": "amount of item want to activate",
          "_itemId": "itemId"
        }
      },
      "supportsInterface(bytes4)": {
        "details": "See {IERC165-supportsInterface}."
      },
      "transferOwnership(address)": {
        "details": "Transfers ownership of the contract to a new account (`newOwner`). Can only be called by the current owner."
      },
      "unpause()": {
        "details": "Unpause the contract."
      }
    },
    "version": 1
  },
  "userdoc": {
    "kind": "user",
    "methods": {
      "activateNFT(uint256[])": {
        "notice": "ADMIN"
      },
      "cancelRequestActivateNFT(uint256[])": {
        "notice": "USER"
      },
      "requestActivateNFT(uint256,uint256)": {
        "notice": "USER"
      }
    },
    "version": 1
  }
}