{
  "contractName": "ActiveNFT",
  "abi": [
    {
      "inputs": [
        {
          "internalType": "address",
          "name": "_accessControl",
          "type": "address"
        },
        {
          "internalType": "address",
          "name": "_UITNFT",
          "type": "address"
        }
      ],
      "stateMutability": "nonpayable",
      "type": "constructor"
    },
    {
      "anonymous": false,
      "inputs": [
        {
          "indexed": false,
          "internalType": "uint256",
          "name": "_activeId",
          "type": "uint256"
        },
        {
          "indexed": false,
          "internalType": "uint256",
          "name": "_cancelRequestTime",
          "type": "uint256"
        }
      ],
      "name": "ActiveNFTRequestCanceled",
      "type": "event"
    },
    {
      "anonymous": false,
      "inputs": [
        {
          "indexed": false,
          "internalType": "uint256",
          "name": "_itemId",
          "type": "uint256"
        },
        {
          "indexed": false,
          "internalType": "uint256",
          "name": "_amount",
          "type": "uint256"
        },
        {
          "indexed": false,
          "internalType": "uint256",
          "name": "_requestedTime",
          "type": "uint256"
        },
        {
          "indexed": false,
          "internalType": "address",
          "name": "_owner",
          "type": "address"
        }
      ],
      "name": "ActiveNFTRequested",
      "type": "event"
    },
    {
      "anonymous": false,
      "inputs": [
        {
          "indexed": false,
          "internalType": "uint256",
          "name": "_activeId",
          "type": "uint256"
        },
        {
          "indexed": false,
          "internalType": "uint256",
          "name": "_itemId",
          "type": "uint256"
        },
        {
          "indexed": false,
          "internalType": "uint256",
          "name": "_amount",
          "type": "uint256"
        },
        {
          "indexed": false,
          "internalType": "uint256",
          "name": "_activedTime",
          "type": "uint256"
        },
        {
          "indexed": false,
          "internalType": "address",
          "name": "_owner",
          "type": "address"
        },
        {
          "indexed": false,
          "internalType": "bool",
          "name": "_isCourseNFT",
          "type": "bool"
        }
      ],
      "name": "NFTActived",
      "type": "event"
    },
    {
      "anonymous": false,
      "inputs": [
        {
          "indexed": true,
          "internalType": "address",
          "name": "previousOwner",
          "type": "address"
        },
        {
          "indexed": true,
          "internalType": "address",
          "name": "newOwner",
          "type": "address"
        }
      ],
      "name": "OwnershipTransferred",
      "type": "event"
    },
    {
      "anonymous": false,
      "inputs": [
        {
          "indexed": false,
          "internalType": "address",
          "name": "account",
          "type": "address"
        }
      ],
      "name": "Paused",
      "type": "event"
    },
    {
      "anonymous": false,
      "inputs": [
        {
          "indexed": false,
          "internalType": "address",
          "name": "account",
          "type": "address"
        }
      ],
      "name": "Unpaused",
      "type": "event"
    },
    {
      "inputs": [],
      "name": "UITNFT",
      "outputs": [
        {
          "internalType": "address",
          "name": "",
          "type": "address"
        }
      ],
      "stateMutability": "view",
      "type": "function",
      "constant": true
    },
    {
      "inputs": [],
      "name": "accessControl",
      "outputs": [
        {
          "internalType": "address",
          "name": "",
          "type": "address"
        }
      ],
      "stateMutability": "view",
      "type": "function",
      "constant": true
    },
    {
      "inputs": [
        {
          "internalType": "uint256",
          "name": "",
          "type": "uint256"
        }
      ],
      "name": "activeInfoList",
      "outputs": [
        {
          "internalType": "uint256",
          "name": "activeId",
          "type": "uint256"
        },
        {
          "internalType": "address",
          "name": "ownerOfRequest",
          "type": "address"
        },
        {
          "internalType": "uint256",
          "name": "itemId",
          "type": "uint256"
        },
        {
          "internalType": "uint256",
          "name": "amount",
          "type": "uint256"
        },
        {
          "internalType": "uint256",
          "name": "requestedTime",
          "type": "uint256"
        },
        {
          "internalType": "uint256",
          "name": "activedTime",
          "type": "uint256"
        },
        {
          "internalType": "bool",
          "name": "isRequested",
          "type": "bool"
        },
        {
          "internalType": "bool",
          "name": "isActive",
          "type": "bool"
        }
      ],
      "stateMutability": "view",
      "type": "function",
      "constant": true
    },
    {
      "inputs": [],
      "name": "marketplaceAddress",
      "outputs": [
        {
          "internalType": "address",
          "name": "",
          "type": "address"
        }
      ],
      "stateMutability": "view",
      "type": "function",
      "constant": true
    },
    {
      "inputs": [
        {
          "internalType": "address",
          "name": "",
          "type": "address"
        },
        {
          "internalType": "address",
          "name": "",
          "type": "address"
        },
        {
          "internalType": "uint256[]",
          "name": "",
          "type": "uint256[]"
        },
        {
          "internalType": "uint256[]",
          "name": "",
          "type": "uint256[]"
        },
        {
          "internalType": "bytes",
          "name": "",
          "type": "bytes"
        }
      ],
      "name": "onERC1155BatchReceived",
      "outputs": [
        {
          "internalType": "bytes4",
          "name": "",
          "type": "bytes4"
        }
      ],
      "stateMutability": "nonpayable",
      "type": "function"
    },
    {
      "inputs": [
        {
          "internalType": "address",
          "name": "",
          "type": "address"
        },
        {
          "internalType": "address",
          "name": "",
          "type": "address"
        },
        {
          "internalType": "uint256",
          "name": "",
          "type": "uint256"
        },
        {
          "internalType": "uint256",
          "name": "",
          "type": "uint256"
        },
        {
          "internalType": "bytes",
          "name": "",
          "type": "bytes"
        }
      ],
      "name": "onERC1155Received",
      "outputs": [
        {
          "internalType": "bytes4",
          "name": "",
          "type": "bytes4"
        }
      ],
      "stateMutability": "nonpayable",
      "type": "function"
    },
    {
      "inputs": [],
      "name": "owner",
      "outputs": [
        {
          "internalType": "address",
          "name": "",
          "type": "address"
        }
      ],
      "stateMutability": "view",
      "type": "function",
      "constant": true
    },
    {
      "inputs": [],
      "name": "paused",
      "outputs": [
        {
          "internalType": "bool",
          "name": "",
          "type": "bool"
        }
      ],
      "stateMutability": "view",
      "type": "function",
      "constant": true
    },
    {
      "inputs": [],
      "name": "renounceOwnership",
      "outputs": [],
      "stateMutability": "nonpayable",
      "type": "function"
    },
    {
      "inputs": [
        {
          "internalType": "bytes4",
          "name": "interfaceId",
          "type": "bytes4"
        }
      ],
      "name": "supportsInterface",
      "outputs": [
        {
          "internalType": "bool",
          "name": "",
          "type": "bool"
        }
      ],
      "stateMutability": "view",
      "type": "function",
      "constant": true
    },
    {
      "inputs": [
        {
          "internalType": "address",
          "name": "newOwner",
          "type": "address"
        }
      ],
      "name": "transferOwnership",
      "outputs": [],
      "stateMutability": "nonpayable",
      "type": "function"
    },
    {
      "inputs": [
        {
          "internalType": "address",
          "name": "_marketplaceAddress",
          "type": "address"
        }
      ],
      "name": "setMarketplaceAddress",
      "outputs": [],
      "stateMutability": "nonpayable",
      "type": "function"
    },
    {
      "inputs": [
        {
          "internalType": "uint256",
          "name": "_itemId",
          "type": "uint256"
        },
        {
          "internalType": "uint256",
          "name": "_amount",
          "type": "uint256"
        }
      ],
      "name": "requestActiveNFT",
      "outputs": [],
      "stateMutability": "nonpayable",
      "type": "function"
    },
    {
      "inputs": [
        {
          "internalType": "uint256",
          "name": "_activeId",
          "type": "uint256"
        }
      ],
      "name": "cancelRequestActiveNFT",
      "outputs": [],
      "stateMutability": "nonpayable",
      "type": "function"
    },
    {
      "inputs": [
        {
          "internalType": "uint256",
          "name": "_activeId",
          "type": "uint256"
        }
      ],
      "name": "activeNFT",
      "outputs": [],
      "stateMutability": "nonpayable",
      "type": "function"
    },
    {
      "inputs": [
        {
          "internalType": "address",
          "name": "_accessControl",
          "type": "address"
        }
      ],
      "name": "setAccessControl",
      "outputs": [],
      "stateMutability": "nonpayable",
      "type": "function"
    },
    {
      "inputs": [],
      "name": "pause",
      "outputs": [],
      "stateMutability": "nonpayable",
      "type": "function"
    },
    {
      "inputs": [],
      "name": "unpause",
      "outputs": [],
      "stateMutability": "nonpayable",
      "type": "function"
    }
  ],
  "bytecode": "0x60a06040523480156200001157600080fd5b5060405162002c9538038062002c958339818101604052810190620000379190620002cf565b60008060006101000a81548160ff02191690831515021790555062000071620000656200019860201b60201c565b620001a060201b60201c565b60018081905550600073ffffffffffffffffffffffffffffffffffffffff168273ffffffffffffffffffffffffffffffffffffffff1603620000ea576040517f08c379a0000000000000000000000000000000000000000000000000000000008152600401620000e1906200039d565b60405180910390fd5b600073ffffffffffffffffffffffffffffffffffffffff168173ffffffffffffffffffffffffffffffffffffffff16036200015c576040517f08c379a0000000000000000000000000000000000000000000000000000000008152600401620001539062000435565b60405180910390fd5b8073ffffffffffffffffffffffffffffffffffffffff1660808173ffffffffffffffffffffffffffffffffffffffff1681525050505062000457565b600033905090565b60008060019054906101000a900473ffffffffffffffffffffffffffffffffffffffff16905081600060016101000a81548173ffffffffffffffffffffffffffffffffffffffff021916908373ffffffffffffffffffffffffffffffffffffffff1602179055508173ffffffffffffffffffffffffffffffffffffffff168173ffffffffffffffffffffffffffffffffffffffff167f8be0079c531659141344cd1fd0a4f28419497f9722a3daafe3b4186f6b6457e060405160405180910390a35050565b600080fd5b600073ffffffffffffffffffffffffffffffffffffffff82169050919050565b600062000297826200026a565b9050919050565b620002a9816200028a565b8114620002b557600080fd5b50565b600081519050620002c9816200029e565b92915050565b60008060408385031215620002e957620002e862000265565b5b6000620002f985828601620002b8565b92505060206200030c85828601620002b8565b9150509250929050565b600082825260208201905092915050565b7f4163746976654e46543a2041636365737320636f6e74726f6c20636f6e74726160008201527f63742063616e6e6f742062652030000000000000000000000000000000000000602082015250565b600062000385602e8362000316565b9150620003928262000327565b604082019050919050565b60006020820190508181036000830152620003b88162000376565b9050919050565b7f4163746976654e46543a205549544e46546f6b656e206d757374206e6f74206260008201527f6520616464726573732030000000000000000000000000000000000000000000602082015250565b60006200041d602b8362000316565b91506200042a82620003bf565b604082019050919050565b6000602082019050818103600083015262000450816200040e565b9050919050565b6080516127ff6200049660003960008181610532015281816107530152818161089601528181610acc01528181610e0201526112ba01526127ff6000f3fe608060405234801561001057600080fd5b50600436106101165760003560e01c80638456cb59116100a2578063bc197c8111610071578063bc197c8114610288578063d3e8dba5146102b8578063daa17f49146102d4578063f23a6e61146102f2578063f2fde38b1461032257610116565b80638456cb59146102285780638da5cb5b14610232578063ab2cb64c14610250578063b47cc5561461026c57610116565b80633b88699b116100e95780633b88699b146101bc5780633f4ba83a146101da5780635c975abb146101e4578063715018a6146102025780637e707f861461020c57610116565b806301ffc9a71461011b57806313007d551461014b57806319129e5a14610169578063316aa13214610185575b600080fd5b610135600480360381019061013091906117aa565b61033e565b60405161014291906117f2565b60405180910390f35b6101536103b8565b604051610160919061184e565b60405180910390f35b610183600480360381019061017e9190611895565b6103de565b005b61019f600480360381019061019a91906118f8565b61049e565b6040516101b3989796959493929190611934565b60405180910390f35b6101c4610530565b6040516101d1919061184e565b60405180910390f35b6101e2610554565b005b6101ec6105da565b6040516101f991906117f2565b60405180910390f35b61020a6105f0565b005b610226600480360381019061022191906119b2565b610678565b005b610230610b69565b005b61023a610bef565b604051610247919061184e565b60405180910390f35b61026a600480360381019061026591906118f8565b610c18565b005b61028660048036038101906102819190611895565b610f4c565b005b6102a2600480360381019061029d9190611c00565b61108d565b6040516102af9190611cde565b60405180910390f35b6102d260048036038101906102cd91906118f8565b6110a2565b005b6102dc611392565b6040516102e9919061184e565b60405180910390f35b61030c60048036038101906103079190611cf9565b6113b8565b6040516103199190611cde565b60405180910390f35b61033c60048036038101906103379190611895565b6113cd565b005b60007f4e2312e0000000000000000000000000000000000000000000000000000000007bffffffffffffffffffffffffffffffffffffffffffffffffffffffff1916827bffffffffffffffffffffffffffffffffffffffffffffffffffffffff191614806103b157506103b0826114c4565b5b9050919050565b600260009054906101000a900473ffffffffffffffffffffffffffffffffffffffff1681565b6103e661152e565b73ffffffffffffffffffffffffffffffffffffffff16610404610bef565b73ffffffffffffffffffffffffffffffffffffffff161461045a576040517f08c379a000000000000000000000000000000000000000000000000000000000815260040161045190611ded565b60405180910390fd5b80600260006101000a81548173ffffffffffffffffffffffffffffffffffffffff021916908373ffffffffffffffffffffffffffffffffffffffff16021790555050565b600481815481106104ae57600080fd5b90600052602060002090600702016000915090508060000154908060010160009054906101000a900473ffffffffffffffffffffffffffffffffffffffff16908060020154908060030154908060040154908060050154908060060160009054906101000a900460ff16908060060160019054906101000a900460ff16905088565b7f000000000000000000000000000000000000000000000000000000000000000081565b61055c61152e565b73ffffffffffffffffffffffffffffffffffffffff1661057a610bef565b73ffffffffffffffffffffffffffffffffffffffff16146105d0576040517f08c379a00000000000000000000000000000000000000000000000000000000081526004016105c790611ded565b60405180910390fd5b6105d8611536565b565b60008060009054906101000a900460ff16905090565b6105f861152e565b73ffffffffffffffffffffffffffffffffffffffff16610616610bef565b73ffffffffffffffffffffffffffffffffffffffff161461066c576040517f08c379a000000000000000000000000000000000000000000000000000000000815260040161066390611ded565b60405180910390fd5b61067660006115d7565b565b6106806105da565b156106c0576040517f08c379a00000000000000000000000000000000000000000000000000000000081526004016106b790611e59565b60405180910390fd5b600260015403610705576040517f08c379a00000000000000000000000000000000000000000000000000000000081526004016106fc90611ec5565b60405180910390fd5b600260018190555060008111610750576040517f08c379a000000000000000000000000000000000000000000000000000000000815260040161074790611f31565b60405180910390fd5b807f000000000000000000000000000000000000000000000000000000000000000073ffffffffffffffffffffffffffffffffffffffff1662fdd58e33856040518363ffffffff1660e01b81526004016107ab929190611f51565b602060405180830381865afa1580156107c8573d6000803e3d6000fd5b505050506040513d601f19601f820116820180604052508101906107ec9190611f8f565b101561082d576040517f08c379a00000000000000000000000000000000000000000000000000000000081526004016108249061202e565b60405180910390fd5b6000600480549050905060006040518061010001604052808381526020013373ffffffffffffffffffffffffffffffffffffffff1681526020018581526020018481526020014281526020016000815260200160011515815260200160001515815250905060007f000000000000000000000000000000000000000000000000000000000000000073ffffffffffffffffffffffffffffffffffffffff1663d188929f866040518263ffffffff1660e01b81526004016108ed919061204e565b6000604051808303816000875af115801561090c573d6000803e3d6000fd5b505050506040513d6000823e3d601f19601f8201168201806040525081019061093591906121df565b90508060200151156109a55760018260c00190151590811515815250507fd1a0d31f113bbeff7c2b156d2fabbd5040c8ff539cad8a91f885eed034b469696001846109809190612257565b868642336001604051610998969594939291906122ad565b60405180910390a16109e3565b7f93a77958910a2b2fbdcd52bc45515c806c95a2d920de899c7accad9b82e16917858542336040516109da949392919061230e565b60405180910390a15b60048290806001815401808255809150506001900390600052602060002090600702016000909190919091506000820151816000015560208201518160010160006101000a81548173ffffffffffffffffffffffffffffffffffffffff021916908373ffffffffffffffffffffffffffffffffffffffff16021790555060408201518160020155606082015181600301556080820151816004015560a0820151816005015560c08201518160060160006101000a81548160ff02191690831515021790555060e08201518160060160016101000a81548160ff02191690831515021790555050507f000000000000000000000000000000000000000000000000000000000000000073ffffffffffffffffffffffffffffffffffffffff1663f242432a333088886040518563ffffffff1660e01b8152600401610b29949392919061238a565b600060405180830381600087803b158015610b4357600080fd5b505af1158015610b57573d6000803e3d6000fd5b50505050505050600180819055505050565b610b7161152e565b73ffffffffffffffffffffffffffffffffffffffff16610b8f610bef565b73ffffffffffffffffffffffffffffffffffffffff1614610be5576040517f08c379a0000000000000000000000000000000000000000000000000000000008152600401610bdc90611ded565b60405180910390fd5b610bed61169c565b565b60008060019054906101000a900473ffffffffffffffffffffffffffffffffffffffff16905090565b600360009054906101000a900473ffffffffffffffffffffffffffffffffffffffff1673ffffffffffffffffffffffffffffffffffffffff163373ffffffffffffffffffffffffffffffffffffffff1614610c7257600080fd5b610c7a6105da565b15610cba576040517f08c379a0000000000000000000000000000000000000000000000000000000008152600401610cb190611e59565b60405180910390fd5b600260015403610cff576040517f08c379a0000000000000000000000000000000000000000000000000000000008152600401610cf690611ec5565b60405180910390fd5b6002600181905550600060048281548110610d1d57610d1c6123e2565b5b906000526020600020906007020190508060060160009054906101000a900460ff16610d7e576040517f08c379a0000000000000000000000000000000000000000000000000000000008152600401610d7590612483565b60405180910390fd5b8060060160019054906101000a900460ff16610dcf576040517f08c379a0000000000000000000000000000000000000000000000000000000008152600401610dc690612515565b60405180910390fd5b60008160020154905060018260060160016101000a81548160ff02191690831515021790555042826005018190555060007f000000000000000000000000000000000000000000000000000000000000000073ffffffffffffffffffffffffffffffffffffffff1663d188929f836040518263ffffffff1660e01b8152600401610e59919061204e565b6000604051808303816000875af1158015610e78573d6000803e3d6000fd5b505050506040513d6000823e3d601f19601f82011682018060405250810190610ea191906121df565b9050806020015115610ef8577fd1a0d31f113bbeff7c2b156d2fabbd5040c8ff539cad8a91f885eed034b469698483856003015442336001604051610eeb969594939291906122ad565b60405180910390a1610f3f565b7fd1a0d31f113bbeff7c2b156d2fabbd5040c8ff539cad8a91f885eed034b469698483856003015442336000604051610f36969594939291906122ad565b60405180910390a15b5050506001808190555050565b600260009054906101000a900473ffffffffffffffffffffffffffffffffffffffff1673ffffffffffffffffffffffffffffffffffffffff166391d148547fdf8b4c520ffe197c5343c6f5aec59570151ef9a492f2c624fd45ddde6135ec42336040518363ffffffff1660e01b8152600401610fc992919061254e565b602060405180830381865afa158015610fe6573d6000803e3d6000fd5b505050506040513d601f19601f8201168201806040525081019061100a9190612577565b611049576040517f08c379a000000000000000000000000000000000000000000000000000000000815260040161104090612616565b60405180910390fd5b80600360006101000a81548173ffffffffffffffffffffffffffffffffffffffff021916908373ffffffffffffffffffffffffffffffffffffffff16021790555050565b600063bc197c8160e01b905095945050505050565b6110aa6105da565b156110ea576040517f08c379a00000000000000000000000000000000000000000000000000000000081526004016110e190611e59565b60405180910390fd5b60026001540361112f576040517f08c379a000000000000000000000000000000000000000000000000000000000815260040161112690611ec5565b60405180910390fd5b600260018190555060006004828154811061114d5761114c6123e2565b5b906000526020600020906007020190503373ffffffffffffffffffffffffffffffffffffffff168160010160009054906101000a900473ffffffffffffffffffffffffffffffffffffffff1673ffffffffffffffffffffffffffffffffffffffff16146111ef576040517f08c379a00000000000000000000000000000000000000000000000000000000081526004016111e690612682565b60405180910390fd5b8060060160009054906101000a900460ff16611240576040517f08c379a000000000000000000000000000000000000000000000000000000000815260040161123790612483565b60405180910390fd5b8060060160019054906101000a900460ff1615611292576040517f08c379a000000000000000000000000000000000000000000000000000000000815260040161128990612515565b60405180910390fd5b60008160020154905060008260060160006101000a81548160ff0219169083151502179055507f000000000000000000000000000000000000000000000000000000000000000073ffffffffffffffffffffffffffffffffffffffff1663f242432a30338486600301546040518563ffffffff1660e01b815260040161131b949392919061238a565b600060405180830381600087803b15801561133557600080fd5b505af1158015611349573d6000803e3d6000fd5b505050507f1266933e3dee32241cac867cb9bf2c3cebdb58cc6be3dbba08776fc4693497fa834260405161137e9291906126a2565b60405180910390a150506001808190555050565b600360009054906101000a900473ffffffffffffffffffffffffffffffffffffffff1681565b600063f23a6e6160e01b905095945050505050565b6113d561152e565b73ffffffffffffffffffffffffffffffffffffffff166113f3610bef565b73ffffffffffffffffffffffffffffffffffffffff1614611449576040517f08c379a000000000000000000000000000000000000000000000000000000000815260040161144090611ded565b60405180910390fd5b600073ffffffffffffffffffffffffffffffffffffffff168173ffffffffffffffffffffffffffffffffffffffff16036114b8576040517f08c379a00000000000000000000000000000000000000000000000000000000081526004016114af9061273d565b60405180910390fd5b6114c1816115d7565b50565b60007f01ffc9a7000000000000000000000000000000000000000000000000000000007bffffffffffffffffffffffffffffffffffffffffffffffffffffffff1916827bffffffffffffffffffffffffffffffffffffffffffffffffffffffff1916149050919050565b600033905090565b61153e6105da565b61157d576040517f08c379a0000000000000000000000000000000000000000000000000000000008152600401611574906127a9565b60405180910390fd5b60008060006101000a81548160ff0219169083151502179055507f5db9ee0a495bf2e6ff9c91a7834c1ba4fdd244a5e8aa4e537bd38aeae4b073aa6115c061152e565b6040516115cd919061184e565b60405180910390a1565b60008060019054906101000a900473ffffffffffffffffffffffffffffffffffffffff16905081600060016101000a81548173ffffffffffffffffffffffffffffffffffffffff021916908373ffffffffffffffffffffffffffffffffffffffff1602179055508173ffffffffffffffffffffffffffffffffffffffff168173ffffffffffffffffffffffffffffffffffffffff167f8be0079c531659141344cd1fd0a4f28419497f9722a3daafe3b4186f6b6457e060405160405180910390a35050565b6116a46105da565b156116e4576040517f08c379a00000000000000000000000000000000000000000000000000000000081526004016116db90611e59565b60405180910390fd5b60016000806101000a81548160ff0219169083151502179055507f62e78cea01bee320cd4e420270b5ea74000d11b0c9f74754ebdbfc544b05a25861172761152e565b604051611734919061184e565b60405180910390a1565b6000604051905090565b600080fd5b600080fd5b60007fffffffff0000000000000000000000000000000000000000000000000000000082169050919050565b61178781611752565b811461179257600080fd5b50565b6000813590506117a48161177e565b92915050565b6000602082840312156117c0576117bf611748565b5b60006117ce84828501611795565b91505092915050565b60008115159050919050565b6117ec816117d7565b82525050565b600060208201905061180760008301846117e3565b92915050565b600073ffffffffffffffffffffffffffffffffffffffff82169050919050565b60006118388261180d565b9050919050565b6118488161182d565b82525050565b6000602082019050611863600083018461183f565b92915050565b6118728161182d565b811461187d57600080fd5b50565b60008135905061188f81611869565b92915050565b6000602082840312156118ab576118aa611748565b5b60006118b984828501611880565b91505092915050565b6000819050919050565b6118d5816118c2565b81146118e057600080fd5b50565b6000813590506118f2816118cc565b92915050565b60006020828403121561190e5761190d611748565b5b600061191c848285016118e3565b91505092915050565b61192e816118c2565b82525050565b60006101008201905061194a600083018b611925565b611957602083018a61183f565b6119646040830189611925565b6119716060830188611925565b61197e6080830187611925565b61198b60a0830186611925565b61199860c08301856117e3565b6119a560e08301846117e3565b9998505050505050505050565b600080604083850312156119c9576119c8611748565b5b60006119d7858286016118e3565b92505060206119e8858286016118e3565b9150509250929050565b600080fd5b6000601f19601f8301169050919050565b7f4e487b7100000000000000000000000000000000000000000000000000000000600052604160045260246000fd5b611a40826119f7565b810181811067ffffffffffffffff82111715611a5f57611a5e611a08565b5b80604052505050565b6000611a7261173e565b9050611a7e8282611a37565b919050565b600067ffffffffffffffff821115611a9e57611a9d611a08565b5b602082029050602081019050919050565b600080fd5b6000611ac7611ac284611a83565b611a68565b90508083825260208201905060208402830185811115611aea57611ae9611aaf565b5b835b81811015611b135780611aff88826118e3565b845260208401935050602081019050611aec565b5050509392505050565b600082601f830112611b3257611b316119f2565b5b8135611b42848260208601611ab4565b91505092915050565b600080fd5b600067ffffffffffffffff821115611b6b57611b6a611a08565b5b611b74826119f7565b9050602081019050919050565b82818337600083830152505050565b6000611ba3611b9e84611b50565b611a68565b905082815260208101848484011115611bbf57611bbe611b4b565b5b611bca848285611b81565b509392505050565b600082601f830112611be757611be66119f2565b5b8135611bf7848260208601611b90565b91505092915050565b600080600080600060a08688031215611c1c57611c1b611748565b5b6000611c2a88828901611880565b9550506020611c3b88828901611880565b945050604086013567ffffffffffffffff811115611c5c57611c5b61174d565b5b611c6888828901611b1d565b935050606086013567ffffffffffffffff811115611c8957611c8861174d565b5b611c9588828901611b1d565b925050608086013567ffffffffffffffff811115611cb657611cb561174d565b5b611cc288828901611bd2565b9150509295509295909350565b611cd881611752565b82525050565b6000602082019050611cf36000830184611ccf565b92915050565b600080600080600060a08688031215611d1557611d14611748565b5b6000611d2388828901611880565b9550506020611d3488828901611880565b9450506040611d45888289016118e3565b9350506060611d56888289016118e3565b925050608086013567ffffffffffffffff811115611d7757611d7661174d565b5b611d8388828901611bd2565b9150509295509295909350565b600082825260208201905092915050565b7f4f776e61626c653a2063616c6c6572206973206e6f7420746865206f776e6572600082015250565b6000611dd7602083611d90565b9150611de282611da1565b602082019050919050565b60006020820190508181036000830152611e0681611dca565b9050919050565b7f5061757361626c653a2070617573656400000000000000000000000000000000600082015250565b6000611e43601083611d90565b9150611e4e82611e0d565b602082019050919050565b60006020820190508181036000830152611e7281611e36565b9050919050565b7f5265656e7472616e637947756172643a207265656e7472616e742063616c6c00600082015250565b6000611eaf601f83611d90565b9150611eba82611e79565b602082019050919050565b60006020820190508181036000830152611ede81611ea2565b9050919050565b7f4163746976654e46543a20616d6f756e74206973207a65726f00000000000000600082015250565b6000611f1b601983611d90565b9150611f2682611ee5565b602082019050919050565b60006020820190508181036000830152611f4a81611f0e565b9050919050565b6000604082019050611f66600083018561183f565b611f736020830184611925565b9392505050565b600081519050611f89816118cc565b92915050565b600060208284031215611fa557611fa4611748565b5b6000611fb384828501611f7a565b91505092915050565b7f4163746976654e46543a2042616c616e6365206f66206974656d73206c65737360008201527f207468616e20616d6f756e740000000000000000000000000000000000000000602082015250565b6000612018602c83611d90565b915061202382611fbc565b604082019050919050565b600060208201905081810360008301526120478161200b565b9050919050565b60006020820190506120636000830184611925565b92915050565b600080fd5b600080fd5b600067ffffffffffffffff82111561208e5761208d611a08565b5b612097826119f7565b9050602081019050919050565b60005b838110156120c25780820151818401526020810190506120a7565b838111156120d1576000848401525b50505050565b60006120ea6120e584612073565b611a68565b90508281526020810184848401111561210657612105611b4b565b5b6121118482856120a4565b509392505050565b600082601f83011261212e5761212d6119f2565b5b815161213e8482602086016120d7565b91505092915050565b612150816117d7565b811461215b57600080fd5b50565b60008151905061216d81612147565b92915050565b60006040828403121561218957612188612069565b5b6121936040611a68565b9050600082015167ffffffffffffffff8111156121b3576121b261206e565b5b6121bf84828501612119565b60008301525060206121d38482850161215e565b60208301525092915050565b6000602082840312156121f5576121f4611748565b5b600082015167ffffffffffffffff8111156122135761221261174d565b5b61221f84828501612173565b91505092915050565b7f4e487b7100000000000000000000000000000000000000000000000000000000600052601160045260246000fd5b6000612262826118c2565b915061226d836118c2565b9250827fffffffffffffffffffffffffffffffffffffffffffffffffffffffffffffffff038211156122a2576122a1612228565b5b828201905092915050565b600060c0820190506122c26000830189611925565b6122cf6020830188611925565b6122dc6040830187611925565b6122e96060830186611925565b6122f6608083018561183f565b61230360a08301846117e3565b979650505050505050565b60006080820190506123236000830187611925565b6123306020830186611925565b61233d6040830185611925565b61234a606083018461183f565b95945050505050565b600082825260208201905092915050565b50565b6000612374600083612353565b915061237f82612364565b600082019050919050565b600060a08201905061239f600083018761183f565b6123ac602083018661183f565b6123b96040830185611925565b6123c66060830184611925565b81810360808301526123d781612367565b905095945050505050565b7f4e487b7100000000000000000000000000000000000000000000000000000000600052603260045260246000fd5b7f4163746976654e46543a20616374697665496e666f206973206e6f742072657160008201527f7565737465640000000000000000000000000000000000000000000000000000602082015250565b600061246d602683611d90565b915061247882612411565b604082019050919050565b6000602082019050818103600083015261249c81612460565b9050919050565b7f4163746976654e46543a20616374697665496e666f20697320616c726561647960008201527f2061637469766564000000000000000000000000000000000000000000000000602082015250565b60006124ff602883611d90565b915061250a826124a3565b604082019050919050565b6000602082019050818103600083015261252e816124f2565b9050919050565b6000819050919050565b61254881612535565b82525050565b6000604082019050612563600083018561253f565b612570602083018461183f565b9392505050565b60006020828403121561258d5761258c611748565b5b600061259b8482850161215e565b91505092915050565b7f4d61726b6574706c6163653a204f6e6c792061646d696e2063616e2063616c6c60008201527f20746869732066756e6374696f6e000000000000000000000000000000000000602082015250565b6000612600602e83611d90565b915061260b826125a4565b604082019050919050565b6000602082019050818103600083015261262f816125f3565b9050919050565b7f4163746976654e46543a204e6f74206f776e6572206f66207265717565737400600082015250565b600061266c601f83611d90565b915061267782612636565b602082019050919050565b6000602082019050818103600083015261269b8161265f565b9050919050565b60006040820190506126b76000830185611925565b6126c46020830184611925565b9392505050565b7f4f776e61626c653a206e6577206f776e657220697320746865207a65726f206160008201527f6464726573730000000000000000000000000000000000000000000000000000602082015250565b6000612727602683611d90565b9150612732826126cb565b604082019050919050565b600060208201905081810360008301526127568161271a565b9050919050565b7f5061757361626c653a206e6f7420706175736564000000000000000000000000600082015250565b6000612793601483611d90565b915061279e8261275d565b602082019050919050565b600060208201905081810360008301526127c281612786565b905091905056fea2646970667358221220eca9de87531df35539f1d1c20b4bbd1bc1502d93e81fb69fe5402f94c643e9ed64736f6c634300080e0033",
  "immutableReferences": {
    "4056": [
      {
        "length": 32,
        "start": 1330
      },
      {
        "length": 32,
        "start": 1875
      },
      {
        "length": 32,
        "start": 2198
      },
      {
        "length": 32,
        "start": 2764
      },
      {
        "length": 32,
        "start": 3586
      },
      {
        "length": 32,
        "start": 4794
      }
    ]
  },
  "source": "//SPDX-License-Identifier: MIT\r\npragma solidity ^0.8.0;\r\n\r\nimport \"./interfaces/IActiveNFT.sol\";\r\nimport \"../studentmanager/interfaces/IAccessControl.sol\";\r\nimport \"../token/interfaces/IUITNFTToken.sol\";\r\nimport \"@openzeppelin/contracts/token/ERC20/IERC20.sol\";\r\nimport \"@openzeppelin/contracts/token/ERC20/utils/SafeERC20.sol\";\r\nimport \"@openzeppelin/contracts/token/ERC1155/IERC1155.sol\";\r\nimport \"@openzeppelin/contracts/token/ERC1155/IERC1155Receiver.sol\";\r\nimport {ERC1155Holder} from \"@openzeppelin/contracts/token/ERC1155/utils/ERC1155Holder.sol\";\r\nimport \"@openzeppelin/contracts/access/Ownable.sol\";\r\nimport \"@openzeppelin/contracts/security/ReentrancyGuard.sol\";\r\nimport \"@openzeppelin/contracts/utils/Counters.sol\";\r\nimport \"@openzeppelin/contracts/security/Pausable.sol\";\r\n\r\ncontract ActiveNFT is\r\n    IActiveNFT,\r\n    Pausable,\r\n    Ownable,\r\n    ReentrancyGuard,\r\n    ERC1155Holder\r\n{\r\n    using SafeERC20 for IERC20;\r\n    using Counters for Counters.Counter;\r\n\r\n    address public accessControl;\r\n    address public marketplaceAddress;\r\n    address public immutable UITNFT;\r\n\r\n    bytes32 internal constant ADMIN_ROLE = keccak256(\"ADMIN\");\r\n\r\n    ActiveInfo[] public activeInfoList;\r\n\r\n    constructor(address _accessControl, address _UITNFT) {\r\n        require(\r\n            _accessControl != address(0),\r\n            \"ActiveNFT: Access control contract cannot be 0\"\r\n        );\r\n        require(\r\n            _UITNFT != address(0),\r\n            \"ActiveNFT: UITNFToken must not be address 0\"\r\n        );\r\n        UITNFT = _UITNFT;\r\n    }\r\n\r\n    modifier onlyAdmin() {\r\n        require(\r\n            IAccessControl(accessControl).hasRole(ADMIN_ROLE, msg.sender),\r\n            \"Marketplace: Only admin can call this function\"\r\n        );\r\n        _;\r\n    }\r\n\r\n    modifier onlyMarketplace() {\r\n        require(msg.sender == marketplaceAddress);\r\n        _;\r\n    }\r\n\r\n    function setMarketplaceAddress(address _marketplaceAddress)\r\n        external\r\n        onlyAdmin\r\n    {\r\n        marketplaceAddress = _marketplaceAddress;\r\n    }\r\n\r\n    /** USER\r\n     * @dev Requset to activeNFT\r\n     * @param _itemId itemId\r\n     * @param _amount amount of item want to active\r\n     */\r\n    function requestActiveNFT(uint256 _itemId, uint256 _amount)\r\n        external\r\n        override\r\n        whenNotPaused\r\n        nonReentrant\r\n    {\r\n        require(_amount > 0, \"ActiveNFT: amount is zero\");\r\n        require(\r\n            IERC1155(UITNFT).balanceOf(msg.sender, _itemId) >= _amount,\r\n            \"ActiveNFT: Balance of items less than amount\"\r\n        );\r\n        uint256 activeId = activeInfoList.length;\r\n        ActiveInfo memory activeInfo = ActiveInfo(\r\n            activeId,\r\n            msg.sender,\r\n            _itemId,\r\n            _amount,\r\n            block.timestamp,\r\n            0,\r\n            true,\r\n            false\r\n        );\r\n        NFTInfo memory nftInfo = IUITNFTToken(UITNFT).getNFTInfo(_itemId);\r\n\r\n        if (nftInfo.isCourseNFT) {\r\n            activeInfo.isRequested = true;\r\n\r\n            emit NFTActived(\r\n                activeId + 1,\r\n                _itemId,\r\n                _amount,\r\n                block.timestamp,\r\n                msg.sender,\r\n                true\r\n            );\r\n        } else\r\n            emit ActiveNFTRequested(\r\n                _itemId,\r\n                _amount,\r\n                block.timestamp,\r\n                msg.sender\r\n            );\r\n\r\n        activeInfoList.push(activeInfo);\r\n        IERC1155(UITNFT).safeTransferFrom(\r\n            msg.sender,\r\n            address(this),\r\n            _itemId,\r\n            _amount,\r\n            \"\"\r\n        );\r\n    }\r\n\r\n    /** USER\r\n     * @dev cancel request active NFT\r\n     * @param _activeId itemId\r\n     */\r\n    function cancelRequestActiveNFT(uint256 _activeId)\r\n        external\r\n        override\r\n        whenNotPaused\r\n        nonReentrant\r\n    {\r\n        ActiveInfo storage activeInfo = activeInfoList[_activeId];\r\n        require(\r\n            activeInfo.ownerOfRequest == msg.sender,\r\n            \"ActiveNFT: Not owner of request\"\r\n        );\r\n        require(\r\n            activeInfo.isRequested,\r\n            \"ActiveNFT: activeInfo is not requested\"\r\n        );\r\n        require(\r\n            !activeInfo.isActive,\r\n            \"ActiveNFT: activeInfo is already actived\"\r\n        );\r\n        uint256 itemId = activeInfo.itemId;\r\n\r\n        activeInfo.isRequested = false;\r\n        IERC1155(UITNFT).safeTransferFrom(\r\n            address(this),\r\n            msg.sender,\r\n            itemId,\r\n            activeInfo.amount,\r\n            \"\"\r\n        );\r\n\r\n        emit ActiveNFTRequestCanceled(_activeId, block.timestamp);\r\n    }\r\n\r\n    /** ADMIN\r\n     * @dev active NFT\r\n     * @param _activeId itemId\r\n     */\r\n    function activeNFT(uint256 _activeId)\r\n        external\r\n        override\r\n        onlyMarketplace\r\n        whenNotPaused\r\n        nonReentrant\r\n    {\r\n        ActiveInfo storage activeInfo = activeInfoList[_activeId];\r\n        require(\r\n            activeInfo.isRequested,\r\n            \"ActiveNFT: activeInfo is not requested\"\r\n        );\r\n        require(\r\n            activeInfo.isActive,\r\n            \"ActiveNFT: activeInfo is already actived\"\r\n        );\r\n        uint256 itemId = activeInfo.itemId;\r\n\r\n        activeInfo.isActive = true;\r\n        activeInfo.activedTime = block.timestamp;\r\n\r\n        NFTInfo memory nftInfo = IUITNFTToken(UITNFT).getNFTInfo(itemId);\r\n        if (nftInfo.isCourseNFT)\r\n            emit NFTActived(\r\n                _activeId,\r\n                itemId,\r\n                activeInfo.amount,\r\n                block.timestamp,\r\n                msg.sender,\r\n                true\r\n            );\r\n        else\r\n            emit NFTActived(\r\n                _activeId,\r\n                itemId,\r\n                activeInfo.amount,\r\n                block.timestamp,\r\n                msg.sender,\r\n                false\r\n            );\r\n    }\r\n\r\n    function setAccessControl(address _accessControl) external onlyOwner {\r\n        accessControl = _accessControl;\r\n    }\r\n\r\n    /**\r\n     * @dev Pause the contract.\r\n     */\r\n    function pause() external onlyOwner {\r\n        _pause();\r\n    }\r\n\r\n    /**\r\n     * @dev Unpause the contract.\r\n     */\r\n    function unpause() external onlyOwner {\r\n        _unpause();\r\n    }\r\n}\r\n",
  "sourcePath": "E:\\KLTN\\KLTN\\KLTN-contracts\\contracts\\activeNFT\\ActiveNFT.sol",
  "compiler": {
    "name": "solc",
    "version": "0.8.14+commit.80d49f37.Emscripten.clang"
  },
  "schemaVersion": "3.4.3",
  "updatedAt": "2022-05-21T08:18:45.313Z",
  "networkType": "ethereum",
  "devdoc": {
    "kind": "dev",
    "methods": {
      "activeNFT(uint256)": {
        "details": "active NFT",
        "params": {
          "_activeId": "itemId"
        }
      },
      "cancelRequestActiveNFT(uint256)": {
        "details": "cancel request active NFT",
        "params": {
          "_activeId": "itemId"
        }
      },
      "owner()": {
        "details": "Returns the address of the current owner."
      },
      "pause()": {
        "details": "Pause the contract."
      },
      "paused()": {
        "details": "Returns true if the contract is paused, and false otherwise."
      },
      "renounceOwnership()": {
        "details": "Leaves the contract without owner. It will not be possible to call `onlyOwner` functions anymore. Can only be called by the current owner. NOTE: Renouncing ownership will leave the contract without an owner, thereby removing any functionality that is only available to the owner."
      },
      "requestActiveNFT(uint256,uint256)": {
        "details": "Requset to activeNFT",
        "params": {
          "_amount": "amount of item want to active",
          "_itemId": "itemId"
        }
      },
      "supportsInterface(bytes4)": {
        "details": "See {IERC165-supportsInterface}."
      },
      "transferOwnership(address)": {
        "details": "Transfers ownership of the contract to a new account (`newOwner`). Can only be called by the current owner."
      },
      "unpause()": {
        "details": "Unpause the contract."
      }
    },
    "version": 1
  },
  "userdoc": {
    "kind": "user",
    "methods": {
      "activeNFT(uint256)": {
        "notice": "ADMIN"
      },
      "cancelRequestActiveNFT(uint256)": {
        "notice": "USER"
      },
      "requestActiveNFT(uint256,uint256)": {
        "notice": "USER"
      }
    },
    "version": 1
  }
}