{
  "contractName": "ActiveNFT",
  "abi": [
    {
      "inputs": [
        {
          "internalType": "address",
          "name": "_accessControl",
          "type": "address"
        },
        {
          "internalType": "address",
          "name": "_UITNFT",
          "type": "address"
        }
      ],
      "stateMutability": "nonpayable",
      "type": "constructor"
    },
    {
      "anonymous": false,
      "inputs": [
        {
          "indexed": false,
          "internalType": "uint256",
          "name": "_activeId",
          "type": "uint256"
        },
        {
          "indexed": false,
          "internalType": "uint256",
          "name": "_cancelRequestTime",
          "type": "uint256"
        }
      ],
      "name": "ActiveNFTRequestCanceled",
      "type": "event"
    },
    {
      "anonymous": false,
      "inputs": [
        {
          "indexed": false,
          "internalType": "uint256",
          "name": "_itemId",
          "type": "uint256"
        },
        {
          "indexed": false,
          "internalType": "uint256",
          "name": "_amount",
          "type": "uint256"
        },
        {
          "indexed": false,
          "internalType": "uint256",
          "name": "_requestedTime",
          "type": "uint256"
        },
        {
          "indexed": false,
          "internalType": "address",
          "name": "_owner",
          "type": "address"
        }
      ],
      "name": "ActiveNFTRequested",
      "type": "event"
    },
    {
      "anonymous": false,
      "inputs": [
        {
          "indexed": false,
          "internalType": "uint256",
          "name": "_activeId",
          "type": "uint256"
        },
        {
          "indexed": false,
          "internalType": "uint256",
          "name": "_itemId",
          "type": "uint256"
        },
        {
          "indexed": false,
          "internalType": "uint256",
          "name": "_amount",
          "type": "uint256"
        },
        {
          "indexed": false,
          "internalType": "uint256",
          "name": "_activedTime",
          "type": "uint256"
        },
        {
          "indexed": false,
          "internalType": "address",
          "name": "_owner",
          "type": "address"
        },
        {
          "indexed": false,
          "internalType": "bool",
          "name": "_isCourseNFT",
          "type": "bool"
        }
      ],
      "name": "NFTActived",
      "type": "event"
    },
    {
      "anonymous": false,
      "inputs": [
        {
          "indexed": true,
          "internalType": "address",
          "name": "previousOwner",
          "type": "address"
        },
        {
          "indexed": true,
          "internalType": "address",
          "name": "newOwner",
          "type": "address"
        }
      ],
      "name": "OwnershipTransferred",
      "type": "event"
    },
    {
      "anonymous": false,
      "inputs": [
        {
          "indexed": false,
          "internalType": "address",
          "name": "account",
          "type": "address"
        }
      ],
      "name": "Paused",
      "type": "event"
    },
    {
      "anonymous": false,
      "inputs": [
        {
          "indexed": false,
          "internalType": "address",
          "name": "account",
          "type": "address"
        }
      ],
      "name": "Unpaused",
      "type": "event"
    },
    {
      "inputs": [],
      "name": "UITNFT",
      "outputs": [
        {
          "internalType": "address",
          "name": "",
          "type": "address"
        }
      ],
      "stateMutability": "view",
      "type": "function"
    },
    {
      "inputs": [],
      "name": "accessControl",
      "outputs": [
        {
          "internalType": "address",
          "name": "",
          "type": "address"
        }
      ],
      "stateMutability": "view",
      "type": "function"
    },
    {
      "inputs": [
        {
          "internalType": "uint256",
          "name": "",
          "type": "uint256"
        }
      ],
      "name": "activeInfoList",
      "outputs": [
        {
          "internalType": "uint256",
          "name": "activeId",
          "type": "uint256"
        },
        {
          "internalType": "address",
          "name": "ownerOfRequest",
          "type": "address"
        },
        {
          "internalType": "uint256",
          "name": "itemId",
          "type": "uint256"
        },
        {
          "internalType": "uint256",
          "name": "amount",
          "type": "uint256"
        },
        {
          "internalType": "uint256",
          "name": "requestedTime",
          "type": "uint256"
        },
        {
          "internalType": "uint256",
          "name": "activedTime",
          "type": "uint256"
        },
        {
          "internalType": "bool",
          "name": "isRequested",
          "type": "bool"
        },
        {
          "internalType": "bool",
          "name": "isActive",
          "type": "bool"
        }
      ],
      "stateMutability": "view",
      "type": "function"
    },
    {
      "inputs": [
        {
          "internalType": "address",
          "name": "",
          "type": "address"
        },
        {
          "internalType": "address",
          "name": "",
          "type": "address"
        },
        {
          "internalType": "uint256[]",
          "name": "",
          "type": "uint256[]"
        },
        {
          "internalType": "uint256[]",
          "name": "",
          "type": "uint256[]"
        },
        {
          "internalType": "bytes",
          "name": "",
          "type": "bytes"
        }
      ],
      "name": "onERC1155BatchReceived",
      "outputs": [
        {
          "internalType": "bytes4",
          "name": "",
          "type": "bytes4"
        }
      ],
      "stateMutability": "nonpayable",
      "type": "function"
    },
    {
      "inputs": [
        {
          "internalType": "address",
          "name": "",
          "type": "address"
        },
        {
          "internalType": "address",
          "name": "",
          "type": "address"
        },
        {
          "internalType": "uint256",
          "name": "",
          "type": "uint256"
        },
        {
          "internalType": "uint256",
          "name": "",
          "type": "uint256"
        },
        {
          "internalType": "bytes",
          "name": "",
          "type": "bytes"
        }
      ],
      "name": "onERC1155Received",
      "outputs": [
        {
          "internalType": "bytes4",
          "name": "",
          "type": "bytes4"
        }
      ],
      "stateMutability": "nonpayable",
      "type": "function"
    },
    {
      "inputs": [],
      "name": "owner",
      "outputs": [
        {
          "internalType": "address",
          "name": "",
          "type": "address"
        }
      ],
      "stateMutability": "view",
      "type": "function"
    },
    {
      "inputs": [],
      "name": "paused",
      "outputs": [
        {
          "internalType": "bool",
          "name": "",
          "type": "bool"
        }
      ],
      "stateMutability": "view",
      "type": "function"
    },
    {
      "inputs": [],
      "name": "renounceOwnership",
      "outputs": [],
      "stateMutability": "nonpayable",
      "type": "function"
    },
    {
      "inputs": [
        {
          "internalType": "bytes4",
          "name": "interfaceId",
          "type": "bytes4"
        }
      ],
      "name": "supportsInterface",
      "outputs": [
        {
          "internalType": "bool",
          "name": "",
          "type": "bool"
        }
      ],
      "stateMutability": "view",
      "type": "function"
    },
    {
      "inputs": [
        {
          "internalType": "address",
          "name": "newOwner",
          "type": "address"
        }
      ],
      "name": "transferOwnership",
      "outputs": [],
      "stateMutability": "nonpayable",
      "type": "function"
    },
    {
      "inputs": [
        {
          "internalType": "uint256",
          "name": "_itemId",
          "type": "uint256"
        },
        {
          "internalType": "uint256",
          "name": "_amount",
          "type": "uint256"
        }
      ],
      "name": "requestActiveNFT",
      "outputs": [],
      "stateMutability": "nonpayable",
      "type": "function"
    },
    {
      "inputs": [
        {
          "internalType": "uint256",
          "name": "_activeId",
          "type": "uint256"
        }
      ],
      "name": "cancelRequestActiveNFT",
      "outputs": [],
      "stateMutability": "nonpayable",
      "type": "function"
    },
    {
      "inputs": [
        {
          "internalType": "uint256",
          "name": "_activeId",
          "type": "uint256"
        }
      ],
      "name": "activeNFT",
      "outputs": [],
      "stateMutability": "nonpayable",
      "type": "function"
    },
    {
      "inputs": [
        {
          "internalType": "address",
          "name": "_accessControl",
          "type": "address"
        }
      ],
      "name": "setAccessControl",
      "outputs": [],
      "stateMutability": "nonpayable",
      "type": "function"
    },
    {
      "inputs": [],
      "name": "pause",
      "outputs": [],
      "stateMutability": "nonpayable",
      "type": "function"
    },
    {
      "inputs": [],
      "name": "unpause",
      "outputs": [],
      "stateMutability": "nonpayable",
      "type": "function"
    }
  ],
  "bytecode": "0x60a06040523480156200001157600080fd5b5060405162002b8138038062002b818339818101604052810190620000379190620002cf565b60008060006101000a81548160ff02191690831515021790555062000071620000656200019860201b60201c565b620001a060201b60201c565b60018081905550600073ffffffffffffffffffffffffffffffffffffffff168273ffffffffffffffffffffffffffffffffffffffff1603620000ea576040517f08c379a0000000000000000000000000000000000000000000000000000000008152600401620000e1906200039d565b60405180910390fd5b600073ffffffffffffffffffffffffffffffffffffffff168173ffffffffffffffffffffffffffffffffffffffff16036200015c576040517f08c379a0000000000000000000000000000000000000000000000000000000008152600401620001539062000435565b60405180910390fd5b8073ffffffffffffffffffffffffffffffffffffffff1660808173ffffffffffffffffffffffffffffffffffffffff1681525050505062000457565b600033905090565b60008060019054906101000a900473ffffffffffffffffffffffffffffffffffffffff16905081600060016101000a81548173ffffffffffffffffffffffffffffffffffffffff021916908373ffffffffffffffffffffffffffffffffffffffff1602179055508173ffffffffffffffffffffffffffffffffffffffff168173ffffffffffffffffffffffffffffffffffffffff167f8be0079c531659141344cd1fd0a4f28419497f9722a3daafe3b4186f6b6457e060405160405180910390a35050565b600080fd5b600073ffffffffffffffffffffffffffffffffffffffff82169050919050565b600062000297826200026a565b9050919050565b620002a9816200028a565b8114620002b557600080fd5b50565b600081519050620002c9816200029e565b92915050565b60008060408385031215620002e957620002e862000265565b5b6000620002f985828601620002b8565b92505060206200030c85828601620002b8565b9150509250929050565b600082825260208201905092915050565b7f4163746976654e46543a2041636365737320636f6e74726f6c20636f6e74726160008201527f63742063616e6e6f742062652030000000000000000000000000000000000000602082015250565b600062000385602e8362000316565b9150620003928262000327565b604082019050919050565b60006020820190508181036000830152620003b88162000376565b9050919050565b7f4163746976654e46543a205549544e46546f6b656e206d757374206e6f74206260008201527f6520616464726573732030000000000000000000000000000000000000000000602082015250565b60006200041d602b8362000316565b91506200042a82620003bf565b604082019050919050565b6000602082019050818103600083015262000450816200040e565b9050919050565b6080516126eb62000496600039600081816104e2015281816107030152818161084601528181610a7c01528181610e5501526111cc01526126eb6000f3fe608060405234801561001057600080fd5b50600436106101005760003560e01c80637e707f8611610097578063bc197c8111610066578063bc197c8114610256578063d3e8dba514610286578063f23a6e61146102a2578063f2fde38b146102d257610100565b80637e707f86146101f65780638456cb59146102125780638da5cb5b1461021c578063ab2cb64c1461023a57610100565b80633b88699b116100d35780633b88699b146101a65780633f4ba83a146101c45780635c975abb146101ce578063715018a6146101ec57610100565b806301ffc9a71461010557806313007d551461013557806319129e5a14610153578063316aa1321461016f575b600080fd5b61011f600480360381019061011a9190611696565b6102ee565b60405161012c91906116de565b60405180910390f35b61013d610368565b60405161014a919061173a565b60405180910390f35b61016d60048036038101906101689190611781565b61038e565b005b610189600480360381019061018491906117e4565b61044e565b60405161019d989796959493929190611820565b60405180910390f35b6101ae6104e0565b6040516101bb919061173a565b60405180910390f35b6101cc610504565b005b6101d661058a565b6040516101e391906116de565b60405180910390f35b6101f46105a0565b005b610210600480360381019061020b919061189e565b610628565b005b61021a610b19565b005b610224610b9f565b604051610231919061173a565b60405180910390f35b610254600480360381019061024f91906117e4565b610bc8565b005b610270600480360381019061026b9190611aec565b610f9f565b60405161027d9190611bca565b60405180910390f35b6102a0600480360381019061029b91906117e4565b610fb4565b005b6102bc60048036038101906102b79190611be5565b6112a4565b6040516102c99190611bca565b60405180910390f35b6102ec60048036038101906102e79190611781565b6112b9565b005b60007f4e2312e0000000000000000000000000000000000000000000000000000000007bffffffffffffffffffffffffffffffffffffffffffffffffffffffff1916827bffffffffffffffffffffffffffffffffffffffffffffffffffffffff191614806103615750610360826113b0565b5b9050919050565b600260009054906101000a900473ffffffffffffffffffffffffffffffffffffffff1681565b61039661141a565b73ffffffffffffffffffffffffffffffffffffffff166103b4610b9f565b73ffffffffffffffffffffffffffffffffffffffff161461040a576040517f08c379a000000000000000000000000000000000000000000000000000000000815260040161040190611cd9565b60405180910390fd5b80600260006101000a81548173ffffffffffffffffffffffffffffffffffffffff021916908373ffffffffffffffffffffffffffffffffffffffff16021790555050565b6003818154811061045e57600080fd5b90600052602060002090600702016000915090508060000154908060010160009054906101000a900473ffffffffffffffffffffffffffffffffffffffff16908060020154908060030154908060040154908060050154908060060160009054906101000a900460ff16908060060160019054906101000a900460ff16905088565b7f000000000000000000000000000000000000000000000000000000000000000081565b61050c61141a565b73ffffffffffffffffffffffffffffffffffffffff1661052a610b9f565b73ffffffffffffffffffffffffffffffffffffffff1614610580576040517f08c379a000000000000000000000000000000000000000000000000000000000815260040161057790611cd9565b60405180910390fd5b610588611422565b565b60008060009054906101000a900460ff16905090565b6105a861141a565b73ffffffffffffffffffffffffffffffffffffffff166105c6610b9f565b73ffffffffffffffffffffffffffffffffffffffff161461061c576040517f08c379a000000000000000000000000000000000000000000000000000000000815260040161061390611cd9565b60405180910390fd5b61062660006114c3565b565b61063061058a565b15610670576040517f08c379a000000000000000000000000000000000000000000000000000000000815260040161066790611d45565b60405180910390fd5b6002600154036106b5576040517f08c379a00000000000000000000000000000000000000000000000000000000081526004016106ac90611db1565b60405180910390fd5b600260018190555060008111610700576040517f08c379a00000000000000000000000000000000000000000000000000000000081526004016106f790611e1d565b60405180910390fd5b807f000000000000000000000000000000000000000000000000000000000000000073ffffffffffffffffffffffffffffffffffffffff1662fdd58e33856040518363ffffffff1660e01b815260040161075b929190611e3d565b602060405180830381865afa158015610778573d6000803e3d6000fd5b505050506040513d601f19601f8201168201806040525081019061079c9190611e7b565b10156107dd576040517f08c379a00000000000000000000000000000000000000000000000000000000081526004016107d490611f1a565b60405180910390fd5b6000600380549050905060006040518061010001604052808381526020013373ffffffffffffffffffffffffffffffffffffffff1681526020018581526020018481526020014281526020016000815260200160011515815260200160001515815250905060007f000000000000000000000000000000000000000000000000000000000000000073ffffffffffffffffffffffffffffffffffffffff1663d188929f866040518263ffffffff1660e01b815260040161089d9190611f3a565b6000604051808303816000875af11580156108bc573d6000803e3d6000fd5b505050506040513d6000823e3d601f19601f820116820180604052508101906108e591906120cb565b90508060200151156109555760018260c00190151590811515815250507fd1a0d31f113bbeff7c2b156d2fabbd5040c8ff539cad8a91f885eed034b469696001846109309190612143565b86864233600160405161094896959493929190612199565b60405180910390a1610993565b7f93a77958910a2b2fbdcd52bc45515c806c95a2d920de899c7accad9b82e169178585423360405161098a94939291906121fa565b60405180910390a15b60038290806001815401808255809150506001900390600052602060002090600702016000909190919091506000820151816000015560208201518160010160006101000a81548173ffffffffffffffffffffffffffffffffffffffff021916908373ffffffffffffffffffffffffffffffffffffffff16021790555060408201518160020155606082015181600301556080820151816004015560a0820151816005015560c08201518160060160006101000a81548160ff02191690831515021790555060e08201518160060160016101000a81548160ff02191690831515021790555050507f000000000000000000000000000000000000000000000000000000000000000073ffffffffffffffffffffffffffffffffffffffff1663f242432a333088886040518563ffffffff1660e01b8152600401610ad99493929190612276565b600060405180830381600087803b158015610af357600080fd5b505af1158015610b07573d6000803e3d6000fd5b50505050505050600180819055505050565b610b2161141a565b73ffffffffffffffffffffffffffffffffffffffff16610b3f610b9f565b73ffffffffffffffffffffffffffffffffffffffff1614610b95576040517f08c379a0000000000000000000000000000000000000000000000000000000008152600401610b8c90611cd9565b60405180910390fd5b610b9d611588565b565b60008060019054906101000a900473ffffffffffffffffffffffffffffffffffffffff16905090565b600260009054906101000a900473ffffffffffffffffffffffffffffffffffffffff1673ffffffffffffffffffffffffffffffffffffffff166391d148547fdf8b4c520ffe197c5343c6f5aec59570151ef9a492f2c624fd45ddde6135ec42336040518363ffffffff1660e01b8152600401610c459291906122e7565b602060405180830381865afa158015610c62573d6000803e3d6000fd5b505050506040513d601f19601f82011682018060405250810190610c869190612310565b610cc5576040517f08c379a0000000000000000000000000000000000000000000000000000000008152600401610cbc906123af565b60405180910390fd5b610ccd61058a565b15610d0d576040517f08c379a0000000000000000000000000000000000000000000000000000000008152600401610d0490611d45565b60405180910390fd5b600260015403610d52576040517f08c379a0000000000000000000000000000000000000000000000000000000008152600401610d4990611db1565b60405180910390fd5b6002600181905550600060038281548110610d7057610d6f6123cf565b5b906000526020600020906007020190508060060160009054906101000a900460ff16610dd1576040517f08c379a0000000000000000000000000000000000000000000000000000000008152600401610dc890612470565b60405180910390fd5b8060060160019054906101000a900460ff16610e22576040517f08c379a0000000000000000000000000000000000000000000000000000000008152600401610e1990612502565b60405180910390fd5b60008160020154905060018260060160016101000a81548160ff02191690831515021790555042826005018190555060007f000000000000000000000000000000000000000000000000000000000000000073ffffffffffffffffffffffffffffffffffffffff1663d188929f836040518263ffffffff1660e01b8152600401610eac9190611f3a565b6000604051808303816000875af1158015610ecb573d6000803e3d6000fd5b505050506040513d6000823e3d601f19601f82011682018060405250810190610ef491906120cb565b9050806020015115610f4b577fd1a0d31f113bbeff7c2b156d2fabbd5040c8ff539cad8a91f885eed034b469698483856003015442336001604051610f3e96959493929190612199565b60405180910390a1610f92565b7fd1a0d31f113bbeff7c2b156d2fabbd5040c8ff539cad8a91f885eed034b469698483856003015442336000604051610f8996959493929190612199565b60405180910390a15b5050506001808190555050565b600063bc197c8160e01b905095945050505050565b610fbc61058a565b15610ffc576040517f08c379a0000000000000000000000000000000000000000000000000000000008152600401610ff390611d45565b60405180910390fd5b600260015403611041576040517f08c379a000000000000000000000000000000000000000000000000000000000815260040161103890611db1565b60405180910390fd5b600260018190555060006003828154811061105f5761105e6123cf565b5b906000526020600020906007020190503373ffffffffffffffffffffffffffffffffffffffff168160010160009054906101000a900473ffffffffffffffffffffffffffffffffffffffff1673ffffffffffffffffffffffffffffffffffffffff1614611101576040517f08c379a00000000000000000000000000000000000000000000000000000000081526004016110f89061256e565b60405180910390fd5b8060060160009054906101000a900460ff16611152576040517f08c379a000000000000000000000000000000000000000000000000000000000815260040161114990612470565b60405180910390fd5b8060060160019054906101000a900460ff16156111a4576040517f08c379a000000000000000000000000000000000000000000000000000000000815260040161119b90612502565b60405180910390fd5b60008160020154905060008260060160006101000a81548160ff0219169083151502179055507f000000000000000000000000000000000000000000000000000000000000000073ffffffffffffffffffffffffffffffffffffffff1663f242432a30338486600301546040518563ffffffff1660e01b815260040161122d9493929190612276565b600060405180830381600087803b15801561124757600080fd5b505af115801561125b573d6000803e3d6000fd5b505050507f1266933e3dee32241cac867cb9bf2c3cebdb58cc6be3dbba08776fc4693497fa834260405161129092919061258e565b60405180910390a150506001808190555050565b600063f23a6e6160e01b905095945050505050565b6112c161141a565b73ffffffffffffffffffffffffffffffffffffffff166112df610b9f565b73ffffffffffffffffffffffffffffffffffffffff1614611335576040517f08c379a000000000000000000000000000000000000000000000000000000000815260040161132c90611cd9565b60405180910390fd5b600073ffffffffffffffffffffffffffffffffffffffff168173ffffffffffffffffffffffffffffffffffffffff16036113a4576040517f08c379a000000000000000000000000000000000000000000000000000000000815260040161139b90612629565b60405180910390fd5b6113ad816114c3565b50565b60007f01ffc9a7000000000000000000000000000000000000000000000000000000007bffffffffffffffffffffffffffffffffffffffffffffffffffffffff1916827bffffffffffffffffffffffffffffffffffffffffffffffffffffffff1916149050919050565b600033905090565b61142a61058a565b611469576040517f08c379a000000000000000000000000000000000000000000000000000000000815260040161146090612695565b60405180910390fd5b60008060006101000a81548160ff0219169083151502179055507f5db9ee0a495bf2e6ff9c91a7834c1ba4fdd244a5e8aa4e537bd38aeae4b073aa6114ac61141a565b6040516114b9919061173a565b60405180910390a1565b60008060019054906101000a900473ffffffffffffffffffffffffffffffffffffffff16905081600060016101000a81548173ffffffffffffffffffffffffffffffffffffffff021916908373ffffffffffffffffffffffffffffffffffffffff1602179055508173ffffffffffffffffffffffffffffffffffffffff168173ffffffffffffffffffffffffffffffffffffffff167f8be0079c531659141344cd1fd0a4f28419497f9722a3daafe3b4186f6b6457e060405160405180910390a35050565b61159061058a565b156115d0576040517f08c379a00000000000000000000000000000000000000000000000000000000081526004016115c790611d45565b60405180910390fd5b60016000806101000a81548160ff0219169083151502179055507f62e78cea01bee320cd4e420270b5ea74000d11b0c9f74754ebdbfc544b05a25861161361141a565b604051611620919061173a565b60405180910390a1565b6000604051905090565b600080fd5b600080fd5b60007fffffffff0000000000000000000000000000000000000000000000000000000082169050919050565b6116738161163e565b811461167e57600080fd5b50565b6000813590506116908161166a565b92915050565b6000602082840312156116ac576116ab611634565b5b60006116ba84828501611681565b91505092915050565b60008115159050919050565b6116d8816116c3565b82525050565b60006020820190506116f360008301846116cf565b92915050565b600073ffffffffffffffffffffffffffffffffffffffff82169050919050565b6000611724826116f9565b9050919050565b61173481611719565b82525050565b600060208201905061174f600083018461172b565b92915050565b61175e81611719565b811461176957600080fd5b50565b60008135905061177b81611755565b92915050565b60006020828403121561179757611796611634565b5b60006117a58482850161176c565b91505092915050565b6000819050919050565b6117c1816117ae565b81146117cc57600080fd5b50565b6000813590506117de816117b8565b92915050565b6000602082840312156117fa576117f9611634565b5b6000611808848285016117cf565b91505092915050565b61181a816117ae565b82525050565b600061010082019050611836600083018b611811565b611843602083018a61172b565b6118506040830189611811565b61185d6060830188611811565b61186a6080830187611811565b61187760a0830186611811565b61188460c08301856116cf565b61189160e08301846116cf565b9998505050505050505050565b600080604083850312156118b5576118b4611634565b5b60006118c3858286016117cf565b92505060206118d4858286016117cf565b9150509250929050565b600080fd5b6000601f19601f8301169050919050565b7f4e487b7100000000000000000000000000000000000000000000000000000000600052604160045260246000fd5b61192c826118e3565b810181811067ffffffffffffffff8211171561194b5761194a6118f4565b5b80604052505050565b600061195e61162a565b905061196a8282611923565b919050565b600067ffffffffffffffff82111561198a576119896118f4565b5b602082029050602081019050919050565b600080fd5b60006119b36119ae8461196f565b611954565b905080838252602082019050602084028301858111156119d6576119d561199b565b5b835b818110156119ff57806119eb88826117cf565b8452602084019350506020810190506119d8565b5050509392505050565b600082601f830112611a1e57611a1d6118de565b5b8135611a2e8482602086016119a0565b91505092915050565b600080fd5b600067ffffffffffffffff821115611a5757611a566118f4565b5b611a60826118e3565b9050602081019050919050565b82818337600083830152505050565b6000611a8f611a8a84611a3c565b611954565b905082815260208101848484011115611aab57611aaa611a37565b5b611ab6848285611a6d565b509392505050565b600082601f830112611ad357611ad26118de565b5b8135611ae3848260208601611a7c565b91505092915050565b600080600080600060a08688031215611b0857611b07611634565b5b6000611b168882890161176c565b9550506020611b278882890161176c565b945050604086013567ffffffffffffffff811115611b4857611b47611639565b5b611b5488828901611a09565b935050606086013567ffffffffffffffff811115611b7557611b74611639565b5b611b8188828901611a09565b925050608086013567ffffffffffffffff811115611ba257611ba1611639565b5b611bae88828901611abe565b9150509295509295909350565b611bc48161163e565b82525050565b6000602082019050611bdf6000830184611bbb565b92915050565b600080600080600060a08688031215611c0157611c00611634565b5b6000611c0f8882890161176c565b9550506020611c208882890161176c565b9450506040611c31888289016117cf565b9350506060611c42888289016117cf565b925050608086013567ffffffffffffffff811115611c6357611c62611639565b5b611c6f88828901611abe565b9150509295509295909350565b600082825260208201905092915050565b7f4f776e61626c653a2063616c6c6572206973206e6f7420746865206f776e6572600082015250565b6000611cc3602083611c7c565b9150611cce82611c8d565b602082019050919050565b60006020820190508181036000830152611cf281611cb6565b9050919050565b7f5061757361626c653a2070617573656400000000000000000000000000000000600082015250565b6000611d2f601083611c7c565b9150611d3a82611cf9565b602082019050919050565b60006020820190508181036000830152611d5e81611d22565b9050919050565b7f5265656e7472616e637947756172643a207265656e7472616e742063616c6c00600082015250565b6000611d9b601f83611c7c565b9150611da682611d65565b602082019050919050565b60006020820190508181036000830152611dca81611d8e565b9050919050565b7f4163746976654e46543a20616d6f756e74206973207a65726f00000000000000600082015250565b6000611e07601983611c7c565b9150611e1282611dd1565b602082019050919050565b60006020820190508181036000830152611e3681611dfa565b9050919050565b6000604082019050611e52600083018561172b565b611e5f6020830184611811565b9392505050565b600081519050611e75816117b8565b92915050565b600060208284031215611e9157611e90611634565b5b6000611e9f84828501611e66565b91505092915050565b7f4163746976654e46543a2042616c616e6365206f66206974656d73206c65737360008201527f207468616e20616d6f756e740000000000000000000000000000000000000000602082015250565b6000611f04602c83611c7c565b9150611f0f82611ea8565b604082019050919050565b60006020820190508181036000830152611f3381611ef7565b9050919050565b6000602082019050611f4f6000830184611811565b92915050565b600080fd5b600080fd5b600067ffffffffffffffff821115611f7a57611f796118f4565b5b611f83826118e3565b9050602081019050919050565b60005b83811015611fae578082015181840152602081019050611f93565b83811115611fbd576000848401525b50505050565b6000611fd6611fd184611f5f565b611954565b905082815260208101848484011115611ff257611ff1611a37565b5b611ffd848285611f90565b509392505050565b600082601f83011261201a576120196118de565b5b815161202a848260208601611fc3565b91505092915050565b61203c816116c3565b811461204757600080fd5b50565b60008151905061205981612033565b92915050565b60006040828403121561207557612074611f55565b5b61207f6040611954565b9050600082015167ffffffffffffffff81111561209f5761209e611f5a565b5b6120ab84828501612005565b60008301525060206120bf8482850161204a565b60208301525092915050565b6000602082840312156120e1576120e0611634565b5b600082015167ffffffffffffffff8111156120ff576120fe611639565b5b61210b8482850161205f565b91505092915050565b7f4e487b7100000000000000000000000000000000000000000000000000000000600052601160045260246000fd5b600061214e826117ae565b9150612159836117ae565b9250827fffffffffffffffffffffffffffffffffffffffffffffffffffffffffffffffff0382111561218e5761218d612114565b5b828201905092915050565b600060c0820190506121ae6000830189611811565b6121bb6020830188611811565b6121c86040830187611811565b6121d56060830186611811565b6121e2608083018561172b565b6121ef60a08301846116cf565b979650505050505050565b600060808201905061220f6000830187611811565b61221c6020830186611811565b6122296040830185611811565b612236606083018461172b565b95945050505050565b600082825260208201905092915050565b50565b600061226060008361223f565b915061226b82612250565b600082019050919050565b600060a08201905061228b600083018761172b565b612298602083018661172b565b6122a56040830185611811565b6122b26060830184611811565b81810360808301526122c381612253565b905095945050505050565b6000819050919050565b6122e1816122ce565b82525050565b60006040820190506122fc60008301856122d8565b612309602083018461172b565b9392505050565b60006020828403121561232657612325611634565b5b60006123348482850161204a565b91505092915050565b7f4d61726b6574706c6163653a204f6e6c792061646d696e2063616e2063616c6c60008201527f20746869732066756e6374696f6e000000000000000000000000000000000000602082015250565b6000612399602e83611c7c565b91506123a48261233d565b604082019050919050565b600060208201905081810360008301526123c88161238c565b9050919050565b7f4e487b7100000000000000000000000000000000000000000000000000000000600052603260045260246000fd5b7f4163746976654e46543a20616374697665496e666f206973206e6f742072657160008201527f7565737465640000000000000000000000000000000000000000000000000000602082015250565b600061245a602683611c7c565b9150612465826123fe565b604082019050919050565b600060208201905081810360008301526124898161244d565b9050919050565b7f4163746976654e46543a20616374697665496e666f20697320616c726561647960008201527f2061637469766564000000000000000000000000000000000000000000000000602082015250565b60006124ec602883611c7c565b91506124f782612490565b604082019050919050565b6000602082019050818103600083015261251b816124df565b9050919050565b7f4163746976654e46543a204e6f74206f776e6572206f66207265717565737400600082015250565b6000612558601f83611c7c565b915061256382612522565b602082019050919050565b600060208201905081810360008301526125878161254b565b9050919050565b60006040820190506125a36000830185611811565b6125b06020830184611811565b9392505050565b7f4f776e61626c653a206e6577206f776e657220697320746865207a65726f206160008201527f6464726573730000000000000000000000000000000000000000000000000000602082015250565b6000612613602683611c7c565b915061261e826125b7565b604082019050919050565b6000602082019050818103600083015261264281612606565b9050919050565b7f5061757361626c653a206e6f7420706175736564000000000000000000000000600082015250565b600061267f601483611c7c565b915061268a82612649565b602082019050919050565b600060208201905081810360008301526126ae81612672565b905091905056fea2646970667358221220dc99a389b2acde012b3966cc7076c4551c81fbc6e4db6653a141ba0512dfe49c64736f6c634300080d0033",
  "immutableReferences": {
    "4054": [
      {
        "length": 32,
        "start": 1250
      },
      {
        "length": 32,
        "start": 1795
      },
      {
        "length": 32,
        "start": 2118
      },
      {
        "length": 32,
        "start": 2684
      },
      {
        "length": 32,
        "start": 3669
      },
      {
        "length": 32,
        "start": 4556
      }
    ]
  },
  "source": "//SPDX-License-Identifier: MIT\r\npragma solidity ^0.8.0;\r\n\r\nimport \"./interfaces/IActiveNFT.sol\";\r\nimport \"../studentmanager/interfaces/IAccessControl.sol\";\r\nimport \"../token/interfaces/IUITNFTToken.sol\";\r\nimport \"@openzeppelin/contracts/token/ERC20/IERC20.sol\";\r\nimport \"@openzeppelin/contracts/token/ERC20/utils/SafeERC20.sol\";\r\nimport \"@openzeppelin/contracts/token/ERC1155/IERC1155.sol\";\r\nimport \"@openzeppelin/contracts/token/ERC1155/IERC1155Receiver.sol\";\r\nimport { ERC1155Holder } from \"@openzeppelin/contracts/token/ERC1155/utils/ERC1155Holder.sol\";\r\nimport \"@openzeppelin/contracts/access/Ownable.sol\";\r\nimport \"@openzeppelin/contracts/security/ReentrancyGuard.sol\";\r\nimport \"@openzeppelin/contracts/utils/Counters.sol\";\r\nimport \"@openzeppelin/contracts/security/Pausable.sol\";\r\n\r\ncontract ActiveNFT is IActiveNFT, Pausable, Ownable, ReentrancyGuard, ERC1155Holder {\r\n    using SafeERC20 for IERC20;\r\n    using Counters for Counters.Counter;\r\n\r\n    address public accessControl;\r\n    address public immutable UITNFT;\r\n\r\n    bytes32 constant internal ADMIN_ROLE = keccak256(\"ADMIN\");\r\n\r\n    ActiveInfo[] public activeInfoList;\r\n\r\n    constructor(\r\n        address _accessControl,\r\n        address _UITNFT\r\n    ) {\r\n        require(_accessControl != address(0), \"ActiveNFT: Access control contract cannot be 0\");\r\n        require(_UITNFT != address(0), \"ActiveNFT: UITNFToken must not be address 0\");\r\n        UITNFT = _UITNFT;\r\n    }\r\n\r\n    modifier onlyAdmin() {\r\n        require(IAccessControl(accessControl).hasRole(ADMIN_ROLE, msg.sender), \"Marketplace: Only admin can call this function\");\r\n        _;\r\n    }\r\n\r\n    /** USER\r\n     * @dev Requset to activeNFT\r\n     * @param _itemId itemId\r\n     * @param _amount amount of item want to active\r\n     */\r\n    function requestActiveNFT(uint _itemId, uint _amount) external override whenNotPaused nonReentrant {\r\n        require(_amount > 0, \"ActiveNFT: amount is zero\");\r\n        require(IERC1155(UITNFT).balanceOf(msg.sender, _itemId) >= _amount, \"ActiveNFT: Balance of items less than amount\");\r\n        uint activeId = activeInfoList.length;\r\n        ActiveInfo memory activeInfo = ActiveInfo(\r\n            activeId,\r\n            msg.sender,\r\n            _itemId,\r\n            _amount,\r\n            block.timestamp,\r\n            0,\r\n            true,\r\n            false\r\n        );\r\n        NFTInfo memory nftInfo = IUITNFTToken(UITNFT).getNFTInfo(_itemId);\r\n\r\n        if (nftInfo.isCourseNFT) {\r\n            activeInfo.isRequested = true;\r\n\r\n            emit NFTActived(activeId + 1, _itemId, _amount, block.timestamp, msg.sender, true);\r\n        }\r\n        else\r\n            emit ActiveNFTRequested(_itemId, _amount, block.timestamp, msg.sender);\r\n\r\n        activeInfoList.push(activeInfo);\r\n        IERC1155(UITNFT).safeTransferFrom(msg.sender, address(this), _itemId, _amount, \"\");\r\n    }\r\n\r\n    /** USER\r\n     * @dev cancel request active NFT\r\n     * @param _activeId itemId\r\n     */\r\n    function cancelRequestActiveNFT(uint _activeId) external override whenNotPaused nonReentrant {\r\n        ActiveInfo storage activeInfo = activeInfoList[_activeId];\r\n        require(activeInfo.ownerOfRequest == msg.sender, \"ActiveNFT: Not owner of request\");\r\n        require(activeInfo.isRequested, \"ActiveNFT: activeInfo is not requested\");\r\n        require(!activeInfo.isActive, \"ActiveNFT: activeInfo is already actived\");\r\n        uint itemId = activeInfo.itemId;\r\n\r\n        activeInfo.isRequested = false;\r\n        IERC1155(UITNFT).safeTransferFrom(address(this), msg.sender, itemId, activeInfo.amount, \"\");\r\n\r\n        emit ActiveNFTRequestCanceled(_activeId, block.timestamp);\r\n    }\r\n\r\n    /** ADMIN\r\n     * @dev active NFT\r\n     * @param _activeId itemId\r\n     */\r\n    function activeNFT(uint _activeId) external override onlyAdmin whenNotPaused nonReentrant {\r\n        ActiveInfo storage activeInfo = activeInfoList[_activeId];\r\n        require(activeInfo.isRequested, \"ActiveNFT: activeInfo is not requested\");\r\n        require(activeInfo.isActive, \"ActiveNFT: activeInfo is already actived\");\r\n        uint itemId = activeInfo.itemId;\r\n\r\n        activeInfo.isActive = true;\r\n        activeInfo.activedTime = block.timestamp;\r\n\r\n        NFTInfo memory nftInfo = IUITNFTToken(UITNFT).getNFTInfo(itemId);\r\n        if (nftInfo.isCourseNFT)\r\n            emit NFTActived(_activeId, itemId, activeInfo.amount, block.timestamp, msg.sender, true);\r\n        else\r\n            emit NFTActived(_activeId, itemId, activeInfo.amount, block.timestamp, msg.sender, false);\r\n    }\r\n\r\n    function setAccessControl(address _accessControl) external onlyOwner {\r\n        accessControl = _accessControl;\r\n    }\r\n\r\n    /**\r\n     * @dev Pause the contract.\r\n     */\r\n    function pause() external onlyOwner {\r\n        _pause();\r\n    }\r\n\r\n    /**\r\n     * @dev Unpause the contract.\r\n     */\r\n    function unpause() external onlyOwner {\r\n        _unpause();\r\n    }\r\n}\r\n",
  "sourcePath": "E:\\KLTN\\KLTN\\KLTN-contracts\\contracts\\activeNFT\\ActiveNFT.sol",
  "compiler": {
    "name": "solc",
    "version": "0.8.13+commit.abaa5c0e.Emscripten.clang"
  },
  "schemaVersion": "3.4.3",
  "updatedAt": "2022-05-14T13:42:58.152Z",
  "devdoc": {
    "kind": "dev",
    "methods": {
      "activeNFT(uint256)": {
        "details": "active NFT",
        "params": {
          "_activeId": "itemId"
        }
      },
      "cancelRequestActiveNFT(uint256)": {
        "details": "cancel request active NFT",
        "params": {
          "_activeId": "itemId"
        }
      },
      "owner()": {
        "details": "Returns the address of the current owner."
      },
      "pause()": {
        "details": "Pause the contract."
      },
      "paused()": {
        "details": "Returns true if the contract is paused, and false otherwise."
      },
      "renounceOwnership()": {
        "details": "Leaves the contract without owner. It will not be possible to call `onlyOwner` functions anymore. Can only be called by the current owner. NOTE: Renouncing ownership will leave the contract without an owner, thereby removing any functionality that is only available to the owner."
      },
      "requestActiveNFT(uint256,uint256)": {
        "details": "Requset to activeNFT",
        "params": {
          "_amount": "amount of item want to active",
          "_itemId": "itemId"
        }
      },
      "supportsInterface(bytes4)": {
        "details": "See {IERC165-supportsInterface}."
      },
      "transferOwnership(address)": {
        "details": "Transfers ownership of the contract to a new account (`newOwner`). Can only be called by the current owner."
      },
      "unpause()": {
        "details": "Unpause the contract."
      }
    },
    "version": 1
  },
  "userdoc": {
    "kind": "user",
    "methods": {
      "activeNFT(uint256)": {
        "notice": "ADMIN"
      },
      "cancelRequestActiveNFT(uint256)": {
        "notice": "USER"
      },
      "requestActiveNFT(uint256,uint256)": {
        "notice": "USER"
      }
    },
    "version": 1
  }
}