{
  "contractName": "Art",
  "abi": [
    {
      "inputs": [
        {
          "internalType": "string",
          "name": "name",
          "type": "string"
        },
        {
          "internalType": "string",
          "name": "symbol",
          "type": "string"
        }
      ],
      "stateMutability": "nonpayable",
      "type": "constructor"
    },
    {
      "anonymous": false,
      "inputs": [
        {
          "indexed": true,
          "internalType": "address",
          "name": "owner",
          "type": "address"
        },
        {
          "indexed": true,
          "internalType": "address",
          "name": "approved",
          "type": "address"
        },
        {
          "indexed": true,
          "internalType": "uint256",
          "name": "tokenId",
          "type": "uint256"
        }
      ],
      "name": "Approval",
      "type": "event"
    },
    {
      "anonymous": false,
      "inputs": [
        {
          "indexed": true,
          "internalType": "address",
          "name": "owner",
          "type": "address"
        },
        {
          "indexed": true,
          "internalType": "address",
          "name": "operator",
          "type": "address"
        },
        {
          "indexed": false,
          "internalType": "bool",
          "name": "approved",
          "type": "bool"
        }
      ],
      "name": "ApprovalForAll",
      "type": "event"
    },
    {
      "anonymous": false,
      "inputs": [
        {
          "indexed": true,
          "internalType": "address",
          "name": "previousOwner",
          "type": "address"
        },
        {
          "indexed": true,
          "internalType": "address",
          "name": "newOwner",
          "type": "address"
        }
      ],
      "name": "OwnershipTransferred",
      "type": "event"
    },
    {
      "anonymous": false,
      "inputs": [
        {
          "indexed": true,
          "internalType": "address",
          "name": "from",
          "type": "address"
        },
        {
          "indexed": true,
          "internalType": "address",
          "name": "to",
          "type": "address"
        },
        {
          "indexed": true,
          "internalType": "uint256",
          "name": "tokenId",
          "type": "uint256"
        }
      ],
      "name": "Transfer",
      "type": "event"
    },
    {
      "inputs": [
        {
          "internalType": "address",
          "name": "to",
          "type": "address"
        },
        {
          "internalType": "uint256",
          "name": "tokenId",
          "type": "uint256"
        }
      ],
      "name": "approve",
      "outputs": [],
      "stateMutability": "nonpayable",
      "type": "function"
    },
    {
      "inputs": [
        {
          "internalType": "address",
          "name": "owner",
          "type": "address"
        }
      ],
      "name": "balanceOf",
      "outputs": [
        {
          "internalType": "uint256",
          "name": "",
          "type": "uint256"
        }
      ],
      "stateMutability": "view",
      "type": "function"
    },
    {
      "inputs": [
        {
          "internalType": "string",
          "name": "",
          "type": "string"
        }
      ],
      "name": "existed",
      "outputs": [
        {
          "internalType": "bool",
          "name": "",
          "type": "bool"
        }
      ],
      "stateMutability": "view",
      "type": "function"
    },
    {
      "inputs": [
        {
          "internalType": "uint256",
          "name": "tokenId",
          "type": "uint256"
        }
      ],
      "name": "getApproved",
      "outputs": [
        {
          "internalType": "address",
          "name": "",
          "type": "address"
        }
      ],
      "stateMutability": "view",
      "type": "function"
    },
    {
      "inputs": [
        {
          "internalType": "address",
          "name": "owner",
          "type": "address"
        },
        {
          "internalType": "address",
          "name": "operator",
          "type": "address"
        }
      ],
      "name": "isApprovedForAll",
      "outputs": [
        {
          "internalType": "bool",
          "name": "",
          "type": "bool"
        }
      ],
      "stateMutability": "view",
      "type": "function"
    },
    {
      "inputs": [],
      "name": "name",
      "outputs": [
        {
          "internalType": "string",
          "name": "",
          "type": "string"
        }
      ],
      "stateMutability": "view",
      "type": "function"
    },
    {
      "inputs": [],
      "name": "owner",
      "outputs": [
        {
          "internalType": "address",
          "name": "",
          "type": "address"
        }
      ],
      "stateMutability": "view",
      "type": "function"
    },
    {
      "inputs": [
        {
          "internalType": "uint256",
          "name": "tokenId",
          "type": "uint256"
        }
      ],
      "name": "ownerOf",
      "outputs": [
        {
          "internalType": "address",
          "name": "",
          "type": "address"
        }
      ],
      "stateMutability": "view",
      "type": "function"
    },
    {
      "inputs": [
        {
          "internalType": "address",
          "name": "",
          "type": "address"
        },
        {
          "internalType": "uint256",
          "name": "",
          "type": "uint256"
        }
      ],
      "name": "ownerToTokenId",
      "outputs": [
        {
          "internalType": "uint256",
          "name": "",
          "type": "uint256"
        }
      ],
      "stateMutability": "view",
      "type": "function"
    },
    {
      "inputs": [],
      "name": "renounceOwnership",
      "outputs": [],
      "stateMutability": "nonpayable",
      "type": "function"
    },
    {
      "inputs": [
        {
          "internalType": "address",
          "name": "from",
          "type": "address"
        },
        {
          "internalType": "address",
          "name": "to",
          "type": "address"
        },
        {
          "internalType": "uint256",
          "name": "tokenId",
          "type": "uint256"
        }
      ],
      "name": "safeTransferFrom",
      "outputs": [],
      "stateMutability": "nonpayable",
      "type": "function"
    },
    {
      "inputs": [
        {
          "internalType": "address",
          "name": "from",
          "type": "address"
        },
        {
          "internalType": "address",
          "name": "to",
          "type": "address"
        },
        {
          "internalType": "uint256",
          "name": "tokenId",
          "type": "uint256"
        },
        {
          "internalType": "bytes",
          "name": "_data",
          "type": "bytes"
        }
      ],
      "name": "safeTransferFrom",
      "outputs": [],
      "stateMutability": "nonpayable",
      "type": "function"
    },
    {
      "inputs": [
        {
          "internalType": "address",
          "name": "operator",
          "type": "address"
        },
        {
          "internalType": "bool",
          "name": "approved",
          "type": "bool"
        }
      ],
      "name": "setApprovalForAll",
      "outputs": [],
      "stateMutability": "nonpayable",
      "type": "function"
    },
    {
      "inputs": [
        {
          "internalType": "bytes4",
          "name": "interfaceId",
          "type": "bytes4"
        }
      ],
      "name": "supportsInterface",
      "outputs": [
        {
          "internalType": "bool",
          "name": "",
          "type": "bool"
        }
      ],
      "stateMutability": "view",
      "type": "function"
    },
    {
      "inputs": [],
      "name": "symbol",
      "outputs": [
        {
          "internalType": "string",
          "name": "",
          "type": "string"
        }
      ],
      "stateMutability": "view",
      "type": "function"
    },
    {
      "inputs": [
        {
          "internalType": "uint256",
          "name": "tokenId",
          "type": "uint256"
        }
      ],
      "name": "tokenURI",
      "outputs": [
        {
          "internalType": "string",
          "name": "",
          "type": "string"
        }
      ],
      "stateMutability": "view",
      "type": "function"
    },
    {
      "inputs": [],
      "name": "totalSuply",
      "outputs": [
        {
          "internalType": "uint256",
          "name": "",
          "type": "uint256"
        }
      ],
      "stateMutability": "view",
      "type": "function"
    },
    {
      "inputs": [
        {
          "internalType": "address",
          "name": "from",
          "type": "address"
        },
        {
          "internalType": "address",
          "name": "to",
          "type": "address"
        },
        {
          "internalType": "uint256",
          "name": "tokenId",
          "type": "uint256"
        }
      ],
      "name": "transferFrom",
      "outputs": [],
      "stateMutability": "nonpayable",
      "type": "function"
    },
    {
      "inputs": [
        {
          "internalType": "address",
          "name": "newOwner",
          "type": "address"
        }
      ],
      "name": "transferOwnership",
      "outputs": [],
      "stateMutability": "nonpayable",
      "type": "function"
    },
    {
      "inputs": [
        {
          "internalType": "address",
          "name": "_to",
          "type": "address"
        },
        {
          "internalType": "string",
          "name": "_hash",
          "type": "string"
        }
      ],
      "name": "createNewNFT",
      "outputs": [
        {
          "internalType": "uint256",
          "name": "",
          "type": "uint256"
        }
      ],
      "stateMutability": "nonpayable",
      "type": "function"
    },
    {
      "inputs": [
        {
          "internalType": "address",
          "name": "_to",
          "type": "address"
        },
        {
          "internalType": "uint256",
          "name": "_tokenId",
          "type": "uint256"
        }
      ],
      "name": "setOwnerToTokenId",
      "outputs": [],
      "stateMutability": "nonpayable",
      "type": "function"
    },
    {
      "inputs": [
        {
          "internalType": "address",
          "name": "_owner",
          "type": "address"
        }
      ],
      "name": "getTokenList",
      "outputs": [
        {
          "internalType": "uint256[]",
          "name": "",
          "type": "uint256[]"
        }
      ],
      "stateMutability": "view",
      "type": "function"
    }
  ],
  "bytecode": "0x60806040523480156200001157600080fd5b5060405162003be638038062003be68339818101604052810190620000379190620003b0565b818181600090805190602001906200005192919062000163565b5080600190805190602001906200006a92919062000163565b5050506200008d620000816200009560201b60201c565b6200009d60201b60201c565b50506200049a565b600033905090565b6000600760009054906101000a900473ffffffffffffffffffffffffffffffffffffffff16905081600760006101000a81548173ffffffffffffffffffffffffffffffffffffffff021916908373ffffffffffffffffffffffffffffffffffffffff1602179055508173ffffffffffffffffffffffffffffffffffffffff168173ffffffffffffffffffffffffffffffffffffffff167f8be0079c531659141344cd1fd0a4f28419497f9722a3daafe3b4186f6b6457e060405160405180910390a35050565b828054620001719062000464565b90600052602060002090601f016020900481019282620001955760008555620001e1565b82601f10620001b057805160ff1916838001178555620001e1565b82800160010185558215620001e1579182015b82811115620001e0578251825591602001919060010190620001c3565b5b509050620001f09190620001f4565b5090565b5b808211156200020f576000816000905550600101620001f5565b5090565b6000604051905090565b600080fd5b600080fd5b600080fd5b600080fd5b6000601f19601f8301169050919050565b7f4e487b7100000000000000000000000000000000000000000000000000000000600052604160045260246000fd5b6200027c8262000231565b810181811067ffffffffffffffff821117156200029e576200029d62000242565b5b80604052505050565b6000620002b362000213565b9050620002c1828262000271565b919050565b600067ffffffffffffffff821115620002e457620002e362000242565b5b620002ef8262000231565b9050602081019050919050565b60005b838110156200031c578082015181840152602081019050620002ff565b838111156200032c576000848401525b50505050565b6000620003496200034384620002c6565b620002a7565b9050828152602081018484840111156200036857620003676200022c565b5b62000375848285620002fc565b509392505050565b600082601f83011262000395576200039462000227565b5b8151620003a784826020860162000332565b91505092915050565b60008060408385031215620003ca57620003c96200021d565b5b600083015167ffffffffffffffff811115620003eb57620003ea62000222565b5b620003f9858286016200037d565b925050602083015167ffffffffffffffff8111156200041d576200041c62000222565b5b6200042b858286016200037d565b9150509250929050565b7f4e487b7100000000000000000000000000000000000000000000000000000000600052602260045260246000fd5b600060028204905060018216806200047d57607f821691505b6020821081141562000494576200049362000435565b5b50919050565b61373c80620004aa6000396000f3fe608060405234801561001057600080fd5b50600436106101425760003560e01c806395d89b41116100b8578063c87b56dd1161007c578063c87b56dd14610375578063d78dd96b146103a5578063d8a30732146103c1578063e985e9c5146103f1578063f2fde38b14610421578063f31dfbee1461043d57610142565b806395d89b41146102d1578063a22cb465146102ef578063a2a967991461030b578063b88d4fde14610329578063c7bde51e1461034557610142565b806342842e0e1161010a57806342842e0e146101fd5780636352211e1461021957806370a0823114610249578063715018a6146102795780637cf87f9d146102835780638da5cb5b146102b357610142565b806301ffc9a71461014757806306fdde0314610177578063081812fc14610195578063095ea7b3146101c557806323b872dd146101e1575b600080fd5b610161600480360381019061015c91906121f4565b61046d565b60405161016e919061223c565b60405180910390f35b61017f61054f565b60405161018c91906122f0565b60405180910390f35b6101af60048036038101906101aa9190612348565b6105e1565b6040516101bc91906123b6565b60405180910390f35b6101df60048036038101906101da91906123fd565b610666565b005b6101fb60048036038101906101f6919061243d565b61077e565b005b6102176004803603810190610212919061243d565b6107de565b005b610233600480360381019061022e9190612348565b6107fe565b60405161024091906123b6565b60405180910390f35b610263600480360381019061025e9190612490565b6108b0565b60405161027091906124cc565b60405180910390f35b610281610968565b005b61029d6004803603810190610298919061261c565b6109f0565b6040516102aa91906124cc565b60405180910390f35b6102bb610bc5565b6040516102c891906123b6565b60405180910390f35b6102d9610bef565b6040516102e691906122f0565b60405180910390f35b610309600480360381019061030491906126a4565b610c81565b005b610313610c97565b60405161032091906124cc565b60405180910390f35b610343600480360381019061033e9190612785565b610c9d565b005b61035f600480360381019061035a91906123fd565b610cff565b60405161036c91906124cc565b60405180910390f35b61038f600480360381019061038a9190612348565b610d30565b60405161039c91906122f0565b60405180910390f35b6103bf60048036038101906103ba91906123fd565b610e82565b005b6103db60048036038101906103d69190612490565b610f68565b6040516103e891906128c6565b60405180910390f35b61040b600480360381019061040691906128e8565b61114c565b604051610418919061223c565b60405180910390f35b61043b60048036038101906104369190612490565b6111e0565b005b61045760048036038101906104529190612928565b6112d8565b604051610464919061223c565b60405180910390f35b60007f80ac58cd000000000000000000000000000000000000000000000000000000007bffffffffffffffffffffffffffffffffffffffffffffffffffffffff1916827bffffffffffffffffffffffffffffffffffffffffffffffffffffffff1916148061053857507f5b5e139f000000000000000000000000000000000000000000000000000000007bffffffffffffffffffffffffffffffffffffffffffffffffffffffff1916827bffffffffffffffffffffffffffffffffffffffffffffffffffffffff1916145b8061054857506105478261130e565b5b9050919050565b60606000805461055e906129a0565b80601f016020809104026020016040519081016040528092919081815260200182805461058a906129a0565b80156105d75780601f106105ac576101008083540402835291602001916105d7565b820191906000526020600020905b8154815290600101906020018083116105ba57829003601f168201915b5050505050905090565b60006105ec82611378565b61062b576040517f08c379a000000000000000000000000000000000000000000000000000000000815260040161062290612a44565b60405180910390fd5b6004600083815260200190815260200160002060009054906101000a900473ffffffffffffffffffffffffffffffffffffffff169050919050565b6000610671826107fe565b90508073ffffffffffffffffffffffffffffffffffffffff168373ffffffffffffffffffffffffffffffffffffffff1614156106e2576040517f08c379a00000000000000000000000000000000000000000000000000000000081526004016106d990612ad6565b60405180910390fd5b8073ffffffffffffffffffffffffffffffffffffffff166107016113e4565b73ffffffffffffffffffffffffffffffffffffffff161480610730575061072f8161072a6113e4565b61114c565b5b61076f576040517f08c379a000000000000000000000000000000000000000000000000000000000815260040161076690612b68565b60405180910390fd5b61077983836113ec565b505050565b61078f6107896113e4565b826114a5565b6107ce576040517f08c379a00000000000000000000000000000000000000000000000000000000081526004016107c590612bfa565b60405180910390fd5b6107d9838383611583565b505050565b6107f983838360405180602001604052806000815250610c9d565b505050565b6000806002600084815260200190815260200160002060009054906101000a900473ffffffffffffffffffffffffffffffffffffffff169050600073ffffffffffffffffffffffffffffffffffffffff168173ffffffffffffffffffffffffffffffffffffffff1614156108a7576040517f08c379a000000000000000000000000000000000000000000000000000000000815260040161089e90612c8c565b60405180910390fd5b80915050919050565b60008073ffffffffffffffffffffffffffffffffffffffff168273ffffffffffffffffffffffffffffffffffffffff161415610921576040517f08c379a000000000000000000000000000000000000000000000000000000000815260040161091890612d1e565b60405180910390fd5b600360008373ffffffffffffffffffffffffffffffffffffffff1673ffffffffffffffffffffffffffffffffffffffff168152602001908152602001600020549050919050565b6109706113e4565b73ffffffffffffffffffffffffffffffffffffffff1661098e610bc5565b73ffffffffffffffffffffffffffffffffffffffff16146109e4576040517f08c379a00000000000000000000000000000000000000000000000000000000081526004016109db90612d8a565b60405180910390fd5b6109ee60006117ea565b565b60006109fa6113e4565b73ffffffffffffffffffffffffffffffffffffffff16610a18610bc5565b73ffffffffffffffffffffffffffffffffffffffff1614610a6e576040517f08c379a0000000000000000000000000000000000000000000000000000000008152600401610a6590612d8a565b60405180910390fd5b600a82604051610a7e9190612de6565b908152602001604051809103902060009054906101000a900460ff1615610ada576040517f08c379a0000000000000000000000000000000000000000000000000000000008152600401610ad190612e49565b60405180910390fd5b610ae460096118b0565b6000610af060096118c6565b90506001600a84604051610b049190612de6565b908152602001604051809103902060006101000a81548160ff021916908315150217905550600b60008573ffffffffffffffffffffffffffffffffffffffff1673ffffffffffffffffffffffffffffffffffffffff168152602001908152602001600020819080600181540180825580915050600190039060005260206000200160009091909190915055610b9984826118d4565b610ba38184611aae565b60086000815480929190610bb690612e98565b91905055508091505092915050565b6000600760009054906101000a900473ffffffffffffffffffffffffffffffffffffffff16905090565b606060018054610bfe906129a0565b80601f0160208091040260200160405190810160405280929190818152602001828054610c2a906129a0565b8015610c775780601f10610c4c57610100808354040283529160200191610c77565b820191906000526020600020905b815481529060010190602001808311610c5a57829003601f168201915b5050505050905090565b610c93610c8c6113e4565b8383611b22565b5050565b60085481565b610cae610ca86113e4565b836114a5565b610ced576040517f08c379a0000000000000000000000000000000000000000000000000000000008152600401610ce490612bfa565b60405180910390fd5b610cf984848484611c8f565b50505050565b600b6020528160005260406000208181548110610d1b57600080fd5b90600052602060002001600091509150505481565b6060610d3b82611378565b610d7a576040517f08c379a0000000000000000000000000000000000000000000000000000000008152600401610d7190612f53565b60405180910390fd5b6000600660008481526020019081526020016000208054610d9a906129a0565b80601f0160208091040260200160405190810160405280929190818152602001828054610dc6906129a0565b8015610e135780601f10610de857610100808354040283529160200191610e13565b820191906000526020600020905b815481529060010190602001808311610df657829003601f168201915b505050505090506000610e24611ceb565b9050600081511415610e3a578192505050610e7d565b600082511115610e6f578082604051602001610e57929190612f73565b60405160208183030381529060405292505050610e7d565b610e7884611d28565b925050505b919050565b610e8a6113e4565b73ffffffffffffffffffffffffffffffffffffffff16610ea8610bc5565b73ffffffffffffffffffffffffffffffffffffffff1614610efe576040517f08c379a0000000000000000000000000000000000000000000000000000000008152600401610ef590612d8a565b60405180910390fd5b600b60008373ffffffffffffffffffffffffffffffffffffffff1673ffffffffffffffffffffffffffffffffffffffff1681526020019081526020016000208190806001815401808255809150506001900390600052602060002001600090919091909150555050565b60606000610f75836108b0565b67ffffffffffffffff811115610f8e57610f8d6124f1565b5b604051908082528060200260200182016040528015610fbc5781602001602082028036833780820191505090505b5090506000805b600b60008673ffffffffffffffffffffffffffffffffffffffff1673ffffffffffffffffffffffffffffffffffffffff16815260200190815260200160002080549050811015611141578473ffffffffffffffffffffffffffffffffffffffff16611088600b60008873ffffffffffffffffffffffffffffffffffffffff1673ffffffffffffffffffffffffffffffffffffffff168152602001908152602001600020838154811061107857611077612f97565b5b90600052602060002001546107fe565b73ffffffffffffffffffffffffffffffffffffffff16141561112e57600b60008673ffffffffffffffffffffffffffffffffffffffff1673ffffffffffffffffffffffffffffffffffffffff16815260200190815260200160002081815481106110f5576110f4612f97565b5b906000526020600020015483838151811061111357611112612f97565b5b602002602001018181525050818061112a90612e98565b9250505b808061113990612e98565b915050610fc3565b508192505050919050565b6000600560008473ffffffffffffffffffffffffffffffffffffffff1673ffffffffffffffffffffffffffffffffffffffff16815260200190815260200160002060008373ffffffffffffffffffffffffffffffffffffffff1673ffffffffffffffffffffffffffffffffffffffff16815260200190815260200160002060009054906101000a900460ff16905092915050565b6111e86113e4565b73ffffffffffffffffffffffffffffffffffffffff16611206610bc5565b73ffffffffffffffffffffffffffffffffffffffff161461125c576040517f08c379a000000000000000000000000000000000000000000000000000000000815260040161125390612d8a565b60405180910390fd5b600073ffffffffffffffffffffffffffffffffffffffff168173ffffffffffffffffffffffffffffffffffffffff1614156112cc576040517f08c379a00000000000000000000000000000000000000000000000000000000081526004016112c390613038565b60405180910390fd5b6112d5816117ea565b50565b600a818051602081018201805184825260208301602085012081835280955050505050506000915054906101000a900460ff1681565b60007f01ffc9a7000000000000000000000000000000000000000000000000000000007bffffffffffffffffffffffffffffffffffffffffffffffffffffffff1916827bffffffffffffffffffffffffffffffffffffffffffffffffffffffff1916149050919050565b60008073ffffffffffffffffffffffffffffffffffffffff166002600084815260200190815260200160002060009054906101000a900473ffffffffffffffffffffffffffffffffffffffff1673ffffffffffffffffffffffffffffffffffffffff1614159050919050565b600033905090565b816004600083815260200190815260200160002060006101000a81548173ffffffffffffffffffffffffffffffffffffffff021916908373ffffffffffffffffffffffffffffffffffffffff160217905550808273ffffffffffffffffffffffffffffffffffffffff1661145f836107fe565b73ffffffffffffffffffffffffffffffffffffffff167f8c5be1e5ebec7d5bd14f71427d1e84f3dd0314c0f7b2291e5b200ac8c7c3b92560405160405180910390a45050565b60006114b082611378565b6114ef576040517f08c379a00000000000000000000000000000000000000000000000000000000081526004016114e6906130ca565b60405180910390fd5b60006114fa836107fe565b90508073ffffffffffffffffffffffffffffffffffffffff168473ffffffffffffffffffffffffffffffffffffffff16148061156957508373ffffffffffffffffffffffffffffffffffffffff16611551846105e1565b73ffffffffffffffffffffffffffffffffffffffff16145b8061157a5750611579818561114c565b5b91505092915050565b8273ffffffffffffffffffffffffffffffffffffffff166115a3826107fe565b73ffffffffffffffffffffffffffffffffffffffff16146115f9576040517f08c379a00000000000000000000000000000000000000000000000000000000081526004016115f09061315c565b60405180910390fd5b600073ffffffffffffffffffffffffffffffffffffffff168273ffffffffffffffffffffffffffffffffffffffff161415611669576040517f08c379a0000000000000000000000000000000000000000000000000000000008152600401611660906131ee565b60405180910390fd5b611674838383611dcf565b61167f6000826113ec565b6001600360008573ffffffffffffffffffffffffffffffffffffffff1673ffffffffffffffffffffffffffffffffffffffff16815260200190815260200160002060008282546116cf919061320e565b925050819055506001600360008473ffffffffffffffffffffffffffffffffffffffff1673ffffffffffffffffffffffffffffffffffffffff16815260200190815260200160002060008282546117269190613242565b92505081905550816002600083815260200190815260200160002060006101000a81548173ffffffffffffffffffffffffffffffffffffffff021916908373ffffffffffffffffffffffffffffffffffffffff160217905550808273ffffffffffffffffffffffffffffffffffffffff168473ffffffffffffffffffffffffffffffffffffffff167fddf252ad1be2c89b69c2b068fc378daa952ba7f163c4a11628f55a4df523b3ef60405160405180910390a46117e5838383611dd4565b505050565b6000600760009054906101000a900473ffffffffffffffffffffffffffffffffffffffff16905081600760006101000a81548173ffffffffffffffffffffffffffffffffffffffff021916908373ffffffffffffffffffffffffffffffffffffffff1602179055508173ffffffffffffffffffffffffffffffffffffffff168173ffffffffffffffffffffffffffffffffffffffff167f8be0079c531659141344cd1fd0a4f28419497f9722a3daafe3b4186f6b6457e060405160405180910390a35050565b6001816000016000828254019250508190555050565b600081600001549050919050565b600073ffffffffffffffffffffffffffffffffffffffff168273ffffffffffffffffffffffffffffffffffffffff161415611944576040517f08c379a000000000000000000000000000000000000000000000000000000000815260040161193b906132e4565b60405180910390fd5b61194d81611378565b1561198d576040517f08c379a000000000000000000000000000000000000000000000000000000000815260040161198490613350565b60405180910390fd5b61199960008383611dcf565b6001600360008473ffffffffffffffffffffffffffffffffffffffff1673ffffffffffffffffffffffffffffffffffffffff16815260200190815260200160002060008282546119e99190613242565b92505081905550816002600083815260200190815260200160002060006101000a81548173ffffffffffffffffffffffffffffffffffffffff021916908373ffffffffffffffffffffffffffffffffffffffff160217905550808273ffffffffffffffffffffffffffffffffffffffff16600073ffffffffffffffffffffffffffffffffffffffff167fddf252ad1be2c89b69c2b068fc378daa952ba7f163c4a11628f55a4df523b3ef60405160405180910390a4611aaa60008383611dd4565b5050565b611ab782611378565b611af6576040517f08c379a0000000000000000000000000000000000000000000000000000000008152600401611aed906133e2565b60405180910390fd5b80600660008481526020019081526020016000209080519060200190611b1d9291906120e5565b505050565b8173ffffffffffffffffffffffffffffffffffffffff168373ffffffffffffffffffffffffffffffffffffffff161415611b91576040517f08c379a0000000000000000000000000000000000000000000000000000000008152600401611b889061344e565b60405180910390fd5b80600560008573ffffffffffffffffffffffffffffffffffffffff1673ffffffffffffffffffffffffffffffffffffffff16815260200190815260200160002060008473ffffffffffffffffffffffffffffffffffffffff1673ffffffffffffffffffffffffffffffffffffffff16815260200190815260200160002060006101000a81548160ff0219169083151502179055508173ffffffffffffffffffffffffffffffffffffffff168373ffffffffffffffffffffffffffffffffffffffff167f17307eab39ab6107e8899845ad3d59bd9653f200f220920489ca2b5937696c3183604051611c82919061223c565b60405180910390a3505050565b611c9a848484611583565b611ca684848484611dd9565b611ce5576040517f08c379a0000000000000000000000000000000000000000000000000000000008152600401611cdc906134e0565b60405180910390fd5b50505050565b60606040518060400160405280601581526020017f68747470733a2f2f697066732e696f2f697066732f0000000000000000000000815250905090565b6060611d3382611378565b611d72576040517f08c379a0000000000000000000000000000000000000000000000000000000008152600401611d6990613572565b60405180910390fd5b6000611d7c611ceb565b90506000815111611d9c5760405180602001604052806000815250611dc7565b80611da684611f61565b604051602001611db7929190612f73565b6040516020818303038152906040525b915050919050565b505050565b505050565b6000611dfa8473ffffffffffffffffffffffffffffffffffffffff166120c2565b15611f54578373ffffffffffffffffffffffffffffffffffffffff1663150b7a02611e236113e4565b8786866040518563ffffffff1660e01b8152600401611e4594939291906135e7565b6020604051808303816000875af1925050508015611e8157506040513d601f19601f82011682018060405250810190611e7e9190613648565b60015b611f04573d8060008114611eb1576040519150601f19603f3d011682016040523d82523d6000602084013e611eb6565b606091505b50600081511415611efc576040517f08c379a0000000000000000000000000000000000000000000000000000000008152600401611ef3906134e0565b60405180910390fd5b805181602001fd5b63150b7a0260e01b7bffffffffffffffffffffffffffffffffffffffffffffffffffffffff1916817bffffffffffffffffffffffffffffffffffffffffffffffffffffffff191614915050611f59565b600190505b949350505050565b60606000821415611fa9576040518060400160405280600181526020017f300000000000000000000000000000000000000000000000000000000000000081525090506120bd565b600082905060005b60008214611fdb578080611fc490612e98565b915050600a82611fd491906136a4565b9150611fb1565b60008167ffffffffffffffff811115611ff757611ff66124f1565b5b6040519080825280601f01601f1916602001820160405280156120295781602001600182028036833780820191505090505b5090505b600085146120b657600182612042919061320e565b9150600a8561205191906136d5565b603061205d9190613242565b60f81b81838151811061207357612072612f97565b5b60200101907effffffffffffffffffffffffffffffffffffffffffffffffffffffffffffff1916908160001a905350600a856120af91906136a4565b945061202d565b8093505050505b919050565b6000808273ffffffffffffffffffffffffffffffffffffffff163b119050919050565b8280546120f1906129a0565b90600052602060002090601f016020900481019282612113576000855561215a565b82601f1061212c57805160ff191683800117855561215a565b8280016001018555821561215a579182015b8281111561215957825182559160200191906001019061213e565b5b509050612167919061216b565b5090565b5b8082111561218457600081600090555060010161216c565b5090565b6000604051905090565b600080fd5b600080fd5b60007fffffffff0000000000000000000000000000000000000000000000000000000082169050919050565b6121d18161219c565b81146121dc57600080fd5b50565b6000813590506121ee816121c8565b92915050565b60006020828403121561220a57612209612192565b5b6000612218848285016121df565b91505092915050565b60008115159050919050565b61223681612221565b82525050565b6000602082019050612251600083018461222d565b92915050565b600081519050919050565b600082825260208201905092915050565b60005b83811015612291578082015181840152602081019050612276565b838111156122a0576000848401525b50505050565b6000601f19601f8301169050919050565b60006122c282612257565b6122cc8185612262565b93506122dc818560208601612273565b6122e5816122a6565b840191505092915050565b6000602082019050818103600083015261230a81846122b7565b905092915050565b6000819050919050565b61232581612312565b811461233057600080fd5b50565b6000813590506123428161231c565b92915050565b60006020828403121561235e5761235d612192565b5b600061236c84828501612333565b91505092915050565b600073ffffffffffffffffffffffffffffffffffffffff82169050919050565b60006123a082612375565b9050919050565b6123b081612395565b82525050565b60006020820190506123cb60008301846123a7565b92915050565b6123da81612395565b81146123e557600080fd5b50565b6000813590506123f7816123d1565b92915050565b6000806040838503121561241457612413612192565b5b6000612422858286016123e8565b925050602061243385828601612333565b9150509250929050565b60008060006060848603121561245657612455612192565b5b6000612464868287016123e8565b9350506020612475868287016123e8565b925050604061248686828701612333565b9150509250925092565b6000602082840312156124a6576124a5612192565b5b60006124b4848285016123e8565b91505092915050565b6124c681612312565b82525050565b60006020820190506124e160008301846124bd565b92915050565b600080fd5b600080fd5b7f4e487b7100000000000000000000000000000000000000000000000000000000600052604160045260246000fd5b612529826122a6565b810181811067ffffffffffffffff82111715612548576125476124f1565b5b80604052505050565b600061255b612188565b90506125678282612520565b919050565b600067ffffffffffffffff821115612587576125866124f1565b5b612590826122a6565b9050602081019050919050565b82818337600083830152505050565b60006125bf6125ba8461256c565b612551565b9050828152602081018484840111156125db576125da6124ec565b5b6125e684828561259d565b509392505050565b600082601f830112612603576126026124e7565b5b81356126138482602086016125ac565b91505092915050565b6000806040838503121561263357612632612192565b5b6000612641858286016123e8565b925050602083013567ffffffffffffffff81111561266257612661612197565b5b61266e858286016125ee565b9150509250929050565b61268181612221565b811461268c57600080fd5b50565b60008135905061269e81612678565b92915050565b600080604083850312156126bb576126ba612192565b5b60006126c9858286016123e8565b92505060206126da8582860161268f565b9150509250929050565b600067ffffffffffffffff8211156126ff576126fe6124f1565b5b612708826122a6565b9050602081019050919050565b6000612728612723846126e4565b612551565b905082815260208101848484011115612744576127436124ec565b5b61274f84828561259d565b509392505050565b600082601f83011261276c5761276b6124e7565b5b813561277c848260208601612715565b91505092915050565b6000806000806080858703121561279f5761279e612192565b5b60006127ad878288016123e8565b94505060206127be878288016123e8565b93505060406127cf87828801612333565b925050606085013567ffffffffffffffff8111156127f0576127ef612197565b5b6127fc87828801612757565b91505092959194509250565b600081519050919050565b600082825260208201905092915050565b6000819050602082019050919050565b61283d81612312565b82525050565b600061284f8383612834565b60208301905092915050565b6000602082019050919050565b600061287382612808565b61287d8185612813565b935061288883612824565b8060005b838110156128b95781516128a08882612843565b97506128ab8361285b565b92505060018101905061288c565b5085935050505092915050565b600060208201905081810360008301526128e08184612868565b905092915050565b600080604083850312156128ff576128fe612192565b5b600061290d858286016123e8565b925050602061291e858286016123e8565b9150509250929050565b60006020828403121561293e5761293d612192565b5b600082013567ffffffffffffffff81111561295c5761295b612197565b5b612968848285016125ee565b91505092915050565b7f4e487b7100000000000000000000000000000000000000000000000000000000600052602260045260246000fd5b600060028204905060018216806129b857607f821691505b602082108114156129cc576129cb612971565b5b50919050565b7f4552433732313a20617070726f76656420717565727920666f72206e6f6e657860008201527f697374656e7420746f6b656e0000000000000000000000000000000000000000602082015250565b6000612a2e602c83612262565b9150612a39826129d2565b604082019050919050565b60006020820190508181036000830152612a5d81612a21565b9050919050565b7f4552433732313a20617070726f76616c20746f2063757272656e74206f776e6560008201527f7200000000000000000000000000000000000000000000000000000000000000602082015250565b6000612ac0602183612262565b9150612acb82612a64565b604082019050919050565b60006020820190508181036000830152612aef81612ab3565b9050919050565b7f4552433732313a20617070726f76652063616c6c6572206973206e6f74206f7760008201527f6e6572206e6f7220617070726f76656420666f7220616c6c0000000000000000602082015250565b6000612b52603883612262565b9150612b5d82612af6565b604082019050919050565b60006020820190508181036000830152612b8181612b45565b9050919050565b7f4552433732313a207472616e736665722063616c6c6572206973206e6f74206f60008201527f776e6572206e6f7220617070726f766564000000000000000000000000000000602082015250565b6000612be4603183612262565b9150612bef82612b88565b604082019050919050565b60006020820190508181036000830152612c1381612bd7565b9050919050565b7f4552433732313a206f776e657220717565727920666f72206e6f6e657869737460008201527f656e7420746f6b656e0000000000000000000000000000000000000000000000602082015250565b6000612c76602983612262565b9150612c8182612c1a565b604082019050919050565b60006020820190508181036000830152612ca581612c69565b9050919050565b7f4552433732313a2062616c616e636520717565727920666f7220746865207a6560008201527f726f206164647265737300000000000000000000000000000000000000000000602082015250565b6000612d08602a83612262565b9150612d1382612cac565b604082019050919050565b60006020820190508181036000830152612d3781612cfb565b9050919050565b7f4f776e61626c653a2063616c6c6572206973206e6f7420746865206f776e6572600082015250565b6000612d74602083612262565b9150612d7f82612d3e565b602082019050919050565b60006020820190508181036000830152612da381612d67565b9050919050565b600081905092915050565b6000612dc082612257565b612dca8185612daa565b9350612dda818560208601612273565b80840191505092915050565b6000612df28284612db5565b915081905092915050565b7f4172743a204e4654206973206578697374656400000000000000000000000000600082015250565b6000612e33601383612262565b9150612e3e82612dfd565b602082019050919050565b60006020820190508181036000830152612e6281612e26565b9050919050565b7f4e487b7100000000000000000000000000000000000000000000000000000000600052601160045260246000fd5b6000612ea382612312565b91507fffffffffffffffffffffffffffffffffffffffffffffffffffffffffffffffff821415612ed657612ed5612e69565b5b600182019050919050565b7f45524337323155524953746f726167653a2055524920717565727920666f722060008201527f6e6f6e6578697374656e7420746f6b656e000000000000000000000000000000602082015250565b6000612f3d603183612262565b9150612f4882612ee1565b604082019050919050565b60006020820190508181036000830152612f6c81612f30565b9050919050565b6000612f7f8285612db5565b9150612f8b8284612db5565b91508190509392505050565b7f4e487b7100000000000000000000000000000000000000000000000000000000600052603260045260246000fd5b7f4f776e61626c653a206e6577206f776e657220697320746865207a65726f206160008201527f6464726573730000000000000000000000000000000000000000000000000000602082015250565b6000613022602683612262565b915061302d82612fc6565b604082019050919050565b6000602082019050818103600083015261305181613015565b9050919050565b7f4552433732313a206f70657261746f7220717565727920666f72206e6f6e657860008201527f697374656e7420746f6b656e0000000000000000000000000000000000000000602082015250565b60006130b4602c83612262565b91506130bf82613058565b604082019050919050565b600060208201905081810360008301526130e3816130a7565b9050919050565b7f4552433732313a207472616e736665722066726f6d20696e636f72726563742060008201527f6f776e6572000000000000000000000000000000000000000000000000000000602082015250565b6000613146602583612262565b9150613151826130ea565b604082019050919050565b6000602082019050818103600083015261317581613139565b9050919050565b7f4552433732313a207472616e7366657220746f20746865207a65726f2061646460008201527f7265737300000000000000000000000000000000000000000000000000000000602082015250565b60006131d8602483612262565b91506131e38261317c565b604082019050919050565b60006020820190508181036000830152613207816131cb565b9050919050565b600061321982612312565b915061322483612312565b92508282101561323757613236612e69565b5b828203905092915050565b600061324d82612312565b915061325883612312565b9250827fffffffffffffffffffffffffffffffffffffffffffffffffffffffffffffffff0382111561328d5761328c612e69565b5b828201905092915050565b7f4552433732313a206d696e7420746f20746865207a65726f2061646472657373600082015250565b60006132ce602083612262565b91506132d982613298565b602082019050919050565b600060208201905081810360008301526132fd816132c1565b9050919050565b7f4552433732313a20746f6b656e20616c7265616479206d696e74656400000000600082015250565b600061333a601c83612262565b915061334582613304565b602082019050919050565b600060208201905081810360008301526133698161332d565b9050919050565b7f45524337323155524953746f726167653a2055524920736574206f66206e6f6e60008201527f6578697374656e7420746f6b656e000000000000000000000000000000000000602082015250565b60006133cc602e83612262565b91506133d782613370565b604082019050919050565b600060208201905081810360008301526133fb816133bf565b9050919050565b7f4552433732313a20617070726f766520746f2063616c6c657200000000000000600082015250565b6000613438601983612262565b915061344382613402565b602082019050919050565b600060208201905081810360008301526134678161342b565b9050919050565b7f4552433732313a207472616e7366657220746f206e6f6e20455243373231526560008201527f63656976657220696d706c656d656e7465720000000000000000000000000000602082015250565b60006134ca603283612262565b91506134d58261346e565b604082019050919050565b600060208201905081810360008301526134f9816134bd565b9050919050565b7f4552433732314d657461646174613a2055524920717565727920666f72206e6f60008201527f6e6578697374656e7420746f6b656e0000000000000000000000000000000000602082015250565b600061355c602f83612262565b915061356782613500565b604082019050919050565b6000602082019050818103600083015261358b8161354f565b9050919050565b600081519050919050565b600082825260208201905092915050565b60006135b982613592565b6135c3818561359d565b93506135d3818560208601612273565b6135dc816122a6565b840191505092915050565b60006080820190506135fc60008301876123a7565b61360960208301866123a7565b61361660408301856124bd565b818103606083015261362881846135ae565b905095945050505050565b600081519050613642816121c8565b92915050565b60006020828403121561365e5761365d612192565b5b600061366c84828501613633565b91505092915050565b7f4e487b7100000000000000000000000000000000000000000000000000000000600052601260045260246000fd5b60006136af82612312565b91506136ba83612312565b9250826136ca576136c9613675565b5b828204905092915050565b60006136e082612312565b91506136eb83612312565b9250826136fb576136fa613675565b5b82820690509291505056fea2646970667358221220ac72bec004a1d7fba99177b9984adb3ca58cd9d92fa865e24e50b163e630732d64736f6c634300080c0033",
  "immutableReferences": {},
  "source": "// SPDX-License-Identifier: UNLICENSED\r\npragma solidity ^0.8.0;\r\n\r\nimport \"@openzeppelin/contracts/utils/Address.sol\";\r\nimport \"@openzeppelin/contracts/token/ERC721/extensions/ERC721URIStorage.sol\";\r\nimport \"@openzeppelin/contracts/access/Ownable.sol\";\r\nimport \"@openzeppelin/contracts/utils/Counters.sol\";\r\n\r\ncontract Art is ERC721URIStorage, Ownable {\r\n    using Counters for Counters.Counter;\r\n\r\n    uint256 public totalSuply;\r\n    Counters.Counter private _tokenIds;\r\n\r\n    mapping(string => bool) public existed;\r\n    mapping(address => uint256[]) public ownerToTokenId;\r\n\r\n    constructor(string memory name, string memory symbol)\r\n        ERC721(name, symbol)\r\n    {}\r\n\r\n    function createNewNFT(address _to, string memory _hash)\r\n        public\r\n        onlyOwner\r\n        returns (uint256)\r\n    {\r\n        require(!existed[_hash], \"Art: NFT is existed\");\r\n\r\n        _tokenIds.increment();\r\n        uint256 newItemId = _tokenIds.current();\r\n\r\n        existed[_hash] = true;\r\n        ownerToTokenId[_to].push(newItemId);\r\n\r\n        _mint(_to, newItemId);\r\n        _setTokenURI(newItemId, _hash);\r\n\r\n        totalSuply++;\r\n\r\n        return newItemId;\r\n    }\r\n\r\n    function setOwnerToTokenId(address _to, uint256 _tokenId) public onlyOwner {\r\n        ownerToTokenId[_to].push(_tokenId);\r\n    }\r\n\r\n    function _baseURI() internal pure override returns (string memory) {\r\n        return \"https://ipfs.io/ipfs/\";\r\n    }\r\n\r\n    function getTokenList(address _owner)\r\n        public\r\n        view\r\n        returns (uint256[] memory)\r\n    {\r\n        uint256[] memory arr = new uint256[](balanceOf(_owner));\r\n        uint256 index = 0;\r\n        for (uint256 i = 0; i < ownerToTokenId[_owner].length; i++) {\r\n            if (ownerOf(ownerToTokenId[_owner][i]) == _owner) {\r\n                arr[index] = ownerToTokenId[_owner][i];\r\n                index++;\r\n            }\r\n        }\r\n        return arr;\r\n    }\r\n}\r\n",
  "sourcePath": "E:\\KLTN\\KLTN-contracts\\KLTN-contracts\\contracts\\marketplace\\Art.sol",
  "compiler": {
    "name": "solc",
    "version": "0.8.12+commit.f00d7308.Emscripten.clang"
  },
  "schemaVersion": "3.4.3",
  "updatedAt": "2022-03-16T04:04:34.390Z",
  "devdoc": {
    "kind": "dev",
    "methods": {
      "approve(address,uint256)": {
        "details": "See {IERC721-approve}."
      },
      "balanceOf(address)": {
        "details": "See {IERC721-balanceOf}."
      },
      "getApproved(uint256)": {
        "details": "See {IERC721-getApproved}."
      },
      "isApprovedForAll(address,address)": {
        "details": "See {IERC721-isApprovedForAll}."
      },
      "name()": {
        "details": "See {IERC721Metadata-name}."
      },
      "owner()": {
        "details": "Returns the address of the current owner."
      },
      "ownerOf(uint256)": {
        "details": "See {IERC721-ownerOf}."
      },
      "renounceOwnership()": {
        "details": "Leaves the contract without owner. It will not be possible to call `onlyOwner` functions anymore. Can only be called by the current owner. NOTE: Renouncing ownership will leave the contract without an owner, thereby removing any functionality that is only available to the owner."
      },
      "safeTransferFrom(address,address,uint256)": {
        "details": "See {IERC721-safeTransferFrom}."
      },
      "safeTransferFrom(address,address,uint256,bytes)": {
        "details": "See {IERC721-safeTransferFrom}."
      },
      "setApprovalForAll(address,bool)": {
        "details": "See {IERC721-setApprovalForAll}."
      },
      "supportsInterface(bytes4)": {
        "details": "See {IERC165-supportsInterface}."
      },
      "symbol()": {
        "details": "See {IERC721Metadata-symbol}."
      },
      "tokenURI(uint256)": {
        "details": "See {IERC721Metadata-tokenURI}."
      },
      "transferFrom(address,address,uint256)": {
        "details": "See {IERC721-transferFrom}."
      },
      "transferOwnership(address)": {
        "details": "Transfers ownership of the contract to a new account (`newOwner`). Can only be called by the current owner."
      }
    },
    "version": 1
  },
  "userdoc": {
    "kind": "user",
    "methods": {},
    "version": 1
  }
}