{
  "contractName": "Factory",
  "abi": [
    {
      "inputs": [
        {
          "internalType": "address",
          "name": "mission",
          "type": "address"
        },
        {
          "internalType": "address",
          "name": "subject",
          "type": "address"
        },
        {
          "internalType": "address",
          "name": "scholarship",
          "type": "address"
        },
        {
          "internalType": "address",
          "name": "tuition",
          "type": "address"
        }
      ],
      "stateMutability": "nonpayable",
      "type": "constructor"
    },
    {
      "anonymous": false,
      "inputs": [
        {
          "indexed": true,
          "internalType": "address",
          "name": "previousOwner",
          "type": "address"
        },
        {
          "indexed": true,
          "internalType": "address",
          "name": "newOwner",
          "type": "address"
        }
      ],
      "name": "OwnershipTransferred",
      "type": "event"
    },
    {
      "inputs": [
        {
          "internalType": "enum IFactory.Object",
          "name": "",
          "type": "uint8"
        }
      ],
      "name": "object",
      "outputs": [
        {
          "internalType": "address",
          "name": "",
          "type": "address"
        }
      ],
      "stateMutability": "view",
      "type": "function",
      "constant": true
    },
    {
      "inputs": [],
      "name": "owner",
      "outputs": [
        {
          "internalType": "address",
          "name": "",
          "type": "address"
        }
      ],
      "stateMutability": "view",
      "type": "function",
      "constant": true
    },
    {
      "inputs": [],
      "name": "renounceOwnership",
      "outputs": [],
      "stateMutability": "nonpayable",
      "type": "function"
    },
    {
      "inputs": [
        {
          "internalType": "address",
          "name": "newOwner",
          "type": "address"
        }
      ],
      "name": "transferOwnership",
      "outputs": [],
      "stateMutability": "nonpayable",
      "type": "function"
    },
    {
      "inputs": [
        {
          "internalType": "address",
          "name": "mission",
          "type": "address"
        },
        {
          "internalType": "address",
          "name": "subject",
          "type": "address"
        },
        {
          "internalType": "address",
          "name": "scholarship",
          "type": "address"
        },
        {
          "internalType": "address",
          "name": "tuition",
          "type": "address"
        }
      ],
      "name": "setObject",
      "outputs": [],
      "stateMutability": "nonpayable",
      "type": "function"
    },
    {
      "inputs": [
        {
          "internalType": "enum IFactory.Object",
          "name": "_object",
          "type": "uint8"
        }
      ],
      "name": "getObject",
      "outputs": [
        {
          "internalType": "address",
          "name": "",
          "type": "address"
        }
      ],
      "stateMutability": "view",
      "type": "function",
      "constant": true
    },
    {
      "inputs": [
        {
          "internalType": "address",
          "name": "owner",
          "type": "address"
        },
        {
          "internalType": "address",
          "name": "accessControll",
          "type": "address"
        },
        {
          "internalType": "address",
          "name": "rewardDistributor",
          "type": "address"
        }
      ],
      "name": "createNewMission",
      "outputs": [
        {
          "internalType": "address",
          "name": "",
          "type": "address"
        }
      ],
      "stateMutability": "nonpayable",
      "type": "function"
    },
    {
      "inputs": [
        {
          "internalType": "address",
          "name": "owner",
          "type": "address"
        },
        {
          "internalType": "address",
          "name": "accessControll",
          "type": "address"
        }
      ],
      "name": "createNewSubject",
      "outputs": [
        {
          "internalType": "address",
          "name": "",
          "type": "address"
        }
      ],
      "stateMutability": "nonpayable",
      "type": "function"
    },
    {
      "inputs": [
        {
          "internalType": "address",
          "name": "owner",
          "type": "address"
        },
        {
          "internalType": "address",
          "name": "accessControll",
          "type": "address"
        },
        {
          "internalType": "address",
          "name": "rewardDistributor",
          "type": "address"
        }
      ],
      "name": "createNewScholarship",
      "outputs": [
        {
          "internalType": "address",
          "name": "",
          "type": "address"
        }
      ],
      "stateMutability": "nonpayable",
      "type": "function"
    },
    {
      "inputs": [
        {
          "internalType": "address",
          "name": "owner",
          "type": "address"
        },
        {
          "internalType": "address",
          "name": "accessControll",
          "type": "address"
        },
        {
          "internalType": "address",
          "name": "rewardDistributor",
          "type": "address"
        }
      ],
      "name": "createNewTuition",
      "outputs": [
        {
          "internalType": "address",
          "name": "",
          "type": "address"
        }
      ],
      "stateMutability": "nonpayable",
      "type": "function"
    }
  ],
  "bytecode": "0x60806040523480156200001157600080fd5b50604051620013cd380380620013cd833981810160405281019062000037919062000389565b620000576200004b6200025360201b60201c565b6200025b60201b60201c565b8360016000806003811115620000725762000071620003fb565b5b6003811115620000875762000086620003fb565b5b815260200190815260200160002060006101000a81548173ffffffffffffffffffffffffffffffffffffffff021916908373ffffffffffffffffffffffffffffffffffffffff160217905550826001600060016003811115620000ef57620000ee620003fb565b5b6003811115620001045762000103620003fb565b5b815260200190815260200160002060006101000a81548173ffffffffffffffffffffffffffffffffffffffff021916908373ffffffffffffffffffffffffffffffffffffffff1602179055508160016000600260038111156200016c576200016b620003fb565b5b6003811115620001815762000180620003fb565b5b815260200190815260200160002060006101000a81548173ffffffffffffffffffffffffffffffffffffffff021916908373ffffffffffffffffffffffffffffffffffffffff1602179055508060016000600380811115620001e857620001e7620003fb565b5b6003811115620001fd57620001fc620003fb565b5b815260200190815260200160002060006101000a81548173ffffffffffffffffffffffffffffffffffffffff021916908373ffffffffffffffffffffffffffffffffffffffff160217905550505050506200042a565b600033905090565b60008060009054906101000a900473ffffffffffffffffffffffffffffffffffffffff169050816000806101000a81548173ffffffffffffffffffffffffffffffffffffffff021916908373ffffffffffffffffffffffffffffffffffffffff1602179055508173ffffffffffffffffffffffffffffffffffffffff168173ffffffffffffffffffffffffffffffffffffffff167f8be0079c531659141344cd1fd0a4f28419497f9722a3daafe3b4186f6b6457e060405160405180910390a35050565b600080fd5b600073ffffffffffffffffffffffffffffffffffffffff82169050919050565b6000620003518262000324565b9050919050565b620003638162000344565b81146200036f57600080fd5b50565b600081519050620003838162000358565b92915050565b60008060008060808587031215620003a657620003a56200031f565b5b6000620003b68782880162000372565b9450506020620003c98782880162000372565b9350506040620003dc8782880162000372565b9250506060620003ef8782880162000372565b91505092959194509250565b7f4e487b7100000000000000000000000000000000000000000000000000000000600052602160045260246000fd5b610f93806200043a6000396000f3fe608060405234801561001057600080fd5b506004361061009e5760003560e01c80639cd5973d116100665780639cd5973d1461015b578063b928882e14610177578063c124178a146101a7578063e162fa77146101d7578063f2fde38b146102075761009e565b8063029c6785146100a35780630e8cac98146100d3578063378ac24514610103578063715018a6146101335780638da5cb5b1461013d575b600080fd5b6100bd60048036038101906100b89190610bda565b610223565b6040516100ca9190610c3c565b60405180910390f35b6100ed60048036038101906100e89190610c7c565b610305565b6040516100fa9190610c3c565b60405180910390f35b61011d60048036038101906101189190610bda565b610366565b60405161012a9190610c3c565b60405180910390f35b61013b610449565b005b6101456104d1565b6040516101529190610c3c565b60405180910390f35b61017560048036038101906101709190610ca9565b6104fa565b005b610191600480360381019061018c9190610d10565b6107bf565b60405161019e9190610c3c565b60405180910390f35b6101c160048036038101906101bc9190610c7c565b61089f565b6040516101ce9190610c3c565b60405180910390f35b6101f160048036038101906101ec9190610bda565b6108d2565b6040516101fe9190610c3c565b60405180910390f35b610221600480360381019061021c9190610d50565b6109b4565b005b60006001600060038081111561023c5761023b610d7d565b5b600381111561024e5761024d610d7d565b5b815260200190815260200160002060009054906101000a900473ffffffffffffffffffffffffffffffffffffffff1673ffffffffffffffffffffffffffffffffffffffff1663029c67858585856040518463ffffffff1660e01b81526004016102b993929190610dac565b6020604051808303816000875af11580156102d8573d6000803e3d6000fd5b505050506040513d601f19601f820116820180604052508101906102fc9190610df8565b90509392505050565b60006001600083600381111561031e5761031d610d7d565b5b60038111156103305761032f610d7d565b5b815260200190815260200160002060009054906101000a900473ffffffffffffffffffffffffffffffffffffffff169050919050565b600060016000600260038111156103805761037f610d7d565b5b600381111561039257610391610d7d565b5b815260200190815260200160002060009054906101000a900473ffffffffffffffffffffffffffffffffffffffff1673ffffffffffffffffffffffffffffffffffffffff1663378ac2458585856040518463ffffffff1660e01b81526004016103fd93929190610dac565b6020604051808303816000875af115801561041c573d6000803e3d6000fd5b505050506040513d601f19601f820116820180604052508101906104409190610df8565b90509392505050565b610451610aab565b73ffffffffffffffffffffffffffffffffffffffff1661046f6104d1565b73ffffffffffffffffffffffffffffffffffffffff16146104c5576040517f08c379a00000000000000000000000000000000000000000000000000000000081526004016104bc90610e82565b60405180910390fd5b6104cf6000610ab3565b565b60008060009054906101000a900473ffffffffffffffffffffffffffffffffffffffff16905090565b600073ffffffffffffffffffffffffffffffffffffffff168473ffffffffffffffffffffffffffffffffffffffff16141580156105645750600073ffffffffffffffffffffffffffffffffffffffff168373ffffffffffffffffffffffffffffffffffffffff1614155b801561059d5750600073ffffffffffffffffffffffffffffffffffffffff168273ffffffffffffffffffffffffffffffffffffffff1614155b80156105d65750600073ffffffffffffffffffffffffffffffffffffffff168173ffffffffffffffffffffffffffffffffffffffff1614155b6105df57600080fd5b83600160008060038111156105f7576105f6610d7d565b5b600381111561060957610608610d7d565b5b815260200190815260200160002060006101000a81548173ffffffffffffffffffffffffffffffffffffffff021916908373ffffffffffffffffffffffffffffffffffffffff16021790555082600160006001600381111561066e5761066d610d7d565b5b60038111156106805761067f610d7d565b5b815260200190815260200160002060006101000a81548173ffffffffffffffffffffffffffffffffffffffff021916908373ffffffffffffffffffffffffffffffffffffffff1602179055508160016000600260038111156106e5576106e4610d7d565b5b60038111156106f7576106f6610d7d565b5b815260200190815260200160002060006101000a81548173ffffffffffffffffffffffffffffffffffffffff021916908373ffffffffffffffffffffffffffffffffffffffff160217905550806001600060038081111561075b5761075a610d7d565b5b600381111561076d5761076c610d7d565b5b815260200190815260200160002060006101000a81548173ffffffffffffffffffffffffffffffffffffffff021916908373ffffffffffffffffffffffffffffffffffffffff16021790555050505050565b600060016000600160038111156107d9576107d8610d7d565b5b60038111156107eb576107ea610d7d565b5b815260200190815260200160002060009054906101000a900473ffffffffffffffffffffffffffffffffffffffff1673ffffffffffffffffffffffffffffffffffffffff166389d0bc1e84846040518363ffffffff1660e01b8152600401610854929190610ea2565b6020604051808303816000875af1158015610873573d6000803e3d6000fd5b505050506040513d601f19601f820116820180604052508101906108979190610df8565b905092915050565b60016020528060005260406000206000915054906101000a900473ffffffffffffffffffffffffffffffffffffffff1681565b6000600160008060038111156108eb576108ea610d7d565b5b60038111156108fd576108fc610d7d565b5b815260200190815260200160002060009054906101000a900473ffffffffffffffffffffffffffffffffffffffff1673ffffffffffffffffffffffffffffffffffffffff1663e162fa778585856040518463ffffffff1660e01b815260040161096893929190610dac565b6020604051808303816000875af1158015610987573d6000803e3d6000fd5b505050506040513d601f19601f820116820180604052508101906109ab9190610df8565b90509392505050565b6109bc610aab565b73ffffffffffffffffffffffffffffffffffffffff166109da6104d1565b73ffffffffffffffffffffffffffffffffffffffff1614610a30576040517f08c379a0000000000000000000000000000000000000000000000000000000008152600401610a2790610e82565b60405180910390fd5b600073ffffffffffffffffffffffffffffffffffffffff168173ffffffffffffffffffffffffffffffffffffffff1603610a9f576040517f08c379a0000000000000000000000000000000000000000000000000000000008152600401610a9690610f3d565b60405180910390fd5b610aa881610ab3565b50565b600033905090565b60008060009054906101000a900473ffffffffffffffffffffffffffffffffffffffff169050816000806101000a81548173ffffffffffffffffffffffffffffffffffffffff021916908373ffffffffffffffffffffffffffffffffffffffff1602179055508173ffffffffffffffffffffffffffffffffffffffff168173ffffffffffffffffffffffffffffffffffffffff167f8be0079c531659141344cd1fd0a4f28419497f9722a3daafe3b4186f6b6457e060405160405180910390a35050565b600080fd5b600073ffffffffffffffffffffffffffffffffffffffff82169050919050565b6000610ba782610b7c565b9050919050565b610bb781610b9c565b8114610bc257600080fd5b50565b600081359050610bd481610bae565b92915050565b600080600060608486031215610bf357610bf2610b77565b5b6000610c0186828701610bc5565b9350506020610c1286828701610bc5565b9250506040610c2386828701610bc5565b9150509250925092565b610c3681610b9c565b82525050565b6000602082019050610c516000830184610c2d565b92915050565b60048110610c6457600080fd5b50565b600081359050610c7681610c57565b92915050565b600060208284031215610c9257610c91610b77565b5b6000610ca084828501610c67565b91505092915050565b60008060008060808587031215610cc357610cc2610b77565b5b6000610cd187828801610bc5565b9450506020610ce287828801610bc5565b9350506040610cf387828801610bc5565b9250506060610d0487828801610bc5565b91505092959194509250565b60008060408385031215610d2757610d26610b77565b5b6000610d3585828601610bc5565b9250506020610d4685828601610bc5565b9150509250929050565b600060208284031215610d6657610d65610b77565b5b6000610d7484828501610bc5565b91505092915050565b7f4e487b7100000000000000000000000000000000000000000000000000000000600052602160045260246000fd5b6000606082019050610dc16000830186610c2d565b610dce6020830185610c2d565b610ddb6040830184610c2d565b949350505050565b600081519050610df281610bae565b92915050565b600060208284031215610e0e57610e0d610b77565b5b6000610e1c84828501610de3565b91505092915050565b600082825260208201905092915050565b7f4f776e61626c653a2063616c6c6572206973206e6f7420746865206f776e6572600082015250565b6000610e6c602083610e25565b9150610e7782610e36565b602082019050919050565b60006020820190508181036000830152610e9b81610e5f565b9050919050565b6000604082019050610eb76000830185610c2d565b610ec46020830184610c2d565b9392505050565b7f4f776e61626c653a206e6577206f776e657220697320746865207a65726f206160008201527f6464726573730000000000000000000000000000000000000000000000000000602082015250565b6000610f27602683610e25565b9150610f3282610ecb565b604082019050919050565b60006020820190508181036000830152610f5681610f1a565b905091905056fea2646970667358221220823440fbfda6ca3106893d315f33e032075999735b391bd77dff4f0116ee92e664736f6c634300080e0033",
  "immutableReferences": {},
  "source": "//SPDX-License-Identifier: UNLICENSED\r\npragma solidity ^0.8.0;\r\n\r\nimport \"@openzeppelin/contracts/access/Ownable.sol\";\r\nimport \"../interfaces/IMissionFactory.sol\";\r\nimport \"../interfaces/ISubjectFactory.sol\";\r\nimport \"../interfaces/IScholarshipFactory.sol\";\r\nimport \"../interfaces/ITuitionFactory.sol\";\r\nimport \"../interfaces/IFactory.sol\";\r\n\r\ncontract Factory is Ownable, IFactory {\r\n    mapping(Object => address) public object;\r\n\r\n    constructor(\r\n        address mission,\r\n        address subject,\r\n        address scholarship,\r\n        address tuition\r\n    ) {\r\n        object[Object.Mission] = mission;\r\n        object[Object.Subject] = subject;\r\n        object[Object.Scholarship] = scholarship;\r\n        object[Object.Tuition] = tuition;\r\n    }\r\n\r\n    function setObject(\r\n        address mission,\r\n        address subject,\r\n        address scholarship,\r\n        address tuition\r\n    ) external override {\r\n        require(\r\n            mission != address(0) &&\r\n                subject != address(0) &&\r\n                scholarship != address(0) &&\r\n                tuition != address(0)\r\n        );\r\n        object[Object.Mission] = mission;\r\n        object[Object.Subject] = subject;\r\n        object[Object.Scholarship] = scholarship;\r\n        object[Object.Tuition] = tuition;\r\n    }\r\n\r\n    function getObject(Object _object) external override view returns (address) {\r\n        return object[_object];\r\n    }\r\n\r\n    function createNewMission(\r\n        address owner,\r\n        address accessControll,\r\n        address rewardDistributor\r\n    ) external override returns (address) {\r\n        return\r\n            IMissionFactory(object[Object.Mission]).createNewMission(\r\n                owner,\r\n                accessControll,\r\n                rewardDistributor\r\n            );\r\n    }\r\n\r\n    function createNewSubject(address owner, address accessControll)\r\n        external\r\n        override\r\n        returns (address)\r\n    {\r\n        return\r\n            ISubjectFactory(object[Object.Subject]).createNewMission(\r\n                owner,\r\n                accessControll\r\n            );\r\n    }\r\n\r\n    function createNewScholarship(\r\n        address owner,\r\n        address accessControll,\r\n        address rewardDistributor\r\n    ) external override returns (address) {\r\n        return\r\n            IScholarshipFactory(object[Object.Scholarship])\r\n                .createNewScholarship(owner, accessControll, rewardDistributor);\r\n    }\r\n\r\n    function createNewTuition(\r\n        address owner,\r\n        address accessControll,\r\n        address rewardDistributor\r\n    ) external override returns (address) {\r\n        return\r\n            ITuitionFactory(object[Object.Tuition]).createNewTuition(\r\n                owner,\r\n                accessControll,\r\n                rewardDistributor\r\n            );\r\n    }\r\n}\r\n",
  "sourcePath": "E:\\KLTN\\KLTN\\KLTN-contracts\\contracts\\studentmanager\\factories\\Factory.sol",
  "compiler": {
    "name": "solc",
    "version": "0.8.14+commit.80d49f37.Emscripten.clang"
  },
  "schemaVersion": "3.4.3",
  "updatedAt": "2022-06-13T07:54:40.744Z",
  "networkType": "ethereum",
  "devdoc": {
    "kind": "dev",
    "methods": {
      "owner()": {
        "details": "Returns the address of the current owner."
      },
      "renounceOwnership()": {
        "details": "Leaves the contract without owner. It will not be possible to call `onlyOwner` functions anymore. Can only be called by the current owner. NOTE: Renouncing ownership will leave the contract without an owner, thereby removing any functionality that is only available to the owner."
      },
      "transferOwnership(address)": {
        "details": "Transfers ownership of the contract to a new account (`newOwner`). Can only be called by the current owner."
      }
    },
    "version": 1
  },
  "userdoc": {
    "kind": "user",
    "methods": {},
    "version": 1
  }
}