{
  "contractName": "ManagerPool",
  "abi": [
    {
      "inputs": [
        {
          "internalType": "address",
          "name": "_factory",
          "type": "address"
        },
        {
          "internalType": "address",
          "name": "_accessControll",
          "type": "address"
        },
        {
          "internalType": "address",
          "name": "_rewardDistributor",
          "type": "address"
        }
      ],
      "stateMutability": "nonpayable",
      "type": "constructor"
    },
    {
      "anonymous": false,
      "inputs": [
        {
          "indexed": true,
          "internalType": "address",
          "name": "previousOwner",
          "type": "address"
        },
        {
          "indexed": true,
          "internalType": "address",
          "name": "newOwner",
          "type": "address"
        }
      ],
      "name": "OwnershipTransferred",
      "type": "event"
    },
    {
      "inputs": [],
      "name": "accessControll",
      "outputs": [
        {
          "internalType": "contract IAccessControl",
          "name": "",
          "type": "address"
        }
      ],
      "stateMutability": "view",
      "type": "function"
    },
    {
      "inputs": [
        {
          "internalType": "address",
          "name": "",
          "type": "address"
        }
      ],
      "name": "existed",
      "outputs": [
        {
          "internalType": "bool",
          "name": "",
          "type": "bool"
        }
      ],
      "stateMutability": "view",
      "type": "function"
    },
    {
      "inputs": [],
      "name": "factory",
      "outputs": [
        {
          "internalType": "contract IFactory",
          "name": "",
          "type": "address"
        }
      ],
      "stateMutability": "view",
      "type": "function"
    },
    {
      "inputs": [],
      "name": "idCountMission",
      "outputs": [
        {
          "internalType": "uint256",
          "name": "_value",
          "type": "uint256"
        }
      ],
      "stateMutability": "view",
      "type": "function"
    },
    {
      "inputs": [],
      "name": "idCountScholarship",
      "outputs": [
        {
          "internalType": "uint256",
          "name": "_value",
          "type": "uint256"
        }
      ],
      "stateMutability": "view",
      "type": "function"
    },
    {
      "inputs": [],
      "name": "idCountSubject",
      "outputs": [
        {
          "internalType": "uint256",
          "name": "_value",
          "type": "uint256"
        }
      ],
      "stateMutability": "view",
      "type": "function"
    },
    {
      "inputs": [],
      "name": "idCountTuition",
      "outputs": [
        {
          "internalType": "uint256",
          "name": "_value",
          "type": "uint256"
        }
      ],
      "stateMutability": "view",
      "type": "function"
    },
    {
      "inputs": [
        {
          "internalType": "address",
          "name": "",
          "type": "address"
        }
      ],
      "name": "lecturerInfo",
      "outputs": [
        {
          "internalType": "string",
          "name": "",
          "type": "string"
        }
      ],
      "stateMutability": "view",
      "type": "function"
    },
    {
      "inputs": [],
      "name": "owner",
      "outputs": [
        {
          "internalType": "address",
          "name": "",
          "type": "address"
        }
      ],
      "stateMutability": "view",
      "type": "function"
    },
    {
      "inputs": [
        {
          "internalType": "uint256",
          "name": "",
          "type": "uint256"
        }
      ],
      "name": "pools",
      "outputs": [
        {
          "internalType": "address",
          "name": "objectAddress",
          "type": "address"
        },
        {
          "internalType": "enum ManagerPool.Type",
          "name": "tipe",
          "type": "uint8"
        }
      ],
      "stateMutability": "view",
      "type": "function"
    },
    {
      "inputs": [],
      "name": "renounceOwnership",
      "outputs": [],
      "stateMutability": "nonpayable",
      "type": "function"
    },
    {
      "inputs": [],
      "name": "rewardDistributor",
      "outputs": [
        {
          "internalType": "contract IRewardDistributor",
          "name": "",
          "type": "address"
        }
      ],
      "stateMutability": "view",
      "type": "function"
    },
    {
      "inputs": [
        {
          "internalType": "address",
          "name": "",
          "type": "address"
        }
      ],
      "name": "studentInfo",
      "outputs": [
        {
          "internalType": "string",
          "name": "",
          "type": "string"
        }
      ],
      "stateMutability": "view",
      "type": "function"
    },
    {
      "inputs": [
        {
          "internalType": "address",
          "name": "newOwner",
          "type": "address"
        }
      ],
      "name": "transferOwnership",
      "outputs": [],
      "stateMutability": "nonpayable",
      "type": "function"
    },
    {
      "inputs": [
        {
          "internalType": "address",
          "name": "_factory",
          "type": "address"
        }
      ],
      "name": "setFactory",
      "outputs": [],
      "stateMutability": "nonpayable",
      "type": "function"
    },
    {
      "inputs": [
        {
          "internalType": "string",
          "name": "hashInfo",
          "type": "string"
        }
      ],
      "name": "addStudentInfo",
      "outputs": [],
      "stateMutability": "nonpayable",
      "type": "function"
    },
    {
      "inputs": [
        {
          "internalType": "address",
          "name": "lecturerAddr",
          "type": "address"
        },
        {
          "internalType": "string",
          "name": "hashInfo",
          "type": "string"
        }
      ],
      "name": "addLecturerInfo",
      "outputs": [],
      "stateMutability": "nonpayable",
      "type": "function"
    },
    {
      "inputs": [
        {
          "internalType": "string",
          "name": "_urlMetadata",
          "type": "string"
        },
        {
          "internalType": "uint256",
          "name": "_award",
          "type": "uint256"
        },
        {
          "internalType": "uint256",
          "name": "_maxEntrant",
          "type": "uint256"
        },
        {
          "internalType": "address",
          "name": "_persionInCharge",
          "type": "address"
        },
        {
          "internalType": "uint256",
          "name": "_startTime",
          "type": "uint256"
        },
        {
          "internalType": "uint256",
          "name": "_endTimeToRegister",
          "type": "uint256"
        },
        {
          "internalType": "uint256",
          "name": "_endTime",
          "type": "uint256"
        },
        {
          "internalType": "uint256",
          "name": "_endTimeToConfirm",
          "type": "uint256"
        }
      ],
      "name": "createNewMission",
      "outputs": [],
      "stateMutability": "nonpayable",
      "type": "function"
    },
    {
      "inputs": [
        {
          "internalType": "string",
          "name": "_urlMetadata",
          "type": "string"
        },
        {
          "internalType": "uint256",
          "name": "_maxEntrant",
          "type": "uint256"
        },
        {
          "internalType": "address",
          "name": "_persionInCharge",
          "type": "address"
        },
        {
          "internalType": "uint256",
          "name": "_startTime",
          "type": "uint256"
        },
        {
          "internalType": "uint256",
          "name": "_endTimeToRegister",
          "type": "uint256"
        },
        {
          "internalType": "uint256",
          "name": "_endTime",
          "type": "uint256"
        },
        {
          "internalType": "uint256",
          "name": "_endTimeToConfirm",
          "type": "uint256"
        }
      ],
      "name": "createNewSubject",
      "outputs": [],
      "stateMutability": "nonpayable",
      "type": "function"
    },
    {
      "inputs": [
        {
          "internalType": "string",
          "name": "_urlMetadata",
          "type": "string"
        },
        {
          "internalType": "uint256",
          "name": "_award",
          "type": "uint256"
        },
        {
          "internalType": "uint256",
          "name": "_startTime",
          "type": "uint256"
        },
        {
          "internalType": "uint256",
          "name": "_endTime",
          "type": "uint256"
        }
      ],
      "name": "createNewScholarship",
      "outputs": [],
      "stateMutability": "nonpayable",
      "type": "function"
    },
    {
      "inputs": [
        {
          "internalType": "string",
          "name": "_urlMetadata",
          "type": "string"
        },
        {
          "internalType": "uint256",
          "name": "_feeByToken",
          "type": "uint256"
        },
        {
          "internalType": "uint256",
          "name": "_startTime",
          "type": "uint256"
        },
        {
          "internalType": "uint256",
          "name": "_endTime",
          "type": "uint256"
        }
      ],
      "name": "createNewTuition",
      "outputs": [],
      "stateMutability": "nonpayable",
      "type": "function"
    },
    {
      "inputs": [
        {
          "internalType": "address",
          "name": "pool",
          "type": "address"
        }
      ],
      "name": "close",
      "outputs": [],
      "stateMutability": "nonpayable",
      "type": "function"
    }
  ],
  "bytecode": "0x60806040523480156200001157600080fd5b50604051620031cb380380620031cb833981810160405281019062000037919062000259565b620000576200004b6200012360201b60201c565b6200012b60201b60201c565b82600160006101000a81548173ffffffffffffffffffffffffffffffffffffffff021916908373ffffffffffffffffffffffffffffffffffffffff16021790555081600260006101000a81548173ffffffffffffffffffffffffffffffffffffffff021916908373ffffffffffffffffffffffffffffffffffffffff16021790555080600360006101000a81548173ffffffffffffffffffffffffffffffffffffffff021916908373ffffffffffffffffffffffffffffffffffffffff160217905550505050620002b5565b600033905090565b60008060009054906101000a900473ffffffffffffffffffffffffffffffffffffffff169050816000806101000a81548173ffffffffffffffffffffffffffffffffffffffff021916908373ffffffffffffffffffffffffffffffffffffffff1602179055508173ffffffffffffffffffffffffffffffffffffffff168173ffffffffffffffffffffffffffffffffffffffff167f8be0079c531659141344cd1fd0a4f28419497f9722a3daafe3b4186f6b6457e060405160405180910390a35050565b600080fd5b600073ffffffffffffffffffffffffffffffffffffffff82169050919050565b60006200022182620001f4565b9050919050565b620002338162000214565b81146200023f57600080fd5b50565b600081519050620002538162000228565b92915050565b600080600060608486031215620002755762000274620001ef565b5b6000620002858682870162000242565b9350506020620002988682870162000242565b9250506040620002ab8682870162000242565b9150509250925092565b612f0680620002c56000396000f3fe608060405234801561001057600080fd5b50600436106101425760003560e01c8063ac4afa38116100b8578063c5484bb21161007c578063c5484bb214610352578063c74073a11461036e578063d2a49de51461038a578063dcff175a146103a6578063eb49ad47146103c4578063f2fde38b146103e257610142565b8063ac4afa3814610299578063acc2166a146102ca578063b82df1fd146102e8578063c225fc3814610304578063c45a01551461033457610142565b8063715018a61161010a578063715018a6146101eb5780638c248ffd146101f55780638c34aabb146102255780638da5cb5b14610241578063aa4936ce1461025f578063ab3270981461027d57610142565b80631ee965f1146101475780633b7d8952146101655780633d847dda146101835780635bb47808146101b3578063682ef79f146101cf575b600080fd5b61014f6103fe565b60405161015c919061223d565b60405180910390f35b61016d61040a565b60405161017a919061223d565b60405180910390f35b61019d600480360381019061019891906122ca565b610416565b6040516101aa9190612390565b60405180910390f35b6101cd60048036038101906101c891906122ca565b6104b6565b005b6101e960048036038101906101e491906124e7565b610576565b005b6101f36106ca565b005b61020f600480360381019061020a91906122ca565b610752565b60405161021c9190612390565b60405180910390f35b61023f600480360381019061023a919061255c565b6107f2565b005b610249610c8f565b60405161025691906125ee565b60405180910390f35b610267610cb8565b6040516102749190612668565b60405180910390f35b61029760048036038101906102929190612683565b610cde565b005b6102b360048036038101906102ae9190612741565b6110d3565b6040516102c19291906127e5565b60405180910390f35b6102d2611130565b6040516102df919061282f565b60405180910390f35b61030260048036038101906102fd919061284a565b611156565b005b61031e600480360381019061031991906122ca565b6115ff565b60405161032b9190612937565b60405180910390f35b61033c61161f565b6040516103499190612973565b60405180910390f35b61036c6004803603810190610367919061255c565b611645565b005b610388600480360381019061038391906122ca565b611ae1565b005b6103a4600480360381019061039f919061298e565b611c4a565b005b6103ae611d9f565b6040516103bb919061223d565b60405180910390f35b6103cc611dab565b6040516103d9919061223d565b60405180910390f35b6103fc60048036038101906103f791906122ca565b611db7565b005b60068060000154905081565b60088060000154905081565b600a602052806000526040600020600091509050805461043590612a19565b80601f016020809104026020016040519081016040528092919081815260200182805461046190612a19565b80156104ae5780601f10610483576101008083540402835291602001916104ae565b820191906000526020600020905b81548152906001019060200180831161049157829003601f168201915b505050505081565b6104be611eae565b73ffffffffffffffffffffffffffffffffffffffff166104dc610c8f565b73ffffffffffffffffffffffffffffffffffffffff1614610532576040517f08c379a000000000000000000000000000000000000000000000000000000000815260040161052990612a96565b60405180910390fd5b80600160006101000a81548173ffffffffffffffffffffffffffffffffffffffff021916908373ffffffffffffffffffffffffffffffffffffffff16021790555050565b600260009054906101000a900473ffffffffffffffffffffffffffffffffffffffff1673ffffffffffffffffffffffffffffffffffffffff166391d148547fc951d7098b66ba0b8b77265b6e9cf0e187d73125a42bcd0061b09a68be421810336040518363ffffffff1660e01b81526004016105f3929190612acf565b602060405180830381865afa158015610610573d6000803e3d6000fd5b505050506040513d601f19601f820116820180604052508101906106349190612b24565b610673576040517f08c379a000000000000000000000000000000000000000000000000000000000815260040161066a90612b9d565b60405180910390fd5b80600a60003373ffffffffffffffffffffffffffffffffffffffff1673ffffffffffffffffffffffffffffffffffffffff16815260200190815260200160002090805190602001906106c6929190612181565b5050565b6106d2611eae565b73ffffffffffffffffffffffffffffffffffffffff166106f0610c8f565b73ffffffffffffffffffffffffffffffffffffffff1614610746576040517f08c379a000000000000000000000000000000000000000000000000000000000815260040161073d90612a96565b60405180910390fd5b6107506000611eb6565b565b600b602052806000526040600020600091509050805461077190612a19565b80601f016020809104026020016040519081016040528092919081815260200182805461079d90612a19565b80156107ea5780601f106107bf576101008083540402835291602001916107ea565b820191906000526020600020905b8154815290600101906020018083116107cd57829003601f168201915b505050505081565b600260009054906101000a900473ffffffffffffffffffffffffffffffffffffffff1673ffffffffffffffffffffffffffffffffffffffff166391d148547fdf8b4c520ffe197c5343c6f5aec59570151ef9a492f2c624fd45ddde6135ec42336040518363ffffffff1660e01b815260040161086f929190612acf565b602060405180830381865afa15801561088c573d6000803e3d6000fd5b505050506040513d601f19601f820116820180604052508101906108b09190612b24565b6108ef576040517f08c379a00000000000000000000000000000000000000000000000000000000081526004016108e690612c09565b60405180910390fd5b6000600160009054906101000a900473ffffffffffffffffffffffffffffffffffffffff1673ffffffffffffffffffffffffffffffffffffffff1663378ac24530600260009054906101000a900473ffffffffffffffffffffffffffffffffffffffff16600360009054906101000a900473ffffffffffffffffffffffffffffffffffffffff166040518463ffffffff1660e01b815260040161099493929190612c29565b6020604051808303816000875af11580156109b3573d6000803e3d6000fd5b505050506040513d601f19601f820116820180604052508101906109d79190612c75565b9050600460405180604001604052808373ffffffffffffffffffffffffffffffffffffffff16815260200160026003811115610a1657610a1561276e565b5b8152509080600181540180825580915050600190039060005260206000200160009091909190915060008201518160000160006101000a81548173ffffffffffffffffffffffffffffffffffffffff021916908373ffffffffffffffffffffffffffffffffffffffff16021790555060208201518160000160146101000a81548160ff02191690836003811115610ab057610aaf61276e565b5b021790555050506001600560008373ffffffffffffffffffffffffffffffffffffffff1673ffffffffffffffffffffffffffffffffffffffff16815260200190815260200160002060006101000a81548160ff0219169083151502179055506000610b1b6008611f7a565b9050610b276008611f88565b8173ffffffffffffffffffffffffffffffffffffffff1663e4bca56382888888886040518663ffffffff1660e01b8152600401610b68959493929190612ca2565b600060405180830381600087803b158015610b8257600080fd5b505af1158015610b96573d6000803e3d6000fd5b505050508173ffffffffffffffffffffffffffffffffffffffff1663be9a65556040518163ffffffff1660e01b8152600401600060405180830381600087803b158015610be257600080fd5b505af1158015610bf6573d6000803e3d6000fd5b50505050600360009054906101000a900473ffffffffffffffffffffffffffffffffffffffff1673ffffffffffffffffffffffffffffffffffffffff166305380898836040518263ffffffff1660e01b8152600401610c5591906125ee565b600060405180830381600087803b158015610c6f57600080fd5b505af1158015610c83573d6000803e3d6000fd5b50505050505050505050565b60008060009054906101000a900473ffffffffffffffffffffffffffffffffffffffff16905090565b600260009054906101000a900473ffffffffffffffffffffffffffffffffffffffff1681565b600260009054906101000a900473ffffffffffffffffffffffffffffffffffffffff1673ffffffffffffffffffffffffffffffffffffffff166391d148547fdf8b4c520ffe197c5343c6f5aec59570151ef9a492f2c624fd45ddde6135ec42336040518363ffffffff1660e01b8152600401610d5b929190612acf565b602060405180830381865afa158015610d78573d6000803e3d6000fd5b505050506040513d601f19601f82011682018060405250810190610d9c9190612b24565b610ddb576040517f08c379a0000000000000000000000000000000000000000000000000000000008152600401610dd290612c09565b60405180910390fd5b6000600160009054906101000a900473ffffffffffffffffffffffffffffffffffffffff1673ffffffffffffffffffffffffffffffffffffffff1663b928882e30600260009054906101000a900473ffffffffffffffffffffffffffffffffffffffff166040518363ffffffff1660e01b8152600401610e5c929190612cfc565b6020604051808303816000875af1158015610e7b573d6000803e3d6000fd5b505050506040513d601f19601f82011682018060405250810190610e9f9190612c75565b9050600460405180604001604052808373ffffffffffffffffffffffffffffffffffffffff16815260200160016003811115610ede57610edd61276e565b5b8152509080600181540180825580915050600190039060005260206000200160009091909190915060008201518160000160006101000a81548173ffffffffffffffffffffffffffffffffffffffff021916908373ffffffffffffffffffffffffffffffffffffffff16021790555060208201518160000160146101000a81548160ff02191690836003811115610f7857610f7761276e565b5b021790555050506001600560008373ffffffffffffffffffffffffffffffffffffffff1673ffffffffffffffffffffffffffffffffffffffff16815260200190815260200160002060006101000a81548160ff0219169083151502179055506000610fe36007611f7a565b9050610fef6007611f88565b8173ffffffffffffffffffffffffffffffffffffffff1663a53dc8d2828b8b8b8b8b8b8b6040518963ffffffff1660e01b8152600401611036989796959493929190612d25565b600060405180830381600087803b15801561105057600080fd5b505af1158015611064573d6000803e3d6000fd5b505050508173ffffffffffffffffffffffffffffffffffffffff1663be9a65556040518163ffffffff1660e01b8152600401600060405180830381600087803b1580156110b057600080fd5b505af11580156110c4573d6000803e3d6000fd5b50505050505050505050505050565b600481815481106110e357600080fd5b906000526020600020016000915090508060000160009054906101000a900473ffffffffffffffffffffffffffffffffffffffff16908060000160149054906101000a900460ff16905082565b600360009054906101000a900473ffffffffffffffffffffffffffffffffffffffff1681565b600260009054906101000a900473ffffffffffffffffffffffffffffffffffffffff1673ffffffffffffffffffffffffffffffffffffffff166391d148547fdf8b4c520ffe197c5343c6f5aec59570151ef9a492f2c624fd45ddde6135ec42336040518363ffffffff1660e01b81526004016111d3929190612acf565b602060405180830381865afa1580156111f0573d6000803e3d6000fd5b505050506040513d601f19601f820116820180604052508101906112149190612b24565b611253576040517f08c379a000000000000000000000000000000000000000000000000000000000815260040161124a90612c09565b60405180910390fd5b6000600160009054906101000a900473ffffffffffffffffffffffffffffffffffffffff1673ffffffffffffffffffffffffffffffffffffffff1663e162fa7730600260009054906101000a900473ffffffffffffffffffffffffffffffffffffffff16600360009054906101000a900473ffffffffffffffffffffffffffffffffffffffff166040518463ffffffff1660e01b81526004016112f893929190612c29565b6020604051808303816000875af1158015611317573d6000803e3d6000fd5b505050506040513d601f19601f8201168201806040525081019061133b9190612c75565b9050600460405180604001604052808373ffffffffffffffffffffffffffffffffffffffff1681526020016000600381111561137a5761137961276e565b5b8152509080600181540180825580915050600190039060005260206000200160009091909190915060008201518160000160006101000a81548173ffffffffffffffffffffffffffffffffffffffff021916908373ffffffffffffffffffffffffffffffffffffffff16021790555060208201518160000160146101000a81548160ff021916908360038111156114145761141361276e565b5b021790555050506001600560008373ffffffffffffffffffffffffffffffffffffffff1673ffffffffffffffffffffffffffffffffffffffff16815260200190815260200160002060006101000a81548160ff021916908315150217905550600061147f6006611f7a565b905061148b6006611f88565b8173ffffffffffffffffffffffffffffffffffffffff1663ee0433d0828c8c8c8c8c8c8c8c6040518a63ffffffff1660e01b81526004016114d499989796959493929190612daa565b600060405180830381600087803b1580156114ee57600080fd5b505af1158015611502573d6000803e3d6000fd5b505050508173ffffffffffffffffffffffffffffffffffffffff1663be9a65556040518163ffffffff1660e01b8152600401600060405180830381600087803b15801561154e57600080fd5b505af1158015611562573d6000803e3d6000fd5b50505050600360009054906101000a900473ffffffffffffffffffffffffffffffffffffffff1673ffffffffffffffffffffffffffffffffffffffff166305380898836040518263ffffffff1660e01b81526004016115c191906125ee565b600060405180830381600087803b1580156115db57600080fd5b505af11580156115ef573d6000803e3d6000fd5b5050505050505050505050505050565b60056020528060005260406000206000915054906101000a900460ff1681565b600160009054906101000a900473ffffffffffffffffffffffffffffffffffffffff1681565b600260009054906101000a900473ffffffffffffffffffffffffffffffffffffffff1673ffffffffffffffffffffffffffffffffffffffff166391d148547fdf8b4c520ffe197c5343c6f5aec59570151ef9a492f2c624fd45ddde6135ec42336040518363ffffffff1660e01b81526004016116c2929190612acf565b602060405180830381865afa1580156116df573d6000803e3d6000fd5b505050506040513d601f19601f820116820180604052508101906117039190612b24565b611742576040517f08c379a000000000000000000000000000000000000000000000000000000000815260040161173990612c09565b60405180910390fd5b6000600160009054906101000a900473ffffffffffffffffffffffffffffffffffffffff1673ffffffffffffffffffffffffffffffffffffffff1663029c678530600260009054906101000a900473ffffffffffffffffffffffffffffffffffffffff16600360009054906101000a900473ffffffffffffffffffffffffffffffffffffffff166040518463ffffffff1660e01b81526004016117e793929190612c29565b6020604051808303816000875af1158015611806573d6000803e3d6000fd5b505050506040513d601f19601f8201168201806040525081019061182a9190612c75565b9050600460405180604001604052808373ffffffffffffffffffffffffffffffffffffffff1681526020016003808111156118685761186761276e565b5b8152509080600181540180825580915050600190039060005260206000200160009091909190915060008201518160000160006101000a81548173ffffffffffffffffffffffffffffffffffffffff021916908373ffffffffffffffffffffffffffffffffffffffff16021790555060208201518160000160146101000a81548160ff021916908360038111156119025761190161276e565b5b021790555050506001600560008373ffffffffffffffffffffffffffffffffffffffff1673ffffffffffffffffffffffffffffffffffffffff16815260200190815260200160002060006101000a81548160ff021916908315150217905550600061196d6009611f7a565b90506119796009611f88565b8173ffffffffffffffffffffffffffffffffffffffff166308003d6b82888888886040518663ffffffff1660e01b81526004016119ba959493929190612ca2565b600060405180830381600087803b1580156119d457600080fd5b505af11580156119e8573d6000803e3d6000fd5b505050508173ffffffffffffffffffffffffffffffffffffffff1663be9a65556040518163ffffffff1660e01b8152600401600060405180830381600087803b158015611a3457600080fd5b505af1158015611a48573d6000803e3d6000fd5b50505050600360009054906101000a900473ffffffffffffffffffffffffffffffffffffffff1673ffffffffffffffffffffffffffffffffffffffff166305380898836040518263ffffffff1660e01b8152600401611aa791906125ee565b600060405180830381600087803b158015611ac157600080fd5b505af1158015611ad5573d6000803e3d6000fd5b50505050505050505050565b600260009054906101000a900473ffffffffffffffffffffffffffffffffffffffff1673ffffffffffffffffffffffffffffffffffffffff166391d148547fdf8b4c520ffe197c5343c6f5aec59570151ef9a492f2c624fd45ddde6135ec42336040518363ffffffff1660e01b8152600401611b5e929190612acf565b602060405180830381865afa158015611b7b573d6000803e3d6000fd5b505050506040513d601f19601f82011682018060405250810190611b9f9190612b24565b611bde576040517f08c379a0000000000000000000000000000000000000000000000000000000008152600401611bd590612c09565b60405180910390fd5b8073ffffffffffffffffffffffffffffffffffffffff166343d726d66040518163ffffffff1660e01b8152600401600060405180830381600087803b158015611c2657600080fd5b505af1158015611c3a573d6000803e3d6000fd5b50505050611c4781611f9e565b50565b600260009054906101000a900473ffffffffffffffffffffffffffffffffffffffff1673ffffffffffffffffffffffffffffffffffffffff166391d148547fdf8b4c520ffe197c5343c6f5aec59570151ef9a492f2c624fd45ddde6135ec42336040518363ffffffff1660e01b8152600401611cc7929190612acf565b602060405180830381865afa158015611ce4573d6000803e3d6000fd5b505050506040513d601f19601f82011682018060405250810190611d089190612b24565b611d47576040517f08c379a0000000000000000000000000000000000000000000000000000000008152600401611d3e90612c09565b60405180910390fd5b80600b60008473ffffffffffffffffffffffffffffffffffffffff1673ffffffffffffffffffffffffffffffffffffffff1681526020019081526020016000209080519060200190611d9a929190612181565b505050565b60078060000154905081565b60098060000154905081565b611dbf611eae565b73ffffffffffffffffffffffffffffffffffffffff16611ddd610c8f565b73ffffffffffffffffffffffffffffffffffffffff1614611e33576040517f08c379a0000000000000000000000000000000000000000000000000000000008152600401611e2a90612a96565b60405180910390fd5b600073ffffffffffffffffffffffffffffffffffffffff168173ffffffffffffffffffffffffffffffffffffffff1603611ea2576040517f08c379a0000000000000000000000000000000000000000000000000000000008152600401611e9990612eb0565b60405180910390fd5b611eab81611eb6565b50565b600033905090565b60008060009054906101000a900473ffffffffffffffffffffffffffffffffffffffff169050816000806101000a81548173ffffffffffffffffffffffffffffffffffffffff021916908373ffffffffffffffffffffffffffffffffffffffff1602179055508173ffffffffffffffffffffffffffffffffffffffff168173ffffffffffffffffffffffffffffffffffffffff167f8be0079c531659141344cd1fd0a4f28419497f9722a3daafe3b4186f6b6457e060405160405180910390a35050565b600081600001549050919050565b6001816000016000828254019250508190555050565b600260009054906101000a900473ffffffffffffffffffffffffffffffffffffffff1673ffffffffffffffffffffffffffffffffffffffff166391d148547fdf8b4c520ffe197c5343c6f5aec59570151ef9a492f2c624fd45ddde6135ec42336040518363ffffffff1660e01b815260040161201b929190612acf565b602060405180830381865afa158015612038573d6000803e3d6000fd5b505050506040513d601f19601f8201168201806040525081019061205c9190612b24565b61209b576040517f08c379a000000000000000000000000000000000000000000000000000000000815260040161209290612c09565b60405180910390fd5b600560008273ffffffffffffffffffffffffffffffffffffffff1673ffffffffffffffffffffffffffffffffffffffff16815260200190815260200160002060009054906101000a900460ff166120f157600080fd5b600360009054906101000a900473ffffffffffffffffffffffffffffffffffffffff1673ffffffffffffffffffffffffffffffffffffffff16633cb7b3bb826040518263ffffffff1660e01b815260040161214c91906125ee565b600060405180830381600087803b15801561216657600080fd5b505af115801561217a573d6000803e3d6000fd5b5050505050565b82805461218d90612a19565b90600052602060002090601f0160209004810192826121af57600085556121f6565b82601f106121c857805160ff19168380011785556121f6565b828001600101855582156121f6579182015b828111156121f55782518255916020019190600101906121da565b5b5090506122039190612207565b5090565b5b80821115612220576000816000905550600101612208565b5090565b6000819050919050565b61223781612224565b82525050565b6000602082019050612252600083018461222e565b92915050565b6000604051905090565b600080fd5b600080fd5b600073ffffffffffffffffffffffffffffffffffffffff82169050919050565b60006122978261226c565b9050919050565b6122a78161228c565b81146122b257600080fd5b50565b6000813590506122c48161229e565b92915050565b6000602082840312156122e0576122df612262565b5b60006122ee848285016122b5565b91505092915050565b600081519050919050565b600082825260208201905092915050565b60005b83811015612331578082015181840152602081019050612316565b83811115612340576000848401525b50505050565b6000601f19601f8301169050919050565b6000612362826122f7565b61236c8185612302565b935061237c818560208601612313565b61238581612346565b840191505092915050565b600060208201905081810360008301526123aa8184612357565b905092915050565b600080fd5b600080fd5b7f4e487b7100000000000000000000000000000000000000000000000000000000600052604160045260246000fd5b6123f482612346565b810181811067ffffffffffffffff82111715612413576124126123bc565b5b80604052505050565b6000612426612258565b905061243282826123eb565b919050565b600067ffffffffffffffff821115612452576124516123bc565b5b61245b82612346565b9050602081019050919050565b82818337600083830152505050565b600061248a61248584612437565b61241c565b9050828152602081018484840111156124a6576124a56123b7565b5b6124b1848285612468565b509392505050565b600082601f8301126124ce576124cd6123b2565b5b81356124de848260208601612477565b91505092915050565b6000602082840312156124fd576124fc612262565b5b600082013567ffffffffffffffff81111561251b5761251a612267565b5b612527848285016124b9565b91505092915050565b61253981612224565b811461254457600080fd5b50565b60008135905061255681612530565b92915050565b6000806000806080858703121561257657612575612262565b5b600085013567ffffffffffffffff81111561259457612593612267565b5b6125a0878288016124b9565b94505060206125b187828801612547565b93505060406125c287828801612547565b92505060606125d387828801612547565b91505092959194509250565b6125e88161228c565b82525050565b600060208201905061260360008301846125df565b92915050565b6000819050919050565b600061262e6126296126248461226c565b612609565b61226c565b9050919050565b600061264082612613565b9050919050565b600061265282612635565b9050919050565b61266281612647565b82525050565b600060208201905061267d6000830184612659565b92915050565b600080600080600080600060e0888a0312156126a2576126a1612262565b5b600088013567ffffffffffffffff8111156126c0576126bf612267565b5b6126cc8a828b016124b9565b97505060206126dd8a828b01612547565b96505060406126ee8a828b016122b5565b95505060606126ff8a828b01612547565b94505060806127108a828b01612547565b93505060a06127218a828b01612547565b92505060c06127328a828b01612547565b91505092959891949750929550565b60006020828403121561275757612756612262565b5b600061276584828501612547565b91505092915050565b7f4e487b7100000000000000000000000000000000000000000000000000000000600052602160045260246000fd5b600481106127ae576127ad61276e565b5b50565b60008190506127bf8261279d565b919050565b60006127cf826127b1565b9050919050565b6127df816127c4565b82525050565b60006040820190506127fa60008301856125df565b61280760208301846127d6565b9392505050565b600061281982612635565b9050919050565b6128298161280e565b82525050565b60006020820190506128446000830184612820565b92915050565b600080600080600080600080610100898b03121561286b5761286a612262565b5b600089013567ffffffffffffffff81111561288957612888612267565b5b6128958b828c016124b9565b98505060206128a68b828c01612547565b97505060406128b78b828c01612547565b96505060606128c88b828c016122b5565b95505060806128d98b828c01612547565b94505060a06128ea8b828c01612547565b93505060c06128fb8b828c01612547565b92505060e061290c8b828c01612547565b9150509295985092959890939650565b60008115159050919050565b6129318161291c565b82525050565b600060208201905061294c6000830184612928565b92915050565b600061295d82612635565b9050919050565b61296d81612952565b82525050565b60006020820190506129886000830184612964565b92915050565b600080604083850312156129a5576129a4612262565b5b60006129b3858286016122b5565b925050602083013567ffffffffffffffff8111156129d4576129d3612267565b5b6129e0858286016124b9565b9150509250929050565b7f4e487b7100000000000000000000000000000000000000000000000000000000600052602260045260246000fd5b60006002820490506001821680612a3157607f821691505b602082108103612a4457612a436129ea565b5b50919050565b7f4f776e61626c653a2063616c6c6572206973206e6f7420746865206f776e6572600082015250565b6000612a80602083612302565b9150612a8b82612a4a565b602082019050919050565b60006020820190508181036000830152612aaf81612a73565b9050919050565b6000819050919050565b612ac981612ab6565b82525050565b6000604082019050612ae46000830185612ac0565b612af160208301846125df565b9392505050565b612b018161291c565b8114612b0c57600080fd5b50565b600081519050612b1e81612af8565b92915050565b600060208284031215612b3a57612b39612262565b5b6000612b4884828501612b0f565b91505092915050565b7f4d433a204f6e6c792053747564656e7400000000000000000000000000000000600082015250565b6000612b87601083612302565b9150612b9282612b51565b602082019050919050565b60006020820190508181036000830152612bb681612b7a565b9050919050565b7f4d503a204f6e6c792041646d696e000000000000000000000000000000000000600082015250565b6000612bf3600e83612302565b9150612bfe82612bbd565b602082019050919050565b60006020820190508181036000830152612c2281612be6565b9050919050565b6000606082019050612c3e60008301866125df565b612c4b60208301856125df565b612c5860408301846125df565b949350505050565b600081519050612c6f8161229e565b92915050565b600060208284031215612c8b57612c8a612262565b5b6000612c9984828501612c60565b91505092915050565b600060a082019050612cb7600083018861222e565b8181036020830152612cc98187612357565b9050612cd8604083018661222e565b612ce5606083018561222e565b612cf2608083018461222e565b9695505050505050565b6000604082019050612d1160008301856125df565b612d1e60208301846125df565b9392505050565b600061010082019050612d3b600083018b61222e565b8181036020830152612d4d818a612357565b9050612d5c604083018961222e565b612d6960608301886125df565b612d76608083018761222e565b612d8360a083018661222e565b612d9060c083018561222e565b612d9d60e083018461222e565b9998505050505050505050565b600061012082019050612dc0600083018c61222e565b8181036020830152612dd2818b612357565b9050612de1604083018a61222e565b612dee606083018961222e565b612dfb60808301886125df565b612e0860a083018761222e565b612e1560c083018661222e565b612e2260e083018561222e565b612e3061010083018461222e565b9a9950505050505050505050565b7f4f776e61626c653a206e6577206f776e657220697320746865207a65726f206160008201527f6464726573730000000000000000000000000000000000000000000000000000602082015250565b6000612e9a602683612302565b9150612ea582612e3e565b604082019050919050565b60006020820190508181036000830152612ec981612e8d565b905091905056fea2646970667358221220c82dbe20b9cc0927ca95a03d81491dc70e2997b9f30ee9b0af5c49265aa8862964736f6c634300080d0033",
  "immutableReferences": {},
  "source": "//SPDX-License-Identifier: UNLICENSED\r\npragma solidity >=0.8.0;\r\n\r\nimport \"@openzeppelin/contracts/utils/Counters.sol\";\r\nimport \"@openzeppelin/contracts/access/Ownable.sol\";\r\nimport \"./interfaces/IMissionContract.sol\";\r\nimport \"./interfaces/ISubjectContract.sol\";\r\nimport \"./interfaces/IScholarshipContract.sol\";\r\nimport \"./interfaces/ITuitionContract.sol\";\r\nimport \"./interfaces/IGeneralContract.sol\";\r\nimport \"./interfaces/IFactory.sol\";\r\nimport \"./interfaces/IAccessControl.sol\";\r\nimport \"./interfaces/IRewardDistributor.sol\";\r\n\r\ncontract ManagerPool is Ownable {\r\n    using Counters for Counters.Counter;\r\n\r\n    struct Object {\r\n        address objectAddress;\r\n        Type tipe;\r\n    }\r\n    enum Type {\r\n        Mission,\r\n        Subject,\r\n        Scholarship,\r\n        Tuition\r\n    }\r\n\r\n    IFactory public factory;\r\n    IAccessControl public accessControll;\r\n    IRewardDistributor public rewardDistributor;\r\n    Object[] public pools;\r\n    mapping(address => bool) public existed;\r\n    Counters.Counter public idCountMission;\r\n    Counters.Counter public idCountSubject;\r\n    Counters.Counter public idCountScholarship;\r\n    Counters.Counter public idCountTuition;\r\n\r\n    mapping(address => string) public studentInfo;\r\n    mapping(address => string) public lecturerInfo;\r\n\r\n    constructor(\r\n        address _factory,\r\n        address _accessControll,\r\n        address _rewardDistributor\r\n    ) {\r\n        factory = IFactory(_factory);\r\n        accessControll = IAccessControl(_accessControll);\r\n        rewardDistributor = IRewardDistributor(_rewardDistributor);\r\n    }\r\n\r\n    modifier onlyRoleAdmin() {\r\n        require(\r\n            accessControll.hasRole(keccak256(\"ADMIN\"), msg.sender),\r\n            \"MP: Only Admin\"\r\n        );\r\n        _;\r\n    }\r\n\r\n    modifier onlyRoleStudent() {\r\n        require(\r\n            accessControll.hasRole(keccak256(\"STUDENT\"), msg.sender),\r\n            \"MC: Only Student\"\r\n        );\r\n        _;\r\n    }\r\n\r\n    function setFactory(address _factory) public onlyOwner {\r\n        factory = IFactory(_factory);\r\n    }\r\n\r\n    function addStudentInfo(string memory hashInfo) public onlyRoleStudent {\r\n        studentInfo[msg.sender] = hashInfo;\r\n    }\r\n\r\n    // function update(studentadress,hash ) {\r\n    //   studentadress\r\n    //   require(msg.sender == );\r\n    // }\r\n\r\n    function addLecturerInfo(address lecturerAddr, string memory hashInfo)\r\n        public\r\n        onlyRoleAdmin\r\n    {\r\n        lecturerInfo[lecturerAddr] = hashInfo;\r\n    }\r\n\r\n    function createNewMission(\r\n        string memory _urlMetadata,\r\n        uint256 _award,\r\n        uint256 _maxEntrant,\r\n        address _persionInCharge,\r\n        uint256 _startTime,\r\n        uint256 _endTimeToRegister,\r\n        uint256 _endTime,\r\n        uint256 _endTimeToConfirm\r\n    ) external onlyRoleAdmin {\r\n        address missionContract = factory.createNewMission(\r\n            address(this),\r\n            address(accessControll),\r\n            address(rewardDistributor)\r\n        );\r\n        pools.push(Object(missionContract, Type.Mission));\r\n        existed[missionContract] = true;\r\n        uint256 _missionId = idCountMission.current();\r\n        idCountMission.increment();\r\n        IMissionContract(missionContract).setBasicForMission(\r\n            _missionId,\r\n            _urlMetadata,\r\n            _award,\r\n            _maxEntrant,\r\n            _persionInCharge,\r\n            _startTime,\r\n            _endTimeToRegister,\r\n            _endTime,\r\n            _endTimeToConfirm\r\n        );\r\n        IMissionContract(missionContract).start();\r\n        rewardDistributor.addDistributorsAddress(missionContract);\r\n    }\r\n\r\n    function createNewSubject(\r\n        string memory _urlMetadata,\r\n        uint256 _maxEntrant,\r\n        address _persionInCharge,\r\n        uint256 _startTime,\r\n        uint256 _endTimeToRegister,\r\n        uint256 _endTime,\r\n        uint256 _endTimeToConfirm\r\n    ) external onlyRoleAdmin {\r\n        address subjectContract = factory.createNewSubject(\r\n            address(this),\r\n            address(accessControll)\r\n        );\r\n        pools.push(Object(subjectContract, Type.Subject));\r\n        existed[subjectContract] = true;\r\n        uint256 _subjectId = idCountSubject.current();\r\n        idCountSubject.increment();\r\n        ISubjectContract(subjectContract).setBasicForSubject(\r\n            _subjectId,\r\n            _urlMetadata,\r\n            _maxEntrant,\r\n            _persionInCharge,\r\n            _startTime,\r\n            _endTimeToRegister,\r\n            _endTime,\r\n            _endTimeToConfirm\r\n        );\r\n        // ISubjectContract(subjectContract).setScoreColumn(qt, gk, th, ck);\r\n        ISubjectContract(subjectContract).start();\r\n        // rewardDistributor.addDistributorsAddress(subjectContract);\r\n    }\r\n\r\n    function createNewScholarship(\r\n        string memory _urlMetadata,\r\n        uint256 _award,\r\n        uint256 _startTime,\r\n        uint256 _endTime\r\n    ) external onlyRoleAdmin {\r\n        address scholarshipContract = factory.createNewScholarship(\r\n            address(this),\r\n            address(accessControll),\r\n            address(rewardDistributor)\r\n        );\r\n        pools.push(Object(scholarshipContract, Type.Scholarship));\r\n        existed[scholarshipContract] = true;\r\n        uint256 _scholarshipId = idCountScholarship.current();\r\n        idCountScholarship.increment();\r\n        IScholarshipContract(scholarshipContract).setBasicForScholarship(\r\n            _scholarshipId,\r\n            _urlMetadata,\r\n            _award,\r\n            _startTime,\r\n            _endTime\r\n        );\r\n        IScholarshipContract(scholarshipContract).start();\r\n        rewardDistributor.addDistributorsAddress(scholarshipContract);\r\n    }\r\n\r\n    function createNewTuition(\r\n        string memory _urlMetadata,\r\n        uint256 _feeByToken,\r\n        uint256 _startTime,\r\n        uint256 _endTime\r\n    ) external onlyRoleAdmin {\r\n        address tuitionContract = factory.createNewTuition(\r\n            address(this),\r\n            address(accessControll),\r\n            address(rewardDistributor)\r\n        );\r\n        pools.push(Object(tuitionContract, Type.Tuition));\r\n        existed[tuitionContract] = true;\r\n        uint256 _tuitionId = idCountTuition.current();\r\n        idCountTuition.increment();\r\n        ITuitionContract(tuitionContract).setBasicForTuition(\r\n            _tuitionId,\r\n            _urlMetadata,\r\n            _feeByToken,\r\n            _startTime,\r\n            _endTime\r\n        );\r\n        ITuitionContract(tuitionContract).start();\r\n        rewardDistributor.addDistributorsAddress(tuitionContract);\r\n    }\r\n\r\n    function close(address pool) external onlyRoleAdmin {\r\n        IGeneralContract(pool).close();\r\n        _removeDistributor(pool);\r\n    }\r\n\r\n    function _removeDistributor(address pool) private onlyRoleAdmin {\r\n        require(existed[pool]);\r\n        rewardDistributor.removeDistributorsAddress(pool);\r\n    }\r\n}\r\n",
  "sourcePath": "E:\\KLTN\\KLTN\\KLTN-contracts\\contracts\\studentmanager\\MangerPool.sol",
  "compiler": {
    "name": "solc",
    "version": "0.8.13+commit.abaa5c0e.Emscripten.clang"
  },
  "schemaVersion": "3.4.3",
  "updatedAt": "2022-05-14T13:42:58.386Z",
  "devdoc": {
    "kind": "dev",
    "methods": {
      "owner()": {
        "details": "Returns the address of the current owner."
      },
      "renounceOwnership()": {
        "details": "Leaves the contract without owner. It will not be possible to call `onlyOwner` functions anymore. Can only be called by the current owner. NOTE: Renouncing ownership will leave the contract without an owner, thereby removing any functionality that is only available to the owner."
      },
      "transferOwnership(address)": {
        "details": "Transfers ownership of the contract to a new account (`newOwner`). Can only be called by the current owner."
      }
    },
    "version": 1
  },
  "userdoc": {
    "kind": "user",
    "methods": {},
    "version": 1
  }
}