{
  "contractName": "ManagerPool",
  "abi": [
    {
      "inputs": [
        {
          "internalType": "address",
          "name": "_factory",
          "type": "address"
        },
        {
          "internalType": "address",
          "name": "_accessControll",
          "type": "address"
        },
        {
          "internalType": "address",
          "name": "_rewardDistributor",
          "type": "address"
        }
      ],
      "stateMutability": "nonpayable",
      "type": "constructor"
    },
    {
      "anonymous": false,
      "inputs": [
        {
          "indexed": false,
          "internalType": "address",
          "name": "lecturerAddr",
          "type": "address"
        },
        {
          "indexed": false,
          "internalType": "string",
          "name": "hashInfo",
          "type": "string"
        }
      ],
      "name": "AddLecturerInfo",
      "type": "event"
    },
    {
      "anonymous": false,
      "inputs": [
        {
          "indexed": false,
          "internalType": "address",
          "name": "studentAddr",
          "type": "address"
        },
        {
          "indexed": false,
          "internalType": "string",
          "name": "hashInfo",
          "type": "string"
        }
      ],
      "name": "AddStudentInfo",
      "type": "event"
    },
    {
      "anonymous": false,
      "inputs": [
        {
          "indexed": false,
          "internalType": "string",
          "name": "_urlMetadata",
          "type": "string"
        }
      ],
      "name": "NewMission",
      "type": "event"
    },
    {
      "anonymous": false,
      "inputs": [
        {
          "indexed": false,
          "internalType": "string",
          "name": "_urlMetadata",
          "type": "string"
        }
      ],
      "name": "NewScholarship",
      "type": "event"
    },
    {
      "anonymous": false,
      "inputs": [
        {
          "indexed": false,
          "internalType": "string",
          "name": "_urlMetadata",
          "type": "string"
        }
      ],
      "name": "NewSubject",
      "type": "event"
    },
    {
      "anonymous": false,
      "inputs": [
        {
          "indexed": false,
          "internalType": "string",
          "name": "_urlMetadata",
          "type": "string"
        }
      ],
      "name": "NewTuition",
      "type": "event"
    },
    {
      "anonymous": false,
      "inputs": [
        {
          "indexed": true,
          "internalType": "address",
          "name": "previousOwner",
          "type": "address"
        },
        {
          "indexed": true,
          "internalType": "address",
          "name": "newOwner",
          "type": "address"
        }
      ],
      "name": "OwnershipTransferred",
      "type": "event"
    },
    {
      "anonymous": false,
      "inputs": [
        {
          "indexed": false,
          "internalType": "address",
          "name": "studentAddr",
          "type": "address"
        },
        {
          "indexed": false,
          "internalType": "string",
          "name": "hashInfo",
          "type": "string"
        }
      ],
      "name": "UpdateStudentInfo",
      "type": "event"
    },
    {
      "inputs": [],
      "name": "accessControll",
      "outputs": [
        {
          "internalType": "contract IAccessControl",
          "name": "",
          "type": "address"
        }
      ],
      "stateMutability": "view",
      "type": "function",
      "constant": true
    },
    {
      "inputs": [
        {
          "internalType": "address",
          "name": "",
          "type": "address"
        }
      ],
      "name": "existed",
      "outputs": [
        {
          "internalType": "bool",
          "name": "",
          "type": "bool"
        }
      ],
      "stateMutability": "view",
      "type": "function",
      "constant": true
    },
    {
      "inputs": [],
      "name": "factory",
      "outputs": [
        {
          "internalType": "contract IFactory",
          "name": "",
          "type": "address"
        }
      ],
      "stateMutability": "view",
      "type": "function",
      "constant": true
    },
    {
      "inputs": [],
      "name": "idCountMission",
      "outputs": [
        {
          "internalType": "uint256",
          "name": "_value",
          "type": "uint256"
        }
      ],
      "stateMutability": "view",
      "type": "function",
      "constant": true
    },
    {
      "inputs": [],
      "name": "idCountScholarship",
      "outputs": [
        {
          "internalType": "uint256",
          "name": "_value",
          "type": "uint256"
        }
      ],
      "stateMutability": "view",
      "type": "function",
      "constant": true
    },
    {
      "inputs": [],
      "name": "idCountSubject",
      "outputs": [
        {
          "internalType": "uint256",
          "name": "_value",
          "type": "uint256"
        }
      ],
      "stateMutability": "view",
      "type": "function",
      "constant": true
    },
    {
      "inputs": [],
      "name": "idCountTuition",
      "outputs": [
        {
          "internalType": "uint256",
          "name": "_value",
          "type": "uint256"
        }
      ],
      "stateMutability": "view",
      "type": "function",
      "constant": true
    },
    {
      "inputs": [
        {
          "internalType": "address",
          "name": "",
          "type": "address"
        }
      ],
      "name": "lecturerInfo",
      "outputs": [
        {
          "internalType": "string",
          "name": "",
          "type": "string"
        }
      ],
      "stateMutability": "view",
      "type": "function",
      "constant": true
    },
    {
      "inputs": [],
      "name": "owner",
      "outputs": [
        {
          "internalType": "address",
          "name": "",
          "type": "address"
        }
      ],
      "stateMutability": "view",
      "type": "function",
      "constant": true
    },
    {
      "inputs": [
        {
          "internalType": "uint256",
          "name": "",
          "type": "uint256"
        }
      ],
      "name": "pools",
      "outputs": [
        {
          "internalType": "address",
          "name": "objectAddress",
          "type": "address"
        },
        {
          "internalType": "enum ManagerPool.Type",
          "name": "tipe",
          "type": "uint8"
        }
      ],
      "stateMutability": "view",
      "type": "function",
      "constant": true
    },
    {
      "inputs": [],
      "name": "renounceOwnership",
      "outputs": [],
      "stateMutability": "nonpayable",
      "type": "function"
    },
    {
      "inputs": [],
      "name": "rewardDistributor",
      "outputs": [
        {
          "internalType": "contract IRewardDistributor",
          "name": "",
          "type": "address"
        }
      ],
      "stateMutability": "view",
      "type": "function",
      "constant": true
    },
    {
      "inputs": [
        {
          "internalType": "address",
          "name": "",
          "type": "address"
        }
      ],
      "name": "studentInfo",
      "outputs": [
        {
          "internalType": "string",
          "name": "",
          "type": "string"
        }
      ],
      "stateMutability": "view",
      "type": "function",
      "constant": true
    },
    {
      "inputs": [
        {
          "internalType": "address",
          "name": "newOwner",
          "type": "address"
        }
      ],
      "name": "transferOwnership",
      "outputs": [],
      "stateMutability": "nonpayable",
      "type": "function"
    },
    {
      "inputs": [
        {
          "internalType": "address",
          "name": "_factory",
          "type": "address"
        }
      ],
      "name": "setFactory",
      "outputs": [],
      "stateMutability": "nonpayable",
      "type": "function"
    },
    {
      "inputs": [
        {
          "internalType": "address",
          "name": "studentAddr",
          "type": "address"
        },
        {
          "internalType": "string",
          "name": "hashInfo",
          "type": "string"
        }
      ],
      "name": "addStudentInfo",
      "outputs": [],
      "stateMutability": "nonpayable",
      "type": "function"
    },
    {
      "inputs": [
        {
          "internalType": "address",
          "name": "studentAdress",
          "type": "address"
        },
        {
          "internalType": "string",
          "name": "hash",
          "type": "string"
        }
      ],
      "name": "update",
      "outputs": [],
      "stateMutability": "nonpayable",
      "type": "function"
    },
    {
      "inputs": [
        {
          "internalType": "address",
          "name": "lecturerAddr",
          "type": "address"
        },
        {
          "internalType": "string",
          "name": "hashInfo",
          "type": "string"
        }
      ],
      "name": "addLecturerInfo",
      "outputs": [],
      "stateMutability": "nonpayable",
      "type": "function"
    },
    {
      "inputs": [
        {
          "internalType": "string",
          "name": "_urlMetadata",
          "type": "string"
        },
        {
          "internalType": "string",
          "name": "_missionId",
          "type": "string"
        },
        {
          "internalType": "uint256",
          "name": "_award",
          "type": "uint256"
        },
        {
          "internalType": "uint256",
          "name": "_maxEntrant",
          "type": "uint256"
        },
        {
          "internalType": "address",
          "name": "_persionInCharge",
          "type": "address"
        },
        {
          "internalType": "uint256",
          "name": "_startTime",
          "type": "uint256"
        },
        {
          "internalType": "uint256",
          "name": "_endTimeToRegister",
          "type": "uint256"
        },
        {
          "internalType": "uint256",
          "name": "_endTime",
          "type": "uint256"
        },
        {
          "internalType": "uint256",
          "name": "_endTimeToConfirm",
          "type": "uint256"
        }
      ],
      "name": "createNewMission",
      "outputs": [],
      "stateMutability": "nonpayable",
      "type": "function"
    },
    {
      "inputs": [
        {
          "internalType": "string",
          "name": "_urlMetadata",
          "type": "string"
        },
        {
          "internalType": "string",
          "name": "_subjectId",
          "type": "string"
        },
        {
          "internalType": "uint256",
          "name": "_maxEntrant",
          "type": "uint256"
        },
        {
          "internalType": "address",
          "name": "_persionInCharge",
          "type": "address"
        },
        {
          "internalType": "uint256",
          "name": "_startTime",
          "type": "uint256"
        },
        {
          "internalType": "uint256",
          "name": "_endTimeToRegister",
          "type": "uint256"
        },
        {
          "internalType": "uint256",
          "name": "_endTime",
          "type": "uint256"
        },
        {
          "internalType": "uint256",
          "name": "_endTimeToConfirm",
          "type": "uint256"
        }
      ],
      "name": "createNewSubject",
      "outputs": [],
      "stateMutability": "nonpayable",
      "type": "function"
    },
    {
      "inputs": [
        {
          "internalType": "string",
          "name": "_urlMetadata",
          "type": "string"
        },
        {
          "internalType": "string",
          "name": "_scholarshipId",
          "type": "string"
        },
        {
          "internalType": "uint256",
          "name": "_award",
          "type": "uint256"
        },
        {
          "internalType": "uint256",
          "name": "_startTime",
          "type": "uint256"
        },
        {
          "internalType": "uint256",
          "name": "_endTime",
          "type": "uint256"
        }
      ],
      "name": "createNewScholarship",
      "outputs": [],
      "stateMutability": "nonpayable",
      "type": "function"
    },
    {
      "inputs": [
        {
          "internalType": "string",
          "name": "_urlMetadata",
          "type": "string"
        },
        {
          "internalType": "string",
          "name": "_tuitionId",
          "type": "string"
        },
        {
          "internalType": "uint256",
          "name": "_feeByToken",
          "type": "uint256"
        },
        {
          "internalType": "uint256",
          "name": "_startTime",
          "type": "uint256"
        },
        {
          "internalType": "uint256",
          "name": "_endTime",
          "type": "uint256"
        }
      ],
      "name": "createNewTuition",
      "outputs": [],
      "stateMutability": "nonpayable",
      "type": "function"
    },
    {
      "inputs": [
        {
          "internalType": "address",
          "name": "pool",
          "type": "address"
        }
      ],
      "name": "close",
      "outputs": [],
      "stateMutability": "nonpayable",
      "type": "function"
    }
  ],
  "bytecode": "0x60806040523480156200001157600080fd5b506040516200394538038062003945833981810160405281019062000037919062000259565b620000576200004b6200012360201b60201c565b6200012b60201b60201c565b82600160006101000a81548173ffffffffffffffffffffffffffffffffffffffff021916908373ffffffffffffffffffffffffffffffffffffffff16021790555081600260006101000a81548173ffffffffffffffffffffffffffffffffffffffff021916908373ffffffffffffffffffffffffffffffffffffffff16021790555080600360006101000a81548173ffffffffffffffffffffffffffffffffffffffff021916908373ffffffffffffffffffffffffffffffffffffffff160217905550505050620002b5565b600033905090565b60008060009054906101000a900473ffffffffffffffffffffffffffffffffffffffff169050816000806101000a81548173ffffffffffffffffffffffffffffffffffffffff021916908373ffffffffffffffffffffffffffffffffffffffff1602179055508173ffffffffffffffffffffffffffffffffffffffff168173ffffffffffffffffffffffffffffffffffffffff167f8be0079c531659141344cd1fd0a4f28419497f9722a3daafe3b4186f6b6457e060405160405180910390a35050565b600080fd5b600073ffffffffffffffffffffffffffffffffffffffff82169050919050565b60006200022182620001f4565b9050919050565b620002338162000214565b81146200023f57600080fd5b50565b600081519050620002538162000228565b92915050565b600080600060608486031215620002755762000274620001ef565b5b6000620002858682870162000242565b9350506020620002988682870162000242565b9250506040620002ab8682870162000242565b9150509250925092565b61368080620002c56000396000f3fe608060405234801561001057600080fd5b506004361061014d5760003560e01c80638da5cb5b116100c3578063c74073a11161007c578063c74073a114610379578063cb8a73bc14610395578063d2a49de5146103b1578063dcff175a146103cd578063eb49ad47146103eb578063f2fde38b146104095761014d565b80638da5cb5b146102a0578063aa4936ce146102be578063ac4afa38146102dc578063acc2166a1461030d578063c225fc381461032b578063c45a01551461035b5761014d565b80635e65f689116101155780635e65f689146101f6578063715018a61461021257806374dba9691461021c578063803cec3214610238578063838e7c3a146102545780638c248ffd146102705761014d565b80631ee965f1146101525780632420ba3a146101705780633b7d89521461018c5780633d847dda146101aa5780635bb47808146101da575b600080fd5b61015a610425565b6040516101679190612755565b60405180910390f35b61018a600480360381019061018591906128f6565b610431565b005b6101946108ec565b6040516101a19190612755565b60405180910390f35b6101c460048036038101906101bf9190612a07565b6108f8565b6040516101d19190612abc565b60405180910390f35b6101f460048036038101906101ef9190612a07565b610998565b005b610210600480360381019061020b91906128f6565b610a58565b005b61021a610f14565b005b61023660048036038101906102319190612ade565b610f9c565b005b610252600480360381019061024d9190612bcc565b6113b0565b005b61026e60048036038101906102699190612cce565b611878565b005b61028a60048036038101906102859190612a07565b611b40565b6040516102979190612abc565b60405180910390f35b6102a8611be0565b6040516102b59190612d39565b60405180910390f35b6102c6611c09565b6040516102d39190612db3565b60405180910390f35b6102f660048036038101906102f19190612dce565b611c2f565b604051610304929190612e72565b60405180910390f35b610315611c8c565b6040516103229190612ebc565b60405180910390f35b61034560048036038101906103409190612a07565b611cb2565b6040516103529190612ef2565b60405180910390f35b610363611cd2565b6040516103709190612f2e565b60405180910390f35b610393600480360381019061038e9190612a07565b611cf8565b005b6103af60048036038101906103aa9190612cce565b611e61565b005b6103cb60048036038101906103c69190612cce565b61209e565b005b6103d56122db565b6040516103e29190612755565b60405180910390f35b6103f36122e7565b6040516104009190612755565b60405180910390f35b610423600480360381019061041e9190612a07565b6122f3565b005b60068060000154905081565b600260009054906101000a900473ffffffffffffffffffffffffffffffffffffffff1673ffffffffffffffffffffffffffffffffffffffff166391d148547fdf8b4c520ffe197c5343c6f5aec59570151ef9a492f2c624fd45ddde6135ec42336040518363ffffffff1660e01b81526004016104ae929190612f62565b602060405180830381865afa1580156104cb573d6000803e3d6000fd5b505050506040513d601f19601f820116820180604052508101906104ef9190612fb7565b61052e576040517f08c379a000000000000000000000000000000000000000000000000000000000815260040161052590613030565b60405180910390fd5b6000600160009054906101000a900473ffffffffffffffffffffffffffffffffffffffff1673ffffffffffffffffffffffffffffffffffffffff1663029c678530600260009054906101000a900473ffffffffffffffffffffffffffffffffffffffff16600360009054906101000a900473ffffffffffffffffffffffffffffffffffffffff166040518463ffffffff1660e01b81526004016105d393929190613050565b6020604051808303816000875af11580156105f2573d6000803e3d6000fd5b505050506040513d601f19601f82011682018060405250810190610616919061309c565b9050600460405180604001604052808373ffffffffffffffffffffffffffffffffffffffff16815260200160038081111561065457610653612dfb565b5b8152509080600181540180825580915050600190039060005260206000200160009091909190915060008201518160000160006101000a81548173ffffffffffffffffffffffffffffffffffffffff021916908373ffffffffffffffffffffffffffffffffffffffff16021790555060208201518160000160146101000a81548160ff021916908360038111156106ee576106ed612dfb565b5b021790555050506001600560008373ffffffffffffffffffffffffffffffffffffffff1673ffffffffffffffffffffffffffffffffffffffff16815260200190815260200160002060006101000a81548160ff0219169083151502179055508073ffffffffffffffffffffffffffffffffffffffff16630474f49c86888787876040518663ffffffff1660e01b815260040161078e9594939291906130c9565b600060405180830381600087803b1580156107a857600080fd5b505af11580156107bc573d6000803e3d6000fd5b505050508073ffffffffffffffffffffffffffffffffffffffff1663be9a65556040518163ffffffff1660e01b8152600401600060405180830381600087803b15801561080857600080fd5b505af115801561081c573d6000803e3d6000fd5b50505050600360009054906101000a900473ffffffffffffffffffffffffffffffffffffffff1673ffffffffffffffffffffffffffffffffffffffff166305380898826040518263ffffffff1660e01b815260040161087b9190612d39565b600060405180830381600087803b15801561089557600080fd5b505af11580156108a9573d6000803e3d6000fd5b505050507fc1165cf32dbf369d299e5a743171f5dfc4ac13f44c56283b3f2f1b463b6f721f866040516108dc9190612abc565b60405180910390a1505050505050565b60088060000154905081565b600a602052806000526040600020600091509050805461091790613159565b80601f016020809104026020016040519081016040528092919081815260200182805461094390613159565b80156109905780601f1061096557610100808354040283529160200191610990565b820191906000526020600020905b81548152906001019060200180831161097357829003601f168201915b505050505081565b6109a06123ea565b73ffffffffffffffffffffffffffffffffffffffff166109be611be0565b73ffffffffffffffffffffffffffffffffffffffff1614610a14576040517f08c379a0000000000000000000000000000000000000000000000000000000008152600401610a0b906131d6565b60405180910390fd5b80600160006101000a81548173ffffffffffffffffffffffffffffffffffffffff021916908373ffffffffffffffffffffffffffffffffffffffff16021790555050565b600260009054906101000a900473ffffffffffffffffffffffffffffffffffffffff1673ffffffffffffffffffffffffffffffffffffffff166391d148547fdf8b4c520ffe197c5343c6f5aec59570151ef9a492f2c624fd45ddde6135ec42336040518363ffffffff1660e01b8152600401610ad5929190612f62565b602060405180830381865afa158015610af2573d6000803e3d6000fd5b505050506040513d601f19601f82011682018060405250810190610b169190612fb7565b610b55576040517f08c379a0000000000000000000000000000000000000000000000000000000008152600401610b4c90613030565b60405180910390fd5b6000600160009054906101000a900473ffffffffffffffffffffffffffffffffffffffff1673ffffffffffffffffffffffffffffffffffffffff1663378ac24530600260009054906101000a900473ffffffffffffffffffffffffffffffffffffffff16600360009054906101000a900473ffffffffffffffffffffffffffffffffffffffff166040518463ffffffff1660e01b8152600401610bfa93929190613050565b6020604051808303816000875af1158015610c19573d6000803e3d6000fd5b505050506040513d601f19601f82011682018060405250810190610c3d919061309c565b9050600460405180604001604052808373ffffffffffffffffffffffffffffffffffffffff16815260200160026003811115610c7c57610c7b612dfb565b5b8152509080600181540180825580915050600190039060005260206000200160009091909190915060008201518160000160006101000a81548173ffffffffffffffffffffffffffffffffffffffff021916908373ffffffffffffffffffffffffffffffffffffffff16021790555060208201518160000160146101000a81548160ff02191690836003811115610d1657610d15612dfb565b5b021790555050506001600560008373ffffffffffffffffffffffffffffffffffffffff1673ffffffffffffffffffffffffffffffffffffffff16815260200190815260200160002060006101000a81548160ff0219169083151502179055508073ffffffffffffffffffffffffffffffffffffffff166303f8d50f86888787876040518663ffffffff1660e01b8152600401610db69594939291906130c9565b600060405180830381600087803b158015610dd057600080fd5b505af1158015610de4573d6000803e3d6000fd5b505050508073ffffffffffffffffffffffffffffffffffffffff1663be9a65556040518163ffffffff1660e01b8152600401600060405180830381600087803b158015610e3057600080fd5b505af1158015610e44573d6000803e3d6000fd5b50505050600360009054906101000a900473ffffffffffffffffffffffffffffffffffffffff1673ffffffffffffffffffffffffffffffffffffffff166305380898826040518263ffffffff1660e01b8152600401610ea39190612d39565b600060405180830381600087803b158015610ebd57600080fd5b505af1158015610ed1573d6000803e3d6000fd5b505050507f563fa4e16af56967b5bb70c4e1bfd8b5568b94ce70f64fcfbdfbc3994b78f2ee86604051610f049190612abc565b60405180910390a1505050505050565b610f1c6123ea565b73ffffffffffffffffffffffffffffffffffffffff16610f3a611be0565b73ffffffffffffffffffffffffffffffffffffffff1614610f90576040517f08c379a0000000000000000000000000000000000000000000000000000000008152600401610f87906131d6565b60405180910390fd5b610f9a60006123f2565b565b600260009054906101000a900473ffffffffffffffffffffffffffffffffffffffff1673ffffffffffffffffffffffffffffffffffffffff166391d148547fdf8b4c520ffe197c5343c6f5aec59570151ef9a492f2c624fd45ddde6135ec42336040518363ffffffff1660e01b8152600401611019929190612f62565b602060405180830381865afa158015611036573d6000803e3d6000fd5b505050506040513d601f19601f8201168201806040525081019061105a9190612fb7565b611099576040517f08c379a000000000000000000000000000000000000000000000000000000000815260040161109090613030565b60405180910390fd5b6000600160009054906101000a900473ffffffffffffffffffffffffffffffffffffffff1673ffffffffffffffffffffffffffffffffffffffff1663b928882e30600260009054906101000a900473ffffffffffffffffffffffffffffffffffffffff166040518363ffffffff1660e01b815260040161111a9291906131f6565b6020604051808303816000875af1158015611139573d6000803e3d6000fd5b505050506040513d601f19601f8201168201806040525081019061115d919061309c565b9050600460405180604001604052808373ffffffffffffffffffffffffffffffffffffffff1681526020016001600381111561119c5761119b612dfb565b5b8152509080600181540180825580915050600190039060005260206000200160009091909190915060008201518160000160006101000a81548173ffffffffffffffffffffffffffffffffffffffff021916908373ffffffffffffffffffffffffffffffffffffffff16021790555060208201518160000160146101000a81548160ff0219169083600381111561123657611235612dfb565b5b021790555050506001600560008373ffffffffffffffffffffffffffffffffffffffff1673ffffffffffffffffffffffffffffffffffffffff16815260200190815260200160002060006101000a81548160ff0219169083151502179055508073ffffffffffffffffffffffffffffffffffffffff166304d291f2898b8a8a8a8a8a8a6040518963ffffffff1660e01b81526004016112dc98979695949392919061321f565b600060405180830381600087803b1580156112f657600080fd5b505af115801561130a573d6000803e3d6000fd5b505050508073ffffffffffffffffffffffffffffffffffffffff1663be9a65556040518163ffffffff1660e01b8152600401600060405180830381600087803b15801561135657600080fd5b505af115801561136a573d6000803e3d6000fd5b505050507fc6fc663f92c7c4dcc0d3d3a1db7562ba8228fd5fbfa03409b4c709c66ecde8818960405161139d9190612abc565b60405180910390a1505050505050505050565b600260009054906101000a900473ffffffffffffffffffffffffffffffffffffffff1673ffffffffffffffffffffffffffffffffffffffff166391d148547fdf8b4c520ffe197c5343c6f5aec59570151ef9a492f2c624fd45ddde6135ec42336040518363ffffffff1660e01b815260040161142d929190612f62565b602060405180830381865afa15801561144a573d6000803e3d6000fd5b505050506040513d601f19601f8201168201806040525081019061146e9190612fb7565b6114ad576040517f08c379a00000000000000000000000000000000000000000000000000000000081526004016114a490613030565b60405180910390fd5b6000600160009054906101000a900473ffffffffffffffffffffffffffffffffffffffff1673ffffffffffffffffffffffffffffffffffffffff1663e162fa7730600260009054906101000a900473ffffffffffffffffffffffffffffffffffffffff16600360009054906101000a900473ffffffffffffffffffffffffffffffffffffffff166040518463ffffffff1660e01b815260040161155293929190613050565b6020604051808303816000875af1158015611571573d6000803e3d6000fd5b505050506040513d601f19601f82011682018060405250810190611595919061309c565b9050600460405180604001604052808373ffffffffffffffffffffffffffffffffffffffff168152602001600060038111156115d4576115d3612dfb565b5b8152509080600181540180825580915050600190039060005260206000200160009091909190915060008201518160000160006101000a81548173ffffffffffffffffffffffffffffffffffffffff021916908373ffffffffffffffffffffffffffffffffffffffff16021790555060208201518160000160146101000a81548160ff0219169083600381111561166e5761166d612dfb565b5b021790555050506001600560008373ffffffffffffffffffffffffffffffffffffffff1673ffffffffffffffffffffffffffffffffffffffff16815260200190815260200160002060006101000a81548160ff0219169083151502179055508073ffffffffffffffffffffffffffffffffffffffff166371b26bd48a8c8b8b8b8b8b8b8b6040518a63ffffffff1660e01b8152600401611716999897969594939291906132ab565b600060405180830381600087803b15801561173057600080fd5b505af1158015611744573d6000803e3d6000fd5b505050508073ffffffffffffffffffffffffffffffffffffffff1663be9a65556040518163ffffffff1660e01b8152600401600060405180830381600087803b15801561179057600080fd5b505af11580156117a4573d6000803e3d6000fd5b50505050600360009054906101000a900473ffffffffffffffffffffffffffffffffffffffff1673ffffffffffffffffffffffffffffffffffffffff166305380898826040518263ffffffff1660e01b81526004016118039190612d39565b600060405180830381600087803b15801561181d57600080fd5b505af1158015611831573d6000803e3d6000fd5b505050507f98b7175eae2b911cbf4b0fd03294e33cd22d8095d7284d28b36bad11ff40eee08a6040516118649190612abc565b60405180910390a150505050505050505050565b600260009054906101000a900473ffffffffffffffffffffffffffffffffffffffff1673ffffffffffffffffffffffffffffffffffffffff166391d148547fc951d7098b66ba0b8b77265b6e9cf0e187d73125a42bcd0061b09a68be421810336040518363ffffffff1660e01b81526004016118f5929190612f62565b602060405180830381865afa158015611912573d6000803e3d6000fd5b505050506040513d601f19601f820116820180604052508101906119369190612fb7565b611975576040517f08c379a000000000000000000000000000000000000000000000000000000000815260040161196c90613392565b60405180910390fd5b3373ffffffffffffffffffffffffffffffffffffffff168273ffffffffffffffffffffffffffffffffffffffff16146119e3576040517f08c379a00000000000000000000000000000000000000000000000000000000081526004016119da906133fe565b60405180910390fd5b806040516020016119f4919061345a565b60405160208183030381529060405280519060200120600a60003373ffffffffffffffffffffffffffffffffffffffff1673ffffffffffffffffffffffffffffffffffffffff168152602001908152602001600020604051602001611a599190613505565b6040516020818303038152906040528051906020012003611aaf576040517f08c379a0000000000000000000000000000000000000000000000000000000008152600401611aa690613568565b60405180910390fd5b80600a60003373ffffffffffffffffffffffffffffffffffffffff1673ffffffffffffffffffffffffffffffffffffffff1681526020019081526020016000209080519060200190611b02929190612699565b507f7add425044706742e2e283f2538670a19f769b389a85093b4dc2d6ab74d4c2f28282604051611b34929190613588565b60405180910390a15050565b600b6020528060005260406000206000915090508054611b5f90613159565b80601f0160208091040260200160405190810160405280929190818152602001828054611b8b90613159565b8015611bd85780601f10611bad57610100808354040283529160200191611bd8565b820191906000526020600020905b815481529060010190602001808311611bbb57829003601f168201915b505050505081565b60008060009054906101000a900473ffffffffffffffffffffffffffffffffffffffff16905090565b600260009054906101000a900473ffffffffffffffffffffffffffffffffffffffff1681565b60048181548110611c3f57600080fd5b906000526020600020016000915090508060000160009054906101000a900473ffffffffffffffffffffffffffffffffffffffff16908060000160149054906101000a900460ff16905082565b600360009054906101000a900473ffffffffffffffffffffffffffffffffffffffff1681565b60056020528060005260406000206000915054906101000a900460ff1681565b600160009054906101000a900473ffffffffffffffffffffffffffffffffffffffff1681565b600260009054906101000a900473ffffffffffffffffffffffffffffffffffffffff1673ffffffffffffffffffffffffffffffffffffffff166391d148547fdf8b4c520ffe197c5343c6f5aec59570151ef9a492f2c624fd45ddde6135ec42336040518363ffffffff1660e01b8152600401611d75929190612f62565b602060405180830381865afa158015611d92573d6000803e3d6000fd5b505050506040513d601f19601f82011682018060405250810190611db69190612fb7565b611df5576040517f08c379a0000000000000000000000000000000000000000000000000000000008152600401611dec90613030565b60405180910390fd5b8073ffffffffffffffffffffffffffffffffffffffff166343d726d66040518163ffffffff1660e01b8152600401600060405180830381600087803b158015611e3d57600080fd5b505af1158015611e51573d6000803e3d6000fd5b50505050611e5e816124b6565b50565b600260009054906101000a900473ffffffffffffffffffffffffffffffffffffffff1673ffffffffffffffffffffffffffffffffffffffff166391d148547fdf8b4c520ffe197c5343c6f5aec59570151ef9a492f2c624fd45ddde6135ec42336040518363ffffffff1660e01b8152600401611ede929190612f62565b602060405180830381865afa158015611efb573d6000803e3d6000fd5b505050506040513d601f19601f82011682018060405250810190611f1f9190612fb7565b611f5e576040517f08c379a0000000000000000000000000000000000000000000000000000000008152600401611f5590613030565b60405180910390fd5b80600a60008473ffffffffffffffffffffffffffffffffffffffff1673ffffffffffffffffffffffffffffffffffffffff1681526020019081526020016000209080519060200190611fb1929190612699565b50600260009054906101000a900473ffffffffffffffffffffffffffffffffffffffff1673ffffffffffffffffffffffffffffffffffffffff16632f2ff15d7fc951d7098b66ba0b8b77265b6e9cf0e187d73125a42bcd0061b09a68be421810846040518363ffffffff1660e01b815260040161202f929190612f62565b600060405180830381600087803b15801561204957600080fd5b505af115801561205d573d6000803e3d6000fd5b505050507ffdd3920a5df8f31cf3ba0d2040eca189dbc1c055be16c65ce139ebc9da0170638282604051612092929190613588565b60405180910390a15050565b600260009054906101000a900473ffffffffffffffffffffffffffffffffffffffff1673ffffffffffffffffffffffffffffffffffffffff166391d148547fdf8b4c520ffe197c5343c6f5aec59570151ef9a492f2c624fd45ddde6135ec42336040518363ffffffff1660e01b815260040161211b929190612f62565b602060405180830381865afa158015612138573d6000803e3d6000fd5b505050506040513d601f19601f8201168201806040525081019061215c9190612fb7565b61219b576040517f08c379a000000000000000000000000000000000000000000000000000000000815260040161219290613030565b60405180910390fd5b80600b60008473ffffffffffffffffffffffffffffffffffffffff1673ffffffffffffffffffffffffffffffffffffffff16815260200190815260200160002090805190602001906121ee929190612699565b50600260009054906101000a900473ffffffffffffffffffffffffffffffffffffffff1673ffffffffffffffffffffffffffffffffffffffff16632f2ff15d7fb39b9469ac3ddf8d58f06201f7e17350a277b429ed2a39727bf2f3a5165dba1a846040518363ffffffff1660e01b815260040161226c929190612f62565b600060405180830381600087803b15801561228657600080fd5b505af115801561229a573d6000803e3d6000fd5b505050507f7cbab196053aba04a8b888777be28c87d0e9d73c0ea98b3ed897563944fd403d82826040516122cf929190613588565b60405180910390a15050565b60078060000154905081565b60098060000154905081565b6122fb6123ea565b73ffffffffffffffffffffffffffffffffffffffff16612319611be0565b73ffffffffffffffffffffffffffffffffffffffff161461236f576040517f08c379a0000000000000000000000000000000000000000000000000000000008152600401612366906131d6565b60405180910390fd5b600073ffffffffffffffffffffffffffffffffffffffff168173ffffffffffffffffffffffffffffffffffffffff16036123de576040517f08c379a00000000000000000000000000000000000000000000000000000000081526004016123d59061362a565b60405180910390fd5b6123e7816123f2565b50565b600033905090565b60008060009054906101000a900473ffffffffffffffffffffffffffffffffffffffff169050816000806101000a81548173ffffffffffffffffffffffffffffffffffffffff021916908373ffffffffffffffffffffffffffffffffffffffff1602179055508173ffffffffffffffffffffffffffffffffffffffff168173ffffffffffffffffffffffffffffffffffffffff167f8be0079c531659141344cd1fd0a4f28419497f9722a3daafe3b4186f6b6457e060405160405180910390a35050565b600260009054906101000a900473ffffffffffffffffffffffffffffffffffffffff1673ffffffffffffffffffffffffffffffffffffffff166391d148547fdf8b4c520ffe197c5343c6f5aec59570151ef9a492f2c624fd45ddde6135ec42336040518363ffffffff1660e01b8152600401612533929190612f62565b602060405180830381865afa158015612550573d6000803e3d6000fd5b505050506040513d601f19601f820116820180604052508101906125749190612fb7565b6125b3576040517f08c379a00000000000000000000000000000000000000000000000000000000081526004016125aa90613030565b60405180910390fd5b600560008273ffffffffffffffffffffffffffffffffffffffff1673ffffffffffffffffffffffffffffffffffffffff16815260200190815260200160002060009054906101000a900460ff1661260957600080fd5b600360009054906101000a900473ffffffffffffffffffffffffffffffffffffffff1673ffffffffffffffffffffffffffffffffffffffff16633cb7b3bb826040518263ffffffff1660e01b81526004016126649190612d39565b600060405180830381600087803b15801561267e57600080fd5b505af1158015612692573d6000803e3d6000fd5b5050505050565b8280546126a590613159565b90600052602060002090601f0160209004810192826126c7576000855561270e565b82601f106126e057805160ff191683800117855561270e565b8280016001018555821561270e579182015b8281111561270d5782518255916020019190600101906126f2565b5b50905061271b919061271f565b5090565b5b80821115612738576000816000905550600101612720565b5090565b6000819050919050565b61274f8161273c565b82525050565b600060208201905061276a6000830184612746565b92915050565b6000604051905090565b600080fd5b600080fd5b600080fd5b600080fd5b6000601f19601f8301169050919050565b7f4e487b7100000000000000000000000000000000000000000000000000000000600052604160045260246000fd5b6127d78261278e565b810181811067ffffffffffffffff821117156127f6576127f561279f565b5b80604052505050565b6000612809612770565b905061281582826127ce565b919050565b600067ffffffffffffffff8211156128355761283461279f565b5b61283e8261278e565b9050602081019050919050565b82818337600083830152505050565b600061286d6128688461281a565b6127ff565b90508281526020810184848401111561288957612888612789565b5b61289484828561284b565b509392505050565b600082601f8301126128b1576128b0612784565b5b81356128c184826020860161285a565b91505092915050565b6128d38161273c565b81146128de57600080fd5b50565b6000813590506128f0816128ca565b92915050565b600080600080600060a086880312156129125761291161277a565b5b600086013567ffffffffffffffff8111156129305761292f61277f565b5b61293c8882890161289c565b955050602086013567ffffffffffffffff81111561295d5761295c61277f565b5b6129698882890161289c565b945050604061297a888289016128e1565b935050606061298b888289016128e1565b925050608061299c888289016128e1565b9150509295509295909350565b600073ffffffffffffffffffffffffffffffffffffffff82169050919050565b60006129d4826129a9565b9050919050565b6129e4816129c9565b81146129ef57600080fd5b50565b600081359050612a01816129db565b92915050565b600060208284031215612a1d57612a1c61277a565b5b6000612a2b848285016129f2565b91505092915050565b600081519050919050565b600082825260208201905092915050565b60005b83811015612a6e578082015181840152602081019050612a53565b83811115612a7d576000848401525b50505050565b6000612a8e82612a34565b612a988185612a3f565b9350612aa8818560208601612a50565b612ab18161278e565b840191505092915050565b60006020820190508181036000830152612ad68184612a83565b905092915050565b600080600080600080600080610100898b031215612aff57612afe61277a565b5b600089013567ffffffffffffffff811115612b1d57612b1c61277f565b5b612b298b828c0161289c565b985050602089013567ffffffffffffffff811115612b4a57612b4961277f565b5b612b568b828c0161289c565b9750506040612b678b828c016128e1565b9650506060612b788b828c016129f2565b9550506080612b898b828c016128e1565b94505060a0612b9a8b828c016128e1565b93505060c0612bab8b828c016128e1565b92505060e0612bbc8b828c016128e1565b9150509295985092959890939650565b60008060008060008060008060006101208a8c031215612bef57612bee61277a565b5b60008a013567ffffffffffffffff811115612c0d57612c0c61277f565b5b612c198c828d0161289c565b99505060208a013567ffffffffffffffff811115612c3a57612c3961277f565b5b612c468c828d0161289c565b9850506040612c578c828d016128e1565b9750506060612c688c828d016128e1565b9650506080612c798c828d016129f2565b95505060a0612c8a8c828d016128e1565b94505060c0612c9b8c828d016128e1565b93505060e0612cac8c828d016128e1565b925050610100612cbe8c828d016128e1565b9150509295985092959850929598565b60008060408385031215612ce557612ce461277a565b5b6000612cf3858286016129f2565b925050602083013567ffffffffffffffff811115612d1457612d1361277f565b5b612d208582860161289c565b9150509250929050565b612d33816129c9565b82525050565b6000602082019050612d4e6000830184612d2a565b92915050565b6000819050919050565b6000612d79612d74612d6f846129a9565b612d54565b6129a9565b9050919050565b6000612d8b82612d5e565b9050919050565b6000612d9d82612d80565b9050919050565b612dad81612d92565b82525050565b6000602082019050612dc86000830184612da4565b92915050565b600060208284031215612de457612de361277a565b5b6000612df2848285016128e1565b91505092915050565b7f4e487b7100000000000000000000000000000000000000000000000000000000600052602160045260246000fd5b60048110612e3b57612e3a612dfb565b5b50565b6000819050612e4c82612e2a565b919050565b6000612e5c82612e3e565b9050919050565b612e6c81612e51565b82525050565b6000604082019050612e876000830185612d2a565b612e946020830184612e63565b9392505050565b6000612ea682612d80565b9050919050565b612eb681612e9b565b82525050565b6000602082019050612ed16000830184612ead565b92915050565b60008115159050919050565b612eec81612ed7565b82525050565b6000602082019050612f076000830184612ee3565b92915050565b6000612f1882612d80565b9050919050565b612f2881612f0d565b82525050565b6000602082019050612f436000830184612f1f565b92915050565b6000819050919050565b612f5c81612f49565b82525050565b6000604082019050612f776000830185612f53565b612f846020830184612d2a565b9392505050565b612f9481612ed7565b8114612f9f57600080fd5b50565b600081519050612fb181612f8b565b92915050565b600060208284031215612fcd57612fcc61277a565b5b6000612fdb84828501612fa2565b91505092915050565b7f4d503a204f6e6c792041646d696e000000000000000000000000000000000000600082015250565b600061301a600e83612a3f565b915061302582612fe4565b602082019050919050565b600060208201905081810360008301526130498161300d565b9050919050565b60006060820190506130656000830186612d2a565b6130726020830185612d2a565b61307f6040830184612d2a565b949350505050565b600081519050613096816129db565b92915050565b6000602082840312156130b2576130b161277a565b5b60006130c084828501613087565b91505092915050565b600060a08201905081810360008301526130e38188612a83565b905081810360208301526130f78187612a83565b90506131066040830186612746565b6131136060830185612746565b6131206080830184612746565b9695505050505050565b7f4e487b7100000000000000000000000000000000000000000000000000000000600052602260045260246000fd5b6000600282049050600182168061317157607f821691505b6020821081036131845761318361312a565b5b50919050565b7f4f776e61626c653a2063616c6c6572206973206e6f7420746865206f776e6572600082015250565b60006131c0602083612a3f565b91506131cb8261318a565b602082019050919050565b600060208201905081810360008301526131ef816131b3565b9050919050565b600060408201905061320b6000830185612d2a565b6132186020830184612d2a565b9392505050565b600061010082019050818103600083015261323a818b612a83565b9050818103602083015261324e818a612a83565b905061325d6040830189612746565b61326a6060830188612d2a565b6132776080830187612746565b61328460a0830186612746565b61329160c0830185612746565b61329e60e0830184612746565b9998505050505050505050565b60006101208201905081810360008301526132c6818c612a83565b905081810360208301526132da818b612a83565b90506132e9604083018a612746565b6132f66060830189612746565b6133036080830188612d2a565b61331060a0830187612746565b61331d60c0830186612746565b61332a60e0830185612746565b613338610100830184612746565b9a9950505050505050505050565b7f4d433a204f6e6c792053747564656e7400000000000000000000000000000000600082015250565b600061337c601083612a3f565b915061338782613346565b602082019050919050565b600060208201905081810360008301526133ab8161336f565b9050919050565b7f596f7520617265206e6f7420616c6c6f77656400000000000000000000000000600082015250565b60006133e8601383612a3f565b91506133f3826133b2565b602082019050919050565b60006020820190508181036000830152613417816133db565b9050919050565b600081905092915050565b600061343482612a34565b61343e818561341e565b935061344e818560208601612a50565b80840191505092915050565b60006134668284613429565b915081905092915050565b60008190508160005260206000209050919050565b6000815461349381613159565b61349d818661341e565b945060018216600081146134b857600181146134c9576134fc565b60ff198316865281860193506134fc565b6134d285613471565b60005b838110156134f4578154818901526001820191506020810190506134d5565b838801955050505b50505092915050565b60006135118284613486565b915081905092915050565b7f596f7520646964206e6f74206564697400000000000000000000000000000000600082015250565b6000613552601083612a3f565b915061355d8261351c565b602082019050919050565b6000602082019050818103600083015261358181613545565b9050919050565b600060408201905061359d6000830185612d2a565b81810360208301526135af8184612a83565b90509392505050565b7f4f776e61626c653a206e6577206f776e657220697320746865207a65726f206160008201527f6464726573730000000000000000000000000000000000000000000000000000602082015250565b6000613614602683612a3f565b915061361f826135b8565b604082019050919050565b6000602082019050818103600083015261364381613607565b905091905056fea2646970667358221220cdad9a1da939d695b11cd59faf18157b5099651e178c379d6dc73d99f37772e964736f6c634300080e0033",
  "immutableReferences": {},
  "source": "//SPDX-License-Identifier: UNLICENSED\r\npragma solidity >=0.8.0;\r\n\r\nimport \"@openzeppelin/contracts/utils/Counters.sol\";\r\nimport \"@openzeppelin/contracts/access/Ownable.sol\";\r\nimport \"./interfaces/IMissionContract.sol\";\r\nimport \"./interfaces/ISubjectContract.sol\";\r\nimport \"./interfaces/IScholarshipContract.sol\";\r\nimport \"./interfaces/ITuitionContract.sol\";\r\nimport \"./interfaces/IGeneralContract.sol\";\r\nimport \"./interfaces/IFactory.sol\";\r\nimport \"./interfaces/IAccessControl.sol\";\r\nimport \"./interfaces/IRewardDistributor.sol\";\r\n\r\ncontract ManagerPool is Ownable {\r\n    using Counters for Counters.Counter;\r\n\r\n    struct Object {\r\n        address objectAddress;\r\n        Type tipe;\r\n    }\r\n    enum Type {\r\n        Mission,\r\n        Subject,\r\n        Scholarship,\r\n        Tuition\r\n    }\r\n\r\n    IFactory public factory;\r\n    IAccessControl public accessControll;\r\n    IRewardDistributor public rewardDistributor;\r\n    Object[] public pools;\r\n    mapping(address => bool) public existed;\r\n    Counters.Counter public idCountMission;\r\n    Counters.Counter public idCountSubject;\r\n    Counters.Counter public idCountScholarship;\r\n    Counters.Counter public idCountTuition;\r\n\r\n    mapping(address => string) public studentInfo;\r\n    mapping(address => string) public lecturerInfo;\r\n\r\n    constructor(\r\n        address _factory,\r\n        address _accessControll,\r\n        address _rewardDistributor\r\n    ) {\r\n        factory = IFactory(_factory);\r\n        accessControll = IAccessControl(_accessControll);\r\n        rewardDistributor = IRewardDistributor(_rewardDistributor);\r\n    }\r\n\r\n    modifier onlyRoleAdmin() {\r\n        require(\r\n            accessControll.hasRole(keccak256(\"ADMIN\"), msg.sender),\r\n            \"MP: Only Admin\"\r\n        );\r\n        _;\r\n    }\r\n\r\n    modifier onlyRoleStudent() {\r\n        require(\r\n            accessControll.hasRole(keccak256(\"STUDENT\"), msg.sender),\r\n            \"MC: Only Student\"\r\n        );\r\n        _;\r\n    }\r\n\r\n    event AddStudentInfo(address studentAddr, string hashInfo);\r\n    event UpdateStudentInfo(address studentAddr, string hashInfo);\r\n    event AddLecturerInfo(address lecturerAddr, string hashInfo);\r\n    event NewMission(string _urlMetadata);\r\n    event NewScholarship(string _urlMetadata);\r\n    event NewSubject(string _urlMetadata);\r\n    event NewTuition(string _urlMetadata);\r\n\r\n    function setFactory(address _factory) public onlyOwner {\r\n        factory = IFactory(_factory);\r\n    }\r\n\r\n    function addStudentInfo(address studentAddr, string memory hashInfo)\r\n        public\r\n        onlyRoleAdmin\r\n    {\r\n        studentInfo[studentAddr] = hashInfo;\r\n        accessControll.grantRole(keccak256(\"STUDENT\"), studentAddr);\r\n        emit AddStudentInfo(studentAddr, hashInfo);\r\n    }\r\n\r\n    function update(address studentAdress, string memory hash)\r\n        public\r\n        onlyRoleStudent\r\n    {\r\n        require(studentAdress == msg.sender, \"You are not allowed\");\r\n        require(\r\n            keccak256(abi.encodePacked((studentInfo[msg.sender]))) !=\r\n                keccak256(abi.encodePacked((hash))),\r\n            \"You did not edit\"\r\n        );\r\n        studentInfo[msg.sender] = hash;\r\n        emit UpdateStudentInfo(studentAdress, hash);\r\n    }\r\n\r\n    function addLecturerInfo(address lecturerAddr, string memory hashInfo)\r\n        public\r\n        onlyRoleAdmin\r\n    {\r\n        lecturerInfo[lecturerAddr] = hashInfo;\r\n        accessControll.grantRole(keccak256(\"LECTURER\"), lecturerAddr);\r\n        emit AddLecturerInfo(lecturerAddr, hashInfo);\r\n    }\r\n\r\n    function createNewMission(\r\n        string memory _urlMetadata,\r\n        string memory _missionId,\r\n        uint256 _award,\r\n        uint256 _maxEntrant,\r\n        address _persionInCharge,\r\n        uint256 _startTime,\r\n        uint256 _endTimeToRegister,\r\n        uint256 _endTime,\r\n        uint256 _endTimeToConfirm\r\n    ) external onlyRoleAdmin {\r\n        address missionContract = factory.createNewMission(\r\n            address(this),\r\n            address(accessControll),\r\n            address(rewardDistributor)\r\n        );\r\n        pools.push(Object(missionContract, Type.Mission));\r\n        existed[missionContract] = true;\r\n        IMissionContract(missionContract).setBasicForMission(\r\n            _missionId,\r\n            _urlMetadata,\r\n            _award,\r\n            _maxEntrant,\r\n            _persionInCharge,\r\n            _startTime,\r\n            _endTimeToRegister,\r\n            _endTime,\r\n            _endTimeToConfirm\r\n        );\r\n        IMissionContract(missionContract).start();\r\n        rewardDistributor.addDistributorsAddress(missionContract);\r\n        emit NewMission(_urlMetadata);\r\n    }\r\n\r\n    function createNewSubject(\r\n        string memory _urlMetadata,\r\n        string memory _subjectId,\r\n        uint256 _maxEntrant,\r\n        address _persionInCharge,\r\n        uint256 _startTime,\r\n        uint256 _endTimeToRegister,\r\n        uint256 _endTime,\r\n        uint256 _endTimeToConfirm\r\n    ) external onlyRoleAdmin {\r\n        address subjectContract = factory.createNewSubject(\r\n            address(this),\r\n            address(accessControll)\r\n        );\r\n        pools.push(Object(subjectContract, Type.Subject));\r\n        existed[subjectContract] = true;\r\n        ISubjectContract(subjectContract).setBasicForSubject(\r\n            _subjectId,\r\n            _urlMetadata,\r\n            _maxEntrant,\r\n            _persionInCharge,\r\n            _startTime,\r\n            _endTimeToRegister,\r\n            _endTime,\r\n            _endTimeToConfirm\r\n        );\r\n        // ISubjectContract(subjectContract).setScoreColumn(qt, gk, th, ck);\r\n        ISubjectContract(subjectContract).start();\r\n        // rewardDistributor.addDistributorsAddress(subjectContract);\r\n        emit NewSubject(_urlMetadata);\r\n    }\r\n\r\n    function createNewScholarship(\r\n        string memory _urlMetadata,\r\n        string memory _scholarshipId,\r\n        uint256 _award,\r\n        uint256 _startTime,\r\n        uint256 _endTime\r\n    ) external onlyRoleAdmin {\r\n        address scholarshipContract = factory.createNewScholarship(\r\n            address(this),\r\n            address(accessControll),\r\n            address(rewardDistributor)\r\n        );\r\n        pools.push(Object(scholarshipContract, Type.Scholarship));\r\n        existed[scholarshipContract] = true;\r\n        IScholarshipContract(scholarshipContract).setBasicForScholarship(\r\n            _scholarshipId,\r\n            _urlMetadata,\r\n            _award,\r\n            _startTime,\r\n            _endTime\r\n        );\r\n        IScholarshipContract(scholarshipContract).start();\r\n        rewardDistributor.addDistributorsAddress(scholarshipContract);\r\n        emit NewScholarship(_urlMetadata);\r\n    }\r\n\r\n    function createNewTuition(\r\n        string memory _urlMetadata,\r\n        string memory _tuitionId,\r\n        uint256 _feeByToken,\r\n        uint256 _startTime,\r\n        uint256 _endTime\r\n    ) external onlyRoleAdmin {\r\n        address tuitionContract = factory.createNewTuition(\r\n            address(this),\r\n            address(accessControll),\r\n            address(rewardDistributor)\r\n        );\r\n        pools.push(Object(tuitionContract, Type.Tuition));\r\n        existed[tuitionContract] = true;\r\n        ITuitionContract(tuitionContract).setBasicForTuition(\r\n            _tuitionId,\r\n            _urlMetadata,\r\n            _feeByToken,\r\n            _startTime,\r\n            _endTime\r\n        );\r\n        ITuitionContract(tuitionContract).start();\r\n        rewardDistributor.addDistributorsAddress(tuitionContract);\r\n        emit NewTuition(_urlMetadata);\r\n    }\r\n\r\n    function close(address pool) external onlyRoleAdmin {\r\n        IGeneralContract(pool).close();\r\n        _removeDistributor(pool);\r\n    }\r\n\r\n    function _removeDistributor(address pool) private onlyRoleAdmin {\r\n        require(existed[pool]);\r\n        rewardDistributor.removeDistributorsAddress(pool);\r\n    }\r\n}\r\n",
  "sourcePath": "E:\\KLTN\\KLTN\\KLTN-contracts\\contracts\\studentmanager\\MangerPool.sol",
  "compiler": {
    "name": "solc",
    "version": "0.8.14+commit.80d49f37.Emscripten.clang"
  },
  "schemaVersion": "3.4.3",
  "updatedAt": "2022-05-21T08:23:02.844Z",
  "networkType": "ethereum",
  "devdoc": {
    "kind": "dev",
    "methods": {
      "owner()": {
        "details": "Returns the address of the current owner."
      },
      "renounceOwnership()": {
        "details": "Leaves the contract without owner. It will not be possible to call `onlyOwner` functions anymore. Can only be called by the current owner. NOTE: Renouncing ownership will leave the contract without an owner, thereby removing any functionality that is only available to the owner."
      },
      "transferOwnership(address)": {
        "details": "Transfers ownership of the contract to a new account (`newOwner`). Can only be called by the current owner."
      }
    },
    "version": 1
  },
  "userdoc": {
    "kind": "user",
    "methods": {},
    "version": 1
  }
}