{
  "contractName": "ManagerPool",
  "abi": [
    {
      "inputs": [
        {
          "internalType": "address",
          "name": "_factory",
          "type": "address"
        },
        {
          "internalType": "address",
          "name": "_accessControll",
          "type": "address"
        },
        {
          "internalType": "address",
          "name": "_rewardDistributor",
          "type": "address"
        }
      ],
      "stateMutability": "nonpayable",
      "type": "constructor"
    },
    {
      "anonymous": false,
      "inputs": [
        {
          "indexed": false,
          "internalType": "address",
          "name": "lecturerAddr",
          "type": "address"
        },
        {
          "indexed": false,
          "internalType": "string",
          "name": "hashInfo",
          "type": "string"
        }
      ],
      "name": "AddLecturerInfo",
      "type": "event"
    },
    {
      "anonymous": false,
      "inputs": [
        {
          "indexed": false,
          "internalType": "address",
          "name": "studentAddr",
          "type": "address"
        },
        {
          "indexed": false,
          "internalType": "string",
          "name": "hashInfo",
          "type": "string"
        }
      ],
      "name": "AddStudentInfo",
      "type": "event"
    },
    {
      "anonymous": false,
      "inputs": [
        {
          "indexed": false,
          "internalType": "address[]",
          "name": "lecturerAddrs",
          "type": "address[]"
        }
      ],
      "name": "LecturerRoleRevoked",
      "type": "event"
    },
    {
      "anonymous": false,
      "inputs": [
        {
          "indexed": false,
          "internalType": "address[]",
          "name": "_listMissions",
          "type": "address[]"
        }
      ],
      "name": "MissionLocked",
      "type": "event"
    },
    {
      "anonymous": false,
      "inputs": [
        {
          "indexed": false,
          "internalType": "address",
          "name": "_contractAddress",
          "type": "address"
        },
        {
          "indexed": false,
          "internalType": "string",
          "name": "_urlMetadata",
          "type": "string"
        }
      ],
      "name": "NewMission",
      "type": "event"
    },
    {
      "anonymous": false,
      "inputs": [
        {
          "indexed": false,
          "internalType": "address",
          "name": "_contractAddress",
          "type": "address"
        },
        {
          "indexed": false,
          "internalType": "string",
          "name": "_urlMetadata",
          "type": "string"
        }
      ],
      "name": "NewScholarship",
      "type": "event"
    },
    {
      "anonymous": false,
      "inputs": [
        {
          "indexed": false,
          "internalType": "address",
          "name": "_contractAddress",
          "type": "address"
        },
        {
          "indexed": false,
          "internalType": "string",
          "name": "_urlMetadata",
          "type": "string"
        }
      ],
      "name": "NewSubject",
      "type": "event"
    },
    {
      "anonymous": false,
      "inputs": [
        {
          "indexed": false,
          "internalType": "address",
          "name": "_contractAddress",
          "type": "address"
        },
        {
          "indexed": false,
          "internalType": "string",
          "name": "_urlMetadata",
          "type": "string"
        }
      ],
      "name": "NewTuition",
      "type": "event"
    },
    {
      "anonymous": false,
      "inputs": [
        {
          "indexed": true,
          "internalType": "address",
          "name": "previousOwner",
          "type": "address"
        },
        {
          "indexed": true,
          "internalType": "address",
          "name": "newOwner",
          "type": "address"
        }
      ],
      "name": "OwnershipTransferred",
      "type": "event"
    },
    {
      "anonymous": false,
      "inputs": [
        {
          "indexed": false,
          "internalType": "address[]",
          "name": "_listScholarships",
          "type": "address[]"
        }
      ],
      "name": "ScholarshipLocked",
      "type": "event"
    },
    {
      "anonymous": false,
      "inputs": [
        {
          "indexed": false,
          "internalType": "address[]",
          "name": "studentAddrs",
          "type": "address[]"
        }
      ],
      "name": "StudentRoleRevoked",
      "type": "event"
    },
    {
      "anonymous": false,
      "inputs": [
        {
          "indexed": false,
          "internalType": "address[]",
          "name": "_listSubjects",
          "type": "address[]"
        }
      ],
      "name": "SubjectLocked",
      "type": "event"
    },
    {
      "anonymous": false,
      "inputs": [
        {
          "indexed": false,
          "internalType": "address[]",
          "name": "_listTuitions",
          "type": "address[]"
        }
      ],
      "name": "TuitionLocked",
      "type": "event"
    },
    {
      "anonymous": false,
      "inputs": [
        {
          "indexed": false,
          "internalType": "address",
          "name": "studentAddr",
          "type": "address"
        },
        {
          "indexed": false,
          "internalType": "string",
          "name": "hashInfo",
          "type": "string"
        }
      ],
      "name": "UpdateStudentInfo",
      "type": "event"
    },
    {
      "inputs": [],
      "name": "accessControll",
      "outputs": [
        {
          "internalType": "contract IAccessControl",
          "name": "",
          "type": "address"
        }
      ],
      "stateMutability": "view",
      "type": "function",
      "constant": true
    },
    {
      "inputs": [
        {
          "internalType": "address",
          "name": "",
          "type": "address"
        }
      ],
      "name": "existed",
      "outputs": [
        {
          "internalType": "bool",
          "name": "",
          "type": "bool"
        }
      ],
      "stateMutability": "view",
      "type": "function",
      "constant": true
    },
    {
      "inputs": [],
      "name": "factory",
      "outputs": [
        {
          "internalType": "contract IFactory",
          "name": "",
          "type": "address"
        }
      ],
      "stateMutability": "view",
      "type": "function",
      "constant": true
    },
    {
      "inputs": [],
      "name": "idCountMission",
      "outputs": [
        {
          "internalType": "uint256",
          "name": "_value",
          "type": "uint256"
        }
      ],
      "stateMutability": "view",
      "type": "function",
      "constant": true
    },
    {
      "inputs": [],
      "name": "idCountScholarship",
      "outputs": [
        {
          "internalType": "uint256",
          "name": "_value",
          "type": "uint256"
        }
      ],
      "stateMutability": "view",
      "type": "function",
      "constant": true
    },
    {
      "inputs": [],
      "name": "idCountSubject",
      "outputs": [
        {
          "internalType": "uint256",
          "name": "_value",
          "type": "uint256"
        }
      ],
      "stateMutability": "view",
      "type": "function",
      "constant": true
    },
    {
      "inputs": [],
      "name": "idCountTuition",
      "outputs": [
        {
          "internalType": "uint256",
          "name": "_value",
          "type": "uint256"
        }
      ],
      "stateMutability": "view",
      "type": "function",
      "constant": true
    },
    {
      "inputs": [
        {
          "internalType": "address",
          "name": "",
          "type": "address"
        }
      ],
      "name": "lecturerInfo",
      "outputs": [
        {
          "internalType": "string",
          "name": "",
          "type": "string"
        }
      ],
      "stateMutability": "view",
      "type": "function",
      "constant": true
    },
    {
      "inputs": [],
      "name": "owner",
      "outputs": [
        {
          "internalType": "address",
          "name": "",
          "type": "address"
        }
      ],
      "stateMutability": "view",
      "type": "function",
      "constant": true
    },
    {
      "inputs": [
        {
          "internalType": "uint256",
          "name": "",
          "type": "uint256"
        }
      ],
      "name": "pools",
      "outputs": [
        {
          "internalType": "address",
          "name": "objectAddress",
          "type": "address"
        },
        {
          "internalType": "enum ManagerPool.Type",
          "name": "tipe",
          "type": "uint8"
        }
      ],
      "stateMutability": "view",
      "type": "function",
      "constant": true
    },
    {
      "inputs": [],
      "name": "renounceOwnership",
      "outputs": [],
      "stateMutability": "nonpayable",
      "type": "function"
    },
    {
      "inputs": [],
      "name": "rewardDistributor",
      "outputs": [
        {
          "internalType": "contract IRewardDistributor",
          "name": "",
          "type": "address"
        }
      ],
      "stateMutability": "view",
      "type": "function",
      "constant": true
    },
    {
      "inputs": [
        {
          "internalType": "address",
          "name": "",
          "type": "address"
        }
      ],
      "name": "studentInfo",
      "outputs": [
        {
          "internalType": "string",
          "name": "",
          "type": "string"
        }
      ],
      "stateMutability": "view",
      "type": "function",
      "constant": true
    },
    {
      "inputs": [
        {
          "internalType": "address",
          "name": "newOwner",
          "type": "address"
        }
      ],
      "name": "transferOwnership",
      "outputs": [],
      "stateMutability": "nonpayable",
      "type": "function"
    },
    {
      "inputs": [
        {
          "internalType": "address",
          "name": "_factory",
          "type": "address"
        }
      ],
      "name": "setFactory",
      "outputs": [],
      "stateMutability": "nonpayable",
      "type": "function"
    },
    {
      "inputs": [
        {
          "internalType": "address",
          "name": "studentAddr",
          "type": "address"
        },
        {
          "internalType": "string",
          "name": "hashInfo",
          "type": "string"
        }
      ],
      "name": "addStudentInfo",
      "outputs": [],
      "stateMutability": "nonpayable",
      "type": "function"
    },
    {
      "inputs": [
        {
          "internalType": "address[]",
          "name": "studentAddrs",
          "type": "address[]"
        }
      ],
      "name": "revokeStudentRole",
      "outputs": [],
      "stateMutability": "nonpayable",
      "type": "function"
    },
    {
      "inputs": [
        {
          "internalType": "address",
          "name": "studentAdress",
          "type": "address"
        },
        {
          "internalType": "string",
          "name": "hash",
          "type": "string"
        }
      ],
      "name": "update",
      "outputs": [],
      "stateMutability": "nonpayable",
      "type": "function"
    },
    {
      "inputs": [
        {
          "internalType": "address",
          "name": "lecturerAddr",
          "type": "address"
        },
        {
          "internalType": "string",
          "name": "hashInfo",
          "type": "string"
        }
      ],
      "name": "addLecturerInfo",
      "outputs": [],
      "stateMutability": "nonpayable",
      "type": "function"
    },
    {
      "inputs": [
        {
          "internalType": "address[]",
          "name": "lecturerAddrs",
          "type": "address[]"
        }
      ],
      "name": "revokeLecturerRole",
      "outputs": [],
      "stateMutability": "nonpayable",
      "type": "function"
    },
    {
      "inputs": [
        {
          "internalType": "string",
          "name": "_urlMetadata",
          "type": "string"
        },
        {
          "internalType": "string",
          "name": "_missionId",
          "type": "string"
        },
        {
          "internalType": "uint256",
          "name": "_award",
          "type": "uint256"
        },
        {
          "internalType": "uint256",
          "name": "_maxEntrant",
          "type": "uint256"
        },
        {
          "internalType": "address",
          "name": "_persionInCharge",
          "type": "address"
        },
        {
          "internalType": "uint256",
          "name": "_startTime",
          "type": "uint256"
        },
        {
          "internalType": "uint256",
          "name": "_endTimeToRegister",
          "type": "uint256"
        },
        {
          "internalType": "uint256",
          "name": "_endTime",
          "type": "uint256"
        },
        {
          "internalType": "uint256",
          "name": "_endTimeToConfirm",
          "type": "uint256"
        }
      ],
      "name": "createNewMission",
      "outputs": [],
      "stateMutability": "nonpayable",
      "type": "function"
    },
    {
      "inputs": [
        {
          "internalType": "string",
          "name": "_urlMetadata",
          "type": "string"
        },
        {
          "internalType": "string",
          "name": "_subjectId",
          "type": "string"
        },
        {
          "internalType": "uint256",
          "name": "_maxEntrant",
          "type": "uint256"
        },
        {
          "internalType": "address",
          "name": "_persionInCharge",
          "type": "address"
        },
        {
          "internalType": "uint256",
          "name": "_startTime",
          "type": "uint256"
        },
        {
          "internalType": "uint256",
          "name": "_endTimeToRegister",
          "type": "uint256"
        },
        {
          "internalType": "uint256",
          "name": "_endTime",
          "type": "uint256"
        },
        {
          "internalType": "uint256",
          "name": "_endTimeToConfirm",
          "type": "uint256"
        }
      ],
      "name": "createNewSubject",
      "outputs": [],
      "stateMutability": "nonpayable",
      "type": "function"
    },
    {
      "inputs": [
        {
          "internalType": "string",
          "name": "_urlMetadata",
          "type": "string"
        },
        {
          "internalType": "string",
          "name": "_scholarshipId",
          "type": "string"
        },
        {
          "internalType": "uint256",
          "name": "_award",
          "type": "uint256"
        },
        {
          "internalType": "address",
          "name": "_persionInCharge",
          "type": "address"
        },
        {
          "internalType": "uint256",
          "name": "_startTime",
          "type": "uint256"
        },
        {
          "internalType": "uint256",
          "name": "_endTimeToRegister",
          "type": "uint256"
        },
        {
          "internalType": "uint256",
          "name": "_endTime",
          "type": "uint256"
        },
        {
          "internalType": "uint256",
          "name": "_endTimeToConfirm",
          "type": "uint256"
        }
      ],
      "name": "createNewScholarship",
      "outputs": [],
      "stateMutability": "nonpayable",
      "type": "function"
    },
    {
      "inputs": [
        {
          "internalType": "string",
          "name": "_urlMetadata",
          "type": "string"
        },
        {
          "internalType": "string",
          "name": "_tuitionId",
          "type": "string"
        },
        {
          "internalType": "uint256",
          "name": "_feeByToken",
          "type": "uint256"
        },
        {
          "internalType": "uint256",
          "name": "_startTime",
          "type": "uint256"
        },
        {
          "internalType": "uint256",
          "name": "_endTime",
          "type": "uint256"
        }
      ],
      "name": "createNewTuition",
      "outputs": [],
      "stateMutability": "nonpayable",
      "type": "function"
    },
    {
      "inputs": [
        {
          "internalType": "address",
          "name": "pool",
          "type": "address"
        }
      ],
      "name": "close",
      "outputs": [],
      "stateMutability": "nonpayable",
      "type": "function"
    },
    {
      "inputs": [
        {
          "internalType": "address[]",
          "name": "_listTuitions",
          "type": "address[]"
        }
      ],
      "name": "lockTuition",
      "outputs": [],
      "stateMutability": "nonpayable",
      "type": "function"
    },
    {
      "inputs": [
        {
          "internalType": "address[]",
          "name": "_listSubjects",
          "type": "address[]"
        }
      ],
      "name": "lockSubject",
      "outputs": [],
      "stateMutability": "nonpayable",
      "type": "function"
    },
    {
      "inputs": [
        {
          "internalType": "address[]",
          "name": "_listScholarships",
          "type": "address[]"
        }
      ],
      "name": "lockScholarship",
      "outputs": [],
      "stateMutability": "nonpayable",
      "type": "function"
    },
    {
      "inputs": [
        {
          "internalType": "address[]",
          "name": "_listMissions",
          "type": "address[]"
        }
      ],
      "name": "lockMission",
      "outputs": [],
      "stateMutability": "nonpayable",
      "type": "function"
    }
  ],
  "bytecode": "0x60806040523480156200001157600080fd5b5060405162004a5b38038062004a5b833981810160405281019062000037919062000259565b620000576200004b6200012360201b60201c565b6200012b60201b60201c565b82600160006101000a81548173ffffffffffffffffffffffffffffffffffffffff021916908373ffffffffffffffffffffffffffffffffffffffff16021790555081600260006101000a81548173ffffffffffffffffffffffffffffffffffffffff021916908373ffffffffffffffffffffffffffffffffffffffff16021790555080600360006101000a81548173ffffffffffffffffffffffffffffffffffffffff021916908373ffffffffffffffffffffffffffffffffffffffff160217905550505050620002b5565b600033905090565b60008060009054906101000a900473ffffffffffffffffffffffffffffffffffffffff169050816000806101000a81548173ffffffffffffffffffffffffffffffffffffffff021916908373ffffffffffffffffffffffffffffffffffffffff1602179055508173ffffffffffffffffffffffffffffffffffffffff168173ffffffffffffffffffffffffffffffffffffffff167f8be0079c531659141344cd1fd0a4f28419497f9722a3daafe3b4186f6b6457e060405160405180910390a35050565b600080fd5b600073ffffffffffffffffffffffffffffffffffffffff82169050919050565b60006200022182620001f4565b9050919050565b620002338162000214565b81146200023f57600080fd5b50565b600081519050620002538162000228565b92915050565b600080600060608486031215620002755762000274620001ef565b5b6000620002858682870162000242565b9350506020620002988682870162000242565b9250506040620002ab8682870162000242565b9150509250925092565b61479680620002c56000396000f3fe608060405234801561001057600080fd5b50600436106101cf5760003560e01c80638da5cb5b11610104578063c225fc38116100a2578063d2a49de511610071578063d2a49de5146104db578063dcff175a146104f7578063eb49ad4714610515578063f2fde38b14610533576101cf565b8063c225fc3814610455578063c45a015514610485578063c74073a1146104a3578063cb8a73bc146104bf576101cf565b8063aa4936ce116100de578063aa4936ce146103cc578063ac4afa38146103ea578063acc2166a1461041b578063b4ce150414610439576101cf565b80638da5cb5b1461037657806390337ac91461039457806398148aab146103b0576101cf565b8063715018a611610171578063803cec321161014b578063803cec32146102f2578063811f711f1461030e578063838e7c3a1461032a5780638c248ffd14610346576101cf565b8063715018a6146102b057806374dba969146102ba57806378ea8f21146102d6576101cf565b80632a34207e116101ad5780632a34207e1461022a5780633b7d8952146102465780633d847dda146102645780635bb4780814610294576101cf565b80631cf23c72146101d45780631ee965f1146101f05780632420ba3a1461020e575b600080fd5b6101ee60048036038101906101e99190613786565b61054f565b005b6101f861076f565b60405161020591906137e8565b60405180910390f35b610228600480360381019061022391906138e4565b61077b565b005b610244600480360381019061023f9190613786565b610c38565b005b61024e610e58565b60405161025b91906137e8565b60405180910390f35b61027e60048036038101906102799190613997565b610e64565b60405161028b9190613a4c565b60405180910390f35b6102ae60048036038101906102a99190613997565b610f04565b005b6102b8610fc4565b005b6102d460048036038101906102cf9190613a6e565b61104c565b005b6102f060048036038101906102eb9190613786565b611462565b005b61030c60048036038101906103079190613b5c565b6116a3565b005b61032860048036038101906103239190613786565b611b6d565b005b610344600480360381019061033f9190613c5e565b611dae565b005b610360600480360381019061035b9190613997565b612076565b60405161036d9190613a4c565b60405180910390f35b61037e612116565b60405161038b9190613cc9565b60405180910390f35b6103ae60048036038101906103a99190613786565b61213f565b005b6103ca60048036038101906103c59190613a6e565b612380565b005b6103d4612847565b6040516103e19190613d43565b60405180910390f35b61040460048036038101906103ff9190613d5e565b61286d565b604051610412929190613e02565b60405180910390f35b6104236128ca565b6040516104309190613e4c565b60405180910390f35b610453600480360381019061044e9190613786565b6128f0565b005b61046f600480360381019061046a9190613997565b612b31565b60405161047c9190613e82565b60405180910390f35b61048d612b51565b60405161049a9190613ebe565b60405180910390f35b6104bd60048036038101906104b89190613997565b612b77565b005b6104d960048036038101906104d49190613c5e565b612ce0565b005b6104f560048036038101906104f09190613c5e565b612f1d565b005b6104ff61315a565b60405161050c91906137e8565b60405180910390f35b61051d613166565b60405161052a91906137e8565b60405180910390f35b61054d60048036038101906105489190613997565b613172565b005b600260009054906101000a900473ffffffffffffffffffffffffffffffffffffffff1673ffffffffffffffffffffffffffffffffffffffff166391d148547fdf8b4c520ffe197c5343c6f5aec59570151ef9a492f2c624fd45ddde6135ec42336040518363ffffffff1660e01b81526004016105cc929190613ef2565b602060405180830381865afa1580156105e9573d6000803e3d6000fd5b505050506040513d601f19601f8201168201806040525081019061060d9190613f47565b61064c576040517f08c379a000000000000000000000000000000000000000000000000000000000815260040161064390613fc0565b60405180910390fd5b60005b815181101561073457600260009054906101000a900473ffffffffffffffffffffffffffffffffffffffff1673ffffffffffffffffffffffffffffffffffffffff1663d547741f7fb39b9469ac3ddf8d58f06201f7e17350a277b429ed2a39727bf2f3a5165dba1a8484815181106106ca576106c9613fe0565b5b60200260200101516040518363ffffffff1660e01b81526004016106ef929190613ef2565b600060405180830381600087803b15801561070957600080fd5b505af115801561071d573d6000803e3d6000fd5b50505050808061072c9061403e565b91505061064f565b507fb5cd4f8d8dd7cec1e2b26ed98c9e0cf249d5db4abffd79c4069f62c3d2cf3d15816040516107649190614144565b60405180910390a150565b60068060000154905081565b600260009054906101000a900473ffffffffffffffffffffffffffffffffffffffff1673ffffffffffffffffffffffffffffffffffffffff166391d148547fdf8b4c520ffe197c5343c6f5aec59570151ef9a492f2c624fd45ddde6135ec42336040518363ffffffff1660e01b81526004016107f8929190613ef2565b602060405180830381865afa158015610815573d6000803e3d6000fd5b505050506040513d601f19601f820116820180604052508101906108399190613f47565b610878576040517f08c379a000000000000000000000000000000000000000000000000000000000815260040161086f90613fc0565b60405180910390fd5b6000600160009054906101000a900473ffffffffffffffffffffffffffffffffffffffff1673ffffffffffffffffffffffffffffffffffffffff1663029c678530600260009054906101000a900473ffffffffffffffffffffffffffffffffffffffff16600360009054906101000a900473ffffffffffffffffffffffffffffffffffffffff166040518463ffffffff1660e01b815260040161091d93929190614166565b6020604051808303816000875af115801561093c573d6000803e3d6000fd5b505050506040513d601f19601f8201168201806040525081019061096091906141b2565b9050600460405180604001604052808373ffffffffffffffffffffffffffffffffffffffff16815260200160038081111561099e5761099d613d8b565b5b8152509080600181540180825580915050600190039060005260206000200160009091909190915060008201518160000160006101000a81548173ffffffffffffffffffffffffffffffffffffffff021916908373ffffffffffffffffffffffffffffffffffffffff16021790555060208201518160000160146101000a81548160ff02191690836003811115610a3857610a37613d8b565b5b021790555050506001600560008373ffffffffffffffffffffffffffffffffffffffff1673ffffffffffffffffffffffffffffffffffffffff16815260200190815260200160002060006101000a81548160ff0219169083151502179055508073ffffffffffffffffffffffffffffffffffffffff16630474f49c86888787876040518663ffffffff1660e01b8152600401610ad89594939291906141df565b600060405180830381600087803b158015610af257600080fd5b505af1158015610b06573d6000803e3d6000fd5b505050508073ffffffffffffffffffffffffffffffffffffffff1663be9a65556040518163ffffffff1660e01b8152600401600060405180830381600087803b158015610b5257600080fd5b505af1158015610b66573d6000803e3d6000fd5b50505050600360009054906101000a900473ffffffffffffffffffffffffffffffffffffffff1673ffffffffffffffffffffffffffffffffffffffff166305380898826040518263ffffffff1660e01b8152600401610bc59190613cc9565b600060405180830381600087803b158015610bdf57600080fd5b505af1158015610bf3573d6000803e3d6000fd5b505050507fad4b46e4fb3b76bec15e0dcac6029e5f34b694fae694bb708672f533546a19728187604051610c28929190614240565b60405180910390a1505050505050565b600260009054906101000a900473ffffffffffffffffffffffffffffffffffffffff1673ffffffffffffffffffffffffffffffffffffffff166391d148547fdf8b4c520ffe197c5343c6f5aec59570151ef9a492f2c624fd45ddde6135ec42336040518363ffffffff1660e01b8152600401610cb5929190613ef2565b602060405180830381865afa158015610cd2573d6000803e3d6000fd5b505050506040513d601f19601f82011682018060405250810190610cf69190613f47565b610d35576040517f08c379a0000000000000000000000000000000000000000000000000000000008152600401610d2c90613fc0565b60405180910390fd5b60005b8151811015610e1d57600260009054906101000a900473ffffffffffffffffffffffffffffffffffffffff1673ffffffffffffffffffffffffffffffffffffffff1663d547741f7fc951d7098b66ba0b8b77265b6e9cf0e187d73125a42bcd0061b09a68be421810848481518110610db357610db2613fe0565b5b60200260200101516040518363ffffffff1660e01b8152600401610dd8929190613ef2565b600060405180830381600087803b158015610df257600080fd5b505af1158015610e06573d6000803e3d6000fd5b505050508080610e159061403e565b915050610d38565b507f727abd38ec2d350f282185908e7defde719b481454acbdf17434ebab44e3061c81604051610e4d9190614144565b60405180910390a150565b60088060000154905081565b600a6020528060005260406000206000915090508054610e839061429f565b80601f0160208091040260200160405190810160405280929190818152602001828054610eaf9061429f565b8015610efc5780601f10610ed157610100808354040283529160200191610efc565b820191906000526020600020905b815481529060010190602001808311610edf57829003601f168201915b505050505081565b610f0c613269565b73ffffffffffffffffffffffffffffffffffffffff16610f2a612116565b73ffffffffffffffffffffffffffffffffffffffff1614610f80576040517f08c379a0000000000000000000000000000000000000000000000000000000008152600401610f779061431c565b60405180910390fd5b80600160006101000a81548173ffffffffffffffffffffffffffffffffffffffff021916908373ffffffffffffffffffffffffffffffffffffffff16021790555050565b610fcc613269565b73ffffffffffffffffffffffffffffffffffffffff16610fea612116565b73ffffffffffffffffffffffffffffffffffffffff1614611040576040517f08c379a00000000000000000000000000000000000000000000000000000000081526004016110379061431c565b60405180910390fd5b61104a6000613271565b565b600260009054906101000a900473ffffffffffffffffffffffffffffffffffffffff1673ffffffffffffffffffffffffffffffffffffffff166391d148547fdf8b4c520ffe197c5343c6f5aec59570151ef9a492f2c624fd45ddde6135ec42336040518363ffffffff1660e01b81526004016110c9929190613ef2565b602060405180830381865afa1580156110e6573d6000803e3d6000fd5b505050506040513d601f19601f8201168201806040525081019061110a9190613f47565b611149576040517f08c379a000000000000000000000000000000000000000000000000000000000815260040161114090613fc0565b60405180910390fd5b6000600160009054906101000a900473ffffffffffffffffffffffffffffffffffffffff1673ffffffffffffffffffffffffffffffffffffffff1663b928882e30600260009054906101000a900473ffffffffffffffffffffffffffffffffffffffff166040518363ffffffff1660e01b81526004016111ca92919061433c565b6020604051808303816000875af11580156111e9573d6000803e3d6000fd5b505050506040513d601f19601f8201168201806040525081019061120d91906141b2565b9050600460405180604001604052808373ffffffffffffffffffffffffffffffffffffffff1681526020016001600381111561124c5761124b613d8b565b5b8152509080600181540180825580915050600190039060005260206000200160009091909190915060008201518160000160006101000a81548173ffffffffffffffffffffffffffffffffffffffff021916908373ffffffffffffffffffffffffffffffffffffffff16021790555060208201518160000160146101000a81548160ff021916908360038111156112e6576112e5613d8b565b5b021790555050506001600560008373ffffffffffffffffffffffffffffffffffffffff1673ffffffffffffffffffffffffffffffffffffffff16815260200190815260200160002060006101000a81548160ff0219169083151502179055508073ffffffffffffffffffffffffffffffffffffffff166304d291f2898b8a8a8a8a8a8a6040518963ffffffff1660e01b815260040161138c989796959493929190614365565b600060405180830381600087803b1580156113a657600080fd5b505af11580156113ba573d6000803e3d6000fd5b505050508073ffffffffffffffffffffffffffffffffffffffff1663be9a65556040518163ffffffff1660e01b8152600401600060405180830381600087803b15801561140657600080fd5b505af115801561141a573d6000803e3d6000fd5b505050507fa57b8ad26c3733b5e098ce6ad6b4c7ee719343b16d81b6283305cfa007638688818a60405161144f929190614240565b60405180910390a1505050505050505050565b600260009054906101000a900473ffffffffffffffffffffffffffffffffffffffff1673ffffffffffffffffffffffffffffffffffffffff166391d148547fdf8b4c520ffe197c5343c6f5aec59570151ef9a492f2c624fd45ddde6135ec42336040518363ffffffff1660e01b81526004016114df929190613ef2565b602060405180830381865afa1580156114fc573d6000803e3d6000fd5b505050506040513d601f19601f820116820180604052508101906115209190613f47565b61155f576040517f08c379a000000000000000000000000000000000000000000000000000000000815260040161155690613fc0565b60405180910390fd5b60005b8151811015611668576005600083838151811061158257611581613fe0565b5b602002602001015173ffffffffffffffffffffffffffffffffffffffff1673ffffffffffffffffffffffffffffffffffffffff16815260200190815260200160002060009054906101000a900460ff166115db57600080fd5b8181815181106115ee576115ed613fe0565b5b602002602001015173ffffffffffffffffffffffffffffffffffffffff1663f83d08ba6040518163ffffffff1660e01b8152600401600060405180830381600087803b15801561163d57600080fd5b505af1158015611651573d6000803e3d6000fd5b5050505080806116609061403e565b915050611562565b507fd72d5422a814bbfdbe5317f214f1bac8f285f699e830fca915244918e85f6a78816040516116989190614144565b60405180910390a150565b600260009054906101000a900473ffffffffffffffffffffffffffffffffffffffff1673ffffffffffffffffffffffffffffffffffffffff166391d148547fdf8b4c520ffe197c5343c6f5aec59570151ef9a492f2c624fd45ddde6135ec42336040518363ffffffff1660e01b8152600401611720929190613ef2565b602060405180830381865afa15801561173d573d6000803e3d6000fd5b505050506040513d601f19601f820116820180604052508101906117619190613f47565b6117a0576040517f08c379a000000000000000000000000000000000000000000000000000000000815260040161179790613fc0565b60405180910390fd5b6000600160009054906101000a900473ffffffffffffffffffffffffffffffffffffffff1673ffffffffffffffffffffffffffffffffffffffff1663e162fa7730600260009054906101000a900473ffffffffffffffffffffffffffffffffffffffff16600360009054906101000a900473ffffffffffffffffffffffffffffffffffffffff166040518463ffffffff1660e01b815260040161184593929190614166565b6020604051808303816000875af1158015611864573d6000803e3d6000fd5b505050506040513d601f19601f8201168201806040525081019061188891906141b2565b9050600460405180604001604052808373ffffffffffffffffffffffffffffffffffffffff168152602001600060038111156118c7576118c6613d8b565b5b8152509080600181540180825580915050600190039060005260206000200160009091909190915060008201518160000160006101000a81548173ffffffffffffffffffffffffffffffffffffffff021916908373ffffffffffffffffffffffffffffffffffffffff16021790555060208201518160000160146101000a81548160ff0219169083600381111561196157611960613d8b565b5b021790555050506001600560008373ffffffffffffffffffffffffffffffffffffffff1673ffffffffffffffffffffffffffffffffffffffff16815260200190815260200160002060006101000a81548160ff0219169083151502179055508073ffffffffffffffffffffffffffffffffffffffff166371b26bd48a8c8b8b8b8b8b8b8b6040518a63ffffffff1660e01b8152600401611a09999897969594939291906143f1565b600060405180830381600087803b158015611a2357600080fd5b505af1158015611a37573d6000803e3d6000fd5b505050508073ffffffffffffffffffffffffffffffffffffffff1663be9a65556040518163ffffffff1660e01b8152600401600060405180830381600087803b158015611a8357600080fd5b505af1158015611a97573d6000803e3d6000fd5b50505050600360009054906101000a900473ffffffffffffffffffffffffffffffffffffffff1673ffffffffffffffffffffffffffffffffffffffff166305380898826040518263ffffffff1660e01b8152600401611af69190613cc9565b600060405180830381600087803b158015611b1057600080fd5b505af1158015611b24573d6000803e3d6000fd5b505050507fd7c22e088c23298e421046f08b8fb86c59e6bd212b54a88b6e28e32fc86d8f53818b604051611b59929190614240565b60405180910390a150505050505050505050565b600260009054906101000a900473ffffffffffffffffffffffffffffffffffffffff1673ffffffffffffffffffffffffffffffffffffffff166391d148547fdf8b4c520ffe197c5343c6f5aec59570151ef9a492f2c624fd45ddde6135ec42336040518363ffffffff1660e01b8152600401611bea929190613ef2565b602060405180830381865afa158015611c07573d6000803e3d6000fd5b505050506040513d601f19601f82011682018060405250810190611c2b9190613f47565b611c6a576040517f08c379a0000000000000000000000000000000000000000000000000000000008152600401611c6190613fc0565b60405180910390fd5b60005b8151811015611d735760056000838381518110611c8d57611c8c613fe0565b5b602002602001015173ffffffffffffffffffffffffffffffffffffffff1673ffffffffffffffffffffffffffffffffffffffff16815260200190815260200160002060009054906101000a900460ff16611ce657600080fd5b818181518110611cf957611cf8613fe0565b5b602002602001015173ffffffffffffffffffffffffffffffffffffffff1663f83d08ba6040518163ffffffff1660e01b8152600401600060405180830381600087803b158015611d4857600080fd5b505af1158015611d5c573d6000803e3d6000fd5b505050508080611d6b9061403e565b915050611c6d565b507f580eaa6d0a3a18bfa243d31aeec84747d472a0f0fe8eca989c5cbbcf17298c9a81604051611da39190614144565b60405180910390a150565b600260009054906101000a900473ffffffffffffffffffffffffffffffffffffffff1673ffffffffffffffffffffffffffffffffffffffff166391d148547fc951d7098b66ba0b8b77265b6e9cf0e187d73125a42bcd0061b09a68be421810336040518363ffffffff1660e01b8152600401611e2b929190613ef2565b602060405180830381865afa158015611e48573d6000803e3d6000fd5b505050506040513d601f19601f82011682018060405250810190611e6c9190613f47565b611eab576040517f08c379a0000000000000000000000000000000000000000000000000000000008152600401611ea2906144d8565b60405180910390fd5b3373ffffffffffffffffffffffffffffffffffffffff168273ffffffffffffffffffffffffffffffffffffffff1614611f19576040517f08c379a0000000000000000000000000000000000000000000000000000000008152600401611f1090614544565b60405180910390fd5b80604051602001611f2a91906145a0565b60405160208183030381529060405280519060200120600a60003373ffffffffffffffffffffffffffffffffffffffff1673ffffffffffffffffffffffffffffffffffffffff168152602001908152602001600020604051602001611f8f919061464b565b6040516020818303038152906040528051906020012003611fe5576040517f08c379a0000000000000000000000000000000000000000000000000000000008152600401611fdc906146ae565b60405180910390fd5b80600a60003373ffffffffffffffffffffffffffffffffffffffff1673ffffffffffffffffffffffffffffffffffffffff1681526020019081526020016000209080519060200190612038929190613518565b507f7add425044706742e2e283f2538670a19f769b389a85093b4dc2d6ab74d4c2f2828260405161206a929190614240565b60405180910390a15050565b600b60205280600052604060002060009150905080546120959061429f565b80601f01602080910402602001604051908101604052809291908181526020018280546120c19061429f565b801561210e5780601f106120e35761010080835404028352916020019161210e565b820191906000526020600020905b8154815290600101906020018083116120f157829003601f168201915b505050505081565b60008060009054906101000a900473ffffffffffffffffffffffffffffffffffffffff16905090565b600260009054906101000a900473ffffffffffffffffffffffffffffffffffffffff1673ffffffffffffffffffffffffffffffffffffffff166391d148547fdf8b4c520ffe197c5343c6f5aec59570151ef9a492f2c624fd45ddde6135ec42336040518363ffffffff1660e01b81526004016121bc929190613ef2565b602060405180830381865afa1580156121d9573d6000803e3d6000fd5b505050506040513d601f19601f820116820180604052508101906121fd9190613f47565b61223c576040517f08c379a000000000000000000000000000000000000000000000000000000000815260040161223390613fc0565b60405180910390fd5b60005b8151811015612345576005600083838151811061225f5761225e613fe0565b5b602002602001015173ffffffffffffffffffffffffffffffffffffffff1673ffffffffffffffffffffffffffffffffffffffff16815260200190815260200160002060009054906101000a900460ff166122b857600080fd5b8181815181106122cb576122ca613fe0565b5b602002602001015173ffffffffffffffffffffffffffffffffffffffff1663f83d08ba6040518163ffffffff1660e01b8152600401600060405180830381600087803b15801561231a57600080fd5b505af115801561232e573d6000803e3d6000fd5b50505050808061233d9061403e565b91505061223f565b507f87069d3c19a57d5b1553b1f78276f79a41cd1b8c5961304993d8dbf21f3d0466816040516123759190614144565b60405180910390a150565b600260009054906101000a900473ffffffffffffffffffffffffffffffffffffffff1673ffffffffffffffffffffffffffffffffffffffff166391d148547fdf8b4c520ffe197c5343c6f5aec59570151ef9a492f2c624fd45ddde6135ec42336040518363ffffffff1660e01b81526004016123fd929190613ef2565b602060405180830381865afa15801561241a573d6000803e3d6000fd5b505050506040513d601f19601f8201168201806040525081019061243e9190613f47565b61247d576040517f08c379a000000000000000000000000000000000000000000000000000000000815260040161247490613fc0565b60405180910390fd5b6000600160009054906101000a900473ffffffffffffffffffffffffffffffffffffffff1673ffffffffffffffffffffffffffffffffffffffff1663378ac24530600260009054906101000a900473ffffffffffffffffffffffffffffffffffffffff16600360009054906101000a900473ffffffffffffffffffffffffffffffffffffffff166040518463ffffffff1660e01b815260040161252293929190614166565b6020604051808303816000875af1158015612541573d6000803e3d6000fd5b505050506040513d601f19601f8201168201806040525081019061256591906141b2565b9050600460405180604001604052808373ffffffffffffffffffffffffffffffffffffffff168152602001600260038111156125a4576125a3613d8b565b5b8152509080600181540180825580915050600190039060005260206000200160009091909190915060008201518160000160006101000a81548173ffffffffffffffffffffffffffffffffffffffff021916908373ffffffffffffffffffffffffffffffffffffffff16021790555060208201518160000160146101000a81548160ff0219169083600381111561263e5761263d613d8b565b5b021790555050506001600560008373ffffffffffffffffffffffffffffffffffffffff1673ffffffffffffffffffffffffffffffffffffffff16815260200190815260200160002060006101000a81548160ff0219169083151502179055508073ffffffffffffffffffffffffffffffffffffffff1663c2505eb6898b8a8a8a8a8a8a6040518963ffffffff1660e01b81526004016126e4989796959493929190614365565b600060405180830381600087803b1580156126fe57600080fd5b505af1158015612712573d6000803e3d6000fd5b505050508073ffffffffffffffffffffffffffffffffffffffff1663be9a65556040518163ffffffff1660e01b8152600401600060405180830381600087803b15801561275e57600080fd5b505af1158015612772573d6000803e3d6000fd5b50505050600360009054906101000a900473ffffffffffffffffffffffffffffffffffffffff1673ffffffffffffffffffffffffffffffffffffffff166305380898826040518263ffffffff1660e01b81526004016127d19190613cc9565b600060405180830381600087803b1580156127eb57600080fd5b505af11580156127ff573d6000803e3d6000fd5b505050507f96e4e0544a455f335664eaed03ddcecfa6942548c7dbe72ed075cd2601e67a5d818a604051612834929190614240565b60405180910390a1505050505050505050565b600260009054906101000a900473ffffffffffffffffffffffffffffffffffffffff1681565b6004818154811061287d57600080fd5b906000526020600020016000915090508060000160009054906101000a900473ffffffffffffffffffffffffffffffffffffffff16908060000160149054906101000a900460ff16905082565b600360009054906101000a900473ffffffffffffffffffffffffffffffffffffffff1681565b600260009054906101000a900473ffffffffffffffffffffffffffffffffffffffff1673ffffffffffffffffffffffffffffffffffffffff166391d148547fdf8b4c520ffe197c5343c6f5aec59570151ef9a492f2c624fd45ddde6135ec42336040518363ffffffff1660e01b815260040161296d929190613ef2565b602060405180830381865afa15801561298a573d6000803e3d6000fd5b505050506040513d601f19601f820116820180604052508101906129ae9190613f47565b6129ed576040517f08c379a00000000000000000000000000000000000000000000000000000000081526004016129e490613fc0565b60405180910390fd5b60005b8151811015612af65760056000838381518110612a1057612a0f613fe0565b5b602002602001015173ffffffffffffffffffffffffffffffffffffffff1673ffffffffffffffffffffffffffffffffffffffff16815260200190815260200160002060009054906101000a900460ff16612a6957600080fd5b818181518110612a7c57612a7b613fe0565b5b602002602001015173ffffffffffffffffffffffffffffffffffffffff1663f83d08ba6040518163ffffffff1660e01b8152600401600060405180830381600087803b158015612acb57600080fd5b505af1158015612adf573d6000803e3d6000fd5b505050508080612aee9061403e565b9150506129f0565b507fd9ba86ae856b0d0a6d4c0e560ce9a852a735397effa828affa48a7b2a149194881604051612b269190614144565b60405180910390a150565b60056020528060005260406000206000915054906101000a900460ff1681565b600160009054906101000a900473ffffffffffffffffffffffffffffffffffffffff1681565b600260009054906101000a900473ffffffffffffffffffffffffffffffffffffffff1673ffffffffffffffffffffffffffffffffffffffff166391d148547fdf8b4c520ffe197c5343c6f5aec59570151ef9a492f2c624fd45ddde6135ec42336040518363ffffffff1660e01b8152600401612bf4929190613ef2565b602060405180830381865afa158015612c11573d6000803e3d6000fd5b505050506040513d601f19601f82011682018060405250810190612c359190613f47565b612c74576040517f08c379a0000000000000000000000000000000000000000000000000000000008152600401612c6b90613fc0565b60405180910390fd5b8073ffffffffffffffffffffffffffffffffffffffff166343d726d66040518163ffffffff1660e01b8152600401600060405180830381600087803b158015612cbc57600080fd5b505af1158015612cd0573d6000803e3d6000fd5b50505050612cdd81613335565b50565b600260009054906101000a900473ffffffffffffffffffffffffffffffffffffffff1673ffffffffffffffffffffffffffffffffffffffff166391d148547fdf8b4c520ffe197c5343c6f5aec59570151ef9a492f2c624fd45ddde6135ec42336040518363ffffffff1660e01b8152600401612d5d929190613ef2565b602060405180830381865afa158015612d7a573d6000803e3d6000fd5b505050506040513d601f19601f82011682018060405250810190612d9e9190613f47565b612ddd576040517f08c379a0000000000000000000000000000000000000000000000000000000008152600401612dd490613fc0565b60405180910390fd5b80600a60008473ffffffffffffffffffffffffffffffffffffffff1673ffffffffffffffffffffffffffffffffffffffff1681526020019081526020016000209080519060200190612e30929190613518565b50600260009054906101000a900473ffffffffffffffffffffffffffffffffffffffff1673ffffffffffffffffffffffffffffffffffffffff16632f2ff15d7fc951d7098b66ba0b8b77265b6e9cf0e187d73125a42bcd0061b09a68be421810846040518363ffffffff1660e01b8152600401612eae929190613ef2565b600060405180830381600087803b158015612ec857600080fd5b505af1158015612edc573d6000803e3d6000fd5b505050507ffdd3920a5df8f31cf3ba0d2040eca189dbc1c055be16c65ce139ebc9da0170638282604051612f11929190614240565b60405180910390a15050565b600260009054906101000a900473ffffffffffffffffffffffffffffffffffffffff1673ffffffffffffffffffffffffffffffffffffffff166391d148547fdf8b4c520ffe197c5343c6f5aec59570151ef9a492f2c624fd45ddde6135ec42336040518363ffffffff1660e01b8152600401612f9a929190613ef2565b602060405180830381865afa158015612fb7573d6000803e3d6000fd5b505050506040513d601f19601f82011682018060405250810190612fdb9190613f47565b61301a576040517f08c379a000000000000000000000000000000000000000000000000000000000815260040161301190613fc0565b60405180910390fd5b80600b60008473ffffffffffffffffffffffffffffffffffffffff1673ffffffffffffffffffffffffffffffffffffffff168152602001908152602001600020908051906020019061306d929190613518565b50600260009054906101000a900473ffffffffffffffffffffffffffffffffffffffff1673ffffffffffffffffffffffffffffffffffffffff16632f2ff15d7fb39b9469ac3ddf8d58f06201f7e17350a277b429ed2a39727bf2f3a5165dba1a846040518363ffffffff1660e01b81526004016130eb929190613ef2565b600060405180830381600087803b15801561310557600080fd5b505af1158015613119573d6000803e3d6000fd5b505050507f7cbab196053aba04a8b888777be28c87d0e9d73c0ea98b3ed897563944fd403d828260405161314e929190614240565b60405180910390a15050565b60078060000154905081565b60098060000154905081565b61317a613269565b73ffffffffffffffffffffffffffffffffffffffff16613198612116565b73ffffffffffffffffffffffffffffffffffffffff16146131ee576040517f08c379a00000000000000000000000000000000000000000000000000000000081526004016131e59061431c565b60405180910390fd5b600073ffffffffffffffffffffffffffffffffffffffff168173ffffffffffffffffffffffffffffffffffffffff160361325d576040517f08c379a000000000000000000000000000000000000000000000000000000000815260040161325490614740565b60405180910390fd5b61326681613271565b50565b600033905090565b60008060009054906101000a900473ffffffffffffffffffffffffffffffffffffffff169050816000806101000a81548173ffffffffffffffffffffffffffffffffffffffff021916908373ffffffffffffffffffffffffffffffffffffffff1602179055508173ffffffffffffffffffffffffffffffffffffffff168173ffffffffffffffffffffffffffffffffffffffff167f8be0079c531659141344cd1fd0a4f28419497f9722a3daafe3b4186f6b6457e060405160405180910390a35050565b600260009054906101000a900473ffffffffffffffffffffffffffffffffffffffff1673ffffffffffffffffffffffffffffffffffffffff166391d148547fdf8b4c520ffe197c5343c6f5aec59570151ef9a492f2c624fd45ddde6135ec42336040518363ffffffff1660e01b81526004016133b2929190613ef2565b602060405180830381865afa1580156133cf573d6000803e3d6000fd5b505050506040513d601f19601f820116820180604052508101906133f39190613f47565b613432576040517f08c379a000000000000000000000000000000000000000000000000000000000815260040161342990613fc0565b60405180910390fd5b600560008273ffffffffffffffffffffffffffffffffffffffff1673ffffffffffffffffffffffffffffffffffffffff16815260200190815260200160002060009054906101000a900460ff1661348857600080fd5b600360009054906101000a900473ffffffffffffffffffffffffffffffffffffffff1673ffffffffffffffffffffffffffffffffffffffff16633cb7b3bb826040518263ffffffff1660e01b81526004016134e39190613cc9565b600060405180830381600087803b1580156134fd57600080fd5b505af1158015613511573d6000803e3d6000fd5b5050505050565b8280546135249061429f565b90600052602060002090601f016020900481019282613546576000855561358d565b82601f1061355f57805160ff191683800117855561358d565b8280016001018555821561358d579182015b8281111561358c578251825591602001919060010190613571565b5b50905061359a919061359e565b5090565b5b808211156135b757600081600090555060010161359f565b5090565b6000604051905090565b600080fd5b600080fd5b600080fd5b6000601f19601f8301169050919050565b7f4e487b7100000000000000000000000000000000000000000000000000000000600052604160045260246000fd5b61361d826135d4565b810181811067ffffffffffffffff8211171561363c5761363b6135e5565b5b80604052505050565b600061364f6135bb565b905061365b8282613614565b919050565b600067ffffffffffffffff82111561367b5761367a6135e5565b5b602082029050602081019050919050565b600080fd5b600073ffffffffffffffffffffffffffffffffffffffff82169050919050565b60006136bc82613691565b9050919050565b6136cc816136b1565b81146136d757600080fd5b50565b6000813590506136e9816136c3565b92915050565b60006137026136fd84613660565b613645565b905080838252602082019050602084028301858111156137255761372461368c565b5b835b8181101561374e578061373a88826136da565b845260208401935050602081019050613727565b5050509392505050565b600082601f83011261376d5761376c6135cf565b5b813561377d8482602086016136ef565b91505092915050565b60006020828403121561379c5761379b6135c5565b5b600082013567ffffffffffffffff8111156137ba576137b96135ca565b5b6137c684828501613758565b91505092915050565b6000819050919050565b6137e2816137cf565b82525050565b60006020820190506137fd60008301846137d9565b92915050565b600080fd5b600067ffffffffffffffff821115613823576138226135e5565b5b61382c826135d4565b9050602081019050919050565b82818337600083830152505050565b600061385b61385684613808565b613645565b90508281526020810184848401111561387757613876613803565b5b613882848285613839565b509392505050565b600082601f83011261389f5761389e6135cf565b5b81356138af848260208601613848565b91505092915050565b6138c1816137cf565b81146138cc57600080fd5b50565b6000813590506138de816138b8565b92915050565b600080600080600060a08688031215613900576138ff6135c5565b5b600086013567ffffffffffffffff81111561391e5761391d6135ca565b5b61392a8882890161388a565b955050602086013567ffffffffffffffff81111561394b5761394a6135ca565b5b6139578882890161388a565b9450506040613968888289016138cf565b9350506060613979888289016138cf565b925050608061398a888289016138cf565b9150509295509295909350565b6000602082840312156139ad576139ac6135c5565b5b60006139bb848285016136da565b91505092915050565b600081519050919050565b600082825260208201905092915050565b60005b838110156139fe5780820151818401526020810190506139e3565b83811115613a0d576000848401525b50505050565b6000613a1e826139c4565b613a2881856139cf565b9350613a388185602086016139e0565b613a41816135d4565b840191505092915050565b60006020820190508181036000830152613a668184613a13565b905092915050565b600080600080600080600080610100898b031215613a8f57613a8e6135c5565b5b600089013567ffffffffffffffff811115613aad57613aac6135ca565b5b613ab98b828c0161388a565b985050602089013567ffffffffffffffff811115613ada57613ad96135ca565b5b613ae68b828c0161388a565b9750506040613af78b828c016138cf565b9650506060613b088b828c016136da565b9550506080613b198b828c016138cf565b94505060a0613b2a8b828c016138cf565b93505060c0613b3b8b828c016138cf565b92505060e0613b4c8b828c016138cf565b9150509295985092959890939650565b60008060008060008060008060006101208a8c031215613b7f57613b7e6135c5565b5b60008a013567ffffffffffffffff811115613b9d57613b9c6135ca565b5b613ba98c828d0161388a565b99505060208a013567ffffffffffffffff811115613bca57613bc96135ca565b5b613bd68c828d0161388a565b9850506040613be78c828d016138cf565b9750506060613bf88c828d016138cf565b9650506080613c098c828d016136da565b95505060a0613c1a8c828d016138cf565b94505060c0613c2b8c828d016138cf565b93505060e0613c3c8c828d016138cf565b925050610100613c4e8c828d016138cf565b9150509295985092959850929598565b60008060408385031215613c7557613c746135c5565b5b6000613c83858286016136da565b925050602083013567ffffffffffffffff811115613ca457613ca36135ca565b5b613cb08582860161388a565b9150509250929050565b613cc3816136b1565b82525050565b6000602082019050613cde6000830184613cba565b92915050565b6000819050919050565b6000613d09613d04613cff84613691565b613ce4565b613691565b9050919050565b6000613d1b82613cee565b9050919050565b6000613d2d82613d10565b9050919050565b613d3d81613d22565b82525050565b6000602082019050613d586000830184613d34565b92915050565b600060208284031215613d7457613d736135c5565b5b6000613d82848285016138cf565b91505092915050565b7f4e487b7100000000000000000000000000000000000000000000000000000000600052602160045260246000fd5b60048110613dcb57613dca613d8b565b5b50565b6000819050613ddc82613dba565b919050565b6000613dec82613dce565b9050919050565b613dfc81613de1565b82525050565b6000604082019050613e176000830185613cba565b613e246020830184613df3565b9392505050565b6000613e3682613d10565b9050919050565b613e4681613e2b565b82525050565b6000602082019050613e616000830184613e3d565b92915050565b60008115159050919050565b613e7c81613e67565b82525050565b6000602082019050613e976000830184613e73565b92915050565b6000613ea882613d10565b9050919050565b613eb881613e9d565b82525050565b6000602082019050613ed36000830184613eaf565b92915050565b6000819050919050565b613eec81613ed9565b82525050565b6000604082019050613f076000830185613ee3565b613f146020830184613cba565b9392505050565b613f2481613e67565b8114613f2f57600080fd5b50565b600081519050613f4181613f1b565b92915050565b600060208284031215613f5d57613f5c6135c5565b5b6000613f6b84828501613f32565b91505092915050565b7f4d503a204f6e6c792041646d696e000000000000000000000000000000000000600082015250565b6000613faa600e836139cf565b9150613fb582613f74565b602082019050919050565b60006020820190508181036000830152613fd981613f9d565b9050919050565b7f4e487b7100000000000000000000000000000000000000000000000000000000600052603260045260246000fd5b7f4e487b7100000000000000000000000000000000000000000000000000000000600052601160045260246000fd5b6000614049826137cf565b91507fffffffffffffffffffffffffffffffffffffffffffffffffffffffffffffffff820361407b5761407a61400f565b5b600182019050919050565b600081519050919050565b600082825260208201905092915050565b6000819050602082019050919050565b6140bb816136b1565b82525050565b60006140cd83836140b2565b60208301905092915050565b6000602082019050919050565b60006140f182614086565b6140fb8185614091565b9350614106836140a2565b8060005b8381101561413757815161411e88826140c1565b9750614129836140d9565b92505060018101905061410a565b5085935050505092915050565b6000602082019050818103600083015261415e81846140e6565b905092915050565b600060608201905061417b6000830186613cba565b6141886020830185613cba565b6141956040830184613cba565b949350505050565b6000815190506141ac816136c3565b92915050565b6000602082840312156141c8576141c76135c5565b5b60006141d68482850161419d565b91505092915050565b600060a08201905081810360008301526141f98188613a13565b9050818103602083015261420d8187613a13565b905061421c60408301866137d9565b61422960608301856137d9565b61423660808301846137d9565b9695505050505050565b60006040820190506142556000830185613cba565b81810360208301526142678184613a13565b90509392505050565b7f4e487b7100000000000000000000000000000000000000000000000000000000600052602260045260246000fd5b600060028204905060018216806142b757607f821691505b6020821081036142ca576142c9614270565b5b50919050565b7f4f776e61626c653a2063616c6c6572206973206e6f7420746865206f776e6572600082015250565b60006143066020836139cf565b9150614311826142d0565b602082019050919050565b60006020820190508181036000830152614335816142f9565b9050919050565b60006040820190506143516000830185613cba565b61435e6020830184613cba565b9392505050565b6000610100820190508181036000830152614380818b613a13565b90508181036020830152614394818a613a13565b90506143a360408301896137d9565b6143b06060830188613cba565b6143bd60808301876137d9565b6143ca60a08301866137d9565b6143d760c08301856137d9565b6143e460e08301846137d9565b9998505050505050505050565b600061012082019050818103600083015261440c818c613a13565b90508181036020830152614420818b613a13565b905061442f604083018a6137d9565b61443c60608301896137d9565b6144496080830188613cba565b61445660a08301876137d9565b61446360c08301866137d9565b61447060e08301856137d9565b61447e6101008301846137d9565b9a9950505050505050505050565b7f4d433a204f6e6c792053747564656e7400000000000000000000000000000000600082015250565b60006144c26010836139cf565b91506144cd8261448c565b602082019050919050565b600060208201905081810360008301526144f1816144b5565b9050919050565b7f596f7520617265206e6f7420616c6c6f77656400000000000000000000000000600082015250565b600061452e6013836139cf565b9150614539826144f8565b602082019050919050565b6000602082019050818103600083015261455d81614521565b9050919050565b600081905092915050565b600061457a826139c4565b6145848185614564565b93506145948185602086016139e0565b80840191505092915050565b60006145ac828461456f565b915081905092915050565b60008190508160005260206000209050919050565b600081546145d98161429f565b6145e38186614564565b945060018216600081146145fe576001811461460f57614642565b60ff19831686528186019350614642565b614618856145b7565b60005b8381101561463a5781548189015260018201915060208101905061461b565b838801955050505b50505092915050565b600061465782846145cc565b915081905092915050565b7f596f7520646964206e6f74206564697400000000000000000000000000000000600082015250565b60006146986010836139cf565b91506146a382614662565b602082019050919050565b600060208201905081810360008301526146c78161468b565b9050919050565b7f4f776e61626c653a206e6577206f776e657220697320746865207a65726f206160008201527f6464726573730000000000000000000000000000000000000000000000000000602082015250565b600061472a6026836139cf565b9150614735826146ce565b604082019050919050565b600060208201905081810360008301526147598161471d565b905091905056fea26469706673582212202086e063259ad5b46c6a6aed5887d52b10ed83d9a29bc7cc976e16ae63e0119d64736f6c634300080e0033",
  "immutableReferences": {},
  "source": "//SPDX-License-Identifier: UNLICENSED\r\npragma solidity >=0.8.0;\r\n\r\nimport \"@openzeppelin/contracts/utils/Counters.sol\";\r\nimport \"@openzeppelin/contracts/access/Ownable.sol\";\r\nimport \"./interfaces/IMissionContract.sol\";\r\nimport \"./interfaces/ISubjectContract.sol\";\r\nimport \"./interfaces/IScholarshipContract.sol\";\r\nimport \"./interfaces/ITuitionContract.sol\";\r\nimport \"./interfaces/IGeneralContract.sol\";\r\nimport \"./interfaces/IFactory.sol\";\r\nimport \"./interfaces/IAccessControl.sol\";\r\nimport \"./interfaces/IRewardDistributor.sol\";\r\n\r\ncontract ManagerPool is Ownable {\r\n    using Counters for Counters.Counter;\r\n\r\n    struct Object {\r\n        address objectAddress;\r\n        Type tipe;\r\n    }\r\n    enum Type {\r\n        Mission,\r\n        Subject,\r\n        Scholarship,\r\n        Tuition\r\n    }\r\n\r\n    IFactory public factory;\r\n    IAccessControl public accessControll;\r\n    IRewardDistributor public rewardDistributor;\r\n    Object[] public pools;\r\n    mapping(address => bool) public existed;\r\n    Counters.Counter public idCountMission;\r\n    Counters.Counter public idCountSubject;\r\n    Counters.Counter public idCountScholarship;\r\n    Counters.Counter public idCountTuition;\r\n\r\n    mapping(address => string) public studentInfo;\r\n    mapping(address => string) public lecturerInfo;\r\n\r\n    constructor(\r\n        address _factory,\r\n        address _accessControll,\r\n        address _rewardDistributor\r\n    ) {\r\n        factory = IFactory(_factory);\r\n        accessControll = IAccessControl(_accessControll);\r\n        rewardDistributor = IRewardDistributor(_rewardDistributor);\r\n    }\r\n\r\n    modifier onlyRoleAdmin() {\r\n        require(\r\n            accessControll.hasRole(keccak256(\"ADMIN\"), msg.sender),\r\n            \"MP: Only Admin\"\r\n        );\r\n        _;\r\n    }\r\n\r\n    modifier onlyRoleStudent() {\r\n        require(\r\n            accessControll.hasRole(keccak256(\"STUDENT\"), msg.sender),\r\n            \"MC: Only Student\"\r\n        );\r\n        _;\r\n    }\r\n\r\n    event AddStudentInfo(address studentAddr, string hashInfo);\r\n    event UpdateStudentInfo(address studentAddr, string hashInfo);\r\n    event AddLecturerInfo(address lecturerAddr, string hashInfo);\r\n    event NewMission(address _contractAddress, string _urlMetadata);\r\n    event NewScholarship(address _contractAddress, string _urlMetadata);\r\n    event NewSubject(address _contractAddress, string _urlMetadata);\r\n    event NewTuition(address _contractAddress, string _urlMetadata);\r\n    event TuitionLocked(address[] _listTuitions);\r\n    event SubjectLocked(address[] _listSubjects);\r\n    event MissionLocked(address[] _listMissions);\r\n    event ScholarshipLocked(address[] _listScholarships);\r\n    event StudentRoleRevoked(address[] studentAddrs);\r\n    event LecturerRoleRevoked(address[] lecturerAddrs);\r\n\r\n    function setFactory(address _factory) public onlyOwner {\r\n        factory = IFactory(_factory);\r\n    }\r\n\r\n    function addStudentInfo(address studentAddr, string memory hashInfo)\r\n        public\r\n        onlyRoleAdmin\r\n    {\r\n        studentInfo[studentAddr] = hashInfo;\r\n        accessControll.grantRole(keccak256(\"STUDENT\"), studentAddr);\r\n        emit AddStudentInfo(studentAddr, hashInfo);\r\n    }\r\n\r\n    function revokeStudentRole(address[] memory studentAddrs)\r\n        public\r\n        onlyRoleAdmin\r\n    {\r\n        for (uint i = 0; i < studentAddrs.length; i++) {\r\n            accessControll.revokeRole(keccak256(\"STUDENT\"), studentAddrs[i]);\r\n        }\r\n\r\n        emit StudentRoleRevoked(studentAddrs);\r\n    }\r\n\r\n    function update(address studentAdress, string memory hash)\r\n        public\r\n        onlyRoleStudent\r\n    {\r\n        require(studentAdress == msg.sender, \"You are not allowed\");\r\n        require(\r\n            keccak256(abi.encodePacked((studentInfo[msg.sender]))) !=\r\n                keccak256(abi.encodePacked((hash))),\r\n            \"You did not edit\"\r\n        );\r\n        studentInfo[msg.sender] = hash;\r\n        emit UpdateStudentInfo(studentAdress, hash);\r\n    }\r\n\r\n    function addLecturerInfo(address lecturerAddr, string memory hashInfo)\r\n        public\r\n        onlyRoleAdmin\r\n    {\r\n        lecturerInfo[lecturerAddr] = hashInfo;\r\n        accessControll.grantRole(keccak256(\"LECTURER\"), lecturerAddr);\r\n        emit AddLecturerInfo(lecturerAddr, hashInfo);\r\n    }\r\n\r\n    function revokeLecturerRole(address[] memory lecturerAddrs)\r\n        public\r\n        onlyRoleAdmin\r\n    {\r\n        for (uint i = 0; i < lecturerAddrs.length; i++) {\r\n            accessControll.revokeRole(keccak256(\"LECTURER\"), lecturerAddrs[i]);\r\n        }\r\n\r\n        emit LecturerRoleRevoked(lecturerAddrs);\r\n    }\r\n\r\n    function createNewMission(\r\n        string memory _urlMetadata,\r\n        string memory _missionId,\r\n        uint256 _award,\r\n        uint256 _maxEntrant,\r\n        address _persionInCharge,\r\n        uint256 _startTime,\r\n        uint256 _endTimeToRegister,\r\n        uint256 _endTime,\r\n        uint256 _endTimeToConfirm\r\n    ) external onlyRoleAdmin {\r\n        address missionContract = factory.createNewMission(\r\n            address(this),\r\n            address(accessControll),\r\n            address(rewardDistributor)\r\n        );\r\n        pools.push(Object(missionContract, Type.Mission));\r\n        existed[missionContract] = true;\r\n        IMissionContract(missionContract).setBasicForMission(\r\n            _missionId,\r\n            _urlMetadata,\r\n            _award,\r\n            _maxEntrant,\r\n            _persionInCharge,\r\n            _startTime,\r\n            _endTimeToRegister,\r\n            _endTime,\r\n            _endTimeToConfirm\r\n        );\r\n        IMissionContract(missionContract).start();\r\n        rewardDistributor.addDistributorsAddress(missionContract);\r\n        emit NewMission(missionContract, _urlMetadata);\r\n    }\r\n\r\n    function createNewSubject(\r\n        string memory _urlMetadata,\r\n        string memory _subjectId,\r\n        uint256 _maxEntrant,\r\n        address _persionInCharge,\r\n        uint256 _startTime,\r\n        uint256 _endTimeToRegister,\r\n        uint256 _endTime,\r\n        uint256 _endTimeToConfirm\r\n    ) external onlyRoleAdmin {\r\n        address subjectContract = factory.createNewSubject(\r\n            address(this),\r\n            address(accessControll)\r\n        );\r\n        pools.push(Object(subjectContract, Type.Subject));\r\n        existed[subjectContract] = true;\r\n        ISubjectContract(subjectContract).setBasicForSubject(\r\n            _subjectId,\r\n            _urlMetadata,\r\n            _maxEntrant,\r\n            _persionInCharge,\r\n            _startTime,\r\n            _endTimeToRegister,\r\n            _endTime,\r\n            _endTimeToConfirm\r\n        );\r\n        // ISubjectContract(subjectContract).setScoreColumn(qt, gk, th, ck);\r\n        ISubjectContract(subjectContract).start();\r\n        // rewardDistributor.addDistributorsAddress(subjectContract);\r\n        emit NewSubject(subjectContract, _urlMetadata);\r\n    }\r\n\r\n    function createNewScholarship(\r\n        string memory _urlMetadata,\r\n        string memory _scholarshipId,\r\n        uint256 _award,\r\n        address _persionInCharge,\r\n        uint256 _startTime,\r\n        uint256 _endTimeToRegister,\r\n        uint256 _endTime,\r\n        uint256 _endTimeToConfirm\r\n    ) external onlyRoleAdmin {\r\n        address scholarshipContract = factory.createNewScholarship(\r\n            address(this),\r\n            address(accessControll),\r\n            address(rewardDistributor)\r\n        );\r\n        pools.push(Object(scholarshipContract, Type.Scholarship));\r\n        existed[scholarshipContract] = true;\r\n        IScholarshipContract(scholarshipContract).setBasicForScholarship(\r\n            _scholarshipId,\r\n            _urlMetadata,\r\n            _award,\r\n            _persionInCharge,\r\n            _startTime,\r\n            _endTimeToRegister,\r\n            _endTime,\r\n            _endTimeToConfirm\r\n        );\r\n        IScholarshipContract(scholarshipContract).start();\r\n        rewardDistributor.addDistributorsAddress(scholarshipContract);\r\n        emit NewScholarship(scholarshipContract, _urlMetadata);\r\n    }\r\n\r\n    function createNewTuition(\r\n        string memory _urlMetadata,\r\n        string memory _tuitionId,\r\n        uint256 _feeByToken,\r\n        uint256 _startTime,\r\n        uint256 _endTime\r\n    ) external onlyRoleAdmin {\r\n        address tuitionContract = factory.createNewTuition(\r\n            address(this),\r\n            address(accessControll),\r\n            address(rewardDistributor)\r\n        );\r\n        pools.push(Object(tuitionContract, Type.Tuition));\r\n        existed[tuitionContract] = true;\r\n        ITuitionContract(tuitionContract).setBasicForTuition(\r\n            _tuitionId,\r\n            _urlMetadata,\r\n            _feeByToken,\r\n            _startTime,\r\n            _endTime\r\n        );\r\n        ITuitionContract(tuitionContract).start();\r\n        rewardDistributor.addDistributorsAddress(tuitionContract);\r\n        emit NewTuition(tuitionContract, _urlMetadata);\r\n    }\r\n\r\n    function close(address pool) external onlyRoleAdmin {\r\n        IGeneralContract(pool).close();\r\n        _removeDistributor(pool);\r\n    }\r\n\r\n    function _removeDistributor(address pool) private onlyRoleAdmin {\r\n        require(existed[pool]);\r\n        rewardDistributor.removeDistributorsAddress(pool);\r\n    }\r\n\r\n    function lockTuition(address[] memory _listTuitions) external onlyRoleAdmin {\r\n        for (uint i = 0; i < _listTuitions.length; i++) {\r\n            require(existed[_listTuitions[i]]);\r\n            ITuitionContract(_listTuitions[i]).lock();\r\n        }\r\n        emit TuitionLocked(_listTuitions);\r\n    }\r\n\r\n    function lockSubject(address[] memory _listSubjects) external onlyRoleAdmin {\r\n        for (uint i = 0; i < _listSubjects.length; i++) {\r\n            require(existed[_listSubjects[i]]);\r\n            ISubjectContract(_listSubjects[i]).lock();\r\n        }\r\n        emit SubjectLocked(_listSubjects);\r\n    }\r\n\r\n    function lockScholarship(address[] memory _listScholarships) external onlyRoleAdmin {\r\n        for (uint i = 0; i < _listScholarships.length; i++) {\r\n            require(existed[_listScholarships[i]]);\r\n            IScholarshipContract(_listScholarships[i]).lock();\r\n        }\r\n        emit ScholarshipLocked(_listScholarships);\r\n    }\r\n\r\n    function lockMission(address[] memory _listMissions) external onlyRoleAdmin {\r\n        for (uint i = 0; i < _listMissions.length; i++) {\r\n            require(existed[_listMissions[i]]);\r\n            IMissionContract(_listMissions[i]).lock();\r\n        }\r\n        emit MissionLocked(_listMissions);\r\n    }\r\n}\r\n",
  "sourcePath": "E:\\KLTN\\KLTN\\KLTN-contracts\\contracts\\studentmanager\\MangerPool.sol",
  "compiler": {
    "name": "solc",
    "version": "0.8.14+commit.80d49f37.Emscripten.clang"
  },
  "schemaVersion": "3.4.3",
  "updatedAt": "2022-06-13T07:55:43.715Z",
  "networkType": "ethereum",
  "devdoc": {
    "kind": "dev",
    "methods": {
      "owner()": {
        "details": "Returns the address of the current owner."
      },
      "renounceOwnership()": {
        "details": "Leaves the contract without owner. It will not be possible to call `onlyOwner` functions anymore. Can only be called by the current owner. NOTE: Renouncing ownership will leave the contract without an owner, thereby removing any functionality that is only available to the owner."
      },
      "transferOwnership(address)": {
        "details": "Transfers ownership of the contract to a new account (`newOwner`). Can only be called by the current owner."
      }
    },
    "version": 1
  },
  "userdoc": {
    "kind": "user",
    "methods": {},
    "version": 1
  }
}