{
  "contractName": "Marketplace",
  "abi": [
    {
      "inputs": [
        {
          "internalType": "address",
          "name": "_accessControl",
          "type": "address"
        },
        {
          "internalType": "address",
          "name": "_UITToken",
          "type": "address"
        },
        {
          "internalType": "address",
          "name": "_UITNFT",
          "type": "address"
        },
        {
          "internalType": "address",
          "name": "_rewardDistributor",
          "type": "address"
        },
        {
          "internalType": "contract IActivateNFT",
          "name": "_activateNFT",
          "type": "address"
        }
      ],
      "stateMutability": "nonpayable",
      "type": "constructor"
    },
    {
      "anonymous": false,
      "inputs": [
        {
          "indexed": true,
          "internalType": "uint256",
          "name": "itemId",
          "type": "uint256"
        },
        {
          "indexed": false,
          "internalType": "uint256",
          "name": "amount",
          "type": "uint256"
        },
        {
          "indexed": false,
          "internalType": "address",
          "name": "ownerOfItem",
          "type": "address"
        }
      ],
      "name": "AdminItemAmountUpdated",
      "type": "event"
    },
    {
      "anonymous": false,
      "inputs": [
        {
          "indexed": false,
          "internalType": "string",
          "name": "hash",
          "type": "string"
        },
        {
          "indexed": true,
          "internalType": "uint256",
          "name": "itemId",
          "type": "uint256"
        },
        {
          "indexed": false,
          "internalType": "uint256",
          "name": "amount",
          "type": "uint256"
        },
        {
          "indexed": false,
          "internalType": "uint256",
          "name": "oneItemPrice",
          "type": "uint256"
        },
        {
          "indexed": false,
          "internalType": "address",
          "name": "ownerOfItem",
          "type": "address"
        }
      ],
      "name": "AdminItemListed",
      "type": "event"
    },
    {
      "anonymous": false,
      "inputs": [
        {
          "indexed": true,
          "internalType": "uint256",
          "name": "itemId",
          "type": "uint256"
        },
        {
          "indexed": false,
          "internalType": "address",
          "name": "buyer",
          "type": "address"
        },
        {
          "indexed": false,
          "internalType": "address",
          "name": "seller",
          "type": "address"
        },
        {
          "indexed": false,
          "internalType": "uint256",
          "name": "amount",
          "type": "uint256"
        },
        {
          "indexed": false,
          "internalType": "uint256",
          "name": "price",
          "type": "uint256"
        }
      ],
      "name": "ItemBought",
      "type": "event"
    },
    {
      "anonymous": false,
      "inputs": [
        {
          "indexed": true,
          "internalType": "uint256",
          "name": "itemId",
          "type": "uint256"
        },
        {
          "indexed": false,
          "internalType": "uint256",
          "name": "amount",
          "type": "uint256"
        },
        {
          "indexed": false,
          "internalType": "address",
          "name": "ownerOfItem",
          "type": "address"
        }
      ],
      "name": "ItemDelisted",
      "type": "event"
    },
    {
      "anonymous": false,
      "inputs": [
        {
          "indexed": true,
          "internalType": "uint256",
          "name": "itemId",
          "type": "uint256"
        },
        {
          "indexed": false,
          "internalType": "uint256",
          "name": "amount",
          "type": "uint256"
        },
        {
          "indexed": false,
          "internalType": "uint256",
          "name": "oneItemPrice",
          "type": "uint256"
        },
        {
          "indexed": false,
          "internalType": "address",
          "name": "ownerOfItem",
          "type": "address"
        }
      ],
      "name": "ItemListed",
      "type": "event"
    },
    {
      "anonymous": false,
      "inputs": [
        {
          "indexed": false,
          "internalType": "uint256",
          "name": "newMarketFee",
          "type": "uint256"
        }
      ],
      "name": "MarketFeeUpdated",
      "type": "event"
    },
    {
      "anonymous": false,
      "inputs": [
        {
          "indexed": true,
          "internalType": "address",
          "name": "previousOwner",
          "type": "address"
        },
        {
          "indexed": true,
          "internalType": "address",
          "name": "newOwner",
          "type": "address"
        }
      ],
      "name": "OwnershipTransferred",
      "type": "event"
    },
    {
      "anonymous": false,
      "inputs": [
        {
          "indexed": false,
          "internalType": "address",
          "name": "account",
          "type": "address"
        }
      ],
      "name": "Paused",
      "type": "event"
    },
    {
      "anonymous": false,
      "inputs": [
        {
          "indexed": true,
          "internalType": "uint256",
          "name": "itemId",
          "type": "uint256"
        },
        {
          "indexed": false,
          "internalType": "uint256",
          "name": "_oneItemPrice",
          "type": "uint256"
        },
        {
          "indexed": false,
          "internalType": "address",
          "name": "ownerOfItem",
          "type": "address"
        }
      ],
      "name": "PriceUpdated",
      "type": "event"
    },
    {
      "anonymous": false,
      "inputs": [
        {
          "indexed": false,
          "internalType": "address",
          "name": "token",
          "type": "address"
        },
        {
          "indexed": false,
          "internalType": "bool",
          "name": "status",
          "type": "bool"
        }
      ],
      "name": "TokenValidUpdatedStatus",
      "type": "event"
    },
    {
      "anonymous": false,
      "inputs": [
        {
          "indexed": false,
          "internalType": "address",
          "name": "account",
          "type": "address"
        }
      ],
      "name": "Unpaused",
      "type": "event"
    },
    {
      "inputs": [],
      "name": "UITNFT",
      "outputs": [
        {
          "internalType": "address",
          "name": "",
          "type": "address"
        }
      ],
      "stateMutability": "view",
      "type": "function",
      "constant": true
    },
    {
      "inputs": [],
      "name": "UITToken",
      "outputs": [
        {
          "internalType": "address",
          "name": "",
          "type": "address"
        }
      ],
      "stateMutability": "view",
      "type": "function",
      "constant": true
    },
    {
      "inputs": [],
      "name": "accessControl",
      "outputs": [
        {
          "internalType": "address",
          "name": "",
          "type": "address"
        }
      ],
      "stateMutability": "view",
      "type": "function",
      "constant": true
    },
    {
      "inputs": [],
      "name": "activateNFT",
      "outputs": [
        {
          "internalType": "contract IActivateNFT",
          "name": "",
          "type": "address"
        }
      ],
      "stateMutability": "view",
      "type": "function",
      "constant": true
    },
    {
      "inputs": [
        {
          "internalType": "uint256",
          "name": "",
          "type": "uint256"
        },
        {
          "internalType": "address",
          "name": "",
          "type": "address"
        }
      ],
      "name": "itemsForSale",
      "outputs": [
        {
          "internalType": "bool",
          "name": "isActive",
          "type": "bool"
        },
        {
          "internalType": "uint256",
          "name": "itemId",
          "type": "uint256"
        },
        {
          "internalType": "uint256",
          "name": "amount",
          "type": "uint256"
        },
        {
          "internalType": "uint256",
          "name": "saleTime",
          "type": "uint256"
        },
        {
          "internalType": "uint256",
          "name": "oneItemPrice",
          "type": "uint256"
        }
      ],
      "stateMutability": "view",
      "type": "function",
      "constant": true
    },
    {
      "inputs": [
        {
          "internalType": "address",
          "name": "",
          "type": "address"
        },
        {
          "internalType": "address",
          "name": "",
          "type": "address"
        },
        {
          "internalType": "uint256[]",
          "name": "",
          "type": "uint256[]"
        },
        {
          "internalType": "uint256[]",
          "name": "",
          "type": "uint256[]"
        },
        {
          "internalType": "bytes",
          "name": "",
          "type": "bytes"
        }
      ],
      "name": "onERC1155BatchReceived",
      "outputs": [
        {
          "internalType": "bytes4",
          "name": "",
          "type": "bytes4"
        }
      ],
      "stateMutability": "nonpayable",
      "type": "function"
    },
    {
      "inputs": [
        {
          "internalType": "address",
          "name": "",
          "type": "address"
        },
        {
          "internalType": "address",
          "name": "",
          "type": "address"
        },
        {
          "internalType": "uint256",
          "name": "",
          "type": "uint256"
        },
        {
          "internalType": "uint256",
          "name": "",
          "type": "uint256"
        },
        {
          "internalType": "bytes",
          "name": "",
          "type": "bytes"
        }
      ],
      "name": "onERC1155Received",
      "outputs": [
        {
          "internalType": "bytes4",
          "name": "",
          "type": "bytes4"
        }
      ],
      "stateMutability": "nonpayable",
      "type": "function"
    },
    {
      "inputs": [],
      "name": "owner",
      "outputs": [
        {
          "internalType": "address",
          "name": "",
          "type": "address"
        }
      ],
      "stateMutability": "view",
      "type": "function",
      "constant": true
    },
    {
      "inputs": [],
      "name": "paused",
      "outputs": [
        {
          "internalType": "bool",
          "name": "",
          "type": "bool"
        }
      ],
      "stateMutability": "view",
      "type": "function",
      "constant": true
    },
    {
      "inputs": [],
      "name": "renounceOwnership",
      "outputs": [],
      "stateMutability": "nonpayable",
      "type": "function"
    },
    {
      "inputs": [],
      "name": "rewardDistributor",
      "outputs": [
        {
          "internalType": "address",
          "name": "",
          "type": "address"
        }
      ],
      "stateMutability": "view",
      "type": "function",
      "constant": true
    },
    {
      "inputs": [
        {
          "internalType": "bytes4",
          "name": "interfaceId",
          "type": "bytes4"
        }
      ],
      "name": "supportsInterface",
      "outputs": [
        {
          "internalType": "bool",
          "name": "",
          "type": "bool"
        }
      ],
      "stateMutability": "view",
      "type": "function",
      "constant": true
    },
    {
      "inputs": [
        {
          "internalType": "address",
          "name": "newOwner",
          "type": "address"
        }
      ],
      "name": "transferOwnership",
      "outputs": [],
      "stateMutability": "nonpayable",
      "type": "function"
    },
    {
      "inputs": [
        {
          "internalType": "uint256",
          "name": "_itemId",
          "type": "uint256"
        },
        {
          "internalType": "uint256",
          "name": "_oneItemPrice",
          "type": "uint256"
        },
        {
          "internalType": "uint256",
          "name": "_amount",
          "type": "uint256"
        }
      ],
      "name": "list",
      "outputs": [],
      "stateMutability": "nonpayable",
      "type": "function"
    },
    {
      "inputs": [
        {
          "internalType": "uint256",
          "name": "_itemId",
          "type": "uint256"
        }
      ],
      "name": "deList",
      "outputs": [],
      "stateMutability": "nonpayable",
      "type": "function"
    },
    {
      "inputs": [
        {
          "internalType": "uint256",
          "name": "_itemId",
          "type": "uint256"
        },
        {
          "internalType": "uint256",
          "name": "_oneItemPrice",
          "type": "uint256"
        }
      ],
      "name": "updatePrice",
      "outputs": [],
      "stateMutability": "nonpayable",
      "type": "function"
    },
    {
      "inputs": [
        {
          "internalType": "uint256",
          "name": "_itemId",
          "type": "uint256"
        },
        {
          "internalType": "address",
          "name": "_seller",
          "type": "address"
        },
        {
          "internalType": "uint256",
          "name": "_amount",
          "type": "uint256"
        }
      ],
      "name": "buy",
      "outputs": [],
      "stateMutability": "nonpayable",
      "type": "function"
    },
    {
      "inputs": [
        {
          "components": [
            {
              "internalType": "string",
              "name": "metadataInHash",
              "type": "string"
            },
            {
              "internalType": "bool",
              "name": "isCourseNFT",
              "type": "bool"
            }
          ],
          "internalType": "struct ISharedStruct.NFTInfo",
          "name": "_nftInfo",
          "type": "tuple"
        },
        {
          "internalType": "uint256",
          "name": "_oneItemPrice",
          "type": "uint256"
        },
        {
          "internalType": "uint256",
          "name": "_amount",
          "type": "uint256"
        }
      ],
      "name": "createAndListNFT",
      "outputs": [],
      "stateMutability": "nonpayable",
      "type": "function"
    },
    {
      "inputs": [
        {
          "internalType": "uint256",
          "name": "_itemId",
          "type": "uint256"
        },
        {
          "internalType": "uint256",
          "name": "_amount",
          "type": "uint256"
        }
      ],
      "name": "updateAmountNFT",
      "outputs": [],
      "stateMutability": "nonpayable",
      "type": "function"
    },
    {
      "inputs": [
        {
          "internalType": "uint256",
          "name": "_itemId",
          "type": "uint256"
        },
        {
          "internalType": "uint256",
          "name": "_amount",
          "type": "uint256"
        }
      ],
      "name": "requestActivateNFT",
      "outputs": [],
      "stateMutability": "nonpayable",
      "type": "function"
    },
    {
      "inputs": [
        {
          "internalType": "uint256[]",
          "name": "_activateId",
          "type": "uint256[]"
        }
      ],
      "name": "cancelRequestActivateNFT",
      "outputs": [],
      "stateMutability": "nonpayable",
      "type": "function"
    },
    {
      "inputs": [
        {
          "internalType": "uint256[]",
          "name": "_activateId",
          "type": "uint256[]"
        }
      ],
      "name": "activateNFTByAdmin",
      "outputs": [],
      "stateMutability": "nonpayable",
      "type": "function"
    },
    {
      "inputs": [
        {
          "internalType": "address",
          "name": "_accessControl",
          "type": "address"
        }
      ],
      "name": "setAccessControl",
      "outputs": [],
      "stateMutability": "nonpayable",
      "type": "function"
    },
    {
      "inputs": [
        {
          "internalType": "contract IActivateNFT",
          "name": "_activateNFT",
          "type": "address"
        }
      ],
      "name": "setActivateNFT",
      "outputs": [],
      "stateMutability": "nonpayable",
      "type": "function"
    },
    {
      "inputs": [],
      "name": "pause",
      "outputs": [],
      "stateMutability": "nonpayable",
      "type": "function"
    },
    {
      "inputs": [],
      "name": "unpause",
      "outputs": [],
      "stateMutability": "nonpayable",
      "type": "function"
    }
  ],
  "bytecode": "0x60e06040523480156200001157600080fd5b50604051620051c3380380620051c38339818101604052810190620000379190620004e5565b60008060006101000a81548160ff02191690831515021790555062000071620000656200036960201b60201c565b6200037160201b60201c565b60018081905550600073ffffffffffffffffffffffffffffffffffffffff168573ffffffffffffffffffffffffffffffffffffffff1603620000ea576040517f08c379a0000000000000000000000000000000000000000000000000000000008152600401620000e190620005f4565b60405180910390fd5b600073ffffffffffffffffffffffffffffffffffffffff168473ffffffffffffffffffffffffffffffffffffffff16036200015c576040517f08c379a000000000000000000000000000000000000000000000000000000000815260040162000153906200068c565b60405180910390fd5b600073ffffffffffffffffffffffffffffffffffffffff168373ffffffffffffffffffffffffffffffffffffffff1603620001ce576040517f08c379a0000000000000000000000000000000000000000000000000000000008152600401620001c59062000724565b60405180910390fd5b600073ffffffffffffffffffffffffffffffffffffffff168273ffffffffffffffffffffffffffffffffffffffff160362000240576040517f08c379a00000000000000000000000000000000000000000000000000000000081526004016200023790620007bc565b60405180910390fd5b84600260006101000a81548173ffffffffffffffffffffffffffffffffffffffff021916908373ffffffffffffffffffffffffffffffffffffffff1602179055508373ffffffffffffffffffffffffffffffffffffffff1660808173ffffffffffffffffffffffffffffffffffffffff16815250508273ffffffffffffffffffffffffffffffffffffffff1660a08173ffffffffffffffffffffffffffffffffffffffff16815250508173ffffffffffffffffffffffffffffffffffffffff1660c08173ffffffffffffffffffffffffffffffffffffffff168152505080600360006101000a81548173ffffffffffffffffffffffffffffffffffffffff021916908373ffffffffffffffffffffffffffffffffffffffff1602179055505050505050620007de565b600033905090565b60008060019054906101000a900473ffffffffffffffffffffffffffffffffffffffff16905081600060016101000a81548173ffffffffffffffffffffffffffffffffffffffff021916908373ffffffffffffffffffffffffffffffffffffffff1602179055508173ffffffffffffffffffffffffffffffffffffffff168173ffffffffffffffffffffffffffffffffffffffff167f8be0079c531659141344cd1fd0a4f28419497f9722a3daafe3b4186f6b6457e060405160405180910390a35050565b600080fd5b600073ffffffffffffffffffffffffffffffffffffffff82169050919050565b600062000468826200043b565b9050919050565b6200047a816200045b565b81146200048657600080fd5b50565b6000815190506200049a816200046f565b92915050565b6000620004ad826200045b565b9050919050565b620004bf81620004a0565b8114620004cb57600080fd5b50565b600081519050620004df81620004b4565b92915050565b600080600080600060a0868803121562000504576200050362000436565b5b6000620005148882890162000489565b9550506020620005278882890162000489565b94505060406200053a8882890162000489565b93505060606200054d8882890162000489565b92505060806200056088828901620004ce565b9150509295509295909350565b600082825260208201905092915050565b7f4d61726b6574706c6163653a2041636365737320636f6e74726f6c20636f6e7460008201527f726163742063616e6e6f74206265203000000000000000000000000000000000602082015250565b6000620005dc6030836200056d565b9150620005e9826200057e565b604082019050919050565b600060208201905081810360008301526200060f81620005cd565b9050919050565b7f4d61726b6574706c6163653a20554954546f6b656e206d757374206e6f74206260008201527f6520616464726573732030000000000000000000000000000000000000000000602082015250565b600062000674602b836200056d565b9150620006818262000616565b604082019050919050565b60006020820190508181036000830152620006a78162000665565b9050919050565b7f4d61726b6574706c6163653a205549544e46546f6b656e206d757374206e6f7460008201527f2062652061646472657373203000000000000000000000000000000000000000602082015250565b60006200070c602d836200056d565b91506200071982620006ae565b604082019050919050565b600060208201905081810360008301526200073f81620006fd565b9050919050565b7f4d61726b6574706c6163653a205265776172644469737472696275746f72206d60008201527f757374206e6f7420626520616464726573732030000000000000000000000000602082015250565b6000620007a46034836200056d565b9150620007b18262000746565b604082019050919050565b60006020820190508181036000830152620007d78162000795565b9050919050565b60805160a05160c0516149686200085b600039600081816112030152611d56015260008181610a3e01528181610cc60152818161126c0152818161134d0152818161145501528181611761015281816124d601526125630152600081816110f50152818161122501528181611306015261143101526149686000f3fe608060405234801561001057600080fd5b506004361061018e5760003560e01c806382367b2d116100de578063bc197c8111610097578063cb36142811610071578063cb36142814610413578063ee4a23691461042f578063f23a6e611461044b578063f2fde38b1461047b5761018e565b8063bc197c81146103ab578063c1f7f0f5146103db578063c949cf7d146103f75761018e565b806382367b2d146102f95780638456cb5914610315578063847261ef1461031f5780638da5cb5b1461033b578063acc2166a14610359578063b46878ca146103775761018e565b80632fe7a96d1161014b57806343be2d031161012557806343be2d0314610297578063547aee0c146102b35780635c975abb146102d1578063715018a6146102ef5761018e565b80632fe7a96d146102515780633b88699b1461026f5780633f4ba83a1461028d5761018e565b806301ffc9a7146101935780630dcd0c20146101c357806313007d55146101df57806319129e5a146101fd57806319aeb490146102195780632afaca2014610235575b600080fd5b6101ad60048036038101906101a89190612fa8565b610497565b6040516101ba9190612ff0565b60405180910390f35b6101dd60048036038101906101d89190613041565b610511565b005b6101e761073d565b6040516101f491906130c2565b60405180910390f35b61021760048036038101906102129190613109565b610763565b005b610233600480360381019061022e9190613136565b610823565b005b61024f600480360381019061024a9190613189565b610d9e565b005b61025961142f565b60405161026691906130c2565b60405180910390f35b610277611453565b60405161028491906130c2565b60405180910390f35b610295611477565b005b6102b160048036038101906102ac91906131dc565b6114fd565b005b6102bb611837565b6040516102c89190613268565b60405180910390f35b6102d961185d565b6040516102e69190612ff0565b60405180910390f35b6102f7611873565b005b610313600480360381019061030e9190613041565b6118fb565b005b61031d611a7c565b005b610339600480360381019061033491906133dc565b611b02565b005b610343611d2b565b60405161035091906130c2565b60405180910390f35b610361611d54565b60405161036e91906130c2565b60405180910390f35b610391600480360381019061038c9190613425565b611d78565b6040516103a2959493929190613474565b60405180910390f35b6103c560048036038101906103c0919061357c565b611dc8565b6040516103d2919061365a565b60405180910390f35b6103f560048036038101906103f09190613041565b611ddd565b005b610411600480360381019061040c91906133dc565b612093565b005b61042d600480360381019061042891906137b8565b6122bc565b005b61044960048036038101906104449190613865565b6127f0565b005b61046560048036038101906104609190613892565b6128b0565b604051610472919061365a565b60405180910390f35b61049560048036038101906104909190613109565b6128c5565b005b60007f4e2312e0000000000000000000000000000000000000000000000000000000007bffffffffffffffffffffffffffffffffffffffffffffffffffffffff1916827bffffffffffffffffffffffffffffffffffffffffffffffffffffffff1916148061050a5750610509826129bc565b5b9050919050565b61051961185d565b15610559576040517f08c379a000000000000000000000000000000000000000000000000000000000815260040161055090613986565b60405180910390fd5b60026001540361059e576040517f08c379a0000000000000000000000000000000000000000000000000000000008152600401610595906139f2565b60405180910390fd5b6002600181905550600260009054906101000a900473ffffffffffffffffffffffffffffffffffffffff1673ffffffffffffffffffffffffffffffffffffffff166391d148547fc951d7098b66ba0b8b77265b6e9cf0e187d73125a42bcd0061b09a68be421810336040518363ffffffff1660e01b8152600401610623929190613a2b565b602060405180830381865afa158015610640573d6000803e3d6000fd5b505050506040513d601f19601f820116820180604052508101906106649190613a69565b6106a3576040517f08c379a000000000000000000000000000000000000000000000000000000000815260040161069a90613b08565b60405180910390fd5b600360009054906101000a900473ffffffffffffffffffffffffffffffffffffffff1673ffffffffffffffffffffffffffffffffffffffff16630dcd0c2083836040518363ffffffff1660e01b8152600401610700929190613b28565b600060405180830381600087803b15801561071a57600080fd5b505af115801561072e573d6000803e3d6000fd5b50505050600180819055505050565b600260009054906101000a900473ffffffffffffffffffffffffffffffffffffffff1681565b61076b612a26565b73ffffffffffffffffffffffffffffffffffffffff16610789611d2b565b73ffffffffffffffffffffffffffffffffffffffff16146107df576040517f08c379a00000000000000000000000000000000000000000000000000000000081526004016107d690613b9d565b60405180910390fd5b80600260006101000a81548173ffffffffffffffffffffffffffffffffffffffff021916908373ffffffffffffffffffffffffffffffffffffffff16021790555050565b61082b61185d565b1561086b576040517f08c379a000000000000000000000000000000000000000000000000000000000815260040161086290613986565b60405180910390fd5b6002600154036108b0576040517f08c379a00000000000000000000000000000000000000000000000000000000081526004016108a7906139f2565b60405180910390fd5b6002600181905550600260009054906101000a900473ffffffffffffffffffffffffffffffffffffffff1673ffffffffffffffffffffffffffffffffffffffff166391d148547fc951d7098b66ba0b8b77265b6e9cf0e187d73125a42bcd0061b09a68be421810336040518363ffffffff1660e01b8152600401610935929190613a2b565b602060405180830381865afa158015610952573d6000803e3d6000fd5b505050506040513d601f19601f820116820180604052508101906109769190613a69565b6109b5576040517f08c379a00000000000000000000000000000000000000000000000000000000081526004016109ac90613b08565b60405180910390fd5b600082116109f8576040517f08c379a00000000000000000000000000000000000000000000000000000000081526004016109ef90613c09565b60405180910390fd5b60008111610a3b576040517f08c379a0000000000000000000000000000000000000000000000000000000008152600401610a3290613c75565b60405180910390fd5b807f000000000000000000000000000000000000000000000000000000000000000073ffffffffffffffffffffffffffffffffffffffff1662fdd58e33866040518363ffffffff1660e01b8152600401610a96929190613c95565b602060405180830381865afa158015610ab3573d6000803e3d6000fd5b505050506040513d601f19601f82011682018060405250810190610ad79190613cd3565b1015610b18576040517f08c379a0000000000000000000000000000000000000000000000000000000008152600401610b0f90613d72565b60405180910390fd5b60006004600085815260200190815260200160002060003373ffffffffffffffffffffffffffffffffffffffff1673ffffffffffffffffffffffffffffffffffffffff1681526020019081526020016000206040518060a00160405290816000820160009054906101000a900460ff161515151581526020016001820154815260200160028201548152602001600382015481526020016004820154815250509050806000015115610bff576040517f08c379a0000000000000000000000000000000000000000000000000000000008152600401610bf690613e04565b60405180910390fd5b6040518060a00160405280600115158152602001858152602001838152602001428152602001848152506004600086815260200190815260200160002060003373ffffffffffffffffffffffffffffffffffffffff1673ffffffffffffffffffffffffffffffffffffffff16815260200190815260200160002060008201518160000160006101000a81548160ff021916908315150217905550602082015181600101556040820151816002015560608201518160030155608082015181600401559050507f000000000000000000000000000000000000000000000000000000000000000073ffffffffffffffffffffffffffffffffffffffff1663f242432a333087866040518563ffffffff1660e01b8152600401610d239493929190613e5b565b600060405180830381600087803b158015610d3d57600080fd5b505af1158015610d51573d6000803e3d6000fd5b50505050837f5bc1dfc7136db3113acb6dad2e291dcf149405ca07fcec667fa5e1fa7f430f98838533604051610d8993929190613eb3565b60405180910390a25060018081905550505050565b610da661185d565b15610de6576040517f08c379a0000000000000000000000000000000000000000000000000000000008152600401610ddd90613986565b60405180910390fd5b600260015403610e2b576040517f08c379a0000000000000000000000000000000000000000000000000000000008152600401610e22906139f2565b60405180910390fd5b6002600181905550600260009054906101000a900473ffffffffffffffffffffffffffffffffffffffff1673ffffffffffffffffffffffffffffffffffffffff166391d148547fc951d7098b66ba0b8b77265b6e9cf0e187d73125a42bcd0061b09a68be421810336040518363ffffffff1660e01b8152600401610eb0929190613a2b565b602060405180830381865afa158015610ecd573d6000803e3d6000fd5b505050506040513d601f19601f82011682018060405250810190610ef19190613a69565b610f30576040517f08c379a0000000000000000000000000000000000000000000000000000000008152600401610f2790613b08565b60405180910390fd5b60006004600085815260200190815260200160002060008473ffffffffffffffffffffffffffffffffffffffff1673ffffffffffffffffffffffffffffffffffffffff1681526020019081526020016000209050600033905060008260040154905060008185610fa09190613f19565b90508360000160009054906101000a900460ff16610ff3576040517f08c379a0000000000000000000000000000000000000000000000000000000008152600401610fea90613fe5565b60405180910390fd5b836002015485111561103a576040517f08c379a000000000000000000000000000000000000000000000000000000000815260040161103190614077565b60405180910390fd5b8573ffffffffffffffffffffffffffffffffffffffff168373ffffffffffffffffffffffffffffffffffffffff16036110a8576040517f08c379a000000000000000000000000000000000000000000000000000000000815260040161109f906140e3565b60405180910390fd5b848460020160008282546110bc9190614103565b9250508190555060008460020154036110ed5760008460000160006101000a81548160ff0219169083151502179055505b61113a8387837f000000000000000000000000000000000000000000000000000000000000000073ffffffffffffffffffffffffffffffffffffffff16612a2e909392919063ffffffff16565b600260009054906101000a900473ffffffffffffffffffffffffffffffffffffffff1673ffffffffffffffffffffffffffffffffffffffff166391d148547fdf8b4c520ffe197c5343c6f5aec59570151ef9a492f2c624fd45ddde6135ec42886040518363ffffffff1660e01b81526004016111b7929190613a2b565b602060405180830381865afa1580156111d4573d6000803e3d6000fd5b505050506040513d601f19601f820116820180604052508101906111f89190613a69565b156112fe5761126a837f0000000000000000000000000000000000000000000000000000000000000000837f000000000000000000000000000000000000000000000000000000000000000073ffffffffffffffffffffffffffffffffffffffff16612a2e909392919063ffffffff16565b7f000000000000000000000000000000000000000000000000000000000000000073ffffffffffffffffffffffffffffffffffffffff1663836a10408885886040518463ffffffff1660e01b81526004016112c793929190614137565b600060405180830381600087803b1580156112e157600080fd5b505af11580156112f5573d6000803e3d6000fd5b505050506113e1565b61134b8387837f000000000000000000000000000000000000000000000000000000000000000073ffffffffffffffffffffffffffffffffffffffff16612a2e909392919063ffffffff16565b7f000000000000000000000000000000000000000000000000000000000000000073ffffffffffffffffffffffffffffffffffffffff1663f242432a30858760010154896040518563ffffffff1660e01b81526004016113ae9493929190613e5b565b600060405180830381600087803b1580156113c857600080fd5b505af11580156113dc573d6000803e3d6000fd5b505050505b867f9c45908c2d32f0072963511b0e7c3059b0202498a9fdc83032dd440850d0c86384888885604051611417949392919061416e565b60405180910390a25050505060018081905550505050565b7f000000000000000000000000000000000000000000000000000000000000000081565b7f000000000000000000000000000000000000000000000000000000000000000081565b61147f612a26565b73ffffffffffffffffffffffffffffffffffffffff1661149d611d2b565b73ffffffffffffffffffffffffffffffffffffffff16146114f3576040517f08c379a00000000000000000000000000000000000000000000000000000000081526004016114ea90613b9d565b60405180910390fd5b6114fb612ab7565b565b61150561185d565b15611545576040517f08c379a000000000000000000000000000000000000000000000000000000000815260040161153c90613986565b60405180910390fd5b60026001540361158a576040517f08c379a0000000000000000000000000000000000000000000000000000000008152600401611581906139f2565b60405180910390fd5b6002600181905550600260009054906101000a900473ffffffffffffffffffffffffffffffffffffffff1673ffffffffffffffffffffffffffffffffffffffff166391d148547fc951d7098b66ba0b8b77265b6e9cf0e187d73125a42bcd0061b09a68be421810336040518363ffffffff1660e01b815260040161160f929190613a2b565b602060405180830381865afa15801561162c573d6000803e3d6000fd5b505050506040513d601f19601f820116820180604052508101906116509190613a69565b61168f576040517f08c379a000000000000000000000000000000000000000000000000000000000815260040161168690613b08565b60405180910390fd5b600033905060006004600084815260200190815260200160002060008373ffffffffffffffffffffffffffffffffffffffff1673ffffffffffffffffffffffffffffffffffffffff16815260200190815260200160002090508060000160009054906101000a900460ff16611739576040517f08c379a000000000000000000000000000000000000000000000000000000000815260040161173090613fe5565b60405180910390fd5b60008160020154905060008260000160006101000a81548160ff0219169083151502179055507f000000000000000000000000000000000000000000000000000000000000000073ffffffffffffffffffffffffffffffffffffffff1663f242432a308587856040518563ffffffff1660e01b81526004016117be9493929190613e5b565b600060405180830381600087803b1580156117d857600080fd5b505af11580156117ec573d6000803e3d6000fd5b50505050837f30411792a34feb0f32a6be64e1996fa803c4505bbf6314f391f3d63c24ae52d582856040516118229291906141b3565b60405180910390a25050506001808190555050565b600360009054906101000a900473ffffffffffffffffffffffffffffffffffffffff1681565b60008060009054906101000a900460ff16905090565b61187b612a26565b73ffffffffffffffffffffffffffffffffffffffff16611899611d2b565b73ffffffffffffffffffffffffffffffffffffffff16146118ef576040517f08c379a00000000000000000000000000000000000000000000000000000000081526004016118e690613b9d565b60405180910390fd5b6118f96000612b58565b565b61190361185d565b15611943576040517f08c379a000000000000000000000000000000000000000000000000000000000815260040161193a90613986565b60405180910390fd5b600260015403611988576040517f08c379a000000000000000000000000000000000000000000000000000000000815260040161197f906139f2565b60405180910390fd5b6002600181905550600033905060006004600085815260200190815260200160002060008373ffffffffffffffffffffffffffffffffffffffff1673ffffffffffffffffffffffffffffffffffffffff168152602001908152602001600020905060008311611a2c576040517f08c379a0000000000000000000000000000000000000000000000000000000008152600401611a2390613c09565b60405180910390fd5b828160040181905550837f378b09391f49d01e482ba75312341912ad0652cb8aa8799b6b33b624bd65d9f28484604051611a679291906141b3565b60405180910390a25050600180819055505050565b611a84612a26565b73ffffffffffffffffffffffffffffffffffffffff16611aa2611d2b565b73ffffffffffffffffffffffffffffffffffffffff1614611af8576040517f08c379a0000000000000000000000000000000000000000000000000000000008152600401611aef90613b9d565b60405180910390fd5b611b00612c1d565b565b611b0a61185d565b15611b4a576040517f08c379a0000000000000000000000000000000000000000000000000000000008152600401611b4190613986565b60405180910390fd5b600260015403611b8f576040517f08c379a0000000000000000000000000000000000000000000000000000000008152600401611b86906139f2565b60405180910390fd5b6002600181905550600260009054906101000a900473ffffffffffffffffffffffffffffffffffffffff1673ffffffffffffffffffffffffffffffffffffffff166391d148547fdf8b4c520ffe197c5343c6f5aec59570151ef9a492f2c624fd45ddde6135ec42336040518363ffffffff1660e01b8152600401611c14929190613a2b565b602060405180830381865afa158015611c31573d6000803e3d6000fd5b505050506040513d601f19601f82011682018060405250810190611c559190613a69565b611c94576040517f08c379a0000000000000000000000000000000000000000000000000000000008152600401611c8b9061424e565b60405180910390fd5b600360009054906101000a900473ffffffffffffffffffffffffffffffffffffffff1673ffffffffffffffffffffffffffffffffffffffff1663a8a40f8c826040518263ffffffff1660e01b8152600401611cef919061432c565b600060405180830381600087803b158015611d0957600080fd5b505af1158015611d1d573d6000803e3d6000fd5b505050506001808190555050565b60008060019054906101000a900473ffffffffffffffffffffffffffffffffffffffff16905090565b7f000000000000000000000000000000000000000000000000000000000000000081565b6004602052816000526040600020602052806000526040600020600091509150508060000160009054906101000a900460ff16908060010154908060020154908060030154908060040154905085565b600063bc197c8160e01b905095945050505050565b611de561185d565b15611e25576040517f08c379a0000000000000000000000000000000000000000000000000000000008152600401611e1c90613986565b60405180910390fd5b600260015403611e6a576040517f08c379a0000000000000000000000000000000000000000000000000000000008152600401611e61906139f2565b60405180910390fd5b6002600181905550600260009054906101000a900473ffffffffffffffffffffffffffffffffffffffff1673ffffffffffffffffffffffffffffffffffffffff166391d148547fdf8b4c520ffe197c5343c6f5aec59570151ef9a492f2c624fd45ddde6135ec42336040518363ffffffff1660e01b8152600401611eef929190613a2b565b602060405180830381865afa158015611f0c573d6000803e3d6000fd5b505050506040513d601f19601f82011682018060405250810190611f309190613a69565b611f6f576040517f08c379a0000000000000000000000000000000000000000000000000000000008152600401611f669061424e565b60405180910390fd5b60006004600084815260200190815260200160002060003373ffffffffffffffffffffffffffffffffffffffff1673ffffffffffffffffffffffffffffffffffffffff168152602001908152602001600020905060008160000160009054906101000a900460ff169050600083148015611fe65750805b1561200d5760008260000160006101000a81548160ff021916908315150217905550612043565b6000826002015414801561201f575080155b156120425760018260000160006101000a81548160ff0219169083151502179055505b5b828260020181905550837f4bfa799bd52e5cd465e582b11fbad754d789f4fa526df2209ec026d2da586661843360405161207e9291906141b3565b60405180910390a25050600180819055505050565b61209b61185d565b156120db576040517f08c379a00000000000000000000000000000000000000000000000000000000081526004016120d290613986565b60405180910390fd5b600260015403612120576040517f08c379a0000000000000000000000000000000000000000000000000000000008152600401612117906139f2565b60405180910390fd5b6002600181905550600260009054906101000a900473ffffffffffffffffffffffffffffffffffffffff1673ffffffffffffffffffffffffffffffffffffffff166391d148547fc951d7098b66ba0b8b77265b6e9cf0e187d73125a42bcd0061b09a68be421810336040518363ffffffff1660e01b81526004016121a5929190613a2b565b602060405180830381865afa1580156121c2573d6000803e3d6000fd5b505050506040513d601f19601f820116820180604052508101906121e69190613a69565b612225576040517f08c379a000000000000000000000000000000000000000000000000000000000815260040161221c90613b08565b60405180910390fd5b600360009054906101000a900473ffffffffffffffffffffffffffffffffffffffff1673ffffffffffffffffffffffffffffffffffffffff1663c949cf7d826040518263ffffffff1660e01b8152600401612280919061432c565b600060405180830381600087803b15801561229a57600080fd5b505af11580156122ae573d6000803e3d6000fd5b505050506001808190555050565b6122c461185d565b15612304576040517f08c379a00000000000000000000000000000000000000000000000000000000081526004016122fb90613986565b60405180910390fd5b600260015403612349576040517f08c379a0000000000000000000000000000000000000000000000000000000008152600401612340906139f2565b60405180910390fd5b6002600181905550600260009054906101000a900473ffffffffffffffffffffffffffffffffffffffff1673ffffffffffffffffffffffffffffffffffffffff166391d148547fdf8b4c520ffe197c5343c6f5aec59570151ef9a492f2c624fd45ddde6135ec42336040518363ffffffff1660e01b81526004016123ce929190613a2b565b602060405180830381865afa1580156123eb573d6000803e3d6000fd5b505050506040513d601f19601f8201168201806040525081019061240f9190613a69565b61244e576040517f08c379a00000000000000000000000000000000000000000000000000000000081526004016124459061424e565b60405180910390fd5b60008211612491576040517f08c379a0000000000000000000000000000000000000000000000000000000008152600401612488906143c0565b60405180910390fd5b600081116124d4576040517f08c379a00000000000000000000000000000000000000000000000000000000081526004016124cb90614452565b60405180910390fd5b7f000000000000000000000000000000000000000000000000000000000000000073ffffffffffffffffffffffffffffffffffffffff166391ac2c4e846040518263ffffffff1660e01b815260040161252d9190614546565b600060405180830381600087803b15801561254757600080fd5b505af115801561255b573d6000803e3d6000fd5b5050505060007f000000000000000000000000000000000000000000000000000000000000000073ffffffffffffffffffffffffffffffffffffffff1663b02a27566040518163ffffffff1660e01b81526004016020604051808303816000875af11580156125ce573d6000803e3d6000fd5b505050506040513d601f19601f820116820180604052508101906125f29190613cd3565b905060006004600083815260200190815260200160002060003373ffffffffffffffffffffffffffffffffffffffff1673ffffffffffffffffffffffffffffffffffffffff1681526020019081526020016000206040518060a00160405290816000820160009054906101000a900460ff1615151515815260200160018201548152602001600282015481526020016003820154815260200160048201548152505090508060000151156126db576040517f08c379a00000000000000000000000000000000000000000000000000000000081526004016126d290613e04565b60405180910390fd5b6040518060a00160405280600115158152602001838152602001848152602001428152602001858152506004600084815260200190815260200160002060003373ffffffffffffffffffffffffffffffffffffffff1673ffffffffffffffffffffffffffffffffffffffff16815260200190815260200160002060008201518160000160006101000a81548160ff02191690831515021790555060208201518160010155604082015181600201556060820151816003015560808201518160040155905050817f4e0411259c41f439977629c5265a0b21b5392c5ffacaaf8e193784624776030786600001518587336040516127da94939291906145a1565b60405180910390a2505060018081905550505050565b6127f8612a26565b73ffffffffffffffffffffffffffffffffffffffff16612816611d2b565b73ffffffffffffffffffffffffffffffffffffffff161461286c576040517f08c379a000000000000000000000000000000000000000000000000000000000815260040161286390613b9d565b60405180910390fd5b80600360006101000a81548173ffffffffffffffffffffffffffffffffffffffff021916908373ffffffffffffffffffffffffffffffffffffffff16021790555050565b600063f23a6e6160e01b905095945050505050565b6128cd612a26565b73ffffffffffffffffffffffffffffffffffffffff166128eb611d2b565b73ffffffffffffffffffffffffffffffffffffffff1614612941576040517f08c379a000000000000000000000000000000000000000000000000000000000815260040161293890613b9d565b60405180910390fd5b600073ffffffffffffffffffffffffffffffffffffffff168173ffffffffffffffffffffffffffffffffffffffff16036129b0576040517f08c379a00000000000000000000000000000000000000000000000000000000081526004016129a79061465f565b60405180910390fd5b6129b981612b58565b50565b60007f01ffc9a7000000000000000000000000000000000000000000000000000000007bffffffffffffffffffffffffffffffffffffffffffffffffffffffff1916827bffffffffffffffffffffffffffffffffffffffffffffffffffffffff1916149050919050565b600033905090565b612ab1846323b872dd60e01b858585604051602401612a4f9392919061467f565b604051602081830303815290604052907bffffffffffffffffffffffffffffffffffffffffffffffffffffffff19166020820180517bffffffffffffffffffffffffffffffffffffffffffffffffffffffff8381831617835250505050612cbf565b50505050565b612abf61185d565b612afe576040517f08c379a0000000000000000000000000000000000000000000000000000000008152600401612af590614702565b60405180910390fd5b60008060006101000a81548160ff0219169083151502179055507f5db9ee0a495bf2e6ff9c91a7834c1ba4fdd244a5e8aa4e537bd38aeae4b073aa612b41612a26565b604051612b4e91906130c2565b60405180910390a1565b60008060019054906101000a900473ffffffffffffffffffffffffffffffffffffffff16905081600060016101000a81548173ffffffffffffffffffffffffffffffffffffffff021916908373ffffffffffffffffffffffffffffffffffffffff1602179055508173ffffffffffffffffffffffffffffffffffffffff168173ffffffffffffffffffffffffffffffffffffffff167f8be0079c531659141344cd1fd0a4f28419497f9722a3daafe3b4186f6b6457e060405160405180910390a35050565b612c2561185d565b15612c65576040517f08c379a0000000000000000000000000000000000000000000000000000000008152600401612c5c90613986565b60405180910390fd5b60016000806101000a81548160ff0219169083151502179055507f62e78cea01bee320cd4e420270b5ea74000d11b0c9f74754ebdbfc544b05a258612ca8612a26565b604051612cb591906130c2565b60405180910390a1565b6000612d21826040518060400160405280602081526020017f5361666545524332303a206c6f772d6c6576656c2063616c6c206661696c65648152508573ffffffffffffffffffffffffffffffffffffffff16612d869092919063ffffffff16565b9050600081511115612d815780806020019051810190612d419190613a69565b612d80576040517f08c379a0000000000000000000000000000000000000000000000000000000008152600401612d7790614794565b60405180910390fd5b5b505050565b6060612d958484600085612d9e565b90509392505050565b606082471015612de3576040517f08c379a0000000000000000000000000000000000000000000000000000000008152600401612dda90614826565b60405180910390fd5b612dec85612eb2565b612e2b576040517f08c379a0000000000000000000000000000000000000000000000000000000008152600401612e2290614892565b60405180910390fd5b6000808673ffffffffffffffffffffffffffffffffffffffff168587604051612e5491906148f9565b60006040518083038185875af1925050503d8060008114612e91576040519150601f19603f3d011682016040523d82523d6000602084013e612e96565b606091505b5091509150612ea6828286612ed5565b92505050949350505050565b6000808273ffffffffffffffffffffffffffffffffffffffff163b119050919050565b60608315612ee557829050612f35565b600083511115612ef85782518084602001fd5b816040517f08c379a0000000000000000000000000000000000000000000000000000000008152600401612f2c9190614910565b60405180910390fd5b9392505050565b6000604051905090565b600080fd5b600080fd5b60007fffffffff0000000000000000000000000000000000000000000000000000000082169050919050565b612f8581612f50565b8114612f9057600080fd5b50565b600081359050612fa281612f7c565b92915050565b600060208284031215612fbe57612fbd612f46565b5b6000612fcc84828501612f93565b91505092915050565b60008115159050919050565b612fea81612fd5565b82525050565b60006020820190506130056000830184612fe1565b92915050565b6000819050919050565b61301e8161300b565b811461302957600080fd5b50565b60008135905061303b81613015565b92915050565b6000806040838503121561305857613057612f46565b5b60006130668582860161302c565b92505060206130778582860161302c565b9150509250929050565b600073ffffffffffffffffffffffffffffffffffffffff82169050919050565b60006130ac82613081565b9050919050565b6130bc816130a1565b82525050565b60006020820190506130d760008301846130b3565b92915050565b6130e6816130a1565b81146130f157600080fd5b50565b600081359050613103816130dd565b92915050565b60006020828403121561311f5761311e612f46565b5b600061312d848285016130f4565b91505092915050565b60008060006060848603121561314f5761314e612f46565b5b600061315d8682870161302c565b935050602061316e8682870161302c565b925050604061317f8682870161302c565b9150509250925092565b6000806000606084860312156131a2576131a1612f46565b5b60006131b08682870161302c565b93505060206131c1868287016130f4565b92505060406131d28682870161302c565b9150509250925092565b6000602082840312156131f2576131f1612f46565b5b60006132008482850161302c565b91505092915050565b6000819050919050565b600061322e61322961322484613081565b613209565b613081565b9050919050565b600061324082613213565b9050919050565b600061325282613235565b9050919050565b61326281613247565b82525050565b600060208201905061327d6000830184613259565b92915050565b600080fd5b6000601f19601f8301169050919050565b7f4e487b7100000000000000000000000000000000000000000000000000000000600052604160045260246000fd5b6132d182613288565b810181811067ffffffffffffffff821117156132f0576132ef613299565b5b80604052505050565b6000613303612f3c565b905061330f82826132c8565b919050565b600067ffffffffffffffff82111561332f5761332e613299565b5b602082029050602081019050919050565b600080fd5b600061335861335384613314565b6132f9565b9050808382526020820190506020840283018581111561337b5761337a613340565b5b835b818110156133a45780613390888261302c565b84526020840193505060208101905061337d565b5050509392505050565b600082601f8301126133c3576133c2613283565b5b81356133d3848260208601613345565b91505092915050565b6000602082840312156133f2576133f1612f46565b5b600082013567ffffffffffffffff8111156134105761340f612f4b565b5b61341c848285016133ae565b91505092915050565b6000806040838503121561343c5761343b612f46565b5b600061344a8582860161302c565b925050602061345b858286016130f4565b9150509250929050565b61346e8161300b565b82525050565b600060a0820190506134896000830188612fe1565b6134966020830187613465565b6134a36040830186613465565b6134b06060830185613465565b6134bd6080830184613465565b9695505050505050565b600080fd5b600067ffffffffffffffff8211156134e7576134e6613299565b5b6134f082613288565b9050602081019050919050565b82818337600083830152505050565b600061351f61351a846134cc565b6132f9565b90508281526020810184848401111561353b5761353a6134c7565b5b6135468482856134fd565b509392505050565b600082601f83011261356357613562613283565b5b813561357384826020860161350c565b91505092915050565b600080600080600060a0868803121561359857613597612f46565b5b60006135a6888289016130f4565b95505060206135b7888289016130f4565b945050604086013567ffffffffffffffff8111156135d8576135d7612f4b565b5b6135e4888289016133ae565b935050606086013567ffffffffffffffff81111561360557613604612f4b565b5b613611888289016133ae565b925050608086013567ffffffffffffffff81111561363257613631612f4b565b5b61363e8882890161354e565b9150509295509295909350565b61365481612f50565b82525050565b600060208201905061366f600083018461364b565b92915050565b600080fd5b600080fd5b600067ffffffffffffffff82111561369a57613699613299565b5b6136a382613288565b9050602081019050919050565b60006136c36136be8461367f565b6132f9565b9050828152602081018484840111156136df576136de6134c7565b5b6136ea8482856134fd565b509392505050565b600082601f83011261370757613706613283565b5b81356137178482602086016136b0565b91505092915050565b61372981612fd5565b811461373457600080fd5b50565b60008135905061374681613720565b92915050565b60006040828403121561376257613761613675565b5b61376c60406132f9565b9050600082013567ffffffffffffffff81111561378c5761378b61367a565b5b613798848285016136f2565b60008301525060206137ac84828501613737565b60208301525092915050565b6000806000606084860312156137d1576137d0612f46565b5b600084013567ffffffffffffffff8111156137ef576137ee612f4b565b5b6137fb8682870161374c565b935050602061380c8682870161302c565b925050604061381d8682870161302c565b9150509250925092565b6000613832826130a1565b9050919050565b61384281613827565b811461384d57600080fd5b50565b60008135905061385f81613839565b92915050565b60006020828403121561387b5761387a612f46565b5b600061388984828501613850565b91505092915050565b600080600080600060a086880312156138ae576138ad612f46565b5b60006138bc888289016130f4565b95505060206138cd888289016130f4565b94505060406138de8882890161302c565b93505060606138ef8882890161302c565b925050608086013567ffffffffffffffff8111156139105761390f612f4b565b5b61391c8882890161354e565b9150509295509295909350565b600082825260208201905092915050565b7f5061757361626c653a2070617573656400000000000000000000000000000000600082015250565b6000613970601083613929565b915061397b8261393a565b602082019050919050565b6000602082019050818103600083015261399f81613963565b9050919050565b7f5265656e7472616e637947756172643a207265656e7472616e742063616c6c00600082015250565b60006139dc601f83613929565b91506139e7826139a6565b602082019050919050565b60006020820190508181036000830152613a0b816139cf565b9050919050565b6000819050919050565b613a2581613a12565b82525050565b6000604082019050613a406000830185613a1c565b613a4d60208301846130b3565b9392505050565b600081519050613a6381613720565b92915050565b600060208284031215613a7f57613a7e612f46565b5b6000613a8d84828501613a54565b91505092915050565b7f4d61726b6574706c6163653a204f6e6c792073747564656e742063616e20636160008201527f6c6c20746869732066756e6374696f6e00000000000000000000000000000000602082015250565b6000613af2603083613929565b9150613afd82613a96565b604082019050919050565b60006020820190508181036000830152613b2181613ae5565b9050919050565b6000604082019050613b3d6000830185613465565b613b4a6020830184613465565b9392505050565b7f4f776e61626c653a2063616c6c6572206973206e6f7420746865206f776e6572600082015250565b6000613b87602083613929565b9150613b9282613b51565b602082019050919050565b60006020820190508181036000830152613bb681613b7a565b9050919050565b7f4d61726b6574706c6163653a207072696365206973207a65726f000000000000600082015250565b6000613bf3601a83613929565b9150613bfe82613bbd565b602082019050919050565b60006020820190508181036000830152613c2281613be6565b9050919050565b7f4d61726b6574706c6163653a20616d6f756e74206973207a65726f0000000000600082015250565b6000613c5f601b83613929565b9150613c6a82613c29565b602082019050919050565b60006020820190508181036000830152613c8e81613c52565b9050919050565b6000604082019050613caa60008301856130b3565b613cb76020830184613465565b9392505050565b600081519050613ccd81613015565b92915050565b600060208284031215613ce957613ce8612f46565b5b6000613cf784828501613cbe565b91505092915050565b7f4d61726b6574706c6163653a2042616c616e6365206f66206974656d73206c6560008201527f7373207468616e20616d6f756e74000000000000000000000000000000000000602082015250565b6000613d5c602e83613929565b9150613d6782613d00565b604082019050919050565b60006020820190508181036000830152613d8b81613d4f565b9050919050565b7f4d61726b6574706c6163653a204974656d20697320616c7265616479206c697360008201527f7465640000000000000000000000000000000000000000000000000000000000602082015250565b6000613dee602383613929565b9150613df982613d92565b604082019050919050565b60006020820190508181036000830152613e1d81613de1565b9050919050565b600082825260208201905092915050565b50565b6000613e45600083613e24565b9150613e5082613e35565b600082019050919050565b600060a082019050613e7060008301876130b3565b613e7d60208301866130b3565b613e8a6040830185613465565b613e976060830184613465565b8181036080830152613ea881613e38565b905095945050505050565b6000606082019050613ec86000830186613465565b613ed56020830185613465565b613ee260408301846130b3565b949350505050565b7f4e487b7100000000000000000000000000000000000000000000000000000000600052601160045260246000fd5b6000613f248261300b565b9150613f2f8361300b565b9250817fffffffffffffffffffffffffffffffffffffffffffffffffffffffffffffffff0483118215151615613f6857613f67613eea565b5b828202905092915050565b7f4d61726b6574706c6163653a2053616c6520696e6163746976617465206f722060008201527f616c726561647920736f6c640000000000000000000000000000000000000000602082015250565b6000613fcf602c83613929565b9150613fda82613f73565b604082019050919050565b60006020820190508181036000830152613ffe81613fc2565b9050919050565b7f4d61726b6574706c6163653a204e6f7420656e6f75676820616d6f756e74207460008201527f6f2073656c6c0000000000000000000000000000000000000000000000000000602082015250565b6000614061602683613929565b915061406c82614005565b604082019050919050565b6000602082019050818103600083015261409081614054565b9050919050565b7f4d61726b6574706c6163653a206f776e65722063616e6e6f7420627579000000600082015250565b60006140cd601d83613929565b91506140d882614097565b602082019050919050565b600060208201905081810360008301526140fc816140c0565b9050919050565b600061410e8261300b565b91506141198361300b565b92508282101561412c5761412b613eea565b5b828203905092915050565b600060608201905061414c6000830186613465565b61415960208301856130b3565b6141666040830184613465565b949350505050565b600060808201905061418360008301876130b3565b61419060208301866130b3565b61419d6040830185613465565b6141aa6060830184613465565b95945050505050565b60006040820190506141c86000830185613465565b6141d560208301846130b3565b9392505050565b7f4d61726b6574706c6163653a204f6e6c792061646d696e2063616e2063616c6c60008201527f20746869732066756e6374696f6e000000000000000000000000000000000000602082015250565b6000614238602e83613929565b9150614243826141dc565b604082019050919050565b600060208201905081810360008301526142678161422b565b9050919050565b600081519050919050565b600082825260208201905092915050565b6000819050602082019050919050565b6142a38161300b565b82525050565b60006142b5838361429a565b60208301905092915050565b6000602082019050919050565b60006142d98261426e565b6142e38185614279565b93506142ee8361428a565b8060005b8381101561431f57815161430688826142a9565b9750614311836142c1565b9250506001810190506142f2565b5085935050505092915050565b6000602082019050818103600083015261434681846142ce565b905092915050565b7f4d61726b6574706c6163653a207072696365206d757374206e6f74206265207a60008201527f65726f0000000000000000000000000000000000000000000000000000000000602082015250565b60006143aa602383613929565b91506143b58261434e565b604082019050919050565b600060208201905081810360008301526143d98161439d565b9050919050565b7f4d61726b6574706c6163653a20616d6f756e74206d757374206e6f742062652060008201527f7a65726f00000000000000000000000000000000000000000000000000000000602082015250565b600061443c602483613929565b9150614447826143e0565b604082019050919050565b6000602082019050818103600083015261446b8161442f565b9050919050565b600081519050919050565b600082825260208201905092915050565b60005b838110156144ac578082015181840152602081019050614491565b838111156144bb576000848401525b50505050565b60006144cc82614472565b6144d6818561447d565b93506144e681856020860161448e565b6144ef81613288565b840191505092915050565b61450381612fd5565b82525050565b6000604083016000830151848203600086015261452682826144c1565b915050602083015161453b60208601826144fa565b508091505092915050565b600060208201905081810360008301526145608184614509565b905092915050565b600061457382614472565b61457d8185613929565b935061458d81856020860161448e565b61459681613288565b840191505092915050565b600060808201905081810360008301526145bb8187614568565b90506145ca6020830186613465565b6145d76040830185613465565b6145e460608301846130b3565b95945050505050565b7f4f776e61626c653a206e6577206f776e657220697320746865207a65726f206160008201527f6464726573730000000000000000000000000000000000000000000000000000602082015250565b6000614649602683613929565b9150614654826145ed565b604082019050919050565b600060208201905081810360008301526146788161463c565b9050919050565b600060608201905061469460008301866130b3565b6146a160208301856130b3565b6146ae6040830184613465565b949350505050565b7f5061757361626c653a206e6f7420706175736564000000000000000000000000600082015250565b60006146ec601483613929565b91506146f7826146b6565b602082019050919050565b6000602082019050818103600083015261471b816146df565b9050919050565b7f5361666545524332303a204552433230206f7065726174696f6e20646964206e60008201527f6f74207375636365656400000000000000000000000000000000000000000000602082015250565b600061477e602a83613929565b915061478982614722565b604082019050919050565b600060208201905081810360008301526147ad81614771565b9050919050565b7f416464726573733a20696e73756666696369656e742062616c616e636520666f60008201527f722063616c6c0000000000000000000000000000000000000000000000000000602082015250565b6000614810602683613929565b915061481b826147b4565b604082019050919050565b6000602082019050818103600083015261483f81614803565b9050919050565b7f416464726573733a2063616c6c20746f206e6f6e2d636f6e7472616374000000600082015250565b600061487c601d83613929565b915061488782614846565b602082019050919050565b600060208201905081810360008301526148ab8161486f565b9050919050565b600081519050919050565b600081905092915050565b60006148d3826148b2565b6148dd81856148bd565b93506148ed81856020860161448e565b80840191505092915050565b600061490582846148c8565b915081905092915050565b6000602082019050818103600083015261492a8184614568565b90509291505056fea2646970667358221220109987548057b569884901cd4f5a41f2058bc308f5ed0cfe9ab131300b05fed664736f6c634300080e0033",
  "immutableReferences": {
    "5468": [
      {
        "length": 32,
        "start": 4341
      },
      {
        "length": 32,
        "start": 4645
      },
      {
        "length": 32,
        "start": 4870
      },
      {
        "length": 32,
        "start": 5169
      }
    ],
    "5470": [
      {
        "length": 32,
        "start": 2622
      },
      {
        "length": 32,
        "start": 3270
      },
      {
        "length": 32,
        "start": 4716
      },
      {
        "length": 32,
        "start": 4941
      },
      {
        "length": 32,
        "start": 5205
      },
      {
        "length": 32,
        "start": 5985
      },
      {
        "length": 32,
        "start": 9430
      },
      {
        "length": 32,
        "start": 9571
      }
    ],
    "5472": [
      {
        "length": 32,
        "start": 4611
      },
      {
        "length": 32,
        "start": 7510
      }
    ]
  },
  "source": "//SPDX-License-Identifier: MIT\r\npragma solidity ^0.8.0;\r\n\r\nimport \"./interfaces/IMarketplace.sol\";\r\nimport \"../activateNFT/interfaces/IActivateNFT.sol\";\r\nimport \"../studentmanager/interfaces/IAccessControl.sol\";\r\nimport \"../token/interfaces/IUITNFTToken.sol\";\r\nimport \"@openzeppelin/contracts/token/ERC20/IERC20.sol\";\r\nimport \"@openzeppelin/contracts/token/ERC20/utils/SafeERC20.sol\";\r\nimport \"@openzeppelin/contracts/token/ERC1155/IERC1155.sol\";\r\nimport \"@openzeppelin/contracts/token/ERC1155/IERC1155Receiver.sol\";\r\nimport {ERC1155Holder} from \"@openzeppelin/contracts/token/ERC1155/utils/ERC1155Holder.sol\";\r\nimport \"@openzeppelin/contracts/access/Ownable.sol\";\r\nimport \"@openzeppelin/contracts/security/ReentrancyGuard.sol\";\r\nimport \"@openzeppelin/contracts/utils/Counters.sol\";\r\nimport \"@openzeppelin/contracts/security/Pausable.sol\";\r\n\r\ncontract Marketplace is\r\n    IMarketplace,\r\n    Pausable,\r\n    Ownable,\r\n    ReentrancyGuard,\r\n    ERC1155Holder\r\n{\r\n    using SafeERC20 for IERC20;\r\n    using Counters for Counters.Counter;\r\n\r\n    address public accessControl;\r\n    address public immutable UITToken;\r\n    address public immutable UITNFT;\r\n    address public immutable rewardDistributor;\r\n    IActivateNFT public activateNFT;\r\n\r\n    bytes32 internal constant ADMIN_ROLE = keccak256(\"ADMIN\");\r\n    bytes32 internal constant STUDENT_ROLE = keccak256(\"STUDENT\");\r\n\r\n    mapping(uint256 => mapping(address => SaleInfo)) public itemsForSale;\r\n\r\n    constructor(\r\n        address _accessControl,\r\n        address _UITToken,\r\n        address _UITNFT,\r\n        address _rewardDistributor,\r\n        IActivateNFT _activateNFT\r\n    ) {\r\n        require(\r\n            _accessControl != address(0),\r\n            \"Marketplace: Access control contract cannot be 0\"\r\n        );\r\n        require(\r\n            _UITToken != address(0),\r\n            \"Marketplace: UITToken must not be address 0\"\r\n        );\r\n        require(\r\n            _UITNFT != address(0),\r\n            \"Marketplace: UITNFToken must not be address 0\"\r\n        );\r\n        require(\r\n            _rewardDistributor != address(0),\r\n            \"Marketplace: RewardDistributor must not be address 0\"\r\n        );\r\n        accessControl = _accessControl;\r\n        UITToken = _UITToken;\r\n        UITNFT = _UITNFT;\r\n        rewardDistributor = _rewardDistributor;\r\n        activateNFT = _activateNFT;\r\n    }\r\n\r\n    modifier onlyAdmin() {\r\n        require(\r\n            IAccessControl(accessControl).hasRole(ADMIN_ROLE, msg.sender),\r\n            \"Marketplace: Only admin can call this function\"\r\n        );\r\n        _;\r\n    }\r\n\r\n    modifier onlyStudent() {\r\n        require(\r\n            IAccessControl(accessControl).hasRole(STUDENT_ROLE, msg.sender),\r\n            \"Marketplace: Only student can call this function\"\r\n        );\r\n        _;\r\n    }\r\n\r\n    /** USER\r\n     * @dev Seller lists a item on sale\r\n     * @param _itemId itemId\r\n     * @param _oneItemPrice price of one item want to sell\r\n     * @param _amount amount of item want to sell\r\n     */\r\n    function list(\r\n        uint256 _itemId,\r\n        uint256 _oneItemPrice,\r\n        uint256 _amount\r\n    ) external override whenNotPaused nonReentrant onlyStudent {\r\n        require(_oneItemPrice > 0, \"Marketplace: price is zero\");\r\n        require(_amount > 0, \"Marketplace: amount is zero\");\r\n        require(\r\n            IERC1155(UITNFT).balanceOf(msg.sender, _itemId) >= _amount,\r\n            \"Marketplace: Balance of items less than amount\"\r\n        );\r\n        SaleInfo memory saleInfo = itemsForSale[_itemId][msg.sender];\r\n        require(!saleInfo.isActive, \"Marketplace: Item is already listed\");\r\n\r\n        itemsForSale[_itemId][msg.sender] = SaleInfo(\r\n            true,\r\n            _itemId,\r\n            _amount,\r\n            block.timestamp,\r\n            _oneItemPrice\r\n        );\r\n\r\n        IERC1155(UITNFT).safeTransferFrom(\r\n            msg.sender,\r\n            address(this),\r\n            _itemId,\r\n            _amount,\r\n            \"\"\r\n        );\r\n\r\n        emit ItemListed(_itemId, _amount, _oneItemPrice, msg.sender);\r\n    }\r\n\r\n    /** USER\r\n     * @dev Owner delists item is being on sale.\r\n     * @param _itemId id of item want to delist\r\n     */\r\n    function deList(uint256 _itemId)\r\n        external\r\n        override\r\n        whenNotPaused\r\n        nonReentrant\r\n        onlyStudent\r\n    {\r\n        address seller = msg.sender;\r\n        SaleInfo storage sale = itemsForSale[_itemId][seller];\r\n        require(sale.isActive, \"Marketplace: Sale inactivate or already sold\");\r\n\r\n        uint256 amount = sale.amount;\r\n        sale.isActive = false;\r\n\r\n        IERC1155(UITNFT).safeTransferFrom(\r\n            address(this),\r\n            seller,\r\n            _itemId,\r\n            amount,\r\n            \"\"\r\n        );\r\n\r\n        emit ItemDelisted(_itemId, amount, seller);\r\n    }\r\n\r\n    /** USER, ADMIN\r\n     * @dev Seller update price of one item\r\n     * @param _itemId id of item want to update price\r\n     * @param _oneItemPrice new price of one item\r\n     */\r\n    function updatePrice(uint256 _itemId, uint256 _oneItemPrice)\r\n        external\r\n        override\r\n        whenNotPaused\r\n        nonReentrant\r\n    {\r\n        address seller = msg.sender;\r\n        SaleInfo storage sale = itemsForSale[_itemId][seller];\r\n        require(_oneItemPrice > 0, \"Marketplace: price is zero\");\r\n\r\n        sale.oneItemPrice = _oneItemPrice;\r\n\r\n        emit PriceUpdated(_itemId, _oneItemPrice, seller);\r\n    }\r\n\r\n    /** USER\r\n     * @dev Buyer buy amount of items is being on sale.\r\n     * @param _itemId id of item want to buy\r\n     * @param _seller seller address\r\n     * @param _amount amount of item want to buy\r\n     */\r\n    function buy(\r\n        uint256 _itemId,\r\n        address _seller,\r\n        uint256 _amount\r\n    ) external override whenNotPaused nonReentrant onlyStudent {\r\n        SaleInfo storage sale = itemsForSale[_itemId][_seller];\r\n        address buyer = msg.sender;\r\n        uint256 oneItemPrice = sale.oneItemPrice;\r\n        uint256 price = _amount * oneItemPrice;\r\n\r\n        require(sale.isActive, \"Marketplace: Sale inactivate or already sold\");\r\n        require(\r\n            _amount <= sale.amount,\r\n            \"Marketplace: Not enough amount to sell\"\r\n        );\r\n        require(buyer != _seller, \"Marketplace: owner cannot buy\");\r\n\r\n        sale.amount -= _amount;\r\n        if (sale.amount == 0) sale.isActive = false;\r\n\r\n        IERC20(UITToken).safeTransferFrom(buyer, _seller, price);\r\n\r\n        // If seller is Admin, mint NFT to buyer\r\n        if (IAccessControl(accessControl).hasRole(ADMIN_ROLE, _seller)) {\r\n            IERC20(UITToken).safeTransferFrom(buyer, rewardDistributor, price);\r\n            IUITNFTToken(UITNFT).mint(_itemId, buyer, _amount);\r\n        } else {\r\n            IERC20(UITToken).safeTransferFrom(buyer, _seller, price);\r\n            IERC1155(UITNFT).safeTransferFrom(\r\n                address(this),\r\n                buyer,\r\n                sale.itemId,\r\n                _amount,\r\n                \"\"\r\n            );\r\n        }\r\n\r\n        emit ItemBought(_itemId, buyer, _seller, _amount, price);\r\n    }\r\n\r\n    /** ADMIN\r\n     * @dev create and list items on sale.\r\n     * @param _nftInfo info of NFT want to create\r\n     * @param _oneItemPrice price of one item want to sell\r\n     * @param _amount amount of item want to sell\r\n     */\r\n    function createAndListNFT(\r\n        NFTInfo memory _nftInfo,\r\n        uint256 _oneItemPrice,\r\n        uint256 _amount\r\n    ) external override whenNotPaused nonReentrant onlyAdmin {\r\n        require(_oneItemPrice > 0, \"Marketplace: price must not be zero\");\r\n        require(_amount > 0, \"Marketplace: amount must not be zero\");\r\n        IUITNFTToken(UITNFT).createNFT(_nftInfo);\r\n        uint256 itemId = IUITNFTToken(UITNFT).getIdIndex();\r\n\r\n        SaleInfo memory saleInfo = itemsForSale[itemId][msg.sender];\r\n        require(!saleInfo.isActive, \"Marketplace: Item is already listed\");\r\n\r\n        itemsForSale[itemId][msg.sender] = SaleInfo(\r\n            true,\r\n            itemId,\r\n            _amount,\r\n            block.timestamp,\r\n            _oneItemPrice\r\n        );\r\n\r\n        emit AdminItemListed(\r\n            _nftInfo.metadataInHash,\r\n            itemId,\r\n            _amount,\r\n            _oneItemPrice,\r\n            msg.sender\r\n        );\r\n    }\r\n\r\n    /** ADMIN\r\n     * @dev update amount NFT to sell\r\n     * @param _itemId id of item want to buy\r\n     * @param _amount amount of item want to sell\r\n     */\r\n    function updateAmountNFT(uint256 _itemId, uint256 _amount)\r\n        external\r\n        override\r\n        whenNotPaused\r\n        nonReentrant\r\n        onlyAdmin\r\n    {\r\n        SaleInfo storage sale = itemsForSale[_itemId][msg.sender];\r\n        bool isSale = sale.isActive;\r\n\r\n        if (_amount == 0 && isSale) sale.isActive = false;\r\n        else if (sale.amount == 0 && !isSale) sale.isActive = true;\r\n\r\n        sale.amount = _amount;\r\n\r\n        emit AdminItemAmountUpdated(_itemId, _amount, msg.sender);\r\n    }\r\n\r\n    function requestActivateNFT(uint256 _itemId, uint256 _amount)\r\n        external\r\n        whenNotPaused\r\n        nonReentrant\r\n        onlyStudent\r\n    {\r\n        activateNFT.requestActivateNFT(_itemId, _amount);\r\n    }\r\n\r\n    function cancelRequestActivateNFT(uint256[] memory _activateId)\r\n        external\r\n        whenNotPaused\r\n        nonReentrant\r\n        onlyStudent\r\n    {\r\n        activateNFT.cancelRequestActivateNFT(_activateId);\r\n    }\r\n\r\n    function activateNFTByAdmin(uint256[] memory _activateId)\r\n        external\r\n        whenNotPaused\r\n        nonReentrant\r\n        onlyAdmin\r\n    {\r\n        activateNFT.activateNFT(_activateId);\r\n    }\r\n\r\n    function setAccessControl(address _accessControl) external onlyOwner {\r\n        accessControl = _accessControl;\r\n    }\r\n\r\n    function setActivateNFT(IActivateNFT _activateNFT) external onlyOwner {\r\n        activateNFT = _activateNFT;\r\n    }\r\n\r\n    /**\r\n     * @dev Pause the contract.\r\n     */\r\n    function pause() external onlyOwner {\r\n        _pause();\r\n    }\r\n\r\n    /**\r\n     * @dev Unpause the contract.\r\n     */\r\n    function unpause() external onlyOwner {\r\n        _unpause();\r\n    }\r\n}\r\n",
  "sourcePath": "E:\\KLTN\\KLTN\\KLTN-contracts\\contracts\\marketplace\\Marketplace.sol",
  "compiler": {
    "name": "solc",
    "version": "0.8.14+commit.80d49f37.Emscripten.clang"
  },
  "schemaVersion": "3.4.3",
  "updatedAt": "2022-06-05T07:45:59.758Z",
  "networkType": "ethereum",
  "devdoc": {
    "kind": "dev",
    "methods": {
      "buy(uint256,address,uint256)": {
        "details": "Buyer buy amount of items is being on sale.",
        "params": {
          "_amount": "amount of item want to buy",
          "_itemId": "id of item want to buy",
          "_seller": "seller address"
        }
      },
      "createAndListNFT((string,bool),uint256,uint256)": {
        "details": "create and list items on sale.",
        "params": {
          "_amount": "amount of item want to sell",
          "_nftInfo": "info of NFT want to create",
          "_oneItemPrice": "price of one item want to sell"
        }
      },
      "deList(uint256)": {
        "details": "Owner delists item is being on sale.",
        "params": {
          "_itemId": "id of item want to delist"
        }
      },
      "list(uint256,uint256,uint256)": {
        "details": "Seller lists a item on sale",
        "params": {
          "_amount": "amount of item want to sell",
          "_itemId": "itemId",
          "_oneItemPrice": "price of one item want to sell"
        }
      },
      "owner()": {
        "details": "Returns the address of the current owner."
      },
      "pause()": {
        "details": "Pause the contract."
      },
      "paused()": {
        "details": "Returns true if the contract is paused, and false otherwise."
      },
      "renounceOwnership()": {
        "details": "Leaves the contract without owner. It will not be possible to call `onlyOwner` functions anymore. Can only be called by the current owner. NOTE: Renouncing ownership will leave the contract without an owner, thereby removing any functionality that is only available to the owner."
      },
      "supportsInterface(bytes4)": {
        "details": "See {IERC165-supportsInterface}."
      },
      "transferOwnership(address)": {
        "details": "Transfers ownership of the contract to a new account (`newOwner`). Can only be called by the current owner."
      },
      "unpause()": {
        "details": "Unpause the contract."
      },
      "updateAmountNFT(uint256,uint256)": {
        "details": "update amount NFT to sell",
        "params": {
          "_amount": "amount of item want to sell",
          "_itemId": "id of item want to buy"
        }
      },
      "updatePrice(uint256,uint256)": {
        "details": "Seller update price of one item",
        "params": {
          "_itemId": "id of item want to update price",
          "_oneItemPrice": "new price of one item"
        }
      }
    },
    "version": 1
  },
  "userdoc": {
    "kind": "user",
    "methods": {
      "buy(uint256,address,uint256)": {
        "notice": "USER"
      },
      "createAndListNFT((string,bool),uint256,uint256)": {
        "notice": "ADMIN"
      },
      "deList(uint256)": {
        "notice": "USER"
      },
      "list(uint256,uint256,uint256)": {
        "notice": "USER"
      },
      "updateAmountNFT(uint256,uint256)": {
        "notice": "ADMIN"
      },
      "updatePrice(uint256,uint256)": {
        "notice": "USER, ADMIN"
      }
    },
    "version": 1
  }
}