{
  "contractName": "Marketplace",
  "abi": [
    {
      "inputs": [
        {
          "internalType": "address",
          "name": "_accessControl",
          "type": "address"
        },
        {
          "internalType": "address",
          "name": "_UITToken",
          "type": "address"
        },
        {
          "internalType": "address",
          "name": "_UITNFT",
          "type": "address"
        },
        {
          "internalType": "address",
          "name": "_rewardDistributor",
          "type": "address"
        },
        {
          "internalType": "contract IActiveNFT",
          "name": "_activeNFT",
          "type": "address"
        }
      ],
      "stateMutability": "nonpayable",
      "type": "constructor"
    },
    {
      "anonymous": false,
      "inputs": [
        {
          "indexed": true,
          "internalType": "uint256",
          "name": "itemId",
          "type": "uint256"
        },
        {
          "indexed": false,
          "internalType": "uint256",
          "name": "amount",
          "type": "uint256"
        },
        {
          "indexed": false,
          "internalType": "address",
          "name": "ownerOfItem",
          "type": "address"
        }
      ],
      "name": "AdminItemAmountUpdated",
      "type": "event"
    },
    {
      "anonymous": false,
      "inputs": [
        {
          "indexed": true,
          "internalType": "uint256",
          "name": "itemId",
          "type": "uint256"
        },
        {
          "indexed": false,
          "internalType": "uint256",
          "name": "amount",
          "type": "uint256"
        },
        {
          "indexed": false,
          "internalType": "uint256",
          "name": "oneItemPrice",
          "type": "uint256"
        },
        {
          "indexed": false,
          "internalType": "address",
          "name": "ownerOfItem",
          "type": "address"
        }
      ],
      "name": "AdminItemListed",
      "type": "event"
    },
    {
      "anonymous": false,
      "inputs": [
        {
          "indexed": true,
          "internalType": "uint256",
          "name": "itemId",
          "type": "uint256"
        },
        {
          "indexed": false,
          "internalType": "address",
          "name": "buyer",
          "type": "address"
        },
        {
          "indexed": false,
          "internalType": "address",
          "name": "seller",
          "type": "address"
        },
        {
          "indexed": false,
          "internalType": "uint256",
          "name": "amount",
          "type": "uint256"
        },
        {
          "indexed": false,
          "internalType": "uint256",
          "name": "price",
          "type": "uint256"
        }
      ],
      "name": "ItemBought",
      "type": "event"
    },
    {
      "anonymous": false,
      "inputs": [
        {
          "indexed": true,
          "internalType": "uint256",
          "name": "itemId",
          "type": "uint256"
        },
        {
          "indexed": false,
          "internalType": "uint256",
          "name": "amount",
          "type": "uint256"
        },
        {
          "indexed": false,
          "internalType": "address",
          "name": "ownerOfItem",
          "type": "address"
        }
      ],
      "name": "ItemDelisted",
      "type": "event"
    },
    {
      "anonymous": false,
      "inputs": [
        {
          "indexed": true,
          "internalType": "uint256",
          "name": "itemId",
          "type": "uint256"
        },
        {
          "indexed": false,
          "internalType": "uint256",
          "name": "amount",
          "type": "uint256"
        },
        {
          "indexed": false,
          "internalType": "uint256",
          "name": "oneItemPrice",
          "type": "uint256"
        },
        {
          "indexed": false,
          "internalType": "address",
          "name": "ownerOfItem",
          "type": "address"
        }
      ],
      "name": "ItemListed",
      "type": "event"
    },
    {
      "anonymous": false,
      "inputs": [
        {
          "indexed": false,
          "internalType": "uint256",
          "name": "newMarketFee",
          "type": "uint256"
        }
      ],
      "name": "MarketFeeUpdated",
      "type": "event"
    },
    {
      "anonymous": false,
      "inputs": [
        {
          "indexed": true,
          "internalType": "address",
          "name": "previousOwner",
          "type": "address"
        },
        {
          "indexed": true,
          "internalType": "address",
          "name": "newOwner",
          "type": "address"
        }
      ],
      "name": "OwnershipTransferred",
      "type": "event"
    },
    {
      "anonymous": false,
      "inputs": [
        {
          "indexed": false,
          "internalType": "address",
          "name": "account",
          "type": "address"
        }
      ],
      "name": "Paused",
      "type": "event"
    },
    {
      "anonymous": false,
      "inputs": [
        {
          "indexed": true,
          "internalType": "uint256",
          "name": "itemId",
          "type": "uint256"
        },
        {
          "indexed": false,
          "internalType": "uint256",
          "name": "_oneItemPrice",
          "type": "uint256"
        },
        {
          "indexed": false,
          "internalType": "address",
          "name": "ownerOfItem",
          "type": "address"
        }
      ],
      "name": "PriceUpdated",
      "type": "event"
    },
    {
      "anonymous": false,
      "inputs": [
        {
          "indexed": false,
          "internalType": "address",
          "name": "token",
          "type": "address"
        },
        {
          "indexed": false,
          "internalType": "bool",
          "name": "status",
          "type": "bool"
        }
      ],
      "name": "TokenValidUpdatedStatus",
      "type": "event"
    },
    {
      "anonymous": false,
      "inputs": [
        {
          "indexed": false,
          "internalType": "address",
          "name": "account",
          "type": "address"
        }
      ],
      "name": "Unpaused",
      "type": "event"
    },
    {
      "inputs": [],
      "name": "UITNFT",
      "outputs": [
        {
          "internalType": "address",
          "name": "",
          "type": "address"
        }
      ],
      "stateMutability": "view",
      "type": "function"
    },
    {
      "inputs": [],
      "name": "UITToken",
      "outputs": [
        {
          "internalType": "address",
          "name": "",
          "type": "address"
        }
      ],
      "stateMutability": "view",
      "type": "function"
    },
    {
      "inputs": [],
      "name": "accessControl",
      "outputs": [
        {
          "internalType": "address",
          "name": "",
          "type": "address"
        }
      ],
      "stateMutability": "view",
      "type": "function"
    },
    {
      "inputs": [],
      "name": "activeNFT",
      "outputs": [
        {
          "internalType": "contract IActiveNFT",
          "name": "",
          "type": "address"
        }
      ],
      "stateMutability": "view",
      "type": "function"
    },
    {
      "inputs": [
        {
          "internalType": "uint256",
          "name": "",
          "type": "uint256"
        },
        {
          "internalType": "address",
          "name": "",
          "type": "address"
        }
      ],
      "name": "itemsForSale",
      "outputs": [
        {
          "internalType": "bool",
          "name": "isActive",
          "type": "bool"
        },
        {
          "internalType": "uint256",
          "name": "itemId",
          "type": "uint256"
        },
        {
          "internalType": "uint256",
          "name": "amount",
          "type": "uint256"
        },
        {
          "internalType": "uint256",
          "name": "saleTime",
          "type": "uint256"
        },
        {
          "internalType": "uint256",
          "name": "oneItemPrice",
          "type": "uint256"
        }
      ],
      "stateMutability": "view",
      "type": "function"
    },
    {
      "inputs": [
        {
          "internalType": "address",
          "name": "",
          "type": "address"
        },
        {
          "internalType": "address",
          "name": "",
          "type": "address"
        },
        {
          "internalType": "uint256[]",
          "name": "",
          "type": "uint256[]"
        },
        {
          "internalType": "uint256[]",
          "name": "",
          "type": "uint256[]"
        },
        {
          "internalType": "bytes",
          "name": "",
          "type": "bytes"
        }
      ],
      "name": "onERC1155BatchReceived",
      "outputs": [
        {
          "internalType": "bytes4",
          "name": "",
          "type": "bytes4"
        }
      ],
      "stateMutability": "nonpayable",
      "type": "function"
    },
    {
      "inputs": [
        {
          "internalType": "address",
          "name": "",
          "type": "address"
        },
        {
          "internalType": "address",
          "name": "",
          "type": "address"
        },
        {
          "internalType": "uint256",
          "name": "",
          "type": "uint256"
        },
        {
          "internalType": "uint256",
          "name": "",
          "type": "uint256"
        },
        {
          "internalType": "bytes",
          "name": "",
          "type": "bytes"
        }
      ],
      "name": "onERC1155Received",
      "outputs": [
        {
          "internalType": "bytes4",
          "name": "",
          "type": "bytes4"
        }
      ],
      "stateMutability": "nonpayable",
      "type": "function"
    },
    {
      "inputs": [],
      "name": "owner",
      "outputs": [
        {
          "internalType": "address",
          "name": "",
          "type": "address"
        }
      ],
      "stateMutability": "view",
      "type": "function"
    },
    {
      "inputs": [],
      "name": "paused",
      "outputs": [
        {
          "internalType": "bool",
          "name": "",
          "type": "bool"
        }
      ],
      "stateMutability": "view",
      "type": "function"
    },
    {
      "inputs": [],
      "name": "renounceOwnership",
      "outputs": [],
      "stateMutability": "nonpayable",
      "type": "function"
    },
    {
      "inputs": [],
      "name": "rewardDistributor",
      "outputs": [
        {
          "internalType": "address",
          "name": "",
          "type": "address"
        }
      ],
      "stateMutability": "view",
      "type": "function"
    },
    {
      "inputs": [
        {
          "internalType": "bytes4",
          "name": "interfaceId",
          "type": "bytes4"
        }
      ],
      "name": "supportsInterface",
      "outputs": [
        {
          "internalType": "bool",
          "name": "",
          "type": "bool"
        }
      ],
      "stateMutability": "view",
      "type": "function"
    },
    {
      "inputs": [
        {
          "internalType": "address",
          "name": "newOwner",
          "type": "address"
        }
      ],
      "name": "transferOwnership",
      "outputs": [],
      "stateMutability": "nonpayable",
      "type": "function"
    },
    {
      "inputs": [
        {
          "internalType": "uint256",
          "name": "_itemId",
          "type": "uint256"
        },
        {
          "internalType": "uint256",
          "name": "_oneItemPrice",
          "type": "uint256"
        },
        {
          "internalType": "uint256",
          "name": "_amount",
          "type": "uint256"
        }
      ],
      "name": "list",
      "outputs": [],
      "stateMutability": "nonpayable",
      "type": "function"
    },
    {
      "inputs": [
        {
          "internalType": "uint256",
          "name": "_itemId",
          "type": "uint256"
        }
      ],
      "name": "deList",
      "outputs": [],
      "stateMutability": "nonpayable",
      "type": "function"
    },
    {
      "inputs": [
        {
          "internalType": "uint256",
          "name": "_itemId",
          "type": "uint256"
        },
        {
          "internalType": "uint256",
          "name": "_oneItemPrice",
          "type": "uint256"
        }
      ],
      "name": "updatePrice",
      "outputs": [],
      "stateMutability": "nonpayable",
      "type": "function"
    },
    {
      "inputs": [
        {
          "internalType": "uint256",
          "name": "_itemId",
          "type": "uint256"
        },
        {
          "internalType": "address",
          "name": "_seller",
          "type": "address"
        },
        {
          "internalType": "uint256",
          "name": "_amount",
          "type": "uint256"
        }
      ],
      "name": "buy",
      "outputs": [],
      "stateMutability": "nonpayable",
      "type": "function"
    },
    {
      "inputs": [
        {
          "components": [
            {
              "internalType": "string",
              "name": "metadataInHash",
              "type": "string"
            },
            {
              "internalType": "bool",
              "name": "isCourseNFT",
              "type": "bool"
            }
          ],
          "internalType": "struct ISharedStruct.NFTInfo",
          "name": "_nftInfo",
          "type": "tuple"
        },
        {
          "internalType": "uint256",
          "name": "_oneItemPrice",
          "type": "uint256"
        },
        {
          "internalType": "uint256",
          "name": "_amount",
          "type": "uint256"
        }
      ],
      "name": "createAndListNFT",
      "outputs": [],
      "stateMutability": "nonpayable",
      "type": "function"
    },
    {
      "inputs": [
        {
          "internalType": "uint256",
          "name": "_itemId",
          "type": "uint256"
        },
        {
          "internalType": "uint256",
          "name": "_amount",
          "type": "uint256"
        }
      ],
      "name": "updateAmountNFT",
      "outputs": [],
      "stateMutability": "nonpayable",
      "type": "function"
    },
    {
      "inputs": [
        {
          "internalType": "uint256",
          "name": "_itemId",
          "type": "uint256"
        },
        {
          "internalType": "uint256",
          "name": "_amount",
          "type": "uint256"
        }
      ],
      "name": "requestActiveNFT",
      "outputs": [],
      "stateMutability": "nonpayable",
      "type": "function"
    },
    {
      "inputs": [
        {
          "internalType": "uint256",
          "name": "_activeId",
          "type": "uint256"
        }
      ],
      "name": "cancelRequestActiveNFT",
      "outputs": [],
      "stateMutability": "nonpayable",
      "type": "function"
    },
    {
      "inputs": [
        {
          "internalType": "uint256",
          "name": "_activeId",
          "type": "uint256"
        }
      ],
      "name": "activeNFTByAdmin",
      "outputs": [],
      "stateMutability": "nonpayable",
      "type": "function"
    },
    {
      "inputs": [
        {
          "internalType": "address",
          "name": "_accessControl",
          "type": "address"
        }
      ],
      "name": "setAccessControl",
      "outputs": [],
      "stateMutability": "nonpayable",
      "type": "function"
    },
    {
      "inputs": [
        {
          "internalType": "contract IActiveNFT",
          "name": "_activeNFT",
          "type": "address"
        }
      ],
      "name": "setActiveNFT",
      "outputs": [],
      "stateMutability": "nonpayable",
      "type": "function"
    },
    {
      "inputs": [],
      "name": "pause",
      "outputs": [],
      "stateMutability": "nonpayable",
      "type": "function"
    },
    {
      "inputs": [],
      "name": "unpause",
      "outputs": [],
      "stateMutability": "nonpayable",
      "type": "function"
    }
  ],
  "bytecode": "0x60e06040523480156200001157600080fd5b5060405162004ae038038062004ae08339818101604052810190620000379190620004e5565b60008060006101000a81548160ff02191690831515021790555062000071620000656200036960201b60201c565b6200037160201b60201c565b60018081905550600073ffffffffffffffffffffffffffffffffffffffff168573ffffffffffffffffffffffffffffffffffffffff1603620000ea576040517f08c379a0000000000000000000000000000000000000000000000000000000008152600401620000e190620005f4565b60405180910390fd5b600073ffffffffffffffffffffffffffffffffffffffff168473ffffffffffffffffffffffffffffffffffffffff16036200015c576040517f08c379a000000000000000000000000000000000000000000000000000000000815260040162000153906200068c565b60405180910390fd5b600073ffffffffffffffffffffffffffffffffffffffff168373ffffffffffffffffffffffffffffffffffffffff1603620001ce576040517f08c379a0000000000000000000000000000000000000000000000000000000008152600401620001c59062000724565b60405180910390fd5b600073ffffffffffffffffffffffffffffffffffffffff168273ffffffffffffffffffffffffffffffffffffffff160362000240576040517f08c379a00000000000000000000000000000000000000000000000000000000081526004016200023790620007bc565b60405180910390fd5b84600260006101000a81548173ffffffffffffffffffffffffffffffffffffffff021916908373ffffffffffffffffffffffffffffffffffffffff1602179055508373ffffffffffffffffffffffffffffffffffffffff1660808173ffffffffffffffffffffffffffffffffffffffff16815250508273ffffffffffffffffffffffffffffffffffffffff1660a08173ffffffffffffffffffffffffffffffffffffffff16815250508173ffffffffffffffffffffffffffffffffffffffff1660c08173ffffffffffffffffffffffffffffffffffffffff168152505080600360006101000a81548173ffffffffffffffffffffffffffffffffffffffff021916908373ffffffffffffffffffffffffffffffffffffffff1602179055505050505050620007de565b600033905090565b60008060019054906101000a900473ffffffffffffffffffffffffffffffffffffffff16905081600060016101000a81548173ffffffffffffffffffffffffffffffffffffffff021916908373ffffffffffffffffffffffffffffffffffffffff1602179055508173ffffffffffffffffffffffffffffffffffffffff168173ffffffffffffffffffffffffffffffffffffffff167f8be0079c531659141344cd1fd0a4f28419497f9722a3daafe3b4186f6b6457e060405160405180910390a35050565b600080fd5b600073ffffffffffffffffffffffffffffffffffffffff82169050919050565b600062000468826200043b565b9050919050565b6200047a816200045b565b81146200048657600080fd5b50565b6000815190506200049a816200046f565b92915050565b6000620004ad826200045b565b9050919050565b620004bf81620004a0565b8114620004cb57600080fd5b50565b600081519050620004df81620004b4565b92915050565b600080600080600060a0868803121562000504576200050362000436565b5b6000620005148882890162000489565b9550506020620005278882890162000489565b94505060406200053a8882890162000489565b93505060606200054d8882890162000489565b92505060806200056088828901620004ce565b9150509295509295909350565b600082825260208201905092915050565b7f4d61726b6574706c6163653a2041636365737320636f6e74726f6c20636f6e7460008201527f726163742063616e6e6f74206265203000000000000000000000000000000000602082015250565b6000620005dc6030836200056d565b9150620005e9826200057e565b604082019050919050565b600060208201905081810360008301526200060f81620005cd565b9050919050565b7f4d61726b6574706c6163653a20554954546f6b656e206d757374206e6f74206260008201527f6520616464726573732030000000000000000000000000000000000000000000602082015250565b600062000674602b836200056d565b9150620006818262000616565b604082019050919050565b60006020820190508181036000830152620006a78162000665565b9050919050565b7f4d61726b6574706c6163653a205549544e46546f6b656e206d757374206e6f7460008201527f2062652061646472657373203000000000000000000000000000000000000000602082015250565b60006200070c602d836200056d565b91506200071982620006ae565b604082019050919050565b600060208201905081810360008301526200073f81620006fd565b9050919050565b7f4d61726b6574706c6163653a205265776172644469737472696275746f72206d60008201527f757374206e6f7420626520616464726573732030000000000000000000000000602082015250565b6000620007a46034836200056d565b9150620007b18262000746565b604082019050919050565b60006020820190508181036000830152620007d78162000795565b9050919050565b60805160a05160c0516142856200085b60003960008181610ddd015261193c0152600081816107150152818161099d01528181610e4601528181610f270152818161102f0152818161123e01528181611e930152611f20015260008181610ccf01528181610dff01528181610ee0015261100b01526142856000f3fe608060405234801561001057600080fd5b506004361061018e5760003560e01c806382367b2d116100de578063c1f7f0f511610097578063d3e8dba511610071578063d3e8dba514610413578063de2ff8b11461042f578063f23a6e611461044b578063f2fde38b1461047b5761018e565b8063c1f7f0f5146103bd578063cb361428146103d9578063d2a7defe146103f55761018e565b806382367b2d146102f75780638456cb59146103135780638da5cb5b1461031d578063acc2166a1461033b578063b46878ca14610359578063bc197c811461038d5761018e565b80633b88699b1161014b5780635c975abb116101255780635c975abb14610297578063715018a6146102b55780637694ad05146102bf5780637e707f86146102db5761018e565b80633b88699b146102535780633f4ba83a1461027157806343be2d031461027b5761018e565b806301ffc9a71461019357806313007d55146101c357806319129e5a146101e157806319aeb490146101fd5780632afaca20146102195780632fe7a96d14610235575b600080fd5b6101ad60048036038101906101a89190612ab1565b610497565b6040516101ba9190612af9565b60405180910390f35b6101cb610511565b6040516101d89190612b55565b60405180910390f35b6101fb60048036038101906101f69190612b9c565b610537565b005b61021760048036038101906102129190612bff565b6105f7565b005b610233600480360381019061022e9190612c52565b610a75565b005b61023d611009565b60405161024a9190612b55565b60405180910390f35b61025b61102d565b6040516102689190612b55565b60405180910390f35b610279611051565b005b61029560048036038101906102909190612ca5565b6110d7565b005b61029f611314565b6040516102ac9190612af9565b60405180910390f35b6102bd61132a565b005b6102d960048036038101906102d49190612ca5565b6113b2565b005b6102f560048036038101906102f09190612cd2565b6115db565b005b610311600480360381019061030c9190612cd2565b61170a565b005b61031b61188b565b005b610325611911565b6040516103329190612b55565b60405180910390f35b61034361193a565b6040516103509190612b55565b60405180910390f35b610373600480360381019061036e9190612d12565b61195e565b604051610384959493929190612d61565b60405180910390f35b6103a760048036038101906103a29190612fc2565b6119ae565b6040516103b491906130a0565b60405180910390f35b6103d760048036038101906103d29190612cd2565b6119c3565b005b6103f360048036038101906103ee91906131fe565b611c79565b005b6103fd6121a7565b60405161040a91906132cc565b60405180910390f35b61042d60048036038101906104289190612ca5565b6121cd565b005b61044960048036038101906104449190613325565b6122f9565b005b61046560048036038101906104609190613352565b6123b9565b60405161047291906130a0565b60405180910390f35b61049560048036038101906104909190612b9c565b6123ce565b005b60007f4e2312e0000000000000000000000000000000000000000000000000000000007bffffffffffffffffffffffffffffffffffffffffffffffffffffffff1916827bffffffffffffffffffffffffffffffffffffffffffffffffffffffff1916148061050a5750610509826124c5565b5b9050919050565b600260009054906101000a900473ffffffffffffffffffffffffffffffffffffffff1681565b61053f61252f565b73ffffffffffffffffffffffffffffffffffffffff1661055d611911565b73ffffffffffffffffffffffffffffffffffffffff16146105b3576040517f08c379a00000000000000000000000000000000000000000000000000000000081526004016105aa90613446565b60405180910390fd5b80600260006101000a81548173ffffffffffffffffffffffffffffffffffffffff021916908373ffffffffffffffffffffffffffffffffffffffff16021790555050565b6105ff611314565b1561063f576040517f08c379a0000000000000000000000000000000000000000000000000000000008152600401610636906134b2565b60405180910390fd5b600260015403610684576040517f08c379a000000000000000000000000000000000000000000000000000000000815260040161067b9061351e565b60405180910390fd5b6002600181905550600082116106cf576040517f08c379a00000000000000000000000000000000000000000000000000000000081526004016106c69061358a565b60405180910390fd5b60008111610712576040517f08c379a0000000000000000000000000000000000000000000000000000000008152600401610709906135f6565b60405180910390fd5b807f000000000000000000000000000000000000000000000000000000000000000073ffffffffffffffffffffffffffffffffffffffff1662fdd58e33866040518363ffffffff1660e01b815260040161076d929190613616565b602060405180830381865afa15801561078a573d6000803e3d6000fd5b505050506040513d601f19601f820116820180604052508101906107ae9190613654565b10156107ef576040517f08c379a00000000000000000000000000000000000000000000000000000000081526004016107e6906136f3565b60405180910390fd5b60006004600085815260200190815260200160002060003373ffffffffffffffffffffffffffffffffffffffff1673ffffffffffffffffffffffffffffffffffffffff1681526020019081526020016000206040518060a00160405290816000820160009054906101000a900460ff1615151515815260200160018201548152602001600282015481526020016003820154815260200160048201548152505090508060000151156108d6576040517f08c379a00000000000000000000000000000000000000000000000000000000081526004016108cd90613785565b60405180910390fd5b6040518060a00160405280600115158152602001858152602001838152602001428152602001848152506004600086815260200190815260200160002060003373ffffffffffffffffffffffffffffffffffffffff1673ffffffffffffffffffffffffffffffffffffffff16815260200190815260200160002060008201518160000160006101000a81548160ff021916908315150217905550602082015181600101556040820151816002015560608201518160030155608082015181600401559050507f000000000000000000000000000000000000000000000000000000000000000073ffffffffffffffffffffffffffffffffffffffff1663f242432a333087866040518563ffffffff1660e01b81526004016109fa94939291906137dc565b600060405180830381600087803b158015610a1457600080fd5b505af1158015610a28573d6000803e3d6000fd5b50505050837f5bc1dfc7136db3113acb6dad2e291dcf149405ca07fcec667fa5e1fa7f430f98838533604051610a6093929190613834565b60405180910390a25060018081905550505050565b610a7d611314565b15610abd576040517f08c379a0000000000000000000000000000000000000000000000000000000008152600401610ab4906134b2565b60405180910390fd5b600260015403610b02576040517f08c379a0000000000000000000000000000000000000000000000000000000008152600401610af99061351e565b60405180910390fd5b600260018190555060006004600085815260200190815260200160002060008473ffffffffffffffffffffffffffffffffffffffff1673ffffffffffffffffffffffffffffffffffffffff1681526020019081526020016000209050600033905060008260040154905060008185610b7a919061389a565b90508360000160009054906101000a900460ff16610bcd576040517f08c379a0000000000000000000000000000000000000000000000000000000008152600401610bc490613966565b60405180910390fd5b8360020154851115610c14576040517f08c379a0000000000000000000000000000000000000000000000000000000008152600401610c0b906139f8565b60405180910390fd5b8573ffffffffffffffffffffffffffffffffffffffff168373ffffffffffffffffffffffffffffffffffffffff1603610c82576040517f08c379a0000000000000000000000000000000000000000000000000000000008152600401610c7990613a64565b60405180910390fd5b84846002016000828254610c969190613a84565b925050819055506000846002015403610cc75760008460000160006101000a81548160ff0219169083151502179055505b610d148387837f000000000000000000000000000000000000000000000000000000000000000073ffffffffffffffffffffffffffffffffffffffff16612537909392919063ffffffff16565b600260009054906101000a900473ffffffffffffffffffffffffffffffffffffffff1673ffffffffffffffffffffffffffffffffffffffff166391d148547fdf8b4c520ffe197c5343c6f5aec59570151ef9a492f2c624fd45ddde6135ec42886040518363ffffffff1660e01b8152600401610d91929190613ad1565b602060405180830381865afa158015610dae573d6000803e3d6000fd5b505050506040513d601f19601f82011682018060405250810190610dd29190613b0f565b15610ed857610e44837f0000000000000000000000000000000000000000000000000000000000000000837f000000000000000000000000000000000000000000000000000000000000000073ffffffffffffffffffffffffffffffffffffffff16612537909392919063ffffffff16565b7f000000000000000000000000000000000000000000000000000000000000000073ffffffffffffffffffffffffffffffffffffffff1663836a10408885886040518463ffffffff1660e01b8152600401610ea193929190613b3c565b600060405180830381600087803b158015610ebb57600080fd5b505af1158015610ecf573d6000803e3d6000fd5b50505050610fbb565b610f258387837f000000000000000000000000000000000000000000000000000000000000000073ffffffffffffffffffffffffffffffffffffffff16612537909392919063ffffffff16565b7f000000000000000000000000000000000000000000000000000000000000000073ffffffffffffffffffffffffffffffffffffffff1663f242432a30858760010154896040518563ffffffff1660e01b8152600401610f8894939291906137dc565b600060405180830381600087803b158015610fa257600080fd5b505af1158015610fb6573d6000803e3d6000fd5b505050505b867f9c45908c2d32f0072963511b0e7c3059b0202498a9fdc83032dd440850d0c86384888885604051610ff19493929190613b73565b60405180910390a25050505060018081905550505050565b7f000000000000000000000000000000000000000000000000000000000000000081565b7f000000000000000000000000000000000000000000000000000000000000000081565b61105961252f565b73ffffffffffffffffffffffffffffffffffffffff16611077611911565b73ffffffffffffffffffffffffffffffffffffffff16146110cd576040517f08c379a00000000000000000000000000000000000000000000000000000000081526004016110c490613446565b60405180910390fd5b6110d56125c0565b565b6110df611314565b1561111f576040517f08c379a0000000000000000000000000000000000000000000000000000000008152600401611116906134b2565b60405180910390fd5b600260015403611164576040517f08c379a000000000000000000000000000000000000000000000000000000000815260040161115b9061351e565b60405180910390fd5b6002600181905550600033905060006004600084815260200190815260200160002060008373ffffffffffffffffffffffffffffffffffffffff1673ffffffffffffffffffffffffffffffffffffffff16815260200190815260200160002090508060000160009054906101000a900460ff16611216576040517f08c379a000000000000000000000000000000000000000000000000000000000815260040161120d90613966565b60405180910390fd5b60008160020154905060008260000160006101000a81548160ff0219169083151502179055507f000000000000000000000000000000000000000000000000000000000000000073ffffffffffffffffffffffffffffffffffffffff1663f242432a308587856040518563ffffffff1660e01b815260040161129b94939291906137dc565b600060405180830381600087803b1580156112b557600080fd5b505af11580156112c9573d6000803e3d6000fd5b50505050837f30411792a34feb0f32a6be64e1996fa803c4505bbf6314f391f3d63c24ae52d582856040516112ff929190613bb8565b60405180910390a25050506001808190555050565b60008060009054906101000a900460ff16905090565b61133261252f565b73ffffffffffffffffffffffffffffffffffffffff16611350611911565b73ffffffffffffffffffffffffffffffffffffffff16146113a6576040517f08c379a000000000000000000000000000000000000000000000000000000000815260040161139d90613446565b60405180910390fd5b6113b06000612661565b565b600260009054906101000a900473ffffffffffffffffffffffffffffffffffffffff1673ffffffffffffffffffffffffffffffffffffffff166391d148547fdf8b4c520ffe197c5343c6f5aec59570151ef9a492f2c624fd45ddde6135ec42336040518363ffffffff1660e01b815260040161142f929190613ad1565b602060405180830381865afa15801561144c573d6000803e3d6000fd5b505050506040513d601f19601f820116820180604052508101906114709190613b0f565b6114af576040517f08c379a00000000000000000000000000000000000000000000000000000000081526004016114a690613c53565b60405180910390fd5b6114b7611314565b156114f7576040517f08c379a00000000000000000000000000000000000000000000000000000000081526004016114ee906134b2565b60405180910390fd5b60026001540361153c576040517f08c379a00000000000000000000000000000000000000000000000000000000081526004016115339061351e565b60405180910390fd5b6002600181905550600360009054906101000a900473ffffffffffffffffffffffffffffffffffffffff1673ffffffffffffffffffffffffffffffffffffffff1663ab2cb64c826040518263ffffffff1660e01b815260040161159f9190613c73565b600060405180830381600087803b1580156115b957600080fd5b505af11580156115cd573d6000803e3d6000fd5b505050506001808190555050565b6115e3611314565b15611623576040517f08c379a000000000000000000000000000000000000000000000000000000000815260040161161a906134b2565b60405180910390fd5b600260015403611668576040517f08c379a000000000000000000000000000000000000000000000000000000000815260040161165f9061351e565b60405180910390fd5b6002600181905550600360009054906101000a900473ffffffffffffffffffffffffffffffffffffffff1673ffffffffffffffffffffffffffffffffffffffff16637e707f8683836040518363ffffffff1660e01b81526004016116cd929190613c8e565b600060405180830381600087803b1580156116e757600080fd5b505af11580156116fb573d6000803e3d6000fd5b50505050600180819055505050565b611712611314565b15611752576040517f08c379a0000000000000000000000000000000000000000000000000000000008152600401611749906134b2565b60405180910390fd5b600260015403611797576040517f08c379a000000000000000000000000000000000000000000000000000000000815260040161178e9061351e565b60405180910390fd5b6002600181905550600033905060006004600085815260200190815260200160002060008373ffffffffffffffffffffffffffffffffffffffff1673ffffffffffffffffffffffffffffffffffffffff16815260200190815260200160002090506000831161183b576040517f08c379a00000000000000000000000000000000000000000000000000000000081526004016118329061358a565b60405180910390fd5b828160040181905550837f378b09391f49d01e482ba75312341912ad0652cb8aa8799b6b33b624bd65d9f28484604051611876929190613bb8565b60405180910390a25050600180819055505050565b61189361252f565b73ffffffffffffffffffffffffffffffffffffffff166118b1611911565b73ffffffffffffffffffffffffffffffffffffffff1614611907576040517f08c379a00000000000000000000000000000000000000000000000000000000081526004016118fe90613446565b60405180910390fd5b61190f612726565b565b60008060019054906101000a900473ffffffffffffffffffffffffffffffffffffffff16905090565b7f000000000000000000000000000000000000000000000000000000000000000081565b6004602052816000526040600020602052806000526040600020600091509150508060000160009054906101000a900460ff16908060010154908060020154908060030154908060040154905085565b600063bc197c8160e01b905095945050505050565b600260009054906101000a900473ffffffffffffffffffffffffffffffffffffffff1673ffffffffffffffffffffffffffffffffffffffff166391d148547fdf8b4c520ffe197c5343c6f5aec59570151ef9a492f2c624fd45ddde6135ec42336040518363ffffffff1660e01b8152600401611a40929190613ad1565b602060405180830381865afa158015611a5d573d6000803e3d6000fd5b505050506040513d601f19601f82011682018060405250810190611a819190613b0f565b611ac0576040517f08c379a0000000000000000000000000000000000000000000000000000000008152600401611ab790613c53565b60405180910390fd5b611ac8611314565b15611b08576040517f08c379a0000000000000000000000000000000000000000000000000000000008152600401611aff906134b2565b60405180910390fd5b600260015403611b4d576040517f08c379a0000000000000000000000000000000000000000000000000000000008152600401611b449061351e565b60405180910390fd5b600260018190555060006004600084815260200190815260200160002060003373ffffffffffffffffffffffffffffffffffffffff1673ffffffffffffffffffffffffffffffffffffffff168152602001908152602001600020905060008160000160009054906101000a900460ff169050600083148015611bcc5750805b15611bf35760008260000160006101000a81548160ff021916908315150217905550611c29565b60008260020154148015611c05575080155b15611c285760018260000160006101000a81548160ff0219169083151502179055505b5b828260020181905550837f4bfa799bd52e5cd465e582b11fbad754d789f4fa526df2209ec026d2da5866618433604051611c64929190613bb8565b60405180910390a25050600180819055505050565b600260009054906101000a900473ffffffffffffffffffffffffffffffffffffffff1673ffffffffffffffffffffffffffffffffffffffff166391d148547fdf8b4c520ffe197c5343c6f5aec59570151ef9a492f2c624fd45ddde6135ec42336040518363ffffffff1660e01b8152600401611cf6929190613ad1565b602060405180830381865afa158015611d13573d6000803e3d6000fd5b505050506040513d601f19601f82011682018060405250810190611d379190613b0f565b611d76576040517f08c379a0000000000000000000000000000000000000000000000000000000008152600401611d6d90613c53565b60405180910390fd5b611d7e611314565b15611dbe576040517f08c379a0000000000000000000000000000000000000000000000000000000008152600401611db5906134b2565b60405180910390fd5b600260015403611e03576040517f08c379a0000000000000000000000000000000000000000000000000000000008152600401611dfa9061351e565b60405180910390fd5b600260018190555060008211611e4e576040517f08c379a0000000000000000000000000000000000000000000000000000000008152600401611e4590613d29565b60405180910390fd5b60008111611e91576040517f08c379a0000000000000000000000000000000000000000000000000000000008152600401611e8890613dbb565b60405180910390fd5b7f000000000000000000000000000000000000000000000000000000000000000073ffffffffffffffffffffffffffffffffffffffff166391ac2c4e846040518263ffffffff1660e01b8152600401611eea9190613eaf565b600060405180830381600087803b158015611f0457600080fd5b505af1158015611f18573d6000803e3d6000fd5b5050505060007f000000000000000000000000000000000000000000000000000000000000000073ffffffffffffffffffffffffffffffffffffffff1663b02a27566040518163ffffffff1660e01b81526004016020604051808303816000875af1158015611f8b573d6000803e3d6000fd5b505050506040513d601f19601f82011682018060405250810190611faf9190613654565b905060006004600083815260200190815260200160002060003373ffffffffffffffffffffffffffffffffffffffff1673ffffffffffffffffffffffffffffffffffffffff1681526020019081526020016000206040518060a00160405290816000820160009054906101000a900460ff161515151581526020016001820154815260200160028201548152602001600382015481526020016004820154815250509050806000015115612098576040517f08c379a000000000000000000000000000000000000000000000000000000000815260040161208f90613785565b60405180910390fd5b6040518060a00160405280600115158152602001838152602001848152602001428152602001858152506004600084815260200190815260200160002060003373ffffffffffffffffffffffffffffffffffffffff1673ffffffffffffffffffffffffffffffffffffffff16815260200190815260200160002060008201518160000160006101000a81548160ff02191690831515021790555060208201518160010155604082015181600201556060820151816003015560808201518160040155905050817f45f291a17faaad4d168218441d34a64d78538caf947c648ca3e2e296ecc0bac184863360405161219193929190613834565b60405180910390a2505060018081905550505050565b600360009054906101000a900473ffffffffffffffffffffffffffffffffffffffff1681565b6121d5611314565b15612215576040517f08c379a000000000000000000000000000000000000000000000000000000000815260040161220c906134b2565b60405180910390fd5b60026001540361225a576040517f08c379a00000000000000000000000000000000000000000000000000000000081526004016122519061351e565b60405180910390fd5b6002600181905550600360009054906101000a900473ffffffffffffffffffffffffffffffffffffffff1673ffffffffffffffffffffffffffffffffffffffff1663d3e8dba5826040518263ffffffff1660e01b81526004016122bd9190613c73565b600060405180830381600087803b1580156122d757600080fd5b505af11580156122eb573d6000803e3d6000fd5b505050506001808190555050565b61230161252f565b73ffffffffffffffffffffffffffffffffffffffff1661231f611911565b73ffffffffffffffffffffffffffffffffffffffff1614612375576040517f08c379a000000000000000000000000000000000000000000000000000000000815260040161236c90613446565b60405180910390fd5b80600360006101000a81548173ffffffffffffffffffffffffffffffffffffffff021916908373ffffffffffffffffffffffffffffffffffffffff16021790555050565b600063f23a6e6160e01b905095945050505050565b6123d661252f565b73ffffffffffffffffffffffffffffffffffffffff166123f4611911565b73ffffffffffffffffffffffffffffffffffffffff161461244a576040517f08c379a000000000000000000000000000000000000000000000000000000000815260040161244190613446565b60405180910390fd5b600073ffffffffffffffffffffffffffffffffffffffff168173ffffffffffffffffffffffffffffffffffffffff16036124b9576040517f08c379a00000000000000000000000000000000000000000000000000000000081526004016124b090613f43565b60405180910390fd5b6124c281612661565b50565b60007f01ffc9a7000000000000000000000000000000000000000000000000000000007bffffffffffffffffffffffffffffffffffffffffffffffffffffffff1916827bffffffffffffffffffffffffffffffffffffffffffffffffffffffff1916149050919050565b600033905090565b6125ba846323b872dd60e01b85858560405160240161255893929190613f63565b604051602081830303815290604052907bffffffffffffffffffffffffffffffffffffffffffffffffffffffff19166020820180517bffffffffffffffffffffffffffffffffffffffffffffffffffffffff83818316178352505050506127c8565b50505050565b6125c8611314565b612607576040517f08c379a00000000000000000000000000000000000000000000000000000000081526004016125fe90613fe6565b60405180910390fd5b60008060006101000a81548160ff0219169083151502179055507f5db9ee0a495bf2e6ff9c91a7834c1ba4fdd244a5e8aa4e537bd38aeae4b073aa61264a61252f565b6040516126579190612b55565b60405180910390a1565b60008060019054906101000a900473ffffffffffffffffffffffffffffffffffffffff16905081600060016101000a81548173ffffffffffffffffffffffffffffffffffffffff021916908373ffffffffffffffffffffffffffffffffffffffff1602179055508173ffffffffffffffffffffffffffffffffffffffff168173ffffffffffffffffffffffffffffffffffffffff167f8be0079c531659141344cd1fd0a4f28419497f9722a3daafe3b4186f6b6457e060405160405180910390a35050565b61272e611314565b1561276e576040517f08c379a0000000000000000000000000000000000000000000000000000000008152600401612765906134b2565b60405180910390fd5b60016000806101000a81548160ff0219169083151502179055507f62e78cea01bee320cd4e420270b5ea74000d11b0c9f74754ebdbfc544b05a2586127b161252f565b6040516127be9190612b55565b60405180910390a1565b600061282a826040518060400160405280602081526020017f5361666545524332303a206c6f772d6c6576656c2063616c6c206661696c65648152508573ffffffffffffffffffffffffffffffffffffffff1661288f9092919063ffffffff16565b905060008151111561288a578080602001905181019061284a9190613b0f565b612889576040517f08c379a000000000000000000000000000000000000000000000000000000000815260040161288090614078565b60405180910390fd5b5b505050565b606061289e84846000856128a7565b90509392505050565b6060824710156128ec576040517f08c379a00000000000000000000000000000000000000000000000000000000081526004016128e39061410a565b60405180910390fd5b6128f5856129bb565b612934576040517f08c379a000000000000000000000000000000000000000000000000000000000815260040161292b90614176565b60405180910390fd5b6000808673ffffffffffffffffffffffffffffffffffffffff16858760405161295d91906141dd565b60006040518083038185875af1925050503d806000811461299a576040519150601f19603f3d011682016040523d82523d6000602084013e61299f565b606091505b50915091506129af8282866129de565b92505050949350505050565b6000808273ffffffffffffffffffffffffffffffffffffffff163b119050919050565b606083156129ee57829050612a3e565b600083511115612a015782518084602001fd5b816040517f08c379a0000000000000000000000000000000000000000000000000000000008152600401612a35919061422d565b60405180910390fd5b9392505050565b6000604051905090565b600080fd5b600080fd5b60007fffffffff0000000000000000000000000000000000000000000000000000000082169050919050565b612a8e81612a59565b8114612a9957600080fd5b50565b600081359050612aab81612a85565b92915050565b600060208284031215612ac757612ac6612a4f565b5b6000612ad584828501612a9c565b91505092915050565b60008115159050919050565b612af381612ade565b82525050565b6000602082019050612b0e6000830184612aea565b92915050565b600073ffffffffffffffffffffffffffffffffffffffff82169050919050565b6000612b3f82612b14565b9050919050565b612b4f81612b34565b82525050565b6000602082019050612b6a6000830184612b46565b92915050565b612b7981612b34565b8114612b8457600080fd5b50565b600081359050612b9681612b70565b92915050565b600060208284031215612bb257612bb1612a4f565b5b6000612bc084828501612b87565b91505092915050565b6000819050919050565b612bdc81612bc9565b8114612be757600080fd5b50565b600081359050612bf981612bd3565b92915050565b600080600060608486031215612c1857612c17612a4f565b5b6000612c2686828701612bea565b9350506020612c3786828701612bea565b9250506040612c4886828701612bea565b9150509250925092565b600080600060608486031215612c6b57612c6a612a4f565b5b6000612c7986828701612bea565b9350506020612c8a86828701612b87565b9250506040612c9b86828701612bea565b9150509250925092565b600060208284031215612cbb57612cba612a4f565b5b6000612cc984828501612bea565b91505092915050565b60008060408385031215612ce957612ce8612a4f565b5b6000612cf785828601612bea565b9250506020612d0885828601612bea565b9150509250929050565b60008060408385031215612d2957612d28612a4f565b5b6000612d3785828601612bea565b9250506020612d4885828601612b87565b9150509250929050565b612d5b81612bc9565b82525050565b600060a082019050612d766000830188612aea565b612d836020830187612d52565b612d906040830186612d52565b612d9d6060830185612d52565b612daa6080830184612d52565b9695505050505050565b600080fd5b6000601f19601f8301169050919050565b7f4e487b7100000000000000000000000000000000000000000000000000000000600052604160045260246000fd5b612e0282612db9565b810181811067ffffffffffffffff82111715612e2157612e20612dca565b5b80604052505050565b6000612e34612a45565b9050612e408282612df9565b919050565b600067ffffffffffffffff821115612e6057612e5f612dca565b5b602082029050602081019050919050565b600080fd5b6000612e89612e8484612e45565b612e2a565b90508083825260208201905060208402830185811115612eac57612eab612e71565b5b835b81811015612ed55780612ec18882612bea565b845260208401935050602081019050612eae565b5050509392505050565b600082601f830112612ef457612ef3612db4565b5b8135612f04848260208601612e76565b91505092915050565b600080fd5b600067ffffffffffffffff821115612f2d57612f2c612dca565b5b612f3682612db9565b9050602081019050919050565b82818337600083830152505050565b6000612f65612f6084612f12565b612e2a565b905082815260208101848484011115612f8157612f80612f0d565b5b612f8c848285612f43565b509392505050565b600082601f830112612fa957612fa8612db4565b5b8135612fb9848260208601612f52565b91505092915050565b600080600080600060a08688031215612fde57612fdd612a4f565b5b6000612fec88828901612b87565b9550506020612ffd88828901612b87565b945050604086013567ffffffffffffffff81111561301e5761301d612a54565b5b61302a88828901612edf565b935050606086013567ffffffffffffffff81111561304b5761304a612a54565b5b61305788828901612edf565b925050608086013567ffffffffffffffff81111561307857613077612a54565b5b61308488828901612f94565b9150509295509295909350565b61309a81612a59565b82525050565b60006020820190506130b56000830184613091565b92915050565b600080fd5b600080fd5b600067ffffffffffffffff8211156130e0576130df612dca565b5b6130e982612db9565b9050602081019050919050565b6000613109613104846130c5565b612e2a565b90508281526020810184848401111561312557613124612f0d565b5b613130848285612f43565b509392505050565b600082601f83011261314d5761314c612db4565b5b813561315d8482602086016130f6565b91505092915050565b61316f81612ade565b811461317a57600080fd5b50565b60008135905061318c81613166565b92915050565b6000604082840312156131a8576131a76130bb565b5b6131b26040612e2a565b9050600082013567ffffffffffffffff8111156131d2576131d16130c0565b5b6131de84828501613138565b60008301525060206131f28482850161317d565b60208301525092915050565b60008060006060848603121561321757613216612a4f565b5b600084013567ffffffffffffffff81111561323557613234612a54565b5b61324186828701613192565b935050602061325286828701612bea565b925050604061326386828701612bea565b9150509250925092565b6000819050919050565b600061329261328d61328884612b14565b61326d565b612b14565b9050919050565b60006132a482613277565b9050919050565b60006132b682613299565b9050919050565b6132c6816132ab565b82525050565b60006020820190506132e160008301846132bd565b92915050565b60006132f282612b34565b9050919050565b613302816132e7565b811461330d57600080fd5b50565b60008135905061331f816132f9565b92915050565b60006020828403121561333b5761333a612a4f565b5b600061334984828501613310565b91505092915050565b600080600080600060a0868803121561336e5761336d612a4f565b5b600061337c88828901612b87565b955050602061338d88828901612b87565b945050604061339e88828901612bea565b93505060606133af88828901612bea565b925050608086013567ffffffffffffffff8111156133d0576133cf612a54565b5b6133dc88828901612f94565b9150509295509295909350565b600082825260208201905092915050565b7f4f776e61626c653a2063616c6c6572206973206e6f7420746865206f776e6572600082015250565b60006134306020836133e9565b915061343b826133fa565b602082019050919050565b6000602082019050818103600083015261345f81613423565b9050919050565b7f5061757361626c653a2070617573656400000000000000000000000000000000600082015250565b600061349c6010836133e9565b91506134a782613466565b602082019050919050565b600060208201905081810360008301526134cb8161348f565b9050919050565b7f5265656e7472616e637947756172643a207265656e7472616e742063616c6c00600082015250565b6000613508601f836133e9565b9150613513826134d2565b602082019050919050565b60006020820190508181036000830152613537816134fb565b9050919050565b7f4d61726b6574706c6163653a207072696365206973207a65726f000000000000600082015250565b6000613574601a836133e9565b915061357f8261353e565b602082019050919050565b600060208201905081810360008301526135a381613567565b9050919050565b7f4d61726b6574706c6163653a20616d6f756e74206973207a65726f0000000000600082015250565b60006135e0601b836133e9565b91506135eb826135aa565b602082019050919050565b6000602082019050818103600083015261360f816135d3565b9050919050565b600060408201905061362b6000830185612b46565b6136386020830184612d52565b9392505050565b60008151905061364e81612bd3565b92915050565b60006020828403121561366a57613669612a4f565b5b60006136788482850161363f565b91505092915050565b7f4d61726b6574706c6163653a2042616c616e6365206f66206974656d73206c6560008201527f7373207468616e20616d6f756e74000000000000000000000000000000000000602082015250565b60006136dd602e836133e9565b91506136e882613681565b604082019050919050565b6000602082019050818103600083015261370c816136d0565b9050919050565b7f4d61726b6574706c6163653a204974656d20697320616c7265616479206c697360008201527f7465640000000000000000000000000000000000000000000000000000000000602082015250565b600061376f6023836133e9565b915061377a82613713565b604082019050919050565b6000602082019050818103600083015261379e81613762565b9050919050565b600082825260208201905092915050565b50565b60006137c66000836137a5565b91506137d1826137b6565b600082019050919050565b600060a0820190506137f16000830187612b46565b6137fe6020830186612b46565b61380b6040830185612d52565b6138186060830184612d52565b8181036080830152613829816137b9565b905095945050505050565b60006060820190506138496000830186612d52565b6138566020830185612d52565b6138636040830184612b46565b949350505050565b7f4e487b7100000000000000000000000000000000000000000000000000000000600052601160045260246000fd5b60006138a582612bc9565b91506138b083612bc9565b9250817fffffffffffffffffffffffffffffffffffffffffffffffffffffffffffffffff04831182151516156138e9576138e861386b565b5b828202905092915050565b7f4d61726b6574706c6163653a2053616c6520696e616374697665206f7220616c60008201527f726561647920736f6c6400000000000000000000000000000000000000000000602082015250565b6000613950602a836133e9565b915061395b826138f4565b604082019050919050565b6000602082019050818103600083015261397f81613943565b9050919050565b7f4d61726b6574706c6163653a204e6f7420656e6f75676820616d6f756e74207460008201527f6f2073656c6c0000000000000000000000000000000000000000000000000000602082015250565b60006139e26026836133e9565b91506139ed82613986565b604082019050919050565b60006020820190508181036000830152613a11816139d5565b9050919050565b7f4d61726b6574706c6163653a206f776e65722063616e6e6f7420627579000000600082015250565b6000613a4e601d836133e9565b9150613a5982613a18565b602082019050919050565b60006020820190508181036000830152613a7d81613a41565b9050919050565b6000613a8f82612bc9565b9150613a9a83612bc9565b925082821015613aad57613aac61386b565b5b828203905092915050565b6000819050919050565b613acb81613ab8565b82525050565b6000604082019050613ae66000830185613ac2565b613af36020830184612b46565b9392505050565b600081519050613b0981613166565b92915050565b600060208284031215613b2557613b24612a4f565b5b6000613b3384828501613afa565b91505092915050565b6000606082019050613b516000830186612d52565b613b5e6020830185612b46565b613b6b6040830184612d52565b949350505050565b6000608082019050613b886000830187612b46565b613b956020830186612b46565b613ba26040830185612d52565b613baf6060830184612d52565b95945050505050565b6000604082019050613bcd6000830185612d52565b613bda6020830184612b46565b9392505050565b7f4d61726b6574706c6163653a204f6e6c792061646d696e2063616e2063616c6c60008201527f20746869732066756e6374696f6e000000000000000000000000000000000000602082015250565b6000613c3d602e836133e9565b9150613c4882613be1565b604082019050919050565b60006020820190508181036000830152613c6c81613c30565b9050919050565b6000602082019050613c886000830184612d52565b92915050565b6000604082019050613ca36000830185612d52565b613cb06020830184612d52565b9392505050565b7f4d61726b6574706c6163653a207072696365206d757374206e6f74206265207a60008201527f65726f0000000000000000000000000000000000000000000000000000000000602082015250565b6000613d136023836133e9565b9150613d1e82613cb7565b604082019050919050565b60006020820190508181036000830152613d4281613d06565b9050919050565b7f4d61726b6574706c6163653a20616d6f756e74206d757374206e6f742062652060008201527f7a65726f00000000000000000000000000000000000000000000000000000000602082015250565b6000613da56024836133e9565b9150613db082613d49565b604082019050919050565b60006020820190508181036000830152613dd481613d98565b9050919050565b600081519050919050565b600082825260208201905092915050565b60005b83811015613e15578082015181840152602081019050613dfa565b83811115613e24576000848401525b50505050565b6000613e3582613ddb565b613e3f8185613de6565b9350613e4f818560208601613df7565b613e5881612db9565b840191505092915050565b613e6c81612ade565b82525050565b60006040830160008301518482036000860152613e8f8282613e2a565b9150506020830151613ea46020860182613e63565b508091505092915050565b60006020820190508181036000830152613ec98184613e72565b905092915050565b7f4f776e61626c653a206e6577206f776e657220697320746865207a65726f206160008201527f6464726573730000000000000000000000000000000000000000000000000000602082015250565b6000613f2d6026836133e9565b9150613f3882613ed1565b604082019050919050565b60006020820190508181036000830152613f5c81613f20565b9050919050565b6000606082019050613f786000830186612b46565b613f856020830185612b46565b613f926040830184612d52565b949350505050565b7f5061757361626c653a206e6f7420706175736564000000000000000000000000600082015250565b6000613fd06014836133e9565b9150613fdb82613f9a565b602082019050919050565b60006020820190508181036000830152613fff81613fc3565b9050919050565b7f5361666545524332303a204552433230206f7065726174696f6e20646964206e60008201527f6f74207375636365656400000000000000000000000000000000000000000000602082015250565b6000614062602a836133e9565b915061406d82614006565b604082019050919050565b6000602082019050818103600083015261409181614055565b9050919050565b7f416464726573733a20696e73756666696369656e742062616c616e636520666f60008201527f722063616c6c0000000000000000000000000000000000000000000000000000602082015250565b60006140f46026836133e9565b91506140ff82614098565b604082019050919050565b60006020820190508181036000830152614123816140e7565b9050919050565b7f416464726573733a2063616c6c20746f206e6f6e2d636f6e7472616374000000600082015250565b6000614160601d836133e9565b915061416b8261412a565b602082019050919050565b6000602082019050818103600083015261418f81614153565b9050919050565b600081519050919050565b600081905092915050565b60006141b782614196565b6141c181856141a1565b93506141d1818560208601613df7565b80840191505092915050565b60006141e982846141ac565b915081905092915050565b60006141ff82613ddb565b61420981856133e9565b9350614219818560208601613df7565b61422281612db9565b840191505092915050565b6000602082019050818103600083015261424781846141f4565b90509291505056fea2646970667358221220d3c20bb422d54496c8596dc91daf2654c8b8368d58023132aa2c364bed7e45e564736f6c634300080d0033",
  "immutableReferences": {
    "4611": [
      {
        "length": 32,
        "start": 3279
      },
      {
        "length": 32,
        "start": 3583
      },
      {
        "length": 32,
        "start": 3808
      },
      {
        "length": 32,
        "start": 4107
      }
    ],
    "4613": [
      {
        "length": 32,
        "start": 1813
      },
      {
        "length": 32,
        "start": 2461
      },
      {
        "length": 32,
        "start": 3654
      },
      {
        "length": 32,
        "start": 3879
      },
      {
        "length": 32,
        "start": 4143
      },
      {
        "length": 32,
        "start": 4670
      },
      {
        "length": 32,
        "start": 7827
      },
      {
        "length": 32,
        "start": 7968
      }
    ],
    "4615": [
      {
        "length": 32,
        "start": 3549
      },
      {
        "length": 32,
        "start": 6460
      }
    ]
  },
  "source": "//SPDX-License-Identifier: MIT\r\npragma solidity ^0.8.0;\r\n\r\nimport \"./interfaces/IMarketplace.sol\";\r\nimport \"../activeNFT/interfaces/IActiveNFT.sol\";\r\nimport \"../studentmanager/interfaces/IAccessControl.sol\";\r\nimport \"../token/interfaces/IUITNFTToken.sol\";\r\nimport \"@openzeppelin/contracts/token/ERC20/IERC20.sol\";\r\nimport \"@openzeppelin/contracts/token/ERC20/utils/SafeERC20.sol\";\r\nimport \"@openzeppelin/contracts/token/ERC1155/IERC1155.sol\";\r\nimport \"@openzeppelin/contracts/token/ERC1155/IERC1155Receiver.sol\";\r\nimport { ERC1155Holder } from \"@openzeppelin/contracts/token/ERC1155/utils/ERC1155Holder.sol\";\r\nimport \"@openzeppelin/contracts/access/Ownable.sol\";\r\nimport \"@openzeppelin/contracts/security/ReentrancyGuard.sol\";\r\nimport \"@openzeppelin/contracts/utils/Counters.sol\";\r\nimport \"@openzeppelin/contracts/security/Pausable.sol\";\r\n\r\ncontract Marketplace is IMarketplace, Pausable, Ownable, ReentrancyGuard, ERC1155Holder {\r\n    using SafeERC20 for IERC20;\r\n    using Counters for Counters.Counter;\r\n\r\n    address public accessControl;\r\n    address public immutable UITToken;\r\n    address public immutable UITNFT;\r\n    address public immutable rewardDistributor;\r\n    IActiveNFT public activeNFT;\r\n\r\n    bytes32 constant internal ADMIN_ROLE = keccak256(\"ADMIN\");\r\n\r\n    mapping(uint => mapping(address => SaleInfo)) public itemsForSale;\r\n\r\n    constructor(\r\n        address _accessControl,\r\n        address _UITToken,\r\n        address _UITNFT,\r\n        address _rewardDistributor,\r\n        IActiveNFT _activeNFT\r\n    ) {\r\n        require(_accessControl != address(0), \"Marketplace: Access control contract cannot be 0\");\r\n        require(_UITToken != address(0), \"Marketplace: UITToken must not be address 0\");\r\n        require(_UITNFT != address(0), \"Marketplace: UITNFToken must not be address 0\");\r\n        require(_rewardDistributor != address(0), \"Marketplace: RewardDistributor must not be address 0\");\r\n        accessControl = _accessControl;\r\n        UITToken = _UITToken;\r\n        UITNFT = _UITNFT;\r\n        rewardDistributor = _rewardDistributor;\r\n        activeNFT = _activeNFT;\r\n    }\r\n\r\n    modifier onlyAdmin() {\r\n        require(IAccessControl(accessControl).hasRole(ADMIN_ROLE, msg.sender), \"Marketplace: Only admin can call this function\");\r\n        _;\r\n    }\r\n\r\n    /** USER\r\n     * @dev Seller lists a item on sale\r\n     * @param _itemId itemId\r\n     * @param _oneItemPrice price of one item want to sell\r\n     * @param _amount amount of item want to sell\r\n     */\r\n    function list(uint _itemId, uint _oneItemPrice, uint _amount) external override whenNotPaused nonReentrant {\r\n        require(_oneItemPrice > 0, \"Marketplace: price is zero\");\r\n        require(_amount > 0, \"Marketplace: amount is zero\");\r\n        require(IERC1155(UITNFT).balanceOf(msg.sender, _itemId) >= _amount, \"Marketplace: Balance of items less than amount\");\r\n        SaleInfo memory saleInfo = itemsForSale[_itemId][msg.sender];\r\n        require(!saleInfo.isActive, \"Marketplace: Item is already listed\");\r\n\r\n        itemsForSale[_itemId][msg.sender] = SaleInfo(\r\n            true,\r\n            _itemId,\r\n            _amount,\r\n            block.timestamp,\r\n            _oneItemPrice\r\n        );\r\n\r\n        IERC1155(UITNFT).safeTransferFrom(msg.sender, address(this), _itemId, _amount, \"\");\r\n\r\n        emit ItemListed(_itemId, _amount, _oneItemPrice, msg.sender);\r\n    }\r\n\r\n    /** USER\r\n     * @dev Owner delists item is being on sale.\r\n     * @param _itemId id of item want to delist\r\n     */\r\n    function deList(uint _itemId) external override whenNotPaused nonReentrant {\r\n        address seller = msg.sender;\r\n        SaleInfo storage sale = itemsForSale[_itemId][seller];\r\n        require(sale.isActive, \"Marketplace: Sale inactive or already sold\");\r\n\r\n        uint amount = sale.amount;\r\n        sale.isActive = false;\r\n\r\n        IERC1155(UITNFT).safeTransferFrom(address(this), seller, _itemId, amount, \"\");\r\n\r\n        emit ItemDelisted(_itemId, amount, seller);\r\n    }\r\n\r\n    /** USER, ADMIN\r\n     * @dev Seller update price of one item\r\n     * @param _itemId id of item want to update price\r\n     * @param _oneItemPrice new price of one item\r\n     */\r\n    function updatePrice(uint _itemId, uint _oneItemPrice) external override whenNotPaused nonReentrant {\r\n        address seller = msg.sender;\r\n        SaleInfo storage sale = itemsForSale[_itemId][seller];\r\n        require(_oneItemPrice > 0, \"Marketplace: price is zero\");\r\n\r\n        sale.oneItemPrice = _oneItemPrice;\r\n\r\n        emit PriceUpdated(_itemId, _oneItemPrice, seller);\r\n    }\r\n\r\n    /** USER\r\n     * @dev Buyer buy amount of items is being on sale.\r\n     * @param _itemId id of item want to buy\r\n     * @param _seller seller address\r\n     * @param _amount amount of item want to buy\r\n     */\r\n    function buy(uint _itemId, address _seller, uint _amount) external override whenNotPaused nonReentrant {\r\n        SaleInfo storage sale = itemsForSale[_itemId][_seller];\r\n        address buyer = msg.sender;\r\n        uint oneItemPrice = sale.oneItemPrice;\r\n        uint price = _amount * oneItemPrice;\r\n\r\n        require(sale.isActive, \"Marketplace: Sale inactive or already sold\");\r\n        require(_amount <= sale.amount, \"Marketplace: Not enough amount to sell\");\r\n        require(buyer != _seller, \"Marketplace: owner cannot buy\");\r\n\r\n        sale.amount -= _amount;\r\n        if (sale.amount == 0)\r\n            sale.isActive = false;\r\n\r\n        IERC20(UITToken).safeTransferFrom(buyer, _seller, price);\r\n\r\n        // If seller is Admin, mint NFT to buyer\r\n        if (IAccessControl(accessControl).hasRole(ADMIN_ROLE, _seller)) {\r\n            IERC20(UITToken).safeTransferFrom(buyer, rewardDistributor, price);\r\n            IUITNFTToken(UITNFT).mint(_itemId, buyer, _amount);\r\n        }\r\n        else {\r\n            IERC20(UITToken).safeTransferFrom(buyer, _seller, price);\r\n            IERC1155(UITNFT).safeTransferFrom(address(this), buyer, sale.itemId, _amount, \"\");\r\n        }\r\n        \r\n        emit ItemBought(_itemId, buyer, _seller, _amount, price);\r\n    }\r\n\r\n    /** ADMIN\r\n     * @dev create and list items on sale.\r\n     * @param _nftInfo info of NFT want to create\r\n     * @param _oneItemPrice price of one item want to sell\r\n     * @param _amount amount of item want to sell\r\n     */\r\n    function createAndListNFT(NFTInfo memory _nftInfo, uint _oneItemPrice, uint _amount) external override onlyAdmin whenNotPaused nonReentrant {\r\n        require(_oneItemPrice > 0, \"Marketplace: price must not be zero\");\r\n        require(_amount > 0, \"Marketplace: amount must not be zero\");\r\n        IUITNFTToken(UITNFT).createNFT(_nftInfo);\r\n        uint itemId = IUITNFTToken(UITNFT).getIdIndex();\r\n\r\n        SaleInfo memory saleInfo = itemsForSale[itemId][msg.sender];\r\n        require(!saleInfo.isActive, \"Marketplace: Item is already listed\");\r\n\r\n        itemsForSale[itemId][msg.sender] = SaleInfo(\r\n            true,\r\n            itemId,\r\n            _amount,\r\n            block.timestamp,\r\n            _oneItemPrice\r\n        );\r\n\r\n        emit AdminItemListed(itemId, _amount, _oneItemPrice, msg.sender);\r\n    }\r\n\r\n    /** ADMIN\r\n     * @dev update amount NFT to sell\r\n     * @param _itemId id of item want to buy\r\n     * @param _amount amount of item want to sell\r\n     */\r\n    function updateAmountNFT(uint _itemId, uint _amount) external override onlyAdmin whenNotPaused nonReentrant {\r\n        SaleInfo storage sale = itemsForSale[_itemId][msg.sender];\r\n        bool isSale = sale.isActive;\r\n\r\n        if (_amount == 0 && isSale)\r\n            sale.isActive = false;\r\n        else if (sale.amount == 0 && !isSale)\r\n            sale.isActive = true;\r\n\r\n        sale.amount = _amount;\r\n\r\n        emit AdminItemAmountUpdated(_itemId, _amount, msg.sender);\r\n    }\r\n\r\n    function requestActiveNFT(uint _itemId, uint _amount) external whenNotPaused nonReentrant {\r\n        activeNFT.requestActiveNFT(_itemId, _amount);\r\n    }\r\n\r\n    function cancelRequestActiveNFT(uint _activeId) external whenNotPaused nonReentrant {\r\n        activeNFT.cancelRequestActiveNFT(_activeId);\r\n    }\r\n\r\n    function activeNFTByAdmin(uint _activeId) external onlyAdmin whenNotPaused nonReentrant {\r\n        activeNFT.activeNFT(_activeId);\r\n    }\r\n\r\n    function setAccessControl(address _accessControl) external onlyOwner {\r\n        accessControl = _accessControl;\r\n    }\r\n\r\n    function setActiveNFT(IActiveNFT _activeNFT) external onlyOwner {\r\n        activeNFT = _activeNFT;\r\n    }\r\n\r\n    /**\r\n     * @dev Pause the contract.\r\n     */\r\n    function pause() external onlyOwner {\r\n        _pause();\r\n    }\r\n\r\n    /**\r\n     * @dev Unpause the contract.\r\n     */\r\n    function unpause() external onlyOwner {\r\n        _unpause();\r\n    }\r\n}\r\n",
  "sourcePath": "E:\\KLTN\\KLTN\\KLTN-contracts\\contracts\\marketplace\\Marketplace.sol",
  "compiler": {
    "name": "solc",
    "version": "0.8.13+commit.abaa5c0e.Emscripten.clang"
  },
  "schemaVersion": "3.4.3",
  "updatedAt": "2022-05-14T13:42:58.266Z",
  "devdoc": {
    "kind": "dev",
    "methods": {
      "buy(uint256,address,uint256)": {
        "details": "Buyer buy amount of items is being on sale.",
        "params": {
          "_amount": "amount of item want to buy",
          "_itemId": "id of item want to buy",
          "_seller": "seller address"
        }
      },
      "createAndListNFT((string,bool),uint256,uint256)": {
        "details": "create and list items on sale.",
        "params": {
          "_amount": "amount of item want to sell",
          "_nftInfo": "info of NFT want to create",
          "_oneItemPrice": "price of one item want to sell"
        }
      },
      "deList(uint256)": {
        "details": "Owner delists item is being on sale.",
        "params": {
          "_itemId": "id of item want to delist"
        }
      },
      "list(uint256,uint256,uint256)": {
        "details": "Seller lists a item on sale",
        "params": {
          "_amount": "amount of item want to sell",
          "_itemId": "itemId",
          "_oneItemPrice": "price of one item want to sell"
        }
      },
      "owner()": {
        "details": "Returns the address of the current owner."
      },
      "pause()": {
        "details": "Pause the contract."
      },
      "paused()": {
        "details": "Returns true if the contract is paused, and false otherwise."
      },
      "renounceOwnership()": {
        "details": "Leaves the contract without owner. It will not be possible to call `onlyOwner` functions anymore. Can only be called by the current owner. NOTE: Renouncing ownership will leave the contract without an owner, thereby removing any functionality that is only available to the owner."
      },
      "supportsInterface(bytes4)": {
        "details": "See {IERC165-supportsInterface}."
      },
      "transferOwnership(address)": {
        "details": "Transfers ownership of the contract to a new account (`newOwner`). Can only be called by the current owner."
      },
      "unpause()": {
        "details": "Unpause the contract."
      },
      "updateAmountNFT(uint256,uint256)": {
        "details": "update amount NFT to sell",
        "params": {
          "_amount": "amount of item want to sell",
          "_itemId": "id of item want to buy"
        }
      },
      "updatePrice(uint256,uint256)": {
        "details": "Seller update price of one item",
        "params": {
          "_itemId": "id of item want to update price",
          "_oneItemPrice": "new price of one item"
        }
      }
    },
    "version": 1
  },
  "userdoc": {
    "kind": "user",
    "methods": {
      "buy(uint256,address,uint256)": {
        "notice": "USER"
      },
      "createAndListNFT((string,bool),uint256,uint256)": {
        "notice": "ADMIN"
      },
      "deList(uint256)": {
        "notice": "USER"
      },
      "list(uint256,uint256,uint256)": {
        "notice": "USER"
      },
      "updateAmountNFT(uint256,uint256)": {
        "notice": "ADMIN"
      },
      "updatePrice(uint256,uint256)": {
        "notice": "USER, ADMIN"
      }
    },
    "version": 1
  }
}