{
  "contractName": "MissionFactory",
  "abi": [
    {
      "inputs": [
        {
          "internalType": "address",
          "name": "owner",
          "type": "address"
        },
        {
          "internalType": "address",
          "name": "_accessControll",
          "type": "address"
        },
        {
          "internalType": "address",
          "name": "_rewardDistributor",
          "type": "address"
        }
      ],
      "name": "createNewMission",
      "outputs": [
        {
          "internalType": "address",
          "name": "",
          "type": "address"
        }
      ],
      "stateMutability": "nonpayable",
      "type": "function"
    }
  ],
  "bytecode": "0x608060405234801561001057600080fd5b50613391806100206000396000f3fe608060405234801561001057600080fd5b506004361061002b5760003560e01c8063e162fa7714610030575b600080fd5b61004a60048036038101906100459190610118565b610060565b604051610057919061017a565b60405180910390f35b600080848484604051610072906100a8565b61007e93929190610195565b604051809103906000f08015801561009a573d6000803e3d6000fd5b509050809150509392505050565b61318f806101cd83390190565b600080fd5b600073ffffffffffffffffffffffffffffffffffffffff82169050919050565b60006100e5826100ba565b9050919050565b6100f5816100da565b811461010057600080fd5b50565b600081359050610112816100ec565b92915050565b600080600060608486031215610131576101306100b5565b5b600061013f86828701610103565b935050602061015086828701610103565b925050604061016186828701610103565b9150509250925092565b610174816100da565b82525050565b600060208201905061018f600083018461016b565b92915050565b60006060820190506101aa600083018661016b565b6101b7602083018561016b565b6101c4604083018461016b565b94935050505056fe60a06040526000600960006101000a81548160ff021916908360028111156200002d576200002c62000124565b5b02179055503480156200003f57600080fd5b506040516200318f3803806200318f8339818101604052810190620000659190620001bd565b8273ffffffffffffffffffffffffffffffffffffffff1660808173ffffffffffffffffffffffffffffffffffffffff168152505081600960016101000a81548173ffffffffffffffffffffffffffffffffffffffff021916908373ffffffffffffffffffffffffffffffffffffffff16021790555080600a60006101000a81548173ffffffffffffffffffffffffffffffffffffffff021916908373ffffffffffffffffffffffffffffffffffffffff16021790555050505062000219565b7f4e487b7100000000000000000000000000000000000000000000000000000000600052602160045260246000fd5b600080fd5b600073ffffffffffffffffffffffffffffffffffffffff82169050919050565b6000620001858262000158565b9050919050565b620001978162000178565b8114620001a357600080fd5b50565b600081519050620001b7816200018c565b92915050565b600080600060608486031215620001d957620001d862000153565b5b6000620001e986828701620001a6565b9350506020620001fc86828701620001a6565b92505060406200020f86828701620001a6565b9150509250925092565b608051612f456200024a600039600081816106bf01528181610e11015281816110de01526113410152612f456000f3fe608060405234801561001057600080fd5b506004361061012c5760003560e01c8063a7f44e0d116100ad578063be9a655511610071578063be9a6555146102f1578063d16e57fe146102fb578063d6295bb114610317578063ec39670e14610333578063ed214fff146103635761012c565b8063a7f44e0d14610249578063aa4936ce14610267578063aa8c217c14610285578063acc2166a146102a3578063b1319f41146102c15761012c565b806349aa7033116100f457806349aa7033146101b95780636e88f230146101c357806371b26bd4146101df5780638da5cb5b146101fb578063a32fb342146102195761012c565b806317701ee6146101315780631aa3a00814610157578063200d2ed21461016157806335c1d3491461017f57806343d726d6146101af575b600080fd5b610139610381565b60405161014e999897969594939291906120e4565b60405180910390f35b61015f6104ed565b005b61016961066b565b60405161017691906121f6565b60405180910390f35b61019960048036038101906101949190612251565b61067e565b6040516101a6919061227e565b60405180910390f35b6101b76106bd565b005b6101c16108ea565b005b6101dd60048036038101906101d891906122c5565b610b5b565b005b6101f960048036038101906101f49190612427565b610e0f565b005b6102036110dc565b604051610210919061227e565b60405180910390f35b610233600480360381019061022e91906122c5565b611100565b6040516102409190612544565b60405180910390f35b610251611120565b60405161025e919061261d565b60405180910390f35b61026f6112cd565b60405161027c919061269e565b60405180910390f35b61028d6112f3565b60405161029a91906126b9565b60405180910390f35b6102ab6112f9565b6040516102b891906126f5565b60405180910390f35b6102db60048036038101906102d691906122c5565b61131f565b6040516102e89190612544565b60405180910390f35b6102f961133f565b005b61031560048036038101906103109190612770565b611470565b005b610331600480360381019061032c9190612770565b611798565b005b61034d600480360381019061034891906122c5565b611b18565b60405161035a9190612544565b60405180910390f35b61036b611b38565b604051610378919061261d565b60405180910390f35b6000806000018054610392906127ec565b80601f01602080910402602001604051908101604052809291908181526020018280546103be906127ec565b801561040b5780601f106103e05761010080835404028352916020019161040b565b820191906000526020600020905b8154815290600101906020018083116103ee57829003601f168201915b505050505090806001018054610420906127ec565b80601f016020809104026020016040519081016040528092919081815260200182805461044c906127ec565b80156104995780601f1061046e57610100808354040283529160200191610499565b820191906000526020600020905b81548152906001019060200180831161047c57829003601f168201915b5050505050908060020154908060030154908060040160009054906101000a900473ffffffffffffffffffffffffffffffffffffffff16908060050154908060060154908060070154908060080154905089565b600960019054906101000a900473ffffffffffffffffffffffffffffffffffffffff1673ffffffffffffffffffffffffffffffffffffffff166391d148547fc951d7098b66ba0b8b77265b6e9cf0e187d73125a42bcd0061b09a68be421810336040518363ffffffff1660e01b815260040161056a929190612836565b602060405180830381865afa158015610587573d6000803e3d6000fd5b505050506040513d601f19601f820116820180604052508101906105ab919061288b565b6105ea576040517f08c379a00000000000000000000000000000000000000000000000000000000081526004016105e190612904565b60405180910390fd5b600160028111156105fe576105fd61217f565b5b600960009054906101000a900460ff1660028111156106205761061f61217f565b5b14610660576040517f08c379a000000000000000000000000000000000000000000000000000000000815260040161065790612970565b60405180910390fd5b61066933611ce5565b565b600960009054906101000a900460ff1681565b600b818154811061068e57600080fd5b906000526020600020016000915054906101000a900473ffffffffffffffffffffffffffffffffffffffff1681565b7f000000000000000000000000000000000000000000000000000000000000000073ffffffffffffffffffffffffffffffffffffffff163373ffffffffffffffffffffffffffffffffffffffff161461074b576040517f08c379a0000000000000000000000000000000000000000000000000000000008152600401610742906129dc565b60405180910390fd5b600060080154421161075c57600080fd5b6002600960006101000a81548160ff021916908360028111156107825761078161217f565b5b02179055506000610791611120565b905060005b81518110156108af57600073ffffffffffffffffffffffffffffffffffffffff168282815181106107ca576107c96129fc565b5b602002602001015173ffffffffffffffffffffffffffffffffffffffff161461089c57600a60009054906101000a900473ffffffffffffffffffffffffffffffffffffffff1673ffffffffffffffffffffffffffffffffffffffff16631ec8bb8c83838151811061083e5761083d6129fc565b5b60200260200101516000600201546040518363ffffffff1660e01b8152600401610869929190612a2b565b600060405180830381600087803b15801561088357600080fd5b505af1158015610897573d6000803e3d6000fd5b505050505b80806108a790612a83565b915050610796565b507fbf67515a38ee520223d32c1266d52101c30d936ed1f3e436c8caeb0a43cb06bf426040516108df91906126b9565b60405180910390a150565b600960019054906101000a900473ffffffffffffffffffffffffffffffffffffffff1673ffffffffffffffffffffffffffffffffffffffff166391d148547fc951d7098b66ba0b8b77265b6e9cf0e187d73125a42bcd0061b09a68be421810336040518363ffffffff1660e01b8152600401610967929190612836565b602060405180830381865afa158015610984573d6000803e3d6000fd5b505050506040513d601f19601f820116820180604052508101906109a8919061288b565b6109e7576040517f08c379a00000000000000000000000000000000000000000000000000000000081526004016109de90612904565b60405180910390fd5b600160028111156109fb576109fa61217f565b5b600960009054906101000a900460ff166002811115610a1d57610a1c61217f565b5b14610a5d576040517f08c379a0000000000000000000000000000000000000000000000000000000008152600401610a5490612970565b60405180910390fd5b600e60003373ffffffffffffffffffffffffffffffffffffffff1673ffffffffffffffffffffffffffffffffffffffff16815260200190815260200160002060009054906101000a900460ff16610ae9576040517f08c379a0000000000000000000000000000000000000000000000000000000008152600401610ae090612b17565b60405180910390fd5b600c6000815480929190610afc90612b37565b91905055506000600e60003373ffffffffffffffffffffffffffffffffffffffff1673ffffffffffffffffffffffffffffffffffffffff16815260200190815260200160002060006101000a81548160ff021916908315150217905550565b600960019054906101000a900473ffffffffffffffffffffffffffffffffffffffff1673ffffffffffffffffffffffffffffffffffffffff166391d148547fb39b9469ac3ddf8d58f06201f7e17350a277b429ed2a39727bf2f3a5165dba1a336040518363ffffffff1660e01b8152600401610bd8929190612836565b602060405180830381865afa158015610bf5573d6000803e3d6000fd5b505050506040513d601f19601f82011682018060405250810190610c19919061288b565b610c58576040517f08c379a0000000000000000000000000000000000000000000000000000000008152600401610c4f90612bac565b60405180910390fd5b60016002811115610c6c57610c6b61217f565b5b600960009054906101000a900460ff166002811115610c8e57610c8d61217f565b5b14610cce576040517f08c379a0000000000000000000000000000000000000000000000000000000008152600401610cc590612970565b60405180910390fd5b60006007015442118015610ce6575060006008015442105b610cef57600080fd5b600f60008273ffffffffffffffffffffffffffffffffffffffff1673ffffffffffffffffffffffffffffffffffffffff16815260200190815260200160002060009054906101000a900460ff16610d7b576040517f08c379a0000000000000000000000000000000000000000000000000000000008152600401610d7290612b17565b60405180910390fd5b6000600f60008373ffffffffffffffffffffffffffffffffffffffff1673ffffffffffffffffffffffffffffffffffffffff16815260200190815260200160002060006101000a81548160ff0219169083151502179055507ffe786ec358465053564cb2b843230fd06c070174c46fbc3786d85d894ff392108142604051610e04929190612a2b565b60405180910390a150565b7f000000000000000000000000000000000000000000000000000000000000000073ffffffffffffffffffffffffffffffffffffffff163373ffffffffffffffffffffffffffffffffffffffff1614610e9d576040517f08c379a0000000000000000000000000000000000000000000000000000000008152600401610e94906129dc565b60405180910390fd5b60006002811115610eb157610eb061217f565b5b600960009054906101000a900460ff166002811115610ed357610ed261217f565b5b14610f13576040517f08c379a0000000000000000000000000000000000000000000000000000000008152600401610f0a90612c18565b60405180910390fd5b60008711610f56576040517f08c379a0000000000000000000000000000000000000000000000000000000008152600401610f4d90612caa565b60405180910390fd5b8342108015610f6457508284105b8015610f6f57508183105b8015610f7a57508082105b610fb9576040517f08c379a0000000000000000000000000000000000000000000000000000000008152600401610fb090612d16565b60405180910390fd5b6040518061012001604052808a81526020018981526020018881526020018781526020018673ffffffffffffffffffffffffffffffffffffffff1681526020018581526020018481526020018381526020018281525060008082015181600001908051906020019061102c929190611f4e565b506020820151816001019080519060200190611049929190611f4e565b50604082015181600201556060820151816003015560808201518160040160006101000a81548173ffffffffffffffffffffffffffffffffffffffff021916908373ffffffffffffffffffffffffffffffffffffffff16021790555060a0820151816005015560c0820151816006015560e082015181600701556101008201518160080155905050505050505050505050565b7f000000000000000000000000000000000000000000000000000000000000000081565b600f6020528060005260406000206000915054906101000a900460ff1681565b60606000600c5467ffffffffffffffff8111156111405761113f6122fc565b5b60405190808252806020026020018201604052801561116e5781602001602082028036833780820191505090505b509050600080600090505b600b805490508110156112c457600f6000600b838154811061119e5761119d6129fc565b5b9060005260206000200160009054906101000a900473ffffffffffffffffffffffffffffffffffffffff1673ffffffffffffffffffffffffffffffffffffffff1673ffffffffffffffffffffffffffffffffffffffff16815260200190815260200160002060009054906101000a900460ff16156112b157600b818154811061122a576112296129fc565b5b9060005260206000200160009054906101000a900473ffffffffffffffffffffffffffffffffffffffff16838381518110611268576112676129fc565b5b602002602001019073ffffffffffffffffffffffffffffffffffffffff16908173ffffffffffffffffffffffffffffffffffffffff168152505081806112ad90612a83565b9250505b80806112bc90612a83565b915050611179565b50819250505090565b600960019054906101000a900473ffffffffffffffffffffffffffffffffffffffff1681565b600c5481565b600a60009054906101000a900473ffffffffffffffffffffffffffffffffffffffff1681565b600e6020528060005260406000206000915054906101000a900460ff1681565b7f000000000000000000000000000000000000000000000000000000000000000073ffffffffffffffffffffffffffffffffffffffff163373ffffffffffffffffffffffffffffffffffffffff16146113cd576040517f08c379a00000000000000000000000000000000000000000000000000000000081526004016113c4906129dc565b60405180910390fd5b600060028111156113e1576113e061217f565b5b600960009054906101000a900460ff1660028111156114035761140261217f565b5b14611443576040517f08c379a000000000000000000000000000000000000000000000000000000000815260040161143a90612c18565b60405180910390fd5b6001600960006101000a81548160ff021916908360028111156114695761146861217f565b5b0217905550565b600960019054906101000a900473ffffffffffffffffffffffffffffffffffffffff1673ffffffffffffffffffffffffffffffffffffffff166391d148547fb39b9469ac3ddf8d58f06201f7e17350a277b429ed2a39727bf2f3a5165dba1a336040518363ffffffff1660e01b81526004016114ed929190612836565b602060405180830381865afa15801561150a573d6000803e3d6000fd5b505050506040513d601f19601f8201168201806040525081019061152e919061288b565b61156d576040517f08c379a000000000000000000000000000000000000000000000000000000000815260040161156490612bac565b60405180910390fd5b600160028111156115815761158061217f565b5b600960009054906101000a900460ff1660028111156115a3576115a261217f565b5b146115e3576040517f08c379a00000000000000000000000000000000000000000000000000000000081526004016115da90612970565b60405180910390fd5b600060070154421180156115fb575060006008015442105b61160457600080fd5b60005b8282905081101561175757600e6000848484818110611629576116286129fc565b5b905060200201602081019061163e91906122c5565b73ffffffffffffffffffffffffffffffffffffffff1673ffffffffffffffffffffffffffffffffffffffff16815260200190815260200160002060009054906101000a900460ff166116c5576040517f08c379a00000000000000000000000000000000000000000000000000000000081526004016116bc90612b17565b60405180910390fd5b6001600f60008585858181106116de576116dd6129fc565b5b90506020020160208101906116f391906122c5565b73ffffffffffffffffffffffffffffffffffffffff1673ffffffffffffffffffffffffffffffffffffffff16815260200190815260200160002060006101000a81548160ff021916908315150217905550808061174f90612a83565b915050611607565b507f698dd5b92696456649e8994759ccfe7076b1ebe9096ecb083211d8bfe8163842828290504260405161178c929190612d36565b60405180910390a15050565b600960019054906101000a900473ffffffffffffffffffffffffffffffffffffffff1673ffffffffffffffffffffffffffffffffffffffff166391d148547fb39b9469ac3ddf8d58f06201f7e17350a277b429ed2a39727bf2f3a5165dba1a336040518363ffffffff1660e01b8152600401611815929190612836565b602060405180830381865afa158015611832573d6000803e3d6000fd5b505050506040513d601f19601f82011682018060405250810190611856919061288b565b611895576040517f08c379a000000000000000000000000000000000000000000000000000000000815260040161188c90612bac565b60405180910390fd5b600160028111156118a9576118a861217f565b5b600960009054906101000a900460ff1660028111156118cb576118ca61217f565b5b1461190b576040517f08c379a000000000000000000000000000000000000000000000000000000000815260040161190290612970565b60405180910390fd5b600060040160009054906101000a900473ffffffffffffffffffffffffffffffffffffffff1673ffffffffffffffffffffffffffffffffffffffff163373ffffffffffffffffffffffffffffffffffffffff161461199e576040517f08c379a000000000000000000000000000000000000000000000000000000000815260040161199590612dab565b60405180910390fd5b60005b82829050811015611b1357600960019054906101000a900473ffffffffffffffffffffffffffffffffffffffff1673ffffffffffffffffffffffffffffffffffffffff166391d148547fc951d7098b66ba0b8b77265b6e9cf0e187d73125a42bcd0061b09a68be421810858585818110611a1e57611a1d6129fc565b5b9050602002016020810190611a3391906122c5565b6040518363ffffffff1660e01b8152600401611a50929190612836565b602060405180830381865afa158015611a6d573d6000803e3d6000fd5b505050506040513d601f19601f82011682018060405250810190611a91919061288b565b611ad0576040517f08c379a0000000000000000000000000000000000000000000000000000000008152600401611ac790612e17565b60405180910390fd5b611b00838383818110611ae657611ae56129fc565b5b9050602002016020810190611afb91906122c5565b611ce5565b8080611b0b90612a83565b9150506119a1565b505050565b600d6020528060005260406000206000915054906101000a900460ff1681565b60606000600c5467ffffffffffffffff811115611b5857611b576122fc565b5b604051908082528060200260200182016040528015611b865781602001602082028036833780820191505090505b509050600080600090505b600b80549050811015611cdc57600e6000600b8381548110611bb657611bb56129fc565b5b9060005260206000200160009054906101000a900473ffffffffffffffffffffffffffffffffffffffff1673ffffffffffffffffffffffffffffffffffffffff1673ffffffffffffffffffffffffffffffffffffffff16815260200190815260200160002060009054906101000a900460ff1615611cc957600b8181548110611c4257611c416129fc565b5b9060005260206000200160009054906101000a900473ffffffffffffffffffffffffffffffffffffffff16838381518110611c8057611c7f6129fc565b5b602002602001019073ffffffffffffffffffffffffffffffffffffffff16908173ffffffffffffffffffffffffffffffffffffffff16815250508180611cc590612a83565b9250505b8080611cd490612a83565b915050611b91565b50819250505090565b600060060154421115611d2d576040517f08c379a0000000000000000000000000000000000000000000000000000000008152600401611d2490612e83565b60405180910390fd5b600e60008273ffffffffffffffffffffffffffffffffffffffff1673ffffffffffffffffffffffffffffffffffffffff16815260200190815260200160002060009054906101000a900460ff1615611dba576040517f08c379a0000000000000000000000000000000000000000000000000000000008152600401611db190612eef565b60405180910390fd5b600c6000815480929190611dcd90612a83565b9190505550600d60008273ffffffffffffffffffffffffffffffffffffffff1673ffffffffffffffffffffffffffffffffffffffff16815260200190815260200160002060009054906101000a900460ff16611e8757600b819080600181540180825580915050600190039060005260206000200160009091909190916101000a81548173ffffffffffffffffffffffffffffffffffffffff021916908373ffffffffffffffffffffffffffffffffffffffff1602179055505b6001600d60008373ffffffffffffffffffffffffffffffffffffffff1673ffffffffffffffffffffffffffffffffffffffff16815260200190815260200160002060006101000a81548160ff0219169083151502179055506001600e60008373ffffffffffffffffffffffffffffffffffffffff1673ffffffffffffffffffffffffffffffffffffffff16815260200190815260200160002060006101000a81548160ff021916908315150217905550600060030154600c541115611f4b57600080fd5b50565b828054611f5a906127ec565b90600052602060002090601f016020900481019282611f7c5760008555611fc3565b82601f10611f9557805160ff1916838001178555611fc3565b82800160010185558215611fc3579182015b82811115611fc2578251825591602001919060010190611fa7565b5b509050611fd09190611fd4565b5090565b5b80821115611fed576000816000905550600101611fd5565b5090565b600081519050919050565b600082825260208201905092915050565b60005b8381101561202b578082015181840152602081019050612010565b8381111561203a576000848401525b50505050565b6000601f19601f8301169050919050565b600061205c82611ff1565b6120668185611ffc565b935061207681856020860161200d565b61207f81612040565b840191505092915050565b6000819050919050565b61209d8161208a565b82525050565b600073ffffffffffffffffffffffffffffffffffffffff82169050919050565b60006120ce826120a3565b9050919050565b6120de816120c3565b82525050565b60006101208201905081810360008301526120ff818c612051565b90508181036020830152612113818b612051565b9050612122604083018a612094565b61212f6060830189612094565b61213c60808301886120d5565b61214960a0830187612094565b61215660c0830186612094565b61216360e0830185612094565b612171610100830184612094565b9a9950505050505050505050565b7f4e487b7100000000000000000000000000000000000000000000000000000000600052602160045260246000fd5b600381106121bf576121be61217f565b5b50565b60008190506121d0826121ae565b919050565b60006121e0826121c2565b9050919050565b6121f0816121d5565b82525050565b600060208201905061220b60008301846121e7565b92915050565b6000604051905090565b600080fd5b600080fd5b61222e8161208a565b811461223957600080fd5b50565b60008135905061224b81612225565b92915050565b6000602082840312156122675761226661221b565b5b60006122758482850161223c565b91505092915050565b600060208201905061229360008301846120d5565b92915050565b6122a2816120c3565b81146122ad57600080fd5b50565b6000813590506122bf81612299565b92915050565b6000602082840312156122db576122da61221b565b5b60006122e9848285016122b0565b91505092915050565b600080fd5b600080fd5b7f4e487b7100000000000000000000000000000000000000000000000000000000600052604160045260246000fd5b61233482612040565b810181811067ffffffffffffffff82111715612353576123526122fc565b5b80604052505050565b6000612366612211565b9050612372828261232b565b919050565b600067ffffffffffffffff821115612392576123916122fc565b5b61239b82612040565b9050602081019050919050565b82818337600083830152505050565b60006123ca6123c584612377565b61235c565b9050828152602081018484840111156123e6576123e56122f7565b5b6123f18482856123a8565b509392505050565b600082601f83011261240e5761240d6122f2565b5b813561241e8482602086016123b7565b91505092915050565b60008060008060008060008060006101208a8c03121561244a5761244961221b565b5b60008a013567ffffffffffffffff81111561246857612467612220565b5b6124748c828d016123f9565b99505060208a013567ffffffffffffffff81111561249557612494612220565b5b6124a18c828d016123f9565b98505060406124b28c828d0161223c565b97505060606124c38c828d0161223c565b96505060806124d48c828d016122b0565b95505060a06124e58c828d0161223c565b94505060c06124f68c828d0161223c565b93505060e06125078c828d0161223c565b9250506101006125198c828d0161223c565b9150509295985092959850929598565b60008115159050919050565b61253e81612529565b82525050565b60006020820190506125596000830184612535565b92915050565b600081519050919050565b600082825260208201905092915050565b6000819050602082019050919050565b612594816120c3565b82525050565b60006125a6838361258b565b60208301905092915050565b6000602082019050919050565b60006125ca8261255f565b6125d4818561256a565b93506125df8361257b565b8060005b838110156126105781516125f7888261259a565b9750612602836125b2565b9250506001810190506125e3565b5085935050505092915050565b6000602082019050818103600083015261263781846125bf565b905092915050565b6000819050919050565b600061266461265f61265a846120a3565b61263f565b6120a3565b9050919050565b600061267682612649565b9050919050565b60006126888261266b565b9050919050565b6126988161267d565b82525050565b60006020820190506126b3600083018461268f565b92915050565b60006020820190506126ce6000830184612094565b92915050565b60006126df8261266b565b9050919050565b6126ef816126d4565b82525050565b600060208201905061270a60008301846126e6565b92915050565b600080fd5b600080fd5b60008083601f8401126127305761272f6122f2565b5b8235905067ffffffffffffffff81111561274d5761274c612710565b5b60208301915083602082028301111561276957612768612715565b5b9250929050565b600080602083850312156127875761278661221b565b5b600083013567ffffffffffffffff8111156127a5576127a4612220565b5b6127b18582860161271a565b92509250509250929050565b7f4e487b7100000000000000000000000000000000000000000000000000000000600052602260045260246000fd5b6000600282049050600182168061280457607f821691505b602082108103612817576128166127bd565b5b50919050565b6000819050919050565b6128308161281d565b82525050565b600060408201905061284b6000830185612827565b61285860208301846120d5565b9392505050565b61286881612529565b811461287357600080fd5b50565b6000815190506128858161285f565b92915050565b6000602082840312156128a1576128a061221b565b5b60006128af84828501612876565b91505092915050565b7f4d433a204f6e6c792053747564656e7400000000000000000000000000000000600082015250565b60006128ee601083611ffc565b91506128f9826128b8565b602082019050919050565b6000602082019050818103600083015261291d816128e1565b9050919050565b7f4d433a204f6e6c79204f70656e00000000000000000000000000000000000000600082015250565b600061295a600d83611ffc565b915061296582612924565b602082019050919050565b600060208201905081810360008301526129898161294d565b9050919050565b7f4f6e6c79206f776e657200000000000000000000000000000000000000000000600082015250565b60006129c6600a83611ffc565b91506129d182612990565b602082019050919050565b600060208201905081810360008301526129f5816129b9565b9050919050565b7f4e487b7100000000000000000000000000000000000000000000000000000000600052603260045260246000fd5b6000604082019050612a4060008301856120d5565b612a4d6020830184612094565b9392505050565b7f4e487b7100000000000000000000000000000000000000000000000000000000600052601160045260246000fd5b6000612a8e8261208a565b91507fffffffffffffffffffffffffffffffffffffffffffffffffffffffffffffffff8203612ac057612abf612a54565b5b600182019050919050565b7f4d533a2063616e63656c206572726f7200000000000000000000000000000000600082015250565b6000612b01601083611ffc565b9150612b0c82612acb565b602082019050919050565b60006020820190508181036000830152612b3081612af4565b9050919050565b6000612b428261208a565b915060008203612b5557612b54612a54565b5b600182039050919050565b7f4d433a204f6e6c79204c65637475726572000000000000000000000000000000600082015250565b6000612b96601183611ffc565b9150612ba182612b60565b602082019050919050565b60006020820190508181036000830152612bc581612b89565b9050919050565b7f4d433a204f6e6c79204c6f636b00000000000000000000000000000000000000600082015250565b6000612c02600d83611ffc565b9150612c0d82612bcc565b602082019050919050565b60006020820190508181036000830152612c3181612bf5565b9050919050565b7f4d433a2041776172642073686f756c642067726561746572207468616e205a6560008201527f726f000000000000000000000000000000000000000000000000000000000000602082015250565b6000612c94602283611ffc565b9150612c9f82612c38565b604082019050919050565b60006020820190508181036000830152612cc381612c87565b9050919050565b7f4d433a2054696d6520697320696e76616c696400000000000000000000000000600082015250565b6000612d00601383611ffc565b9150612d0b82612cca565b602082019050919050565b60006020820190508181036000830152612d2f81612cf3565b9050919050565b6000604082019050612d4b6000830185612094565b612d586020830184612094565b9392505050565b7f4d433a204f6e6c792074686520706572736f6e20696e20636861726765000000600082015250565b6000612d95601d83611ffc565b9150612da082612d5f565b602082019050919050565b60006020820190508181036000830152612dc481612d88565b9050919050565b7f53686f756c64206f6e6c79206164642073747564656e74000000000000000000600082015250565b6000612e01601783611ffc565b9150612e0c82612dcb565b602082019050919050565b60006020820190508181036000830152612e3081612df4565b9050919050565b7f457870697265642074696d6520746f2072656769737465720000000000000000600082015250565b6000612e6d601883611ffc565b9150612e7882612e37565b602082019050919050565b60006020820190508181036000830152612e9c81612e60565b9050919050565b7f4d533a207265676973746572206572726f720000000000000000000000000000600082015250565b6000612ed9601283611ffc565b9150612ee482612ea3565b602082019050919050565b60006020820190508181036000830152612f0881612ecc565b905091905056fea26469706673582212207eecb8d0a02b19f7fed5d4ed1439479d481a83eabb8d0a6250d08c39f8e10f1064736f6c634300080e0033a264697066735822122095d2a4ea00da3ac03ec38cf5ee8547c1e9175fe058e3c0e33921583d80f34fec64736f6c634300080e0033",
  "immutableReferences": {},
  "source": "// SPDX-License-Identifier: UNLICENSED\r\npragma solidity ^0.8.0;\r\n\r\nimport \"../MissionContract.sol\";\r\nimport \"../interfaces/IMissionFactory.sol\";\r\n\r\ncontract MissionFactory is IMissionFactory {\r\n    function createNewMission(\r\n        address owner,\r\n        address _accessControll,\r\n        address _rewardDistributor\r\n    ) public override returns (address) {\r\n        MissionContract missionContract = new MissionContract(\r\n            owner,\r\n            _accessControll,\r\n            _rewardDistributor\r\n        );\r\n        return address(missionContract);\r\n    }\r\n}\r\n",
  "sourcePath": "E:\\KLTN\\KLTN\\KLTN-contracts\\contracts\\studentmanager\\factories\\MissionFactory.sol",
  "compiler": {
    "name": "solc",
    "version": "0.8.14+commit.80d49f37.Emscripten.clang"
  },
  "schemaVersion": "3.4.3",
  "updatedAt": "2022-05-21T08:21:37.993Z",
  "networkType": "ethereum",
  "devdoc": {
    "kind": "dev",
    "methods": {},
    "version": 1
  },
  "userdoc": {
    "kind": "user",
    "methods": {},
    "version": 1
  }
}