{
  "contractName": "MissionContract",
  "abi": [
    {
      "inputs": [
        {
          "internalType": "address",
          "name": "_owner",
          "type": "address"
        },
        {
          "internalType": "address",
          "name": "_accessControll",
          "type": "address"
        },
        {
          "internalType": "address",
          "name": "_rewardDistributor",
          "type": "address"
        }
      ],
      "stateMutability": "nonpayable",
      "type": "constructor"
    },
    {
      "anonymous": false,
      "inputs": [
        {
          "indexed": false,
          "internalType": "uint256",
          "name": "timestamp",
          "type": "uint256"
        }
      ],
      "name": "Close",
      "type": "event"
    },
    {
      "anonymous": false,
      "inputs": [
        {
          "indexed": false,
          "internalType": "uint256",
          "name": "studentsAmount",
          "type": "uint256"
        },
        {
          "indexed": false,
          "internalType": "uint256",
          "name": "timestamp",
          "type": "uint256"
        }
      ],
      "name": "Confirm",
      "type": "event"
    },
    {
      "anonymous": false,
      "inputs": [
        {
          "indexed": true,
          "internalType": "uint256",
          "name": "id",
          "type": "uint256"
        }
      ],
      "name": "CreatedNewMission",
      "type": "event"
    },
    {
      "anonymous": false,
      "inputs": [
        {
          "indexed": false,
          "internalType": "address",
          "name": "student",
          "type": "address"
        },
        {
          "indexed": false,
          "internalType": "uint256",
          "name": "timestamp",
          "type": "uint256"
        }
      ],
      "name": "UnConfirm",
      "type": "event"
    },
    {
      "inputs": [],
      "name": "accessControll",
      "outputs": [
        {
          "internalType": "contract IAccessControl",
          "name": "",
          "type": "address"
        }
      ],
      "stateMutability": "view",
      "type": "function"
    },
    {
      "inputs": [
        {
          "internalType": "address",
          "name": "",
          "type": "address"
        }
      ],
      "name": "addressIsExist",
      "outputs": [
        {
          "internalType": "bool",
          "name": "",
          "type": "bool"
        }
      ],
      "stateMutability": "view",
      "type": "function"
    },
    {
      "inputs": [],
      "name": "amount",
      "outputs": [
        {
          "internalType": "uint256",
          "name": "",
          "type": "uint256"
        }
      ],
      "stateMutability": "view",
      "type": "function"
    },
    {
      "inputs": [
        {
          "internalType": "address",
          "name": "",
          "type": "address"
        }
      ],
      "name": "completedAddress",
      "outputs": [
        {
          "internalType": "bool",
          "name": "",
          "type": "bool"
        }
      ],
      "stateMutability": "view",
      "type": "function"
    },
    {
      "inputs": [],
      "name": "mission",
      "outputs": [
        {
          "internalType": "uint256",
          "name": "Id",
          "type": "uint256"
        },
        {
          "internalType": "string",
          "name": "urlMetadata",
          "type": "string"
        },
        {
          "internalType": "uint256",
          "name": "award",
          "type": "uint256"
        },
        {
          "internalType": "uint256",
          "name": "maxEntrant",
          "type": "uint256"
        },
        {
          "internalType": "address",
          "name": "persionInCharge",
          "type": "address"
        },
        {
          "internalType": "uint256",
          "name": "startTime",
          "type": "uint256"
        },
        {
          "internalType": "uint256",
          "name": "endTimeToRegister",
          "type": "uint256"
        },
        {
          "internalType": "uint256",
          "name": "endTime",
          "type": "uint256"
        },
        {
          "internalType": "uint256",
          "name": "endTimeToConfirm",
          "type": "uint256"
        }
      ],
      "stateMutability": "view",
      "type": "function"
    },
    {
      "inputs": [],
      "name": "owner",
      "outputs": [
        {
          "internalType": "address",
          "name": "",
          "type": "address"
        }
      ],
      "stateMutability": "view",
      "type": "function"
    },
    {
      "inputs": [
        {
          "internalType": "address",
          "name": "",
          "type": "address"
        }
      ],
      "name": "participantToTrue",
      "outputs": [
        {
          "internalType": "bool",
          "name": "",
          "type": "bool"
        }
      ],
      "stateMutability": "view",
      "type": "function"
    },
    {
      "inputs": [
        {
          "internalType": "uint256",
          "name": "",
          "type": "uint256"
        }
      ],
      "name": "participants",
      "outputs": [
        {
          "internalType": "address",
          "name": "",
          "type": "address"
        }
      ],
      "stateMutability": "view",
      "type": "function"
    },
    {
      "inputs": [],
      "name": "rewardDistributor",
      "outputs": [
        {
          "internalType": "contract IRewardDistributor",
          "name": "",
          "type": "address"
        }
      ],
      "stateMutability": "view",
      "type": "function"
    },
    {
      "inputs": [],
      "name": "status",
      "outputs": [
        {
          "internalType": "enum IMissionContract.Status",
          "name": "",
          "type": "uint8"
        }
      ],
      "stateMutability": "view",
      "type": "function"
    },
    {
      "inputs": [
        {
          "internalType": "uint256",
          "name": "_missionId",
          "type": "uint256"
        },
        {
          "internalType": "string",
          "name": "_urlMetadata",
          "type": "string"
        },
        {
          "internalType": "uint256",
          "name": "_award",
          "type": "uint256"
        },
        {
          "internalType": "uint256",
          "name": "_maxEntrant",
          "type": "uint256"
        },
        {
          "internalType": "address",
          "name": "_persionInCharge",
          "type": "address"
        },
        {
          "internalType": "uint256",
          "name": "_startTime",
          "type": "uint256"
        },
        {
          "internalType": "uint256",
          "name": "_endTimeToRegister",
          "type": "uint256"
        },
        {
          "internalType": "uint256",
          "name": "_endTime",
          "type": "uint256"
        },
        {
          "internalType": "uint256",
          "name": "_endTimeToConfirm",
          "type": "uint256"
        }
      ],
      "name": "setBasicForMission",
      "outputs": [],
      "stateMutability": "nonpayable",
      "type": "function"
    },
    {
      "inputs": [],
      "name": "start",
      "outputs": [],
      "stateMutability": "nonpayable",
      "type": "function"
    },
    {
      "inputs": [
        {
          "internalType": "address[]",
          "name": "_students",
          "type": "address[]"
        }
      ],
      "name": "addStudentToMission",
      "outputs": [],
      "stateMutability": "nonpayable",
      "type": "function"
    },
    {
      "inputs": [],
      "name": "register",
      "outputs": [],
      "stateMutability": "nonpayable",
      "type": "function"
    },
    {
      "inputs": [],
      "name": "cancelRegister",
      "outputs": [],
      "stateMutability": "nonpayable",
      "type": "function"
    },
    {
      "inputs": [
        {
          "internalType": "address[]",
          "name": "_student",
          "type": "address[]"
        }
      ],
      "name": "confirmCompletedAddress",
      "outputs": [],
      "stateMutability": "nonpayable",
      "type": "function"
    },
    {
      "inputs": [
        {
          "internalType": "address",
          "name": "_student",
          "type": "address"
        }
      ],
      "name": "unConfirmCompletedAddress",
      "outputs": [],
      "stateMutability": "nonpayable",
      "type": "function"
    },
    {
      "inputs": [],
      "name": "close",
      "outputs": [],
      "stateMutability": "nonpayable",
      "type": "function"
    },
    {
      "inputs": [],
      "name": "getParticipantList",
      "outputs": [
        {
          "internalType": "address[]",
          "name": "",
          "type": "address[]"
        }
      ],
      "stateMutability": "view",
      "type": "function"
    },
    {
      "inputs": [],
      "name": "getParticipantListCompleted",
      "outputs": [
        {
          "internalType": "address[]",
          "name": "",
          "type": "address[]"
        }
      ],
      "stateMutability": "view",
      "type": "function"
    }
  ],
  "bytecode": "0x60a06040526000600960006101000a81548160ff021916908360028111156200002d576200002c62000124565b5b02179055503480156200003f57600080fd5b50604051620030d1380380620030d18339818101604052810190620000659190620001bd565b8273ffffffffffffffffffffffffffffffffffffffff1660808173ffffffffffffffffffffffffffffffffffffffff168152505081600960016101000a81548173ffffffffffffffffffffffffffffffffffffffff021916908373ffffffffffffffffffffffffffffffffffffffff16021790555080600a60006101000a81548173ffffffffffffffffffffffffffffffffffffffff021916908373ffffffffffffffffffffffffffffffffffffffff16021790555050505062000219565b7f4e487b7100000000000000000000000000000000000000000000000000000000600052602160045260246000fd5b600080fd5b600073ffffffffffffffffffffffffffffffffffffffff82169050919050565b6000620001858262000158565b9050919050565b620001978162000178565b8114620001a357600080fd5b50565b600081519050620001b7816200018c565b92915050565b600080600060608486031215620001d957620001d862000153565b5b6000620001e986828701620001a6565b9350506020620001fc86828701620001a6565b92505060406200020f86828701620001a6565b9150509250925092565b608051612e876200024a6000396000818161063701528181610d8901528181610fec01526119920152612e876000f3fe608060405234801561001057600080fd5b506004361061012c5760003560e01c8063aa4936ce116100ad578063d16e57fe11610071578063d16e57fe146102df578063d6295bb1146102fb578063ec39670e14610317578063ed214fff14610347578063ee0433d0146103655761012c565b8063aa4936ce1461024b578063aa8c217c14610269578063acc2166a14610287578063b1319f41146102a5578063be9a6555146102d55761012c565b806349aa7033116100f457806349aa7033146101b95780636e88f230146101c35780638da5cb5b146101df578063a32fb342146101fd578063a7f44e0d1461022d5761012c565b806317701ee6146101315780631aa3a00814610157578063200d2ed21461016157806335c1d3491461017f57806343d726d6146101af575b600080fd5b610139610381565b60405161014e99989796959493929190612049565b60405180910390f35b61015f610465565b005b6101696105e3565b6040516101769190612154565b60405180910390f35b610199600480360381019061019491906121af565b6105f6565b6040516101a691906121dc565b60405180910390f35b6101b7610635565b005b6101c1610862565b005b6101dd60048036038101906101d89190612223565b610ad3565b005b6101e7610d87565b6040516101f491906121dc565b60405180910390f35b61021760048036038101906102129190612223565b610dab565b604051610224919061226b565b60405180910390f35b610235610dcb565b6040516102429190612344565b60405180910390f35b610253610f78565b60405161026091906123c5565b60405180910390f35b610271610f9e565b60405161027e91906123e0565b60405180910390f35b61028f610fa4565b60405161029c919061241c565b60405180910390f35b6102bf60048036038101906102ba9190612223565b610fca565b6040516102cc919061226b565b60405180910390f35b6102dd610fea565b005b6102f960048036038101906102f4919061249c565b61111b565b005b6103156004803603810190610310919061249c565b611443565b005b610331600480360381019061032c9190612223565b6117c3565b60405161033e919061226b565b60405180910390f35b61034f6117e3565b60405161035c9190612344565b60405180910390f35b61037f600480360381019061037a9190612619565b611990565b005b60008060000154908060010180546103989061272e565b80601f01602080910402602001604051908101604052809291908181526020018280546103c49061272e565b80156104115780601f106103e657610100808354040283529160200191610411565b820191906000526020600020905b8154815290600101906020018083116103f457829003601f168201915b5050505050908060020154908060030154908060040160009054906101000a900473ffffffffffffffffffffffffffffffffffffffff16908060050154908060060154908060070154908060080154905089565b600960019054906101000a900473ffffffffffffffffffffffffffffffffffffffff1673ffffffffffffffffffffffffffffffffffffffff166391d148547fc951d7098b66ba0b8b77265b6e9cf0e187d73125a42bcd0061b09a68be421810336040518363ffffffff1660e01b81526004016104e2929190612778565b602060405180830381865afa1580156104ff573d6000803e3d6000fd5b505050506040513d601f19601f8201168201806040525081019061052391906127cd565b610562576040517f08c379a000000000000000000000000000000000000000000000000000000000815260040161055990612846565b60405180910390fd5b60016002811115610576576105756120dd565b5b600960009054906101000a900460ff166002811115610598576105976120dd565b5b146105d8576040517f08c379a00000000000000000000000000000000000000000000000000000000081526004016105cf906128b2565b60405180910390fd5b6105e133611c4a565b565b600960009054906101000a900460ff1681565b600b818154811061060657600080fd5b906000526020600020016000915054906101000a900473ffffffffffffffffffffffffffffffffffffffff1681565b7f000000000000000000000000000000000000000000000000000000000000000073ffffffffffffffffffffffffffffffffffffffff163373ffffffffffffffffffffffffffffffffffffffff16146106c3576040517f08c379a00000000000000000000000000000000000000000000000000000000081526004016106ba9061291e565b60405180910390fd5b60006008015442116106d457600080fd5b6002600960006101000a81548160ff021916908360028111156106fa576106f96120dd565b5b02179055506000610709610dcb565b905060005b815181101561082757600073ffffffffffffffffffffffffffffffffffffffff168282815181106107425761074161293e565b5b602002602001015173ffffffffffffffffffffffffffffffffffffffff161461081457600a60009054906101000a900473ffffffffffffffffffffffffffffffffffffffff1673ffffffffffffffffffffffffffffffffffffffff16631ec8bb8c8383815181106107b6576107b561293e565b5b60200260200101516000600201546040518363ffffffff1660e01b81526004016107e192919061296d565b600060405180830381600087803b1580156107fb57600080fd5b505af115801561080f573d6000803e3d6000fd5b505050505b808061081f906129c5565b91505061070e565b507fbf67515a38ee520223d32c1266d52101c30d936ed1f3e436c8caeb0a43cb06bf4260405161085791906123e0565b60405180910390a150565b600960019054906101000a900473ffffffffffffffffffffffffffffffffffffffff1673ffffffffffffffffffffffffffffffffffffffff166391d148547fc951d7098b66ba0b8b77265b6e9cf0e187d73125a42bcd0061b09a68be421810336040518363ffffffff1660e01b81526004016108df929190612778565b602060405180830381865afa1580156108fc573d6000803e3d6000fd5b505050506040513d601f19601f8201168201806040525081019061092091906127cd565b61095f576040517f08c379a000000000000000000000000000000000000000000000000000000000815260040161095690612846565b60405180910390fd5b60016002811115610973576109726120dd565b5b600960009054906101000a900460ff166002811115610995576109946120dd565b5b146109d5576040517f08c379a00000000000000000000000000000000000000000000000000000000081526004016109cc906128b2565b60405180910390fd5b600e60003373ffffffffffffffffffffffffffffffffffffffff1673ffffffffffffffffffffffffffffffffffffffff16815260200190815260200160002060009054906101000a900460ff16610a61576040517f08c379a0000000000000000000000000000000000000000000000000000000008152600401610a5890612a59565b60405180910390fd5b600c6000815480929190610a7490612a79565b91905055506000600e60003373ffffffffffffffffffffffffffffffffffffffff1673ffffffffffffffffffffffffffffffffffffffff16815260200190815260200160002060006101000a81548160ff021916908315150217905550565b600960019054906101000a900473ffffffffffffffffffffffffffffffffffffffff1673ffffffffffffffffffffffffffffffffffffffff166391d148547fb39b9469ac3ddf8d58f06201f7e17350a277b429ed2a39727bf2f3a5165dba1a336040518363ffffffff1660e01b8152600401610b50929190612778565b602060405180830381865afa158015610b6d573d6000803e3d6000fd5b505050506040513d601f19601f82011682018060405250810190610b9191906127cd565b610bd0576040517f08c379a0000000000000000000000000000000000000000000000000000000008152600401610bc790612aee565b60405180910390fd5b60016002811115610be457610be36120dd565b5b600960009054906101000a900460ff166002811115610c0657610c056120dd565b5b14610c46576040517f08c379a0000000000000000000000000000000000000000000000000000000008152600401610c3d906128b2565b60405180910390fd5b60006007015442118015610c5e575060006008015442105b610c6757600080fd5b600f60008273ffffffffffffffffffffffffffffffffffffffff1673ffffffffffffffffffffffffffffffffffffffff16815260200190815260200160002060009054906101000a900460ff16610cf3576040517f08c379a0000000000000000000000000000000000000000000000000000000008152600401610cea90612a59565b60405180910390fd5b6000600f60008373ffffffffffffffffffffffffffffffffffffffff1673ffffffffffffffffffffffffffffffffffffffff16815260200190815260200160002060006101000a81548160ff0219169083151502179055507ffe786ec358465053564cb2b843230fd06c070174c46fbc3786d85d894ff392108142604051610d7c92919061296d565b60405180910390a150565b7f000000000000000000000000000000000000000000000000000000000000000081565b600f6020528060005260406000206000915054906101000a900460ff1681565b60606000600c5467ffffffffffffffff811115610deb57610dea6124ee565b5b604051908082528060200260200182016040528015610e195781602001602082028036833780820191505090505b509050600080600090505b600b80549050811015610f6f57600f6000600b8381548110610e4957610e4861293e565b5b9060005260206000200160009054906101000a900473ffffffffffffffffffffffffffffffffffffffff1673ffffffffffffffffffffffffffffffffffffffff1673ffffffffffffffffffffffffffffffffffffffff16815260200190815260200160002060009054906101000a900460ff1615610f5c57600b8181548110610ed557610ed461293e565b5b9060005260206000200160009054906101000a900473ffffffffffffffffffffffffffffffffffffffff16838381518110610f1357610f1261293e565b5b602002602001019073ffffffffffffffffffffffffffffffffffffffff16908173ffffffffffffffffffffffffffffffffffffffff16815250508180610f58906129c5565b9250505b8080610f67906129c5565b915050610e24565b50819250505090565b600960019054906101000a900473ffffffffffffffffffffffffffffffffffffffff1681565b600c5481565b600a60009054906101000a900473ffffffffffffffffffffffffffffffffffffffff1681565b600e6020528060005260406000206000915054906101000a900460ff1681565b7f000000000000000000000000000000000000000000000000000000000000000073ffffffffffffffffffffffffffffffffffffffff163373ffffffffffffffffffffffffffffffffffffffff1614611078576040517f08c379a000000000000000000000000000000000000000000000000000000000815260040161106f9061291e565b60405180910390fd5b6000600281111561108c5761108b6120dd565b5b600960009054906101000a900460ff1660028111156110ae576110ad6120dd565b5b146110ee576040517f08c379a00000000000000000000000000000000000000000000000000000000081526004016110e590612b5a565b60405180910390fd5b6001600960006101000a81548160ff02191690836002811115611114576111136120dd565b5b0217905550565b600960019054906101000a900473ffffffffffffffffffffffffffffffffffffffff1673ffffffffffffffffffffffffffffffffffffffff166391d148547fb39b9469ac3ddf8d58f06201f7e17350a277b429ed2a39727bf2f3a5165dba1a336040518363ffffffff1660e01b8152600401611198929190612778565b602060405180830381865afa1580156111b5573d6000803e3d6000fd5b505050506040513d601f19601f820116820180604052508101906111d991906127cd565b611218576040517f08c379a000000000000000000000000000000000000000000000000000000000815260040161120f90612aee565b60405180910390fd5b6001600281111561122c5761122b6120dd565b5b600960009054906101000a900460ff16600281111561124e5761124d6120dd565b5b1461128e576040517f08c379a0000000000000000000000000000000000000000000000000000000008152600401611285906128b2565b60405180910390fd5b600060070154421180156112a6575060006008015442105b6112af57600080fd5b60005b8282905081101561140257600e60008484848181106112d4576112d361293e565b5b90506020020160208101906112e99190612223565b73ffffffffffffffffffffffffffffffffffffffff1673ffffffffffffffffffffffffffffffffffffffff16815260200190815260200160002060009054906101000a900460ff16611370576040517f08c379a000000000000000000000000000000000000000000000000000000000815260040161136790612a59565b60405180910390fd5b6001600f60008585858181106113895761138861293e565b5b905060200201602081019061139e9190612223565b73ffffffffffffffffffffffffffffffffffffffff1673ffffffffffffffffffffffffffffffffffffffff16815260200190815260200160002060006101000a81548160ff02191690831515021790555080806113fa906129c5565b9150506112b2565b507f698dd5b92696456649e8994759ccfe7076b1ebe9096ecb083211d8bfe81638428282905042604051611437929190612b7a565b60405180910390a15050565b600960019054906101000a900473ffffffffffffffffffffffffffffffffffffffff1673ffffffffffffffffffffffffffffffffffffffff166391d148547fb39b9469ac3ddf8d58f06201f7e17350a277b429ed2a39727bf2f3a5165dba1a336040518363ffffffff1660e01b81526004016114c0929190612778565b602060405180830381865afa1580156114dd573d6000803e3d6000fd5b505050506040513d601f19601f8201168201806040525081019061150191906127cd565b611540576040517f08c379a000000000000000000000000000000000000000000000000000000000815260040161153790612aee565b60405180910390fd5b60016002811115611554576115536120dd565b5b600960009054906101000a900460ff166002811115611576576115756120dd565b5b146115b6576040517f08c379a00000000000000000000000000000000000000000000000000000000081526004016115ad906128b2565b60405180910390fd5b600060040160009054906101000a900473ffffffffffffffffffffffffffffffffffffffff1673ffffffffffffffffffffffffffffffffffffffff163373ffffffffffffffffffffffffffffffffffffffff1614611649576040517f08c379a000000000000000000000000000000000000000000000000000000000815260040161164090612bef565b60405180910390fd5b60005b828290508110156117be57600960019054906101000a900473ffffffffffffffffffffffffffffffffffffffff1673ffffffffffffffffffffffffffffffffffffffff166391d148547fc951d7098b66ba0b8b77265b6e9cf0e187d73125a42bcd0061b09a68be4218108585858181106116c9576116c861293e565b5b90506020020160208101906116de9190612223565b6040518363ffffffff1660e01b81526004016116fb929190612778565b602060405180830381865afa158015611718573d6000803e3d6000fd5b505050506040513d601f19601f8201168201806040525081019061173c91906127cd565b61177b576040517f08c379a000000000000000000000000000000000000000000000000000000000815260040161177290612c5b565b60405180910390fd5b6117ab8383838181106117915761179061293e565b5b90506020020160208101906117a69190612223565b611c4a565b80806117b6906129c5565b91505061164c565b505050565b600d6020528060005260406000206000915054906101000a900460ff1681565b60606000600c5467ffffffffffffffff811115611803576118026124ee565b5b6040519080825280602002602001820160405280156118315781602001602082028036833780820191505090505b509050600080600090505b600b8054905081101561198757600e6000600b83815481106118615761186061293e565b5b9060005260206000200160009054906101000a900473ffffffffffffffffffffffffffffffffffffffff1673ffffffffffffffffffffffffffffffffffffffff1673ffffffffffffffffffffffffffffffffffffffff16815260200190815260200160002060009054906101000a900460ff161561197457600b81815481106118ed576118ec61293e565b5b9060005260206000200160009054906101000a900473ffffffffffffffffffffffffffffffffffffffff1683838151811061192b5761192a61293e565b5b602002602001019073ffffffffffffffffffffffffffffffffffffffff16908173ffffffffffffffffffffffffffffffffffffffff16815250508180611970906129c5565b9250505b808061197f906129c5565b91505061183c565b50819250505090565b7f000000000000000000000000000000000000000000000000000000000000000073ffffffffffffffffffffffffffffffffffffffff163373ffffffffffffffffffffffffffffffffffffffff1614611a1e576040517f08c379a0000000000000000000000000000000000000000000000000000000008152600401611a159061291e565b60405180910390fd5b60006002811115611a3257611a316120dd565b5b600960009054906101000a900460ff166002811115611a5457611a536120dd565b5b14611a94576040517f08c379a0000000000000000000000000000000000000000000000000000000008152600401611a8b90612b5a565b60405180910390fd5b60008711611ad7576040517f08c379a0000000000000000000000000000000000000000000000000000000008152600401611ace90612ced565b60405180910390fd5b8342108015611ae557508284105b8015611af057508183105b8015611afb57508082105b611b3a576040517f08c379a0000000000000000000000000000000000000000000000000000000008152600401611b3190612d59565b60405180910390fd5b6040518061012001604052808a81526020018981526020018881526020018781526020018673ffffffffffffffffffffffffffffffffffffffff1681526020018581526020018481526020018381526020018281525060008082015181600001556020820151816001019080519060200190611bb7929190611eb3565b50604082015181600201556060820151816003015560808201518160040160006101000a81548173ffffffffffffffffffffffffffffffffffffffff021916908373ffffffffffffffffffffffffffffffffffffffff16021790555060a0820151816005015560c0820151816006015560e082015181600701556101008201518160080155905050505050505050505050565b600060060154421115611c92576040517f08c379a0000000000000000000000000000000000000000000000000000000008152600401611c8990612dc5565b60405180910390fd5b600e60008273ffffffffffffffffffffffffffffffffffffffff1673ffffffffffffffffffffffffffffffffffffffff16815260200190815260200160002060009054906101000a900460ff1615611d1f576040517f08c379a0000000000000000000000000000000000000000000000000000000008152600401611d1690612e31565b60405180910390fd5b600c6000815480929190611d32906129c5565b9190505550600d60008273ffffffffffffffffffffffffffffffffffffffff1673ffffffffffffffffffffffffffffffffffffffff16815260200190815260200160002060009054906101000a900460ff16611dec57600b819080600181540180825580915050600190039060005260206000200160009091909190916101000a81548173ffffffffffffffffffffffffffffffffffffffff021916908373ffffffffffffffffffffffffffffffffffffffff1602179055505b6001600d60008373ffffffffffffffffffffffffffffffffffffffff1673ffffffffffffffffffffffffffffffffffffffff16815260200190815260200160002060006101000a81548160ff0219169083151502179055506001600e60008373ffffffffffffffffffffffffffffffffffffffff1673ffffffffffffffffffffffffffffffffffffffff16815260200190815260200160002060006101000a81548160ff021916908315150217905550600060030154600c541115611eb057600080fd5b50565b828054611ebf9061272e565b90600052602060002090601f016020900481019282611ee15760008555611f28565b82601f10611efa57805160ff1916838001178555611f28565b82800160010185558215611f28579182015b82811115611f27578251825591602001919060010190611f0c565b5b509050611f359190611f39565b5090565b5b80821115611f52576000816000905550600101611f3a565b5090565b6000819050919050565b611f6981611f56565b82525050565b600081519050919050565b600082825260208201905092915050565b60005b83811015611fa9578082015181840152602081019050611f8e565b83811115611fb8576000848401525b50505050565b6000601f19601f8301169050919050565b6000611fda82611f6f565b611fe48185611f7a565b9350611ff4818560208601611f8b565b611ffd81611fbe565b840191505092915050565b600073ffffffffffffffffffffffffffffffffffffffff82169050919050565b600061203382612008565b9050919050565b61204381612028565b82525050565b60006101208201905061205f600083018c611f60565b8181036020830152612071818b611fcf565b9050612080604083018a611f60565b61208d6060830189611f60565b61209a608083018861203a565b6120a760a0830187611f60565b6120b460c0830186611f60565b6120c160e0830185611f60565b6120cf610100830184611f60565b9a9950505050505050505050565b7f4e487b7100000000000000000000000000000000000000000000000000000000600052602160045260246000fd5b6003811061211d5761211c6120dd565b5b50565b600081905061212e8261210c565b919050565b600061213e82612120565b9050919050565b61214e81612133565b82525050565b60006020820190506121696000830184612145565b92915050565b6000604051905090565b600080fd5b600080fd5b61218c81611f56565b811461219757600080fd5b50565b6000813590506121a981612183565b92915050565b6000602082840312156121c5576121c4612179565b5b60006121d38482850161219a565b91505092915050565b60006020820190506121f1600083018461203a565b92915050565b61220081612028565b811461220b57600080fd5b50565b60008135905061221d816121f7565b92915050565b60006020828403121561223957612238612179565b5b60006122478482850161220e565b91505092915050565b60008115159050919050565b61226581612250565b82525050565b6000602082019050612280600083018461225c565b92915050565b600081519050919050565b600082825260208201905092915050565b6000819050602082019050919050565b6122bb81612028565b82525050565b60006122cd83836122b2565b60208301905092915050565b6000602082019050919050565b60006122f182612286565b6122fb8185612291565b9350612306836122a2565b8060005b8381101561233757815161231e88826122c1565b9750612329836122d9565b92505060018101905061230a565b5085935050505092915050565b6000602082019050818103600083015261235e81846122e6565b905092915050565b6000819050919050565b600061238b61238661238184612008565b612366565b612008565b9050919050565b600061239d82612370565b9050919050565b60006123af82612392565b9050919050565b6123bf816123a4565b82525050565b60006020820190506123da60008301846123b6565b92915050565b60006020820190506123f56000830184611f60565b92915050565b600061240682612392565b9050919050565b612416816123fb565b82525050565b6000602082019050612431600083018461240d565b92915050565b600080fd5b600080fd5b600080fd5b60008083601f84011261245c5761245b612437565b5b8235905067ffffffffffffffff8111156124795761247861243c565b5b60208301915083602082028301111561249557612494612441565b5b9250929050565b600080602083850312156124b3576124b2612179565b5b600083013567ffffffffffffffff8111156124d1576124d061217e565b5b6124dd85828601612446565b92509250509250929050565b600080fd5b7f4e487b7100000000000000000000000000000000000000000000000000000000600052604160045260246000fd5b61252682611fbe565b810181811067ffffffffffffffff82111715612545576125446124ee565b5b80604052505050565b600061255861216f565b9050612564828261251d565b919050565b600067ffffffffffffffff821115612584576125836124ee565b5b61258d82611fbe565b9050602081019050919050565b82818337600083830152505050565b60006125bc6125b784612569565b61254e565b9050828152602081018484840111156125d8576125d76124e9565b5b6125e384828561259a565b509392505050565b600082601f830112612600576125ff612437565b5b81356126108482602086016125a9565b91505092915050565b60008060008060008060008060006101208a8c03121561263c5761263b612179565b5b600061264a8c828d0161219a565b99505060208a013567ffffffffffffffff81111561266b5761266a61217e565b5b6126778c828d016125eb565b98505060406126888c828d0161219a565b97505060606126998c828d0161219a565b96505060806126aa8c828d0161220e565b95505060a06126bb8c828d0161219a565b94505060c06126cc8c828d0161219a565b93505060e06126dd8c828d0161219a565b9250506101006126ef8c828d0161219a565b9150509295985092959850929598565b7f4e487b7100000000000000000000000000000000000000000000000000000000600052602260045260246000fd5b6000600282049050600182168061274657607f821691505b602082108103612759576127586126ff565b5b50919050565b6000819050919050565b6127728161275f565b82525050565b600060408201905061278d6000830185612769565b61279a602083018461203a565b9392505050565b6127aa81612250565b81146127b557600080fd5b50565b6000815190506127c7816127a1565b92915050565b6000602082840312156127e3576127e2612179565b5b60006127f1848285016127b8565b91505092915050565b7f4d433a204f6e6c792053747564656e7400000000000000000000000000000000600082015250565b6000612830601083611f7a565b915061283b826127fa565b602082019050919050565b6000602082019050818103600083015261285f81612823565b9050919050565b7f4d433a204f6e6c79204f70656e00000000000000000000000000000000000000600082015250565b600061289c600d83611f7a565b91506128a782612866565b602082019050919050565b600060208201905081810360008301526128cb8161288f565b9050919050565b7f4f6e6c79206f776e657200000000000000000000000000000000000000000000600082015250565b6000612908600a83611f7a565b9150612913826128d2565b602082019050919050565b60006020820190508181036000830152612937816128fb565b9050919050565b7f4e487b7100000000000000000000000000000000000000000000000000000000600052603260045260246000fd5b6000604082019050612982600083018561203a565b61298f6020830184611f60565b9392505050565b7f4e487b7100000000000000000000000000000000000000000000000000000000600052601160045260246000fd5b60006129d082611f56565b91507fffffffffffffffffffffffffffffffffffffffffffffffffffffffffffffffff8203612a0257612a01612996565b5b600182019050919050565b7f4d533a2063616e63656c206572726f7200000000000000000000000000000000600082015250565b6000612a43601083611f7a565b9150612a4e82612a0d565b602082019050919050565b60006020820190508181036000830152612a7281612a36565b9050919050565b6000612a8482611f56565b915060008203612a9757612a96612996565b5b600182039050919050565b7f4d433a204f6e6c79204c65637475726572000000000000000000000000000000600082015250565b6000612ad8601183611f7a565b9150612ae382612aa2565b602082019050919050565b60006020820190508181036000830152612b0781612acb565b9050919050565b7f4d433a204f6e6c79204c6f636b00000000000000000000000000000000000000600082015250565b6000612b44600d83611f7a565b9150612b4f82612b0e565b602082019050919050565b60006020820190508181036000830152612b7381612b37565b9050919050565b6000604082019050612b8f6000830185611f60565b612b9c6020830184611f60565b9392505050565b7f4d433a204f6e6c792074686520706572736f6e20696e20636861726765000000600082015250565b6000612bd9601d83611f7a565b9150612be482612ba3565b602082019050919050565b60006020820190508181036000830152612c0881612bcc565b9050919050565b7f53686f756c64206f6e6c79206164642073747564656e74000000000000000000600082015250565b6000612c45601783611f7a565b9150612c5082612c0f565b602082019050919050565b60006020820190508181036000830152612c7481612c38565b9050919050565b7f4d433a2041776172642073686f756c642067726561746572207468616e205a6560008201527f726f000000000000000000000000000000000000000000000000000000000000602082015250565b6000612cd7602283611f7a565b9150612ce282612c7b565b604082019050919050565b60006020820190508181036000830152612d0681612cca565b9050919050565b7f4d433a2054696d6520697320696e76616c696400000000000000000000000000600082015250565b6000612d43601383611f7a565b9150612d4e82612d0d565b602082019050919050565b60006020820190508181036000830152612d7281612d36565b9050919050565b7f457870697265642074696d6520746f2072656769737465720000000000000000600082015250565b6000612daf601883611f7a565b9150612dba82612d79565b602082019050919050565b60006020820190508181036000830152612dde81612da2565b9050919050565b7f4d533a207265676973746572206572726f720000000000000000000000000000600082015250565b6000612e1b601283611f7a565b9150612e2682612de5565b602082019050919050565b60006020820190508181036000830152612e4a81612e0e565b905091905056fea2646970667358221220b91178d2ac10d8efe8739e36206a95b86f0117bab46cefdfeb6821b877d47a0564736f6c634300080d0033",
  "immutableReferences": {
    "6432": [
      {
        "length": 32,
        "start": 1591
      },
      {
        "length": 32,
        "start": 3465
      },
      {
        "length": 32,
        "start": 4076
      },
      {
        "length": 32,
        "start": 6546
      }
    ]
  },
  "source": "//SPDX-License-Identifier: UNLICENSED\r\npragma solidity >=0.8.0;\r\n\r\nimport \"./interfaces/IMissionContract.sol\";\r\nimport \"./interfaces/IAccessControl.sol\";\r\nimport \"./interfaces/IRewardDistributor.sol\";\r\n\r\ncontract MissionContract is IMissionContract {\r\n    using SafeERC20 for IERC20;\r\n    address public immutable owner;\r\n    Mission public mission;\r\n    Status public status = Status.Lock;\r\n\r\n    IAccessControl public accessControll;\r\n    IRewardDistributor public rewardDistributor;\r\n\r\n    address[] public participants;\r\n    uint256 public amount;\r\n    mapping(address => bool) public addressIsExist;\r\n    mapping(address => bool) public participantToTrue;\r\n    mapping(address => bool) public completedAddress;\r\n\r\n    modifier onlyLock() {\r\n        require(status == Status.Lock, \"MC: Only Lock\");\r\n        _;\r\n    }\r\n\r\n    modifier onlyOpen() {\r\n        require(status == Status.Open, \"MC: Only Open\");\r\n        _;\r\n    }\r\n\r\n    modifier onlyOwner() {\r\n        require(msg.sender == owner, \"Only owner\");\r\n        _;\r\n    }\r\n\r\n    modifier onlyRoleLecturer() {\r\n        require(\r\n            accessControll.hasRole(keccak256(\"LECTURER\"), msg.sender),\r\n            \"MC: Only Lecturer\"\r\n        );\r\n        _;\r\n    }\r\n\r\n    modifier onlyRoleStudent() {\r\n        require(\r\n            accessControll.hasRole(keccak256(\"STUDENT\"), msg.sender),\r\n            \"MC: Only Student\"\r\n        );\r\n        _;\r\n    }\r\n\r\n    constructor(\r\n        address _owner,\r\n        address _accessControll,\r\n        address _rewardDistributor\r\n    ) {\r\n        owner = _owner;\r\n        accessControll = IAccessControl(_accessControll);\r\n        rewardDistributor = IRewardDistributor(_rewardDistributor);\r\n    }\r\n\r\n    function setBasicForMission(\r\n        uint256 _missionId,\r\n        string memory _urlMetadata,\r\n        uint256 _award,\r\n        uint256 _maxEntrant,\r\n        address _persionInCharge,\r\n        uint256 _startTime,\r\n        uint256 _endTimeToRegister,\r\n        uint256 _endTime,\r\n        uint256 _endTimeToConfirm\r\n    ) external override onlyOwner onlyLock {\r\n        require(_award > 0, \"MC: Award should greater than Zero\");\r\n        require(\r\n            block.timestamp < _startTime &&\r\n                _startTime < _endTimeToRegister &&\r\n                _endTimeToRegister < _endTime &&\r\n                _endTime < _endTimeToConfirm,\r\n            \"MC: Time is invalid\"\r\n        );\r\n\r\n        mission = Mission(\r\n            _missionId,\r\n            _urlMetadata,\r\n            _award,\r\n            _maxEntrant,\r\n            _persionInCharge,\r\n            _startTime,\r\n            _endTimeToRegister,\r\n            _endTime,\r\n            _endTimeToConfirm\r\n        );\r\n    }\r\n\r\n    function start() external override onlyOwner onlyLock {\r\n        status = Status.Open;\r\n    }\r\n\r\n    function addStudentToMission(address[] calldata _students)\r\n        external\r\n        override\r\n        onlyRoleLecturer\r\n        onlyOpen\r\n    {\r\n        require(\r\n            msg.sender == mission.persionInCharge,\r\n            \"MC: Only the person in charge\"\r\n        );\r\n        for (uint256 i = 0; i < _students.length; i++) {\r\n            require(\r\n                accessControll.hasRole(keccak256(\"STUDENT\"), _students[i]),\r\n                \"Should only add student\"\r\n            );\r\n            _register(_students[i]);\r\n        }\r\n    }\r\n\r\n    function register() external override onlyRoleStudent onlyOpen {\r\n        _register(msg.sender);\r\n    }\r\n\r\n    function _register(address _student) private {\r\n        require(\r\n            block.timestamp <= mission.endTimeToRegister,\r\n            \"Expired time to register\"\r\n        );\r\n        require(!participantToTrue[_student], \"MS: register error\");\r\n        amount++;\r\n        if (!addressIsExist[_student]) {\r\n            participants.push(_student);\r\n        }\r\n        addressIsExist[_student] = true;\r\n        participantToTrue[_student] = true;\r\n        require(amount <= mission.maxEntrant);\r\n    }\r\n\r\n    function cancelRegister() external override onlyRoleStudent onlyOpen {\r\n        require(participantToTrue[msg.sender], \"MS: cancel error\");\r\n        amount--;\r\n        participantToTrue[msg.sender] = false;\r\n    }\r\n\r\n    function confirmCompletedAddress(address[] calldata _student)\r\n        external\r\n        override\r\n        onlyRoleLecturer\r\n        onlyOpen\r\n    {\r\n        require(\r\n            block.timestamp > mission.endTime &&\r\n                block.timestamp < mission.endTimeToConfirm\r\n        );\r\n        for (uint256 i = 0; i < _student.length; i++) {\r\n            require(participantToTrue[_student[i]], \"MS: cancel error\");\r\n            completedAddress[_student[i]] = true;\r\n        }\r\n        emit Confirm(_student.length, block.timestamp);\r\n    }\r\n\r\n    function unConfirmCompletedAddress(address _student)\r\n        external\r\n        override\r\n        onlyRoleLecturer\r\n        onlyOpen\r\n    {\r\n        require(\r\n            block.timestamp > mission.endTime &&\r\n                block.timestamp < mission.endTimeToConfirm\r\n        );\r\n\r\n        require(completedAddress[_student], \"MS: cancel error\");\r\n        completedAddress[_student] = false;\r\n        emit UnConfirm(_student, block.timestamp);\r\n    }\r\n\r\n    function close() external override onlyOwner {\r\n        require(block.timestamp > mission.endTimeToConfirm);\r\n        status = Status.Close;\r\n        address[] memory student = getParticipantListCompleted();\r\n        for (uint256 i = 0; i < student.length; i++) {\r\n            if (student[i] != address(0))\r\n                rewardDistributor.distributeReward(student[i], mission.award);\r\n        }\r\n        emit Close(block.timestamp);\r\n    }\r\n\r\n    function getParticipantList() public view returns (address[] memory) {\r\n        address[] memory student = new address[](amount);\r\n        uint256 index;\r\n        for (uint256 i = 0; i < participants.length; i++) {\r\n            if (participantToTrue[participants[i]]) {\r\n                student[index] = participants[i];\r\n                index++;\r\n            }\r\n        }\r\n        return student;\r\n    }\r\n\r\n    function getParticipantListCompleted()\r\n        public\r\n        view\r\n        override\r\n        returns (address[] memory)\r\n    {\r\n        address[] memory student = new address[](amount);\r\n        uint256 index;\r\n        for (uint256 i = 0; i < participants.length; i++) {\r\n            if (completedAddress[participants[i]]) {\r\n                student[index] = participants[i];\r\n                index++;\r\n            }\r\n        }\r\n        return student;\r\n    }\r\n}\r\n",
  "sourcePath": "E:\\KLTN\\KLTN\\KLTN-contracts\\contracts\\studentmanager\\MissionContract.sol",
  "compiler": {
    "name": "solc",
    "version": "0.8.13+commit.abaa5c0e.Emscripten.clang"
  },
  "schemaVersion": "3.4.3",
  "updatedAt": "2022-05-14T13:42:58.436Z",
  "devdoc": {
    "kind": "dev",
    "methods": {},
    "version": 1
  },
  "userdoc": {
    "kind": "user",
    "methods": {},
    "version": 1
  }
}