{
  "contractName": "MissionContract",
  "abi": [
    {
      "inputs": [
        {
          "internalType": "address",
          "name": "_owner",
          "type": "address"
        },
        {
          "internalType": "address",
          "name": "_accessControll",
          "type": "address"
        },
        {
          "internalType": "address",
          "name": "_rewardDistributor",
          "type": "address"
        }
      ],
      "stateMutability": "nonpayable",
      "type": "constructor"
    },
    {
      "anonymous": false,
      "inputs": [
        {
          "indexed": false,
          "internalType": "address",
          "name": "_student",
          "type": "address"
        }
      ],
      "name": "CancelRegister",
      "type": "event"
    },
    {
      "anonymous": false,
      "inputs": [
        {
          "indexed": false,
          "internalType": "uint256",
          "name": "timestamp",
          "type": "uint256"
        }
      ],
      "name": "Close",
      "type": "event"
    },
    {
      "anonymous": false,
      "inputs": [
        {
          "indexed": false,
          "internalType": "uint256",
          "name": "studentsAmount",
          "type": "uint256"
        },
        {
          "indexed": false,
          "internalType": "uint256",
          "name": "timestamp",
          "type": "uint256"
        }
      ],
      "name": "Confirm",
      "type": "event"
    },
    {
      "anonymous": false,
      "inputs": [
        {
          "indexed": true,
          "internalType": "uint256",
          "name": "id",
          "type": "uint256"
        }
      ],
      "name": "CreatedNewMission",
      "type": "event"
    },
    {
      "anonymous": false,
      "inputs": [
        {
          "indexed": false,
          "internalType": "address",
          "name": "_student",
          "type": "address"
        }
      ],
      "name": "Register",
      "type": "event"
    },
    {
      "anonymous": false,
      "inputs": [
        {
          "indexed": false,
          "internalType": "uint256",
          "name": "studentsAmount",
          "type": "uint256"
        },
        {
          "indexed": false,
          "internalType": "uint256",
          "name": "timestamp",
          "type": "uint256"
        }
      ],
      "name": "UnConfirm",
      "type": "event"
    },
    {
      "inputs": [],
      "name": "accessControll",
      "outputs": [
        {
          "internalType": "contract IAccessControl",
          "name": "",
          "type": "address"
        }
      ],
      "stateMutability": "view",
      "type": "function"
    },
    {
      "inputs": [
        {
          "internalType": "address",
          "name": "",
          "type": "address"
        }
      ],
      "name": "addressIsExist",
      "outputs": [
        {
          "internalType": "bool",
          "name": "",
          "type": "bool"
        }
      ],
      "stateMutability": "view",
      "type": "function"
    },
    {
      "inputs": [],
      "name": "amount",
      "outputs": [
        {
          "internalType": "uint256",
          "name": "",
          "type": "uint256"
        }
      ],
      "stateMutability": "view",
      "type": "function"
    },
    {
      "inputs": [
        {
          "internalType": "address",
          "name": "",
          "type": "address"
        }
      ],
      "name": "completedAddress",
      "outputs": [
        {
          "internalType": "bool",
          "name": "",
          "type": "bool"
        }
      ],
      "stateMutability": "view",
      "type": "function"
    },
    {
      "inputs": [],
      "name": "mission",
      "outputs": [
        {
          "internalType": "string",
          "name": "Id",
          "type": "string"
        },
        {
          "internalType": "string",
          "name": "urlMetadata",
          "type": "string"
        },
        {
          "internalType": "uint256",
          "name": "award",
          "type": "uint256"
        },
        {
          "internalType": "uint256",
          "name": "maxEntrant",
          "type": "uint256"
        },
        {
          "internalType": "address",
          "name": "persionInCharge",
          "type": "address"
        },
        {
          "internalType": "uint256",
          "name": "startTime",
          "type": "uint256"
        },
        {
          "internalType": "uint256",
          "name": "endTimeToRegister",
          "type": "uint256"
        },
        {
          "internalType": "uint256",
          "name": "endTime",
          "type": "uint256"
        },
        {
          "internalType": "uint256",
          "name": "endTimeToConfirm",
          "type": "uint256"
        }
      ],
      "stateMutability": "view",
      "type": "function"
    },
    {
      "inputs": [],
      "name": "owner",
      "outputs": [
        {
          "internalType": "address",
          "name": "",
          "type": "address"
        }
      ],
      "stateMutability": "view",
      "type": "function"
    },
    {
      "inputs": [
        {
          "internalType": "address",
          "name": "",
          "type": "address"
        }
      ],
      "name": "participantToTrue",
      "outputs": [
        {
          "internalType": "bool",
          "name": "",
          "type": "bool"
        }
      ],
      "stateMutability": "view",
      "type": "function"
    },
    {
      "inputs": [
        {
          "internalType": "uint256",
          "name": "",
          "type": "uint256"
        }
      ],
      "name": "participants",
      "outputs": [
        {
          "internalType": "address",
          "name": "",
          "type": "address"
        }
      ],
      "stateMutability": "view",
      "type": "function"
    },
    {
      "inputs": [],
      "name": "rewardDistributor",
      "outputs": [
        {
          "internalType": "contract IRewardDistributor",
          "name": "",
          "type": "address"
        }
      ],
      "stateMutability": "view",
      "type": "function"
    },
    {
      "inputs": [],
      "name": "status",
      "outputs": [
        {
          "internalType": "enum IMissionContract.Status",
          "name": "",
          "type": "uint8"
        }
      ],
      "stateMutability": "view",
      "type": "function"
    },
    {
      "inputs": [
        {
          "internalType": "string",
          "name": "_missionId",
          "type": "string"
        },
        {
          "internalType": "string",
          "name": "_urlMetadata",
          "type": "string"
        },
        {
          "internalType": "uint256",
          "name": "_award",
          "type": "uint256"
        },
        {
          "internalType": "uint256",
          "name": "_maxEntrant",
          "type": "uint256"
        },
        {
          "internalType": "address",
          "name": "_persionInCharge",
          "type": "address"
        },
        {
          "internalType": "uint256",
          "name": "_startTime",
          "type": "uint256"
        },
        {
          "internalType": "uint256",
          "name": "_endTimeToRegister",
          "type": "uint256"
        },
        {
          "internalType": "uint256",
          "name": "_endTime",
          "type": "uint256"
        },
        {
          "internalType": "uint256",
          "name": "_endTimeToConfirm",
          "type": "uint256"
        }
      ],
      "name": "setBasicForMission",
      "outputs": [],
      "stateMutability": "nonpayable",
      "type": "function"
    },
    {
      "inputs": [],
      "name": "start",
      "outputs": [],
      "stateMutability": "nonpayable",
      "type": "function"
    },
    {
      "inputs": [],
      "name": "lock",
      "outputs": [],
      "stateMutability": "nonpayable",
      "type": "function"
    },
    {
      "inputs": [
        {
          "internalType": "address[]",
          "name": "_students",
          "type": "address[]"
        }
      ],
      "name": "addStudentToMission",
      "outputs": [],
      "stateMutability": "nonpayable",
      "type": "function"
    },
    {
      "inputs": [],
      "name": "register",
      "outputs": [],
      "stateMutability": "nonpayable",
      "type": "function"
    },
    {
      "inputs": [],
      "name": "cancelRegister",
      "outputs": [],
      "stateMutability": "nonpayable",
      "type": "function"
    },
    {
      "inputs": [
        {
          "internalType": "address[]",
          "name": "_students",
          "type": "address[]"
        }
      ],
      "name": "confirmCompletedAddress",
      "outputs": [],
      "stateMutability": "nonpayable",
      "type": "function"
    },
    {
      "inputs": [
        {
          "internalType": "address[]",
          "name": "_students",
          "type": "address[]"
        }
      ],
      "name": "unConfirmCompletedAddress",
      "outputs": [],
      "stateMutability": "nonpayable",
      "type": "function"
    },
    {
      "inputs": [],
      "name": "close",
      "outputs": [],
      "stateMutability": "nonpayable",
      "type": "function"
    },
    {
      "inputs": [],
      "name": "isReadyToClose",
      "outputs": [
        {
          "internalType": "bool",
          "name": "",
          "type": "bool"
        }
      ],
      "stateMutability": "view",
      "type": "function"
    },
    {
      "inputs": [],
      "name": "getParticipantList",
      "outputs": [
        {
          "internalType": "address[]",
          "name": "",
          "type": "address[]"
        }
      ],
      "stateMutability": "view",
      "type": "function"
    },
    {
      "inputs": [],
      "name": "getParticipantListCompleted",
      "outputs": [
        {
          "internalType": "address[]",
          "name": "",
          "type": "address[]"
        }
      ],
      "stateMutability": "view",
      "type": "function"
    }
  ],
  "bytecode": "0x60a06040526000600960006101000a81548160ff021916908360028111156200002d576200002c62000124565b5b02179055503480156200003f57600080fd5b506040516200354e3803806200354e8339818101604052810190620000659190620001bd565b8273ffffffffffffffffffffffffffffffffffffffff1660808173ffffffffffffffffffffffffffffffffffffffff168152505081600960016101000a81548173ffffffffffffffffffffffffffffffffffffffff021916908373ffffffffffffffffffffffffffffffffffffffff16021790555080600a60006101000a81548173ffffffffffffffffffffffffffffffffffffffff021916908373ffffffffffffffffffffffffffffffffffffffff16021790555050505062000219565b7f4e487b7100000000000000000000000000000000000000000000000000000000600052602160045260246000fd5b600080fd5b600073ffffffffffffffffffffffffffffffffffffffff82169050919050565b6000620001858262000158565b9050919050565b620001978162000178565b8114620001a357600080fd5b50565b600081519050620001b7816200018c565b92915050565b600080600060608486031215620001d957620001d862000153565b5b6000620001e986828701620001a6565b9350506020620001fc86828701620001a6565b92505060406200020f86828701620001a6565b9150509250925092565b6080516132fd62000251600039600081816106fd01528181610c4801528181610f9a015281816111fd0152611ecb01526132fd6000f3fe608060405234801561001057600080fd5b50600436106101425760003560e01c8063aa4936ce116100b8578063d16e57fe1161007c578063d16e57fe14610313578063d6295bb11461032f578063e0e3adcf1461034b578063ec39670e14610367578063ed214fff14610397578063f83d08ba146103b557610142565b8063aa4936ce1461027f578063aa8c217c1461029d578063acc2166a146102bb578063b1319f41146102d9578063be9a65551461030957610142565b806349aa70331161010a57806349aa7033146101cf57806371b26bd4146101d957806384713897146101f55780638da5cb5b14610213578063a32fb34214610231578063a7f44e0d1461026157610142565b806317701ee6146101475780631aa3a0081461016d578063200d2ed21461017757806335c1d3491461019557806343d726d6146101c5575b600080fd5b61014f6103bf565b60405161016499989796959493929190612430565b60405180910390f35b61017561052b565b005b61017f6106a9565b60405161018c9190612542565b60405180910390f35b6101af60048036038101906101aa919061259d565b6106bc565b6040516101bc91906125ca565b60405180910390f35b6101cd6106fb565b005b6101d761099e565b005b6101f360048036038101906101ee9190612746565b610c46565b005b6101fd610f13565b60405161020a9190612863565b60405180910390f35b61021b610f98565b60405161022891906125ca565b60405180910390f35b61024b6004803603810190610246919061287e565b610fbc565b6040516102589190612863565b60405180910390f35b610269610fdc565b6040516102769190612969565b60405180910390f35b610287611189565b60405161029491906129ea565b60405180910390f35b6102a56111af565b6040516102b29190612a05565b60405180910390f35b6102c36111b5565b6040516102d09190612a41565b60405180910390f35b6102f360048036038101906102ee919061287e565b6111db565b6040516103009190612863565b60405180910390f35b6103116111fb565b005b61032d60048036038101906103289190612abc565b61132c565b005b61034960048036038101906103449190612abc565b611654565b005b61036560048036038101906103609190612abc565b6119d4565b005b610381600480360381019061037c919061287e565b611cfc565b60405161038e9190612863565b60405180910390f35b61039f611d1c565b6040516103ac9190612969565b60405180910390f35b6103bd611ec9565b005b60008060000180546103d090612b38565b80601f01602080910402602001604051908101604052809291908181526020018280546103fc90612b38565b80156104495780601f1061041e57610100808354040283529160200191610449565b820191906000526020600020905b81548152906001019060200180831161042c57829003601f168201915b50505050509080600101805461045e90612b38565b80601f016020809104026020016040519081016040528092919081815260200182805461048a90612b38565b80156104d75780601f106104ac576101008083540402835291602001916104d7565b820191906000526020600020905b8154815290600101906020018083116104ba57829003601f168201915b5050505050908060020154908060030154908060040160009054906101000a900473ffffffffffffffffffffffffffffffffffffffff16908060050154908060060154908060070154908060080154905089565b600960019054906101000a900473ffffffffffffffffffffffffffffffffffffffff1673ffffffffffffffffffffffffffffffffffffffff166391d148547fc951d7098b66ba0b8b77265b6e9cf0e187d73125a42bcd0061b09a68be421810336040518363ffffffff1660e01b81526004016105a8929190612b82565b602060405180830381865afa1580156105c5573d6000803e3d6000fd5b505050506040513d601f19601f820116820180604052508101906105e99190612bd7565b610628576040517f08c379a000000000000000000000000000000000000000000000000000000000815260040161061f90612c50565b60405180910390fd5b6001600281111561063c5761063b6124cb565b5b600960009054906101000a900460ff16600281111561065e5761065d6124cb565b5b1461069e576040517f08c379a000000000000000000000000000000000000000000000000000000000815260040161069590612cbc565b60405180910390fd5b6106a733611ffa565b565b600960009054906101000a900460ff1681565b600b81815481106106cc57600080fd5b906000526020600020016000915054906101000a900473ffffffffffffffffffffffffffffffffffffffff1681565b7f000000000000000000000000000000000000000000000000000000000000000073ffffffffffffffffffffffffffffffffffffffff163373ffffffffffffffffffffffffffffffffffffffff1614610789576040517f08c379a000000000000000000000000000000000000000000000000000000000815260040161078090612d28565b60405180910390fd5b6001600281111561079d5761079c6124cb565b5b600960009054906101000a900460ff1660028111156107bf576107be6124cb565b5b146107ff576040517f08c379a00000000000000000000000000000000000000000000000000000000081526004016107f690612cbc565b60405180910390fd5b600060080154421161081057600080fd5b6002600960006101000a81548160ff02191690836002811115610836576108356124cb565b5b02179055506000610845610fdc565b905060005b815181101561096357600073ffffffffffffffffffffffffffffffffffffffff1682828151811061087e5761087d612d48565b5b602002602001015173ffffffffffffffffffffffffffffffffffffffff161461095057600a60009054906101000a900473ffffffffffffffffffffffffffffffffffffffff1673ffffffffffffffffffffffffffffffffffffffff16631ec8bb8c8383815181106108f2576108f1612d48565b5b60200260200101516000600201546040518363ffffffff1660e01b815260040161091d929190612d77565b600060405180830381600087803b15801561093757600080fd5b505af115801561094b573d6000803e3d6000fd5b505050505b808061095b90612dcf565b91505061084a565b507fbf67515a38ee520223d32c1266d52101c30d936ed1f3e436c8caeb0a43cb06bf426040516109939190612a05565b60405180910390a150565b600960019054906101000a900473ffffffffffffffffffffffffffffffffffffffff1673ffffffffffffffffffffffffffffffffffffffff166391d148547fc951d7098b66ba0b8b77265b6e9cf0e187d73125a42bcd0061b09a68be421810336040518363ffffffff1660e01b8152600401610a1b929190612b82565b602060405180830381865afa158015610a38573d6000803e3d6000fd5b505050506040513d601f19601f82011682018060405250810190610a5c9190612bd7565b610a9b576040517f08c379a0000000000000000000000000000000000000000000000000000000008152600401610a9290612c50565b60405180910390fd5b60016002811115610aaf57610aae6124cb565b5b600960009054906101000a900460ff166002811115610ad157610ad06124cb565b5b14610b11576040517f08c379a0000000000000000000000000000000000000000000000000000000008152600401610b0890612cbc565b60405180910390fd5b600e60003373ffffffffffffffffffffffffffffffffffffffff1673ffffffffffffffffffffffffffffffffffffffff16815260200190815260200160002060009054906101000a900460ff16610b9d576040517f08c379a0000000000000000000000000000000000000000000000000000000008152600401610b9490612e63565b60405180910390fd5b600c6000815480929190610bb090612e83565b91905055506000600e60003373ffffffffffffffffffffffffffffffffffffffff1673ffffffffffffffffffffffffffffffffffffffff16815260200190815260200160002060006101000a81548160ff0219169083151502179055507ff17af794e4e37f4197945e514e5342eecc58b67704516bbe3c41a0be1e8db06233604051610c3c91906125ca565b60405180910390a1565b7f000000000000000000000000000000000000000000000000000000000000000073ffffffffffffffffffffffffffffffffffffffff163373ffffffffffffffffffffffffffffffffffffffff1614610cd4576040517f08c379a0000000000000000000000000000000000000000000000000000000008152600401610ccb90612d28565b60405180910390fd5b60006002811115610ce857610ce76124cb565b5b600960009054906101000a900460ff166002811115610d0a57610d096124cb565b5b14610d4a576040517f08c379a0000000000000000000000000000000000000000000000000000000008152600401610d4190612ef8565b60405180910390fd5b60008711610d8d576040517f08c379a0000000000000000000000000000000000000000000000000000000008152600401610d8490612f8a565b60405180910390fd5b8342108015610d9b57508284105b8015610da657508183105b8015610db157508082105b610df0576040517f08c379a0000000000000000000000000000000000000000000000000000000008152600401610de790612ff6565b60405180910390fd5b6040518061012001604052808a81526020018981526020018881526020018781526020018673ffffffffffffffffffffffffffffffffffffffff16815260200185815260200184815260200183815260200182815250600080820151816000019080519060200190610e6392919061229a565b506020820151816001019080519060200190610e8092919061229a565b50604082015181600201556060820151816003015560808201518160040160006101000a81548173ffffffffffffffffffffffffffffffffffffffff021916908373ffffffffffffffffffffffffffffffffffffffff16021790555060a0820151816005015560c0820151816006015560e082015181600701556101008201518160080155905050505050505050505050565b600060016002811115610f2957610f286124cb565b5b600960009054906101000a900460ff166002811115610f4b57610f4a6124cb565b5b14610f8b576040517f08c379a0000000000000000000000000000000000000000000000000000000008152600401610f8290612cbc565b60405180910390fd5b6000600801544211905090565b7f000000000000000000000000000000000000000000000000000000000000000081565b600f6020528060005260406000206000915054906101000a900460ff1681565b60606000600c5467ffffffffffffffff811115610ffc57610ffb6125ef565b5b60405190808252806020026020018201604052801561102a5781602001602082028036833780820191505090505b509050600080600090505b600b8054905081101561118057600f6000600b838154811061105a57611059612d48565b5b9060005260206000200160009054906101000a900473ffffffffffffffffffffffffffffffffffffffff1673ffffffffffffffffffffffffffffffffffffffff1673ffffffffffffffffffffffffffffffffffffffff16815260200190815260200160002060009054906101000a900460ff161561116d57600b81815481106110e6576110e5612d48565b5b9060005260206000200160009054906101000a900473ffffffffffffffffffffffffffffffffffffffff1683838151811061112457611123612d48565b5b602002602001019073ffffffffffffffffffffffffffffffffffffffff16908173ffffffffffffffffffffffffffffffffffffffff1681525050818061116990612dcf565b9250505b808061117890612dcf565b915050611035565b50819250505090565b600960019054906101000a900473ffffffffffffffffffffffffffffffffffffffff1681565b600c5481565b600a60009054906101000a900473ffffffffffffffffffffffffffffffffffffffff1681565b600e6020528060005260406000206000915054906101000a900460ff1681565b7f000000000000000000000000000000000000000000000000000000000000000073ffffffffffffffffffffffffffffffffffffffff163373ffffffffffffffffffffffffffffffffffffffff1614611289576040517f08c379a000000000000000000000000000000000000000000000000000000000815260040161128090612d28565b60405180910390fd5b6000600281111561129d5761129c6124cb565b5b600960009054906101000a900460ff1660028111156112bf576112be6124cb565b5b146112ff576040517f08c379a00000000000000000000000000000000000000000000000000000000081526004016112f690612ef8565b60405180910390fd5b6001600960006101000a81548160ff02191690836002811115611325576113246124cb565b5b0217905550565b600960019054906101000a900473ffffffffffffffffffffffffffffffffffffffff1673ffffffffffffffffffffffffffffffffffffffff166391d148547fb39b9469ac3ddf8d58f06201f7e17350a277b429ed2a39727bf2f3a5165dba1a336040518363ffffffff1660e01b81526004016113a9929190612b82565b602060405180830381865afa1580156113c6573d6000803e3d6000fd5b505050506040513d601f19601f820116820180604052508101906113ea9190612bd7565b611429576040517f08c379a000000000000000000000000000000000000000000000000000000000815260040161142090613062565b60405180910390fd5b6001600281111561143d5761143c6124cb565b5b600960009054906101000a900460ff16600281111561145f5761145e6124cb565b5b1461149f576040517f08c379a000000000000000000000000000000000000000000000000000000000815260040161149690612cbc565b60405180910390fd5b600060070154421180156114b7575060006008015442105b6114c057600080fd5b60005b8282905081101561161357600e60008484848181106114e5576114e4612d48565b5b90506020020160208101906114fa919061287e565b73ffffffffffffffffffffffffffffffffffffffff1673ffffffffffffffffffffffffffffffffffffffff16815260200190815260200160002060009054906101000a900460ff16611581576040517f08c379a0000000000000000000000000000000000000000000000000000000008152600401611578906130ce565b60405180910390fd5b6001600f600085858581811061159a57611599612d48565b5b90506020020160208101906115af919061287e565b73ffffffffffffffffffffffffffffffffffffffff1673ffffffffffffffffffffffffffffffffffffffff16815260200190815260200160002060006101000a81548160ff021916908315150217905550808061160b90612dcf565b9150506114c3565b507f698dd5b92696456649e8994759ccfe7076b1ebe9096ecb083211d8bfe816384282829050426040516116489291906130ee565b60405180910390a15050565b600960019054906101000a900473ffffffffffffffffffffffffffffffffffffffff1673ffffffffffffffffffffffffffffffffffffffff166391d148547fb39b9469ac3ddf8d58f06201f7e17350a277b429ed2a39727bf2f3a5165dba1a336040518363ffffffff1660e01b81526004016116d1929190612b82565b602060405180830381865afa1580156116ee573d6000803e3d6000fd5b505050506040513d601f19601f820116820180604052508101906117129190612bd7565b611751576040517f08c379a000000000000000000000000000000000000000000000000000000000815260040161174890613062565b60405180910390fd5b60016002811115611765576117646124cb565b5b600960009054906101000a900460ff166002811115611787576117866124cb565b5b146117c7576040517f08c379a00000000000000000000000000000000000000000000000000000000081526004016117be90612cbc565b60405180910390fd5b600060040160009054906101000a900473ffffffffffffffffffffffffffffffffffffffff1673ffffffffffffffffffffffffffffffffffffffff163373ffffffffffffffffffffffffffffffffffffffff161461185a576040517f08c379a000000000000000000000000000000000000000000000000000000000815260040161185190613163565b60405180910390fd5b60005b828290508110156119cf57600960019054906101000a900473ffffffffffffffffffffffffffffffffffffffff1673ffffffffffffffffffffffffffffffffffffffff166391d148547fc951d7098b66ba0b8b77265b6e9cf0e187d73125a42bcd0061b09a68be4218108585858181106118da576118d9612d48565b5b90506020020160208101906118ef919061287e565b6040518363ffffffff1660e01b815260040161190c929190612b82565b602060405180830381865afa158015611929573d6000803e3d6000fd5b505050506040513d601f19601f8201168201806040525081019061194d9190612bd7565b61198c576040517f08c379a0000000000000000000000000000000000000000000000000000000008152600401611983906131cf565b60405180910390fd5b6119bc8383838181106119a2576119a1612d48565b5b90506020020160208101906119b7919061287e565b611ffa565b80806119c790612dcf565b91505061185d565b505050565b600960019054906101000a900473ffffffffffffffffffffffffffffffffffffffff1673ffffffffffffffffffffffffffffffffffffffff166391d148547fb39b9469ac3ddf8d58f06201f7e17350a277b429ed2a39727bf2f3a5165dba1a336040518363ffffffff1660e01b8152600401611a51929190612b82565b602060405180830381865afa158015611a6e573d6000803e3d6000fd5b505050506040513d601f19601f82011682018060405250810190611a929190612bd7565b611ad1576040517f08c379a0000000000000000000000000000000000000000000000000000000008152600401611ac890613062565b60405180910390fd5b60016002811115611ae557611ae46124cb565b5b600960009054906101000a900460ff166002811115611b0757611b066124cb565b5b14611b47576040517f08c379a0000000000000000000000000000000000000000000000000000000008152600401611b3e90612cbc565b60405180910390fd5b60006007015442118015611b5f575060006008015442105b611b6857600080fd5b60005b82829050811015611cbb57600f6000848484818110611b8d57611b8c612d48565b5b9050602002016020810190611ba2919061287e565b73ffffffffffffffffffffffffffffffffffffffff1673ffffffffffffffffffffffffffffffffffffffff16815260200190815260200160002060009054906101000a900460ff16611c29576040517f08c379a0000000000000000000000000000000000000000000000000000000008152600401611c20906130ce565b60405180910390fd5b6000600f6000858585818110611c4257611c41612d48565b5b9050602002016020810190611c57919061287e565b73ffffffffffffffffffffffffffffffffffffffff1673ffffffffffffffffffffffffffffffffffffffff16815260200190815260200160002060006101000a81548160ff0219169083151502179055508080611cb390612dcf565b915050611b6b565b507fc791d7751013e9f89337798e40ebe9dab990e5c7b8b37e845afdf06c219c57ad8282905042604051611cf09291906130ee565b60405180910390a15050565b600d6020528060005260406000206000915054906101000a900460ff1681565b60606000600c5467ffffffffffffffff811115611d3c57611d3b6125ef565b5b604051908082528060200260200182016040528015611d6a5781602001602082028036833780820191505090505b509050600080600090505b600b80549050811015611ec057600e6000600b8381548110611d9a57611d99612d48565b5b9060005260206000200160009054906101000a900473ffffffffffffffffffffffffffffffffffffffff1673ffffffffffffffffffffffffffffffffffffffff1673ffffffffffffffffffffffffffffffffffffffff16815260200190815260200160002060009054906101000a900460ff1615611ead57600b8181548110611e2657611e25612d48565b5b9060005260206000200160009054906101000a900473ffffffffffffffffffffffffffffffffffffffff16838381518110611e6457611e63612d48565b5b602002602001019073ffffffffffffffffffffffffffffffffffffffff16908173ffffffffffffffffffffffffffffffffffffffff16815250508180611ea990612dcf565b9250505b8080611eb890612dcf565b915050611d75565b50819250505090565b7f000000000000000000000000000000000000000000000000000000000000000073ffffffffffffffffffffffffffffffffffffffff163373ffffffffffffffffffffffffffffffffffffffff1614611f57576040517f08c379a0000000000000000000000000000000000000000000000000000000008152600401611f4e90612d28565b60405180910390fd5b60016002811115611f6b57611f6a6124cb565b5b600960009054906101000a900460ff166002811115611f8d57611f8c6124cb565b5b14611fcd576040517f08c379a0000000000000000000000000000000000000000000000000000000008152600401611fc490612cbc565b60405180910390fd5b6000600960006101000a81548160ff02191690836002811115611ff357611ff26124cb565b5b0217905550565b600060060154421115612042576040517f08c379a00000000000000000000000000000000000000000000000000000000081526004016120399061323b565b60405180910390fd5b600e60008273ffffffffffffffffffffffffffffffffffffffff1673ffffffffffffffffffffffffffffffffffffffff16815260200190815260200160002060009054906101000a900460ff16156120cf576040517f08c379a00000000000000000000000000000000000000000000000000000000081526004016120c6906132a7565b60405180910390fd5b600c60008154809291906120e290612dcf565b9190505550600d60008273ffffffffffffffffffffffffffffffffffffffff1673ffffffffffffffffffffffffffffffffffffffff16815260200190815260200160002060009054906101000a900460ff1661219c57600b819080600181540180825580915050600190039060005260206000200160009091909190916101000a81548173ffffffffffffffffffffffffffffffffffffffff021916908373ffffffffffffffffffffffffffffffffffffffff1602179055505b6001600d60008373ffffffffffffffffffffffffffffffffffffffff1673ffffffffffffffffffffffffffffffffffffffff16815260200190815260200160002060006101000a81548160ff0219169083151502179055506001600e60008373ffffffffffffffffffffffffffffffffffffffff1673ffffffffffffffffffffffffffffffffffffffff16815260200190815260200160002060006101000a81548160ff021916908315150217905550600060030154600c54111561226057600080fd5b7feeda149c76076b34d4b9d8896c2f7efc0d33d1c7b53ea3c5db490d64613f603a8160405161228f91906125ca565b60405180910390a150565b8280546122a690612b38565b90600052602060002090601f0160209004810192826122c8576000855561230f565b82601f106122e157805160ff191683800117855561230f565b8280016001018555821561230f579182015b8281111561230e5782518255916020019190600101906122f3565b5b50905061231c9190612320565b5090565b5b80821115612339576000816000905550600101612321565b5090565b600081519050919050565b600082825260208201905092915050565b60005b8381101561237757808201518184015260208101905061235c565b83811115612386576000848401525b50505050565b6000601f19601f8301169050919050565b60006123a88261233d565b6123b28185612348565b93506123c2818560208601612359565b6123cb8161238c565b840191505092915050565b6000819050919050565b6123e9816123d6565b82525050565b600073ffffffffffffffffffffffffffffffffffffffff82169050919050565b600061241a826123ef565b9050919050565b61242a8161240f565b82525050565b600061012082019050818103600083015261244b818c61239d565b9050818103602083015261245f818b61239d565b905061246e604083018a6123e0565b61247b60608301896123e0565b6124886080830188612421565b61249560a08301876123e0565b6124a260c08301866123e0565b6124af60e08301856123e0565b6124bd6101008301846123e0565b9a9950505050505050505050565b7f4e487b7100000000000000000000000000000000000000000000000000000000600052602160045260246000fd5b6003811061250b5761250a6124cb565b5b50565b600081905061251c826124fa565b919050565b600061252c8261250e565b9050919050565b61253c81612521565b82525050565b60006020820190506125576000830184612533565b92915050565b6000604051905090565b600080fd5b600080fd5b61257a816123d6565b811461258557600080fd5b50565b60008135905061259781612571565b92915050565b6000602082840312156125b3576125b2612567565b5b60006125c184828501612588565b91505092915050565b60006020820190506125df6000830184612421565b92915050565b600080fd5b600080fd5b7f4e487b7100000000000000000000000000000000000000000000000000000000600052604160045260246000fd5b6126278261238c565b810181811067ffffffffffffffff82111715612646576126456125ef565b5b80604052505050565b600061265961255d565b9050612665828261261e565b919050565b600067ffffffffffffffff821115612685576126846125ef565b5b61268e8261238c565b9050602081019050919050565b82818337600083830152505050565b60006126bd6126b88461266a565b61264f565b9050828152602081018484840111156126d9576126d86125ea565b5b6126e484828561269b565b509392505050565b600082601f830112612701576127006125e5565b5b81356127118482602086016126aa565b91505092915050565b6127238161240f565b811461272e57600080fd5b50565b6000813590506127408161271a565b92915050565b60008060008060008060008060006101208a8c03121561276957612768612567565b5b60008a013567ffffffffffffffff8111156127875761278661256c565b5b6127938c828d016126ec565b99505060208a013567ffffffffffffffff8111156127b4576127b361256c565b5b6127c08c828d016126ec565b98505060406127d18c828d01612588565b97505060606127e28c828d01612588565b96505060806127f38c828d01612731565b95505060a06128048c828d01612588565b94505060c06128158c828d01612588565b93505060e06128268c828d01612588565b9250506101006128388c828d01612588565b9150509295985092959850929598565b60008115159050919050565b61285d81612848565b82525050565b60006020820190506128786000830184612854565b92915050565b60006020828403121561289457612893612567565b5b60006128a284828501612731565b91505092915050565b600081519050919050565b600082825260208201905092915050565b6000819050602082019050919050565b6128e08161240f565b82525050565b60006128f283836128d7565b60208301905092915050565b6000602082019050919050565b6000612916826128ab565b61292081856128b6565b935061292b836128c7565b8060005b8381101561295c57815161294388826128e6565b975061294e836128fe565b92505060018101905061292f565b5085935050505092915050565b60006020820190508181036000830152612983818461290b565b905092915050565b6000819050919050565b60006129b06129ab6129a6846123ef565b61298b565b6123ef565b9050919050565b60006129c282612995565b9050919050565b60006129d4826129b7565b9050919050565b6129e4816129c9565b82525050565b60006020820190506129ff60008301846129db565b92915050565b6000602082019050612a1a60008301846123e0565b92915050565b6000612a2b826129b7565b9050919050565b612a3b81612a20565b82525050565b6000602082019050612a566000830184612a32565b92915050565b600080fd5b600080fd5b60008083601f840112612a7c57612a7b6125e5565b5b8235905067ffffffffffffffff811115612a9957612a98612a5c565b5b602083019150836020820283011115612ab557612ab4612a61565b5b9250929050565b60008060208385031215612ad357612ad2612567565b5b600083013567ffffffffffffffff811115612af157612af061256c565b5b612afd85828601612a66565b92509250509250929050565b7f4e487b7100000000000000000000000000000000000000000000000000000000600052602260045260246000fd5b60006002820490506001821680612b5057607f821691505b602082108103612b6357612b62612b09565b5b50919050565b6000819050919050565b612b7c81612b69565b82525050565b6000604082019050612b976000830185612b73565b612ba46020830184612421565b9392505050565b612bb481612848565b8114612bbf57600080fd5b50565b600081519050612bd181612bab565b92915050565b600060208284031215612bed57612bec612567565b5b6000612bfb84828501612bc2565b91505092915050565b7f4d433a204f6e6c792053747564656e7400000000000000000000000000000000600082015250565b6000612c3a601083612348565b9150612c4582612c04565b602082019050919050565b60006020820190508181036000830152612c6981612c2d565b9050919050565b7f4d433a204f6e6c79204f70656e00000000000000000000000000000000000000600082015250565b6000612ca6600d83612348565b9150612cb182612c70565b602082019050919050565b60006020820190508181036000830152612cd581612c99565b9050919050565b7f4f6e6c79206f776e657200000000000000000000000000000000000000000000600082015250565b6000612d12600a83612348565b9150612d1d82612cdc565b602082019050919050565b60006020820190508181036000830152612d4181612d05565b9050919050565b7f4e487b7100000000000000000000000000000000000000000000000000000000600052603260045260246000fd5b6000604082019050612d8c6000830185612421565b612d9960208301846123e0565b9392505050565b7f4e487b7100000000000000000000000000000000000000000000000000000000600052601160045260246000fd5b6000612dda826123d6565b91507fffffffffffffffffffffffffffffffffffffffffffffffffffffffffffffffff8203612e0c57612e0b612da0565b5b600182019050919050565b7f4d533a2063616e63656c206572726f7200000000000000000000000000000000600082015250565b6000612e4d601083612348565b9150612e5882612e17565b602082019050919050565b60006020820190508181036000830152612e7c81612e40565b9050919050565b6000612e8e826123d6565b915060008203612ea157612ea0612da0565b5b600182039050919050565b7f4d433a204f6e6c79204c6f636b00000000000000000000000000000000000000600082015250565b6000612ee2600d83612348565b9150612eed82612eac565b602082019050919050565b60006020820190508181036000830152612f1181612ed5565b9050919050565b7f4d433a2041776172642073686f756c642067726561746572207468616e205a6560008201527f726f000000000000000000000000000000000000000000000000000000000000602082015250565b6000612f74602283612348565b9150612f7f82612f18565b604082019050919050565b60006020820190508181036000830152612fa381612f67565b9050919050565b7f4d433a2054696d6520697320696e76616c696400000000000000000000000000600082015250565b6000612fe0601383612348565b9150612feb82612faa565b602082019050919050565b6000602082019050818103600083015261300f81612fd3565b9050919050565b7f4d433a204f6e6c79204c65637475726572000000000000000000000000000000600082015250565b600061304c601183612348565b915061305782613016565b602082019050919050565b6000602082019050818103600083015261307b8161303f565b9050919050565b7f4d533a20636f6e6669726d206572726f72000000000000000000000000000000600082015250565b60006130b8601183612348565b91506130c382613082565b602082019050919050565b600060208201905081810360008301526130e7816130ab565b9050919050565b600060408201905061310360008301856123e0565b61311060208301846123e0565b9392505050565b7f4d433a204f6e6c792074686520706572736f6e20696e20636861726765000000600082015250565b600061314d601d83612348565b915061315882613117565b602082019050919050565b6000602082019050818103600083015261317c81613140565b9050919050565b7f53686f756c64206f6e6c79206164642073747564656e74000000000000000000600082015250565b60006131b9601783612348565b91506131c482613183565b602082019050919050565b600060208201905081810360008301526131e8816131ac565b9050919050565b7f457870697265642074696d6520746f2072656769737465720000000000000000600082015250565b6000613225601883612348565b9150613230826131ef565b602082019050919050565b6000602082019050818103600083015261325481613218565b9050919050565b7f4d533a207265676973746572206572726f720000000000000000000000000000600082015250565b6000613291601283612348565b915061329c8261325b565b602082019050919050565b600060208201905081810360008301526132c081613284565b905091905056fea264697066735822122095cf220fc1b7953e4911199b414eddb3caf75a409cc2795a4243ca4e8191150664736f6c634300080e0033",
  "immutableReferences": {
    "7722": [
      {
        "length": 32,
        "start": 1789
      },
      {
        "length": 32,
        "start": 3144
      },
      {
        "length": 32,
        "start": 3994
      },
      {
        "length": 32,
        "start": 4605
      },
      {
        "length": 32,
        "start": 7883
      }
    ]
  },
  "source": "//SPDX-License-Identifier: UNLICENSED\r\npragma solidity >=0.8.0;\r\n\r\nimport \"./interfaces/IMissionContract.sol\";\r\nimport \"./interfaces/IAccessControl.sol\";\r\nimport \"./interfaces/IRewardDistributor.sol\";\r\n\r\ncontract MissionContract is IMissionContract {\r\n    using SafeERC20 for IERC20;\r\n    address public immutable owner;\r\n    Mission public mission;\r\n    Status public status = Status.Lock;\r\n\r\n    IAccessControl public accessControll;\r\n    IRewardDistributor public rewardDistributor;\r\n\r\n    address[] public participants;\r\n    uint256 public amount;\r\n    mapping(address => bool) public addressIsExist;\r\n    mapping(address => bool) public participantToTrue;\r\n    mapping(address => bool) public completedAddress;\r\n\r\n    modifier onlyLock() {\r\n        require(status == Status.Lock, \"MC: Only Lock\");\r\n        _;\r\n    }\r\n\r\n    modifier onlyOpen() {\r\n        require(status == Status.Open, \"MC: Only Open\");\r\n        _;\r\n    }\r\n\r\n    modifier onlyOwner() {\r\n        require(msg.sender == owner, \"Only owner\");\r\n        _;\r\n    }\r\n\r\n    modifier onlyRoleLecturer() {\r\n        require(\r\n            accessControll.hasRole(keccak256(\"LECTURER\"), msg.sender),\r\n            \"MC: Only Lecturer\"\r\n        );\r\n        _;\r\n    }\r\n\r\n    modifier onlyRoleStudent() {\r\n        require(\r\n            accessControll.hasRole(keccak256(\"STUDENT\"), msg.sender),\r\n            \"MC: Only Student\"\r\n        );\r\n        _;\r\n    }\r\n\r\n    constructor(\r\n        address _owner,\r\n        address _accessControll,\r\n        address _rewardDistributor\r\n    ) {\r\n        owner = _owner;\r\n        accessControll = IAccessControl(_accessControll);\r\n        rewardDistributor = IRewardDistributor(_rewardDistributor);\r\n    }\r\n\r\n    function setBasicForMission(\r\n        string memory _missionId,\r\n        string memory _urlMetadata,\r\n        uint256 _award,\r\n        uint256 _maxEntrant,\r\n        address _persionInCharge,\r\n        uint256 _startTime,\r\n        uint256 _endTimeToRegister,\r\n        uint256 _endTime,\r\n        uint256 _endTimeToConfirm\r\n    ) external override onlyOwner onlyLock {\r\n        require(_award > 0, \"MC: Award should greater than Zero\");\r\n        require(\r\n            block.timestamp < _startTime &&\r\n                _startTime < _endTimeToRegister &&\r\n                _endTimeToRegister < _endTime &&\r\n                _endTime < _endTimeToConfirm,\r\n            \"MC: Time is invalid\"\r\n        );\r\n\r\n        mission = Mission(\r\n            _missionId,\r\n            _urlMetadata,\r\n            _award,\r\n            _maxEntrant,\r\n            _persionInCharge,\r\n            _startTime,\r\n            _endTimeToRegister,\r\n            _endTime,\r\n            _endTimeToConfirm\r\n        );\r\n    }\r\n\r\n    function start() external override onlyOwner onlyLock {\r\n        status = Status.Open;\r\n    }\r\n\r\n    function lock() external override onlyOwner onlyOpen {\r\n        status = Status.Lock;\r\n    }\r\n\r\n    function addStudentToMission(address[] calldata _students)\r\n        external\r\n        override\r\n        onlyRoleLecturer\r\n        onlyOpen\r\n    {\r\n        require(\r\n            msg.sender == mission.persionInCharge,\r\n            \"MC: Only the person in charge\"\r\n        );\r\n        for (uint256 i = 0; i < _students.length; i++) {\r\n            require(\r\n                accessControll.hasRole(keccak256(\"STUDENT\"), _students[i]),\r\n                \"Should only add student\"\r\n            );\r\n            _register(_students[i]);\r\n        }\r\n    }\r\n\r\n    function register() external override onlyRoleStudent onlyOpen {\r\n        _register(msg.sender);\r\n    }\r\n\r\n    function _register(address _student) private {\r\n        require(\r\n            block.timestamp <= mission.endTimeToRegister,\r\n            \"Expired time to register\"\r\n        );\r\n        require(!participantToTrue[_student], \"MS: register error\");\r\n        amount++;\r\n        if (!addressIsExist[_student]) {\r\n            participants.push(_student);\r\n        }\r\n        addressIsExist[_student] = true;\r\n        participantToTrue[_student] = true;\r\n        require(amount <= mission.maxEntrant);\r\n        emit Register(_student);\r\n    }\r\n\r\n    function cancelRegister() external override onlyRoleStudent onlyOpen {\r\n        require(participantToTrue[msg.sender], \"MS: cancel error\");\r\n        amount--;\r\n        participantToTrue[msg.sender] = false;\r\n        emit CancelRegister(msg.sender);\r\n    }\r\n\r\n    function confirmCompletedAddress(address[] calldata _students)\r\n        external\r\n        override\r\n        onlyRoleLecturer\r\n        onlyOpen\r\n    {\r\n        require(\r\n            block.timestamp > mission.endTime &&\r\n                block.timestamp < mission.endTimeToConfirm\r\n        );\r\n        for (uint256 i = 0; i < _students.length; i++) {\r\n            require(participantToTrue[_students[i]], \"MS: confirm error\");\r\n            completedAddress[_students[i]] = true;\r\n        }\r\n        emit Confirm(_students.length, block.timestamp);\r\n    }\r\n\r\n    function unConfirmCompletedAddress(address[] calldata _students)\r\n        external\r\n        override\r\n        onlyRoleLecturer\r\n        onlyOpen\r\n    {\r\n        require(\r\n            block.timestamp > mission.endTime &&\r\n                block.timestamp < mission.endTimeToConfirm\r\n        );\r\n        for (uint256 i = 0; i < _students.length; i++) {\r\n            require(completedAddress[_students[i]], \"MS: confirm error\");\r\n            completedAddress[_students[i]] = false;\r\n        }\r\n\r\n        emit UnConfirm(_students.length, block.timestamp);\r\n    }\r\n\r\n    function close() external override onlyOwner onlyOpen {\r\n        require(block.timestamp > mission.endTimeToConfirm);\r\n        status = Status.Close;\r\n        address[] memory student = getParticipantListCompleted();\r\n        for (uint256 i = 0; i < student.length; i++) {\r\n            if (student[i] != address(0))\r\n                rewardDistributor.distributeReward(student[i], mission.award);\r\n        }\r\n        emit Close(block.timestamp);\r\n    }\r\n\r\n    function isReadyToClose() external view onlyOpen returns (bool) {\r\n        return (block.timestamp > mission.endTimeToConfirm);\r\n    }\r\n\r\n    function getParticipantList() public view returns (address[] memory) {\r\n        address[] memory student = new address[](amount);\r\n        uint256 index;\r\n        for (uint256 i = 0; i < participants.length; i++) {\r\n            if (participantToTrue[participants[i]]) {\r\n                student[index] = participants[i];\r\n                index++;\r\n            }\r\n        }\r\n        return student;\r\n    }\r\n\r\n    function getParticipantListCompleted()\r\n        public\r\n        view\r\n        override\r\n        returns (address[] memory)\r\n    {\r\n        address[] memory student = new address[](amount);\r\n        uint256 index;\r\n        for (uint256 i = 0; i < participants.length; i++) {\r\n            if (completedAddress[participants[i]]) {\r\n                student[index] = participants[i];\r\n                index++;\r\n            }\r\n        }\r\n        return student;\r\n    }\r\n}\r\n",
  "sourcePath": "E:\\KLTN\\KLTN\\KLTN-contracts\\contracts\\studentmanager\\MissionContract.sol",
  "compiler": {
    "name": "solc",
    "version": "0.8.14+commit.80d49f37.Emscripten.clang"
  },
  "schemaVersion": "3.4.3",
  "updatedAt": "2022-06-13T07:41:46.502Z",
  "devdoc": {
    "kind": "dev",
    "methods": {},
    "version": 1
  },
  "userdoc": {
    "kind": "user",
    "methods": {},
    "version": 1
  }
}