{
  "contractName": "RewardDistributor",
  "abi": [
    {
      "inputs": [
        {
          "internalType": "contract IERC20",
          "name": "_UITToken",
          "type": "address"
        },
        {
          "internalType": "address",
          "name": "_managerPool",
          "type": "address"
        }
      ],
      "stateMutability": "nonpayable",
      "type": "constructor"
    },
    {
      "anonymous": false,
      "inputs": [
        {
          "indexed": true,
          "internalType": "address",
          "name": "previousOwner",
          "type": "address"
        },
        {
          "indexed": true,
          "internalType": "address",
          "name": "newOwner",
          "type": "address"
        }
      ],
      "name": "OwnershipTransferred",
      "type": "event"
    },
    {
      "inputs": [],
      "name": "UITToken",
      "outputs": [
        {
          "internalType": "contract IERC20",
          "name": "",
          "type": "address"
        }
      ],
      "stateMutability": "view",
      "type": "function",
      "constant": true
    },
    {
      "inputs": [
        {
          "internalType": "address",
          "name": "",
          "type": "address"
        }
      ],
      "name": "distributors",
      "outputs": [
        {
          "internalType": "bool",
          "name": "",
          "type": "bool"
        }
      ],
      "stateMutability": "view",
      "type": "function",
      "constant": true
    },
    {
      "inputs": [],
      "name": "managerPool",
      "outputs": [
        {
          "internalType": "address",
          "name": "",
          "type": "address"
        }
      ],
      "stateMutability": "view",
      "type": "function",
      "constant": true
    },
    {
      "inputs": [],
      "name": "owner",
      "outputs": [
        {
          "internalType": "address",
          "name": "",
          "type": "address"
        }
      ],
      "stateMutability": "view",
      "type": "function",
      "constant": true
    },
    {
      "inputs": [],
      "name": "renounceOwnership",
      "outputs": [],
      "stateMutability": "nonpayable",
      "type": "function"
    },
    {
      "inputs": [
        {
          "internalType": "address",
          "name": "newOwner",
          "type": "address"
        }
      ],
      "name": "transferOwnership",
      "outputs": [],
      "stateMutability": "nonpayable",
      "type": "function"
    },
    {
      "inputs": [
        {
          "internalType": "address",
          "name": "_managerPool",
          "type": "address"
        }
      ],
      "name": "setManagerPoolPermission",
      "outputs": [],
      "stateMutability": "nonpayable",
      "type": "function"
    },
    {
      "inputs": [
        {
          "internalType": "address",
          "name": "distributor",
          "type": "address"
        }
      ],
      "name": "addDistributorsAddress",
      "outputs": [],
      "stateMutability": "nonpayable",
      "type": "function"
    },
    {
      "inputs": [
        {
          "internalType": "address",
          "name": "distributor",
          "type": "address"
        }
      ],
      "name": "removeDistributorsAddress",
      "outputs": [],
      "stateMutability": "nonpayable",
      "type": "function"
    },
    {
      "inputs": [
        {
          "internalType": "address",
          "name": "account",
          "type": "address"
        },
        {
          "internalType": "uint256",
          "name": "amount",
          "type": "uint256"
        }
      ],
      "name": "distributeReward",
      "outputs": [],
      "stateMutability": "nonpayable",
      "type": "function"
    },
    {
      "inputs": [],
      "name": "getTotalBalance",
      "outputs": [
        {
          "internalType": "uint256",
          "name": "",
          "type": "uint256"
        }
      ],
      "stateMutability": "view",
      "type": "function",
      "constant": true
    },
    {
      "inputs": [],
      "name": "getUITTokenAddress",
      "outputs": [
        {
          "internalType": "address",
          "name": "",
          "type": "address"
        }
      ],
      "stateMutability": "view",
      "type": "function",
      "constant": true
    }
  ],
  "bytecode": "0x60a06040523480156200001157600080fd5b5060405162001783380380620017838339818101604052810190620000379190620002a6565b620000576200004b6200012b60201b60201c565b6200013360201b60201c565b8173ffffffffffffffffffffffffffffffffffffffff1660808173ffffffffffffffffffffffffffffffffffffffff168152505080600260006101000a81548173ffffffffffffffffffffffffffffffffffffffff021916908373ffffffffffffffffffffffffffffffffffffffff16021790555060018060003373ffffffffffffffffffffffffffffffffffffffff1673ffffffffffffffffffffffffffffffffffffffff16815260200190815260200160002060006101000a81548160ff0219169083151502179055505050620002ed565b600033905090565b60008060009054906101000a900473ffffffffffffffffffffffffffffffffffffffff169050816000806101000a81548173ffffffffffffffffffffffffffffffffffffffff021916908373ffffffffffffffffffffffffffffffffffffffff1602179055508173ffffffffffffffffffffffffffffffffffffffff168173ffffffffffffffffffffffffffffffffffffffff167f8be0079c531659141344cd1fd0a4f28419497f9722a3daafe3b4186f6b6457e060405160405180910390a35050565b600080fd5b600073ffffffffffffffffffffffffffffffffffffffff82169050919050565b60006200022982620001fc565b9050919050565b60006200023d826200021c565b9050919050565b6200024f8162000230565b81146200025b57600080fd5b50565b6000815190506200026f8162000244565b92915050565b62000280816200021c565b81146200028c57600080fd5b50565b600081519050620002a08162000275565b92915050565b60008060408385031215620002c057620002bf620001f7565b5b6000620002d0858286016200025e565b9250506020620002e3858286016200028f565b9150509250929050565b6080516114656200031e6000396000818161034001528181610470015281816104ba01526107d801526114656000f3fe608060405234801561001057600080fd5b50600436106100b45760003560e01c80638da5cb5b116100715780638da5cb5b14610153578063aae376f114610171578063b45590da1461018f578063c59671c1146101ab578063cc642784146101c9578063f2fde38b146101f9576100b4565b806305380898146100b957806312b58349146100d55780631ec8bb8c146100f35780632fe7a96d1461010f5780633cb7b3bb1461012d578063715018a614610149575b600080fd5b6100d360048036038101906100ce9190610d45565b610215565b005b6100dd61033c565b6040516100ea9190610d8b565b60405180910390f35b61010d60048036038101906101089190610dd2565b6103dd565b005b6101176104b8565b6040516101249190610e71565b60405180910390f35b61014760048036038101906101429190610d45565b6104dc565b005b610151610604565b005b61015b61068c565b6040516101689190610e9b565b60405180910390f35b6101796106b5565b6040516101869190610e9b565b60405180910390f35b6101a960048036038101906101a49190610d45565b6106db565b005b6101b36107d4565b6040516101c09190610e9b565b60405180910390f35b6101e360048036038101906101de9190610d45565b6107fc565b6040516101f09190610ed1565b60405180910390f35b610213600480360381019061020e9190610d45565b61081c565b005b61021d61068c565b73ffffffffffffffffffffffffffffffffffffffff163373ffffffffffffffffffffffffffffffffffffffff1614806102a35750600260009054906101000a900473ffffffffffffffffffffffffffffffffffffffff1673ffffffffffffffffffffffffffffffffffffffff163373ffffffffffffffffffffffffffffffffffffffff16145b6102e2576040517f08c379a00000000000000000000000000000000000000000000000000000000081526004016102d990610f49565b60405180910390fd5b60018060008373ffffffffffffffffffffffffffffffffffffffff1673ffffffffffffffffffffffffffffffffffffffff16815260200190815260200160002060006101000a81548160ff02191690831515021790555050565b60007f000000000000000000000000000000000000000000000000000000000000000073ffffffffffffffffffffffffffffffffffffffff166370a08231306040518263ffffffff1660e01b81526004016103979190610e9b565b602060405180830381865afa1580156103b4573d6000803e3d6000fd5b505050506040513d601f19601f820116820180604052508101906103d89190610f7e565b905090565b600160003373ffffffffffffffffffffffffffffffffffffffff1673ffffffffffffffffffffffffffffffffffffffff16815260200190815260200160002060009054906101000a900460ff16610469576040517f08c379a000000000000000000000000000000000000000000000000000000000815260040161046090610ff7565b60405180910390fd5b6104b482827f000000000000000000000000000000000000000000000000000000000000000073ffffffffffffffffffffffffffffffffffffffff166109139092919063ffffffff16565b5050565b7f000000000000000000000000000000000000000000000000000000000000000081565b6104e461068c565b73ffffffffffffffffffffffffffffffffffffffff163373ffffffffffffffffffffffffffffffffffffffff16148061056a5750600260009054906101000a900473ffffffffffffffffffffffffffffffffffffffff1673ffffffffffffffffffffffffffffffffffffffff163373ffffffffffffffffffffffffffffffffffffffff16145b6105a9576040517f08c379a00000000000000000000000000000000000000000000000000000000081526004016105a090610f49565b60405180910390fd5b6000600160008373ffffffffffffffffffffffffffffffffffffffff1673ffffffffffffffffffffffffffffffffffffffff16815260200190815260200160002060006101000a81548160ff02191690831515021790555050565b61060c610999565b73ffffffffffffffffffffffffffffffffffffffff1661062a61068c565b73ffffffffffffffffffffffffffffffffffffffff1614610680576040517f08c379a000000000000000000000000000000000000000000000000000000000815260040161067790611063565b60405180910390fd5b61068a60006109a1565b565b60008060009054906101000a900473ffffffffffffffffffffffffffffffffffffffff16905090565b600260009054906101000a900473ffffffffffffffffffffffffffffffffffffffff1681565b6106e3610999565b73ffffffffffffffffffffffffffffffffffffffff1661070161068c565b73ffffffffffffffffffffffffffffffffffffffff1614610757576040517f08c379a000000000000000000000000000000000000000000000000000000000815260040161074e90611063565b60405180910390fd5b600073ffffffffffffffffffffffffffffffffffffffff168173ffffffffffffffffffffffffffffffffffffffff160361079057600080fd5b80600260006101000a81548173ffffffffffffffffffffffffffffffffffffffff021916908373ffffffffffffffffffffffffffffffffffffffff16021790555050565b60007f0000000000000000000000000000000000000000000000000000000000000000905090565b60016020528060005260406000206000915054906101000a900460ff1681565b610824610999565b73ffffffffffffffffffffffffffffffffffffffff1661084261068c565b73ffffffffffffffffffffffffffffffffffffffff1614610898576040517f08c379a000000000000000000000000000000000000000000000000000000000815260040161088f90611063565b60405180910390fd5b600073ffffffffffffffffffffffffffffffffffffffff168173ffffffffffffffffffffffffffffffffffffffff1603610907576040517f08c379a00000000000000000000000000000000000000000000000000000000081526004016108fe906110f5565b60405180910390fd5b610910816109a1565b50565b6109948363a9059cbb60e01b8484604051602401610932929190611115565b604051602081830303815290604052907bffffffffffffffffffffffffffffffffffffffffffffffffffffffff19166020820180517bffffffffffffffffffffffffffffffffffffffffffffffffffffffff8381831617835250505050610a65565b505050565b600033905090565b60008060009054906101000a900473ffffffffffffffffffffffffffffffffffffffff169050816000806101000a81548173ffffffffffffffffffffffffffffffffffffffff021916908373ffffffffffffffffffffffffffffffffffffffff1602179055508173ffffffffffffffffffffffffffffffffffffffff168173ffffffffffffffffffffffffffffffffffffffff167f8be0079c531659141344cd1fd0a4f28419497f9722a3daafe3b4186f6b6457e060405160405180910390a35050565b6000610ac7826040518060400160405280602081526020017f5361666545524332303a206c6f772d6c6576656c2063616c6c206661696c65648152508573ffffffffffffffffffffffffffffffffffffffff16610b2c9092919063ffffffff16565b9050600081511115610b275780806020019051810190610ae7919061116a565b610b26576040517f08c379a0000000000000000000000000000000000000000000000000000000008152600401610b1d90611209565b60405180910390fd5b5b505050565b6060610b3b8484600085610b44565b90509392505050565b606082471015610b89576040517f08c379a0000000000000000000000000000000000000000000000000000000008152600401610b809061129b565b60405180910390fd5b610b9285610c58565b610bd1576040517f08c379a0000000000000000000000000000000000000000000000000000000008152600401610bc890611307565b60405180910390fd5b6000808673ffffffffffffffffffffffffffffffffffffffff168587604051610bfa91906113a1565b60006040518083038185875af1925050503d8060008114610c37576040519150601f19603f3d011682016040523d82523d6000602084013e610c3c565b606091505b5091509150610c4c828286610c7b565b92505050949350505050565b6000808273ffffffffffffffffffffffffffffffffffffffff163b119050919050565b60608315610c8b57829050610cdb565b600083511115610c9e5782518084602001fd5b816040517f08c379a0000000000000000000000000000000000000000000000000000000008152600401610cd2919061140d565b60405180910390fd5b9392505050565b600080fd5b600073ffffffffffffffffffffffffffffffffffffffff82169050919050565b6000610d1282610ce7565b9050919050565b610d2281610d07565b8114610d2d57600080fd5b50565b600081359050610d3f81610d19565b92915050565b600060208284031215610d5b57610d5a610ce2565b5b6000610d6984828501610d30565b91505092915050565b6000819050919050565b610d8581610d72565b82525050565b6000602082019050610da06000830184610d7c565b92915050565b610daf81610d72565b8114610dba57600080fd5b50565b600081359050610dcc81610da6565b92915050565b60008060408385031215610de957610de8610ce2565b5b6000610df785828601610d30565b9250506020610e0885828601610dbd565b9150509250929050565b6000819050919050565b6000610e37610e32610e2d84610ce7565b610e12565b610ce7565b9050919050565b6000610e4982610e1c565b9050919050565b6000610e5b82610e3e565b9050919050565b610e6b81610e50565b82525050565b6000602082019050610e866000830184610e62565b92915050565b610e9581610d07565b82525050565b6000602082019050610eb06000830184610e8c565b92915050565b60008115159050919050565b610ecb81610eb6565b82525050565b6000602082019050610ee66000830184610ec2565b92915050565b600082825260208201905092915050565b7f52443a204f6e6c79207065726d697373696f6e00000000000000000000000000600082015250565b6000610f33601383610eec565b9150610f3e82610efd565b602082019050919050565b60006020820190508181036000830152610f6281610f26565b9050919050565b600081519050610f7881610da6565b92915050565b600060208284031215610f9457610f93610ce2565b5b6000610fa284828501610f69565b91505092915050565b7f52443a204f6e6c79206469737472696275746f72000000000000000000000000600082015250565b6000610fe1601483610eec565b9150610fec82610fab565b602082019050919050565b6000602082019050818103600083015261101081610fd4565b9050919050565b7f4f776e61626c653a2063616c6c6572206973206e6f7420746865206f776e6572600082015250565b600061104d602083610eec565b915061105882611017565b602082019050919050565b6000602082019050818103600083015261107c81611040565b9050919050565b7f4f776e61626c653a206e6577206f776e657220697320746865207a65726f206160008201527f6464726573730000000000000000000000000000000000000000000000000000602082015250565b60006110df602683610eec565b91506110ea82611083565b604082019050919050565b6000602082019050818103600083015261110e816110d2565b9050919050565b600060408201905061112a6000830185610e8c565b6111376020830184610d7c565b9392505050565b61114781610eb6565b811461115257600080fd5b50565b6000815190506111648161113e565b92915050565b6000602082840312156111805761117f610ce2565b5b600061118e84828501611155565b91505092915050565b7f5361666545524332303a204552433230206f7065726174696f6e20646964206e60008201527f6f74207375636365656400000000000000000000000000000000000000000000602082015250565b60006111f3602a83610eec565b91506111fe82611197565b604082019050919050565b60006020820190508181036000830152611222816111e6565b9050919050565b7f416464726573733a20696e73756666696369656e742062616c616e636520666f60008201527f722063616c6c0000000000000000000000000000000000000000000000000000602082015250565b6000611285602683610eec565b915061129082611229565b604082019050919050565b600060208201905081810360008301526112b481611278565b9050919050565b7f416464726573733a2063616c6c20746f206e6f6e2d636f6e7472616374000000600082015250565b60006112f1601d83610eec565b91506112fc826112bb565b602082019050919050565b60006020820190508181036000830152611320816112e4565b9050919050565b600081519050919050565b600081905092915050565b60005b8381101561135b578082015181840152602081019050611340565b8381111561136a576000848401525b50505050565b600061137b82611327565b6113858185611332565b935061139581856020860161133d565b80840191505092915050565b60006113ad8284611370565b915081905092915050565b600081519050919050565b6000601f19601f8301169050919050565b60006113df826113b8565b6113e98185610eec565b93506113f981856020860161133d565b611402816113c3565b840191505092915050565b6000602082019050818103600083015261142781846113d4565b90509291505056fea2646970667358221220be0f5cf0b1e202da7f378be7605e4c58eed7afab9e52a04b500d0f100a3081e464736f6c634300080e0033",
  "immutableReferences": {
    "7213": [
      {
        "length": 32,
        "start": 832
      },
      {
        "length": 32,
        "start": 1136
      },
      {
        "length": 32,
        "start": 1210
      },
      {
        "length": 32,
        "start": 2008
      }
    ]
  },
  "source": "//SPDX-License-Identifier: MIT\r\npragma solidity ^0.8.0;\r\n\r\nimport \"@openzeppelin/contracts/token/ERC20/IERC20.sol\";\r\nimport \"@openzeppelin/contracts/token/ERC20/utils/SafeERC20.sol\";\r\nimport \"@openzeppelin/contracts/access/Ownable.sol\";\r\nimport \"./interfaces/IRewardDistributor.sol\";\r\n\r\ncontract RewardDistributor is IRewardDistributor, Ownable {\r\n    using SafeERC20 for IERC20;\r\n    \r\n    IERC20 public immutable UITToken;\r\n    mapping(address => bool) public distributors;\r\n    address public managerPool;\r\n\r\n    constructor(IERC20 _UITToken, address _managerPool) {\r\n        UITToken = _UITToken;\r\n        managerPool = _managerPool;\r\n        distributors[msg.sender] = true;\r\n    }\r\n\r\n    modifier onlyDistributor() {\r\n        require(distributors[msg.sender], \"RD: Only distributor\");\r\n        _;\r\n    }\r\n\r\n    modifier onlyPermission() {\r\n        require(\r\n            msg.sender == owner() || msg.sender == managerPool,\r\n            \"RD: Only permission\"\r\n        );\r\n        _;\r\n    }\r\n\r\n    function setManagerPoolPermission(address _managerPool) external onlyOwner {\r\n        require(_managerPool != address(0));\r\n        managerPool = _managerPool;\r\n    }\r\n\r\n    function addDistributorsAddress(address distributor)\r\n        external\r\n        override\r\n        onlyPermission\r\n    {\r\n        distributors[distributor] = true;\r\n    }\r\n\r\n    function removeDistributorsAddress(address distributor)\r\n        external\r\n        override\r\n        onlyPermission\r\n    {\r\n        distributors[distributor] = false;\r\n    }\r\n\r\n    function distributeReward(address account, uint256 amount)\r\n        external\r\n        override\r\n        onlyDistributor\r\n    {\r\n        UITToken.safeTransfer(account, amount);\r\n    }\r\n\r\n    function getTotalBalance() public view returns(uint256){\r\n        return IERC20(UITToken).balanceOf(address(this));\r\n    }\r\n\r\n    function getUITTokenAddress()public override view returns(address){\r\n        return address(UITToken);\r\n    }\r\n}\r\n",
  "sourcePath": "E:\\KLTN\\KLTN\\KLTN-contracts\\contracts\\studentmanager\\RewardDistributor.sol",
  "compiler": {
    "name": "solc",
    "version": "0.8.14+commit.80d49f37.Emscripten.clang"
  },
  "schemaVersion": "3.4.3",
  "updatedAt": "2022-05-21T08:23:02.865Z",
  "networkType": "ethereum",
  "devdoc": {
    "kind": "dev",
    "methods": {
      "owner()": {
        "details": "Returns the address of the current owner."
      },
      "renounceOwnership()": {
        "details": "Leaves the contract without owner. It will not be possible to call `onlyOwner` functions anymore. Can only be called by the current owner. NOTE: Renouncing ownership will leave the contract without an owner, thereby removing any functionality that is only available to the owner."
      },
      "transferOwnership(address)": {
        "details": "Transfers ownership of the contract to a new account (`newOwner`). Can only be called by the current owner."
      }
    },
    "version": 1
  },
  "userdoc": {
    "kind": "user",
    "methods": {},
    "version": 1
  }
}