{
  "contractName": "ScholarshipContract",
  "abi": [
    {
      "inputs": [
        {
          "internalType": "address",
          "name": "_owner",
          "type": "address"
        },
        {
          "internalType": "address",
          "name": "_accessControll",
          "type": "address"
        },
        {
          "internalType": "address",
          "name": "_rewardDistributor",
          "type": "address"
        }
      ],
      "stateMutability": "nonpayable",
      "type": "constructor"
    },
    {
      "anonymous": false,
      "inputs": [
        {
          "indexed": false,
          "internalType": "uint256",
          "name": "timestamp",
          "type": "uint256"
        }
      ],
      "name": "Close",
      "type": "event"
    },
    {
      "anonymous": false,
      "inputs": [
        {
          "indexed": true,
          "internalType": "uint256",
          "name": "id",
          "type": "uint256"
        }
      ],
      "name": "CreatedNewTuition",
      "type": "event"
    },
    {
      "anonymous": false,
      "inputs": [
        {
          "indexed": false,
          "internalType": "address",
          "name": "student",
          "type": "address"
        },
        {
          "indexed": false,
          "internalType": "uint256",
          "name": "timestamp",
          "type": "uint256"
        },
        {
          "indexed": false,
          "internalType": "enum IScholarshipContract.PaymentMethod",
          "name": "_method",
          "type": "uint8"
        }
      ],
      "name": "Payment",
      "type": "event"
    },
    {
      "inputs": [],
      "name": "UITToken",
      "outputs": [
        {
          "internalType": "address",
          "name": "",
          "type": "address"
        }
      ],
      "stateMutability": "view",
      "type": "function"
    },
    {
      "inputs": [],
      "name": "accessControll",
      "outputs": [
        {
          "internalType": "contract IAccessControl",
          "name": "",
          "type": "address"
        }
      ],
      "stateMutability": "view",
      "type": "function"
    },
    {
      "inputs": [],
      "name": "amount",
      "outputs": [
        {
          "internalType": "uint256",
          "name": "",
          "type": "uint256"
        }
      ],
      "stateMutability": "view",
      "type": "function"
    },
    {
      "inputs": [],
      "name": "owner",
      "outputs": [
        {
          "internalType": "address",
          "name": "",
          "type": "address"
        }
      ],
      "stateMutability": "view",
      "type": "function"
    },
    {
      "inputs": [
        {
          "internalType": "address",
          "name": "",
          "type": "address"
        }
      ],
      "name": "participantToIndex",
      "outputs": [
        {
          "internalType": "uint256",
          "name": "",
          "type": "uint256"
        }
      ],
      "stateMutability": "view",
      "type": "function"
    },
    {
      "inputs": [
        {
          "internalType": "address",
          "name": "",
          "type": "address"
        }
      ],
      "name": "participantToTrue",
      "outputs": [
        {
          "internalType": "bool",
          "name": "",
          "type": "bool"
        }
      ],
      "stateMutability": "view",
      "type": "function"
    },
    {
      "inputs": [
        {
          "internalType": "uint256",
          "name": "",
          "type": "uint256"
        }
      ],
      "name": "participants",
      "outputs": [
        {
          "internalType": "address",
          "name": "",
          "type": "address"
        }
      ],
      "stateMutability": "view",
      "type": "function"
    },
    {
      "inputs": [],
      "name": "rewardDistributor",
      "outputs": [
        {
          "internalType": "contract IRewardDistributor",
          "name": "",
          "type": "address"
        }
      ],
      "stateMutability": "view",
      "type": "function"
    },
    {
      "inputs": [],
      "name": "scholarship",
      "outputs": [
        {
          "internalType": "uint256",
          "name": "Id",
          "type": "uint256"
        },
        {
          "internalType": "string",
          "name": "urlMetadata",
          "type": "string"
        },
        {
          "internalType": "uint256",
          "name": "award",
          "type": "uint256"
        },
        {
          "internalType": "uint256",
          "name": "startTime",
          "type": "uint256"
        },
        {
          "internalType": "uint256",
          "name": "endTime",
          "type": "uint256"
        }
      ],
      "stateMutability": "view",
      "type": "function"
    },
    {
      "inputs": [],
      "name": "status",
      "outputs": [
        {
          "internalType": "enum IScholarshipContract.Status",
          "name": "",
          "type": "uint8"
        }
      ],
      "stateMutability": "view",
      "type": "function"
    },
    {
      "inputs": [
        {
          "internalType": "uint256",
          "name": "_scholarshipId",
          "type": "uint256"
        },
        {
          "internalType": "string",
          "name": "_urlMetadata",
          "type": "string"
        },
        {
          "internalType": "uint256",
          "name": "_award",
          "type": "uint256"
        },
        {
          "internalType": "uint256",
          "name": "_startTime",
          "type": "uint256"
        },
        {
          "internalType": "uint256",
          "name": "_endTime",
          "type": "uint256"
        }
      ],
      "name": "setBasicForScholarship",
      "outputs": [],
      "stateMutability": "nonpayable",
      "type": "function"
    },
    {
      "inputs": [],
      "name": "start",
      "outputs": [],
      "stateMutability": "nonpayable",
      "type": "function"
    },
    {
      "inputs": [
        {
          "internalType": "address[]",
          "name": "_students",
          "type": "address[]"
        }
      ],
      "name": "addStudentToScholarship",
      "outputs": [],
      "stateMutability": "nonpayable",
      "type": "function"
    },
    {
      "inputs": [
        {
          "internalType": "address",
          "name": "_student",
          "type": "address"
        }
      ],
      "name": "removeStudentFromScholarship",
      "outputs": [],
      "stateMutability": "nonpayable",
      "type": "function"
    },
    {
      "inputs": [],
      "name": "close",
      "outputs": [],
      "stateMutability": "nonpayable",
      "type": "function"
    },
    {
      "inputs": [],
      "name": "getParticipantList",
      "outputs": [
        {
          "internalType": "address[]",
          "name": "",
          "type": "address[]"
        }
      ],
      "stateMutability": "view",
      "type": "function"
    }
  ],
  "bytecode": "0x60a06040526000600560006101000a81548160ff021916908360028111156200002d576200002c62000124565b5b02179055503480156200003f57600080fd5b5060405162002493380380620024938339818101604052810190620000659190620001bd565b8273ffffffffffffffffffffffffffffffffffffffff1660808173ffffffffffffffffffffffffffffffffffffffff168152505081600660006101000a81548173ffffffffffffffffffffffffffffffffffffffff021916908373ffffffffffffffffffffffffffffffffffffffff16021790555080600760006101000a81548173ffffffffffffffffffffffffffffffffffffffff021916908373ffffffffffffffffffffffffffffffffffffffff16021790555050505062000219565b7f4e487b7100000000000000000000000000000000000000000000000000000000600052602160045260246000fd5b600080fd5b600073ffffffffffffffffffffffffffffffffffffffff82169050919050565b6000620001858262000158565b9050919050565b620001978162000178565b8114620001a357600080fd5b50565b600081519050620001b7816200018c565b92915050565b600080600060608486031215620001d957620001d862000153565b5b6000620001e986828701620001a6565b9350506020620001fc86828701620001a6565b92505060406200020f86828701620001a6565b9150509250925092565b6080516122496200024a600039600081816105ed01528181610802015281816109440152610f9b01526122496000f3fe608060405234801561001057600080fd5b50600436106101005760003560e01c8063aa8c217c11610097578063d95fe6a011610066578063d95fe6a01461026b578063dc676ee21461029b578063e4bca563146102b7578063ed214fff146102d357610100565b8063aa8c217c146101f5578063acc2166a14610213578063b1319f4114610231578063be9a65551461026157610100565b806343d726d6116100d357806343d726d61461018d5780638da5cb5b14610197578063a7539775146101b5578063aa4936ce146101d757610100565b80630aafbfca14610105578063200d2ed2146101215780632fe7a96d1461013f57806335c1d3491461015d575b600080fd5b61011f600480360381019061011a91906114e0565b6102f1565b005b610129610573565b6040516101369190611584565b60405180910390f35b610147610586565b60405161015491906115ae565b60405180910390f35b610177600480360381019061017291906115ff565b6105ac565b60405161018491906115ae565b60405180910390f35b6101956105eb565b005b61019f610800565b6040516101ac91906115ae565b60405180910390f35b6101bd610824565b6040516101ce9594939291906116d4565b60405180910390f35b6101df6108d0565b6040516101ec919061178d565b60405180910390f35b6101fd6108f6565b60405161020a91906117a8565b60405180910390f35b61021b6108fc565b60405161022891906117e4565b60405180910390f35b61024b600480360381019061024691906114e0565b610922565b604051610258919061181a565b60405180910390f35b610269610942565b005b610285600480360381019061028091906114e0565b610a73565b60405161029291906117a8565b60405180910390f35b6102b560048036038101906102b0919061189a565b610a8b565b005b6102d160048036038101906102cc9190611a17565b610f99565b005b6102db6111a4565b6040516102e89190611b6c565b60405180910390f35b600660009054906101000a900473ffffffffffffffffffffffffffffffffffffffff1673ffffffffffffffffffffffffffffffffffffffff166391d148547fdf8b4c520ffe197c5343c6f5aec59570151ef9a492f2c624fd45ddde6135ec42336040518363ffffffff1660e01b815260040161036e929190611ba7565b602060405180830381865afa15801561038b573d6000803e3d6000fd5b505050506040513d601f19601f820116820180604052508101906103af9190611bfc565b6103ee576040517f08c379a00000000000000000000000000000000000000000000000000000000081526004016103e590611c75565b60405180910390fd5b600b60008273ffffffffffffffffffffffffffffffffffffffff1673ffffffffffffffffffffffffffffffffffffffff16815260200190815260200160002060009054906101000a900460ff1661047a576040517f08c379a000000000000000000000000000000000000000000000000000000000815260040161047190611ce1565b60405180910390fd5b6000600a60008373ffffffffffffffffffffffffffffffffffffffff1673ffffffffffffffffffffffffffffffffffffffff1681526020019081526020016000205490506000600b60008473ffffffffffffffffffffffffffffffffffffffff1673ffffffffffffffffffffffffffffffffffffffff16815260200190815260200160002060006101000a81548160ff0219169083151502179055506009600081548092919061052990611d30565b91905055506008818154811061054257610541611d59565b5b9060005260206000200160006101000a81549073ffffffffffffffffffffffffffffffffffffffff02191690555050565b600560009054906101000a900460ff1681565b600560019054906101000a900473ffffffffffffffffffffffffffffffffffffffff1681565b600881815481106105bc57600080fd5b906000526020600020016000915054906101000a900473ffffffffffffffffffffffffffffffffffffffff1681565b7f000000000000000000000000000000000000000000000000000000000000000073ffffffffffffffffffffffffffffffffffffffff163373ffffffffffffffffffffffffffffffffffffffff1614610679576040517f08c379a000000000000000000000000000000000000000000000000000000000815260040161067090611dd4565b60405180910390fd5b60006004015442116106c0576040517f08c379a00000000000000000000000000000000000000000000000000000000081526004016106b790611e40565b60405180910390fd5b6002600560006101000a81548160ff021916908360028111156106e6576106e561150d565b5b021790555060006106f56111a4565b905060005b6009548110156107c557600760009054906101000a900473ffffffffffffffffffffffffffffffffffffffff1673ffffffffffffffffffffffffffffffffffffffff16631ec8bb8c83838151811061075557610754611d59565b5b60200260200101516000600201546040518363ffffffff1660e01b8152600401610780929190611e60565b600060405180830381600087803b15801561079a57600080fd5b505af11580156107ae573d6000803e3d6000fd5b5050505080806107bd90611e89565b9150506106fa565b507fbf67515a38ee520223d32c1266d52101c30d936ed1f3e436c8caeb0a43cb06bf426040516107f591906117a8565b60405180910390a150565b7f000000000000000000000000000000000000000000000000000000000000000081565b600080600001549080600101805461083b90611f00565b80601f016020809104026020016040519081016040528092919081815260200182805461086790611f00565b80156108b45780601f10610889576101008083540402835291602001916108b4565b820191906000526020600020905b81548152906001019060200180831161089757829003601f168201915b5050505050908060020154908060030154908060040154905085565b600660009054906101000a900473ffffffffffffffffffffffffffffffffffffffff1681565b60095481565b600760009054906101000a900473ffffffffffffffffffffffffffffffffffffffff1681565b600b6020528060005260406000206000915054906101000a900460ff1681565b7f000000000000000000000000000000000000000000000000000000000000000073ffffffffffffffffffffffffffffffffffffffff163373ffffffffffffffffffffffffffffffffffffffff16146109d0576040517f08c379a00000000000000000000000000000000000000000000000000000000081526004016109c790611dd4565b60405180910390fd5b600060028111156109e4576109e361150d565b5b600560009054906101000a900460ff166002811115610a0657610a0561150d565b5b14610a46576040517f08c379a0000000000000000000000000000000000000000000000000000000008152600401610a3d90611f7d565b60405180910390fd5b6001600560006101000a81548160ff02191690836002811115610a6c57610a6b61150d565b5b0217905550565b600a6020528060005260406000206000915090505481565b600660009054906101000a900473ffffffffffffffffffffffffffffffffffffffff1673ffffffffffffffffffffffffffffffffffffffff166391d148547fdf8b4c520ffe197c5343c6f5aec59570151ef9a492f2c624fd45ddde6135ec42336040518363ffffffff1660e01b8152600401610b08929190611ba7565b602060405180830381865afa158015610b25573d6000803e3d6000fd5b505050506040513d601f19601f82011682018060405250810190610b499190611bfc565b610b88576040517f08c379a0000000000000000000000000000000000000000000000000000000008152600401610b7f90611c75565b60405180910390fd5b60016002811115610b9c57610b9b61150d565b5b600560009054906101000a900460ff166002811115610bbe57610bbd61150d565b5b14610bfe576040517f08c379a0000000000000000000000000000000000000000000000000000000008152600401610bf590611fe9565b60405180910390fd5b60005b82829050811015610f9457600660009054906101000a900473ffffffffffffffffffffffffffffffffffffffff1673ffffffffffffffffffffffffffffffffffffffff166391d148547fc951d7098b66ba0b8b77265b6e9cf0e187d73125a42bcd0061b09a68be421810858585818110610c7e57610c7d611d59565b5b9050602002016020810190610c9391906114e0565b6040518363ffffffff1660e01b8152600401610cb0929190611ba7565b602060405180830381865afa158015610ccd573d6000803e3d6000fd5b505050506040513d601f19601f82011682018060405250810190610cf19190611bfc565b610d30576040517f08c379a0000000000000000000000000000000000000000000000000000000008152600401610d2790612055565b60405180910390fd5b600b6000848484818110610d4757610d46611d59565b5b9050602002016020810190610d5c91906114e0565b73ffffffffffffffffffffffffffffffffffffffff1673ffffffffffffffffffffffffffffffffffffffff16815260200190815260200160002060009054906101000a900460ff1615610de4576040517f08c379a0000000000000000000000000000000000000000000000000000000008152600401610ddb906120c1565b60405180910390fd5b6008838383818110610df957610df8611d59565b5b9050602002016020810190610e0e91906114e0565b9080600181540180825580915050600190039060005260206000200160009091909190916101000a81548173ffffffffffffffffffffffffffffffffffffffff021916908373ffffffffffffffffffffffffffffffffffffffff1602179055506001600880549050610e8091906120e1565b600a6000858585818110610e9757610e96611d59565b5b9050602002016020810190610eac91906114e0565b73ffffffffffffffffffffffffffffffffffffffff1673ffffffffffffffffffffffffffffffffffffffff168152602001908152602001600020819055506001600b6000858585818110610f0357610f02611d59565b5b9050602002016020810190610f1891906114e0565b73ffffffffffffffffffffffffffffffffffffffff1673ffffffffffffffffffffffffffffffffffffffff16815260200190815260200160002060006101000a81548160ff02191690831515021790555060096000815480929190610f7c90611e89565b91905055508080610f8c90611e89565b915050610c01565b505050565b7f000000000000000000000000000000000000000000000000000000000000000073ffffffffffffffffffffffffffffffffffffffff163373ffffffffffffffffffffffffffffffffffffffff1614611027576040517f08c379a000000000000000000000000000000000000000000000000000000000815260040161101e90611dd4565b60405180910390fd5b6000600281111561103b5761103a61150d565b5b600560009054906101000a900460ff16600281111561105d5761105c61150d565b5b1461109d576040517f08c379a000000000000000000000000000000000000000000000000000000000815260040161109490611f7d565b60405180910390fd5b600083116110e0576040517f08c379a00000000000000000000000000000000000000000000000000000000081526004016110d790612187565b60405180910390fd5b81421080156110ee57508082105b61112d576040517f08c379a0000000000000000000000000000000000000000000000000000000008152600401611124906121f3565b60405180910390fd5b6040518060a00160405280868152602001858152602001848152602001838152602001828152506000808201518160000155602082015181600101908051906020019061117b9291906113cb565b506040820151816002015560608201518160030155608082015181600401559050505050505050565b6060600060088054905067ffffffffffffffff8111156111c7576111c66118ec565b5b6040519080825280602002602001820160405280156111f55781602001602082028036833780820191505090505b509050600080600090505b6008805490508110156113c257600b60006008838154811061122557611224611d59565b5b9060005260206000200160009054906101000a900473ffffffffffffffffffffffffffffffffffffffff1673ffffffffffffffffffffffffffffffffffffffff1673ffffffffffffffffffffffffffffffffffffffff16815260200190815260200160002060009054906101000a900460ff16801561130f5750600073ffffffffffffffffffffffffffffffffffffffff16600882815481106112cb576112ca611d59565b5b9060005260206000200160009054906101000a900473ffffffffffffffffffffffffffffffffffffffff1673ffffffffffffffffffffffffffffffffffffffff1614155b156113af576008818154811061132857611327611d59565b5b9060005260206000200160009054906101000a900473ffffffffffffffffffffffffffffffffffffffff1683838151811061136657611365611d59565b5b602002602001019073ffffffffffffffffffffffffffffffffffffffff16908173ffffffffffffffffffffffffffffffffffffffff168152505081806113ab90611e89565b9250505b80806113ba90611e89565b915050611200565b50819250505090565b8280546113d790611f00565b90600052602060002090601f0160209004810192826113f95760008555611440565b82601f1061141257805160ff1916838001178555611440565b82800160010185558215611440579182015b8281111561143f578251825591602001919060010190611424565b5b50905061144d9190611451565b5090565b5b8082111561146a576000816000905550600101611452565b5090565b6000604051905090565b600080fd5b600080fd5b600073ffffffffffffffffffffffffffffffffffffffff82169050919050565b60006114ad82611482565b9050919050565b6114bd816114a2565b81146114c857600080fd5b50565b6000813590506114da816114b4565b92915050565b6000602082840312156114f6576114f5611478565b5b6000611504848285016114cb565b91505092915050565b7f4e487b7100000000000000000000000000000000000000000000000000000000600052602160045260246000fd5b6003811061154d5761154c61150d565b5b50565b600081905061155e8261153c565b919050565b600061156e82611550565b9050919050565b61157e81611563565b82525050565b60006020820190506115996000830184611575565b92915050565b6115a8816114a2565b82525050565b60006020820190506115c3600083018461159f565b92915050565b6000819050919050565b6115dc816115c9565b81146115e757600080fd5b50565b6000813590506115f9816115d3565b92915050565b60006020828403121561161557611614611478565b5b6000611623848285016115ea565b91505092915050565b611635816115c9565b82525050565b600081519050919050565b600082825260208201905092915050565b60005b8381101561167557808201518184015260208101905061165a565b83811115611684576000848401525b50505050565b6000601f19601f8301169050919050565b60006116a68261163b565b6116b08185611646565b93506116c0818560208601611657565b6116c98161168a565b840191505092915050565b600060a0820190506116e9600083018861162c565b81810360208301526116fb818761169b565b905061170a604083018661162c565b611717606083018561162c565b611724608083018461162c565b9695505050505050565b6000819050919050565b600061175361174e61174984611482565b61172e565b611482565b9050919050565b600061176582611738565b9050919050565b60006117778261175a565b9050919050565b6117878161176c565b82525050565b60006020820190506117a2600083018461177e565b92915050565b60006020820190506117bd600083018461162c565b92915050565b60006117ce8261175a565b9050919050565b6117de816117c3565b82525050565b60006020820190506117f960008301846117d5565b92915050565b60008115159050919050565b611814816117ff565b82525050565b600060208201905061182f600083018461180b565b92915050565b600080fd5b600080fd5b600080fd5b60008083601f84011261185a57611859611835565b5b8235905067ffffffffffffffff8111156118775761187661183a565b5b6020830191508360208202830111156118935761189261183f565b5b9250929050565b600080602083850312156118b1576118b0611478565b5b600083013567ffffffffffffffff8111156118cf576118ce61147d565b5b6118db85828601611844565b92509250509250929050565b600080fd5b7f4e487b7100000000000000000000000000000000000000000000000000000000600052604160045260246000fd5b6119248261168a565b810181811067ffffffffffffffff82111715611943576119426118ec565b5b80604052505050565b600061195661146e565b9050611962828261191b565b919050565b600067ffffffffffffffff821115611982576119816118ec565b5b61198b8261168a565b9050602081019050919050565b82818337600083830152505050565b60006119ba6119b584611967565b61194c565b9050828152602081018484840111156119d6576119d56118e7565b5b6119e1848285611998565b509392505050565b600082601f8301126119fe576119fd611835565b5b8135611a0e8482602086016119a7565b91505092915050565b600080600080600060a08688031215611a3357611a32611478565b5b6000611a41888289016115ea565b955050602086013567ffffffffffffffff811115611a6257611a6161147d565b5b611a6e888289016119e9565b9450506040611a7f888289016115ea565b9350506060611a90888289016115ea565b9250506080611aa1888289016115ea565b9150509295509295909350565b600081519050919050565b600082825260208201905092915050565b6000819050602082019050919050565b611ae3816114a2565b82525050565b6000611af58383611ada565b60208301905092915050565b6000602082019050919050565b6000611b1982611aae565b611b238185611ab9565b9350611b2e83611aca565b8060005b83811015611b5f578151611b468882611ae9565b9750611b5183611b01565b925050600181019050611b32565b5085935050505092915050565b60006020820190508181036000830152611b868184611b0e565b905092915050565b6000819050919050565b611ba181611b8e565b82525050565b6000604082019050611bbc6000830185611b98565b611bc9602083018461159f565b9392505050565b611bd9816117ff565b8114611be457600080fd5b50565b600081519050611bf681611bd0565b92915050565b600060208284031215611c1257611c11611478565b5b6000611c2084828501611be7565b91505092915050565b7f53433a204f6e6c79204c65637475726572000000000000000000000000000000600082015250565b6000611c5f601183611646565b9150611c6a82611c29565b602082019050919050565b60006020820190508181036000830152611c8e81611c52565b9050919050565b7f4572726f72207768656e2072656d6f7665000000000000000000000000000000600082015250565b6000611ccb601183611646565b9150611cd682611c95565b602082019050919050565b60006020820190508181036000830152611cfa81611cbe565b9050919050565b7f4e487b7100000000000000000000000000000000000000000000000000000000600052601160045260246000fd5b6000611d3b826115c9565b915060008203611d4e57611d4d611d01565b5b600182039050919050565b7f4e487b7100000000000000000000000000000000000000000000000000000000600052603260045260246000fd5b7f4f6e6c79204f776e657200000000000000000000000000000000000000000000600082015250565b6000611dbe600a83611646565b9150611dc982611d88565b602082019050919050565b60006020820190508181036000830152611ded81611db1565b9050919050565b7f4e6f742079657420726561647900000000000000000000000000000000000000600082015250565b6000611e2a600d83611646565b9150611e3582611df4565b602082019050919050565b60006020820190508181036000830152611e5981611e1d565b9050919050565b6000604082019050611e75600083018561159f565b611e82602083018461162c565b9392505050565b6000611e94826115c9565b91507fffffffffffffffffffffffffffffffffffffffffffffffffffffffffffffffff8203611ec657611ec5611d01565b5b600182019050919050565b7f4e487b7100000000000000000000000000000000000000000000000000000000600052602260045260246000fd5b60006002820490506001821680611f1857607f821691505b602082108103611f2b57611f2a611ed1565b5b50919050565b7f53433a204f6e6c79204c6f636b00000000000000000000000000000000000000600082015250565b6000611f67600d83611646565b9150611f7282611f31565b602082019050919050565b60006020820190508181036000830152611f9681611f5a565b9050919050565b7f53433a204f6e6c79204f70656e00000000000000000000000000000000000000600082015250565b6000611fd3600d83611646565b9150611fde82611f9d565b602082019050919050565b6000602082019050818103600083015261200281611fc6565b9050919050565b7f53686f756c64206f6e6c79206164642073747564656e74000000000000000000600082015250565b600061203f601783611646565b915061204a82612009565b602082019050919050565b6000602082019050818103600083015261206e81612032565b9050919050565b7f4164646564000000000000000000000000000000000000000000000000000000600082015250565b60006120ab600583611646565b91506120b682612075565b602082019050919050565b600060208201905081810360008301526120da8161209e565b9050919050565b60006120ec826115c9565b91506120f7836115c9565b92508282101561210a57612109611d01565b5b828203905092915050565b7f53433a2041776172642073686f756c642067726561746572207468616e205a6560008201527f726f000000000000000000000000000000000000000000000000000000000000602082015250565b6000612171602283611646565b915061217c82612115565b604082019050919050565b600060208201905081810360008301526121a081612164565b9050919050565b7f53433a2054696d6520697320696e76616c696400000000000000000000000000600082015250565b60006121dd601383611646565b91506121e8826121a7565b602082019050919050565b6000602082019050818103600083015261220c816121d0565b905091905056fea2646970667358221220800cdd4ca8480c72c51e86e51f4201d6f9954e27224510b034a0b0625851394c64736f6c634300080d0033",
  "immutableReferences": {
    "7260": [
      {
        "length": 32,
        "start": 1517
      },
      {
        "length": 32,
        "start": 2050
      },
      {
        "length": 32,
        "start": 2372
      },
      {
        "length": 32,
        "start": 3995
      }
    ]
  },
  "source": "//SPDX-License-Identifier: UNLICENSED\r\npragma solidity >=0.8.0;\r\n\r\nimport \"./interfaces/IScholarshipContract.sol\";\r\nimport \"./interfaces/IAccessControl.sol\";\r\nimport \"./interfaces/IRewardDistributor.sol\";\r\n\r\ncontract ScholarshipContract is IScholarshipContract {\r\n    using SafeERC20 for IERC20;\r\n    address public immutable owner;\r\n    Scholarship public scholarship;\r\n    Status public status = Status.Lock;\r\n\r\n    address public UITToken;\r\n    IAccessControl public accessControll;\r\n    IRewardDistributor public rewardDistributor;\r\n\r\n    address[] public participants;\r\n    uint256 public amount;\r\n    mapping(address => uint256) public participantToIndex;\r\n    mapping(address => bool) public participantToTrue;\r\n\r\n    modifier onlyLock() {\r\n        require(status == Status.Lock, \"SC: Only Lock\");\r\n        _;\r\n    }\r\n\r\n    modifier onlyOpen() {\r\n        require(status == Status.Open, \"SC: Only Open\");\r\n        _;\r\n    }\r\n\r\n    modifier onlyOwner() {\r\n        require(msg.sender == owner, \"Only Owner\");\r\n        _;\r\n    }\r\n\r\n    modifier onlyRoleAdmin() {\r\n        require(\r\n            accessControll.hasRole(keccak256(\"ADMIN\"), msg.sender),\r\n            \"SC: Only Lecturer\"\r\n        );\r\n        _;\r\n    }\r\n\r\n    modifier onlyRoleStudent() {\r\n        require(\r\n            accessControll.hasRole(keccak256(\"STUDENT\"), msg.sender),\r\n            \"SC: Only Student\"\r\n        );\r\n        _;\r\n    }\r\n\r\n    constructor(\r\n        address _owner,\r\n        address _accessControll,\r\n        address _rewardDistributor\r\n    ) {\r\n        owner = _owner;\r\n        accessControll = IAccessControl(_accessControll);\r\n        rewardDistributor = IRewardDistributor(_rewardDistributor);\r\n    }\r\n\r\n    function setBasicForScholarship(\r\n        uint256 _scholarshipId,\r\n        string memory _urlMetadata,\r\n        uint256 _award,\r\n        uint256 _startTime,\r\n        uint256 _endTime\r\n    ) external override onlyOwner onlyLock {\r\n        require(_award > 0, \"SC: Award should greater than Zero\");\r\n        require(\r\n            block.timestamp < _startTime && _startTime < _endTime,\r\n            \"SC: Time is invalid\"\r\n        );\r\n\r\n        scholarship = Scholarship(\r\n            _scholarshipId,\r\n            _urlMetadata,\r\n            _award,\r\n            _startTime,\r\n            _endTime\r\n        );\r\n    }\r\n\r\n    function start() external override onlyOwner onlyLock {\r\n        status = Status.Open;\r\n    }\r\n\r\n    function addStudentToScholarship(address[] calldata _students)\r\n        external\r\n        override\r\n        onlyRoleAdmin\r\n        onlyOpen\r\n    {\r\n        for (uint256 i = 0; i < _students.length; i++) {\r\n            require(\r\n                accessControll.hasRole(keccak256(\"STUDENT\"), _students[i]),\r\n                \"Should only add student\"\r\n            );\r\n            require(!participantToTrue[_students[i]], \"Added\");\r\n            participants.push(_students[i]);\r\n            participantToIndex[_students[i]] = participants.length - 1;\r\n            participantToTrue[_students[i]] = true;\r\n            amount++;\r\n        }\r\n    }\r\n\r\n    function removeStudentFromScholarship(address _student)\r\n        external\r\n        override\r\n        onlyRoleAdmin\r\n    {\r\n        require(participantToTrue[_student], \"Error when remove\");\r\n        uint256 index = participantToIndex[_student];\r\n        participantToTrue[_student] = false;\r\n        amount--;\r\n        delete participants[index];\r\n    }\r\n\r\n    function close() external override onlyOwner {\r\n        require(block.timestamp > scholarship.endTime, \"Not yet ready\");\r\n        status = Status.Close;\r\n        address[] memory student = getParticipantList();\r\n        for (uint256 i = 0; i < amount; i++) {\r\n            rewardDistributor.distributeReward(student[i], scholarship.award);\r\n        }\r\n        emit Close(block.timestamp);\r\n    }\r\n\r\n    function getParticipantList()\r\n        public\r\n        view\r\n        override\r\n        returns (address[] memory)\r\n    {\r\n        address[] memory student = new address[](participants.length);\r\n        uint256 index;\r\n        for (uint256 i = 0; i < participants.length; i++) {\r\n            if (\r\n                participantToTrue[participants[i]] &&\r\n                participants[i] != address(0)\r\n            ) {\r\n                student[index] = participants[i];\r\n                index++;\r\n            }\r\n        }\r\n        return student;\r\n    }\r\n}\r\n",
  "sourcePath": "E:\\KLTN\\KLTN\\KLTN-contracts\\contracts\\studentmanager\\ScholarshipContract.sol",
  "compiler": {
    "name": "solc",
    "version": "0.8.13+commit.abaa5c0e.Emscripten.clang"
  },
  "schemaVersion": "3.4.3",
  "updatedAt": "2022-05-14T13:42:58.536Z",
  "devdoc": {
    "kind": "dev",
    "methods": {},
    "version": 1
  },
  "userdoc": {
    "kind": "user",
    "methods": {},
    "version": 1
  }
}