{
  "contractName": "ScholarshipContract",
  "abi": [
    {
      "inputs": [
        {
          "internalType": "address",
          "name": "_owner",
          "type": "address"
        },
        {
          "internalType": "address",
          "name": "_accessControll",
          "type": "address"
        },
        {
          "internalType": "address",
          "name": "_rewardDistributor",
          "type": "address"
        }
      ],
      "stateMutability": "nonpayable",
      "type": "constructor"
    },
    {
      "anonymous": false,
      "inputs": [
        {
          "indexed": false,
          "internalType": "uint256",
          "name": "studentsAmount",
          "type": "uint256"
        },
        {
          "indexed": false,
          "internalType": "uint256",
          "name": "timestamp",
          "type": "uint256"
        }
      ],
      "name": "AddStudentToScholarship",
      "type": "event"
    },
    {
      "anonymous": false,
      "inputs": [
        {
          "indexed": false,
          "internalType": "address",
          "name": "_student",
          "type": "address"
        }
      ],
      "name": "CancelRegister",
      "type": "event"
    },
    {
      "anonymous": false,
      "inputs": [
        {
          "indexed": false,
          "internalType": "uint256",
          "name": "timestamp",
          "type": "uint256"
        }
      ],
      "name": "Close",
      "type": "event"
    },
    {
      "anonymous": false,
      "inputs": [
        {
          "indexed": false,
          "internalType": "uint256",
          "name": "studentsAmount",
          "type": "uint256"
        },
        {
          "indexed": false,
          "internalType": "uint256",
          "name": "timestamp",
          "type": "uint256"
        }
      ],
      "name": "Confirm",
      "type": "event"
    },
    {
      "anonymous": false,
      "inputs": [
        {
          "indexed": true,
          "internalType": "uint256",
          "name": "id",
          "type": "uint256"
        }
      ],
      "name": "CreatedNewTuition",
      "type": "event"
    },
    {
      "anonymous": false,
      "inputs": [
        {
          "indexed": false,
          "internalType": "address",
          "name": "_student",
          "type": "address"
        }
      ],
      "name": "Register",
      "type": "event"
    },
    {
      "anonymous": false,
      "inputs": [
        {
          "indexed": false,
          "internalType": "uint256",
          "name": "studentsAmount",
          "type": "uint256"
        },
        {
          "indexed": false,
          "internalType": "uint256",
          "name": "timestamp",
          "type": "uint256"
        }
      ],
      "name": "UnConfirm",
      "type": "event"
    },
    {
      "inputs": [],
      "name": "accessControll",
      "outputs": [
        {
          "internalType": "contract IAccessControl",
          "name": "",
          "type": "address"
        }
      ],
      "stateMutability": "view",
      "type": "function"
    },
    {
      "inputs": [
        {
          "internalType": "address",
          "name": "",
          "type": "address"
        }
      ],
      "name": "addressIsExist",
      "outputs": [
        {
          "internalType": "bool",
          "name": "",
          "type": "bool"
        }
      ],
      "stateMutability": "view",
      "type": "function"
    },
    {
      "inputs": [],
      "name": "amount",
      "outputs": [
        {
          "internalType": "uint256",
          "name": "",
          "type": "uint256"
        }
      ],
      "stateMutability": "view",
      "type": "function"
    },
    {
      "inputs": [
        {
          "internalType": "address",
          "name": "",
          "type": "address"
        }
      ],
      "name": "completedAddress",
      "outputs": [
        {
          "internalType": "bool",
          "name": "",
          "type": "bool"
        }
      ],
      "stateMutability": "view",
      "type": "function"
    },
    {
      "inputs": [],
      "name": "owner",
      "outputs": [
        {
          "internalType": "address",
          "name": "",
          "type": "address"
        }
      ],
      "stateMutability": "view",
      "type": "function"
    },
    {
      "inputs": [
        {
          "internalType": "address",
          "name": "",
          "type": "address"
        }
      ],
      "name": "participantToTrue",
      "outputs": [
        {
          "internalType": "bool",
          "name": "",
          "type": "bool"
        }
      ],
      "stateMutability": "view",
      "type": "function"
    },
    {
      "inputs": [
        {
          "internalType": "uint256",
          "name": "",
          "type": "uint256"
        }
      ],
      "name": "participants",
      "outputs": [
        {
          "internalType": "address",
          "name": "",
          "type": "address"
        }
      ],
      "stateMutability": "view",
      "type": "function"
    },
    {
      "inputs": [],
      "name": "rewardDistributor",
      "outputs": [
        {
          "internalType": "contract IRewardDistributor",
          "name": "",
          "type": "address"
        }
      ],
      "stateMutability": "view",
      "type": "function"
    },
    {
      "inputs": [],
      "name": "scholarship",
      "outputs": [
        {
          "internalType": "string",
          "name": "Id",
          "type": "string"
        },
        {
          "internalType": "string",
          "name": "urlMetadata",
          "type": "string"
        },
        {
          "internalType": "uint256",
          "name": "award",
          "type": "uint256"
        },
        {
          "internalType": "address",
          "name": "persionInCharge",
          "type": "address"
        },
        {
          "internalType": "uint256",
          "name": "startTime",
          "type": "uint256"
        },
        {
          "internalType": "uint256",
          "name": "endTimeToRegister",
          "type": "uint256"
        },
        {
          "internalType": "uint256",
          "name": "endTime",
          "type": "uint256"
        },
        {
          "internalType": "uint256",
          "name": "endTimeToConfirm",
          "type": "uint256"
        }
      ],
      "stateMutability": "view",
      "type": "function"
    },
    {
      "inputs": [],
      "name": "status",
      "outputs": [
        {
          "internalType": "enum IScholarshipContract.Status",
          "name": "",
          "type": "uint8"
        }
      ],
      "stateMutability": "view",
      "type": "function"
    },
    {
      "inputs": [
        {
          "internalType": "string",
          "name": "_scholarshipId",
          "type": "string"
        },
        {
          "internalType": "string",
          "name": "_urlMetadata",
          "type": "string"
        },
        {
          "internalType": "uint256",
          "name": "_award",
          "type": "uint256"
        },
        {
          "internalType": "address",
          "name": "_persionInCharge",
          "type": "address"
        },
        {
          "internalType": "uint256",
          "name": "_startTime",
          "type": "uint256"
        },
        {
          "internalType": "uint256",
          "name": "_endTime",
          "type": "uint256"
        },
        {
          "internalType": "uint256",
          "name": "_endTimeToRegister",
          "type": "uint256"
        },
        {
          "internalType": "uint256",
          "name": "_endTimeToConfirm",
          "type": "uint256"
        }
      ],
      "name": "setBasicForScholarship",
      "outputs": [],
      "stateMutability": "nonpayable",
      "type": "function"
    },
    {
      "inputs": [],
      "name": "start",
      "outputs": [],
      "stateMutability": "nonpayable",
      "type": "function"
    },
    {
      "inputs": [],
      "name": "lock",
      "outputs": [],
      "stateMutability": "nonpayable",
      "type": "function"
    },
    {
      "inputs": [
        {
          "internalType": "address[]",
          "name": "_students",
          "type": "address[]"
        }
      ],
      "name": "addStudentToScholarship",
      "outputs": [],
      "stateMutability": "nonpayable",
      "type": "function"
    },
    {
      "inputs": [],
      "name": "register",
      "outputs": [],
      "stateMutability": "nonpayable",
      "type": "function"
    },
    {
      "inputs": [],
      "name": "cancelRegister",
      "outputs": [],
      "stateMutability": "nonpayable",
      "type": "function"
    },
    {
      "inputs": [
        {
          "internalType": "address[]",
          "name": "_students",
          "type": "address[]"
        }
      ],
      "name": "confirmCompletedAddress",
      "outputs": [],
      "stateMutability": "nonpayable",
      "type": "function"
    },
    {
      "inputs": [
        {
          "internalType": "address[]",
          "name": "_students",
          "type": "address[]"
        }
      ],
      "name": "unConfirmCompletedAddress",
      "outputs": [],
      "stateMutability": "nonpayable",
      "type": "function"
    },
    {
      "inputs": [],
      "name": "close",
      "outputs": [],
      "stateMutability": "nonpayable",
      "type": "function"
    },
    {
      "inputs": [],
      "name": "isReadyToClose",
      "outputs": [
        {
          "internalType": "bool",
          "name": "",
          "type": "bool"
        }
      ],
      "stateMutability": "view",
      "type": "function"
    },
    {
      "inputs": [],
      "name": "getParticipantListCompleted",
      "outputs": [
        {
          "internalType": "address[]",
          "name": "",
          "type": "address[]"
        }
      ],
      "stateMutability": "view",
      "type": "function"
    }
  ],
  "bytecode": "0x60a06040526000600860006101000a81548160ff021916908360028111156200002d576200002c62000124565b5b02179055503480156200003f57600080fd5b5060405162003459380380620034598339818101604052810190620000659190620001bd565b8273ffffffffffffffffffffffffffffffffffffffff1660808173ffffffffffffffffffffffffffffffffffffffff168152505081600860016101000a81548173ffffffffffffffffffffffffffffffffffffffff021916908373ffffffffffffffffffffffffffffffffffffffff16021790555080600960006101000a81548173ffffffffffffffffffffffffffffffffffffffff021916908373ffffffffffffffffffffffffffffffffffffffff16021790555050505062000219565b7f4e487b7100000000000000000000000000000000000000000000000000000000600052602160045260246000fd5b600080fd5b600073ffffffffffffffffffffffffffffffffffffffff82169050919050565b6000620001858262000158565b9050919050565b620001978162000178565b8114620001a357600080fd5b50565b600081519050620001b7816200018c565b92915050565b600080600060608486031215620001d957620001d862000153565b5b6000620001e986828701620001a6565b9350506020620001fc86828701620001a6565b92505060406200020f86828701620001a6565b9150509250925092565b608051613208620002516000396000818161056701528181610b3701528181610f00015281816110310152611da101526132086000f3fe608060405234801561001057600080fd5b50600436106101375760003560e01c8063aa4936ce116100b8578063c2505eb61161007c578063c2505eb6146102eb578063d16e57fe14610307578063dc676ee214610323578063e0e3adcf1461033f578063ec39670e1461035b578063f83d08ba1461038b57610137565b8063aa4936ce14610257578063aa8c217c14610275578063acc2166a14610293578063b1319f41146102b1578063be9a6555146102e157610137565b806384713897116100ff57806384713897146101a85780638da5cb5b146101c6578063a32fb342146101e4578063a753977514610214578063a7f44e0d1461023957610137565b80631aa3a0081461013c578063200d2ed21461014657806335c1d3491461016457806343d726d61461019457806349aa70331461019e575b600080fd5b610144610395565b005b61014e610513565b60405161015b9190612276565b60405180910390f35b61017e600480360381019061017991906122db565b610526565b60405161018b9190612349565b60405180910390f35b61019c610565565b005b6101a6610808565b005b6101b0610ab0565b6040516101bd919061237f565b60405180910390f35b6101ce610b35565b6040516101db9190612349565b60405180910390f35b6101fe60048036038101906101f991906123c6565b610b59565b60405161020b919061237f565b60405180910390f35b61021c610b79565b60405161023098979695949392919061249b565b60405180910390f35b610241610cdf565b60405161024e91906125e5565b60405180910390f35b61025f610e8c565b60405161026c9190612666565b60405180910390f35b61027d610eb2565b60405161028a9190612681565b60405180910390f35b61029b610eb8565b6040516102a891906126bd565b60405180910390f35b6102cb60048036038101906102c691906123c6565b610ede565b6040516102d8919061237f565b60405180910390f35b6102e9610efe565b005b6103056004803603810190610300919061280d565b61102f565b005b610321600480360381019061031c919061295b565b6112ea565b005b61033d6004803603810190610338919061295b565b611612565b005b6103596004803603810190610354919061295b565b611a57565b005b610375600480360381019061037091906123c6565b611d7f565b604051610382919061237f565b60405180910390f35b610393611d9f565b005b600860019054906101000a900473ffffffffffffffffffffffffffffffffffffffff1673ffffffffffffffffffffffffffffffffffffffff166391d148547fc951d7098b66ba0b8b77265b6e9cf0e187d73125a42bcd0061b09a68be421810336040518363ffffffff1660e01b81526004016104129291906129c1565b602060405180830381865afa15801561042f573d6000803e3d6000fd5b505050506040513d601f19601f820116820180604052508101906104539190612a16565b610492576040517f08c379a000000000000000000000000000000000000000000000000000000000815260040161048990612a8f565b60405180910390fd5b600160028111156104a6576104a56121ff565b5b600860009054906101000a900460ff1660028111156104c8576104c76121ff565b5b14610508576040517f08c379a00000000000000000000000000000000000000000000000000000000081526004016104ff90612afb565b60405180910390fd5b61051133611ed0565b565b600860009054906101000a900460ff1681565b600a818154811061053657600080fd5b906000526020600020016000915054906101000a900473ffffffffffffffffffffffffffffffffffffffff1681565b7f000000000000000000000000000000000000000000000000000000000000000073ffffffffffffffffffffffffffffffffffffffff163373ffffffffffffffffffffffffffffffffffffffff16146105f3576040517f08c379a00000000000000000000000000000000000000000000000000000000081526004016105ea90612b67565b60405180910390fd5b60016002811115610607576106066121ff565b5b600860009054906101000a900460ff166002811115610629576106286121ff565b5b14610669576040517f08c379a000000000000000000000000000000000000000000000000000000000815260040161066090612afb565b60405180910390fd5b600060070154421161067a57600080fd5b6002600860006101000a81548160ff021916908360028111156106a05761069f6121ff565b5b021790555060006106af610cdf565b905060005b81518110156107cd57600073ffffffffffffffffffffffffffffffffffffffff168282815181106106e8576106e7612b87565b5b602002602001015173ffffffffffffffffffffffffffffffffffffffff16146107ba57600960009054906101000a900473ffffffffffffffffffffffffffffffffffffffff1673ffffffffffffffffffffffffffffffffffffffff16631ec8bb8c83838151811061075c5761075b612b87565b5b60200260200101516000600201546040518363ffffffff1660e01b8152600401610787929190612bb6565b600060405180830381600087803b1580156107a157600080fd5b505af11580156107b5573d6000803e3d6000fd5b505050505b80806107c590612c0e565b9150506106b4565b507fbf67515a38ee520223d32c1266d52101c30d936ed1f3e436c8caeb0a43cb06bf426040516107fd9190612681565b60405180910390a150565b600860019054906101000a900473ffffffffffffffffffffffffffffffffffffffff1673ffffffffffffffffffffffffffffffffffffffff166391d148547fc951d7098b66ba0b8b77265b6e9cf0e187d73125a42bcd0061b09a68be421810336040518363ffffffff1660e01b81526004016108859291906129c1565b602060405180830381865afa1580156108a2573d6000803e3d6000fd5b505050506040513d601f19601f820116820180604052508101906108c69190612a16565b610905576040517f08c379a00000000000000000000000000000000000000000000000000000000081526004016108fc90612a8f565b60405180910390fd5b60016002811115610919576109186121ff565b5b600860009054906101000a900460ff16600281111561093b5761093a6121ff565b5b1461097b576040517f08c379a000000000000000000000000000000000000000000000000000000000815260040161097290612afb565b60405180910390fd5b600e60003373ffffffffffffffffffffffffffffffffffffffff1673ffffffffffffffffffffffffffffffffffffffff16815260200190815260200160002060009054906101000a900460ff16610a07576040517f08c379a00000000000000000000000000000000000000000000000000000000081526004016109fe90612ca2565b60405180910390fd5b600b6000815480929190610a1a90612cc2565b91905055506000600e60003373ffffffffffffffffffffffffffffffffffffffff1673ffffffffffffffffffffffffffffffffffffffff16815260200190815260200160002060006101000a81548160ff0219169083151502179055507ff17af794e4e37f4197945e514e5342eecc58b67704516bbe3c41a0be1e8db06233604051610aa69190612349565b60405180910390a1565b600060016002811115610ac657610ac56121ff565b5b600860009054906101000a900460ff166002811115610ae857610ae76121ff565b5b14610b28576040517f08c379a0000000000000000000000000000000000000000000000000000000008152600401610b1f90612afb565b60405180910390fd5b6000600601544211905090565b7f000000000000000000000000000000000000000000000000000000000000000081565b600d6020528060005260406000206000915054906101000a900460ff1681565b6000806000018054610b8a90612d1a565b80601f0160208091040260200160405190810160405280929190818152602001828054610bb690612d1a565b8015610c035780601f10610bd857610100808354040283529160200191610c03565b820191906000526020600020905b815481529060010190602001808311610be657829003601f168201915b505050505090806001018054610c1890612d1a565b80601f0160208091040260200160405190810160405280929190818152602001828054610c4490612d1a565b8015610c915780601f10610c6657610100808354040283529160200191610c91565b820191906000526020600020905b815481529060010190602001808311610c7457829003601f168201915b5050505050908060020154908060030160009054906101000a900473ffffffffffffffffffffffffffffffffffffffff16908060040154908060050154908060060154908060070154905088565b60606000600b5467ffffffffffffffff811115610cff57610cfe6126e2565b5b604051908082528060200260200182016040528015610d2d5781602001602082028036833780820191505090505b509050600080600090505b600a80549050811015610e8357600d6000600a8381548110610d5d57610d5c612b87565b5b9060005260206000200160009054906101000a900473ffffffffffffffffffffffffffffffffffffffff1673ffffffffffffffffffffffffffffffffffffffff1673ffffffffffffffffffffffffffffffffffffffff16815260200190815260200160002060009054906101000a900460ff1615610e7057600a8181548110610de957610de8612b87565b5b9060005260206000200160009054906101000a900473ffffffffffffffffffffffffffffffffffffffff16838381518110610e2757610e26612b87565b5b602002602001019073ffffffffffffffffffffffffffffffffffffffff16908173ffffffffffffffffffffffffffffffffffffffff16815250508180610e6c90612c0e565b9250505b8080610e7b90612c0e565b915050610d38565b50819250505090565b600860019054906101000a900473ffffffffffffffffffffffffffffffffffffffff1681565b600b5481565b600960009054906101000a900473ffffffffffffffffffffffffffffffffffffffff1681565b600e6020528060005260406000206000915054906101000a900460ff1681565b7f000000000000000000000000000000000000000000000000000000000000000073ffffffffffffffffffffffffffffffffffffffff163373ffffffffffffffffffffffffffffffffffffffff1614610f8c576040517f08c379a0000000000000000000000000000000000000000000000000000000008152600401610f8390612b67565b60405180910390fd5b60006002811115610fa057610f9f6121ff565b5b600860009054906101000a900460ff166002811115610fc257610fc16121ff565b5b14611002576040517f08c379a0000000000000000000000000000000000000000000000000000000008152600401610ff990612d97565b60405180910390fd5b6001600860006101000a81548160ff02191690836002811115611028576110276121ff565b5b0217905550565b7f000000000000000000000000000000000000000000000000000000000000000073ffffffffffffffffffffffffffffffffffffffff163373ffffffffffffffffffffffffffffffffffffffff16146110bd576040517f08c379a00000000000000000000000000000000000000000000000000000000081526004016110b490612b67565b60405180910390fd5b600060028111156110d1576110d06121ff565b5b600860009054906101000a900460ff1660028111156110f3576110f26121ff565b5b14611133576040517f08c379a000000000000000000000000000000000000000000000000000000000815260040161112a90612d97565b60405180910390fd5b60008611611176576040517f08c379a000000000000000000000000000000000000000000000000000000000815260040161116d90612e29565b60405180910390fd5b834210801561118457508184105b801561118f57508282105b801561119a57508083105b6111d9576040517f08c379a00000000000000000000000000000000000000000000000000000000081526004016111d090612e95565b60405180910390fd5b6040518061010001604052808981526020018881526020018781526020018673ffffffffffffffffffffffffffffffffffffffff1681526020018581526020018381526020018481526020018281525060008082015181600001908051906020019061124692919061215c565b50602082015181600101908051906020019061126392919061215c565b506040820151816002015560608201518160030160006101000a81548173ffffffffffffffffffffffffffffffffffffffff021916908373ffffffffffffffffffffffffffffffffffffffff1602179055506080820151816004015560a0820151816005015560c0820151816006015560e082015181600701559050505050505050505050565b600860019054906101000a900473ffffffffffffffffffffffffffffffffffffffff1673ffffffffffffffffffffffffffffffffffffffff166391d148547fb39b9469ac3ddf8d58f06201f7e17350a277b429ed2a39727bf2f3a5165dba1a336040518363ffffffff1660e01b81526004016113679291906129c1565b602060405180830381865afa158015611384573d6000803e3d6000fd5b505050506040513d601f19601f820116820180604052508101906113a89190612a16565b6113e7576040517f08c379a00000000000000000000000000000000000000000000000000000000081526004016113de90612f01565b60405180910390fd5b600160028111156113fb576113fa6121ff565b5b600860009054906101000a900460ff16600281111561141d5761141c6121ff565b5b1461145d576040517f08c379a000000000000000000000000000000000000000000000000000000000815260040161145490612afb565b60405180910390fd5b60006006015442118015611475575060006007015442105b61147e57600080fd5b60005b828290508110156115d157600e60008484848181106114a3576114a2612b87565b5b90506020020160208101906114b891906123c6565b73ffffffffffffffffffffffffffffffffffffffff1673ffffffffffffffffffffffffffffffffffffffff16815260200190815260200160002060009054906101000a900460ff1661153f576040517f08c379a000000000000000000000000000000000000000000000000000000000815260040161153690612f6d565b60405180910390fd5b6001600d600085858581811061155857611557612b87565b5b905060200201602081019061156d91906123c6565b73ffffffffffffffffffffffffffffffffffffffff1673ffffffffffffffffffffffffffffffffffffffff16815260200190815260200160002060006101000a81548160ff02191690831515021790555080806115c990612c0e565b915050611481565b507f698dd5b92696456649e8994759ccfe7076b1ebe9096ecb083211d8bfe81638428282905042604051611606929190612f8d565b60405180910390a15050565b600860019054906101000a900473ffffffffffffffffffffffffffffffffffffffff1673ffffffffffffffffffffffffffffffffffffffff166391d148547fdf8b4c520ffe197c5343c6f5aec59570151ef9a492f2c624fd45ddde6135ec42336040518363ffffffff1660e01b815260040161168f9291906129c1565b602060405180830381865afa1580156116ac573d6000803e3d6000fd5b505050506040513d601f19601f820116820180604052508101906116d09190612a16565b806117955750600860019054906101000a900473ffffffffffffffffffffffffffffffffffffffff1673ffffffffffffffffffffffffffffffffffffffff166391d148547fb39b9469ac3ddf8d58f06201f7e17350a277b429ed2a39727bf2f3a5165dba1a336040518363ffffffff1660e01b81526004016117539291906129c1565b602060405180830381865afa158015611770573d6000803e3d6000fd5b505050506040513d601f19601f820116820180604052508101906117949190612a16565b5b6117d4576040517f08c379a00000000000000000000000000000000000000000000000000000000081526004016117cb90613002565b60405180910390fd5b600160028111156117e8576117e76121ff565b5b600860009054906101000a900460ff16600281111561180a576118096121ff565b5b1461184a576040517f08c379a000000000000000000000000000000000000000000000000000000000815260040161184190612afb565b60405180910390fd5b600060030160009054906101000a900473ffffffffffffffffffffffffffffffffffffffff1673ffffffffffffffffffffffffffffffffffffffff163373ffffffffffffffffffffffffffffffffffffffff16146118dd576040517f08c379a00000000000000000000000000000000000000000000000000000000081526004016118d49061306e565b60405180910390fd5b60005b82829050811015611a5257600860019054906101000a900473ffffffffffffffffffffffffffffffffffffffff1673ffffffffffffffffffffffffffffffffffffffff166391d148547fc951d7098b66ba0b8b77265b6e9cf0e187d73125a42bcd0061b09a68be42181085858581811061195d5761195c612b87565b5b905060200201602081019061197291906123c6565b6040518363ffffffff1660e01b815260040161198f9291906129c1565b602060405180830381865afa1580156119ac573d6000803e3d6000fd5b505050506040513d601f19601f820116820180604052508101906119d09190612a16565b611a0f576040517f08c379a0000000000000000000000000000000000000000000000000000000008152600401611a06906130da565b60405180910390fd5b611a3f838383818110611a2557611a24612b87565b5b9050602002016020810190611a3a91906123c6565b611ed0565b8080611a4a90612c0e565b9150506118e0565b505050565b600860019054906101000a900473ffffffffffffffffffffffffffffffffffffffff1673ffffffffffffffffffffffffffffffffffffffff166391d148547fb39b9469ac3ddf8d58f06201f7e17350a277b429ed2a39727bf2f3a5165dba1a336040518363ffffffff1660e01b8152600401611ad49291906129c1565b602060405180830381865afa158015611af1573d6000803e3d6000fd5b505050506040513d601f19601f82011682018060405250810190611b159190612a16565b611b54576040517f08c379a0000000000000000000000000000000000000000000000000000000008152600401611b4b90612f01565b60405180910390fd5b60016002811115611b6857611b676121ff565b5b600860009054906101000a900460ff166002811115611b8a57611b896121ff565b5b14611bca576040517f08c379a0000000000000000000000000000000000000000000000000000000008152600401611bc190612afb565b60405180910390fd5b60006006015442118015611be2575060006007015442105b611beb57600080fd5b60005b82829050811015611d3e57600d6000848484818110611c1057611c0f612b87565b5b9050602002016020810190611c2591906123c6565b73ffffffffffffffffffffffffffffffffffffffff1673ffffffffffffffffffffffffffffffffffffffff16815260200190815260200160002060009054906101000a900460ff16611cac576040517f08c379a0000000000000000000000000000000000000000000000000000000008152600401611ca390612f6d565b60405180910390fd5b6000600d6000858585818110611cc557611cc4612b87565b5b9050602002016020810190611cda91906123c6565b73ffffffffffffffffffffffffffffffffffffffff1673ffffffffffffffffffffffffffffffffffffffff16815260200190815260200160002060006101000a81548160ff0219169083151502179055508080611d3690612c0e565b915050611bee565b507fc791d7751013e9f89337798e40ebe9dab990e5c7b8b37e845afdf06c219c57ad8282905042604051611d73929190612f8d565b60405180910390a15050565b600c6020528060005260406000206000915054906101000a900460ff1681565b7f000000000000000000000000000000000000000000000000000000000000000073ffffffffffffffffffffffffffffffffffffffff163373ffffffffffffffffffffffffffffffffffffffff1614611e2d576040517f08c379a0000000000000000000000000000000000000000000000000000000008152600401611e2490612b67565b60405180910390fd5b60016002811115611e4157611e406121ff565b5b600860009054906101000a900460ff166002811115611e6357611e626121ff565b5b14611ea3576040517f08c379a0000000000000000000000000000000000000000000000000000000008152600401611e9a90612afb565b60405180910390fd5b6000600860006101000a81548160ff02191690836002811115611ec957611ec86121ff565b5b0217905550565b600060050154421115611f18576040517f08c379a0000000000000000000000000000000000000000000000000000000008152600401611f0f90613146565b60405180910390fd5b600e60008273ffffffffffffffffffffffffffffffffffffffff1673ffffffffffffffffffffffffffffffffffffffff16815260200190815260200160002060009054906101000a900460ff1615611fa5576040517f08c379a0000000000000000000000000000000000000000000000000000000008152600401611f9c906131b2565b60405180910390fd5b600b6000815480929190611fb890612c0e565b9190505550600c60008273ffffffffffffffffffffffffffffffffffffffff1673ffffffffffffffffffffffffffffffffffffffff16815260200190815260200160002060009054906101000a900460ff1661207257600a819080600181540180825580915050600190039060005260206000200160009091909190916101000a81548173ffffffffffffffffffffffffffffffffffffffff021916908373ffffffffffffffffffffffffffffffffffffffff1602179055505b6001600c60008373ffffffffffffffffffffffffffffffffffffffff1673ffffffffffffffffffffffffffffffffffffffff16815260200190815260200160002060006101000a81548160ff0219169083151502179055506001600e60008373ffffffffffffffffffffffffffffffffffffffff1673ffffffffffffffffffffffffffffffffffffffff16815260200190815260200160002060006101000a81548160ff0219169083151502179055507feeda149c76076b34d4b9d8896c2f7efc0d33d1c7b53ea3c5db490d64613f603a816040516121519190612349565b60405180910390a150565b82805461216890612d1a565b90600052602060002090601f01602090048101928261218a57600085556121d1565b82601f106121a357805160ff19168380011785556121d1565b828001600101855582156121d1579182015b828111156121d05782518255916020019190600101906121b5565b5b5090506121de91906121e2565b5090565b5b808211156121fb5760008160009055506001016121e3565b5090565b7f4e487b7100000000000000000000000000000000000000000000000000000000600052602160045260246000fd5b6003811061223f5761223e6121ff565b5b50565b60008190506122508261222e565b919050565b600061226082612242565b9050919050565b61227081612255565b82525050565b600060208201905061228b6000830184612267565b92915050565b6000604051905090565b600080fd5b600080fd5b6000819050919050565b6122b8816122a5565b81146122c357600080fd5b50565b6000813590506122d5816122af565b92915050565b6000602082840312156122f1576122f061229b565b5b60006122ff848285016122c6565b91505092915050565b600073ffffffffffffffffffffffffffffffffffffffff82169050919050565b600061233382612308565b9050919050565b61234381612328565b82525050565b600060208201905061235e600083018461233a565b92915050565b60008115159050919050565b61237981612364565b82525050565b60006020820190506123946000830184612370565b92915050565b6123a381612328565b81146123ae57600080fd5b50565b6000813590506123c08161239a565b92915050565b6000602082840312156123dc576123db61229b565b5b60006123ea848285016123b1565b91505092915050565b600081519050919050565b600082825260208201905092915050565b60005b8381101561242d578082015181840152602081019050612412565b8381111561243c576000848401525b50505050565b6000601f19601f8301169050919050565b600061245e826123f3565b61246881856123fe565b935061247881856020860161240f565b61248181612442565b840191505092915050565b612495816122a5565b82525050565b60006101008201905081810360008301526124b6818b612453565b905081810360208301526124ca818a612453565b90506124d9604083018961248c565b6124e6606083018861233a565b6124f3608083018761248c565b61250060a083018661248c565b61250d60c083018561248c565b61251a60e083018461248c565b9998505050505050505050565b600081519050919050565b600082825260208201905092915050565b6000819050602082019050919050565b61255c81612328565b82525050565b600061256e8383612553565b60208301905092915050565b6000602082019050919050565b600061259282612527565b61259c8185612532565b93506125a783612543565b8060005b838110156125d85781516125bf8882612562565b97506125ca8361257a565b9250506001810190506125ab565b5085935050505092915050565b600060208201905081810360008301526125ff8184612587565b905092915050565b6000819050919050565b600061262c61262761262284612308565b612607565b612308565b9050919050565b600061263e82612611565b9050919050565b600061265082612633565b9050919050565b61266081612645565b82525050565b600060208201905061267b6000830184612657565b92915050565b6000602082019050612696600083018461248c565b92915050565b60006126a782612633565b9050919050565b6126b78161269c565b82525050565b60006020820190506126d260008301846126ae565b92915050565b600080fd5b600080fd5b7f4e487b7100000000000000000000000000000000000000000000000000000000600052604160045260246000fd5b61271a82612442565b810181811067ffffffffffffffff82111715612739576127386126e2565b5b80604052505050565b600061274c612291565b90506127588282612711565b919050565b600067ffffffffffffffff821115612778576127776126e2565b5b61278182612442565b9050602081019050919050565b82818337600083830152505050565b60006127b06127ab8461275d565b612742565b9050828152602081018484840111156127cc576127cb6126dd565b5b6127d784828561278e565b509392505050565b600082601f8301126127f4576127f36126d8565b5b813561280484826020860161279d565b91505092915050565b600080600080600080600080610100898b03121561282e5761282d61229b565b5b600089013567ffffffffffffffff81111561284c5761284b6122a0565b5b6128588b828c016127df565b985050602089013567ffffffffffffffff811115612879576128786122a0565b5b6128858b828c016127df565b97505060406128968b828c016122c6565b96505060606128a78b828c016123b1565b95505060806128b88b828c016122c6565b94505060a06128c98b828c016122c6565b93505060c06128da8b828c016122c6565b92505060e06128eb8b828c016122c6565b9150509295985092959890939650565b600080fd5b600080fd5b60008083601f84011261291b5761291a6126d8565b5b8235905067ffffffffffffffff811115612938576129376128fb565b5b60208301915083602082028301111561295457612953612900565b5b9250929050565b600080602083850312156129725761297161229b565b5b600083013567ffffffffffffffff8111156129905761298f6122a0565b5b61299c85828601612905565b92509250509250929050565b6000819050919050565b6129bb816129a8565b82525050565b60006040820190506129d660008301856129b2565b6129e3602083018461233a565b9392505050565b6129f381612364565b81146129fe57600080fd5b50565b600081519050612a10816129ea565b92915050565b600060208284031215612a2c57612a2b61229b565b5b6000612a3a84828501612a01565b91505092915050565b7f53433a204f6e6c792053747564656e7400000000000000000000000000000000600082015250565b6000612a796010836123fe565b9150612a8482612a43565b602082019050919050565b60006020820190508181036000830152612aa881612a6c565b9050919050565b7f53433a204f6e6c79204f70656e00000000000000000000000000000000000000600082015250565b6000612ae5600d836123fe565b9150612af082612aaf565b602082019050919050565b60006020820190508181036000830152612b1481612ad8565b9050919050565b7f4f6e6c79204f776e657200000000000000000000000000000000000000000000600082015250565b6000612b51600a836123fe565b9150612b5c82612b1b565b602082019050919050565b60006020820190508181036000830152612b8081612b44565b9050919050565b7f4e487b7100000000000000000000000000000000000000000000000000000000600052603260045260246000fd5b6000604082019050612bcb600083018561233a565b612bd8602083018461248c565b9392505050565b7f4e487b7100000000000000000000000000000000000000000000000000000000600052601160045260246000fd5b6000612c19826122a5565b91507fffffffffffffffffffffffffffffffffffffffffffffffffffffffffffffffff8203612c4b57612c4a612bdf565b5b600182019050919050565b7f53433a2063616e63656c206572726f7200000000000000000000000000000000600082015250565b6000612c8c6010836123fe565b9150612c9782612c56565b602082019050919050565b60006020820190508181036000830152612cbb81612c7f565b9050919050565b6000612ccd826122a5565b915060008203612ce057612cdf612bdf565b5b600182039050919050565b7f4e487b7100000000000000000000000000000000000000000000000000000000600052602260045260246000fd5b60006002820490506001821680612d3257607f821691505b602082108103612d4557612d44612ceb565b5b50919050565b7f53433a204f6e6c79204c6f636b00000000000000000000000000000000000000600082015250565b6000612d81600d836123fe565b9150612d8c82612d4b565b602082019050919050565b60006020820190508181036000830152612db081612d74565b9050919050565b7f53433a2041776172642073686f756c642067726561746572207468616e205a6560008201527f726f000000000000000000000000000000000000000000000000000000000000602082015250565b6000612e136022836123fe565b9150612e1e82612db7565b604082019050919050565b60006020820190508181036000830152612e4281612e06565b9050919050565b7f4d533a2054696d6520697320696e76616c696400000000000000000000000000600082015250565b6000612e7f6013836123fe565b9150612e8a82612e49565b602082019050919050565b60006020820190508181036000830152612eae81612e72565b9050919050565b7f53433a204f6e6c79204c65637475726572000000000000000000000000000000600082015250565b6000612eeb6011836123fe565b9150612ef682612eb5565b602082019050919050565b60006020820190508181036000830152612f1a81612ede565b9050919050565b7f4d533a20636f6e6669726d206572726f72000000000000000000000000000000600082015250565b6000612f576011836123fe565b9150612f6282612f21565b602082019050919050565b60006020820190508181036000830152612f8681612f4a565b9050919050565b6000604082019050612fa2600083018561248c565b612faf602083018461248c565b9392505050565b7f53433a204f6e6c79204c65637475726572206f722041646d696e000000000000600082015250565b6000612fec601a836123fe565b9150612ff782612fb6565b602082019050919050565b6000602082019050818103600083015261301b81612fdf565b9050919050565b7f53433a204f6e6c792074686520706572736f6e20696e20636861726765000000600082015250565b6000613058601d836123fe565b915061306382613022565b602082019050919050565b600060208201905081810360008301526130878161304b565b9050919050565b7f53686f756c64206f6e6c79206164642073747564656e74000000000000000000600082015250565b60006130c46017836123fe565b91506130cf8261308e565b602082019050919050565b600060208201905081810360008301526130f3816130b7565b9050919050565b7f457870697265642074696d6520746f2072656769737465720000000000000000600082015250565b60006131306018836123fe565b915061313b826130fa565b602082019050919050565b6000602082019050818103600083015261315f81613123565b9050919050565b7f53433a207265676973746572206572726f720000000000000000000000000000600082015250565b600061319c6012836123fe565b91506131a782613166565b602082019050919050565b600060208201905081810360008301526131cb8161318f565b905091905056fea2646970667358221220d821f343ee0d4d7e69e23c3163fcf88a86a14fd990565774a3010684a218322f64736f6c634300080e0033",
  "immutableReferences": {
    "8609": [
      {
        "length": 32,
        "start": 1383
      },
      {
        "length": 32,
        "start": 2871
      },
      {
        "length": 32,
        "start": 3840
      },
      {
        "length": 32,
        "start": 4145
      },
      {
        "length": 32,
        "start": 7585
      }
    ]
  },
  "source": "//SPDX-License-Identifier: UNLICENSED\r\npragma solidity >=0.8.0;\r\n\r\nimport \"./interfaces/IScholarshipContract.sol\";\r\nimport \"./interfaces/IAccessControl.sol\";\r\nimport \"./interfaces/IRewardDistributor.sol\";\r\n\r\ncontract ScholarshipContract is IScholarshipContract {\r\n    using SafeERC20 for IERC20;\r\n    address public immutable owner;\r\n    Scholarship public scholarship;\r\n    Status public status = Status.Lock;\r\n\r\n    IAccessControl public accessControll;\r\n    IRewardDistributor public rewardDistributor;\r\n\r\n    address[] public participants;\r\n    uint256 public amount;\r\n    mapping(address => bool) public addressIsExist;\r\n    mapping(address => bool) public completedAddress;\r\n    mapping(address => bool) public participantToTrue;\r\n\r\n    modifier onlyLock() {\r\n        require(status == Status.Lock, \"SC: Only Lock\");\r\n        _;\r\n    }\r\n\r\n    modifier onlyOpen() {\r\n        require(status == Status.Open, \"SC: Only Open\");\r\n        _;\r\n    }\r\n\r\n    modifier onlyOwner() {\r\n        require(msg.sender == owner, \"Only Owner\");\r\n        _;\r\n    }\r\n\r\n    modifier onlyRoleLecturer() {\r\n        require(\r\n            accessControll.hasRole(keccak256(\"LECTURER\"), msg.sender),\r\n            \"SC: Only Lecturer\"\r\n        );\r\n        _;\r\n    }\r\n\r\n    modifier onlyRoleAdmin() {\r\n        require(\r\n            accessControll.hasRole(keccak256(\"ADMIN\"), msg.sender) ||\r\n                accessControll.hasRole(keccak256(\"LECTURER\"), msg.sender),\r\n            \"SC: Only Lecturer or Admin\"\r\n        );\r\n        _;\r\n    }\r\n\r\n    modifier onlyRoleStudent() {\r\n        require(\r\n            accessControll.hasRole(keccak256(\"STUDENT\"), msg.sender),\r\n            \"SC: Only Student\"\r\n        );\r\n        _;\r\n    }\r\n\r\n    constructor(\r\n        address _owner,\r\n        address _accessControll,\r\n        address _rewardDistributor\r\n    ) {\r\n        owner = _owner;\r\n        accessControll = IAccessControl(_accessControll);\r\n        rewardDistributor = IRewardDistributor(_rewardDistributor);\r\n    }\r\n\r\n    function setBasicForScholarship(\r\n        string memory _scholarshipId,\r\n        string memory _urlMetadata,\r\n        uint256 _award,\r\n        address _persionInCharge,\r\n        uint256 _startTime,\r\n        uint256 _endTime,\r\n        uint256 _endTimeToRegister,\r\n        uint256 _endTimeToConfirm\r\n    ) external override onlyOwner onlyLock {\r\n        require(_award > 0, \"SC: Award should greater than Zero\");\r\n        require(\r\n            block.timestamp < _startTime &&\r\n                _startTime < _endTimeToRegister &&\r\n                _endTimeToRegister < _endTime &&\r\n                _endTime < _endTimeToConfirm,\r\n            \"MS: Time is invalid\"\r\n        );\r\n\r\n        scholarship = Scholarship(\r\n            _scholarshipId,\r\n            _urlMetadata,\r\n            _award,\r\n            _persionInCharge,\r\n            _startTime,\r\n            _endTimeToRegister,\r\n            _endTime,\r\n            _endTimeToConfirm\r\n        );\r\n    }\r\n\r\n    function start() external override onlyOwner onlyLock {\r\n        status = Status.Open;\r\n    }\r\n\r\n    function lock() external override onlyOwner onlyOpen {\r\n        status = Status.Lock;\r\n    }\r\n\r\n    function addStudentToScholarship(address[] calldata _students)\r\n        external\r\n        override\r\n        onlyRoleAdmin\r\n        onlyOpen\r\n    {\r\n        require(\r\n            msg.sender == scholarship.persionInCharge,\r\n            \"SC: Only the person in charge\"\r\n        );\r\n        for (uint256 i = 0; i < _students.length; i++) {\r\n            require(\r\n                accessControll.hasRole(keccak256(\"STUDENT\"), _students[i]),\r\n                \"Should only add student\"\r\n            );\r\n            _register(_students[i]);\r\n        }\r\n    }\r\n\r\n    function register() external override onlyRoleStudent onlyOpen {\r\n        _register(msg.sender);\r\n    }\r\n\r\n    function _register(address _student) private {\r\n        require(\r\n            block.timestamp <= scholarship.endTimeToRegister,\r\n            \"Expired time to register\"\r\n        );\r\n        require(!participantToTrue[_student], \"SC: register error\");\r\n        amount++;\r\n        if (!addressIsExist[_student]) {\r\n            participants.push(_student);\r\n        }\r\n        addressIsExist[_student] = true;\r\n        participantToTrue[_student] = true;\r\n        emit Register(_student);\r\n    }\r\n\r\n    function cancelRegister() external override onlyRoleStudent onlyOpen {\r\n        require(participantToTrue[msg.sender], \"SC: cancel error\");\r\n        amount--;\r\n        participantToTrue[msg.sender] = false;\r\n        emit CancelRegister(msg.sender);\r\n    }\r\n\r\n    function confirmCompletedAddress(address[] calldata _students)\r\n        external\r\n        override\r\n        onlyRoleLecturer\r\n        onlyOpen\r\n    {\r\n        require(\r\n            block.timestamp > scholarship.endTime &&\r\n                block.timestamp < scholarship.endTimeToConfirm\r\n        );\r\n        for (uint256 i = 0; i < _students.length; i++) {\r\n            require(participantToTrue[_students[i]], \"MS: confirm error\");\r\n            completedAddress[_students[i]] = true;\r\n        }\r\n        emit Confirm(_students.length, block.timestamp);\r\n    }\r\n\r\n    function unConfirmCompletedAddress(address[] calldata _students)\r\n        external\r\n        override\r\n        onlyRoleLecturer\r\n        onlyOpen\r\n    {\r\n        require(\r\n            block.timestamp > scholarship.endTime &&\r\n                block.timestamp < scholarship.endTimeToConfirm\r\n        );\r\n        for (uint256 i = 0; i < _students.length; i++) {\r\n            require(completedAddress[_students[i]], \"MS: confirm error\");\r\n            completedAddress[_students[i]] = false;\r\n        }\r\n\r\n        emit UnConfirm(_students.length, block.timestamp);\r\n    }\r\n\r\n    function close() external override onlyOwner onlyOpen {\r\n        require(block.timestamp > scholarship.endTimeToConfirm);\r\n        status = Status.Close;\r\n        address[] memory student = getParticipantListCompleted();\r\n        for (uint256 i = 0; i < student.length; i++) {\r\n            if (student[i] != address(0))\r\n                rewardDistributor.distributeReward(student[i], scholarship.award);\r\n        }\r\n        emit Close(block.timestamp);\r\n    }\r\n\r\n    function isReadyToClose() onlyOpen external view returns(bool) {\r\n        return (block.timestamp > scholarship.endTime);\r\n    }\r\n\r\n    function getParticipantListCompleted()\r\n        public\r\n        view\r\n        override\r\n        returns (address[] memory)\r\n    {\r\n        address[] memory student = new address[](amount);\r\n        uint256 index;\r\n        for (uint256 i = 0; i < participants.length; i++) {\r\n            if (completedAddress[participants[i]]) {\r\n                student[index] = participants[i];\r\n                index++;\r\n            }\r\n        }\r\n        return student;\r\n    }\r\n}\r\n",
  "sourcePath": "E:\\KLTN\\KLTN\\KLTN-contracts\\contracts\\studentmanager\\ScholarshipContract.sol",
  "compiler": {
    "name": "solc",
    "version": "0.8.14+commit.80d49f37.Emscripten.clang"
  },
  "schemaVersion": "3.4.3",
  "updatedAt": "2022-06-13T07:41:46.536Z",
  "devdoc": {
    "kind": "dev",
    "methods": {},
    "version": 1
  },
  "userdoc": {
    "kind": "user",
    "methods": {},
    "version": 1
  }
}