{
  "contractName": "ScholarshipFactory",
  "abi": [
    {
      "inputs": [
        {
          "internalType": "address",
          "name": "owner",
          "type": "address"
        },
        {
          "internalType": "address",
          "name": "_accessControll",
          "type": "address"
        },
        {
          "internalType": "address",
          "name": "_rewardDistributor",
          "type": "address"
        }
      ],
      "name": "createNewScholarship",
      "outputs": [
        {
          "internalType": "address",
          "name": "",
          "type": "address"
        }
      ],
      "stateMutability": "nonpayable",
      "type": "function"
    }
  ],
  "bytecode": "0x608060405234801561001057600080fd5b50612753806100206000396000f3fe608060405234801561001057600080fd5b506004361061002b5760003560e01c8063378ac24514610030575b600080fd5b61004a60048036038101906100459190610118565b610060565b604051610057919061017a565b60405180910390f35b600080848484604051610072906100a8565b61007e93929190610195565b604051809103906000f08015801561009a573d6000803e3d6000fd5b509050809150509392505050565b612551806101cd83390190565b600080fd5b600073ffffffffffffffffffffffffffffffffffffffff82169050919050565b60006100e5826100ba565b9050919050565b6100f5816100da565b811461010057600080fd5b50565b600081359050610112816100ec565b92915050565b600080600060608486031215610131576101306100b5565b5b600061013f86828701610103565b935050602061015086828701610103565b925050604061016186828701610103565b9150509250925092565b610174816100da565b82525050565b600060208201905061018f600083018461016b565b92915050565b60006060820190506101aa600083018661016b565b6101b7602083018561016b565b6101c4604083018461016b565b94935050505056fe60a06040526000600560006101000a81548160ff021916908360028111156200002d576200002c62000124565b5b02179055503480156200003f57600080fd5b5060405162002551380380620025518339818101604052810190620000659190620001bd565b8273ffffffffffffffffffffffffffffffffffffffff1660808173ffffffffffffffffffffffffffffffffffffffff168152505081600660006101000a81548173ffffffffffffffffffffffffffffffffffffffff021916908373ffffffffffffffffffffffffffffffffffffffff16021790555080600760006101000a81548173ffffffffffffffffffffffffffffffffffffffff021916908373ffffffffffffffffffffffffffffffffffffffff16021790555050505062000219565b7f4e487b7100000000000000000000000000000000000000000000000000000000600052602160045260246000fd5b600080fd5b600073ffffffffffffffffffffffffffffffffffffffff82169050919050565b6000620001858262000158565b9050919050565b620001978162000178565b8114620001a357600080fd5b50565b600081519050620001b7816200018c565b92915050565b600080600060608486031215620001d957620001d862000153565b5b6000620001e986828701620001a6565b9350506020620001fc86828701620001a6565b92505060406200020f86828701620001a6565b9150509250925092565b6080516123076200024a600039600081816102f30152818161080b01528181610a200152610bea01526123076000f3fe608060405234801561001057600080fd5b50600436106101005760003560e01c8063aa4936ce11610097578063be9a655511610066578063be9a65551461027d578063d95fe6a014610287578063dc676ee2146102b7578063ed214fff146102d357610100565b8063aa4936ce146101f3578063aa8c217c14610211578063acc2166a1461022f578063b1319f411461024d57610100565b806335c1d349116100d357806335c1d3491461017957806343d726d6146101a95780638da5cb5b146101b3578063a7539775146101d157610100565b806303f8d50f146101055780630aafbfca14610121578063200d2ed21461013d5780632fe7a96d1461015b575b600080fd5b61011f600480360381019061011a9190611699565b6102f1565b005b61013b600480360381019061013691906117aa565b61050f565b005b610145610791565b604051610152919061184e565b60405180910390f35b6101636107a4565b6040516101709190611878565b60405180910390f35b610193600480360381019061018e9190611893565b6107ca565b6040516101a09190611878565b60405180910390f35b6101b1610809565b005b6101bb610a1e565b6040516101c89190611878565b60405180910390f35b6101d9610a42565b6040516101ea959493929190611957565b60405180910390f35b6101fb610b76565b6040516102089190611a17565b60405180910390f35b610219610b9c565b6040516102269190611a32565b60405180910390f35b610237610ba2565b6040516102449190611a6e565b60405180910390f35b610267600480360381019061026291906117aa565b610bc8565b6040516102749190611aa4565b60405180910390f35b610285610be8565b005b6102a1600480360381019061029c91906117aa565b610d19565b6040516102ae9190611a32565b60405180910390f35b6102d160048036038101906102cc9190611b1f565b610d31565b005b6102db61123f565b6040516102e89190611c2a565b60405180910390f35b7f000000000000000000000000000000000000000000000000000000000000000073ffffffffffffffffffffffffffffffffffffffff163373ffffffffffffffffffffffffffffffffffffffff161461037f576040517f08c379a000000000000000000000000000000000000000000000000000000000815260040161037690611c98565b60405180910390fd5b60006002811115610393576103926117d7565b5b600560009054906101000a900460ff1660028111156103b5576103b46117d7565b5b146103f5576040517f08c379a00000000000000000000000000000000000000000000000000000000081526004016103ec90611d04565b60405180910390fd5b60008311610438576040517f08c379a000000000000000000000000000000000000000000000000000000000815260040161042f90611d96565b60405180910390fd5b814210801561044657508082105b610485576040517f08c379a000000000000000000000000000000000000000000000000000000000815260040161047c90611e02565b60405180910390fd5b6040518060a00160405280868152602001858152602001848152602001838152602001828152506000808201518160000190805190602001906104c9929190611466565b5060208201518160010190805190602001906104e6929190611466565b506040820151816002015560608201518160030155608082015181600401559050505050505050565b600660009054906101000a900473ffffffffffffffffffffffffffffffffffffffff1673ffffffffffffffffffffffffffffffffffffffff166391d148547fdf8b4c520ffe197c5343c6f5aec59570151ef9a492f2c624fd45ddde6135ec42336040518363ffffffff1660e01b815260040161058c929190611e3b565b602060405180830381865afa1580156105a9573d6000803e3d6000fd5b505050506040513d601f19601f820116820180604052508101906105cd9190611e90565b61060c576040517f08c379a000000000000000000000000000000000000000000000000000000000815260040161060390611f09565b60405180910390fd5b600b60008273ffffffffffffffffffffffffffffffffffffffff1673ffffffffffffffffffffffffffffffffffffffff16815260200190815260200160002060009054906101000a900460ff16610698576040517f08c379a000000000000000000000000000000000000000000000000000000000815260040161068f90611f75565b60405180910390fd5b6000600a60008373ffffffffffffffffffffffffffffffffffffffff1673ffffffffffffffffffffffffffffffffffffffff1681526020019081526020016000205490506000600b60008473ffffffffffffffffffffffffffffffffffffffff1673ffffffffffffffffffffffffffffffffffffffff16815260200190815260200160002060006101000a81548160ff0219169083151502179055506009600081548092919061074790611fc4565b9190505550600881815481106107605761075f611fed565b5b9060005260206000200160006101000a81549073ffffffffffffffffffffffffffffffffffffffff02191690555050565b600560009054906101000a900460ff1681565b600560019054906101000a900473ffffffffffffffffffffffffffffffffffffffff1681565b600881815481106107da57600080fd5b906000526020600020016000915054906101000a900473ffffffffffffffffffffffffffffffffffffffff1681565b7f000000000000000000000000000000000000000000000000000000000000000073ffffffffffffffffffffffffffffffffffffffff163373ffffffffffffffffffffffffffffffffffffffff1614610897576040517f08c379a000000000000000000000000000000000000000000000000000000000815260040161088e90611c98565b60405180910390fd5b60006004015442116108de576040517f08c379a00000000000000000000000000000000000000000000000000000000081526004016108d590612068565b60405180910390fd5b6002600560006101000a81548160ff02191690836002811115610904576109036117d7565b5b0217905550600061091361123f565b905060005b6009548110156109e357600760009054906101000a900473ffffffffffffffffffffffffffffffffffffffff1673ffffffffffffffffffffffffffffffffffffffff16631ec8bb8c83838151811061097357610972611fed565b5b60200260200101516000600201546040518363ffffffff1660e01b815260040161099e929190612088565b600060405180830381600087803b1580156109b857600080fd5b505af11580156109cc573d6000803e3d6000fd5b5050505080806109db906120b1565b915050610918565b507fbf67515a38ee520223d32c1266d52101c30d936ed1f3e436c8caeb0a43cb06bf42604051610a139190611a32565b60405180910390a150565b7f000000000000000000000000000000000000000000000000000000000000000081565b6000806000018054610a5390612128565b80601f0160208091040260200160405190810160405280929190818152602001828054610a7f90612128565b8015610acc5780601f10610aa157610100808354040283529160200191610acc565b820191906000526020600020905b815481529060010190602001808311610aaf57829003601f168201915b505050505090806001018054610ae190612128565b80601f0160208091040260200160405190810160405280929190818152602001828054610b0d90612128565b8015610b5a5780601f10610b2f57610100808354040283529160200191610b5a565b820191906000526020600020905b815481529060010190602001808311610b3d57829003601f168201915b5050505050908060020154908060030154908060040154905085565b600660009054906101000a900473ffffffffffffffffffffffffffffffffffffffff1681565b60095481565b600760009054906101000a900473ffffffffffffffffffffffffffffffffffffffff1681565b600b6020528060005260406000206000915054906101000a900460ff1681565b7f000000000000000000000000000000000000000000000000000000000000000073ffffffffffffffffffffffffffffffffffffffff163373ffffffffffffffffffffffffffffffffffffffff1614610c76576040517f08c379a0000000000000000000000000000000000000000000000000000000008152600401610c6d90611c98565b60405180910390fd5b60006002811115610c8a57610c896117d7565b5b600560009054906101000a900460ff166002811115610cac57610cab6117d7565b5b14610cec576040517f08c379a0000000000000000000000000000000000000000000000000000000008152600401610ce390611d04565b60405180910390fd5b6001600560006101000a81548160ff02191690836002811115610d1257610d116117d7565b5b0217905550565b600a6020528060005260406000206000915090505481565b600660009054906101000a900473ffffffffffffffffffffffffffffffffffffffff1673ffffffffffffffffffffffffffffffffffffffff166391d148547fdf8b4c520ffe197c5343c6f5aec59570151ef9a492f2c624fd45ddde6135ec42336040518363ffffffff1660e01b8152600401610dae929190611e3b565b602060405180830381865afa158015610dcb573d6000803e3d6000fd5b505050506040513d601f19601f82011682018060405250810190610def9190611e90565b610e2e576040517f08c379a0000000000000000000000000000000000000000000000000000000008152600401610e2590611f09565b60405180910390fd5b60016002811115610e4257610e416117d7565b5b600560009054906101000a900460ff166002811115610e6457610e636117d7565b5b14610ea4576040517f08c379a0000000000000000000000000000000000000000000000000000000008152600401610e9b906121a5565b60405180910390fd5b60005b8282905081101561123a57600660009054906101000a900473ffffffffffffffffffffffffffffffffffffffff1673ffffffffffffffffffffffffffffffffffffffff166391d148547fc951d7098b66ba0b8b77265b6e9cf0e187d73125a42bcd0061b09a68be421810858585818110610f2457610f23611fed565b5b9050602002016020810190610f3991906117aa565b6040518363ffffffff1660e01b8152600401610f56929190611e3b565b602060405180830381865afa158015610f73573d6000803e3d6000fd5b505050506040513d601f19601f82011682018060405250810190610f979190611e90565b610fd6576040517f08c379a0000000000000000000000000000000000000000000000000000000008152600401610fcd90612211565b60405180910390fd5b600b6000848484818110610fed57610fec611fed565b5b905060200201602081019061100291906117aa565b73ffffffffffffffffffffffffffffffffffffffff1673ffffffffffffffffffffffffffffffffffffffff16815260200190815260200160002060009054906101000a900460ff161561108a576040517f08c379a00000000000000000000000000000000000000000000000000000000081526004016110819061227d565b60405180910390fd5b600883838381811061109f5761109e611fed565b5b90506020020160208101906110b491906117aa565b9080600181540180825580915050600190039060005260206000200160009091909190916101000a81548173ffffffffffffffffffffffffffffffffffffffff021916908373ffffffffffffffffffffffffffffffffffffffff1602179055506001600880549050611126919061229d565b600a600085858581811061113d5761113c611fed565b5b905060200201602081019061115291906117aa565b73ffffffffffffffffffffffffffffffffffffffff1673ffffffffffffffffffffffffffffffffffffffff168152602001908152602001600020819055506001600b60008585858181106111a9576111a8611fed565b5b90506020020160208101906111be91906117aa565b73ffffffffffffffffffffffffffffffffffffffff1673ffffffffffffffffffffffffffffffffffffffff16815260200190815260200160002060006101000a81548160ff02191690831515021790555060096000815480929190611222906120b1565b91905055508080611232906120b1565b915050610ea7565b505050565b6060600060088054905067ffffffffffffffff81111561126257611261611538565b5b6040519080825280602002602001820160405280156112905781602001602082028036833780820191505090505b509050600080600090505b60088054905081101561145d57600b6000600883815481106112c0576112bf611fed565b5b9060005260206000200160009054906101000a900473ffffffffffffffffffffffffffffffffffffffff1673ffffffffffffffffffffffffffffffffffffffff1673ffffffffffffffffffffffffffffffffffffffff16815260200190815260200160002060009054906101000a900460ff1680156113aa5750600073ffffffffffffffffffffffffffffffffffffffff166008828154811061136657611365611fed565b5b9060005260206000200160009054906101000a900473ffffffffffffffffffffffffffffffffffffffff1673ffffffffffffffffffffffffffffffffffffffff1614155b1561144a57600881815481106113c3576113c2611fed565b5b9060005260206000200160009054906101000a900473ffffffffffffffffffffffffffffffffffffffff1683838151811061140157611400611fed565b5b602002602001019073ffffffffffffffffffffffffffffffffffffffff16908173ffffffffffffffffffffffffffffffffffffffff16815250508180611446906120b1565b9250505b8080611455906120b1565b91505061129b565b50819250505090565b82805461147290612128565b90600052602060002090601f01602090048101928261149457600085556114db565b82601f106114ad57805160ff19168380011785556114db565b828001600101855582156114db579182015b828111156114da5782518255916020019190600101906114bf565b5b5090506114e891906114ec565b5090565b5b808211156115055760008160009055506001016114ed565b5090565b6000604051905090565b600080fd5b600080fd5b600080fd5b600080fd5b6000601f19601f8301169050919050565b7f4e487b7100000000000000000000000000000000000000000000000000000000600052604160045260246000fd5b61157082611527565b810181811067ffffffffffffffff8211171561158f5761158e611538565b5b80604052505050565b60006115a2611509565b90506115ae8282611567565b919050565b600067ffffffffffffffff8211156115ce576115cd611538565b5b6115d782611527565b9050602081019050919050565b82818337600083830152505050565b6000611606611601846115b3565b611598565b90508281526020810184848401111561162257611621611522565b5b61162d8482856115e4565b509392505050565b600082601f83011261164a5761164961151d565b5b813561165a8482602086016115f3565b91505092915050565b6000819050919050565b61167681611663565b811461168157600080fd5b50565b6000813590506116938161166d565b92915050565b600080600080600060a086880312156116b5576116b4611513565b5b600086013567ffffffffffffffff8111156116d3576116d2611518565b5b6116df88828901611635565b955050602086013567ffffffffffffffff811115611700576116ff611518565b5b61170c88828901611635565b945050604061171d88828901611684565b935050606061172e88828901611684565b925050608061173f88828901611684565b9150509295509295909350565b600073ffffffffffffffffffffffffffffffffffffffff82169050919050565b60006117778261174c565b9050919050565b6117878161176c565b811461179257600080fd5b50565b6000813590506117a48161177e565b92915050565b6000602082840312156117c0576117bf611513565b5b60006117ce84828501611795565b91505092915050565b7f4e487b7100000000000000000000000000000000000000000000000000000000600052602160045260246000fd5b60038110611817576118166117d7565b5b50565b600081905061182882611806565b919050565b60006118388261181a565b9050919050565b6118488161182d565b82525050565b6000602082019050611863600083018461183f565b92915050565b6118728161176c565b82525050565b600060208201905061188d6000830184611869565b92915050565b6000602082840312156118a9576118a8611513565b5b60006118b784828501611684565b91505092915050565b600081519050919050565b600082825260208201905092915050565b60005b838110156118fa5780820151818401526020810190506118df565b83811115611909576000848401525b50505050565b600061191a826118c0565b61192481856118cb565b93506119348185602086016118dc565b61193d81611527565b840191505092915050565b61195181611663565b82525050565b600060a0820190508181036000830152611971818861190f565b90508181036020830152611985818761190f565b90506119946040830186611948565b6119a16060830185611948565b6119ae6080830184611948565b9695505050505050565b6000819050919050565b60006119dd6119d86119d38461174c565b6119b8565b61174c565b9050919050565b60006119ef826119c2565b9050919050565b6000611a01826119e4565b9050919050565b611a11816119f6565b82525050565b6000602082019050611a2c6000830184611a08565b92915050565b6000602082019050611a476000830184611948565b92915050565b6000611a58826119e4565b9050919050565b611a6881611a4d565b82525050565b6000602082019050611a836000830184611a5f565b92915050565b60008115159050919050565b611a9e81611a89565b82525050565b6000602082019050611ab96000830184611a95565b92915050565b600080fd5b600080fd5b60008083601f840112611adf57611ade61151d565b5b8235905067ffffffffffffffff811115611afc57611afb611abf565b5b602083019150836020820283011115611b1857611b17611ac4565b5b9250929050565b60008060208385031215611b3657611b35611513565b5b600083013567ffffffffffffffff811115611b5457611b53611518565b5b611b6085828601611ac9565b92509250509250929050565b600081519050919050565b600082825260208201905092915050565b6000819050602082019050919050565b611ba18161176c565b82525050565b6000611bb38383611b98565b60208301905092915050565b6000602082019050919050565b6000611bd782611b6c565b611be18185611b77565b9350611bec83611b88565b8060005b83811015611c1d578151611c048882611ba7565b9750611c0f83611bbf565b925050600181019050611bf0565b5085935050505092915050565b60006020820190508181036000830152611c448184611bcc565b905092915050565b7f4f6e6c79204f776e657200000000000000000000000000000000000000000000600082015250565b6000611c82600a836118cb565b9150611c8d82611c4c565b602082019050919050565b60006020820190508181036000830152611cb181611c75565b9050919050565b7f53433a204f6e6c79204c6f636b00000000000000000000000000000000000000600082015250565b6000611cee600d836118cb565b9150611cf982611cb8565b602082019050919050565b60006020820190508181036000830152611d1d81611ce1565b9050919050565b7f53433a2041776172642073686f756c642067726561746572207468616e205a6560008201527f726f000000000000000000000000000000000000000000000000000000000000602082015250565b6000611d806022836118cb565b9150611d8b82611d24565b604082019050919050565b60006020820190508181036000830152611daf81611d73565b9050919050565b7f53433a2054696d6520697320696e76616c696400000000000000000000000000600082015250565b6000611dec6013836118cb565b9150611df782611db6565b602082019050919050565b60006020820190508181036000830152611e1b81611ddf565b9050919050565b6000819050919050565b611e3581611e22565b82525050565b6000604082019050611e506000830185611e2c565b611e5d6020830184611869565b9392505050565b611e6d81611a89565b8114611e7857600080fd5b50565b600081519050611e8a81611e64565b92915050565b600060208284031215611ea657611ea5611513565b5b6000611eb484828501611e7b565b91505092915050565b7f53433a204f6e6c79204c65637475726572000000000000000000000000000000600082015250565b6000611ef36011836118cb565b9150611efe82611ebd565b602082019050919050565b60006020820190508181036000830152611f2281611ee6565b9050919050565b7f4572726f72207768656e2072656d6f7665000000000000000000000000000000600082015250565b6000611f5f6011836118cb565b9150611f6a82611f29565b602082019050919050565b60006020820190508181036000830152611f8e81611f52565b9050919050565b7f4e487b7100000000000000000000000000000000000000000000000000000000600052601160045260246000fd5b6000611fcf82611663565b915060008203611fe257611fe1611f95565b5b600182039050919050565b7f4e487b7100000000000000000000000000000000000000000000000000000000600052603260045260246000fd5b7f4e6f742079657420726561647900000000000000000000000000000000000000600082015250565b6000612052600d836118cb565b915061205d8261201c565b602082019050919050565b6000602082019050818103600083015261208181612045565b9050919050565b600060408201905061209d6000830185611869565b6120aa6020830184611948565b9392505050565b60006120bc82611663565b91507fffffffffffffffffffffffffffffffffffffffffffffffffffffffffffffffff82036120ee576120ed611f95565b5b600182019050919050565b7f4e487b7100000000000000000000000000000000000000000000000000000000600052602260045260246000fd5b6000600282049050600182168061214057607f821691505b602082108103612153576121526120f9565b5b50919050565b7f53433a204f6e6c79204f70656e00000000000000000000000000000000000000600082015250565b600061218f600d836118cb565b915061219a82612159565b602082019050919050565b600060208201905081810360008301526121be81612182565b9050919050565b7f53686f756c64206f6e6c79206164642073747564656e74000000000000000000600082015250565b60006121fb6017836118cb565b9150612206826121c5565b602082019050919050565b6000602082019050818103600083015261222a816121ee565b9050919050565b7f4164646564000000000000000000000000000000000000000000000000000000600082015250565b60006122676005836118cb565b915061227282612231565b602082019050919050565b600060208201905081810360008301526122968161225a565b9050919050565b60006122a882611663565b91506122b383611663565b9250828210156122c6576122c5611f95565b5b82820390509291505056fea2646970667358221220f93f307fa6f5616f7b364dda07b0a6f07efb69cb9916a4ebafc5e7decad9b73c64736f6c634300080e0033a2646970667358221220dd8302a98b908740871877b6c41712b1e782aef662d2c840ca03c494bbb7df8864736f6c634300080e0033",
  "immutableReferences": {},
  "source": "// SPDX-License-Identifier: UNLICENSED\r\npragma solidity ^0.8.0;\r\n\r\nimport \"../ScholarshipContract.sol\";\r\nimport \"../interfaces/IScholarshipFactory.sol\";\r\n\r\ncontract ScholarshipFactory is IScholarshipFactory {\r\n    function createNewScholarship(\r\n        address owner,\r\n        address _accessControll,\r\n        address _rewardDistributor\r\n    ) public override returns (address) {\r\n        ScholarshipContract scholarshipContract = new ScholarshipContract(\r\n            owner,\r\n            _accessControll,\r\n            _rewardDistributor\r\n        );\r\n        return address(scholarshipContract);\r\n    }\r\n}\r\n",
  "sourcePath": "E:\\KLTN\\KLTN\\KLTN-contracts\\contracts\\studentmanager\\factories\\ScholarShipFactory.sol",
  "compiler": {
    "name": "solc",
    "version": "0.8.14+commit.80d49f37.Emscripten.clang"
  },
  "schemaVersion": "3.4.3",
  "updatedAt": "2022-05-21T08:21:37.996Z",
  "networkType": "ethereum",
  "devdoc": {
    "kind": "dev",
    "methods": {},
    "version": 1
  },
  "userdoc": {
    "kind": "user",
    "methods": {},
    "version": 1
  }
}