{
  "contractName": "SubjectFactory",
  "abi": [
    {
      "inputs": [
        {
          "internalType": "address",
          "name": "owner",
          "type": "address"
        },
        {
          "internalType": "address",
          "name": "accessControll",
          "type": "address"
        }
      ],
      "name": "createNewMission",
      "outputs": [
        {
          "internalType": "address",
          "name": "",
          "type": "address"
        }
      ],
      "stateMutability": "nonpayable",
      "type": "function"
    }
  ],
  "bytecode": "0x608060405234801561001057600080fd5b506132d3806100206000396000f3fe608060405234801561001057600080fd5b506004361061002b5760003560e01c806389d0bc1e14610030575b600080fd5b61004a60048036038101906100459190610115565b610060565b6040516100579190610164565b60405180910390f35b6000808383604051610071906100a5565b61007c92919061017f565b604051809103906000f080158015610098573d6000803e3d6000fd5b5090508091505092915050565b6130f5806101a983390190565b600080fd5b600073ffffffffffffffffffffffffffffffffffffffff82169050919050565b60006100e2826100b7565b9050919050565b6100f2816100d7565b81146100fd57600080fd5b50565b60008135905061010f816100e9565b92915050565b6000806040838503121561012c5761012b6100b2565b5b600061013a85828601610100565b925050602061014b85828601610100565b9150509250929050565b61015e816100d7565b82525050565b60006020820190506101796000830184610155565b92915050565b60006040820190506101946000830185610155565b6101a16020830184610155565b939250505056fe60a06040526000600860006101000a81548160ff021916908360028111156200002d576200002c620000e2565b5b02179055503480156200003f57600080fd5b50604051620030f5380380620030f583398181016040528101906200006591906200017b565b8173ffffffffffffffffffffffffffffffffffffffff1660808173ffffffffffffffffffffffffffffffffffffffff168152505080600960006101000a81548173ffffffffffffffffffffffffffffffffffffffff021916908373ffffffffffffffffffffffffffffffffffffffff1602179055505050620001c2565b7f4e487b7100000000000000000000000000000000000000000000000000000000600052602160045260246000fd5b600080fd5b600073ffffffffffffffffffffffffffffffffffffffff82169050919050565b6000620001438262000116565b9050919050565b620001558162000136565b81146200016157600080fd5b50565b60008151905062000175816200014a565b92915050565b6000806040838503121562000195576200019462000111565b5b6000620001a58582860162000164565b9250506020620001b88582860162000164565b9150509250929050565b608051612f02620001f36000396000818161034801528181610c9c0152818161129201526115770152612f026000f3fe608060405234801561001057600080fd5b50600436106101215760003560e01c80636e88f230116100ad578063aa4936ce11610071578063aa4936ce146102c6578063aa8c217c146102e4578063be9a655514610302578063d16e57fe1461030c578063ed214fff1461032857610121565b80636e88f2301461020d5780638da5cb5b146102295780639875471014610247578063a32fb34214610278578063a7f44e0d146102a857610121565b80632fe7a96d116100f45780632fe7a96d1461018f57806335955121146101ad57806335f34232146101c957806343d726d6146101f957806349aa70331461020357610121565b806304d291f2146101265780630a59a98c146101425780631aa3a00814610167578063200d2ed214610171575b600080fd5b610140600480360381019061013b9190612264565b610346565b005b61014a6105be565b60405161015e9897969594939291906123f8565b60405180910390f35b61016f610724565b005b6101796108a2565b60405161018691906124fb565b60405180910390f35b6101976108b5565b6040516101a49190612516565b60405180910390f35b6101c760048036038101906101c29190612591565b6108db565b005b6101e360048036038101906101de91906125de565b610c5b565b6040516101f09190612516565b60405180910390f35b610201610c9a565b005b61020b610d9d565b005b6102276004803603810190610222919061260b565b610fdc565b005b610231611290565b60405161023e9190612516565b60405180910390f35b610261600480360381019061025c919061260b565b6112b4565b60405161026f929190612653565b60405180910390f35b610292600480360381019061028d919061260b565b611305565b60405161029f919061267c565b60405180910390f35b6102b0611325565b6040516102bd9190612755565b60405180910390f35b6102ce611549565b6040516102db91906127d6565b60405180910390f35b6102ec61156f565b6040516102f991906127f1565b60405180910390f35b61030a611575565b005b61032660048036038101906103219190612591565b611630565b005b610330611a32565b60405161033d9190612755565b60405180910390f35b7f000000000000000000000000000000000000000000000000000000000000000073ffffffffffffffffffffffffffffffffffffffff163373ffffffffffffffffffffffffffffffffffffffff16146103d4576040517f08c379a00000000000000000000000000000000000000000000000000000000081526004016103cb90612858565b60405180910390fd5b600060028111156103e8576103e7612484565b5b600860009054906101000a900460ff16600281111561040a57610409612484565b5b1461044a576040517f08c379a0000000000000000000000000000000000000000000000000000000008152600401610441906128c4565b60405180910390fd5b834210801561045857508284105b801561046357508183105b801561046e57508082105b6104ad576040517f08c379a00000000000000000000000000000000000000000000000000000000081526004016104a490612930565b60405180910390fd5b6040518061010001604052808981526020018881526020018781526020018673ffffffffffffffffffffffffffffffffffffffff1681526020018581526020018481526020018381526020018281525060008082015181600001908051906020019061051a929190611fd3565b506020820151816001019080519060200190610537929190611fd3565b506040820151816002015560608201518160030160006101000a81548173ffffffffffffffffffffffffffffffffffffffff021916908373ffffffffffffffffffffffffffffffffffffffff1602179055506080820151816004015560a0820151816005015560c0820151816006015560e082015181600701559050505050505050505050565b60008060000180546105cf9061297f565b80601f01602080910402602001604051908101604052809291908181526020018280546105fb9061297f565b80156106485780601f1061061d57610100808354040283529160200191610648565b820191906000526020600020905b81548152906001019060200180831161062b57829003601f168201915b50505050509080600101805461065d9061297f565b80601f01602080910402602001604051908101604052809291908181526020018280546106899061297f565b80156106d65780601f106106ab576101008083540402835291602001916106d6565b820191906000526020600020905b8154815290600101906020018083116106b957829003601f168201915b5050505050908060020154908060030160009054906101000a900473ffffffffffffffffffffffffffffffffffffffff16908060040154908060050154908060060154908060070154905088565b6001600281111561073857610737612484565b5b600860009054906101000a900460ff16600281111561075a57610759612484565b5b1461079a576040517f08c379a0000000000000000000000000000000000000000000000000000000008152600401610791906129fc565b60405180910390fd5b600960009054906101000a900473ffffffffffffffffffffffffffffffffffffffff1673ffffffffffffffffffffffffffffffffffffffff166391d148547fc951d7098b66ba0b8b77265b6e9cf0e187d73125a42bcd0061b09a68be421810336040518363ffffffff1660e01b8152600401610817929190612a35565b602060405180830381865afa158015610834573d6000803e3d6000fd5b505050506040513d601f19601f820116820180604052508101906108589190612a8a565b610897576040517f08c379a000000000000000000000000000000000000000000000000000000000815260040161088e90612b03565b60405180910390fd5b6108a033611d1d565b565b600860009054906101000a900460ff1681565b600860019054906101000a900473ffffffffffffffffffffffffffffffffffffffff1681565b600960009054906101000a900473ffffffffffffffffffffffffffffffffffffffff1673ffffffffffffffffffffffffffffffffffffffff166391d148547fb39b9469ac3ddf8d58f06201f7e17350a277b429ed2a39727bf2f3a5165dba1a336040518363ffffffff1660e01b8152600401610958929190612a35565b602060405180830381865afa158015610975573d6000803e3d6000fd5b505050506040513d601f19601f820116820180604052508101906109999190612a8a565b6109d8576040517f08c379a00000000000000000000000000000000000000000000000000000000081526004016109cf90612b6f565b60405180910390fd5b600160028111156109ec576109eb612484565b5b600860009054906101000a900460ff166002811115610a0e57610a0d612484565b5b14610a4e576040517f08c379a0000000000000000000000000000000000000000000000000000000008152600401610a45906129fc565b60405180910390fd5b600060030160009054906101000a900473ffffffffffffffffffffffffffffffffffffffff1673ffffffffffffffffffffffffffffffffffffffff163373ffffffffffffffffffffffffffffffffffffffff1614610ae1576040517f08c379a0000000000000000000000000000000000000000000000000000000008152600401610ad890612bdb565b60405180910390fd5b60005b82829050811015610c5657600960009054906101000a900473ffffffffffffffffffffffffffffffffffffffff1673ffffffffffffffffffffffffffffffffffffffff166391d148547fc951d7098b66ba0b8b77265b6e9cf0e187d73125a42bcd0061b09a68be421810858585818110610b6157610b60612bfb565b5b9050602002016020810190610b76919061260b565b6040518363ffffffff1660e01b8152600401610b93929190612a35565b602060405180830381865afa158015610bb0573d6000803e3d6000fd5b505050506040513d601f19601f82011682018060405250810190610bd49190612a8a565b610c13576040517f08c379a0000000000000000000000000000000000000000000000000000000008152600401610c0a90612c76565b60405180910390fd5b610c43838383818110610c2957610c28612bfb565b5b9050602002016020810190610c3e919061260b565b611d1d565b8080610c4e90612cc5565b915050610ae4565b505050565b600a8181548110610c6b57600080fd5b906000526020600020016000915054906101000a900473ffffffffffffffffffffffffffffffffffffffff1681565b7f000000000000000000000000000000000000000000000000000000000000000073ffffffffffffffffffffffffffffffffffffffff163373ffffffffffffffffffffffffffffffffffffffff1614610d28576040517f08c379a0000000000000000000000000000000000000000000000000000000008152600401610d1f90612858565b60405180910390fd5b6002600860006101000a81548160ff02191690836002811115610d4e57610d4d612484565b5b02179055506000600701544211610d6457600080fd5b7fbf67515a38ee520223d32c1266d52101c30d936ed1f3e436c8caeb0a43cb06bf42604051610d9391906127f1565b60405180910390a1565b60016002811115610db157610db0612484565b5b600860009054906101000a900460ff166002811115610dd357610dd2612484565b5b14610e13576040517f08c379a0000000000000000000000000000000000000000000000000000000008152600401610e0a906129fc565b60405180910390fd5b600960009054906101000a900473ffffffffffffffffffffffffffffffffffffffff1673ffffffffffffffffffffffffffffffffffffffff166391d148547fc951d7098b66ba0b8b77265b6e9cf0e187d73125a42bcd0061b09a68be421810336040518363ffffffff1660e01b8152600401610e90929190612a35565b602060405180830381865afa158015610ead573d6000803e3d6000fd5b505050506040513d601f19601f82011682018060405250810190610ed19190612a8a565b610f10576040517f08c379a0000000000000000000000000000000000000000000000000000000008152600401610f0790612b03565b60405180910390fd5b6000600b60003373ffffffffffffffffffffffffffffffffffffffff1673ffffffffffffffffffffffffffffffffffffffff16815260200190815260200160002090508060000160149054906101000a900460ff16610fa4576040517f08c379a0000000000000000000000000000000000000000000000000000000008152600401610f9b90612d59565b60405180910390fd5b600c6000815480929190610fb790612d79565b919050555060008160000160146101000a81548160ff02191690831515021790555050565b600960009054906101000a900473ffffffffffffffffffffffffffffffffffffffff1673ffffffffffffffffffffffffffffffffffffffff166391d148547fb39b9469ac3ddf8d58f06201f7e17350a277b429ed2a39727bf2f3a5165dba1a336040518363ffffffff1660e01b8152600401611059929190612a35565b602060405180830381865afa158015611076573d6000803e3d6000fd5b505050506040513d601f19601f8201168201806040525081019061109a9190612a8a565b6110d9576040517f08c379a00000000000000000000000000000000000000000000000000000000081526004016110d090612b6f565b60405180910390fd5b600160028111156110ed576110ec612484565b5b600860009054906101000a900460ff16600281111561110f5761110e612484565b5b1461114f576040517f08c379a0000000000000000000000000000000000000000000000000000000008152600401611146906129fc565b60405180910390fd5b60006006015442118015611167575060006007015442105b61117057600080fd5b600d60008273ffffffffffffffffffffffffffffffffffffffff1673ffffffffffffffffffffffffffffffffffffffff16815260200190815260200160002060009054906101000a900460ff166111fc576040517f08c379a00000000000000000000000000000000000000000000000000000000081526004016111f390612d59565b60405180910390fd5b6000600d60008373ffffffffffffffffffffffffffffffffffffffff1673ffffffffffffffffffffffffffffffffffffffff16815260200190815260200160002060006101000a81548160ff0219169083151502179055507ffe786ec358465053564cb2b843230fd06c070174c46fbc3786d85d894ff392108142604051611285929190612da2565b60405180910390a150565b7f000000000000000000000000000000000000000000000000000000000000000081565b600b6020528060005260406000206000915090508060000160009054906101000a900473ffffffffffffffffffffffffffffffffffffffff16908060000160149054906101000a900460ff16905082565b600d6020528060005260406000206000915054906101000a900460ff1681565b60606000600c5467ffffffffffffffff811115611345576113446120a5565b5b6040519080825280602002602001820160405280156113735781602001602082028036833780820191505090505b509050600080600090505b600a8054905081101561154057600d6000600a83815481106113a3576113a2612bfb565b5b9060005260206000200160009054906101000a900473ffffffffffffffffffffffffffffffffffffffff1673ffffffffffffffffffffffffffffffffffffffff1673ffffffffffffffffffffffffffffffffffffffff16815260200190815260200160002060009054906101000a900460ff16801561148d5750600073ffffffffffffffffffffffffffffffffffffffff16600a828154811061144957611448612bfb565b5b9060005260206000200160009054906101000a900473ffffffffffffffffffffffffffffffffffffffff1673ffffffffffffffffffffffffffffffffffffffff1614155b1561152d57600a81815481106114a6576114a5612bfb565b5b9060005260206000200160009054906101000a900473ffffffffffffffffffffffffffffffffffffffff168383815181106114e4576114e3612bfb565b5b602002602001019073ffffffffffffffffffffffffffffffffffffffff16908173ffffffffffffffffffffffffffffffffffffffff1681525050818061152990612cc5565b9250505b808061153890612cc5565b91505061137e565b50819250505090565b600960009054906101000a900473ffffffffffffffffffffffffffffffffffffffff1681565b600c5481565b7f000000000000000000000000000000000000000000000000000000000000000073ffffffffffffffffffffffffffffffffffffffff163373ffffffffffffffffffffffffffffffffffffffff1614611603576040517f08c379a00000000000000000000000000000000000000000000000000000000081526004016115fa90612858565b60405180910390fd5b6001600860006101000a81548160ff0219169083600281111561162957611628612484565b5b0217905550565b6001600281111561164457611643612484565b5b600860009054906101000a900460ff16600281111561166657611665612484565b5b146116a6576040517f08c379a000000000000000000000000000000000000000000000000000000000815260040161169d906129fc565b60405180910390fd5b600960009054906101000a900473ffffffffffffffffffffffffffffffffffffffff1673ffffffffffffffffffffffffffffffffffffffff166391d148547fb39b9469ac3ddf8d58f06201f7e17350a277b429ed2a39727bf2f3a5165dba1a336040518363ffffffff1660e01b8152600401611723929190612a35565b602060405180830381865afa158015611740573d6000803e3d6000fd5b505050506040513d601f19601f820116820180604052508101906117649190612a8a565b6117a3576040517f08c379a000000000000000000000000000000000000000000000000000000000815260040161179a90612b6f565b60405180910390fd5b600060060154421180156117bb575060006007015442105b6117c457600080fd5b60005b828290508110156119f1576000600b60008585858181106117eb576117ea612bfb565b5b9050602002016020810190611800919061260b565b73ffffffffffffffffffffffffffffffffffffffff1673ffffffffffffffffffffffffffffffffffffffff1681526020019081526020016000206040518060400160405290816000820160009054906101000a900473ffffffffffffffffffffffffffffffffffffffff1673ffffffffffffffffffffffffffffffffffffffff1673ffffffffffffffffffffffffffffffffffffffff1681526020016000820160149054906101000a900460ff16151515158152505090508060200151801561191f57508383838181106118d7576118d6612bfb565b5b90506020020160208101906118ec919061260b565b73ffffffffffffffffffffffffffffffffffffffff16816000015173ffffffffffffffffffffffffffffffffffffffff16145b61195e576040517f08c379a000000000000000000000000000000000000000000000000000000000815260040161195590612d59565b60405180910390fd5b6001600d600086868681811061197757611976612bfb565b5b905060200201602081019061198c919061260b565b73ffffffffffffffffffffffffffffffffffffffff1673ffffffffffffffffffffffffffffffffffffffff16815260200190815260200160002060006101000a81548160ff0219169083151502179055505080806119e990612cc5565b9150506117c7565b507f698dd5b92696456649e8994759ccfe7076b1ebe9096ecb083211d8bfe81638428282905042604051611a26929190612dcb565b60405180910390a15050565b60606000600c5467ffffffffffffffff811115611a5257611a516120a5565b5b604051908082528060200260200182016040528015611a805781602001602082028036833780820191505090505b509050600080600090505b600a80549050811015611d1457600b6000600a8381548110611ab057611aaf612bfb565b5b9060005260206000200160009054906101000a900473ffffffffffffffffffffffffffffffffffffffff1673ffffffffffffffffffffffffffffffffffffffff1673ffffffffffffffffffffffffffffffffffffffff16815260200190815260200160002060000160149054906101000a900460ff168015611bff5750600073ffffffffffffffffffffffffffffffffffffffff16600b6000600a8481548110611b5d57611b5c612bfb565b5b9060005260206000200160009054906101000a900473ffffffffffffffffffffffffffffffffffffffff1673ffffffffffffffffffffffffffffffffffffffff1673ffffffffffffffffffffffffffffffffffffffff16815260200190815260200160002060000160009054906101000a900473ffffffffffffffffffffffffffffffffffffffff1673ffffffffffffffffffffffffffffffffffffffff1614155b15611d0157600b6000600a8381548110611c1c57611c1b612bfb565b5b9060005260206000200160009054906101000a900473ffffffffffffffffffffffffffffffffffffffff1673ffffffffffffffffffffffffffffffffffffffff1673ffffffffffffffffffffffffffffffffffffffff16815260200190815260200160002060000160009054906101000a900473ffffffffffffffffffffffffffffffffffffffff16838381518110611cb857611cb7612bfb565b5b602002602001019073ffffffffffffffffffffffffffffffffffffffff16908173ffffffffffffffffffffffffffffffffffffffff16815250508180611cfd90612cc5565b9250505b8080611d0c90612cc5565b915050611a8b565b50819250505090565b6000600b60008373ffffffffffffffffffffffffffffffffffffffff1673ffffffffffffffffffffffffffffffffffffffff16815260200190815260200160002090508060000160149054906101000a900460ff1615611db2576040517f08c379a0000000000000000000000000000000000000000000000000000000008152600401611da990612e40565b60405180910390fd5b600c6000815480929190611dc590612cc5565b9190505550600073ffffffffffffffffffffffffffffffffffffffff168160000160009054906101000a900473ffffffffffffffffffffffffffffffffffffffff1673ffffffffffffffffffffffffffffffffffffffff1614611e445760018160000160146101000a81548160ff021916908315150217905550611f85565b600060405180604001604052808473ffffffffffffffffffffffffffffffffffffffff16815260200160011515815250905080600b60008573ffffffffffffffffffffffffffffffffffffffff1673ffffffffffffffffffffffffffffffffffffffff16815260200190815260200160002060008201518160000160006101000a81548173ffffffffffffffffffffffffffffffffffffffff021916908373ffffffffffffffffffffffffffffffffffffffff16021790555060208201518160000160146101000a81548160ff021916908315150217905550905050600a839080600181540180825580915050600190039060005260206000200160009091909190916101000a81548173ffffffffffffffffffffffffffffffffffffffff021916908373ffffffffffffffffffffffffffffffffffffffff160217905550505b600060020154600c541115611fcf576040517f08c379a0000000000000000000000000000000000000000000000000000000008152600401611fc690612eac565b60405180910390fd5b5050565b828054611fdf9061297f565b90600052602060002090601f0160209004810192826120015760008555612048565b82601f1061201a57805160ff1916838001178555612048565b82800160010185558215612048579182015b8281111561204757825182559160200191906001019061202c565b5b5090506120559190612059565b5090565b5b8082111561207257600081600090555060010161205a565b5090565b6000604051905090565b600080fd5b600080fd5b600080fd5b600080fd5b6000601f19601f8301169050919050565b7f4e487b7100000000000000000000000000000000000000000000000000000000600052604160045260246000fd5b6120dd82612094565b810181811067ffffffffffffffff821117156120fc576120fb6120a5565b5b80604052505050565b600061210f612076565b905061211b82826120d4565b919050565b600067ffffffffffffffff82111561213b5761213a6120a5565b5b61214482612094565b9050602081019050919050565b82818337600083830152505050565b600061217361216e84612120565b612105565b90508281526020810184848401111561218f5761218e61208f565b5b61219a848285612151565b509392505050565b600082601f8301126121b7576121b661208a565b5b81356121c7848260208601612160565b91505092915050565b6000819050919050565b6121e3816121d0565b81146121ee57600080fd5b50565b600081359050612200816121da565b92915050565b600073ffffffffffffffffffffffffffffffffffffffff82169050919050565b600061223182612206565b9050919050565b61224181612226565b811461224c57600080fd5b50565b60008135905061225e81612238565b92915050565b600080600080600080600080610100898b03121561228557612284612080565b5b600089013567ffffffffffffffff8111156122a3576122a2612085565b5b6122af8b828c016121a2565b985050602089013567ffffffffffffffff8111156122d0576122cf612085565b5b6122dc8b828c016121a2565b97505060406122ed8b828c016121f1565b96505060606122fe8b828c0161224f565b955050608061230f8b828c016121f1565b94505060a06123208b828c016121f1565b93505060c06123318b828c016121f1565b92505060e06123428b828c016121f1565b9150509295985092959890939650565b600081519050919050565b600082825260208201905092915050565b60005b8381101561238c578082015181840152602081019050612371565b8381111561239b576000848401525b50505050565b60006123ac82612352565b6123b6818561235d565b93506123c681856020860161236e565b6123cf81612094565b840191505092915050565b6123e3816121d0565b82525050565b6123f281612226565b82525050565b6000610100820190508181036000830152612413818b6123a1565b90508181036020830152612427818a6123a1565b905061243660408301896123da565b61244360608301886123e9565b61245060808301876123da565b61245d60a08301866123da565b61246a60c08301856123da565b61247760e08301846123da565b9998505050505050505050565b7f4e487b7100000000000000000000000000000000000000000000000000000000600052602160045260246000fd5b600381106124c4576124c3612484565b5b50565b60008190506124d5826124b3565b919050565b60006124e5826124c7565b9050919050565b6124f5816124da565b82525050565b600060208201905061251060008301846124ec565b92915050565b600060208201905061252b60008301846123e9565b92915050565b600080fd5b600080fd5b60008083601f8401126125515761255061208a565b5b8235905067ffffffffffffffff81111561256e5761256d612531565b5b60208301915083602082028301111561258a57612589612536565b5b9250929050565b600080602083850312156125a8576125a7612080565b5b600083013567ffffffffffffffff8111156125c6576125c5612085565b5b6125d28582860161253b565b92509250509250929050565b6000602082840312156125f4576125f3612080565b5b6000612602848285016121f1565b91505092915050565b60006020828403121561262157612620612080565b5b600061262f8482850161224f565b91505092915050565b60008115159050919050565b61264d81612638565b82525050565b600060408201905061266860008301856123e9565b6126756020830184612644565b9392505050565b60006020820190506126916000830184612644565b92915050565b600081519050919050565b600082825260208201905092915050565b6000819050602082019050919050565b6126cc81612226565b82525050565b60006126de83836126c3565b60208301905092915050565b6000602082019050919050565b600061270282612697565b61270c81856126a2565b9350612717836126b3565b8060005b8381101561274857815161272f88826126d2565b975061273a836126ea565b92505060018101905061271b565b5085935050505092915050565b6000602082019050818103600083015261276f81846126f7565b905092915050565b6000819050919050565b600061279c61279761279284612206565b612777565b612206565b9050919050565b60006127ae82612781565b9050919050565b60006127c0826127a3565b9050919050565b6127d0816127b5565b82525050565b60006020820190506127eb60008301846127c7565b92915050565b600060208201905061280660008301846123da565b92915050565b7f4f6e6c79206f776e657200000000000000000000000000000000000000000000600082015250565b6000612842600a8361235d565b915061284d8261280c565b602082019050919050565b6000602082019050818103600083015261287181612835565b9050919050565b7f53433a204f6e6c79204c6f636b00000000000000000000000000000000000000600082015250565b60006128ae600d8361235d565b91506128b982612878565b602082019050919050565b600060208201905081810360008301526128dd816128a1565b9050919050565b7f53433a2054696d6520697320696e76616c696400000000000000000000000000600082015250565b600061291a60138361235d565b9150612925826128e4565b602082019050919050565b600060208201905081810360008301526129498161290d565b9050919050565b7f4e487b7100000000000000000000000000000000000000000000000000000000600052602260045260246000fd5b6000600282049050600182168061299757607f821691505b6020821081036129aa576129a9612950565b5b50919050565b7f53433a204f6e6c79204f70656e00000000000000000000000000000000000000600082015250565b60006129e6600d8361235d565b91506129f1826129b0565b602082019050919050565b60006020820190508181036000830152612a15816129d9565b9050919050565b6000819050919050565b612a2f81612a1c565b82525050565b6000604082019050612a4a6000830185612a26565b612a5760208301846123e9565b9392505050565b612a6781612638565b8114612a7257600080fd5b50565b600081519050612a8481612a5e565b92915050565b600060208284031215612aa057612a9f612080565b5b6000612aae84828501612a75565b91505092915050565b7f4d433a204f6e6c792053747564656e7400000000000000000000000000000000600082015250565b6000612aed60108361235d565b9150612af882612ab7565b602082019050919050565b60006020820190508181036000830152612b1c81612ae0565b9050919050565b7f4d433a204f6e6c79204c65637475726572000000000000000000000000000000600082015250565b6000612b5960118361235d565b9150612b6482612b23565b602082019050919050565b60006020820190508181036000830152612b8881612b4c565b9050919050565b7f4d433a204f6e6c792074686520706572736f6e20696e20636861726765000000600082015250565b6000612bc5601d8361235d565b9150612bd082612b8f565b602082019050919050565b60006020820190508181036000830152612bf481612bb8565b9050919050565b7f4e487b7100000000000000000000000000000000000000000000000000000000600052603260045260246000fd5b7f53686f756c64206f6e6c79206164642073747564656e74000000000000000000600082015250565b6000612c6060178361235d565b9150612c6b82612c2a565b602082019050919050565b60006020820190508181036000830152612c8f81612c53565b9050919050565b7f4e487b7100000000000000000000000000000000000000000000000000000000600052601160045260246000fd5b6000612cd0826121d0565b91507fffffffffffffffffffffffffffffffffffffffffffffffffffffffffffffffff8203612d0257612d01612c96565b5b600182019050919050565b7f53433a2063616e63656c206572726f7200000000000000000000000000000000600082015250565b6000612d4360108361235d565b9150612d4e82612d0d565b602082019050919050565b60006020820190508181036000830152612d7281612d36565b9050919050565b6000612d84826121d0565b915060008203612d9757612d96612c96565b5b600182039050919050565b6000604082019050612db760008301856123e9565b612dc460208301846123da565b9392505050565b6000604082019050612de060008301856123da565b612ded60208301846123da565b9392505050565b7f53433a207265676973746572206572726f720000000000000000000000000000600082015250565b6000612e2a60128361235d565b9150612e3582612df4565b602082019050919050565b60006020820190508181036000830152612e5981612e1d565b9050919050565b7f5265616368206f7574206c696d69740000000000000000000000000000000000600082015250565b6000612e96600f8361235d565b9150612ea182612e60565b602082019050919050565b60006020820190508181036000830152612ec581612e89565b905091905056fea2646970667358221220ef92ff8f5fd15577fb2f06ef012b423c42860fc8ec9b5eba32113a829965748364736f6c634300080e0033a26469706673582212208e4ffcba954a3e3b48bb6125a070c600d424cff2e66675632d763d3c4f4c475c64736f6c634300080e0033",
  "immutableReferences": {},
  "source": "// SPDX-License-Identifier: UNLICENSED\r\npragma solidity ^0.8.0;\r\n\r\nimport \"../SubjectContract.sol\";\r\nimport \"../interfaces/ISubjectFactory.sol\";\r\n\r\ncontract SubjectFactory is ISubjectFactory {\r\n    function createNewMission(address owner, address accessControll)\r\n        public\r\n        override\r\n        returns (address)\r\n    {\r\n        SubjectContract subjectContract = new SubjectContract(\r\n            owner,\r\n            accessControll\r\n        );\r\n        return address(subjectContract);\r\n    }\r\n}\r\n",
  "sourcePath": "E:\\KLTN\\KLTN\\KLTN-contracts\\contracts\\studentmanager\\factories\\SubjectFactory.sol",
  "compiler": {
    "name": "solc",
    "version": "0.8.14+commit.80d49f37.Emscripten.clang"
  },
  "schemaVersion": "3.4.3",
  "updatedAt": "2022-05-21T08:21:38.000Z",
  "networkType": "ethereum",
  "devdoc": {
    "kind": "dev",
    "methods": {},
    "version": 1
  },
  "userdoc": {
    "kind": "user",
    "methods": {},
    "version": 1
  }
}