{
  "contractName": "SubjectContract",
  "abi": [
    {
      "inputs": [
        {
          "internalType": "address",
          "name": "_owner",
          "type": "address"
        },
        {
          "internalType": "address",
          "name": "_accessControll",
          "type": "address"
        }
      ],
      "stateMutability": "nonpayable",
      "type": "constructor"
    },
    {
      "anonymous": false,
      "inputs": [
        {
          "indexed": false,
          "internalType": "uint256",
          "name": "timestamp",
          "type": "uint256"
        }
      ],
      "name": "Close",
      "type": "event"
    },
    {
      "anonymous": false,
      "inputs": [
        {
          "indexed": false,
          "internalType": "uint256",
          "name": "studentslength",
          "type": "uint256"
        },
        {
          "indexed": false,
          "internalType": "uint256",
          "name": "timestamp",
          "type": "uint256"
        }
      ],
      "name": "Confirm",
      "type": "event"
    },
    {
      "anonymous": false,
      "inputs": [
        {
          "indexed": true,
          "internalType": "uint256",
          "name": "id",
          "type": "uint256"
        }
      ],
      "name": "CreatedNewSubject",
      "type": "event"
    },
    {
      "anonymous": false,
      "inputs": [
        {
          "indexed": false,
          "internalType": "address",
          "name": "student",
          "type": "address"
        },
        {
          "indexed": false,
          "internalType": "uint256",
          "name": "timestamp",
          "type": "uint256"
        }
      ],
      "name": "UnConfirm",
      "type": "event"
    },
    {
      "inputs": [],
      "name": "UITToken",
      "outputs": [
        {
          "internalType": "address",
          "name": "",
          "type": "address"
        }
      ],
      "stateMutability": "view",
      "type": "function"
    },
    {
      "inputs": [],
      "name": "accessControll",
      "outputs": [
        {
          "internalType": "contract IAccessControl",
          "name": "",
          "type": "address"
        }
      ],
      "stateMutability": "view",
      "type": "function"
    },
    {
      "inputs": [
        {
          "internalType": "address",
          "name": "",
          "type": "address"
        }
      ],
      "name": "addressToStudent",
      "outputs": [
        {
          "internalType": "address",
          "name": "studentAddress",
          "type": "address"
        },
        {
          "internalType": "bool",
          "name": "participantToTrue",
          "type": "bool"
        }
      ],
      "stateMutability": "view",
      "type": "function"
    },
    {
      "inputs": [],
      "name": "amount",
      "outputs": [
        {
          "internalType": "uint256",
          "name": "",
          "type": "uint256"
        }
      ],
      "stateMutability": "view",
      "type": "function"
    },
    {
      "inputs": [
        {
          "internalType": "address",
          "name": "",
          "type": "address"
        }
      ],
      "name": "completedAddress",
      "outputs": [
        {
          "internalType": "bool",
          "name": "",
          "type": "bool"
        }
      ],
      "stateMutability": "view",
      "type": "function"
    },
    {
      "inputs": [],
      "name": "owner",
      "outputs": [
        {
          "internalType": "address",
          "name": "",
          "type": "address"
        }
      ],
      "stateMutability": "view",
      "type": "function"
    },
    {
      "inputs": [],
      "name": "status",
      "outputs": [
        {
          "internalType": "enum ISubjectContract.Status",
          "name": "",
          "type": "uint8"
        }
      ],
      "stateMutability": "view",
      "type": "function"
    },
    {
      "inputs": [
        {
          "internalType": "uint256",
          "name": "",
          "type": "uint256"
        }
      ],
      "name": "student",
      "outputs": [
        {
          "internalType": "address",
          "name": "",
          "type": "address"
        }
      ],
      "stateMutability": "view",
      "type": "function"
    },
    {
      "inputs": [],
      "name": "subject",
      "outputs": [
        {
          "internalType": "uint256",
          "name": "Id",
          "type": "uint256"
        },
        {
          "internalType": "string",
          "name": "urlMetadata",
          "type": "string"
        },
        {
          "internalType": "uint256",
          "name": "maxEntrant",
          "type": "uint256"
        },
        {
          "internalType": "address",
          "name": "personInCharge",
          "type": "address"
        },
        {
          "internalType": "uint256",
          "name": "startTime",
          "type": "uint256"
        },
        {
          "internalType": "uint256",
          "name": "endTimeToRegister",
          "type": "uint256"
        },
        {
          "internalType": "uint256",
          "name": "endTime",
          "type": "uint256"
        },
        {
          "internalType": "uint256",
          "name": "endTimeToConfirm",
          "type": "uint256"
        }
      ],
      "stateMutability": "view",
      "type": "function"
    },
    {
      "inputs": [
        {
          "internalType": "uint256",
          "name": "_subjectId",
          "type": "uint256"
        },
        {
          "internalType": "string",
          "name": "_urlMetadata",
          "type": "string"
        },
        {
          "internalType": "uint256",
          "name": "_maxEntrant",
          "type": "uint256"
        },
        {
          "internalType": "address",
          "name": "_persionInCharge",
          "type": "address"
        },
        {
          "internalType": "uint256",
          "name": "_startTime",
          "type": "uint256"
        },
        {
          "internalType": "uint256",
          "name": "_endTimeToRegister",
          "type": "uint256"
        },
        {
          "internalType": "uint256",
          "name": "_endTime",
          "type": "uint256"
        },
        {
          "internalType": "uint256",
          "name": "_endTimeToConfirm",
          "type": "uint256"
        }
      ],
      "name": "setBasicForSubject",
      "outputs": [],
      "stateMutability": "nonpayable",
      "type": "function"
    },
    {
      "inputs": [],
      "name": "start",
      "outputs": [],
      "stateMutability": "nonpayable",
      "type": "function"
    },
    {
      "inputs": [
        {
          "internalType": "address[]",
          "name": "_students",
          "type": "address[]"
        }
      ],
      "name": "addStudentToSubject",
      "outputs": [],
      "stateMutability": "nonpayable",
      "type": "function"
    },
    {
      "inputs": [],
      "name": "register",
      "outputs": [],
      "stateMutability": "nonpayable",
      "type": "function"
    },
    {
      "inputs": [],
      "name": "cancelRegister",
      "outputs": [],
      "stateMutability": "nonpayable",
      "type": "function"
    },
    {
      "inputs": [
        {
          "internalType": "address[]",
          "name": "_student",
          "type": "address[]"
        }
      ],
      "name": "confirmCompletedAddress",
      "outputs": [],
      "stateMutability": "nonpayable",
      "type": "function"
    },
    {
      "inputs": [
        {
          "internalType": "address",
          "name": "_student",
          "type": "address"
        }
      ],
      "name": "unConfirmCompletedAddress",
      "outputs": [],
      "stateMutability": "nonpayable",
      "type": "function"
    },
    {
      "inputs": [],
      "name": "close",
      "outputs": [],
      "stateMutability": "nonpayable",
      "type": "function"
    },
    {
      "inputs": [],
      "name": "getParticipantList",
      "outputs": [
        {
          "internalType": "address[]",
          "name": "",
          "type": "address[]"
        }
      ],
      "stateMutability": "view",
      "type": "function"
    },
    {
      "inputs": [],
      "name": "getParticipantListCompleted",
      "outputs": [
        {
          "internalType": "address[]",
          "name": "",
          "type": "address[]"
        }
      ],
      "stateMutability": "view",
      "type": "function"
    }
  ],
  "bytecode": "0x60a06040526000600860006101000a81548160ff021916908360028111156200002d576200002c620000e2565b5b02179055503480156200003f57600080fd5b50604051620030373803806200303783398181016040528101906200006591906200017b565b8173ffffffffffffffffffffffffffffffffffffffff1660808173ffffffffffffffffffffffffffffffffffffffff168152505080600960006101000a81548173ffffffffffffffffffffffffffffffffffffffff021916908373ffffffffffffffffffffffffffffffffffffffff1602179055505050620001c2565b7f4e487b7100000000000000000000000000000000000000000000000000000000600052602160045260246000fd5b600080fd5b600073ffffffffffffffffffffffffffffffffffffffff82169050919050565b6000620001438262000116565b9050919050565b620001558162000136565b81146200016157600080fd5b50565b60008151905062000175816200014a565b92915050565b6000806040838503121562000195576200019462000111565b5b6000620001a58582860162000164565b9250506020620001b88582860162000164565b9150509250929050565b608051612e44620001f36000396000818161099c01528181610f920152818161102701526114dc0152612e446000f3fe608060405234801561001057600080fd5b50600436106101215760003560e01c80638da5cb5b116100ad578063aa4936ce11610071578063aa4936ce146102c6578063aa8c217c146102e4578063be9a655514610302578063d16e57fe1461030c578063ed214fff1461032857610121565b80638da5cb5b1461020d578063987547101461022b578063a32fb3421461025c578063a53dc8d21461028c578063a7f44e0d146102a857610121565b806335955121116100f4578063359551211461019157806335f34232146101ad57806343d726d6146101dd57806349aa7033146101e75780636e88f230146101f157610121565b80630a59a98c146101265780631aa3a0081461014b578063200d2ed2146101555780632fe7a96d14610173575b600080fd5b61012e610346565b6040516101429897969594939291906120ce565b60405180910390f35b610153610424565b005b61015d6105a2565b60405161016a91906121ca565b60405180910390f35b61017b6105b5565b60405161018891906121e5565b60405180910390f35b6101ab60048036038101906101a69190612279565b6105db565b005b6101c760048036038101906101c291906122f2565b61095b565b6040516101d491906121e5565b60405180910390f35b6101e561099a565b005b6101ef610a9d565b005b61020b6004803603810190610206919061234b565b610cdc565b005b610215610f90565b60405161022291906121e5565b60405180910390f35b6102456004803603810190610240919061234b565b610fb4565b604051610253929190612393565b60405180910390f35b6102766004803603810190610271919061234b565b611005565b60405161028391906123bc565b60405180910390f35b6102a660048036038101906102a19190612507565b611025565b005b6102b061128a565b6040516102bd9190612697565b60405180910390f35b6102ce6114ae565b6040516102db9190612718565b60405180910390f35b6102ec6114d4565b6040516102f99190612733565b60405180910390f35b61030a6114da565b005b61032660048036038101906103219190612279565b611595565b005b610330611997565b60405161033d9190612697565b60405180910390f35b600080600001549080600101805461035d9061277d565b80601f01602080910402602001604051908101604052809291908181526020018280546103899061277d565b80156103d65780601f106103ab576101008083540402835291602001916103d6565b820191906000526020600020905b8154815290600101906020018083116103b957829003601f168201915b5050505050908060020154908060030160009054906101000a900473ffffffffffffffffffffffffffffffffffffffff16908060040154908060050154908060060154908060070154905088565b6001600281111561043857610437612153565b5b600860009054906101000a900460ff16600281111561045a57610459612153565b5b1461049a576040517f08c379a0000000000000000000000000000000000000000000000000000000008152600401610491906127fa565b60405180910390fd5b600960009054906101000a900473ffffffffffffffffffffffffffffffffffffffff1673ffffffffffffffffffffffffffffffffffffffff166391d148547fc951d7098b66ba0b8b77265b6e9cf0e187d73125a42bcd0061b09a68be421810336040518363ffffffff1660e01b8152600401610517929190612833565b602060405180830381865afa158015610534573d6000803e3d6000fd5b505050506040513d601f19601f820116820180604052508101906105589190612888565b610597576040517f08c379a000000000000000000000000000000000000000000000000000000000815260040161058e90612901565b60405180910390fd5b6105a033611c82565b565b600860009054906101000a900460ff1681565b600860019054906101000a900473ffffffffffffffffffffffffffffffffffffffff1681565b600960009054906101000a900473ffffffffffffffffffffffffffffffffffffffff1673ffffffffffffffffffffffffffffffffffffffff166391d148547fb39b9469ac3ddf8d58f06201f7e17350a277b429ed2a39727bf2f3a5165dba1a336040518363ffffffff1660e01b8152600401610658929190612833565b602060405180830381865afa158015610675573d6000803e3d6000fd5b505050506040513d601f19601f820116820180604052508101906106999190612888565b6106d8576040517f08c379a00000000000000000000000000000000000000000000000000000000081526004016106cf9061296d565b60405180910390fd5b600160028111156106ec576106eb612153565b5b600860009054906101000a900460ff16600281111561070e5761070d612153565b5b1461074e576040517f08c379a0000000000000000000000000000000000000000000000000000000008152600401610745906127fa565b60405180910390fd5b600060030160009054906101000a900473ffffffffffffffffffffffffffffffffffffffff1673ffffffffffffffffffffffffffffffffffffffff163373ffffffffffffffffffffffffffffffffffffffff16146107e1576040517f08c379a00000000000000000000000000000000000000000000000000000000081526004016107d8906129d9565b60405180910390fd5b60005b8282905081101561095657600960009054906101000a900473ffffffffffffffffffffffffffffffffffffffff1673ffffffffffffffffffffffffffffffffffffffff166391d148547fc951d7098b66ba0b8b77265b6e9cf0e187d73125a42bcd0061b09a68be421810858585818110610861576108606129f9565b5b9050602002016020810190610876919061234b565b6040518363ffffffff1660e01b8152600401610893929190612833565b602060405180830381865afa1580156108b0573d6000803e3d6000fd5b505050506040513d601f19601f820116820180604052508101906108d49190612888565b610913576040517f08c379a000000000000000000000000000000000000000000000000000000000815260040161090a90612a74565b60405180910390fd5b610943838383818110610929576109286129f9565b5b905060200201602081019061093e919061234b565b611c82565b808061094e90612ac3565b9150506107e4565b505050565b600a818154811061096b57600080fd5b906000526020600020016000915054906101000a900473ffffffffffffffffffffffffffffffffffffffff1681565b7f000000000000000000000000000000000000000000000000000000000000000073ffffffffffffffffffffffffffffffffffffffff163373ffffffffffffffffffffffffffffffffffffffff1614610a28576040517f08c379a0000000000000000000000000000000000000000000000000000000008152600401610a1f90612b57565b60405180910390fd5b6002600860006101000a81548160ff02191690836002811115610a4e57610a4d612153565b5b02179055506000600701544211610a6457600080fd5b7fbf67515a38ee520223d32c1266d52101c30d936ed1f3e436c8caeb0a43cb06bf42604051610a939190612733565b60405180910390a1565b60016002811115610ab157610ab0612153565b5b600860009054906101000a900460ff166002811115610ad357610ad2612153565b5b14610b13576040517f08c379a0000000000000000000000000000000000000000000000000000000008152600401610b0a906127fa565b60405180910390fd5b600960009054906101000a900473ffffffffffffffffffffffffffffffffffffffff1673ffffffffffffffffffffffffffffffffffffffff166391d148547fc951d7098b66ba0b8b77265b6e9cf0e187d73125a42bcd0061b09a68be421810336040518363ffffffff1660e01b8152600401610b90929190612833565b602060405180830381865afa158015610bad573d6000803e3d6000fd5b505050506040513d601f19601f82011682018060405250810190610bd19190612888565b610c10576040517f08c379a0000000000000000000000000000000000000000000000000000000008152600401610c0790612901565b60405180910390fd5b6000600b60003373ffffffffffffffffffffffffffffffffffffffff1673ffffffffffffffffffffffffffffffffffffffff16815260200190815260200160002090508060000160149054906101000a900460ff16610ca4576040517f08c379a0000000000000000000000000000000000000000000000000000000008152600401610c9b90612bc3565b60405180910390fd5b600c6000815480929190610cb790612be3565b919050555060008160000160146101000a81548160ff02191690831515021790555050565b600960009054906101000a900473ffffffffffffffffffffffffffffffffffffffff1673ffffffffffffffffffffffffffffffffffffffff166391d148547fb39b9469ac3ddf8d58f06201f7e17350a277b429ed2a39727bf2f3a5165dba1a336040518363ffffffff1660e01b8152600401610d59929190612833565b602060405180830381865afa158015610d76573d6000803e3d6000fd5b505050506040513d601f19601f82011682018060405250810190610d9a9190612888565b610dd9576040517f08c379a0000000000000000000000000000000000000000000000000000000008152600401610dd09061296d565b60405180910390fd5b60016002811115610ded57610dec612153565b5b600860009054906101000a900460ff166002811115610e0f57610e0e612153565b5b14610e4f576040517f08c379a0000000000000000000000000000000000000000000000000000000008152600401610e46906127fa565b60405180910390fd5b60006006015442118015610e67575060006007015442105b610e7057600080fd5b600d60008273ffffffffffffffffffffffffffffffffffffffff1673ffffffffffffffffffffffffffffffffffffffff16815260200190815260200160002060009054906101000a900460ff16610efc576040517f08c379a0000000000000000000000000000000000000000000000000000000008152600401610ef390612bc3565b60405180910390fd5b6000600d60008373ffffffffffffffffffffffffffffffffffffffff1673ffffffffffffffffffffffffffffffffffffffff16815260200190815260200160002060006101000a81548160ff0219169083151502179055507ffe786ec358465053564cb2b843230fd06c070174c46fbc3786d85d894ff392108142604051610f85929190612c0c565b60405180910390a150565b7f000000000000000000000000000000000000000000000000000000000000000081565b600b6020528060005260406000206000915090508060000160009054906101000a900473ffffffffffffffffffffffffffffffffffffffff16908060000160149054906101000a900460ff16905082565b600d6020528060005260406000206000915054906101000a900460ff1681565b7f000000000000000000000000000000000000000000000000000000000000000073ffffffffffffffffffffffffffffffffffffffff163373ffffffffffffffffffffffffffffffffffffffff16146110b3576040517f08c379a00000000000000000000000000000000000000000000000000000000081526004016110aa90612b57565b60405180910390fd5b600060028111156110c7576110c6612153565b5b600860009054906101000a900460ff1660028111156110e9576110e8612153565b5b14611129576040517f08c379a000000000000000000000000000000000000000000000000000000000815260040161112090612c81565b60405180910390fd5b834210801561113757508284105b801561114257508183105b801561114d57508082105b61118c576040517f08c379a000000000000000000000000000000000000000000000000000000000815260040161118390612ced565b60405180910390fd5b6040518061010001604052808981526020018881526020018781526020018673ffffffffffffffffffffffffffffffffffffffff1681526020018581526020018481526020018381526020018281525060008082015181600001556020820151816001019080519060200190611203929190611f38565b506040820151816002015560608201518160030160006101000a81548173ffffffffffffffffffffffffffffffffffffffff021916908373ffffffffffffffffffffffffffffffffffffffff1602179055506080820151816004015560a0820151816005015560c0820151816006015560e082015181600701559050505050505050505050565b60606000600c5467ffffffffffffffff8111156112aa576112a96123dc565b5b6040519080825280602002602001820160405280156112d85781602001602082028036833780820191505090505b509050600080600090505b600a805490508110156114a557600d6000600a8381548110611308576113076129f9565b5b9060005260206000200160009054906101000a900473ffffffffffffffffffffffffffffffffffffffff1673ffffffffffffffffffffffffffffffffffffffff1673ffffffffffffffffffffffffffffffffffffffff16815260200190815260200160002060009054906101000a900460ff1680156113f25750600073ffffffffffffffffffffffffffffffffffffffff16600a82815481106113ae576113ad6129f9565b5b9060005260206000200160009054906101000a900473ffffffffffffffffffffffffffffffffffffffff1673ffffffffffffffffffffffffffffffffffffffff1614155b1561149257600a818154811061140b5761140a6129f9565b5b9060005260206000200160009054906101000a900473ffffffffffffffffffffffffffffffffffffffff16838381518110611449576114486129f9565b5b602002602001019073ffffffffffffffffffffffffffffffffffffffff16908173ffffffffffffffffffffffffffffffffffffffff1681525050818061148e90612ac3565b9250505b808061149d90612ac3565b9150506112e3565b50819250505090565b600960009054906101000a900473ffffffffffffffffffffffffffffffffffffffff1681565b600c5481565b7f000000000000000000000000000000000000000000000000000000000000000073ffffffffffffffffffffffffffffffffffffffff163373ffffffffffffffffffffffffffffffffffffffff1614611568576040517f08c379a000000000000000000000000000000000000000000000000000000000815260040161155f90612b57565b60405180910390fd5b6001600860006101000a81548160ff0219169083600281111561158e5761158d612153565b5b0217905550565b600160028111156115a9576115a8612153565b5b600860009054906101000a900460ff1660028111156115cb576115ca612153565b5b1461160b576040517f08c379a0000000000000000000000000000000000000000000000000000000008152600401611602906127fa565b60405180910390fd5b600960009054906101000a900473ffffffffffffffffffffffffffffffffffffffff1673ffffffffffffffffffffffffffffffffffffffff166391d148547fb39b9469ac3ddf8d58f06201f7e17350a277b429ed2a39727bf2f3a5165dba1a336040518363ffffffff1660e01b8152600401611688929190612833565b602060405180830381865afa1580156116a5573d6000803e3d6000fd5b505050506040513d601f19601f820116820180604052508101906116c99190612888565b611708576040517f08c379a00000000000000000000000000000000000000000000000000000000081526004016116ff9061296d565b60405180910390fd5b60006006015442118015611720575060006007015442105b61172957600080fd5b60005b82829050811015611956576000600b60008585858181106117505761174f6129f9565b5b9050602002016020810190611765919061234b565b73ffffffffffffffffffffffffffffffffffffffff1673ffffffffffffffffffffffffffffffffffffffff1681526020019081526020016000206040518060400160405290816000820160009054906101000a900473ffffffffffffffffffffffffffffffffffffffff1673ffffffffffffffffffffffffffffffffffffffff1673ffffffffffffffffffffffffffffffffffffffff1681526020016000820160149054906101000a900460ff161515151581525050905080602001518015611884575083838381811061183c5761183b6129f9565b5b9050602002016020810190611851919061234b565b73ffffffffffffffffffffffffffffffffffffffff16816000015173ffffffffffffffffffffffffffffffffffffffff16145b6118c3576040517f08c379a00000000000000000000000000000000000000000000000000000000081526004016118ba90612bc3565b60405180910390fd5b6001600d60008686868181106118dc576118db6129f9565b5b90506020020160208101906118f1919061234b565b73ffffffffffffffffffffffffffffffffffffffff1673ffffffffffffffffffffffffffffffffffffffff16815260200190815260200160002060006101000a81548160ff02191690831515021790555050808061194e90612ac3565b91505061172c565b507f698dd5b92696456649e8994759ccfe7076b1ebe9096ecb083211d8bfe8163842828290504260405161198b929190612d0d565b60405180910390a15050565b60606000600c5467ffffffffffffffff8111156119b7576119b66123dc565b5b6040519080825280602002602001820160405280156119e55781602001602082028036833780820191505090505b509050600080600090505b600a80549050811015611c7957600b6000600a8381548110611a1557611a146129f9565b5b9060005260206000200160009054906101000a900473ffffffffffffffffffffffffffffffffffffffff1673ffffffffffffffffffffffffffffffffffffffff1673ffffffffffffffffffffffffffffffffffffffff16815260200190815260200160002060000160149054906101000a900460ff168015611b645750600073ffffffffffffffffffffffffffffffffffffffff16600b6000600a8481548110611ac257611ac16129f9565b5b9060005260206000200160009054906101000a900473ffffffffffffffffffffffffffffffffffffffff1673ffffffffffffffffffffffffffffffffffffffff1673ffffffffffffffffffffffffffffffffffffffff16815260200190815260200160002060000160009054906101000a900473ffffffffffffffffffffffffffffffffffffffff1673ffffffffffffffffffffffffffffffffffffffff1614155b15611c6657600b6000600a8381548110611b8157611b806129f9565b5b9060005260206000200160009054906101000a900473ffffffffffffffffffffffffffffffffffffffff1673ffffffffffffffffffffffffffffffffffffffff1673ffffffffffffffffffffffffffffffffffffffff16815260200190815260200160002060000160009054906101000a900473ffffffffffffffffffffffffffffffffffffffff16838381518110611c1d57611c1c6129f9565b5b602002602001019073ffffffffffffffffffffffffffffffffffffffff16908173ffffffffffffffffffffffffffffffffffffffff16815250508180611c6290612ac3565b9250505b8080611c7190612ac3565b9150506119f0565b50819250505090565b6000600b60008373ffffffffffffffffffffffffffffffffffffffff1673ffffffffffffffffffffffffffffffffffffffff16815260200190815260200160002090508060000160149054906101000a900460ff1615611d17576040517f08c379a0000000000000000000000000000000000000000000000000000000008152600401611d0e90612d82565b60405180910390fd5b600c6000815480929190611d2a90612ac3565b9190505550600073ffffffffffffffffffffffffffffffffffffffff168160000160009054906101000a900473ffffffffffffffffffffffffffffffffffffffff1673ffffffffffffffffffffffffffffffffffffffff1614611da95760018160000160146101000a81548160ff021916908315150217905550611eea565b600060405180604001604052808473ffffffffffffffffffffffffffffffffffffffff16815260200160011515815250905080600b60008573ffffffffffffffffffffffffffffffffffffffff1673ffffffffffffffffffffffffffffffffffffffff16815260200190815260200160002060008201518160000160006101000a81548173ffffffffffffffffffffffffffffffffffffffff021916908373ffffffffffffffffffffffffffffffffffffffff16021790555060208201518160000160146101000a81548160ff021916908315150217905550905050600a839080600181540180825580915050600190039060005260206000200160009091909190916101000a81548173ffffffffffffffffffffffffffffffffffffffff021916908373ffffffffffffffffffffffffffffffffffffffff160217905550505b600060020154600c541115611f34576040517f08c379a0000000000000000000000000000000000000000000000000000000008152600401611f2b90612dee565b60405180910390fd5b5050565b828054611f449061277d565b90600052602060002090601f016020900481019282611f665760008555611fad565b82601f10611f7f57805160ff1916838001178555611fad565b82800160010185558215611fad579182015b82811115611fac578251825591602001919060010190611f91565b5b509050611fba9190611fbe565b5090565b5b80821115611fd7576000816000905550600101611fbf565b5090565b6000819050919050565b611fee81611fdb565b82525050565b600081519050919050565b600082825260208201905092915050565b60005b8381101561202e578082015181840152602081019050612013565b8381111561203d576000848401525b50505050565b6000601f19601f8301169050919050565b600061205f82611ff4565b6120698185611fff565b9350612079818560208601612010565b61208281612043565b840191505092915050565b600073ffffffffffffffffffffffffffffffffffffffff82169050919050565b60006120b88261208d565b9050919050565b6120c8816120ad565b82525050565b6000610100820190506120e4600083018b611fe5565b81810360208301526120f6818a612054565b90506121056040830189611fe5565b61211260608301886120bf565b61211f6080830187611fe5565b61212c60a0830186611fe5565b61213960c0830185611fe5565b61214660e0830184611fe5565b9998505050505050505050565b7f4e487b7100000000000000000000000000000000000000000000000000000000600052602160045260246000fd5b6003811061219357612192612153565b5b50565b60008190506121a482612182565b919050565b60006121b482612196565b9050919050565b6121c4816121a9565b82525050565b60006020820190506121df60008301846121bb565b92915050565b60006020820190506121fa60008301846120bf565b92915050565b6000604051905090565b600080fd5b600080fd5b600080fd5b600080fd5b600080fd5b60008083601f84011261223957612238612214565b5b8235905067ffffffffffffffff81111561225657612255612219565b5b6020830191508360208202830111156122725761227161221e565b5b9250929050565b600080602083850312156122905761228f61220a565b5b600083013567ffffffffffffffff8111156122ae576122ad61220f565b5b6122ba85828601612223565b92509250509250929050565b6122cf81611fdb565b81146122da57600080fd5b50565b6000813590506122ec816122c6565b92915050565b6000602082840312156123085761230761220a565b5b6000612316848285016122dd565b91505092915050565b612328816120ad565b811461233357600080fd5b50565b6000813590506123458161231f565b92915050565b6000602082840312156123615761236061220a565b5b600061236f84828501612336565b91505092915050565b60008115159050919050565b61238d81612378565b82525050565b60006040820190506123a860008301856120bf565b6123b56020830184612384565b9392505050565b60006020820190506123d16000830184612384565b92915050565b600080fd5b7f4e487b7100000000000000000000000000000000000000000000000000000000600052604160045260246000fd5b61241482612043565b810181811067ffffffffffffffff82111715612433576124326123dc565b5b80604052505050565b6000612446612200565b9050612452828261240b565b919050565b600067ffffffffffffffff821115612472576124716123dc565b5b61247b82612043565b9050602081019050919050565b82818337600083830152505050565b60006124aa6124a584612457565b61243c565b9050828152602081018484840111156124c6576124c56123d7565b5b6124d1848285612488565b509392505050565b600082601f8301126124ee576124ed612214565b5b81356124fe848260208601612497565b91505092915050565b600080600080600080600080610100898b0312156125285761252761220a565b5b60006125368b828c016122dd565b985050602089013567ffffffffffffffff8111156125575761255661220f565b5b6125638b828c016124d9565b97505060406125748b828c016122dd565b96505060606125858b828c01612336565b95505060806125968b828c016122dd565b94505060a06125a78b828c016122dd565b93505060c06125b88b828c016122dd565b92505060e06125c98b828c016122dd565b9150509295985092959890939650565b600081519050919050565b600082825260208201905092915050565b6000819050602082019050919050565b61260e816120ad565b82525050565b60006126208383612605565b60208301905092915050565b6000602082019050919050565b6000612644826125d9565b61264e81856125e4565b9350612659836125f5565b8060005b8381101561268a5781516126718882612614565b975061267c8361262c565b92505060018101905061265d565b5085935050505092915050565b600060208201905081810360008301526126b18184612639565b905092915050565b6000819050919050565b60006126de6126d96126d48461208d565b6126b9565b61208d565b9050919050565b60006126f0826126c3565b9050919050565b6000612702826126e5565b9050919050565b612712816126f7565b82525050565b600060208201905061272d6000830184612709565b92915050565b60006020820190506127486000830184611fe5565b92915050565b7f4e487b7100000000000000000000000000000000000000000000000000000000600052602260045260246000fd5b6000600282049050600182168061279557607f821691505b6020821081036127a8576127a761274e565b5b50919050565b7f53433a204f6e6c79204f70656e00000000000000000000000000000000000000600082015250565b60006127e4600d83611fff565b91506127ef826127ae565b602082019050919050565b60006020820190508181036000830152612813816127d7565b9050919050565b6000819050919050565b61282d8161281a565b82525050565b60006040820190506128486000830185612824565b61285560208301846120bf565b9392505050565b61286581612378565b811461287057600080fd5b50565b6000815190506128828161285c565b92915050565b60006020828403121561289e5761289d61220a565b5b60006128ac84828501612873565b91505092915050565b7f4d433a204f6e6c792053747564656e7400000000000000000000000000000000600082015250565b60006128eb601083611fff565b91506128f6826128b5565b602082019050919050565b6000602082019050818103600083015261291a816128de565b9050919050565b7f4d433a204f6e6c79204c65637475726572000000000000000000000000000000600082015250565b6000612957601183611fff565b915061296282612921565b602082019050919050565b600060208201905081810360008301526129868161294a565b9050919050565b7f4d433a204f6e6c792074686520706572736f6e20696e20636861726765000000600082015250565b60006129c3601d83611fff565b91506129ce8261298d565b602082019050919050565b600060208201905081810360008301526129f2816129b6565b9050919050565b7f4e487b7100000000000000000000000000000000000000000000000000000000600052603260045260246000fd5b7f53686f756c64206f6e6c79206164642073747564656e74000000000000000000600082015250565b6000612a5e601783611fff565b9150612a6982612a28565b602082019050919050565b60006020820190508181036000830152612a8d81612a51565b9050919050565b7f4e487b7100000000000000000000000000000000000000000000000000000000600052601160045260246000fd5b6000612ace82611fdb565b91507fffffffffffffffffffffffffffffffffffffffffffffffffffffffffffffffff8203612b0057612aff612a94565b5b600182019050919050565b7f4f6e6c79206f776e657200000000000000000000000000000000000000000000600082015250565b6000612b41600a83611fff565b9150612b4c82612b0b565b602082019050919050565b60006020820190508181036000830152612b7081612b34565b9050919050565b7f53433a2063616e63656c206572726f7200000000000000000000000000000000600082015250565b6000612bad601083611fff565b9150612bb882612b77565b602082019050919050565b60006020820190508181036000830152612bdc81612ba0565b9050919050565b6000612bee82611fdb565b915060008203612c0157612c00612a94565b5b600182039050919050565b6000604082019050612c2160008301856120bf565b612c2e6020830184611fe5565b9392505050565b7f53433a204f6e6c79204c6f636b00000000000000000000000000000000000000600082015250565b6000612c6b600d83611fff565b9150612c7682612c35565b602082019050919050565b60006020820190508181036000830152612c9a81612c5e565b9050919050565b7f53433a2054696d6520697320696e76616c696400000000000000000000000000600082015250565b6000612cd7601383611fff565b9150612ce282612ca1565b602082019050919050565b60006020820190508181036000830152612d0681612cca565b9050919050565b6000604082019050612d226000830185611fe5565b612d2f6020830184611fe5565b9392505050565b7f53433a207265676973746572206572726f720000000000000000000000000000600082015250565b6000612d6c601283611fff565b9150612d7782612d36565b602082019050919050565b60006020820190508181036000830152612d9b81612d5f565b9050919050565b7f5265616368206f7574206c696d69740000000000000000000000000000000000600082015250565b6000612dd8600f83611fff565b9150612de382612da2565b602082019050919050565b60006020820190508181036000830152612e0781612dcb565b905091905056fea264697066735822122083c36f74c1819fe13e4fb6a0de1e894902be133f9132809cd1b86bb67626bfdd64736f6c634300080d0033",
  "immutableReferences": {
    "7693": [
      {
        "length": 32,
        "start": 2460
      },
      {
        "length": 32,
        "start": 3986
      },
      {
        "length": 32,
        "start": 4135
      },
      {
        "length": 32,
        "start": 5340
      }
    ]
  },
  "source": "//SPDX-License-Identifier: UNLICENSED\r\npragma solidity >=0.8.0;\r\n\r\nimport \"./interfaces/ISubjectContract.sol\";\r\nimport \"./interfaces/IAccessControl.sol\";\r\n\r\ncontract SubjectContract is ISubjectContract {\r\n    using SafeERC20 for IERC20;\r\n    address public immutable owner;\r\n    Subject public subject;\r\n    Status public status = Status.Lock;\r\n\r\n    address public UITToken;\r\n    IAccessControl public accessControll;\r\n\r\n    address[] public student;\r\n    mapping(address => Student) public addressToStudent;\r\n    // mapping(address => mapping(ScoreColumn => uint256)) score;\r\n    uint256 public amount;\r\n    mapping(address => bool) public completedAddress;\r\n\r\n    // mapping(ScoreColumn => uint256) public rate;\r\n    // ti le diem, giua ki, cuoi ki, qua trinh\r\n\r\n    modifier onlyLock() {\r\n        require(status == Status.Lock, \"SC: Only Lock\");\r\n        _;\r\n    }\r\n\r\n    modifier onlyOpen() {\r\n        require(status == Status.Open, \"SC: Only Open\");\r\n        _;\r\n    }\r\n\r\n    modifier onlyOwner() {\r\n        require(msg.sender == owner, \"Only owner\");\r\n        _;\r\n    }\r\n\r\n    modifier onlyRoleLecturer() {\r\n        require(\r\n            accessControll.hasRole(keccak256(\"LECTURER\"), msg.sender),\r\n            \"MC: Only Lecturer\"\r\n        );\r\n        _;\r\n    }\r\n\r\n    modifier onlyRoleStudent() {\r\n        require(\r\n            accessControll.hasRole(keccak256(\"STUDENT\"), msg.sender),\r\n            \"MC: Only Student\"\r\n        );\r\n        _;\r\n    }\r\n\r\n    constructor(address _owner, address _accessControll) {\r\n        owner = _owner;\r\n        accessControll = IAccessControl(_accessControll);\r\n    }\r\n\r\n    function setBasicForSubject(\r\n        uint256 _subjectId,\r\n        string memory _urlMetadata,\r\n        uint256 _maxEntrant,\r\n        address _persionInCharge,\r\n        uint256 _startTime,\r\n        uint256 _endTimeToRegister,\r\n        uint256 _endTime,\r\n        uint256 _endTimeToConfirm\r\n    ) external override onlyOwner onlyLock {\r\n        require(\r\n            block.timestamp < _startTime &&\r\n                _startTime < _endTimeToRegister &&\r\n                _endTimeToRegister < _endTime &&\r\n                _endTime < _endTimeToConfirm,\r\n            \"SC: Time is invalid\"\r\n        );\r\n\r\n        subject = Subject(\r\n            _subjectId,\r\n            _urlMetadata,\r\n            _maxEntrant,\r\n            _persionInCharge,\r\n            _startTime,\r\n            _endTimeToRegister,\r\n            _endTime,\r\n            _endTimeToConfirm\r\n        );\r\n    }\r\n\r\n    // function setScoreColumn(\r\n    //     uint256 QT,\r\n    //     uint256 GK,\r\n    //     uint256 TH,\r\n    //     uint256 CK\r\n    // ) external override onlyOwner {\r\n    //     require(QT + GK + TH + CK == 10000, \"SC: rate invalid\");\r\n    //     rate[ScoreColumn.QT] = QT;\r\n    //     rate[ScoreColumn.GK] = GK;\r\n    //     rate[ScoreColumn.TH] = TH;\r\n    //     rate[ScoreColumn.CK] = CK;\r\n    // }\r\n\r\n    function start() external override onlyOwner {\r\n        status = Status.Open;\r\n    }\r\n\r\n    function addStudentToSubject(address[] calldata _students)\r\n        external\r\n        override\r\n        onlyRoleLecturer\r\n        onlyOpen\r\n    {\r\n        require(\r\n            msg.sender == subject.personInCharge,\r\n            \"MC: Only the person in charge\"\r\n        );\r\n        for (uint256 i = 0; i < _students.length; i++) {\r\n            require(\r\n                accessControll.hasRole(keccak256(\"STUDENT\"), _students[i]),\r\n                \"Should only add student\"\r\n            );\r\n            _register(_students[i]);\r\n        }\r\n    }\r\n\r\n    function register() external override onlyOpen onlyRoleStudent {\r\n        _register(msg.sender);\r\n    }\r\n\r\n    function _register(address _student) private {\r\n        Student storage instance = addressToStudent[_student];\r\n        require(!instance.participantToTrue, \"SC: register error\");\r\n\r\n        amount++;\r\n        if (instance.studentAddress != address(0)) {\r\n            instance.participantToTrue = true;\r\n        } else {\r\n            Student memory st = Student({\r\n                studentAddress: _student,\r\n                participantToTrue: true\r\n            });\r\n            addressToStudent[_student] = st;\r\n            student.push(_student);\r\n        }\r\n\r\n        require(amount <= subject.maxEntrant, \"Reach out limit\");\r\n    }\r\n\r\n    function cancelRegister() external override onlyOpen onlyRoleStudent {\r\n        Student storage instance = addressToStudent[msg.sender];\r\n        require(instance.participantToTrue, \"SC: cancel error\");\r\n        amount--;\r\n        instance.participantToTrue = false;\r\n    }\r\n\r\n    function confirmCompletedAddress(\r\n        address[] calldata _student // uint256[] calldata _score,// ScoreColumn _column\r\n    ) external override onlyOpen onlyRoleLecturer {\r\n        require(\r\n            block.timestamp > subject.endTime &&\r\n                block.timestamp < subject.endTimeToConfirm\r\n        );\r\n        // require(_student.length == _score.length);\r\n        for (uint256 i = 0; i < _student.length; i++) {\r\n            Student memory instance = addressToStudent[_student[i]];\r\n            require(\r\n                instance.participantToTrue &&\r\n                    instance.studentAddress == _student[i],\r\n                \"SC: cancel error\"\r\n            );\r\n            completedAddress[_student[i]] = true;\r\n            // require(_score[i] <= 10);\r\n            // score[_student[i]][_column] = _score[i];\r\n        }\r\n        emit Confirm(_student.length, block.timestamp);\r\n    }\r\n\r\n    function unConfirmCompletedAddress(address _student)\r\n        external\r\n        onlyRoleLecturer\r\n        onlyOpen\r\n    {\r\n        require(\r\n            block.timestamp > subject.endTime &&\r\n                block.timestamp < subject.endTimeToConfirm\r\n        );\r\n\r\n        require(completedAddress[_student], \"SC: cancel error\");\r\n        completedAddress[_student] = false;\r\n        emit UnConfirm(_student, block.timestamp);\r\n    }\r\n\r\n    function close() external override onlyOwner {\r\n        status = Status.Close;\r\n        require(block.timestamp > subject.endTimeToConfirm);\r\n        emit Close(block.timestamp);\r\n    }\r\n\r\n    function getParticipantList() public view returns (address[] memory) {\r\n        address[] memory _student = new address[](amount);\r\n        uint256 index;\r\n        for (uint256 i = 0; i < student.length; i++) {\r\n            if (\r\n                addressToStudent[student[i]].participantToTrue &&\r\n                addressToStudent[student[i]].studentAddress != address(0)\r\n            ) {\r\n                _student[index] = addressToStudent[student[i]].studentAddress;\r\n                index++;\r\n            }\r\n        }\r\n        return _student;\r\n    }\r\n\r\n    function getParticipantListCompleted()\r\n        public\r\n        view\r\n        returns (address[] memory)\r\n    {\r\n        address[] memory _student = new address[](amount);\r\n        uint256 index;\r\n        for (uint256 i = 0; i < student.length; i++) {\r\n            if (completedAddress[student[i]] && student[i] != address(0)) {\r\n                _student[index] = student[i];\r\n                index++;\r\n            }\r\n        }\r\n        return _student;\r\n    }\r\n\r\n    // function getFinalScore(address _student) public view returns (uint256) {\r\n    //     return\r\n    //         (score[_student][ScoreColumn.QT] *\r\n    //             rate[ScoreColumn.QT] +\r\n    //             score[_student][ScoreColumn.GK] *\r\n    //             rate[ScoreColumn.GK] +\r\n    //             score[_student][ScoreColumn.TH] *\r\n    //             rate[ScoreColumn.TH] +\r\n    //             score[_student][ScoreColumn.CK] *\r\n    //             rate[ScoreColumn.CK]) / 10000;\r\n    // }\r\n}\r\n",
  "sourcePath": "E:\\KLTN\\KLTN\\KLTN-contracts\\contracts\\studentmanager\\SubjectContract.sol",
  "compiler": {
    "name": "solc",
    "version": "0.8.13+commit.abaa5c0e.Emscripten.clang"
  },
  "schemaVersion": "3.4.3",
  "updatedAt": "2022-05-14T13:42:58.604Z",
  "devdoc": {
    "kind": "dev",
    "methods": {},
    "version": 1
  },
  "userdoc": {
    "kind": "user",
    "methods": {},
    "version": 1
  }
}