{
  "contractName": "SubjectFactory",
  "abi": [
    {
      "inputs": [
        {
          "internalType": "address",
          "name": "owner",
          "type": "address"
        },
        {
          "internalType": "address",
          "name": "accessControll",
          "type": "address"
        }
      ],
      "name": "createNewMission",
      "outputs": [
        {
          "internalType": "address",
          "name": "",
          "type": "address"
        }
      ],
      "stateMutability": "nonpayable",
      "type": "function"
    }
  ],
  "bytecode": "0x608060405234801561001057600080fd5b50613672806100206000396000f3fe608060405234801561001057600080fd5b506004361061002b5760003560e01c806389d0bc1e14610030575b600080fd5b61004a60048036038101906100459190610115565b610060565b6040516100579190610164565b60405180910390f35b6000808383604051610071906100a5565b61007c92919061017f565b604051809103906000f080158015610098573d6000803e3d6000fd5b5090508091505092915050565b613494806101a983390190565b600080fd5b600073ffffffffffffffffffffffffffffffffffffffff82169050919050565b60006100e2826100b7565b9050919050565b6100f2816100d7565b81146100fd57600080fd5b50565b60008135905061010f816100e9565b92915050565b6000806040838503121561012c5761012b6100b2565b5b600061013a85828601610100565b925050602061014b85828601610100565b9150509250929050565b61015e816100d7565b82525050565b60006020820190506101796000830184610155565b92915050565b60006040820190506101946000830185610155565b6101a16020830184610155565b939250505056fe60a06040526000600860006101000a81548160ff021916908360028111156200002d576200002c620000e2565b5b02179055503480156200003f57600080fd5b50604051620034943803806200349483398181016040528101906200006591906200017b565b8173ffffffffffffffffffffffffffffffffffffffff1660808173ffffffffffffffffffffffffffffffffffffffff168152505080600960006101000a81548173ffffffffffffffffffffffffffffffffffffffff021916908373ffffffffffffffffffffffffffffffffffffffff1602179055505050620001c2565b7f4e487b7100000000000000000000000000000000000000000000000000000000600052602160045260246000fd5b600080fd5b600073ffffffffffffffffffffffffffffffffffffffff82169050919050565b6000620001438262000116565b9050919050565b620001558162000136565b81146200016157600080fd5b50565b60008151905062000175816200014a565b92915050565b6000806040838503121562000195576200019462000111565b5b6000620001a58582860162000164565b9250506020620001b88582860162000164565b9150509250929050565b60805161329a620001fa6000396000818161038601528181610cda015281816110d7015281816113bc0152611f78015261329a6000f3fe608060405234801561001057600080fd5b50600436106101375760003560e01c80638da5cb5b116100b8578063aa8c217c1161007c578063aa8c217c146102fc578063be9a65551461031a578063d16e57fe14610324578063e0e3adcf14610340578063ed214fff1461035c578063f83d08ba1461037a57610137565b80638da5cb5b14610241578063987547101461025f578063a32fb34214610290578063a7f44e0d146102c0578063aa4936ce146102de57610137565b806335955121116100ff57806335955121146101c357806335f34232146101df57806343d726d61461020f57806349aa703314610219578063847138971461022357610137565b806304d291f21461013c5780630a59a98c146101585780631aa3a0081461017d578063200d2ed2146101875780632fe7a96d146101a5575b600080fd5b61015660048036038101906101519190612625565b610384565b005b6101606105fc565b6040516101749897969594939291906127b9565b60405180910390f35b610185610762565b005b61018f6108e0565b60405161019c91906128bc565b60405180910390f35b6101ad6108f3565b6040516101ba91906128d7565b60405180910390f35b6101dd60048036038101906101d89190612952565b610919565b005b6101f960048036038101906101f4919061299f565b610c99565b60405161020691906128d7565b60405180910390f35b610217610cd8565b005b610221610e51565b005b61022b6110c7565b60405161023891906129e7565b60405180910390f35b6102496110d5565b60405161025691906128d7565b60405180910390f35b61027960048036038101906102749190612a02565b6110f9565b604051610287929190612a2f565b60405180910390f35b6102aa60048036038101906102a59190612a02565b61114a565b6040516102b791906129e7565b60405180910390f35b6102c861116a565b6040516102d59190612b16565b60405180910390f35b6102e661138e565b6040516102f39190612b97565b60405180910390f35b6103046113b4565b6040516103119190612bb2565b60405180910390f35b6103226113ba565b005b61033e60048036038101906103399190612952565b6114eb565b005b61035a60048036038101906103559190612952565b6118ed565b005b610364611c15565b6040516103719190612b16565b60405180910390f35b610382611f76565b005b7f000000000000000000000000000000000000000000000000000000000000000073ffffffffffffffffffffffffffffffffffffffff163373ffffffffffffffffffffffffffffffffffffffff1614610412576040517f08c379a000000000000000000000000000000000000000000000000000000000815260040161040990612c19565b60405180910390fd5b6000600281111561042657610425612845565b5b600860009054906101000a900460ff16600281111561044857610447612845565b5b14610488576040517f08c379a000000000000000000000000000000000000000000000000000000000815260040161047f90612c85565b60405180910390fd5b834210801561049657508284105b80156104a157508183105b80156104ac57508082105b6104eb576040517f08c379a00000000000000000000000000000000000000000000000000000000081526004016104e290612cf1565b60405180910390fd5b6040518061010001604052808981526020018881526020018781526020018673ffffffffffffffffffffffffffffffffffffffff16815260200185815260200184815260200183815260200182815250600080820151816000019080519060200190610558929190612394565b506020820151816001019080519060200190610575929190612394565b506040820151816002015560608201518160030160006101000a81548173ffffffffffffffffffffffffffffffffffffffff021916908373ffffffffffffffffffffffffffffffffffffffff1602179055506080820151816004015560a0820151816005015560c0820151816006015560e082015181600701559050505050505050505050565b600080600001805461060d90612d40565b80601f016020809104026020016040519081016040528092919081815260200182805461063990612d40565b80156106865780601f1061065b57610100808354040283529160200191610686565b820191906000526020600020905b81548152906001019060200180831161066957829003601f168201915b50505050509080600101805461069b90612d40565b80601f01602080910402602001604051908101604052809291908181526020018280546106c790612d40565b80156107145780601f106106e957610100808354040283529160200191610714565b820191906000526020600020905b8154815290600101906020018083116106f757829003601f168201915b5050505050908060020154908060030160009054906101000a900473ffffffffffffffffffffffffffffffffffffffff16908060040154908060050154908060060154908060070154905088565b6001600281111561077657610775612845565b5b600860009054906101000a900460ff16600281111561079857610797612845565b5b146107d8576040517f08c379a00000000000000000000000000000000000000000000000000000000081526004016107cf90612dbd565b60405180910390fd5b600960009054906101000a900473ffffffffffffffffffffffffffffffffffffffff1673ffffffffffffffffffffffffffffffffffffffff166391d148547fc951d7098b66ba0b8b77265b6e9cf0e187d73125a42bcd0061b09a68be421810336040518363ffffffff1660e01b8152600401610855929190612df6565b602060405180830381865afa158015610872573d6000803e3d6000fd5b505050506040513d601f19601f820116820180604052508101906108969190612e4b565b6108d5576040517f08c379a00000000000000000000000000000000000000000000000000000000081526004016108cc90612ec4565b60405180910390fd5b6108de336120a7565b565b600860009054906101000a900460ff1681565b600860019054906101000a900473ffffffffffffffffffffffffffffffffffffffff1681565b600960009054906101000a900473ffffffffffffffffffffffffffffffffffffffff1673ffffffffffffffffffffffffffffffffffffffff166391d148547fb39b9469ac3ddf8d58f06201f7e17350a277b429ed2a39727bf2f3a5165dba1a336040518363ffffffff1660e01b8152600401610996929190612df6565b602060405180830381865afa1580156109b3573d6000803e3d6000fd5b505050506040513d601f19601f820116820180604052508101906109d79190612e4b565b610a16576040517f08c379a0000000000000000000000000000000000000000000000000000000008152600401610a0d90612f30565b60405180910390fd5b60016002811115610a2a57610a29612845565b5b600860009054906101000a900460ff166002811115610a4c57610a4b612845565b5b14610a8c576040517f08c379a0000000000000000000000000000000000000000000000000000000008152600401610a8390612dbd565b60405180910390fd5b600060030160009054906101000a900473ffffffffffffffffffffffffffffffffffffffff1673ffffffffffffffffffffffffffffffffffffffff163373ffffffffffffffffffffffffffffffffffffffff1614610b1f576040517f08c379a0000000000000000000000000000000000000000000000000000000008152600401610b1690612f9c565b60405180910390fd5b60005b82829050811015610c9457600960009054906101000a900473ffffffffffffffffffffffffffffffffffffffff1673ffffffffffffffffffffffffffffffffffffffff166391d148547fc951d7098b66ba0b8b77265b6e9cf0e187d73125a42bcd0061b09a68be421810858585818110610b9f57610b9e612fbc565b5b9050602002016020810190610bb49190612a02565b6040518363ffffffff1660e01b8152600401610bd1929190612df6565b602060405180830381865afa158015610bee573d6000803e3d6000fd5b505050506040513d601f19601f82011682018060405250810190610c129190612e4b565b610c51576040517f08c379a0000000000000000000000000000000000000000000000000000000008152600401610c4890613037565b60405180910390fd5b610c81838383818110610c6757610c66612fbc565b5b9050602002016020810190610c7c9190612a02565b6120a7565b8080610c8c90613086565b915050610b22565b505050565b600a8181548110610ca957600080fd5b906000526020600020016000915054906101000a900473ffffffffffffffffffffffffffffffffffffffff1681565b7f000000000000000000000000000000000000000000000000000000000000000073ffffffffffffffffffffffffffffffffffffffff163373ffffffffffffffffffffffffffffffffffffffff1614610d66576040517f08c379a0000000000000000000000000000000000000000000000000000000008152600401610d5d90612c19565b60405180910390fd5b60016002811115610d7a57610d79612845565b5b600860009054906101000a900460ff166002811115610d9c57610d9b612845565b5b14610ddc576040517f08c379a0000000000000000000000000000000000000000000000000000000008152600401610dd390612dbd565b60405180910390fd5b6002600860006101000a81548160ff02191690836002811115610e0257610e01612845565b5b02179055506000600701544211610e1857600080fd5b7fbf67515a38ee520223d32c1266d52101c30d936ed1f3e436c8caeb0a43cb06bf42604051610e479190612bb2565b60405180910390a1565b60016002811115610e6557610e64612845565b5b600860009054906101000a900460ff166002811115610e8757610e86612845565b5b14610ec7576040517f08c379a0000000000000000000000000000000000000000000000000000000008152600401610ebe90612dbd565b60405180910390fd5b600960009054906101000a900473ffffffffffffffffffffffffffffffffffffffff1673ffffffffffffffffffffffffffffffffffffffff166391d148547fc951d7098b66ba0b8b77265b6e9cf0e187d73125a42bcd0061b09a68be421810336040518363ffffffff1660e01b8152600401610f44929190612df6565b602060405180830381865afa158015610f61573d6000803e3d6000fd5b505050506040513d601f19601f82011682018060405250810190610f859190612e4b565b610fc4576040517f08c379a0000000000000000000000000000000000000000000000000000000008152600401610fbb90612ec4565b60405180910390fd5b6000600b60003373ffffffffffffffffffffffffffffffffffffffff1673ffffffffffffffffffffffffffffffffffffffff16815260200190815260200160002090508060000160149054906101000a900460ff16611058576040517f08c379a000000000000000000000000000000000000000000000000000000000815260040161104f9061311a565b60405180910390fd5b600c600081548092919061106b9061313a565b919050555060008160000160146101000a81548160ff0219169083151502179055507ff17af794e4e37f4197945e514e5342eecc58b67704516bbe3c41a0be1e8db062336040516110bc91906128d7565b60405180910390a150565b600080600701544211905090565b7f000000000000000000000000000000000000000000000000000000000000000081565b600b6020528060005260406000206000915090508060000160009054906101000a900473ffffffffffffffffffffffffffffffffffffffff16908060000160149054906101000a900460ff16905082565b600d6020528060005260406000206000915054906101000a900460ff1681565b60606000600c5467ffffffffffffffff81111561118a57611189612466565b5b6040519080825280602002602001820160405280156111b85781602001602082028036833780820191505090505b509050600080600090505b600a8054905081101561138557600d6000600a83815481106111e8576111e7612fbc565b5b9060005260206000200160009054906101000a900473ffffffffffffffffffffffffffffffffffffffff1673ffffffffffffffffffffffffffffffffffffffff1673ffffffffffffffffffffffffffffffffffffffff16815260200190815260200160002060009054906101000a900460ff1680156112d25750600073ffffffffffffffffffffffffffffffffffffffff16600a828154811061128e5761128d612fbc565b5b9060005260206000200160009054906101000a900473ffffffffffffffffffffffffffffffffffffffff1673ffffffffffffffffffffffffffffffffffffffff1614155b1561137257600a81815481106112eb576112ea612fbc565b5b9060005260206000200160009054906101000a900473ffffffffffffffffffffffffffffffffffffffff1683838151811061132957611328612fbc565b5b602002602001019073ffffffffffffffffffffffffffffffffffffffff16908173ffffffffffffffffffffffffffffffffffffffff1681525050818061136e90613086565b9250505b808061137d90613086565b9150506111c3565b50819250505090565b600960009054906101000a900473ffffffffffffffffffffffffffffffffffffffff1681565b600c5481565b7f000000000000000000000000000000000000000000000000000000000000000073ffffffffffffffffffffffffffffffffffffffff163373ffffffffffffffffffffffffffffffffffffffff1614611448576040517f08c379a000000000000000000000000000000000000000000000000000000000815260040161143f90612c19565b60405180910390fd5b6000600281111561145c5761145b612845565b5b600860009054906101000a900460ff16600281111561147e5761147d612845565b5b146114be576040517f08c379a00000000000000000000000000000000000000000000000000000000081526004016114b590612c85565b60405180910390fd5b6001600860006101000a81548160ff021916908360028111156114e4576114e3612845565b5b0217905550565b600160028111156114ff576114fe612845565b5b600860009054906101000a900460ff16600281111561152157611520612845565b5b14611561576040517f08c379a000000000000000000000000000000000000000000000000000000000815260040161155890612dbd565b60405180910390fd5b600960009054906101000a900473ffffffffffffffffffffffffffffffffffffffff1673ffffffffffffffffffffffffffffffffffffffff166391d148547fb39b9469ac3ddf8d58f06201f7e17350a277b429ed2a39727bf2f3a5165dba1a336040518363ffffffff1660e01b81526004016115de929190612df6565b602060405180830381865afa1580156115fb573d6000803e3d6000fd5b505050506040513d601f19601f8201168201806040525081019061161f9190612e4b565b61165e576040517f08c379a000000000000000000000000000000000000000000000000000000000815260040161165590612f30565b60405180910390fd5b60006006015442118015611676575060006007015442105b61167f57600080fd5b60005b828290508110156118ac576000600b60008585858181106116a6576116a5612fbc565b5b90506020020160208101906116bb9190612a02565b73ffffffffffffffffffffffffffffffffffffffff1673ffffffffffffffffffffffffffffffffffffffff1681526020019081526020016000206040518060400160405290816000820160009054906101000a900473ffffffffffffffffffffffffffffffffffffffff1673ffffffffffffffffffffffffffffffffffffffff1673ffffffffffffffffffffffffffffffffffffffff1681526020016000820160149054906101000a900460ff1615151515815250509050806020015180156117da575083838381811061179257611791612fbc565b5b90506020020160208101906117a79190612a02565b73ffffffffffffffffffffffffffffffffffffffff16816000015173ffffffffffffffffffffffffffffffffffffffff16145b611819576040517f08c379a00000000000000000000000000000000000000000000000000000000081526004016118109061311a565b60405180910390fd5b6001600d600086868681811061183257611831612fbc565b5b90506020020160208101906118479190612a02565b73ffffffffffffffffffffffffffffffffffffffff1673ffffffffffffffffffffffffffffffffffffffff16815260200190815260200160002060006101000a81548160ff0219169083151502179055505080806118a490613086565b915050611682565b507f698dd5b92696456649e8994759ccfe7076b1ebe9096ecb083211d8bfe816384282829050426040516118e1929190613163565b60405180910390a15050565b600960009054906101000a900473ffffffffffffffffffffffffffffffffffffffff1673ffffffffffffffffffffffffffffffffffffffff166391d148547fb39b9469ac3ddf8d58f06201f7e17350a277b429ed2a39727bf2f3a5165dba1a336040518363ffffffff1660e01b815260040161196a929190612df6565b602060405180830381865afa158015611987573d6000803e3d6000fd5b505050506040513d601f19601f820116820180604052508101906119ab9190612e4b565b6119ea576040517f08c379a00000000000000000000000000000000000000000000000000000000081526004016119e190612f30565b60405180910390fd5b600160028111156119fe576119fd612845565b5b600860009054906101000a900460ff166002811115611a2057611a1f612845565b5b14611a60576040517f08c379a0000000000000000000000000000000000000000000000000000000008152600401611a5790612dbd565b60405180910390fd5b60006006015442118015611a78575060006007015442105b611a8157600080fd5b60005b82829050811015611bd457600d6000848484818110611aa657611aa5612fbc565b5b9050602002016020810190611abb9190612a02565b73ffffffffffffffffffffffffffffffffffffffff1673ffffffffffffffffffffffffffffffffffffffff16815260200190815260200160002060009054906101000a900460ff16611b42576040517f08c379a0000000000000000000000000000000000000000000000000000000008152600401611b399061311a565b60405180910390fd5b6000600d6000858585818110611b5b57611b5a612fbc565b5b9050602002016020810190611b709190612a02565b73ffffffffffffffffffffffffffffffffffffffff1673ffffffffffffffffffffffffffffffffffffffff16815260200190815260200160002060006101000a81548160ff0219169083151502179055508080611bcc90613086565b915050611a84565b507fc791d7751013e9f89337798e40ebe9dab990e5c7b8b37e845afdf06c219c57ad8282905042604051611c09929190613163565b60405180910390a15050565b606060016002811115611c2b57611c2a612845565b5b600860009054906101000a900460ff166002811115611c4d57611c4c612845565b5b14611c8d576040517f08c379a0000000000000000000000000000000000000000000000000000000008152600401611c8490612dbd565b60405180910390fd5b6000600c5467ffffffffffffffff811115611cab57611caa612466565b5b604051908082528060200260200182016040528015611cd95781602001602082028036833780820191505090505b509050600080600090505b600a80549050811015611f6d57600b6000600a8381548110611d0957611d08612fbc565b5b9060005260206000200160009054906101000a900473ffffffffffffffffffffffffffffffffffffffff1673ffffffffffffffffffffffffffffffffffffffff1673ffffffffffffffffffffffffffffffffffffffff16815260200190815260200160002060000160149054906101000a900460ff168015611e585750600073ffffffffffffffffffffffffffffffffffffffff16600b6000600a8481548110611db657611db5612fbc565b5b9060005260206000200160009054906101000a900473ffffffffffffffffffffffffffffffffffffffff1673ffffffffffffffffffffffffffffffffffffffff1673ffffffffffffffffffffffffffffffffffffffff16815260200190815260200160002060000160009054906101000a900473ffffffffffffffffffffffffffffffffffffffff1673ffffffffffffffffffffffffffffffffffffffff1614155b15611f5a57600b6000600a8381548110611e7557611e74612fbc565b5b9060005260206000200160009054906101000a900473ffffffffffffffffffffffffffffffffffffffff1673ffffffffffffffffffffffffffffffffffffffff1673ffffffffffffffffffffffffffffffffffffffff16815260200190815260200160002060000160009054906101000a900473ffffffffffffffffffffffffffffffffffffffff16838381518110611f1157611f10612fbc565b5b602002602001019073ffffffffffffffffffffffffffffffffffffffff16908173ffffffffffffffffffffffffffffffffffffffff16815250508180611f5690613086565b9250505b8080611f6590613086565b915050611ce4565b50819250505090565b7f000000000000000000000000000000000000000000000000000000000000000073ffffffffffffffffffffffffffffffffffffffff163373ffffffffffffffffffffffffffffffffffffffff1614612004576040517f08c379a0000000000000000000000000000000000000000000000000000000008152600401611ffb90612c19565b60405180910390fd5b6001600281111561201857612017612845565b5b600860009054906101000a900460ff16600281111561203a57612039612845565b5b1461207a576040517f08c379a000000000000000000000000000000000000000000000000000000000815260040161207190612dbd565b60405180910390fd5b6000600860006101000a81548160ff021916908360028111156120a05761209f612845565b5b0217905550565b6000600b60008373ffffffffffffffffffffffffffffffffffffffff1673ffffffffffffffffffffffffffffffffffffffff16815260200190815260200160002090508060000160149054906101000a900460ff161561213c576040517f08c379a0000000000000000000000000000000000000000000000000000000008152600401612133906131d8565b60405180910390fd5b600c600081548092919061214f90613086565b9190505550600073ffffffffffffffffffffffffffffffffffffffff168160000160009054906101000a900473ffffffffffffffffffffffffffffffffffffffff1673ffffffffffffffffffffffffffffffffffffffff16146121ce5760018160000160146101000a81548160ff02191690831515021790555061230f565b600060405180604001604052808473ffffffffffffffffffffffffffffffffffffffff16815260200160011515815250905080600b60008573ffffffffffffffffffffffffffffffffffffffff1673ffffffffffffffffffffffffffffffffffffffff16815260200190815260200160002060008201518160000160006101000a81548173ffffffffffffffffffffffffffffffffffffffff021916908373ffffffffffffffffffffffffffffffffffffffff16021790555060208201518160000160146101000a81548160ff021916908315150217905550905050600a839080600181540180825580915050600190039060005260206000200160009091909190916101000a81548173ffffffffffffffffffffffffffffffffffffffff021916908373ffffffffffffffffffffffffffffffffffffffff160217905550505b600060020154600c541115612359576040517f08c379a000000000000000000000000000000000000000000000000000000000815260040161235090613244565b60405180910390fd5b7feeda149c76076b34d4b9d8896c2f7efc0d33d1c7b53ea3c5db490d64613f603a8260405161238891906128d7565b60405180910390a15050565b8280546123a090612d40565b90600052602060002090601f0160209004810192826123c25760008555612409565b82601f106123db57805160ff1916838001178555612409565b82800160010185558215612409579182015b828111156124085782518255916020019190600101906123ed565b5b509050612416919061241a565b5090565b5b8082111561243357600081600090555060010161241b565b5090565b6000604051905090565b600080fd5b600080fd5b600080fd5b600080fd5b6000601f19601f8301169050919050565b7f4e487b7100000000000000000000000000000000000000000000000000000000600052604160045260246000fd5b61249e82612455565b810181811067ffffffffffffffff821117156124bd576124bc612466565b5b80604052505050565b60006124d0612437565b90506124dc8282612495565b919050565b600067ffffffffffffffff8211156124fc576124fb612466565b5b61250582612455565b9050602081019050919050565b82818337600083830152505050565b600061253461252f846124e1565b6124c6565b9050828152602081018484840111156125505761254f612450565b5b61255b848285612512565b509392505050565b600082601f8301126125785761257761244b565b5b8135612588848260208601612521565b91505092915050565b6000819050919050565b6125a481612591565b81146125af57600080fd5b50565b6000813590506125c18161259b565b92915050565b600073ffffffffffffffffffffffffffffffffffffffff82169050919050565b60006125f2826125c7565b9050919050565b612602816125e7565b811461260d57600080fd5b50565b60008135905061261f816125f9565b92915050565b600080600080600080600080610100898b03121561264657612645612441565b5b600089013567ffffffffffffffff81111561266457612663612446565b5b6126708b828c01612563565b985050602089013567ffffffffffffffff81111561269157612690612446565b5b61269d8b828c01612563565b97505060406126ae8b828c016125b2565b96505060606126bf8b828c01612610565b95505060806126d08b828c016125b2565b94505060a06126e18b828c016125b2565b93505060c06126f28b828c016125b2565b92505060e06127038b828c016125b2565b9150509295985092959890939650565b600081519050919050565b600082825260208201905092915050565b60005b8381101561274d578082015181840152602081019050612732565b8381111561275c576000848401525b50505050565b600061276d82612713565b612777818561271e565b935061278781856020860161272f565b61279081612455565b840191505092915050565b6127a481612591565b82525050565b6127b3816125e7565b82525050565b60006101008201905081810360008301526127d4818b612762565b905081810360208301526127e8818a612762565b90506127f7604083018961279b565b61280460608301886127aa565b612811608083018761279b565b61281e60a083018661279b565b61282b60c083018561279b565b61283860e083018461279b565b9998505050505050505050565b7f4e487b7100000000000000000000000000000000000000000000000000000000600052602160045260246000fd5b6003811061288557612884612845565b5b50565b600081905061289682612874565b919050565b60006128a682612888565b9050919050565b6128b68161289b565b82525050565b60006020820190506128d160008301846128ad565b92915050565b60006020820190506128ec60008301846127aa565b92915050565b600080fd5b600080fd5b60008083601f8401126129125761291161244b565b5b8235905067ffffffffffffffff81111561292f5761292e6128f2565b5b60208301915083602082028301111561294b5761294a6128f7565b5b9250929050565b6000806020838503121561296957612968612441565b5b600083013567ffffffffffffffff81111561298757612986612446565b5b612993858286016128fc565b92509250509250929050565b6000602082840312156129b5576129b4612441565b5b60006129c3848285016125b2565b91505092915050565b60008115159050919050565b6129e1816129cc565b82525050565b60006020820190506129fc60008301846129d8565b92915050565b600060208284031215612a1857612a17612441565b5b6000612a2684828501612610565b91505092915050565b6000604082019050612a4460008301856127aa565b612a5160208301846129d8565b9392505050565b600081519050919050565b600082825260208201905092915050565b6000819050602082019050919050565b612a8d816125e7565b82525050565b6000612a9f8383612a84565b60208301905092915050565b6000602082019050919050565b6000612ac382612a58565b612acd8185612a63565b9350612ad883612a74565b8060005b83811015612b09578151612af08882612a93565b9750612afb83612aab565b925050600181019050612adc565b5085935050505092915050565b60006020820190508181036000830152612b308184612ab8565b905092915050565b6000819050919050565b6000612b5d612b58612b53846125c7565b612b38565b6125c7565b9050919050565b6000612b6f82612b42565b9050919050565b6000612b8182612b64565b9050919050565b612b9181612b76565b82525050565b6000602082019050612bac6000830184612b88565b92915050565b6000602082019050612bc7600083018461279b565b92915050565b7f4f6e6c79206f776e657200000000000000000000000000000000000000000000600082015250565b6000612c03600a8361271e565b9150612c0e82612bcd565b602082019050919050565b60006020820190508181036000830152612c3281612bf6565b9050919050565b7f53433a204f6e6c79204c6f636b00000000000000000000000000000000000000600082015250565b6000612c6f600d8361271e565b9150612c7a82612c39565b602082019050919050565b60006020820190508181036000830152612c9e81612c62565b9050919050565b7f53433a2054696d6520697320696e76616c696400000000000000000000000000600082015250565b6000612cdb60138361271e565b9150612ce682612ca5565b602082019050919050565b60006020820190508181036000830152612d0a81612cce565b9050919050565b7f4e487b7100000000000000000000000000000000000000000000000000000000600052602260045260246000fd5b60006002820490506001821680612d5857607f821691505b602082108103612d6b57612d6a612d11565b5b50919050565b7f53433a204f6e6c79204f70656e00000000000000000000000000000000000000600082015250565b6000612da7600d8361271e565b9150612db282612d71565b602082019050919050565b60006020820190508181036000830152612dd681612d9a565b9050919050565b6000819050919050565b612df081612ddd565b82525050565b6000604082019050612e0b6000830185612de7565b612e1860208301846127aa565b9392505050565b612e28816129cc565b8114612e3357600080fd5b50565b600081519050612e4581612e1f565b92915050565b600060208284031215612e6157612e60612441565b5b6000612e6f84828501612e36565b91505092915050565b7f4d433a204f6e6c792053747564656e7400000000000000000000000000000000600082015250565b6000612eae60108361271e565b9150612eb982612e78565b602082019050919050565b60006020820190508181036000830152612edd81612ea1565b9050919050565b7f4d433a204f6e6c79204c65637475726572000000000000000000000000000000600082015250565b6000612f1a60118361271e565b9150612f2582612ee4565b602082019050919050565b60006020820190508181036000830152612f4981612f0d565b9050919050565b7f4d433a204f6e6c792074686520706572736f6e20696e20636861726765000000600082015250565b6000612f86601d8361271e565b9150612f9182612f50565b602082019050919050565b60006020820190508181036000830152612fb581612f79565b9050919050565b7f4e487b7100000000000000000000000000000000000000000000000000000000600052603260045260246000fd5b7f53686f756c64206f6e6c79206164642073747564656e74000000000000000000600082015250565b600061302160178361271e565b915061302c82612feb565b602082019050919050565b6000602082019050818103600083015261305081613014565b9050919050565b7f4e487b7100000000000000000000000000000000000000000000000000000000600052601160045260246000fd5b600061309182612591565b91507fffffffffffffffffffffffffffffffffffffffffffffffffffffffffffffffff82036130c3576130c2613057565b5b600182019050919050565b7f53433a2063616e63656c206572726f7200000000000000000000000000000000600082015250565b600061310460108361271e565b915061310f826130ce565b602082019050919050565b60006020820190508181036000830152613133816130f7565b9050919050565b600061314582612591565b91506000820361315857613157613057565b5b600182039050919050565b6000604082019050613178600083018561279b565b613185602083018461279b565b9392505050565b7f53433a207265676973746572206572726f720000000000000000000000000000600082015250565b60006131c260128361271e565b91506131cd8261318c565b602082019050919050565b600060208201905081810360008301526131f1816131b5565b9050919050565b7f5265616368206f7574206c696d69740000000000000000000000000000000000600082015250565b600061322e600f8361271e565b9150613239826131f8565b602082019050919050565b6000602082019050818103600083015261325d81613221565b905091905056fea2646970667358221220f19bd822c1f29997e889f75a9d89d3130c5b84e09ac38223a909512a46242a6764736f6c634300080e0033a26469706673582212201f79c229616b044278629f4478f97ecc52062bb2124443439c6245605a1c97f864736f6c634300080e0033",
  "immutableReferences": {},
  "source": "// SPDX-License-Identifier: UNLICENSED\r\npragma solidity ^0.8.0;\r\n\r\nimport \"../SubjectContract.sol\";\r\nimport \"../interfaces/ISubjectFactory.sol\";\r\n\r\ncontract SubjectFactory is ISubjectFactory {\r\n    function createNewMission(address owner, address accessControll)\r\n        public\r\n        override\r\n        returns (address)\r\n    {\r\n        SubjectContract subjectContract = new SubjectContract(\r\n            owner,\r\n            accessControll\r\n        );\r\n        return address(subjectContract);\r\n    }\r\n}\r\n",
  "sourcePath": "E:\\KLTN\\KLTN\\KLTN-contracts\\contracts\\studentmanager\\factories\\SubjectFactory.sol",
  "compiler": {
    "name": "solc",
    "version": "0.8.14+commit.80d49f37.Emscripten.clang"
  },
  "schemaVersion": "3.4.3",
  "updatedAt": "2022-06-13T07:54:40.764Z",
  "networkType": "ethereum",
  "devdoc": {
    "kind": "dev",
    "methods": {},
    "version": 1
  },
  "userdoc": {
    "kind": "user",
    "methods": {},
    "version": 1
  }
}