{
  "contractName": "TuitionContract",
  "abi": [
    {
      "inputs": [
        {
          "internalType": "address",
          "name": "_owner",
          "type": "address"
        },
        {
          "internalType": "address",
          "name": "_accessControll",
          "type": "address"
        },
        {
          "internalType": "address",
          "name": "_rewardDistributor",
          "type": "address"
        }
      ],
      "stateMutability": "nonpayable",
      "type": "constructor"
    },
    {
      "anonymous": false,
      "inputs": [
        {
          "indexed": false,
          "internalType": "uint256",
          "name": "studentsAmount",
          "type": "uint256"
        },
        {
          "indexed": false,
          "internalType": "uint256",
          "name": "timestamp",
          "type": "uint256"
        }
      ],
      "name": "AddStudentToTuition",
      "type": "event"
    },
    {
      "anonymous": false,
      "inputs": [
        {
          "indexed": false,
          "internalType": "uint256",
          "name": "timestamp",
          "type": "uint256"
        }
      ],
      "name": "Close",
      "type": "event"
    },
    {
      "anonymous": false,
      "inputs": [
        {
          "indexed": true,
          "internalType": "uint256",
          "name": "id",
          "type": "uint256"
        }
      ],
      "name": "CreatedNewTuition",
      "type": "event"
    },
    {
      "anonymous": false,
      "inputs": [
        {
          "indexed": false,
          "internalType": "address",
          "name": "student",
          "type": "address"
        },
        {
          "indexed": false,
          "internalType": "uint256",
          "name": "timestamp",
          "type": "uint256"
        },
        {
          "indexed": false,
          "internalType": "enum ITuitionContract.PaymentMethod",
          "name": "_method",
          "type": "uint8"
        }
      ],
      "name": "Payment",
      "type": "event"
    },
    {
      "anonymous": false,
      "inputs": [
        {
          "indexed": false,
          "internalType": "uint256",
          "name": "studentsAmount",
          "type": "uint256"
        },
        {
          "indexed": false,
          "internalType": "uint256",
          "name": "timestamp",
          "type": "uint256"
        }
      ],
      "name": "RemoveStudentFromTuition",
      "type": "event"
    },
    {
      "inputs": [],
      "name": "accessControll",
      "outputs": [
        {
          "internalType": "contract IAccessControl",
          "name": "",
          "type": "address"
        }
      ],
      "stateMutability": "view",
      "type": "function"
    },
    {
      "inputs": [],
      "name": "amount",
      "outputs": [
        {
          "internalType": "uint256",
          "name": "",
          "type": "uint256"
        }
      ],
      "stateMutability": "view",
      "type": "function"
    },
    {
      "inputs": [
        {
          "internalType": "address",
          "name": "",
          "type": "address"
        }
      ],
      "name": "completedAddress",
      "outputs": [
        {
          "internalType": "bool",
          "name": "",
          "type": "bool"
        }
      ],
      "stateMutability": "view",
      "type": "function"
    },
    {
      "inputs": [],
      "name": "owner",
      "outputs": [
        {
          "internalType": "address",
          "name": "",
          "type": "address"
        }
      ],
      "stateMutability": "view",
      "type": "function"
    },
    {
      "inputs": [
        {
          "internalType": "address",
          "name": "",
          "type": "address"
        }
      ],
      "name": "participantToIndex",
      "outputs": [
        {
          "internalType": "uint256",
          "name": "",
          "type": "uint256"
        }
      ],
      "stateMutability": "view",
      "type": "function"
    },
    {
      "inputs": [
        {
          "internalType": "address",
          "name": "",
          "type": "address"
        }
      ],
      "name": "participantToTrue",
      "outputs": [
        {
          "internalType": "bool",
          "name": "",
          "type": "bool"
        }
      ],
      "stateMutability": "view",
      "type": "function"
    },
    {
      "inputs": [
        {
          "internalType": "uint256",
          "name": "",
          "type": "uint256"
        }
      ],
      "name": "participants",
      "outputs": [
        {
          "internalType": "address",
          "name": "",
          "type": "address"
        }
      ],
      "stateMutability": "view",
      "type": "function"
    },
    {
      "inputs": [],
      "name": "rewardDistributor",
      "outputs": [
        {
          "internalType": "address",
          "name": "",
          "type": "address"
        }
      ],
      "stateMutability": "view",
      "type": "function"
    },
    {
      "inputs": [],
      "name": "status",
      "outputs": [
        {
          "internalType": "enum ITuitionContract.Status",
          "name": "",
          "type": "uint8"
        }
      ],
      "stateMutability": "view",
      "type": "function"
    },
    {
      "inputs": [],
      "name": "tuition",
      "outputs": [
        {
          "internalType": "string",
          "name": "Id",
          "type": "string"
        },
        {
          "internalType": "string",
          "name": "urlMetadata",
          "type": "string"
        },
        {
          "internalType": "uint256",
          "name": "feeByToken",
          "type": "uint256"
        },
        {
          "internalType": "uint256",
          "name": "startTime",
          "type": "uint256"
        },
        {
          "internalType": "uint256",
          "name": "endTime",
          "type": "uint256"
        }
      ],
      "stateMutability": "view",
      "type": "function"
    },
    {
      "inputs": [
        {
          "internalType": "string",
          "name": "_tuitionId",
          "type": "string"
        },
        {
          "internalType": "string",
          "name": "_urlMetadata",
          "type": "string"
        },
        {
          "internalType": "uint256",
          "name": "_feeByToken",
          "type": "uint256"
        },
        {
          "internalType": "uint256",
          "name": "_startTime",
          "type": "uint256"
        },
        {
          "internalType": "uint256",
          "name": "_endTime",
          "type": "uint256"
        }
      ],
      "name": "setBasicForTuition",
      "outputs": [],
      "stateMutability": "nonpayable",
      "type": "function"
    },
    {
      "inputs": [],
      "name": "start",
      "outputs": [],
      "stateMutability": "nonpayable",
      "type": "function"
    },
    {
      "inputs": [],
      "name": "lock",
      "outputs": [],
      "stateMutability": "nonpayable",
      "type": "function"
    },
    {
      "inputs": [
        {
          "internalType": "address[]",
          "name": "_students",
          "type": "address[]"
        }
      ],
      "name": "addStudentToTuition",
      "outputs": [],
      "stateMutability": "nonpayable",
      "type": "function"
    },
    {
      "inputs": [
        {
          "internalType": "address[]",
          "name": "_students",
          "type": "address[]"
        }
      ],
      "name": "removeStudentFromTuition",
      "outputs": [],
      "stateMutability": "nonpayable",
      "type": "function"
    },
    {
      "inputs": [],
      "name": "paymentByToken",
      "outputs": [],
      "stateMutability": "nonpayable",
      "type": "function"
    },
    {
      "inputs": [
        {
          "internalType": "address",
          "name": "_studentAddress",
          "type": "address"
        }
      ],
      "name": "paymentByCurrency",
      "outputs": [],
      "stateMutability": "nonpayable",
      "type": "function"
    },
    {
      "inputs": [],
      "name": "close",
      "outputs": [],
      "stateMutability": "nonpayable",
      "type": "function"
    },
    {
      "inputs": [],
      "name": "isReadyToClose",
      "outputs": [
        {
          "internalType": "bool",
          "name": "",
          "type": "bool"
        }
      ],
      "stateMutability": "view",
      "type": "function"
    },
    {
      "inputs": [],
      "name": "getParticipantList",
      "outputs": [
        {
          "internalType": "address[]",
          "name": "",
          "type": "address[]"
        }
      ],
      "stateMutability": "view",
      "type": "function"
    },
    {
      "inputs": [],
      "name": "getParticipantListCompleted",
      "outputs": [
        {
          "internalType": "address[]",
          "name": "",
          "type": "address[]"
        }
      ],
      "stateMutability": "view",
      "type": "function"
    }
  ],
  "bytecode": "0x60a06040526000600560006101000a81548160ff021916908360028111156200002d576200002c62000124565b5b02179055503480156200003f57600080fd5b506040516200391c3803806200391c8339818101604052810190620000659190620001bd565b8273ffffffffffffffffffffffffffffffffffffffff1660808173ffffffffffffffffffffffffffffffffffffffff168152505081600560016101000a81548173ffffffffffffffffffffffffffffffffffffffff021916908373ffffffffffffffffffffffffffffffffffffffff16021790555080600660006101000a81548173ffffffffffffffffffffffffffffffffffffffff021916908373ffffffffffffffffffffffffffffffffffffffff16021790555050505062000219565b7f4e487b7100000000000000000000000000000000000000000000000000000000600052602160045260246000fd5b600080fd5b600073ffffffffffffffffffffffffffffffffffffffff82169050919050565b6000620001858262000158565b9050919050565b620001978162000178565b8114620001a357600080fd5b50565b600081519050620001b7816200018c565b92915050565b600080600060608486031215620001d957620001d862000153565b5b6000620001e986828701620001a6565b9350506020620001fc86828701620001a6565b92505060406200020f86828701620001a6565b9150509250925092565b6080516136cb62000251600039600081816108f201528181610b62015281816115830152818161191a0152611fa201526136cb6000f3fe608060405234801561001057600080fd5b50600436106101375760003560e01c8063a7f44e0d116100b8578063b1319f411161007c578063b1319f41146102f8578063be9a655514610328578063d95fe6a014610332578063ed214fff14610362578063f1d0d19814610380578063f83d08ba1461039c57610137565b8063a7f44e0d1461025e578063a8a86c101461027c578063aa4936ce1461029e578063aa8c217c146102bc578063acc2166a146102da57610137565b8063633d8390116100ff578063633d8390146101cc5780637ed6cd41146101d657806384713897146101f25780638da5cb5b14610210578063a32fb3421461022e57610137565b806304227ab81461013c5780630474f49c14610158578063200d2ed21461017457806335c1d3491461019257806343d726d6146101c2575b600080fd5b610156600480360381019061015191906124f3565b6103a6565b005b610172600480360381019061016d91906126b7565b6108f0565b005b61017c610b0e565b60405161018991906127e1565b60405180910390f35b6101ac60048036038101906101a791906127fc565b610b21565b6040516101b9919061286a565b60405180910390f35b6101ca610b60565b005b6101d4610cd9565b005b6101f060048036038101906101eb91906124f3565b6110e5565b005b6101fa6114fc565b60405161020791906128a0565b60405180910390f35b610218611581565b604051610225919061286a565b60405180910390f35b610248600480360381019061024391906128e7565b6115a5565b60405161025591906128a0565b60405180910390f35b6102666115c5565b60405161027391906129d2565b60405180910390f35b610284611772565b604051610295959493929190612a8b565b60405180910390f35b6102a66118a6565b6040516102b39190612b4b565b60405180910390f35b6102c46118cc565b6040516102d19190612b66565b60405180910390f35b6102e26118d2565b6040516102ef919061286a565b60405180910390f35b610312600480360381019061030d91906128e7565b6118f8565b60405161031f91906128a0565b60405180910390f35b610330611918565b005b61034c600480360381019061034791906128e7565b611a49565b6040516103599190612b66565b60405180910390f35b61036a611a61565b60405161037791906129d2565b60405180910390f35b61039a600480360381019061039591906128e7565b611c85565b005b6103a4611fa0565b005b600560019054906101000a900473ffffffffffffffffffffffffffffffffffffffff1673ffffffffffffffffffffffffffffffffffffffff166391d148547fdf8b4c520ffe197c5343c6f5aec59570151ef9a492f2c624fd45ddde6135ec42336040518363ffffffff1660e01b8152600401610423929190612b9a565b602060405180830381865afa158015610440573d6000803e3d6000fd5b505050506040513d601f19601f820116820180604052508101906104649190612bef565b6104a3576040517f08c379a000000000000000000000000000000000000000000000000000000000815260040161049a90612c68565b60405180910390fd5b600160028111156104b7576104b661276a565b5b600560009054906101000a900460ff1660028111156104d9576104d861276a565b5b14610519576040517f08c379a000000000000000000000000000000000000000000000000000000000815260040161051090612cd4565b60405180910390fd5b60005b828290508110156108af57600560019054906101000a900473ffffffffffffffffffffffffffffffffffffffff1673ffffffffffffffffffffffffffffffffffffffff166391d148547fc951d7098b66ba0b8b77265b6e9cf0e187d73125a42bcd0061b09a68be42181085858581811061059957610598612cf4565b5b90506020020160208101906105ae91906128e7565b6040518363ffffffff1660e01b81526004016105cb929190612b9a565b602060405180830381865afa1580156105e8573d6000803e3d6000fd5b505050506040513d601f19601f8201168201806040525081019061060c9190612bef565b61064b576040517f08c379a000000000000000000000000000000000000000000000000000000000815260040161064290612d6f565b60405180910390fd5b600a600084848481811061066257610661612cf4565b5b905060200201602081019061067791906128e7565b73ffffffffffffffffffffffffffffffffffffffff1673ffffffffffffffffffffffffffffffffffffffff16815260200190815260200160002060009054906101000a900460ff16156106ff576040517f08c379a00000000000000000000000000000000000000000000000000000000081526004016106f690612ddb565b60405180910390fd5b600783838381811061071457610713612cf4565b5b905060200201602081019061072991906128e7565b9080600181540180825580915050600190039060005260206000200160009091909190916101000a81548173ffffffffffffffffffffffffffffffffffffffff021916908373ffffffffffffffffffffffffffffffffffffffff160217905550600160078054905061079b9190612e2a565b600960008585858181106107b2576107b1612cf4565b5b90506020020160208101906107c791906128e7565b73ffffffffffffffffffffffffffffffffffffffff1673ffffffffffffffffffffffffffffffffffffffff168152602001908152602001600020819055506001600a600085858581811061081e5761081d612cf4565b5b905060200201602081019061083391906128e7565b73ffffffffffffffffffffffffffffffffffffffff1673ffffffffffffffffffffffffffffffffffffffff16815260200190815260200160002060006101000a81548160ff0219169083151502179055506008600081548092919061089790612e5e565b919050555080806108a790612e5e565b91505061051c565b507fe2e72171261fc65803154d9b685865c9c9c3e4b71a51312226a5ec4e4991347282829050426040516108e4929190612ea6565b60405180910390a15050565b7f000000000000000000000000000000000000000000000000000000000000000073ffffffffffffffffffffffffffffffffffffffff163373ffffffffffffffffffffffffffffffffffffffff161461097e576040517f08c379a000000000000000000000000000000000000000000000000000000000815260040161097590612f1b565b60405180910390fd5b600060028111156109925761099161276a565b5b600560009054906101000a900460ff1660028111156109b4576109b361276a565b5b146109f4576040517f08c379a00000000000000000000000000000000000000000000000000000000081526004016109eb90612f87565b60405180910390fd5b60008311610a37576040517f08c379a0000000000000000000000000000000000000000000000000000000008152600401610a2e90613019565b60405180910390fd5b8142108015610a4557508082105b610a84576040517f08c379a0000000000000000000000000000000000000000000000000000000008152600401610a7b90613085565b60405180910390fd5b6040518060a0016040528086815260200185815260200184815260200183815260200182815250600080820151816000019080519060200190610ac89291906123d7565b506020820151816001019080519060200190610ae59291906123d7565b506040820151816002015560608201518160030155608082015181600401559050505050505050565b600560009054906101000a900460ff1681565b60078181548110610b3157600080fd5b906000526020600020016000915054906101000a900473ffffffffffffffffffffffffffffffffffffffff1681565b7f000000000000000000000000000000000000000000000000000000000000000073ffffffffffffffffffffffffffffffffffffffff163373ffffffffffffffffffffffffffffffffffffffff1614610bee576040517f08c379a0000000000000000000000000000000000000000000000000000000008152600401610be590612f1b565b60405180910390fd5b60016002811115610c0257610c0161276a565b5b600560009054906101000a900460ff166002811115610c2457610c2361276a565b5b14610c64576040517f08c379a0000000000000000000000000000000000000000000000000000000008152600401610c5b90612cd4565b60405180910390fd5b6002600560006101000a81548160ff02191690836002811115610c8a57610c8961276a565b5b02179055506000600401544211610ca057600080fd5b7fbf67515a38ee520223d32c1266d52101c30d936ed1f3e436c8caeb0a43cb06bf42604051610ccf9190612b66565b60405180910390a1565b600560019054906101000a900473ffffffffffffffffffffffffffffffffffffffff1673ffffffffffffffffffffffffffffffffffffffff166391d148547fc951d7098b66ba0b8b77265b6e9cf0e187d73125a42bcd0061b09a68be421810336040518363ffffffff1660e01b8152600401610d56929190612b9a565b602060405180830381865afa158015610d73573d6000803e3d6000fd5b505050506040513d601f19601f82011682018060405250810190610d979190612bef565b610dd6576040517f08c379a0000000000000000000000000000000000000000000000000000000008152600401610dcd906130f1565b60405180910390fd5b60016002811115610dea57610de961276a565b5b600560009054906101000a900460ff166002811115610e0c57610e0b61276a565b5b14610e4c576040517f08c379a0000000000000000000000000000000000000000000000000000000008152600401610e4390612cd4565b60405180910390fd5b600a60003373ffffffffffffffffffffffffffffffffffffffff1673ffffffffffffffffffffffffffffffffffffffff16815260200190815260200160002060009054906101000a900460ff16610ed8576040517f08c379a0000000000000000000000000000000000000000000000000000000008152600401610ecf9061315d565b60405180910390fd5b600b60003373ffffffffffffffffffffffffffffffffffffffff1673ffffffffffffffffffffffffffffffffffffffff16815260200190815260200160002060009054906101000a900460ff1615610f65576040517f08c379a0000000000000000000000000000000000000000000000000000000008152600401610f5c906131c9565b60405180910390fd5b6000600660009054906101000a900473ffffffffffffffffffffffffffffffffffffffff1673ffffffffffffffffffffffffffffffffffffffff1663c59671c16040518163ffffffff1660e01b8152600401602060405180830381865afa158015610fd4573d6000803e3d6000fd5b505050506040513d601f19601f82011682018060405250810190610ff891906131fe565b905061104e33600660009054906101000a900473ffffffffffffffffffffffffffffffffffffffff166000600201548473ffffffffffffffffffffffffffffffffffffffff166120d1909392919063ffffffff16565b6001600b60003373ffffffffffffffffffffffffffffffffffffffff1673ffffffffffffffffffffffffffffffffffffffff16815260200190815260200160002060006101000a81548160ff0219169083151502179055507f34f914f46f0a40eb0e7b1396063b87a1819f28ed7b5a63829d59f41eba61a1ae334260006040516110da93929190613273565b60405180910390a150565b600560019054906101000a900473ffffffffffffffffffffffffffffffffffffffff1673ffffffffffffffffffffffffffffffffffffffff166391d148547fdf8b4c520ffe197c5343c6f5aec59570151ef9a492f2c624fd45ddde6135ec42336040518363ffffffff1660e01b8152600401611162929190612b9a565b602060405180830381865afa15801561117f573d6000803e3d6000fd5b505050506040513d601f19601f820116820180604052508101906111a39190612bef565b6111e2576040517f08c379a00000000000000000000000000000000000000000000000000000000081526004016111d990612c68565b60405180910390fd5b60005b8282905081101561149f57600a600084848481811061120757611206612cf4565b5b905060200201602081019061121c91906128e7565b73ffffffffffffffffffffffffffffffffffffffff1673ffffffffffffffffffffffffffffffffffffffff16815260200190815260200160002060009054906101000a900460ff166112a3576040517f08c379a000000000000000000000000000000000000000000000000000000000815260040161129a906132f6565b60405180910390fd5b6000600b60008585858181106112bc576112bb612cf4565b5b90506020020160208101906112d191906128e7565b73ffffffffffffffffffffffffffffffffffffffff1673ffffffffffffffffffffffffffffffffffffffff16815260200190815260200160002060006101000a81548160ff0219169083151502179055611360576040517f08c379a000000000000000000000000000000000000000000000000000000000815260040161135790613362565b60405180910390fd5b60006009600085858581811061137957611378612cf4565b5b905060200201602081019061138e91906128e7565b73ffffffffffffffffffffffffffffffffffffffff1673ffffffffffffffffffffffffffffffffffffffff1681526020019081526020016000205490506000600a60008686868181106113e4576113e3612cf4565b5b90506020020160208101906113f991906128e7565b73ffffffffffffffffffffffffffffffffffffffff1673ffffffffffffffffffffffffffffffffffffffff16815260200190815260200160002060006101000a81548160ff0219169083151502179055506007818154811061145e5761145d612cf4565b5b9060005260206000200160006101000a81549073ffffffffffffffffffffffffffffffffffffffff021916905550808061149790612e5e565b9150506111e5565b5081819050600860008282546114b59190612e2a565b925050819055507fc5aed63d19ed24aa9ac68f8de61eeb4498435c513df8b916302ed8db1f1064b582829050426040516114f0929190612ea6565b60405180910390a15050565b6000600160028111156115125761151161276a565b5b600560009054906101000a900460ff1660028111156115345761153361276a565b5b14611574576040517f08c379a000000000000000000000000000000000000000000000000000000000815260040161156b90612cd4565b60405180910390fd5b6000600401544211905090565b7f000000000000000000000000000000000000000000000000000000000000000081565b600b6020528060005260406000206000915054906101000a900460ff1681565b6060600060085467ffffffffffffffff8111156115e5576115e4612556565b5b6040519080825280602002602001820160405280156116135781602001602082028036833780820191505090505b509050600080600090505b60078054905081101561176957600b60006007838154811061164357611642612cf4565b5b9060005260206000200160009054906101000a900473ffffffffffffffffffffffffffffffffffffffff1673ffffffffffffffffffffffffffffffffffffffff1673ffffffffffffffffffffffffffffffffffffffff16815260200190815260200160002060009054906101000a900460ff161561175657600781815481106116cf576116ce612cf4565b5b9060005260206000200160009054906101000a900473ffffffffffffffffffffffffffffffffffffffff1683838151811061170d5761170c612cf4565b5b602002602001019073ffffffffffffffffffffffffffffffffffffffff16908173ffffffffffffffffffffffffffffffffffffffff1681525050818061175290612e5e565b9250505b808061176190612e5e565b91505061161e565b50819250505090565b6000806000018054611783906133b1565b80601f01602080910402602001604051908101604052809291908181526020018280546117af906133b1565b80156117fc5780601f106117d1576101008083540402835291602001916117fc565b820191906000526020600020905b8154815290600101906020018083116117df57829003601f168201915b505050505090806001018054611811906133b1565b80601f016020809104026020016040519081016040528092919081815260200182805461183d906133b1565b801561188a5780601f1061185f5761010080835404028352916020019161188a565b820191906000526020600020905b81548152906001019060200180831161186d57829003601f168201915b5050505050908060020154908060030154908060040154905085565b600560019054906101000a900473ffffffffffffffffffffffffffffffffffffffff1681565b60085481565b600660009054906101000a900473ffffffffffffffffffffffffffffffffffffffff1681565b600a6020528060005260406000206000915054906101000a900460ff1681565b7f000000000000000000000000000000000000000000000000000000000000000073ffffffffffffffffffffffffffffffffffffffff163373ffffffffffffffffffffffffffffffffffffffff16146119a6576040517f08c379a000000000000000000000000000000000000000000000000000000000815260040161199d90612f1b565b60405180910390fd5b600060028111156119ba576119b961276a565b5b600560009054906101000a900460ff1660028111156119dc576119db61276a565b5b14611a1c576040517f08c379a0000000000000000000000000000000000000000000000000000000008152600401611a1390612f87565b60405180910390fd5b6001600560006101000a81548160ff02191690836002811115611a4257611a4161276a565b5b0217905550565b60096020528060005260406000206000915090505481565b6060600060085467ffffffffffffffff811115611a8157611a80612556565b5b604051908082528060200260200182016040528015611aaf5781602001602082028036833780820191505090505b509050600080600090505b600780549050811015611c7c57600a600060078381548110611adf57611ade612cf4565b5b9060005260206000200160009054906101000a900473ffffffffffffffffffffffffffffffffffffffff1673ffffffffffffffffffffffffffffffffffffffff1673ffffffffffffffffffffffffffffffffffffffff16815260200190815260200160002060009054906101000a900460ff168015611bc95750600073ffffffffffffffffffffffffffffffffffffffff1660078281548110611b8557611b84612cf4565b5b9060005260206000200160009054906101000a900473ffffffffffffffffffffffffffffffffffffffff1673ffffffffffffffffffffffffffffffffffffffff1614155b15611c695760078181548110611be257611be1612cf4565b5b9060005260206000200160009054906101000a900473ffffffffffffffffffffffffffffffffffffffff16838381518110611c2057611c1f612cf4565b5b602002602001019073ffffffffffffffffffffffffffffffffffffffff16908173ffffffffffffffffffffffffffffffffffffffff16815250508180611c6590612e5e565b9250505b8080611c7490612e5e565b915050611aba565b50819250505090565b600560019054906101000a900473ffffffffffffffffffffffffffffffffffffffff1673ffffffffffffffffffffffffffffffffffffffff166391d148547fc951d7098b66ba0b8b77265b6e9cf0e187d73125a42bcd0061b09a68be421810336040518363ffffffff1660e01b8152600401611d02929190612b9a565b602060405180830381865afa158015611d1f573d6000803e3d6000fd5b505050506040513d601f19601f82011682018060405250810190611d439190612bef565b611d82576040517f08c379a0000000000000000000000000000000000000000000000000000000008152600401611d79906130f1565b60405180910390fd5b8073ffffffffffffffffffffffffffffffffffffffff163373ffffffffffffffffffffffffffffffffffffffff1614611df0576040517f08c379a0000000000000000000000000000000000000000000000000000000008152600401611de79061342e565b60405180910390fd5b600a60008273ffffffffffffffffffffffffffffffffffffffff1673ffffffffffffffffffffffffffffffffffffffff16815260200190815260200160002060009054906101000a900460ff16611e7c576040517f08c379a0000000000000000000000000000000000000000000000000000000008152600401611e739061315d565b60405180910390fd5b600b60008273ffffffffffffffffffffffffffffffffffffffff1673ffffffffffffffffffffffffffffffffffffffff16815260200190815260200160002060009054906101000a900460ff1615611f09576040517f08c379a0000000000000000000000000000000000000000000000000000000008152600401611f00906131c9565b60405180910390fd5b6001600b60008373ffffffffffffffffffffffffffffffffffffffff1673ffffffffffffffffffffffffffffffffffffffff16815260200190815260200160002060006101000a81548160ff0219169083151502179055507f34f914f46f0a40eb0e7b1396063b87a1819f28ed7b5a63829d59f41eba61a1ae81426001604051611f9593929190613273565b60405180910390a150565b7f000000000000000000000000000000000000000000000000000000000000000073ffffffffffffffffffffffffffffffffffffffff163373ffffffffffffffffffffffffffffffffffffffff161461202e576040517f08c379a000000000000000000000000000000000000000000000000000000000815260040161202590612f1b565b60405180910390fd5b600160028111156120425761204161276a565b5b600560009054906101000a900460ff1660028111156120645761206361276a565b5b146120a4576040517f08c379a000000000000000000000000000000000000000000000000000000000815260040161209b90612cd4565b60405180910390fd5b6000600560006101000a81548160ff021916908360028111156120ca576120c961276a565b5b0217905550565b612154846323b872dd60e01b8585856040516024016120f29392919061344e565b604051602081830303815290604052907bffffffffffffffffffffffffffffffffffffffffffffffffffffffff19166020820180517bffffffffffffffffffffffffffffffffffffffffffffffffffffffff838183161783525050505061215a565b50505050565b60006121bc826040518060400160405280602081526020017f5361666545524332303a206c6f772d6c6576656c2063616c6c206661696c65648152508573ffffffffffffffffffffffffffffffffffffffff166122219092919063ffffffff16565b905060008151111561221c57808060200190518101906121dc9190612bef565b61221b576040517f08c379a0000000000000000000000000000000000000000000000000000000008152600401612212906134f7565b60405180910390fd5b5b505050565b60606122308484600085612239565b90509392505050565b60608247101561227e576040517f08c379a000000000000000000000000000000000000000000000000000000000815260040161227590613589565b60405180910390fd5b6122878561234d565b6122c6576040517f08c379a00000000000000000000000000000000000000000000000000000000081526004016122bd906135f5565b60405180910390fd5b6000808673ffffffffffffffffffffffffffffffffffffffff1685876040516122ef919061365c565b60006040518083038185875af1925050503d806000811461232c576040519150601f19603f3d011682016040523d82523d6000602084013e612331565b606091505b5091509150612341828286612370565b92505050949350505050565b6000808273ffffffffffffffffffffffffffffffffffffffff163b119050919050565b60608315612380578290506123d0565b6000835111156123935782518084602001fd5b816040517f08c379a00000000000000000000000000000000000000000000000000000000081526004016123c79190613673565b60405180910390fd5b9392505050565b8280546123e3906133b1565b90600052602060002090601f016020900481019282612405576000855561244c565b82601f1061241e57805160ff191683800117855561244c565b8280016001018555821561244c579182015b8281111561244b578251825591602001919060010190612430565b5b509050612459919061245d565b5090565b5b8082111561247657600081600090555060010161245e565b5090565b6000604051905090565b600080fd5b600080fd5b600080fd5b600080fd5b600080fd5b60008083601f8401126124b3576124b261248e565b5b8235905067ffffffffffffffff8111156124d0576124cf612493565b5b6020830191508360208202830111156124ec576124eb612498565b5b9250929050565b6000806020838503121561250a57612509612484565b5b600083013567ffffffffffffffff81111561252857612527612489565b5b6125348582860161249d565b92509250509250929050565b600080fd5b6000601f19601f8301169050919050565b7f4e487b7100000000000000000000000000000000000000000000000000000000600052604160045260246000fd5b61258e82612545565b810181811067ffffffffffffffff821117156125ad576125ac612556565b5b80604052505050565b60006125c061247a565b90506125cc8282612585565b919050565b600067ffffffffffffffff8211156125ec576125eb612556565b5b6125f582612545565b9050602081019050919050565b82818337600083830152505050565b600061262461261f846125d1565b6125b6565b9050828152602081018484840111156126405761263f612540565b5b61264b848285612602565b509392505050565b600082601f8301126126685761266761248e565b5b8135612678848260208601612611565b91505092915050565b6000819050919050565b61269481612681565b811461269f57600080fd5b50565b6000813590506126b18161268b565b92915050565b600080600080600060a086880312156126d3576126d2612484565b5b600086013567ffffffffffffffff8111156126f1576126f0612489565b5b6126fd88828901612653565b955050602086013567ffffffffffffffff81111561271e5761271d612489565b5b61272a88828901612653565b945050604061273b888289016126a2565b935050606061274c888289016126a2565b925050608061275d888289016126a2565b9150509295509295909350565b7f4e487b7100000000000000000000000000000000000000000000000000000000600052602160045260246000fd5b600381106127aa576127a961276a565b5b50565b60008190506127bb82612799565b919050565b60006127cb826127ad565b9050919050565b6127db816127c0565b82525050565b60006020820190506127f660008301846127d2565b92915050565b60006020828403121561281257612811612484565b5b6000612820848285016126a2565b91505092915050565b600073ffffffffffffffffffffffffffffffffffffffff82169050919050565b600061285482612829565b9050919050565b61286481612849565b82525050565b600060208201905061287f600083018461285b565b92915050565b60008115159050919050565b61289a81612885565b82525050565b60006020820190506128b56000830184612891565b92915050565b6128c481612849565b81146128cf57600080fd5b50565b6000813590506128e1816128bb565b92915050565b6000602082840312156128fd576128fc612484565b5b600061290b848285016128d2565b91505092915050565b600081519050919050565b600082825260208201905092915050565b6000819050602082019050919050565b61294981612849565b82525050565b600061295b8383612940565b60208301905092915050565b6000602082019050919050565b600061297f82612914565b612989818561291f565b935061299483612930565b8060005b838110156129c55781516129ac888261294f565b97506129b783612967565b925050600181019050612998565b5085935050505092915050565b600060208201905081810360008301526129ec8184612974565b905092915050565b600081519050919050565b600082825260208201905092915050565b60005b83811015612a2e578082015181840152602081019050612a13565b83811115612a3d576000848401525b50505050565b6000612a4e826129f4565b612a5881856129ff565b9350612a68818560208601612a10565b612a7181612545565b840191505092915050565b612a8581612681565b82525050565b600060a0820190508181036000830152612aa58188612a43565b90508181036020830152612ab98187612a43565b9050612ac86040830186612a7c565b612ad56060830185612a7c565b612ae26080830184612a7c565b9695505050505050565b6000819050919050565b6000612b11612b0c612b0784612829565b612aec565b612829565b9050919050565b6000612b2382612af6565b9050919050565b6000612b3582612b18565b9050919050565b612b4581612b2a565b82525050565b6000602082019050612b606000830184612b3c565b92915050565b6000602082019050612b7b6000830184612a7c565b92915050565b6000819050919050565b612b9481612b81565b82525050565b6000604082019050612baf6000830185612b8b565b612bbc602083018461285b565b9392505050565b612bcc81612885565b8114612bd757600080fd5b50565b600081519050612be981612bc3565b92915050565b600060208284031215612c0557612c04612484565b5b6000612c1384828501612bda565b91505092915050565b7f4d433a204f6e6c79204c65637475726572000000000000000000000000000000600082015250565b6000612c526011836129ff565b9150612c5d82612c1c565b602082019050919050565b60006020820190508181036000830152612c8181612c45565b9050919050565b7f4d433a204f6e6c79204f70656e00000000000000000000000000000000000000600082015250565b6000612cbe600d836129ff565b9150612cc982612c88565b602082019050919050565b60006020820190508181036000830152612ced81612cb1565b9050919050565b7f4e487b7100000000000000000000000000000000000000000000000000000000600052603260045260246000fd5b7f53686f756c64206f6e6c79206164642073747564656e74000000000000000000600082015250565b6000612d596017836129ff565b9150612d6482612d23565b602082019050919050565b60006020820190508181036000830152612d8881612d4c565b9050919050565b7f4164646564000000000000000000000000000000000000000000000000000000600082015250565b6000612dc56005836129ff565b9150612dd082612d8f565b602082019050919050565b60006020820190508181036000830152612df481612db8565b9050919050565b7f4e487b7100000000000000000000000000000000000000000000000000000000600052601160045260246000fd5b6000612e3582612681565b9150612e4083612681565b925082821015612e5357612e52612dfb565b5b828203905092915050565b6000612e6982612681565b91507fffffffffffffffffffffffffffffffffffffffffffffffffffffffffffffffff8203612e9b57612e9a612dfb565b5b600182019050919050565b6000604082019050612ebb6000830185612a7c565b612ec86020830184612a7c565b9392505050565b7f4f6e6c79204f776e657200000000000000000000000000000000000000000000600082015250565b6000612f05600a836129ff565b9150612f1082612ecf565b602082019050919050565b60006020820190508181036000830152612f3481612ef8565b9050919050565b7f4d433a204f6e6c79204c6f636b00000000000000000000000000000000000000600082015250565b6000612f71600d836129ff565b9150612f7c82612f3b565b602082019050919050565b60006020820190508181036000830152612fa081612f64565b9050919050565b7f4d433a2041776172642073686f756c642067726561746572207468616e205a6560008201527f726f000000000000000000000000000000000000000000000000000000000000602082015250565b60006130036022836129ff565b915061300e82612fa7565b604082019050919050565b6000602082019050818103600083015261303281612ff6565b9050919050565b7f4d433a2054696d6520697320696e76616c696400000000000000000000000000600082015250565b600061306f6013836129ff565b915061307a82613039565b602082019050919050565b6000602082019050818103600083015261309e81613062565b9050919050565b7f4d433a204f6e6c792053747564656e7400000000000000000000000000000000600082015250565b60006130db6010836129ff565b91506130e6826130a5565b602082019050919050565b6000602082019050818103600083015261310a816130ce565b9050919050565b7f54433a20596f7520617265206e6f7420696e206c697374000000000000000000600082015250565b60006131476017836129ff565b915061315282613111565b602082019050919050565b600060208201905081810360008301526131768161313a565b9050919050565b7f54433a20596f7520706169642074756974696f6e000000000000000000000000600082015250565b60006131b36014836129ff565b91506131be8261317d565b602082019050919050565b600060208201905081810360008301526131e2816131a6565b9050919050565b6000815190506131f8816128bb565b92915050565b60006020828403121561321457613213612484565b5b6000613222848285016131e9565b91505092915050565b6002811061323c5761323b61276a565b5b50565b600081905061324d8261322b565b919050565b600061325d8261323f565b9050919050565b61326d81613252565b82525050565b6000606082019050613288600083018661285b565b6132956020830185612a7c565b6132a26040830184613264565b949350505050565b7f4572726f72207768656e2072656d6f7665000000000000000000000000000000600082015250565b60006132e06011836129ff565b91506132eb826132aa565b602082019050919050565b6000602082019050818103600083015261330f816132d3565b9050919050565b7f546869732073747564656e74206861766520636f6d706c657465640000000000600082015250565b600061334c601b836129ff565b915061335782613316565b602082019050919050565b6000602082019050818103600083015261337b8161333f565b9050919050565b7f4e487b7100000000000000000000000000000000000000000000000000000000600052602260045260246000fd5b600060028204905060018216806133c957607f821691505b6020821081036133dc576133db613382565b5b50919050565b7f596f7520617265206e6f7420616c6c6f77656400000000000000000000000000600082015250565b60006134186013836129ff565b9150613423826133e2565b602082019050919050565b600060208201905081810360008301526134478161340b565b9050919050565b6000606082019050613463600083018661285b565b613470602083018561285b565b61347d6040830184612a7c565b949350505050565b7f5361666545524332303a204552433230206f7065726174696f6e20646964206e60008201527f6f74207375636365656400000000000000000000000000000000000000000000602082015250565b60006134e1602a836129ff565b91506134ec82613485565b604082019050919050565b60006020820190508181036000830152613510816134d4565b9050919050565b7f416464726573733a20696e73756666696369656e742062616c616e636520666f60008201527f722063616c6c0000000000000000000000000000000000000000000000000000602082015250565b60006135736026836129ff565b915061357e82613517565b604082019050919050565b600060208201905081810360008301526135a281613566565b9050919050565b7f416464726573733a2063616c6c20746f206e6f6e2d636f6e7472616374000000600082015250565b60006135df601d836129ff565b91506135ea826135a9565b602082019050919050565b6000602082019050818103600083015261360e816135d2565b9050919050565b600081519050919050565b600081905092915050565b600061363682613615565b6136408185613620565b9350613650818560208601612a10565b80840191505092915050565b6000613668828461362b565b915081905092915050565b6000602082019050818103600083015261368d8184612a43565b90509291505056fea2646970667358221220c1f06968da693da75a22e33dcc252e7e4a4b59fd4c027184961e9b7cbfbb962b64736f6c634300080e0033",
  "immutableReferences": {
    "9982": [
      {
        "length": 32,
        "start": 2290
      },
      {
        "length": 32,
        "start": 2914
      },
      {
        "length": 32,
        "start": 5507
      },
      {
        "length": 32,
        "start": 6426
      },
      {
        "length": 32,
        "start": 8098
      }
    ]
  },
  "source": "//SPDX-License-Identifier: UNLICENSED\r\npragma solidity >=0.8.0;\r\n\r\nimport \"./interfaces/ITuitionContract.sol\";\r\nimport \"./interfaces/IAccessControl.sol\";\r\nimport \"./interfaces/IRewardDistributor.sol\";\r\n\r\ncontract TuitionContract is ITuitionContract {\r\n    using SafeERC20 for IERC20;\r\n\r\n    address public immutable owner;\r\n    Tuition public tuition;\r\n    Status public status = Status.Lock;\r\n\r\n    IAccessControl public accessControll;\r\n    address public rewardDistributor;\r\n\r\n    address[] public participants;\r\n    uint256 public amount;\r\n    mapping(address => uint256) public participantToIndex;\r\n    mapping(address => bool) public participantToTrue;\r\n    mapping(address => bool) public completedAddress;\r\n\r\n    modifier onlyLock() {\r\n        require(status == Status.Lock, \"MC: Only Lock\");\r\n        _;\r\n    }\r\n\r\n    modifier onlyOpen() {\r\n        require(status == Status.Open, \"MC: Only Open\");\r\n        _;\r\n    }\r\n\r\n    modifier onlyOwner() {\r\n        require(msg.sender == owner, \"Only Owner\");\r\n        _;\r\n    }\r\n\r\n    modifier onlyRoleAdmin() {\r\n        require(\r\n            accessControll.hasRole(keccak256(\"ADMIN\"), msg.sender),\r\n            \"MC: Only Lecturer\"\r\n        );\r\n        _;\r\n    }\r\n\r\n    modifier onlyRoleStudent() {\r\n        require(\r\n            accessControll.hasRole(keccak256(\"STUDENT\"), msg.sender),\r\n            \"MC: Only Student\"\r\n        );\r\n        _;\r\n    }\r\n\r\n    constructor(\r\n        address _owner,\r\n        address _accessControll,\r\n        address _rewardDistributor\r\n    ) {\r\n        owner = _owner;\r\n        accessControll = IAccessControl(_accessControll);\r\n        rewardDistributor = _rewardDistributor;\r\n    }\r\n\r\n    function setBasicForTuition(\r\n        string memory _tuitionId,\r\n        string memory _urlMetadata,\r\n        uint256 _feeByToken,\r\n        uint256 _startTime,\r\n        uint256 _endTime\r\n    ) external override onlyOwner onlyLock {\r\n        require(_feeByToken > 0, \"MC: Award should greater than Zero\");\r\n        require(\r\n            block.timestamp < _startTime && _startTime < _endTime,\r\n            \"MC: Time is invalid\"\r\n        );\r\n\r\n        tuition = Tuition(\r\n            _tuitionId,\r\n            _urlMetadata,\r\n            _feeByToken,\r\n            _startTime,\r\n            _endTime\r\n        );\r\n    }\r\n\r\n    function start() external override onlyOwner onlyLock {\r\n        status = Status.Open;\r\n    }\r\n\r\n    function lock() external override onlyOwner onlyOpen {\r\n        status = Status.Lock;\r\n    }\r\n\r\n    function addStudentToTuition(address[] calldata _students)\r\n        external\r\n        override\r\n        onlyRoleAdmin\r\n        onlyOpen\r\n    {\r\n        for (uint256 i = 0; i < _students.length; i++) {\r\n            require(\r\n                accessControll.hasRole(keccak256(\"STUDENT\"), _students[i]),\r\n                \"Should only add student\"\r\n            );\r\n            require(!participantToTrue[_students[i]], \"Added\");\r\n            participants.push(_students[i]);\r\n            participantToIndex[_students[i]] = participants.length - 1;\r\n            participantToTrue[_students[i]] = true;\r\n            amount++;\r\n        }\r\n        emit AddStudentToTuition(_students.length, block.timestamp);\r\n    }\r\n\r\n    function removeStudentFromTuition(address[] calldata _students)\r\n        external\r\n        override\r\n        onlyRoleAdmin\r\n    {\r\n        for (uint256 i = 0; i < _students.length; i++) {\r\n            require(participantToTrue[_students[i]], \"Error when remove\");\r\n            require(\r\n                        completedAddress[_students[i]] = false,\r\n                        \"This student have completed\"\r\n                    );\r\n            uint256 index = participantToIndex[_students[i]];\r\n            participantToTrue[_students[i]] = false;\r\n            delete participants[index];\r\n        }\r\n        amount-= _students.length;\r\n\r\n        emit RemoveStudentFromTuition(_students.length, block.timestamp);\r\n    }\r\n\r\n    function paymentByToken() external override onlyRoleStudent onlyOpen {\r\n        require(participantToTrue[msg.sender], \"TC: You are not in list\");\r\n        require(!completedAddress[msg.sender], \"TC: You paid tuition\");\r\n        address UITToken = IRewardDistributor(rewardDistributor)\r\n            .getUITTokenAddress();\r\n        IERC20(UITToken).safeTransferFrom(\r\n            msg.sender,\r\n            rewardDistributor,\r\n            tuition.feeByToken\r\n        );\r\n        completedAddress[msg.sender] = true;\r\n        emit Payment(msg.sender, block.timestamp, PaymentMethod.Token);\r\n    }\r\n\r\n    function paymentByCurrency(address _studentAddress) external override onlyRoleStudent{\r\n        require(msg.sender == _studentAddress, \"You are not allowed\");\r\n        require(participantToTrue[_studentAddress], \"TC: You are not in list\");\r\n        require(!completedAddress[_studentAddress], \"TC: You paid tuition\");\r\n        completedAddress[_studentAddress] = true;\r\n        emit Payment(_studentAddress, block.timestamp, PaymentMethod.Currency);\r\n    }\r\n\r\n    function close() external override onlyOwner onlyOpen {\r\n        status = Status.Close;\r\n        require(block.timestamp > tuition.endTime);\r\n        emit Close(block.timestamp);\r\n    }\r\n\r\n    function isReadyToClose() onlyOpen external view returns(bool) {\r\n        return (block.timestamp > tuition.endTime);\r\n    }\r\n\r\n    function getParticipantList()\r\n        public\r\n        view\r\n        override\r\n        returns (address[] memory)\r\n    {\r\n        address[] memory student = new address[](amount);\r\n        uint256 index;\r\n        for (uint256 i = 0; i < participants.length; i++) {\r\n            if (\r\n                participantToTrue[participants[i]] &&\r\n                participants[i] != address(0)\r\n            ) {\r\n                student[index] = participants[i];\r\n                index++;\r\n            }\r\n        }\r\n        return student;\r\n    }\r\n\r\n    function getParticipantListCompleted()\r\n        public\r\n        view\r\n        returns (address[] memory)\r\n    {\r\n        address[] memory student = new address[](amount);\r\n        uint256 index;\r\n        for (uint256 i = 0; i < participants.length; i++) {\r\n            if (completedAddress[participants[i]]) {\r\n                student[index] = participants[i];\r\n                index++;\r\n            }\r\n        }\r\n        return student;\r\n    }\r\n}\r\n",
  "sourcePath": "E:\\KLTN\\KLTN\\KLTN-contracts\\contracts\\studentmanager\\TuitionContract.sol",
  "compiler": {
    "name": "solc",
    "version": "0.8.14+commit.80d49f37.Emscripten.clang"
  },
  "schemaVersion": "3.4.3",
  "updatedAt": "2022-06-13T07:41:46.584Z",
  "devdoc": {
    "kind": "dev",
    "methods": {},
    "version": 1
  },
  "userdoc": {
    "kind": "user",
    "methods": {},
    "version": 1
  }
}