{
  "contractName": "TuitionFactory",
  "abi": [
    {
      "inputs": [
        {
          "internalType": "address",
          "name": "owner",
          "type": "address"
        },
        {
          "internalType": "address",
          "name": "_accessControll",
          "type": "address"
        },
        {
          "internalType": "address",
          "name": "_rewardDistributor",
          "type": "address"
        }
      ],
      "name": "createNewTuition",
      "outputs": [
        {
          "internalType": "address",
          "name": "",
          "type": "address"
        }
      ],
      "stateMutability": "nonpayable",
      "type": "function"
    }
  ],
  "bytecode": "0x608060405234801561001057600080fd5b5061350d806100206000396000f3fe608060405234801561001057600080fd5b506004361061002b5760003560e01c8063029c678514610030575b600080fd5b61004a60048036038101906100459190610118565b610060565b604051610057919061017a565b60405180910390f35b600080848484604051610072906100a8565b61007e93929190610195565b604051809103906000f08015801561009a573d6000803e3d6000fd5b509050809150509392505050565b61330b806101cd83390190565b600080fd5b600073ffffffffffffffffffffffffffffffffffffffff82169050919050565b60006100e5826100ba565b9050919050565b6100f5816100da565b811461010057600080fd5b50565b600081359050610112816100ec565b92915050565b600080600060608486031215610131576101306100b5565b5b600061013f86828701610103565b935050602061015086828701610103565b925050604061016186828701610103565b9150509250925092565b610174816100da565b82525050565b600060208201905061018f600083018461016b565b92915050565b60006060820190506101aa600083018661016b565b6101b7602083018561016b565b6101c4604083018461016b565b94935050505056fe60a06040526000600560006101000a81548160ff021916908360028111156200002d576200002c62000124565b5b02179055503480156200003f57600080fd5b506040516200330b3803806200330b8339818101604052810190620000659190620001bd565b8273ffffffffffffffffffffffffffffffffffffffff1660808173ffffffffffffffffffffffffffffffffffffffff168152505081600560016101000a81548173ffffffffffffffffffffffffffffffffffffffff021916908373ffffffffffffffffffffffffffffffffffffffff16021790555080600660006101000a81548173ffffffffffffffffffffffffffffffffffffffff021916908373ffffffffffffffffffffffffffffffffffffffff16021790555050505062000219565b7f4e487b7100000000000000000000000000000000000000000000000000000000600052602160045260246000fd5b600080fd5b600073ffffffffffffffffffffffffffffffffffffffff82169050919050565b6000620001858262000158565b9050919050565b620001978162000178565b8114620001a357600080fd5b50565b600081519050620001b7816200018c565b92915050565b600080600060608486031215620001d957620001d862000153565b5b6000620001e986828701620001a6565b9350506020620001fc86828701620001a6565b92505060406200020f86828701620001a6565b9150509250925092565b6080516130c16200024a6000396000818161086601528181610ad6015281816111f1015261183401526130c16000f3fe608060405234801561001057600080fd5b50600436106101215760003560e01c8063a32fb342116100ad578063acc2166a11610071578063acc2166a146102b0578063b1319f41146102ce578063be9a6555146102fe578063d95fe6a014610308578063ed214fff1461033857610121565b8063a32fb34214610204578063a7f44e0d14610234578063a8a86c1014610252578063aa4936ce14610274578063aa8c217c1461029257610121565b806343d726d6116100f457806343d726d6146101ac578063633d8390146101b6578063727cb110146101c05780638da5cb5b146101dc5780639846a1a0146101fa57610121565b806304227ab8146101265780630474f49c14610142578063200d2ed21461015e57806335c1d3491461017c575b600080fd5b610140600480360381019061013b9190611fc1565b610356565b005b61015c60048036038101906101579190612185565b610864565b005b610166610a82565b60405161017391906122af565b60405180910390f35b610196600480360381019061019191906122ca565b610a95565b6040516101a39190612338565b60405180910390f35b6101b4610ad4565b005b6101be610bd7565b005b6101da60048036038101906101d5919061237f565b610f6d565b005b6101e46111ef565b6040516101f19190612338565b60405180910390f35b610202611213565b005b61021e6004803603810190610219919061237f565b6114bf565b60405161022b91906123c7565b60405180910390f35b61023c6114df565b60405161024991906124a0565b60405180910390f35b61025a61168c565b60405161026b959493929190612559565b60405180910390f35b61027c6117c0565b6040516102899190612619565b60405180910390f35b61029a6117e6565b6040516102a79190612634565b60405180910390f35b6102b86117ec565b6040516102c59190612338565b60405180910390f35b6102e860048036038101906102e3919061237f565b611812565b6040516102f591906123c7565b60405180910390f35b610306611832565b005b610322600480360381019061031d919061237f565b611963565b60405161032f9190612634565b60405180910390f35b61034061197b565b60405161034d91906124a0565b60405180910390f35b600560019054906101000a900473ffffffffffffffffffffffffffffffffffffffff1673ffffffffffffffffffffffffffffffffffffffff166391d148547fdf8b4c520ffe197c5343c6f5aec59570151ef9a492f2c624fd45ddde6135ec42336040518363ffffffff1660e01b81526004016103d3929190612668565b602060405180830381865afa1580156103f0573d6000803e3d6000fd5b505050506040513d601f19601f8201168201806040525081019061041491906126bd565b610453576040517f08c379a000000000000000000000000000000000000000000000000000000000815260040161044a90612736565b60405180910390fd5b6001600281111561046757610466612238565b5b600560009054906101000a900460ff16600281111561048957610488612238565b5b146104c9576040517f08c379a00000000000000000000000000000000000000000000000000000000081526004016104c0906127a2565b60405180910390fd5b60005b8282905081101561085f57600560019054906101000a900473ffffffffffffffffffffffffffffffffffffffff1673ffffffffffffffffffffffffffffffffffffffff166391d148547fc951d7098b66ba0b8b77265b6e9cf0e187d73125a42bcd0061b09a68be421810858585818110610549576105486127c2565b5b905060200201602081019061055e919061237f565b6040518363ffffffff1660e01b815260040161057b929190612668565b602060405180830381865afa158015610598573d6000803e3d6000fd5b505050506040513d601f19601f820116820180604052508101906105bc91906126bd565b6105fb576040517f08c379a00000000000000000000000000000000000000000000000000000000081526004016105f29061283d565b60405180910390fd5b600a6000848484818110610612576106116127c2565b5b9050602002016020810190610627919061237f565b73ffffffffffffffffffffffffffffffffffffffff1673ffffffffffffffffffffffffffffffffffffffff16815260200190815260200160002060009054906101000a900460ff16156106af576040517f08c379a00000000000000000000000000000000000000000000000000000000081526004016106a6906128a9565b60405180910390fd5b60078383838181106106c4576106c36127c2565b5b90506020020160208101906106d9919061237f565b9080600181540180825580915050600190039060005260206000200160009091909190916101000a81548173ffffffffffffffffffffffffffffffffffffffff021916908373ffffffffffffffffffffffffffffffffffffffff160217905550600160078054905061074b91906128f8565b60096000858585818110610762576107616127c2565b5b9050602002016020810190610777919061237f565b73ffffffffffffffffffffffffffffffffffffffff1673ffffffffffffffffffffffffffffffffffffffff168152602001908152602001600020819055506001600a60008585858181106107ce576107cd6127c2565b5b90506020020160208101906107e3919061237f565b73ffffffffffffffffffffffffffffffffffffffff1673ffffffffffffffffffffffffffffffffffffffff16815260200190815260200160002060006101000a81548160ff021916908315150217905550600860008154809291906108479061292c565b919050555080806108579061292c565b9150506104cc565b505050565b7f000000000000000000000000000000000000000000000000000000000000000073ffffffffffffffffffffffffffffffffffffffff163373ffffffffffffffffffffffffffffffffffffffff16146108f2576040517f08c379a00000000000000000000000000000000000000000000000000000000081526004016108e9906129c0565b60405180910390fd5b6000600281111561090657610905612238565b5b600560009054906101000a900460ff16600281111561092857610927612238565b5b14610968576040517f08c379a000000000000000000000000000000000000000000000000000000000815260040161095f90612a2c565b60405180910390fd5b600083116109ab576040517f08c379a00000000000000000000000000000000000000000000000000000000081526004016109a290612abe565b60405180910390fd5b81421080156109b957508082105b6109f8576040517f08c379a00000000000000000000000000000000000000000000000000000000081526004016109ef90612b2a565b60405180910390fd5b6040518060a0016040528086815260200185815260200184815260200183815260200182815250600080820151816000019080519060200190610a3c929190611ea5565b506020820151816001019080519060200190610a59929190611ea5565b506040820151816002015560608201518160030155608082015181600401559050505050505050565b600560009054906101000a900460ff1681565b60078181548110610aa557600080fd5b906000526020600020016000915054906101000a900473ffffffffffffffffffffffffffffffffffffffff1681565b7f000000000000000000000000000000000000000000000000000000000000000073ffffffffffffffffffffffffffffffffffffffff163373ffffffffffffffffffffffffffffffffffffffff1614610b62576040517f08c379a0000000000000000000000000000000000000000000000000000000008152600401610b59906129c0565b60405180910390fd5b6002600560006101000a81548160ff02191690836002811115610b8857610b87612238565b5b02179055506000600401544211610b9e57600080fd5b7fbf67515a38ee520223d32c1266d52101c30d936ed1f3e436c8caeb0a43cb06bf42604051610bcd9190612634565b60405180910390a1565b600560019054906101000a900473ffffffffffffffffffffffffffffffffffffffff1673ffffffffffffffffffffffffffffffffffffffff166391d148547fc951d7098b66ba0b8b77265b6e9cf0e187d73125a42bcd0061b09a68be421810336040518363ffffffff1660e01b8152600401610c54929190612668565b602060405180830381865afa158015610c71573d6000803e3d6000fd5b505050506040513d601f19601f82011682018060405250810190610c9591906126bd565b610cd4576040517f08c379a0000000000000000000000000000000000000000000000000000000008152600401610ccb90612b96565b60405180910390fd5b600a60003373ffffffffffffffffffffffffffffffffffffffff1673ffffffffffffffffffffffffffffffffffffffff16815260200190815260200160002060009054906101000a900460ff16610d60576040517f08c379a0000000000000000000000000000000000000000000000000000000008152600401610d5790612c02565b60405180910390fd5b600b60003373ffffffffffffffffffffffffffffffffffffffff1673ffffffffffffffffffffffffffffffffffffffff16815260200190815260200160002060009054906101000a900460ff1615610ded576040517f08c379a0000000000000000000000000000000000000000000000000000000008152600401610de490612c6e565b60405180910390fd5b6000600660009054906101000a900473ffffffffffffffffffffffffffffffffffffffff1673ffffffffffffffffffffffffffffffffffffffff1663c59671c16040518163ffffffff1660e01b8152600401602060405180830381865afa158015610e5c573d6000803e3d6000fd5b505050506040513d601f19601f82011682018060405250810190610e809190612ca3565b9050610ed633600660009054906101000a900473ffffffffffffffffffffffffffffffffffffffff166000600201548473ffffffffffffffffffffffffffffffffffffffff16611b9f909392919063ffffffff16565b6001600b60003373ffffffffffffffffffffffffffffffffffffffff1673ffffffffffffffffffffffffffffffffffffffff16815260200190815260200160002060006101000a81548160ff0219169083151502179055507f34f914f46f0a40eb0e7b1396063b87a1819f28ed7b5a63829d59f41eba61a1ae33426000604051610f6293929190612d18565b60405180910390a150565b600560019054906101000a900473ffffffffffffffffffffffffffffffffffffffff1673ffffffffffffffffffffffffffffffffffffffff166391d148547fdf8b4c520ffe197c5343c6f5aec59570151ef9a492f2c624fd45ddde6135ec42336040518363ffffffff1660e01b8152600401610fea929190612668565b602060405180830381865afa158015611007573d6000803e3d6000fd5b505050506040513d601f19601f8201168201806040525081019061102b91906126bd565b61106a576040517f08c379a000000000000000000000000000000000000000000000000000000000815260040161106190612736565b60405180910390fd5b600a60008273ffffffffffffffffffffffffffffffffffffffff1673ffffffffffffffffffffffffffffffffffffffff16815260200190815260200160002060009054906101000a900460ff166110f6576040517f08c379a00000000000000000000000000000000000000000000000000000000081526004016110ed90612d9b565b60405180910390fd5b6000600960008373ffffffffffffffffffffffffffffffffffffffff1673ffffffffffffffffffffffffffffffffffffffff1681526020019081526020016000205490506008600081548092919061114d90612dbb565b91905055506000600a60008473ffffffffffffffffffffffffffffffffffffffff1673ffffffffffffffffffffffffffffffffffffffff16815260200190815260200160002060006101000a81548160ff021916908315150217905550600781815481106111be576111bd6127c2565b5b9060005260206000200160006101000a81549073ffffffffffffffffffffffffffffffffffffffff02191690555050565b7f000000000000000000000000000000000000000000000000000000000000000081565b600560019054906101000a900473ffffffffffffffffffffffffffffffffffffffff1673ffffffffffffffffffffffffffffffffffffffff166391d148547fdf8b4c520ffe197c5343c6f5aec59570151ef9a492f2c624fd45ddde6135ec42336040518363ffffffff1660e01b8152600401611290929190612668565b602060405180830381865afa1580156112ad573d6000803e3d6000fd5b505050506040513d601f19601f820116820180604052508101906112d191906126bd565b611310576040517f08c379a000000000000000000000000000000000000000000000000000000000815260040161130790612736565b60405180910390fd5b600a60003373ffffffffffffffffffffffffffffffffffffffff1673ffffffffffffffffffffffffffffffffffffffff16815260200190815260200160002060009054906101000a900460ff1661139c576040517f08c379a000000000000000000000000000000000000000000000000000000000815260040161139390612c02565b60405180910390fd5b600b60003373ffffffffffffffffffffffffffffffffffffffff1673ffffffffffffffffffffffffffffffffffffffff16815260200190815260200160002060009054906101000a900460ff1615611429576040517f08c379a000000000000000000000000000000000000000000000000000000000815260040161142090612c6e565b60405180910390fd5b6001600b60003373ffffffffffffffffffffffffffffffffffffffff1673ffffffffffffffffffffffffffffffffffffffff16815260200190815260200160002060006101000a81548160ff0219169083151502179055507f34f914f46f0a40eb0e7b1396063b87a1819f28ed7b5a63829d59f41eba61a1ae334260016040516114b593929190612d18565b60405180910390a1565b600b6020528060005260406000206000915054906101000a900460ff1681565b6060600060085467ffffffffffffffff8111156114ff576114fe612024565b5b60405190808252806020026020018201604052801561152d5781602001602082028036833780820191505090505b509050600080600090505b60078054905081101561168357600b60006007838154811061155d5761155c6127c2565b5b9060005260206000200160009054906101000a900473ffffffffffffffffffffffffffffffffffffffff1673ffffffffffffffffffffffffffffffffffffffff1673ffffffffffffffffffffffffffffffffffffffff16815260200190815260200160002060009054906101000a900460ff161561167057600781815481106115e9576115e86127c2565b5b9060005260206000200160009054906101000a900473ffffffffffffffffffffffffffffffffffffffff16838381518110611627576116266127c2565b5b602002602001019073ffffffffffffffffffffffffffffffffffffffff16908173ffffffffffffffffffffffffffffffffffffffff1681525050818061166c9061292c565b9250505b808061167b9061292c565b915050611538565b50819250505090565b600080600001805461169d90612e13565b80601f01602080910402602001604051908101604052809291908181526020018280546116c990612e13565b80156117165780601f106116eb57610100808354040283529160200191611716565b820191906000526020600020905b8154815290600101906020018083116116f957829003601f168201915b50505050509080600101805461172b90612e13565b80601f016020809104026020016040519081016040528092919081815260200182805461175790612e13565b80156117a45780601f10611779576101008083540402835291602001916117a4565b820191906000526020600020905b81548152906001019060200180831161178757829003601f168201915b5050505050908060020154908060030154908060040154905085565b600560019054906101000a900473ffffffffffffffffffffffffffffffffffffffff1681565b60085481565b600660009054906101000a900473ffffffffffffffffffffffffffffffffffffffff1681565b600a6020528060005260406000206000915054906101000a900460ff1681565b7f000000000000000000000000000000000000000000000000000000000000000073ffffffffffffffffffffffffffffffffffffffff163373ffffffffffffffffffffffffffffffffffffffff16146118c0576040517f08c379a00000000000000000000000000000000000000000000000000000000081526004016118b7906129c0565b60405180910390fd5b600060028111156118d4576118d3612238565b5b600560009054906101000a900460ff1660028111156118f6576118f5612238565b5b14611936576040517f08c379a000000000000000000000000000000000000000000000000000000000815260040161192d90612a2c565b60405180910390fd5b6001600560006101000a81548160ff0219169083600281111561195c5761195b612238565b5b0217905550565b60096020528060005260406000206000915090505481565b6060600060085467ffffffffffffffff81111561199b5761199a612024565b5b6040519080825280602002602001820160405280156119c95781602001602082028036833780820191505090505b509050600080600090505b600780549050811015611b9657600a6000600783815481106119f9576119f86127c2565b5b9060005260206000200160009054906101000a900473ffffffffffffffffffffffffffffffffffffffff1673ffffffffffffffffffffffffffffffffffffffff1673ffffffffffffffffffffffffffffffffffffffff16815260200190815260200160002060009054906101000a900460ff168015611ae35750600073ffffffffffffffffffffffffffffffffffffffff1660078281548110611a9f57611a9e6127c2565b5b9060005260206000200160009054906101000a900473ffffffffffffffffffffffffffffffffffffffff1673ffffffffffffffffffffffffffffffffffffffff1614155b15611b835760078181548110611afc57611afb6127c2565b5b9060005260206000200160009054906101000a900473ffffffffffffffffffffffffffffffffffffffff16838381518110611b3a57611b396127c2565b5b602002602001019073ffffffffffffffffffffffffffffffffffffffff16908173ffffffffffffffffffffffffffffffffffffffff16815250508180611b7f9061292c565b9250505b8080611b8e9061292c565b9150506119d4565b50819250505090565b611c22846323b872dd60e01b858585604051602401611bc093929190612e44565b604051602081830303815290604052907bffffffffffffffffffffffffffffffffffffffffffffffffffffffff19166020820180517bffffffffffffffffffffffffffffffffffffffffffffffffffffffff8381831617835250505050611c28565b50505050565b6000611c8a826040518060400160405280602081526020017f5361666545524332303a206c6f772d6c6576656c2063616c6c206661696c65648152508573ffffffffffffffffffffffffffffffffffffffff16611cef9092919063ffffffff16565b9050600081511115611cea5780806020019051810190611caa91906126bd565b611ce9576040517f08c379a0000000000000000000000000000000000000000000000000000000008152600401611ce090612eed565b60405180910390fd5b5b505050565b6060611cfe8484600085611d07565b90509392505050565b606082471015611d4c576040517f08c379a0000000000000000000000000000000000000000000000000000000008152600401611d4390612f7f565b60405180910390fd5b611d5585611e1b565b611d94576040517f08c379a0000000000000000000000000000000000000000000000000000000008152600401611d8b90612feb565b60405180910390fd5b6000808673ffffffffffffffffffffffffffffffffffffffff168587604051611dbd9190613052565b60006040518083038185875af1925050503d8060008114611dfa576040519150601f19603f3d011682016040523d82523d6000602084013e611dff565b606091505b5091509150611e0f828286611e3e565b92505050949350505050565b6000808273ffffffffffffffffffffffffffffffffffffffff163b119050919050565b60608315611e4e57829050611e9e565b600083511115611e615782518084602001fd5b816040517f08c379a0000000000000000000000000000000000000000000000000000000008152600401611e959190613069565b60405180910390fd5b9392505050565b828054611eb190612e13565b90600052602060002090601f016020900481019282611ed35760008555611f1a565b82601f10611eec57805160ff1916838001178555611f1a565b82800160010185558215611f1a579182015b82811115611f19578251825591602001919060010190611efe565b5b509050611f279190611f2b565b5090565b5b80821115611f44576000816000905550600101611f2c565b5090565b6000604051905090565b600080fd5b600080fd5b600080fd5b600080fd5b600080fd5b60008083601f840112611f8157611f80611f5c565b5b8235905067ffffffffffffffff811115611f9e57611f9d611f61565b5b602083019150836020820283011115611fba57611fb9611f66565b5b9250929050565b60008060208385031215611fd857611fd7611f52565b5b600083013567ffffffffffffffff811115611ff657611ff5611f57565b5b61200285828601611f6b565b92509250509250929050565b600080fd5b6000601f19601f8301169050919050565b7f4e487b7100000000000000000000000000000000000000000000000000000000600052604160045260246000fd5b61205c82612013565b810181811067ffffffffffffffff8211171561207b5761207a612024565b5b80604052505050565b600061208e611f48565b905061209a8282612053565b919050565b600067ffffffffffffffff8211156120ba576120b9612024565b5b6120c382612013565b9050602081019050919050565b82818337600083830152505050565b60006120f26120ed8461209f565b612084565b90508281526020810184848401111561210e5761210d61200e565b5b6121198482856120d0565b509392505050565b600082601f83011261213657612135611f5c565b5b81356121468482602086016120df565b91505092915050565b6000819050919050565b6121628161214f565b811461216d57600080fd5b50565b60008135905061217f81612159565b92915050565b600080600080600060a086880312156121a1576121a0611f52565b5b600086013567ffffffffffffffff8111156121bf576121be611f57565b5b6121cb88828901612121565b955050602086013567ffffffffffffffff8111156121ec576121eb611f57565b5b6121f888828901612121565b945050604061220988828901612170565b935050606061221a88828901612170565b925050608061222b88828901612170565b9150509295509295909350565b7f4e487b7100000000000000000000000000000000000000000000000000000000600052602160045260246000fd5b6003811061227857612277612238565b5b50565b600081905061228982612267565b919050565b60006122998261227b565b9050919050565b6122a98161228e565b82525050565b60006020820190506122c460008301846122a0565b92915050565b6000602082840312156122e0576122df611f52565b5b60006122ee84828501612170565b91505092915050565b600073ffffffffffffffffffffffffffffffffffffffff82169050919050565b6000612322826122f7565b9050919050565b61233281612317565b82525050565b600060208201905061234d6000830184612329565b92915050565b61235c81612317565b811461236757600080fd5b50565b60008135905061237981612353565b92915050565b60006020828403121561239557612394611f52565b5b60006123a38482850161236a565b91505092915050565b60008115159050919050565b6123c1816123ac565b82525050565b60006020820190506123dc60008301846123b8565b92915050565b600081519050919050565b600082825260208201905092915050565b6000819050602082019050919050565b61241781612317565b82525050565b6000612429838361240e565b60208301905092915050565b6000602082019050919050565b600061244d826123e2565b61245781856123ed565b9350612462836123fe565b8060005b8381101561249357815161247a888261241d565b975061248583612435565b925050600181019050612466565b5085935050505092915050565b600060208201905081810360008301526124ba8184612442565b905092915050565b600081519050919050565b600082825260208201905092915050565b60005b838110156124fc5780820151818401526020810190506124e1565b8381111561250b576000848401525b50505050565b600061251c826124c2565b61252681856124cd565b93506125368185602086016124de565b61253f81612013565b840191505092915050565b6125538161214f565b82525050565b600060a08201905081810360008301526125738188612511565b905081810360208301526125878187612511565b9050612596604083018661254a565b6125a3606083018561254a565b6125b0608083018461254a565b9695505050505050565b6000819050919050565b60006125df6125da6125d5846122f7565b6125ba565b6122f7565b9050919050565b60006125f1826125c4565b9050919050565b6000612603826125e6565b9050919050565b612613816125f8565b82525050565b600060208201905061262e600083018461260a565b92915050565b6000602082019050612649600083018461254a565b92915050565b6000819050919050565b6126628161264f565b82525050565b600060408201905061267d6000830185612659565b61268a6020830184612329565b9392505050565b61269a816123ac565b81146126a557600080fd5b50565b6000815190506126b781612691565b92915050565b6000602082840312156126d3576126d2611f52565b5b60006126e1848285016126a8565b91505092915050565b7f4d433a204f6e6c79204c65637475726572000000000000000000000000000000600082015250565b60006127206011836124cd565b915061272b826126ea565b602082019050919050565b6000602082019050818103600083015261274f81612713565b9050919050565b7f4d433a204f6e6c79204f70656e00000000000000000000000000000000000000600082015250565b600061278c600d836124cd565b915061279782612756565b602082019050919050565b600060208201905081810360008301526127bb8161277f565b9050919050565b7f4e487b7100000000000000000000000000000000000000000000000000000000600052603260045260246000fd5b7f53686f756c64206f6e6c79206164642073747564656e74000000000000000000600082015250565b60006128276017836124cd565b9150612832826127f1565b602082019050919050565b600060208201905081810360008301526128568161281a565b9050919050565b7f4164646564000000000000000000000000000000000000000000000000000000600082015250565b60006128936005836124cd565b915061289e8261285d565b602082019050919050565b600060208201905081810360008301526128c281612886565b9050919050565b7f4e487b7100000000000000000000000000000000000000000000000000000000600052601160045260246000fd5b60006129038261214f565b915061290e8361214f565b925082821015612921576129206128c9565b5b828203905092915050565b60006129378261214f565b91507fffffffffffffffffffffffffffffffffffffffffffffffffffffffffffffffff8203612969576129686128c9565b5b600182019050919050565b7f4f6e6c79204f776e657200000000000000000000000000000000000000000000600082015250565b60006129aa600a836124cd565b91506129b582612974565b602082019050919050565b600060208201905081810360008301526129d98161299d565b9050919050565b7f4d433a204f6e6c79204c6f636b00000000000000000000000000000000000000600082015250565b6000612a16600d836124cd565b9150612a21826129e0565b602082019050919050565b60006020820190508181036000830152612a4581612a09565b9050919050565b7f4d433a2041776172642073686f756c642067726561746572207468616e205a6560008201527f726f000000000000000000000000000000000000000000000000000000000000602082015250565b6000612aa86022836124cd565b9150612ab382612a4c565b604082019050919050565b60006020820190508181036000830152612ad781612a9b565b9050919050565b7f4d433a2054696d6520697320696e76616c696400000000000000000000000000600082015250565b6000612b146013836124cd565b9150612b1f82612ade565b602082019050919050565b60006020820190508181036000830152612b4381612b07565b9050919050565b7f4d433a204f6e6c792053747564656e7400000000000000000000000000000000600082015250565b6000612b806010836124cd565b9150612b8b82612b4a565b602082019050919050565b60006020820190508181036000830152612baf81612b73565b9050919050565b7f54433a20596f7520617265206e6f7420696e206c697374000000000000000000600082015250565b6000612bec6017836124cd565b9150612bf782612bb6565b602082019050919050565b60006020820190508181036000830152612c1b81612bdf565b9050919050565b7f54433a20596f7520706169642074756974696f6e000000000000000000000000600082015250565b6000612c586014836124cd565b9150612c6382612c22565b602082019050919050565b60006020820190508181036000830152612c8781612c4b565b9050919050565b600081519050612c9d81612353565b92915050565b600060208284031215612cb957612cb8611f52565b5b6000612cc784828501612c8e565b91505092915050565b60028110612ce157612ce0612238565b5b50565b6000819050612cf282612cd0565b919050565b6000612d0282612ce4565b9050919050565b612d1281612cf7565b82525050565b6000606082019050612d2d6000830186612329565b612d3a602083018561254a565b612d476040830184612d09565b949350505050565b7f4572726f72207768656e2072656d6f7665000000000000000000000000000000600082015250565b6000612d856011836124cd565b9150612d9082612d4f565b602082019050919050565b60006020820190508181036000830152612db481612d78565b9050919050565b6000612dc68261214f565b915060008203612dd957612dd86128c9565b5b600182039050919050565b7f4e487b7100000000000000000000000000000000000000000000000000000000600052602260045260246000fd5b60006002820490506001821680612e2b57607f821691505b602082108103612e3e57612e3d612de4565b5b50919050565b6000606082019050612e596000830186612329565b612e666020830185612329565b612e73604083018461254a565b949350505050565b7f5361666545524332303a204552433230206f7065726174696f6e20646964206e60008201527f6f74207375636365656400000000000000000000000000000000000000000000602082015250565b6000612ed7602a836124cd565b9150612ee282612e7b565b604082019050919050565b60006020820190508181036000830152612f0681612eca565b9050919050565b7f416464726573733a20696e73756666696369656e742062616c616e636520666f60008201527f722063616c6c0000000000000000000000000000000000000000000000000000602082015250565b6000612f696026836124cd565b9150612f7482612f0d565b604082019050919050565b60006020820190508181036000830152612f9881612f5c565b9050919050565b7f416464726573733a2063616c6c20746f206e6f6e2d636f6e7472616374000000600082015250565b6000612fd5601d836124cd565b9150612fe082612f9f565b602082019050919050565b6000602082019050818103600083015261300481612fc8565b9050919050565b600081519050919050565b600081905092915050565b600061302c8261300b565b6130368185613016565b93506130468185602086016124de565b80840191505092915050565b600061305e8284613021565b915081905092915050565b600060208201905081810360008301526130838184612511565b90509291505056fea2646970667358221220294e83e8f424154140c2f1ce27d6fdd74361c3ac7756646a0e4d978f0072e8ac64736f6c634300080e0033a26469706673582212201e418eb7343dbb0cceb0e6fe55c78f899d7048e1d5140f65d0347751cb37b4ca64736f6c634300080e0033",
  "immutableReferences": {},
  "source": "// SPDX-License-Identifier: UNLICENSED\r\npragma solidity ^0.8.0;\r\n\r\nimport \"../TuitionContract.sol\";\r\nimport \"../interfaces/ITuitionFactory.sol\";\r\n\r\ncontract TuitionFactory is ITuitionFactory {\r\n    function createNewTuition(\r\n        address owner,\r\n        address _accessControll,\r\n        address _rewardDistributor\r\n    ) public override returns (address) {\r\n        TuitionContract tuitionContract = new TuitionContract(\r\n            owner,\r\n            _accessControll,\r\n            _rewardDistributor\r\n        );\r\n        return address(tuitionContract);\r\n    }\r\n}\r\n",
  "sourcePath": "E:\\KLTN\\KLTN\\KLTN-contracts\\contracts\\studentmanager\\factories\\TuitionFactory.sol",
  "compiler": {
    "name": "solc",
    "version": "0.8.14+commit.80d49f37.Emscripten.clang"
  },
  "schemaVersion": "3.4.3",
  "updatedAt": "2022-05-21T08:21:38.005Z",
  "networkType": "ethereum",
  "devdoc": {
    "kind": "dev",
    "methods": {},
    "version": 1
  },
  "userdoc": {
    "kind": "user",
    "methods": {},
    "version": 1
  }
}