{
  "contractName": "TuitionContract",
  "abi": [
    {
      "inputs": [
        {
          "internalType": "address",
          "name": "_owner",
          "type": "address"
        },
        {
          "internalType": "address",
          "name": "_accessControll",
          "type": "address"
        },
        {
          "internalType": "address",
          "name": "_rewardDistributor",
          "type": "address"
        }
      ],
      "stateMutability": "nonpayable",
      "type": "constructor"
    },
    {
      "anonymous": false,
      "inputs": [
        {
          "indexed": false,
          "internalType": "uint256",
          "name": "timestamp",
          "type": "uint256"
        }
      ],
      "name": "Close",
      "type": "event"
    },
    {
      "anonymous": false,
      "inputs": [
        {
          "indexed": true,
          "internalType": "uint256",
          "name": "id",
          "type": "uint256"
        }
      ],
      "name": "CreatedNewTuition",
      "type": "event"
    },
    {
      "anonymous": false,
      "inputs": [
        {
          "indexed": false,
          "internalType": "address",
          "name": "student",
          "type": "address"
        },
        {
          "indexed": false,
          "internalType": "uint256",
          "name": "timestamp",
          "type": "uint256"
        },
        {
          "indexed": false,
          "internalType": "enum ITuitionContract.PaymentMethod",
          "name": "_method",
          "type": "uint8"
        }
      ],
      "name": "Payment",
      "type": "event"
    },
    {
      "inputs": [],
      "name": "accessControll",
      "outputs": [
        {
          "internalType": "contract IAccessControl",
          "name": "",
          "type": "address"
        }
      ],
      "stateMutability": "view",
      "type": "function"
    },
    {
      "inputs": [],
      "name": "amount",
      "outputs": [
        {
          "internalType": "uint256",
          "name": "",
          "type": "uint256"
        }
      ],
      "stateMutability": "view",
      "type": "function"
    },
    {
      "inputs": [
        {
          "internalType": "address",
          "name": "",
          "type": "address"
        }
      ],
      "name": "completedAddress",
      "outputs": [
        {
          "internalType": "bool",
          "name": "",
          "type": "bool"
        }
      ],
      "stateMutability": "view",
      "type": "function"
    },
    {
      "inputs": [],
      "name": "owner",
      "outputs": [
        {
          "internalType": "address",
          "name": "",
          "type": "address"
        }
      ],
      "stateMutability": "view",
      "type": "function"
    },
    {
      "inputs": [
        {
          "internalType": "address",
          "name": "",
          "type": "address"
        }
      ],
      "name": "participantToIndex",
      "outputs": [
        {
          "internalType": "uint256",
          "name": "",
          "type": "uint256"
        }
      ],
      "stateMutability": "view",
      "type": "function"
    },
    {
      "inputs": [
        {
          "internalType": "address",
          "name": "",
          "type": "address"
        }
      ],
      "name": "participantToTrue",
      "outputs": [
        {
          "internalType": "bool",
          "name": "",
          "type": "bool"
        }
      ],
      "stateMutability": "view",
      "type": "function"
    },
    {
      "inputs": [
        {
          "internalType": "uint256",
          "name": "",
          "type": "uint256"
        }
      ],
      "name": "participants",
      "outputs": [
        {
          "internalType": "address",
          "name": "",
          "type": "address"
        }
      ],
      "stateMutability": "view",
      "type": "function"
    },
    {
      "inputs": [],
      "name": "rewardDistributor",
      "outputs": [
        {
          "internalType": "address",
          "name": "",
          "type": "address"
        }
      ],
      "stateMutability": "view",
      "type": "function"
    },
    {
      "inputs": [],
      "name": "status",
      "outputs": [
        {
          "internalType": "enum ITuitionContract.Status",
          "name": "",
          "type": "uint8"
        }
      ],
      "stateMutability": "view",
      "type": "function"
    },
    {
      "inputs": [],
      "name": "tuition",
      "outputs": [
        {
          "internalType": "uint256",
          "name": "Id",
          "type": "uint256"
        },
        {
          "internalType": "string",
          "name": "urlMetadata",
          "type": "string"
        },
        {
          "internalType": "uint256",
          "name": "feeByToken",
          "type": "uint256"
        },
        {
          "internalType": "uint256",
          "name": "startTime",
          "type": "uint256"
        },
        {
          "internalType": "uint256",
          "name": "endTime",
          "type": "uint256"
        }
      ],
      "stateMutability": "view",
      "type": "function"
    },
    {
      "inputs": [
        {
          "internalType": "uint256",
          "name": "_tuitionId",
          "type": "uint256"
        },
        {
          "internalType": "string",
          "name": "_urlMetadata",
          "type": "string"
        },
        {
          "internalType": "uint256",
          "name": "_feeByToken",
          "type": "uint256"
        },
        {
          "internalType": "uint256",
          "name": "_startTime",
          "type": "uint256"
        },
        {
          "internalType": "uint256",
          "name": "_endTime",
          "type": "uint256"
        }
      ],
      "name": "setBasicForTuition",
      "outputs": [],
      "stateMutability": "nonpayable",
      "type": "function"
    },
    {
      "inputs": [],
      "name": "start",
      "outputs": [],
      "stateMutability": "nonpayable",
      "type": "function"
    },
    {
      "inputs": [
        {
          "internalType": "address[]",
          "name": "_students",
          "type": "address[]"
        }
      ],
      "name": "addStudentToTuition",
      "outputs": [],
      "stateMutability": "nonpayable",
      "type": "function"
    },
    {
      "inputs": [
        {
          "internalType": "address",
          "name": "_student",
          "type": "address"
        }
      ],
      "name": "removeStudentFromTuition",
      "outputs": [],
      "stateMutability": "nonpayable",
      "type": "function"
    },
    {
      "inputs": [],
      "name": "paymentByToken",
      "outputs": [],
      "stateMutability": "nonpayable",
      "type": "function"
    },
    {
      "inputs": [],
      "name": "paymentByCurrency",
      "outputs": [],
      "stateMutability": "nonpayable",
      "type": "function"
    },
    {
      "inputs": [],
      "name": "close",
      "outputs": [],
      "stateMutability": "nonpayable",
      "type": "function"
    },
    {
      "inputs": [],
      "name": "getParticipantList",
      "outputs": [
        {
          "internalType": "address[]",
          "name": "",
          "type": "address[]"
        }
      ],
      "stateMutability": "view",
      "type": "function"
    },
    {
      "inputs": [],
      "name": "getParticipantListCompleted",
      "outputs": [
        {
          "internalType": "address[]",
          "name": "",
          "type": "address[]"
        }
      ],
      "stateMutability": "view",
      "type": "function"
    }
  ],
  "bytecode": "0x60a06040526000600560006101000a81548160ff021916908360028111156200002d576200002c62000124565b5b02179055503480156200003f57600080fd5b506040516200324d3803806200324d8339818101604052810190620000659190620001bd565b8273ffffffffffffffffffffffffffffffffffffffff1660808173ffffffffffffffffffffffffffffffffffffffff168152505081600560016101000a81548173ffffffffffffffffffffffffffffffffffffffff021916908373ffffffffffffffffffffffffffffffffffffffff16021790555080600660006101000a81548173ffffffffffffffffffffffffffffffffffffffff021916908373ffffffffffffffffffffffffffffffffffffffff16021790555050505062000219565b7f4e487b7100000000000000000000000000000000000000000000000000000000600052602160045260246000fd5b600080fd5b600073ffffffffffffffffffffffffffffffffffffffff82169050919050565b6000620001858262000158565b9050919050565b620001978162000178565b8114620001a357600080fd5b50565b600081519050620001b7816200018c565b92915050565b600080600060608486031215620001d957620001d862000153565b5b6000620001e986828701620001a6565b9350506020620001fc86828701620001a6565b92505060406200020f86828701620001a6565b9150509250925092565b6080516130036200024a6000396000818161086601528181610ac3015281816111de015261179901526130036000f3fe608060405234801561001057600080fd5b50600436106101215760003560e01c8063a32fb342116100ad578063acc2166a11610071578063acc2166a146102b0578063b1319f41146102ce578063be9a6555146102fe578063d95fe6a014610308578063ed214fff1461033857610121565b8063a32fb34214610204578063a7f44e0d14610234578063a8a86c1014610252578063aa4936ce14610274578063aa8c217c1461029257610121565b806343d726d6116100f457806343d726d6146101ac578063633d8390146101b6578063727cb110146101c05780638da5cb5b146101dc5780639846a1a0146101fa57610121565b806304227ab81461012657806308003d6b14610142578063200d2ed21461015e57806335c1d3491461017c575b600080fd5b610140600480360381019061013b9190611f26565b610356565b005b61015c600480360381019061015791906120ea565b610864565b005b610166610a6f565b60405161017391906121f8565b60405180910390f35b61019660048036038101906101919190612213565b610a82565b6040516101a39190612281565b60405180910390f35b6101b4610ac1565b005b6101be610bc4565b005b6101da60048036038101906101d591906122c8565b610f5a565b005b6101e46111dc565b6040516101f19190612281565b60405180910390f35b610202611200565b005b61021e600480360381019061021991906122c8565b6114ac565b60405161022b9190612310565b60405180910390f35b61023c6114cc565b60405161024991906123e9565b60405180910390f35b61025a611679565b60405161026b9594939291906124a2565b60405180910390f35b61027c611725565b604051610289919061255b565b60405180910390f35b61029a61174b565b6040516102a79190612576565b60405180910390f35b6102b8611751565b6040516102c59190612281565b60405180910390f35b6102e860048036038101906102e391906122c8565b611777565b6040516102f59190612310565b60405180910390f35b610306611797565b005b610322600480360381019061031d91906122c8565b6118c8565b60405161032f9190612576565b60405180910390f35b6103406118e0565b60405161034d91906123e9565b60405180910390f35b600560019054906101000a900473ffffffffffffffffffffffffffffffffffffffff1673ffffffffffffffffffffffffffffffffffffffff166391d148547fdf8b4c520ffe197c5343c6f5aec59570151ef9a492f2c624fd45ddde6135ec42336040518363ffffffff1660e01b81526004016103d39291906125aa565b602060405180830381865afa1580156103f0573d6000803e3d6000fd5b505050506040513d601f19601f8201168201806040525081019061041491906125ff565b610453576040517f08c379a000000000000000000000000000000000000000000000000000000000815260040161044a90612678565b60405180910390fd5b6001600281111561046757610466612181565b5b600560009054906101000a900460ff16600281111561048957610488612181565b5b146104c9576040517f08c379a00000000000000000000000000000000000000000000000000000000081526004016104c0906126e4565b60405180910390fd5b60005b8282905081101561085f57600560019054906101000a900473ffffffffffffffffffffffffffffffffffffffff1673ffffffffffffffffffffffffffffffffffffffff166391d148547fc951d7098b66ba0b8b77265b6e9cf0e187d73125a42bcd0061b09a68be42181085858581811061054957610548612704565b5b905060200201602081019061055e91906122c8565b6040518363ffffffff1660e01b815260040161057b9291906125aa565b602060405180830381865afa158015610598573d6000803e3d6000fd5b505050506040513d601f19601f820116820180604052508101906105bc91906125ff565b6105fb576040517f08c379a00000000000000000000000000000000000000000000000000000000081526004016105f29061277f565b60405180910390fd5b600a600084848481811061061257610611612704565b5b905060200201602081019061062791906122c8565b73ffffffffffffffffffffffffffffffffffffffff1673ffffffffffffffffffffffffffffffffffffffff16815260200190815260200160002060009054906101000a900460ff16156106af576040517f08c379a00000000000000000000000000000000000000000000000000000000081526004016106a6906127eb565b60405180910390fd5b60078383838181106106c4576106c3612704565b5b90506020020160208101906106d991906122c8565b9080600181540180825580915050600190039060005260206000200160009091909190916101000a81548173ffffffffffffffffffffffffffffffffffffffff021916908373ffffffffffffffffffffffffffffffffffffffff160217905550600160078054905061074b919061283a565b6009600085858581811061076257610761612704565b5b905060200201602081019061077791906122c8565b73ffffffffffffffffffffffffffffffffffffffff1673ffffffffffffffffffffffffffffffffffffffff168152602001908152602001600020819055506001600a60008585858181106107ce576107cd612704565b5b90506020020160208101906107e391906122c8565b73ffffffffffffffffffffffffffffffffffffffff1673ffffffffffffffffffffffffffffffffffffffff16815260200190815260200160002060006101000a81548160ff021916908315150217905550600860008154809291906108479061286e565b919050555080806108579061286e565b9150506104cc565b505050565b7f000000000000000000000000000000000000000000000000000000000000000073ffffffffffffffffffffffffffffffffffffffff163373ffffffffffffffffffffffffffffffffffffffff16146108f2576040517f08c379a00000000000000000000000000000000000000000000000000000000081526004016108e990612902565b60405180910390fd5b6000600281111561090657610905612181565b5b600560009054906101000a900460ff16600281111561092857610927612181565b5b14610968576040517f08c379a000000000000000000000000000000000000000000000000000000000815260040161095f9061296e565b60405180910390fd5b600083116109ab576040517f08c379a00000000000000000000000000000000000000000000000000000000081526004016109a290612a00565b60405180910390fd5b81421080156109b957508082105b6109f8576040517f08c379a00000000000000000000000000000000000000000000000000000000081526004016109ef90612a6c565b60405180910390fd5b6040518060a001604052808681526020018581526020018481526020018381526020018281525060008082015181600001556020820151816001019080519060200190610a46929190611e0a565b506040820151816002015560608201518160030155608082015181600401559050505050505050565b600560009054906101000a900460ff1681565b60078181548110610a9257600080fd5b906000526020600020016000915054906101000a900473ffffffffffffffffffffffffffffffffffffffff1681565b7f000000000000000000000000000000000000000000000000000000000000000073ffffffffffffffffffffffffffffffffffffffff163373ffffffffffffffffffffffffffffffffffffffff1614610b4f576040517f08c379a0000000000000000000000000000000000000000000000000000000008152600401610b4690612902565b60405180910390fd5b6002600560006101000a81548160ff02191690836002811115610b7557610b74612181565b5b02179055506000600401544211610b8b57600080fd5b7fbf67515a38ee520223d32c1266d52101c30d936ed1f3e436c8caeb0a43cb06bf42604051610bba9190612576565b60405180910390a1565b600560019054906101000a900473ffffffffffffffffffffffffffffffffffffffff1673ffffffffffffffffffffffffffffffffffffffff166391d148547fc951d7098b66ba0b8b77265b6e9cf0e187d73125a42bcd0061b09a68be421810336040518363ffffffff1660e01b8152600401610c419291906125aa565b602060405180830381865afa158015610c5e573d6000803e3d6000fd5b505050506040513d601f19601f82011682018060405250810190610c8291906125ff565b610cc1576040517f08c379a0000000000000000000000000000000000000000000000000000000008152600401610cb890612ad8565b60405180910390fd5b600a60003373ffffffffffffffffffffffffffffffffffffffff1673ffffffffffffffffffffffffffffffffffffffff16815260200190815260200160002060009054906101000a900460ff16610d4d576040517f08c379a0000000000000000000000000000000000000000000000000000000008152600401610d4490612b44565b60405180910390fd5b600b60003373ffffffffffffffffffffffffffffffffffffffff1673ffffffffffffffffffffffffffffffffffffffff16815260200190815260200160002060009054906101000a900460ff1615610dda576040517f08c379a0000000000000000000000000000000000000000000000000000000008152600401610dd190612bb0565b60405180910390fd5b6000600660009054906101000a900473ffffffffffffffffffffffffffffffffffffffff1673ffffffffffffffffffffffffffffffffffffffff1663c59671c16040518163ffffffff1660e01b8152600401602060405180830381865afa158015610e49573d6000803e3d6000fd5b505050506040513d601f19601f82011682018060405250810190610e6d9190612be5565b9050610ec333600660009054906101000a900473ffffffffffffffffffffffffffffffffffffffff166000600201548473ffffffffffffffffffffffffffffffffffffffff16611b04909392919063ffffffff16565b6001600b60003373ffffffffffffffffffffffffffffffffffffffff1673ffffffffffffffffffffffffffffffffffffffff16815260200190815260200160002060006101000a81548160ff0219169083151502179055507f34f914f46f0a40eb0e7b1396063b87a1819f28ed7b5a63829d59f41eba61a1ae33426000604051610f4f93929190612c5a565b60405180910390a150565b600560019054906101000a900473ffffffffffffffffffffffffffffffffffffffff1673ffffffffffffffffffffffffffffffffffffffff166391d148547fdf8b4c520ffe197c5343c6f5aec59570151ef9a492f2c624fd45ddde6135ec42336040518363ffffffff1660e01b8152600401610fd79291906125aa565b602060405180830381865afa158015610ff4573d6000803e3d6000fd5b505050506040513d601f19601f8201168201806040525081019061101891906125ff565b611057576040517f08c379a000000000000000000000000000000000000000000000000000000000815260040161104e90612678565b60405180910390fd5b600a60008273ffffffffffffffffffffffffffffffffffffffff1673ffffffffffffffffffffffffffffffffffffffff16815260200190815260200160002060009054906101000a900460ff166110e3576040517f08c379a00000000000000000000000000000000000000000000000000000000081526004016110da90612cdd565b60405180910390fd5b6000600960008373ffffffffffffffffffffffffffffffffffffffff1673ffffffffffffffffffffffffffffffffffffffff1681526020019081526020016000205490506008600081548092919061113a90612cfd565b91905055506000600a60008473ffffffffffffffffffffffffffffffffffffffff1673ffffffffffffffffffffffffffffffffffffffff16815260200190815260200160002060006101000a81548160ff021916908315150217905550600781815481106111ab576111aa612704565b5b9060005260206000200160006101000a81549073ffffffffffffffffffffffffffffffffffffffff02191690555050565b7f000000000000000000000000000000000000000000000000000000000000000081565b600560019054906101000a900473ffffffffffffffffffffffffffffffffffffffff1673ffffffffffffffffffffffffffffffffffffffff166391d148547fdf8b4c520ffe197c5343c6f5aec59570151ef9a492f2c624fd45ddde6135ec42336040518363ffffffff1660e01b815260040161127d9291906125aa565b602060405180830381865afa15801561129a573d6000803e3d6000fd5b505050506040513d601f19601f820116820180604052508101906112be91906125ff565b6112fd576040517f08c379a00000000000000000000000000000000000000000000000000000000081526004016112f490612678565b60405180910390fd5b600a60003373ffffffffffffffffffffffffffffffffffffffff1673ffffffffffffffffffffffffffffffffffffffff16815260200190815260200160002060009054906101000a900460ff16611389576040517f08c379a000000000000000000000000000000000000000000000000000000000815260040161138090612b44565b60405180910390fd5b600b60003373ffffffffffffffffffffffffffffffffffffffff1673ffffffffffffffffffffffffffffffffffffffff16815260200190815260200160002060009054906101000a900460ff1615611416576040517f08c379a000000000000000000000000000000000000000000000000000000000815260040161140d90612bb0565b60405180910390fd5b6001600b60003373ffffffffffffffffffffffffffffffffffffffff1673ffffffffffffffffffffffffffffffffffffffff16815260200190815260200160002060006101000a81548160ff0219169083151502179055507f34f914f46f0a40eb0e7b1396063b87a1819f28ed7b5a63829d59f41eba61a1ae334260016040516114a293929190612c5a565b60405180910390a1565b600b6020528060005260406000206000915054906101000a900460ff1681565b6060600060085467ffffffffffffffff8111156114ec576114eb611fbf565b5b60405190808252806020026020018201604052801561151a5781602001602082028036833780820191505090505b509050600080600090505b60078054905081101561167057600b60006007838154811061154a57611549612704565b5b9060005260206000200160009054906101000a900473ffffffffffffffffffffffffffffffffffffffff1673ffffffffffffffffffffffffffffffffffffffff1673ffffffffffffffffffffffffffffffffffffffff16815260200190815260200160002060009054906101000a900460ff161561165d57600781815481106115d6576115d5612704565b5b9060005260206000200160009054906101000a900473ffffffffffffffffffffffffffffffffffffffff1683838151811061161457611613612704565b5b602002602001019073ffffffffffffffffffffffffffffffffffffffff16908173ffffffffffffffffffffffffffffffffffffffff168152505081806116599061286e565b9250505b80806116689061286e565b915050611525565b50819250505090565b600080600001549080600101805461169090612d55565b80601f01602080910402602001604051908101604052809291908181526020018280546116bc90612d55565b80156117095780601f106116de57610100808354040283529160200191611709565b820191906000526020600020905b8154815290600101906020018083116116ec57829003601f168201915b5050505050908060020154908060030154908060040154905085565b600560019054906101000a900473ffffffffffffffffffffffffffffffffffffffff1681565b60085481565b600660009054906101000a900473ffffffffffffffffffffffffffffffffffffffff1681565b600a6020528060005260406000206000915054906101000a900460ff1681565b7f000000000000000000000000000000000000000000000000000000000000000073ffffffffffffffffffffffffffffffffffffffff163373ffffffffffffffffffffffffffffffffffffffff1614611825576040517f08c379a000000000000000000000000000000000000000000000000000000000815260040161181c90612902565b60405180910390fd5b6000600281111561183957611838612181565b5b600560009054906101000a900460ff16600281111561185b5761185a612181565b5b1461189b576040517f08c379a00000000000000000000000000000000000000000000000000000000081526004016118929061296e565b60405180910390fd5b6001600560006101000a81548160ff021916908360028111156118c1576118c0612181565b5b0217905550565b60096020528060005260406000206000915090505481565b6060600060085467ffffffffffffffff811115611900576118ff611fbf565b5b60405190808252806020026020018201604052801561192e5781602001602082028036833780820191505090505b509050600080600090505b600780549050811015611afb57600a60006007838154811061195e5761195d612704565b5b9060005260206000200160009054906101000a900473ffffffffffffffffffffffffffffffffffffffff1673ffffffffffffffffffffffffffffffffffffffff1673ffffffffffffffffffffffffffffffffffffffff16815260200190815260200160002060009054906101000a900460ff168015611a485750600073ffffffffffffffffffffffffffffffffffffffff1660078281548110611a0457611a03612704565b5b9060005260206000200160009054906101000a900473ffffffffffffffffffffffffffffffffffffffff1673ffffffffffffffffffffffffffffffffffffffff1614155b15611ae85760078181548110611a6157611a60612704565b5b9060005260206000200160009054906101000a900473ffffffffffffffffffffffffffffffffffffffff16838381518110611a9f57611a9e612704565b5b602002602001019073ffffffffffffffffffffffffffffffffffffffff16908173ffffffffffffffffffffffffffffffffffffffff16815250508180611ae49061286e565b9250505b8080611af39061286e565b915050611939565b50819250505090565b611b87846323b872dd60e01b858585604051602401611b2593929190612d86565b604051602081830303815290604052907bffffffffffffffffffffffffffffffffffffffffffffffffffffffff19166020820180517bffffffffffffffffffffffffffffffffffffffffffffffffffffffff8381831617835250505050611b8d565b50505050565b6000611bef826040518060400160405280602081526020017f5361666545524332303a206c6f772d6c6576656c2063616c6c206661696c65648152508573ffffffffffffffffffffffffffffffffffffffff16611c549092919063ffffffff16565b9050600081511115611c4f5780806020019051810190611c0f91906125ff565b611c4e576040517f08c379a0000000000000000000000000000000000000000000000000000000008152600401611c4590612e2f565b60405180910390fd5b5b505050565b6060611c638484600085611c6c565b90509392505050565b606082471015611cb1576040517f08c379a0000000000000000000000000000000000000000000000000000000008152600401611ca890612ec1565b60405180910390fd5b611cba85611d80565b611cf9576040517f08c379a0000000000000000000000000000000000000000000000000000000008152600401611cf090612f2d565b60405180910390fd5b6000808673ffffffffffffffffffffffffffffffffffffffff168587604051611d229190612f94565b60006040518083038185875af1925050503d8060008114611d5f576040519150601f19603f3d011682016040523d82523d6000602084013e611d64565b606091505b5091509150611d74828286611da3565b92505050949350505050565b6000808273ffffffffffffffffffffffffffffffffffffffff163b119050919050565b60608315611db357829050611e03565b600083511115611dc65782518084602001fd5b816040517f08c379a0000000000000000000000000000000000000000000000000000000008152600401611dfa9190612fab565b60405180910390fd5b9392505050565b828054611e1690612d55565b90600052602060002090601f016020900481019282611e385760008555611e7f565b82601f10611e5157805160ff1916838001178555611e7f565b82800160010185558215611e7f579182015b82811115611e7e578251825591602001919060010190611e63565b5b509050611e8c9190611e90565b5090565b5b80821115611ea9576000816000905550600101611e91565b5090565b6000604051905090565b600080fd5b600080fd5b600080fd5b600080fd5b600080fd5b60008083601f840112611ee657611ee5611ec1565b5b8235905067ffffffffffffffff811115611f0357611f02611ec6565b5b602083019150836020820283011115611f1f57611f1e611ecb565b5b9250929050565b60008060208385031215611f3d57611f3c611eb7565b5b600083013567ffffffffffffffff811115611f5b57611f5a611ebc565b5b611f6785828601611ed0565b92509250509250929050565b6000819050919050565b611f8681611f73565b8114611f9157600080fd5b50565b600081359050611fa381611f7d565b92915050565b600080fd5b6000601f19601f8301169050919050565b7f4e487b7100000000000000000000000000000000000000000000000000000000600052604160045260246000fd5b611ff782611fae565b810181811067ffffffffffffffff8211171561201657612015611fbf565b5b80604052505050565b6000612029611ead565b90506120358282611fee565b919050565b600067ffffffffffffffff82111561205557612054611fbf565b5b61205e82611fae565b9050602081019050919050565b82818337600083830152505050565b600061208d6120888461203a565b61201f565b9050828152602081018484840111156120a9576120a8611fa9565b5b6120b484828561206b565b509392505050565b600082601f8301126120d1576120d0611ec1565b5b81356120e184826020860161207a565b91505092915050565b600080600080600060a0868803121561210657612105611eb7565b5b600061211488828901611f94565b955050602086013567ffffffffffffffff81111561213557612134611ebc565b5b612141888289016120bc565b945050604061215288828901611f94565b935050606061216388828901611f94565b925050608061217488828901611f94565b9150509295509295909350565b7f4e487b7100000000000000000000000000000000000000000000000000000000600052602160045260246000fd5b600381106121c1576121c0612181565b5b50565b60008190506121d2826121b0565b919050565b60006121e2826121c4565b9050919050565b6121f2816121d7565b82525050565b600060208201905061220d60008301846121e9565b92915050565b60006020828403121561222957612228611eb7565b5b600061223784828501611f94565b91505092915050565b600073ffffffffffffffffffffffffffffffffffffffff82169050919050565b600061226b82612240565b9050919050565b61227b81612260565b82525050565b60006020820190506122966000830184612272565b92915050565b6122a581612260565b81146122b057600080fd5b50565b6000813590506122c28161229c565b92915050565b6000602082840312156122de576122dd611eb7565b5b60006122ec848285016122b3565b91505092915050565b60008115159050919050565b61230a816122f5565b82525050565b60006020820190506123256000830184612301565b92915050565b600081519050919050565b600082825260208201905092915050565b6000819050602082019050919050565b61236081612260565b82525050565b60006123728383612357565b60208301905092915050565b6000602082019050919050565b60006123968261232b565b6123a08185612336565b93506123ab83612347565b8060005b838110156123dc5781516123c38882612366565b97506123ce8361237e565b9250506001810190506123af565b5085935050505092915050565b60006020820190508181036000830152612403818461238b565b905092915050565b61241481611f73565b82525050565b600081519050919050565b600082825260208201905092915050565b60005b83811015612454578082015181840152602081019050612439565b83811115612463576000848401525b50505050565b60006124748261241a565b61247e8185612425565b935061248e818560208601612436565b61249781611fae565b840191505092915050565b600060a0820190506124b7600083018861240b565b81810360208301526124c98187612469565b90506124d8604083018661240b565b6124e5606083018561240b565b6124f2608083018461240b565b9695505050505050565b6000819050919050565b600061252161251c61251784612240565b6124fc565b612240565b9050919050565b600061253382612506565b9050919050565b600061254582612528565b9050919050565b6125558161253a565b82525050565b6000602082019050612570600083018461254c565b92915050565b600060208201905061258b600083018461240b565b92915050565b6000819050919050565b6125a481612591565b82525050565b60006040820190506125bf600083018561259b565b6125cc6020830184612272565b9392505050565b6125dc816122f5565b81146125e757600080fd5b50565b6000815190506125f9816125d3565b92915050565b60006020828403121561261557612614611eb7565b5b6000612623848285016125ea565b91505092915050565b7f4d433a204f6e6c79204c65637475726572000000000000000000000000000000600082015250565b6000612662601183612425565b915061266d8261262c565b602082019050919050565b6000602082019050818103600083015261269181612655565b9050919050565b7f4d433a204f6e6c79204f70656e00000000000000000000000000000000000000600082015250565b60006126ce600d83612425565b91506126d982612698565b602082019050919050565b600060208201905081810360008301526126fd816126c1565b9050919050565b7f4e487b7100000000000000000000000000000000000000000000000000000000600052603260045260246000fd5b7f53686f756c64206f6e6c79206164642073747564656e74000000000000000000600082015250565b6000612769601783612425565b915061277482612733565b602082019050919050565b600060208201905081810360008301526127988161275c565b9050919050565b7f4164646564000000000000000000000000000000000000000000000000000000600082015250565b60006127d5600583612425565b91506127e08261279f565b602082019050919050565b60006020820190508181036000830152612804816127c8565b9050919050565b7f4e487b7100000000000000000000000000000000000000000000000000000000600052601160045260246000fd5b600061284582611f73565b915061285083611f73565b9250828210156128635761286261280b565b5b828203905092915050565b600061287982611f73565b91507fffffffffffffffffffffffffffffffffffffffffffffffffffffffffffffffff82036128ab576128aa61280b565b5b600182019050919050565b7f4f6e6c79204f776e657200000000000000000000000000000000000000000000600082015250565b60006128ec600a83612425565b91506128f7826128b6565b602082019050919050565b6000602082019050818103600083015261291b816128df565b9050919050565b7f4d433a204f6e6c79204c6f636b00000000000000000000000000000000000000600082015250565b6000612958600d83612425565b915061296382612922565b602082019050919050565b600060208201905081810360008301526129878161294b565b9050919050565b7f4d433a2041776172642073686f756c642067726561746572207468616e205a6560008201527f726f000000000000000000000000000000000000000000000000000000000000602082015250565b60006129ea602283612425565b91506129f58261298e565b604082019050919050565b60006020820190508181036000830152612a19816129dd565b9050919050565b7f4d433a2054696d6520697320696e76616c696400000000000000000000000000600082015250565b6000612a56601383612425565b9150612a6182612a20565b602082019050919050565b60006020820190508181036000830152612a8581612a49565b9050919050565b7f4d433a204f6e6c792053747564656e7400000000000000000000000000000000600082015250565b6000612ac2601083612425565b9150612acd82612a8c565b602082019050919050565b60006020820190508181036000830152612af181612ab5565b9050919050565b7f54433a20596f7520617265206e6f7420696e206c697374000000000000000000600082015250565b6000612b2e601783612425565b9150612b3982612af8565b602082019050919050565b60006020820190508181036000830152612b5d81612b21565b9050919050565b7f54433a20596f7520706169642074756974696f6e000000000000000000000000600082015250565b6000612b9a601483612425565b9150612ba582612b64565b602082019050919050565b60006020820190508181036000830152612bc981612b8d565b9050919050565b600081519050612bdf8161229c565b92915050565b600060208284031215612bfb57612bfa611eb7565b5b6000612c0984828501612bd0565b91505092915050565b60028110612c2357612c22612181565b5b50565b6000819050612c3482612c12565b919050565b6000612c4482612c26565b9050919050565b612c5481612c39565b82525050565b6000606082019050612c6f6000830186612272565b612c7c602083018561240b565b612c896040830184612c4b565b949350505050565b7f4572726f72207768656e2072656d6f7665000000000000000000000000000000600082015250565b6000612cc7601183612425565b9150612cd282612c91565b602082019050919050565b60006020820190508181036000830152612cf681612cba565b9050919050565b6000612d0882611f73565b915060008203612d1b57612d1a61280b565b5b600182039050919050565b7f4e487b7100000000000000000000000000000000000000000000000000000000600052602260045260246000fd5b60006002820490506001821680612d6d57607f821691505b602082108103612d8057612d7f612d26565b5b50919050565b6000606082019050612d9b6000830186612272565b612da86020830185612272565b612db5604083018461240b565b949350505050565b7f5361666545524332303a204552433230206f7065726174696f6e20646964206e60008201527f6f74207375636365656400000000000000000000000000000000000000000000602082015250565b6000612e19602a83612425565b9150612e2482612dbd565b604082019050919050565b60006020820190508181036000830152612e4881612e0c565b9050919050565b7f416464726573733a20696e73756666696369656e742062616c616e636520666f60008201527f722063616c6c0000000000000000000000000000000000000000000000000000602082015250565b6000612eab602683612425565b9150612eb682612e4f565b604082019050919050565b60006020820190508181036000830152612eda81612e9e565b9050919050565b7f416464726573733a2063616c6c20746f206e6f6e2d636f6e7472616374000000600082015250565b6000612f17601d83612425565b9150612f2282612ee1565b602082019050919050565b60006020820190508181036000830152612f4681612f0a565b9050919050565b600081519050919050565b600081905092915050565b6000612f6e82612f4d565b612f788185612f58565b9350612f88818560208601612436565b80840191505092915050565b6000612fa08284612f63565b915081905092915050565b60006020820190508181036000830152612fc58184612469565b90509291505056fea26469706673582212200c4982ae7d04ccbc9c859bd5a231bdc66eaf3775597d018ea76b0efc2cdcf5e964736f6c634300080d0033",
  "immutableReferences": {
    "8333": [
      {
        "length": 32,
        "start": 2150
      },
      {
        "length": 32,
        "start": 2755
      },
      {
        "length": 32,
        "start": 4574
      },
      {
        "length": 32,
        "start": 6041
      }
    ]
  },
  "source": "//SPDX-License-Identifier: UNLICENSED\r\npragma solidity >=0.8.0;\r\n\r\nimport \"./interfaces/ITuitionContract.sol\";\r\nimport \"./interfaces/IAccessControl.sol\";\r\nimport \"./interfaces/IRewardDistributor.sol\";\r\n\r\ncontract TuitionContract is ITuitionContract {\r\n    using SafeERC20 for IERC20;\r\n\r\n    address public immutable owner;\r\n    Tuition public tuition;\r\n    Status public status = Status.Lock;\r\n\r\n    IAccessControl public accessControll;\r\n    address public rewardDistributor;\r\n\r\n    address[] public participants;\r\n    uint256 public amount;\r\n    mapping(address => uint256) public participantToIndex;\r\n    mapping(address => bool) public participantToTrue;\r\n    mapping(address => bool) public completedAddress;\r\n\r\n    modifier onlyLock() {\r\n        require(status == Status.Lock, \"MC: Only Lock\");\r\n        _;\r\n    }\r\n\r\n    modifier onlyOpen() {\r\n        require(status == Status.Open, \"MC: Only Open\");\r\n        _;\r\n    }\r\n\r\n    modifier onlyOwner() {\r\n        require(msg.sender == owner, \"Only Owner\");\r\n        _;\r\n    }\r\n\r\n    modifier onlyRoleAdmin() {\r\n        require(\r\n            accessControll.hasRole(keccak256(\"ADMIN\"), msg.sender),\r\n            \"MC: Only Lecturer\"\r\n        );\r\n        _;\r\n    }\r\n\r\n    modifier onlyRoleStudent() {\r\n        require(\r\n            accessControll.hasRole(keccak256(\"STUDENT\"), msg.sender),\r\n            \"MC: Only Student\"\r\n        );\r\n        _;\r\n    }\r\n\r\n    constructor(\r\n        address _owner,\r\n        address _accessControll,\r\n        address _rewardDistributor\r\n    ) {\r\n        owner = _owner;\r\n        accessControll = IAccessControl(_accessControll);\r\n        rewardDistributor = _rewardDistributor;\r\n    }\r\n\r\n    function setBasicForTuition(\r\n        uint256 _tuitionId,\r\n        string memory _urlMetadata,\r\n        uint256 _feeByToken,\r\n        uint256 _startTime,\r\n        uint256 _endTime\r\n    ) external override onlyOwner onlyLock {\r\n        require(_feeByToken > 0, \"MC: Award should greater than Zero\");\r\n        require(\r\n            block.timestamp < _startTime && _startTime < _endTime,\r\n            \"MC: Time is invalid\"\r\n        );\r\n\r\n        tuition = Tuition(\r\n            _tuitionId,\r\n            _urlMetadata,\r\n            _feeByToken,\r\n            _startTime,\r\n            _endTime\r\n        );\r\n    }\r\n\r\n    function start() external override onlyOwner onlyLock {\r\n        status = Status.Open;\r\n    }\r\n\r\n    function addStudentToTuition(address[] calldata _students)\r\n        external\r\n        override\r\n        onlyRoleAdmin\r\n        onlyOpen\r\n    {\r\n        for (uint256 i = 0; i < _students.length; i++) {\r\n            require(\r\n                accessControll.hasRole(keccak256(\"STUDENT\"), _students[i]),\r\n                \"Should only add student\"\r\n            );\r\n            require(!participantToTrue[_students[i]], \"Added\");\r\n            participants.push(_students[i]);\r\n            participantToIndex[_students[i]] = participants.length - 1;\r\n            participantToTrue[_students[i]] = true;\r\n            amount++;\r\n        }\r\n    }\r\n\r\n    function removeStudentFromTuition(address _student)\r\n        external\r\n        override\r\n        onlyRoleAdmin\r\n    {\r\n        require(participantToTrue[_student], \"Error when remove\");\r\n        uint256 index = participantToIndex[_student];\r\n        amount--;\r\n        participantToTrue[_student] = false;\r\n        delete participants[index];\r\n    }\r\n\r\n    function paymentByToken() external override onlyRoleStudent {\r\n        require(participantToTrue[msg.sender], \"TC: You are not in list\");\r\n        require(!completedAddress[msg.sender], \"TC: You paid tuition\");\r\n        address UITToken = IRewardDistributor(rewardDistributor)\r\n            .getUITTokenAddress();\r\n        IERC20(UITToken).safeTransferFrom(\r\n            msg.sender,\r\n            rewardDistributor,\r\n            tuition.feeByToken\r\n        );\r\n        completedAddress[msg.sender] = true;\r\n        emit Payment(msg.sender, block.timestamp, PaymentMethod.Token);\r\n    }\r\n\r\n    function paymentByCurrency() external override onlyRoleAdmin {\r\n        require(participantToTrue[msg.sender], \"TC: You are not in list\");\r\n        require(!completedAddress[msg.sender], \"TC: You paid tuition\");\r\n        completedAddress[msg.sender] = true;\r\n        emit Payment(msg.sender, block.timestamp, PaymentMethod.Currency);\r\n    }\r\n\r\n    function close() external override onlyOwner {\r\n        status = Status.Close;\r\n        require(block.timestamp > tuition.endTime);\r\n        emit Close(block.timestamp);\r\n    }\r\n\r\n    function getParticipantList()\r\n        public\r\n        view\r\n        override\r\n        returns (address[] memory)\r\n    {\r\n        address[] memory student = new address[](amount);\r\n        uint256 index;\r\n        for (uint256 i = 0; i < participants.length; i++) {\r\n            if (\r\n                participantToTrue[participants[i]] &&\r\n                participants[i] != address(0)\r\n            ) {\r\n                student[index] = participants[i];\r\n                index++;\r\n            }\r\n        }\r\n        return student;\r\n    }\r\n\r\n    function getParticipantListCompleted()\r\n        public\r\n        view\r\n        returns (address[] memory)\r\n    {\r\n        address[] memory student = new address[](amount);\r\n        uint256 index;\r\n        for (uint256 i = 0; i < participants.length; i++) {\r\n            if (completedAddress[participants[i]]) {\r\n                student[index] = participants[i];\r\n                index++;\r\n            }\r\n        }\r\n        return student;\r\n    }\r\n}\r\n",
  "sourcePath": "E:\\KLTN\\KLTN\\KLTN-contracts\\contracts\\studentmanager\\TuitionContract.sol",
  "compiler": {
    "name": "solc",
    "version": "0.8.13+commit.abaa5c0e.Emscripten.clang"
  },
  "schemaVersion": "3.4.3",
  "updatedAt": "2022-05-14T13:42:58.690Z",
  "devdoc": {
    "kind": "dev",
    "methods": {},
    "version": 1
  },
  "userdoc": {
    "kind": "user",
    "methods": {},
    "version": 1
  }
}