{
  "contractName": "UITNFTToken",
  "abi": [
    {
      "anonymous": false,
      "inputs": [
        {
          "indexed": true,
          "internalType": "address",
          "name": "account",
          "type": "address"
        },
        {
          "indexed": true,
          "internalType": "address",
          "name": "operator",
          "type": "address"
        },
        {
          "indexed": false,
          "internalType": "bool",
          "name": "approved",
          "type": "bool"
        }
      ],
      "name": "ApprovalForAll",
      "type": "event"
    },
    {
      "anonymous": false,
      "inputs": [
        {
          "indexed": true,
          "internalType": "uint256[]",
          "name": "_ids",
          "type": "uint256[]"
        },
        {
          "indexed": true,
          "internalType": "address",
          "name": "_account",
          "type": "address"
        },
        {
          "indexed": false,
          "internalType": "uint256[]",
          "name": "_amounts",
          "type": "uint256[]"
        }
      ],
      "name": "NFTBurnBatched",
      "type": "event"
    },
    {
      "anonymous": false,
      "inputs": [
        {
          "indexed": true,
          "internalType": "uint256",
          "name": "_id",
          "type": "uint256"
        },
        {
          "indexed": true,
          "internalType": "address",
          "name": "_account",
          "type": "address"
        },
        {
          "indexed": false,
          "internalType": "uint256",
          "name": "_amount",
          "type": "uint256"
        }
      ],
      "name": "NFTBurned",
      "type": "event"
    },
    {
      "anonymous": false,
      "inputs": [
        {
          "indexed": true,
          "internalType": "uint256",
          "name": "_id",
          "type": "uint256"
        },
        {
          "components": [
            {
              "internalType": "string",
              "name": "metadataInHash",
              "type": "string"
            },
            {
              "internalType": "bool",
              "name": "isCourseNFT",
              "type": "bool"
            }
          ],
          "indexed": false,
          "internalType": "struct ISharedStruct.NFTInfo",
          "name": "_nftInfo",
          "type": "tuple"
        }
      ],
      "name": "NFTCreated",
      "type": "event"
    },
    {
      "anonymous": false,
      "inputs": [
        {
          "indexed": true,
          "internalType": "uint256",
          "name": "_id",
          "type": "uint256"
        },
        {
          "components": [
            {
              "internalType": "string",
              "name": "metadataInHash",
              "type": "string"
            },
            {
              "internalType": "bool",
              "name": "isCourseNFT",
              "type": "bool"
            }
          ],
          "indexed": false,
          "internalType": "struct ISharedStruct.NFTInfo",
          "name": "_nftInfo",
          "type": "tuple"
        }
      ],
      "name": "NFTInfoUpdated",
      "type": "event"
    },
    {
      "anonymous": false,
      "inputs": [
        {
          "indexed": true,
          "internalType": "uint256",
          "name": "_id",
          "type": "uint256"
        },
        {
          "indexed": true,
          "internalType": "address",
          "name": "_account",
          "type": "address"
        },
        {
          "indexed": false,
          "internalType": "uint256",
          "name": "_amount",
          "type": "uint256"
        },
        {
          "components": [
            {
              "internalType": "string",
              "name": "metadataInHash",
              "type": "string"
            },
            {
              "internalType": "bool",
              "name": "isCourseNFT",
              "type": "bool"
            }
          ],
          "indexed": false,
          "internalType": "struct ISharedStruct.NFTInfo",
          "name": "_nftInfo",
          "type": "tuple"
        }
      ],
      "name": "NFTMinted",
      "type": "event"
    },
    {
      "anonymous": false,
      "inputs": [
        {
          "indexed": true,
          "internalType": "address",
          "name": "previousOwner",
          "type": "address"
        },
        {
          "indexed": true,
          "internalType": "address",
          "name": "newOwner",
          "type": "address"
        }
      ],
      "name": "OwnershipTransferred",
      "type": "event"
    },
    {
      "anonymous": false,
      "inputs": [
        {
          "indexed": true,
          "internalType": "address",
          "name": "operator",
          "type": "address"
        },
        {
          "indexed": true,
          "internalType": "address",
          "name": "from",
          "type": "address"
        },
        {
          "indexed": true,
          "internalType": "address",
          "name": "to",
          "type": "address"
        },
        {
          "indexed": false,
          "internalType": "uint256[]",
          "name": "ids",
          "type": "uint256[]"
        },
        {
          "indexed": false,
          "internalType": "uint256[]",
          "name": "values",
          "type": "uint256[]"
        }
      ],
      "name": "TransferBatch",
      "type": "event"
    },
    {
      "anonymous": false,
      "inputs": [
        {
          "indexed": true,
          "internalType": "address",
          "name": "operator",
          "type": "address"
        },
        {
          "indexed": true,
          "internalType": "address",
          "name": "from",
          "type": "address"
        },
        {
          "indexed": true,
          "internalType": "address",
          "name": "to",
          "type": "address"
        },
        {
          "indexed": false,
          "internalType": "uint256",
          "name": "id",
          "type": "uint256"
        },
        {
          "indexed": false,
          "internalType": "uint256",
          "name": "value",
          "type": "uint256"
        }
      ],
      "name": "TransferSingle",
      "type": "event"
    },
    {
      "anonymous": false,
      "inputs": [
        {
          "indexed": false,
          "internalType": "string",
          "name": "value",
          "type": "string"
        },
        {
          "indexed": true,
          "internalType": "uint256",
          "name": "id",
          "type": "uint256"
        }
      ],
      "name": "URI",
      "type": "event"
    },
    {
      "inputs": [
        {
          "internalType": "address",
          "name": "operator",
          "type": "address"
        }
      ],
      "name": "addOperator",
      "outputs": [],
      "stateMutability": "nonpayable",
      "type": "function"
    },
    {
      "inputs": [
        {
          "internalType": "address",
          "name": "account",
          "type": "address"
        },
        {
          "internalType": "uint256",
          "name": "id",
          "type": "uint256"
        }
      ],
      "name": "balanceOf",
      "outputs": [
        {
          "internalType": "uint256",
          "name": "",
          "type": "uint256"
        }
      ],
      "stateMutability": "view",
      "type": "function",
      "constant": true
    },
    {
      "inputs": [
        {
          "internalType": "address[]",
          "name": "accounts",
          "type": "address[]"
        },
        {
          "internalType": "uint256[]",
          "name": "ids",
          "type": "uint256[]"
        }
      ],
      "name": "balanceOfBatch",
      "outputs": [
        {
          "internalType": "uint256[]",
          "name": "",
          "type": "uint256[]"
        }
      ],
      "stateMutability": "view",
      "type": "function",
      "constant": true
    },
    {
      "inputs": [
        {
          "internalType": "uint256",
          "name": "id",
          "type": "uint256"
        }
      ],
      "name": "exists",
      "outputs": [
        {
          "internalType": "bool",
          "name": "",
          "type": "bool"
        }
      ],
      "stateMutability": "view",
      "type": "function",
      "constant": true
    },
    {
      "inputs": [
        {
          "internalType": "address",
          "name": "account",
          "type": "address"
        },
        {
          "internalType": "address",
          "name": "operator",
          "type": "address"
        }
      ],
      "name": "isApprovedForAll",
      "outputs": [
        {
          "internalType": "bool",
          "name": "",
          "type": "bool"
        }
      ],
      "stateMutability": "view",
      "type": "function",
      "constant": true
    },
    {
      "inputs": [],
      "name": "name",
      "outputs": [
        {
          "internalType": "string",
          "name": "",
          "type": "string"
        }
      ],
      "stateMutability": "view",
      "type": "function",
      "constant": true
    },
    {
      "inputs": [
        {
          "internalType": "uint256",
          "name": "",
          "type": "uint256"
        }
      ],
      "name": "nonce",
      "outputs": [
        {
          "internalType": "bool",
          "name": "",
          "type": "bool"
        }
      ],
      "stateMutability": "view",
      "type": "function",
      "constant": true
    },
    {
      "inputs": [
        {
          "internalType": "address",
          "name": "",
          "type": "address"
        }
      ],
      "name": "operators",
      "outputs": [
        {
          "internalType": "bool",
          "name": "",
          "type": "bool"
        }
      ],
      "stateMutability": "view",
      "type": "function",
      "constant": true
    },
    {
      "inputs": [],
      "name": "owner",
      "outputs": [
        {
          "internalType": "address",
          "name": "",
          "type": "address"
        }
      ],
      "stateMutability": "view",
      "type": "function",
      "constant": true
    },
    {
      "inputs": [
        {
          "internalType": "address",
          "name": "operator",
          "type": "address"
        }
      ],
      "name": "removeOperator",
      "outputs": [],
      "stateMutability": "nonpayable",
      "type": "function"
    },
    {
      "inputs": [],
      "name": "renounceOwnership",
      "outputs": [],
      "stateMutability": "nonpayable",
      "type": "function"
    },
    {
      "inputs": [
        {
          "internalType": "address",
          "name": "from",
          "type": "address"
        },
        {
          "internalType": "address",
          "name": "to",
          "type": "address"
        },
        {
          "internalType": "uint256[]",
          "name": "ids",
          "type": "uint256[]"
        },
        {
          "internalType": "uint256[]",
          "name": "amounts",
          "type": "uint256[]"
        },
        {
          "internalType": "bytes",
          "name": "data",
          "type": "bytes"
        }
      ],
      "name": "safeBatchTransferFrom",
      "outputs": [],
      "stateMutability": "nonpayable",
      "type": "function"
    },
    {
      "inputs": [
        {
          "internalType": "address",
          "name": "from",
          "type": "address"
        },
        {
          "internalType": "address",
          "name": "to",
          "type": "address"
        },
        {
          "internalType": "uint256",
          "name": "id",
          "type": "uint256"
        },
        {
          "internalType": "uint256",
          "name": "amount",
          "type": "uint256"
        },
        {
          "internalType": "bytes",
          "name": "data",
          "type": "bytes"
        }
      ],
      "name": "safeTransferFrom",
      "outputs": [],
      "stateMutability": "nonpayable",
      "type": "function"
    },
    {
      "inputs": [
        {
          "internalType": "address",
          "name": "operator",
          "type": "address"
        },
        {
          "internalType": "bool",
          "name": "approved",
          "type": "bool"
        }
      ],
      "name": "setApprovalForAll",
      "outputs": [],
      "stateMutability": "nonpayable",
      "type": "function"
    },
    {
      "inputs": [
        {
          "internalType": "bytes4",
          "name": "interfaceId",
          "type": "bytes4"
        }
      ],
      "name": "supportsInterface",
      "outputs": [
        {
          "internalType": "bool",
          "name": "",
          "type": "bool"
        }
      ],
      "stateMutability": "view",
      "type": "function",
      "constant": true
    },
    {
      "inputs": [],
      "name": "symbol",
      "outputs": [
        {
          "internalType": "string",
          "name": "",
          "type": "string"
        }
      ],
      "stateMutability": "view",
      "type": "function",
      "constant": true
    },
    {
      "inputs": [],
      "name": "totalSupply",
      "outputs": [
        {
          "internalType": "uint256",
          "name": "",
          "type": "uint256"
        }
      ],
      "stateMutability": "view",
      "type": "function",
      "constant": true
    },
    {
      "inputs": [
        {
          "internalType": "uint256",
          "name": "id",
          "type": "uint256"
        }
      ],
      "name": "totalSupply",
      "outputs": [
        {
          "internalType": "uint256",
          "name": "",
          "type": "uint256"
        }
      ],
      "stateMutability": "view",
      "type": "function",
      "constant": true
    },
    {
      "inputs": [
        {
          "internalType": "address",
          "name": "newOwner",
          "type": "address"
        }
      ],
      "name": "transferOwnership",
      "outputs": [],
      "stateMutability": "nonpayable",
      "type": "function"
    },
    {
      "inputs": [
        {
          "internalType": "string",
          "name": "_name",
          "type": "string"
        },
        {
          "internalType": "string",
          "name": "_symbol",
          "type": "string"
        },
        {
          "internalType": "string",
          "name": "_uri",
          "type": "string"
        }
      ],
      "name": "initialize",
      "outputs": [],
      "stateMutability": "nonpayable",
      "type": "function"
    },
    {
      "inputs": [
        {
          "internalType": "uint256",
          "name": "id",
          "type": "uint256"
        }
      ],
      "name": "uri",
      "outputs": [
        {
          "internalType": "string",
          "name": "",
          "type": "string"
        }
      ],
      "stateMutability": "view",
      "type": "function",
      "constant": true
    },
    {
      "inputs": [
        {
          "internalType": "string",
          "name": "_uri",
          "type": "string"
        }
      ],
      "name": "setUri",
      "outputs": [],
      "stateMutability": "nonpayable",
      "type": "function"
    },
    {
      "inputs": [
        {
          "internalType": "uint256",
          "name": "_id",
          "type": "uint256"
        },
        {
          "components": [
            {
              "internalType": "string",
              "name": "metadataInHash",
              "type": "string"
            },
            {
              "internalType": "bool",
              "name": "isCourseNFT",
              "type": "bool"
            }
          ],
          "internalType": "struct ISharedStruct.NFTInfo",
          "name": "_nftInfo",
          "type": "tuple"
        }
      ],
      "name": "setNFTInfo",
      "outputs": [],
      "stateMutability": "nonpayable",
      "type": "function"
    },
    {
      "inputs": [
        {
          "internalType": "uint256",
          "name": "_id",
          "type": "uint256"
        }
      ],
      "name": "getNFTInfo",
      "outputs": [
        {
          "components": [
            {
              "internalType": "string",
              "name": "metadataInHash",
              "type": "string"
            },
            {
              "internalType": "bool",
              "name": "isCourseNFT",
              "type": "bool"
            }
          ],
          "internalType": "struct ISharedStruct.NFTInfo",
          "name": "",
          "type": "tuple"
        }
      ],
      "stateMutability": "view",
      "type": "function",
      "constant": true
    },
    {
      "inputs": [],
      "name": "getIdIndex",
      "outputs": [
        {
          "internalType": "uint256",
          "name": "",
          "type": "uint256"
        }
      ],
      "stateMutability": "view",
      "type": "function",
      "constant": true
    },
    {
      "inputs": [
        {
          "internalType": "uint256",
          "name": "_id",
          "type": "uint256"
        },
        {
          "internalType": "address",
          "name": "_account",
          "type": "address"
        },
        {
          "internalType": "uint256",
          "name": "_amount",
          "type": "uint256"
        }
      ],
      "name": "mint",
      "outputs": [],
      "stateMutability": "nonpayable",
      "type": "function"
    },
    {
      "inputs": [
        {
          "internalType": "address",
          "name": "_account",
          "type": "address"
        },
        {
          "internalType": "uint256",
          "name": "_amount",
          "type": "uint256"
        },
        {
          "components": [
            {
              "internalType": "string",
              "name": "metadataInHash",
              "type": "string"
            },
            {
              "internalType": "bool",
              "name": "isCourseNFT",
              "type": "bool"
            }
          ],
          "internalType": "struct ISharedStruct.NFTInfo",
          "name": "_nftInfo",
          "type": "tuple"
        }
      ],
      "name": "mint",
      "outputs": [],
      "stateMutability": "nonpayable",
      "type": "function"
    },
    {
      "inputs": [
        {
          "internalType": "uint256",
          "name": "_id",
          "type": "uint256"
        },
        {
          "internalType": "address",
          "name": "_account",
          "type": "address"
        },
        {
          "internalType": "uint256",
          "name": "_amount",
          "type": "uint256"
        }
      ],
      "name": "burn",
      "outputs": [],
      "stateMutability": "nonpayable",
      "type": "function"
    },
    {
      "inputs": [
        {
          "internalType": "uint256[]",
          "name": "_ids",
          "type": "uint256[]"
        },
        {
          "internalType": "address",
          "name": "_account",
          "type": "address"
        },
        {
          "internalType": "uint256[]",
          "name": "_amounts",
          "type": "uint256[]"
        }
      ],
      "name": "burnBatch",
      "outputs": [],
      "stateMutability": "nonpayable",
      "type": "function"
    },
    {
      "inputs": [
        {
          "components": [
            {
              "internalType": "string",
              "name": "metadataInHash",
              "type": "string"
            },
            {
              "internalType": "bool",
              "name": "isCourseNFT",
              "type": "bool"
            }
          ],
          "internalType": "struct ISharedStruct.NFTInfo",
          "name": "_nftInfo",
          "type": "tuple"
        }
      ],
      "name": "createNFT",
      "outputs": [],
      "stateMutability": "nonpayable",
      "type": "function"
    }
  ],
  "bytecode": "0x608060405234801561001057600080fd5b5061588880620000216000396000f3fe608060405234801561001057600080fd5b50600436106101d95760003560e01c806395d89b4111610104578063ac8a584a116100a2578063d188929f11610071578063d188929f1461054e578063e985e9c51461057e578063f242432a146105ae578063f2fde38b146105ca576101d9565b8063ac8a584a146104b4578063b02a2756146104d0578063bd85b039146104ee578063ce03fdab1461051e576101d9565b80639eea5f66116100de5780639eea5f6614610444578063a22cb46514610460578063a6487c531461047c578063ab023d4414610498576101d9565b806395d89b41146103ee5780639870d7fe1461040c5780639b642de114610428576101d9565b80633545d3c71161017c578063836a10401161014b578063836a10401461037c5780638da5cb5b1461039857806391ac2c4e146103b657806393f7d6c7146103d2576101d9565b80633545d3c7146102f65780634e1273f4146103125780634f558e7914610342578063715018a614610372576101d9565b80630e89341c116101b85780630e89341c1461025c57806313e7c9d81461028c57806318160ddd146102bc5780632eb2c2d6146102da576101d9565b8062fdd58e146101de57806301ffc9a71461020e57806306fdde031461023e575b600080fd5b6101f860048036038101906101f391906136a7565b6105e6565b60405161020591906136f6565b60405180910390f35b61022860048036038101906102239190613769565b6106af565b60405161023591906137b1565b60405180910390f35b610246610791565b6040516102539190613865565b60405180910390f35b61027660048036038101906102719190613887565b61081f565b6040516102839190613865565b60405180910390f35b6102a660048036038101906102a191906138b4565b61087f565b6040516102b391906137b1565b60405180910390f35b6102c461089f565b6040516102d191906136f6565b60405180910390f35b6102f460048036038101906102ef9190613ade565b6108a5565b005b610310600480360381019061030b9190613cf0565b610946565b005b61032c60048036038101906103279190613e0f565b610a63565b6040516103399190613f45565b60405180910390f35b61035c60048036038101906103579190613887565b610b7c565b60405161036991906137b1565b60405180910390f35b61037a610b90565b005b61039660048036038101906103919190613f67565b610c18565b005b6103a0610d84565b6040516103ad9190613fc9565b60405180910390f35b6103d060048036038101906103cb9190613fe4565b610dae565b005b6103ec60048036038101906103e7919061402d565b610f72565b005b6103f661111a565b6040516104039190613865565b60405180910390f35b610426600480360381019061042191906138b4565b6111a8565b005b610442600480360381019061043d91906140b8565b61127f565b005b61045e60048036038101906104599190613f67565b611307565b005b61047a60048036038101906104759190614101565b61149b565b005b61049660048036038101906104919190614141565b6114b1565b005b6104b260048036038101906104ad91906141e8565b6115d7565b005b6104ce60048036038101906104c991906138b4565b611770565b005b6104d8611847565b6040516104e591906136f6565b60405180910390f35b61050860048036038101906105039190613887565b6118e4565b60405161051591906136f6565b60405180910390f35b61053860048036038101906105339190613887565b611901565b60405161054591906137b1565b60405180910390f35b61056860048036038101906105639190613887565b611922565b60405161057591906142ed565b60405180910390f35b6105986004803603810190610593919061430f565b611a89565b6040516105a591906137b1565b60405180910390f35b6105c860048036038101906105c3919061434f565b611b1d565b005b6105e460048036038101906105df91906138b4565b611bbe565b005b60008073ffffffffffffffffffffffffffffffffffffffff168373ffffffffffffffffffffffffffffffffffffffff1603610656576040517f08c379a000000000000000000000000000000000000000000000000000000000815260040161064d90614458565b60405180910390fd5b6065600083815260200190815260200160002060008473ffffffffffffffffffffffffffffffffffffffff1673ffffffffffffffffffffffffffffffffffffffff16815260200190815260200160002054905092915050565b60007fd9b67a26000000000000000000000000000000000000000000000000000000007bffffffffffffffffffffffffffffffffffffffffffffffffffffffff1916827bffffffffffffffffffffffffffffffffffffffffffffffffffffffff1916148061077a57507f0e89341c000000000000000000000000000000000000000000000000000000007bffffffffffffffffffffffffffffffffffffffffffffffffffffffff1916827bffffffffffffffffffffffffffffffffffffffffffffffffffffffff1916145b8061078a575061078982611cb5565b5b9050919050565b60fc805461079e906144a7565b80601f01602080910402602001604051908101604052809291908181526020018280546107ca906144a7565b80156108175780601f106107ec57610100808354040283529160200191610817565b820191906000526020600020905b8154815290600101906020018083116107fa57829003601f168201915b505050505081565b6060600061082c83611d1f565b9050600081511161084c5760405180602001604052806000815250610877565b8061085684611db3565b604051602001610867929190614514565b6040516020818303038152906040525b915050919050565b60fb6020528060005260406000206000915054906101000a900460ff1681565b60fe5481565b6108ad611f13565b73ffffffffffffffffffffffffffffffffffffffff168573ffffffffffffffffffffffffffffffffffffffff1614806108f357506108f2856108ed611f13565b611a89565b5b610932576040517f08c379a0000000000000000000000000000000000000000000000000000000008152600401610929906145aa565b60405180910390fd5b61093f8585858585611f1b565b5050505050565b60fb60003373ffffffffffffffffffffffffffffffffffffffff1673ffffffffffffffffffffffffffffffffffffffff16815260200190815260200160002060009054906101000a900460ff166109d2576040517f08c379a00000000000000000000000000000000000000000000000000000000081526004016109c99061463c565b60405180910390fd5b8061010060008481526020019081526020016000206000820151816000019080519060200190610a03929190613540565b5060208201518160010160006101000a81548160ff021916908315150217905550905050817fe99169418508e71624f7d14602f4e4b7e9810eb1cb18bb97bfb8f5dc771a416c82604051610a5791906142ed565b60405180910390a25050565b60608151835114610aa9576040517f08c379a0000000000000000000000000000000000000000000000000000000008152600401610aa0906146ce565b60405180910390fd5b6000835167ffffffffffffffff811115610ac657610ac56138e6565b5b604051908082528060200260200182016040528015610af45781602001602082028036833780820191505090505b50905060005b8451811015610b7157610b41858281518110610b1957610b186146ee565b5b6020026020010151858381518110610b3457610b336146ee565b5b60200260200101516105e6565b828281518110610b5457610b536146ee565b5b60200260200101818152505080610b6a9061474c565b9050610afa565b508091505092915050565b600080610b88836118e4565b119050919050565b610b98611f13565b73ffffffffffffffffffffffffffffffffffffffff16610bb6610d84565b73ffffffffffffffffffffffffffffffffffffffff1614610c0c576040517f08c379a0000000000000000000000000000000000000000000000000000000008152600401610c03906147e0565b60405180910390fd5b610c166000612231565b565b60fb60003373ffffffffffffffffffffffffffffffffffffffff1673ffffffffffffffffffffffffffffffffffffffff16815260200190815260200160002060009054906101000a900460ff16610ca4576040517f08c379a0000000000000000000000000000000000000000000000000000000008152600401610c9b9061463c565b60405180910390fd5b60008111610ce7576040517f08c379a0000000000000000000000000000000000000000000000000000000008152600401610cde90614872565b60405180910390fd5b610d02828483604051806020016040528060008152506122f7565b8060fe6000828254610d149190614892565b925050819055508173ffffffffffffffffffffffffffffffffffffffff16837fd3c2c95cb9cebcb225edf4e9fa8f674bf107ca191820eef5456d8b3fd64d8064836101006000888152602001908152602001600020604051610d779291906149fa565b60405180910390a3505050565b600060c960009054906101000a900473ffffffffffffffffffffffffffffffffffffffff16905090565b60fb60003373ffffffffffffffffffffffffffffffffffffffff1673ffffffffffffffffffffffffffffffffffffffff16815260200190815260200160002060009054906101000a900460ff16610e3a576040517f08c379a0000000000000000000000000000000000000000000000000000000008152600401610e319061463c565b60405180910390fd5b610e4460ff61248d565b6000610e5060ff6124a3565b9050610101600082815260200190815260200160002060009054906101000a900460ff1615610eb4576040517f08c379a0000000000000000000000000000000000000000000000000000000008152600401610eab90614a9c565b60405180910390fd5b8161010060008381526020019081526020016000206000820151816000019080519060200190610ee5929190613540565b5060208201518160010160006101000a81548160ff0219169083151502179055509050506001610101600083815260200190815260200160002060006101000a81548160ff021916908315150217905550807fdc9b10ed49d4b2b90a276a5a1e5cf03a124a16e960deb1958159c205dda3972483604051610f6691906142ed565b60405180910390a25050565b610f7a611f13565b73ffffffffffffffffffffffffffffffffffffffff168273ffffffffffffffffffffffffffffffffffffffff161480610fc05750610fbf82610fba611f13565b611a89565b5b610fff576040517f08c379a0000000000000000000000000000000000000000000000000000000008152600401610ff690614b2e565b60405180910390fd5b8051835114611043576040517f08c379a000000000000000000000000000000000000000000000000000000000815260040161103a90614bc0565b60405180910390fd5b6000805b845181101561108b57828181518110611063576110626146ee565b5b6020026020010151826110769190614892565b915080806110839061474c565b915050611047565b506110978385846124b1565b8060fe60008282546110a99190614be0565b925050819055508273ffffffffffffffffffffffffffffffffffffffff16846040516110d59190614ca4565b60405180910390207fa636dab3a05fbb1ffb680655657b36f6d6d55fea93039f2f7579d06ad2980d458460405161110c9190613f45565b60405180910390a350505050565b60fd8054611127906144a7565b80601f0160208091040260200160405190810160405280929190818152602001828054611153906144a7565b80156111a05780601f10611175576101008083540402835291602001916111a0565b820191906000526020600020905b81548152906001019060200180831161118357829003601f168201915b505050505081565b6111b0611f13565b73ffffffffffffffffffffffffffffffffffffffff166111ce610d84565b73ffffffffffffffffffffffffffffffffffffffff1614611224576040517f08c379a000000000000000000000000000000000000000000000000000000000815260040161121b906147e0565b60405180910390fd5b600160fb60008373ffffffffffffffffffffffffffffffffffffffff1673ffffffffffffffffffffffffffffffffffffffff16815260200190815260200160002060006101000a81548160ff02191690831515021790555050565b611287611f13565b73ffffffffffffffffffffffffffffffffffffffff166112a5610d84565b73ffffffffffffffffffffffffffffffffffffffff16146112fb576040517f08c379a00000000000000000000000000000000000000000000000000000000081526004016112f2906147e0565b60405180910390fd5b61130481612763565b50565b61130f611f13565b73ffffffffffffffffffffffffffffffffffffffff168273ffffffffffffffffffffffffffffffffffffffff16148061135557506113548261134f611f13565b611a89565b5b611394576040517f08c379a000000000000000000000000000000000000000000000000000000000815260040161138b90614b2e565b60405180910390fd5b600081116113d7576040517f08c379a00000000000000000000000000000000000000000000000000000000081526004016113ce90614d2d565b60405180910390fd5b806113e283856105e6565b1015611423576040517f08c379a000000000000000000000000000000000000000000000000000000000815260040161141a90614dbf565b60405180910390fd5b61142e82848361277d565b8060fe60008282546114409190614be0565b925050819055508173ffffffffffffffffffffffffffffffffffffffff16837f4bd6378fc96c203e736dbbe9b3f824c4ca435287821d857f16fd4c8e82cc1cca8360405161148e91906136f6565b60405180910390a3505050565b6114ad6114a6611f13565b838361299b565b5050565b600060019054906101000a900460ff166114d95760008054906101000a900460ff16156114e2565b6114e1612b07565b5b611521576040517f08c379a000000000000000000000000000000000000000000000000000000000815260040161151890614e51565b60405180910390fd5b60008060019054906101000a900460ff161590508015611571576001600060016101000a81548160ff02191690831515021790555060016000806101000a81548160ff0219169083151502179055505b8360fc9080519060200190611587929190613540565b508260fd908051906020019061159e929190613540565b506115a882612b18565b6115b0612b73565b80156115d15760008060016101000a81548160ff0219169083151502179055505b50505050565b60fb60003373ffffffffffffffffffffffffffffffffffffffff1673ffffffffffffffffffffffffffffffffffffffff16815260200190815260200160002060009054906101000a900460ff16611663576040517f08c379a000000000000000000000000000000000000000000000000000000000815260040161165a9061463c565b60405180910390fd5b61166d60ff61248d565b600061167960ff6124a3565b9050610101600082815260200190815260200160002060009054906101000a900460ff16156116dd576040517f08c379a00000000000000000000000000000000000000000000000000000000081526004016116d490614a9c565b60405180910390fd5b816101006000838152602001908152602001600020600082015181600001908051906020019061170e929190613540565b5060208201518160010160006101000a81548160ff02191690831515021790555090505061173d818585610c18565b6001610101600083815260200190815260200160002060006101000a81548160ff02191690831515021790555050505050565b611778611f13565b73ffffffffffffffffffffffffffffffffffffffff16611796610d84565b73ffffffffffffffffffffffffffffffffffffffff16146117ec576040517f08c379a00000000000000000000000000000000000000000000000000000000081526004016117e3906147e0565b60405180910390fd5b600060fb60008373ffffffffffffffffffffffffffffffffffffffff1673ffffffffffffffffffffffffffffffffffffffff16815260200190815260200160002060006101000a81548160ff02191690831515021790555050565b600060fb60003373ffffffffffffffffffffffffffffffffffffffff1673ffffffffffffffffffffffffffffffffffffffff16815260200190815260200160002060009054906101000a900460ff166118d5576040517f08c379a00000000000000000000000000000000000000000000000000000000081526004016118cc9061463c565b60405180910390fd5b6118df60ff6124a3565b905090565b600060976000838152602001908152602001600020549050919050565b6101016020528060005260406000206000915054906101000a900460ff1681565b61192a6135c6565b60fb60003373ffffffffffffffffffffffffffffffffffffffff1673ffffffffffffffffffffffffffffffffffffffff16815260200190815260200160002060009054906101000a900460ff166119b6576040517f08c379a00000000000000000000000000000000000000000000000000000000081526004016119ad9061463c565b60405180910390fd5b61010060008381526020019081526020016000206040518060400160405290816000820180546119e5906144a7565b80601f0160208091040260200160405190810160405280929190818152602001828054611a11906144a7565b8015611a5e5780601f10611a3357610100808354040283529160200191611a5e565b820191906000526020600020905b815481529060010190602001808311611a4157829003601f168201915b505050505081526020016001820160009054906101000a900460ff1615151515815250509050919050565b6000606660008473ffffffffffffffffffffffffffffffffffffffff1673ffffffffffffffffffffffffffffffffffffffff16815260200190815260200160002060008373ffffffffffffffffffffffffffffffffffffffff1673ffffffffffffffffffffffffffffffffffffffff16815260200190815260200160002060009054906101000a900460ff16905092915050565b611b25611f13565b73ffffffffffffffffffffffffffffffffffffffff168573ffffffffffffffffffffffffffffffffffffffff161480611b6b5750611b6a85611b65611f13565b611a89565b5b611baa576040517f08c379a0000000000000000000000000000000000000000000000000000000008152600401611ba190614ee3565b60405180910390fd5b611bb78585858585612bdc565b5050505050565b611bc6611f13565b73ffffffffffffffffffffffffffffffffffffffff16611be4610d84565b73ffffffffffffffffffffffffffffffffffffffff1614611c3a576040517f08c379a0000000000000000000000000000000000000000000000000000000008152600401611c31906147e0565b60405180910390fd5b600073ffffffffffffffffffffffffffffffffffffffff168173ffffffffffffffffffffffffffffffffffffffff1603611ca9576040517f08c379a0000000000000000000000000000000000000000000000000000000008152600401611ca090614f75565b60405180910390fd5b611cb281612231565b50565b60007f01ffc9a7000000000000000000000000000000000000000000000000000000007bffffffffffffffffffffffffffffffffffffffffffffffffffffffff1916827bffffffffffffffffffffffffffffffffffffffffffffffffffffffff1916149050919050565b606060678054611d2e906144a7565b80601f0160208091040260200160405190810160405280929190818152602001828054611d5a906144a7565b8015611da75780601f10611d7c57610100808354040283529160200191611da7565b820191906000526020600020905b815481529060010190602001808311611d8a57829003601f168201915b50505050509050919050565b606060008203611dfa576040518060400160405280600181526020017f30000000000000000000000000000000000000000000000000000000000000008152509050611f0e565b600082905060005b60008214611e2c578080611e159061474c565b915050600a82611e259190614fc4565b9150611e02565b60008167ffffffffffffffff811115611e4857611e476138e6565b5b6040519080825280601f01601f191660200182016040528015611e7a5781602001600182028036833780820191505090505b5090505b60008514611f0757600182611e939190614be0565b9150600a85611ea29190614ff5565b6030611eae9190614892565b60f81b818381518110611ec457611ec36146ee565b5b60200101907effffffffffffffffffffffffffffffffffffffffffffffffffffffffffffff1916908160001a905350600a85611f009190614fc4565b9450611e7e565b8093505050505b919050565b600033905090565b8151835114611f5f576040517f08c379a0000000000000000000000000000000000000000000000000000000008152600401611f5690615098565b60405180910390fd5b600073ffffffffffffffffffffffffffffffffffffffff168473ffffffffffffffffffffffffffffffffffffffff1603611fce576040517f08c379a0000000000000000000000000000000000000000000000000000000008152600401611fc59061512a565b60405180910390fd5b6000611fd8611f13565b9050611fe8818787878787612e60565b60005b845181101561219c576000858281518110612009576120086146ee565b5b602002602001015190506000858381518110612028576120276146ee565b5b6020026020010151905060006065600084815260200190815260200160002060008b73ffffffffffffffffffffffffffffffffffffffff1673ffffffffffffffffffffffffffffffffffffffff168152602001908152602001600020549050818110156120ca576040517f08c379a00000000000000000000000000000000000000000000000000000000081526004016120c1906151bc565b60405180910390fd5b8181036065600085815260200190815260200160002060008c73ffffffffffffffffffffffffffffffffffffffff1673ffffffffffffffffffffffffffffffffffffffff16815260200190815260200160002081905550816065600085815260200190815260200160002060008b73ffffffffffffffffffffffffffffffffffffffff1673ffffffffffffffffffffffffffffffffffffffff16815260200190815260200160002060008282546121819190614892565b92505081905550505050806121959061474c565b9050611feb565b508473ffffffffffffffffffffffffffffffffffffffff168673ffffffffffffffffffffffffffffffffffffffff168273ffffffffffffffffffffffffffffffffffffffff167f4a39dc06d4c0dbc64b70af90fd698a233a518aa5d07e595d983b8c0526c8f7fb87876040516122139291906151dc565b60405180910390a4612229818787878787612fd8565b505050505050565b600060c960009054906101000a900473ffffffffffffffffffffffffffffffffffffffff1690508160c960006101000a81548173ffffffffffffffffffffffffffffffffffffffff021916908373ffffffffffffffffffffffffffffffffffffffff1602179055508173ffffffffffffffffffffffffffffffffffffffff168173ffffffffffffffffffffffffffffffffffffffff167f8be0079c531659141344cd1fd0a4f28419497f9722a3daafe3b4186f6b6457e060405160405180910390a35050565b600073ffffffffffffffffffffffffffffffffffffffff168473ffffffffffffffffffffffffffffffffffffffff1603612366576040517f08c379a000000000000000000000000000000000000000000000000000000000815260040161235d90615285565b60405180910390fd5b6000612370611f13565b905061239181600087612382886131af565b61238b886131af565b87612e60565b826065600086815260200190815260200160002060008773ffffffffffffffffffffffffffffffffffffffff1673ffffffffffffffffffffffffffffffffffffffff16815260200190815260200160002060008282546123f19190614892565b925050819055508473ffffffffffffffffffffffffffffffffffffffff16600073ffffffffffffffffffffffffffffffffffffffff168273ffffffffffffffffffffffffffffffffffffffff167fc3d58168c5ae7397731d063d5bbf3d657854427343f4c083240f7aacaa2d0f62878760405161246f9291906152a5565b60405180910390a461248681600087878787613229565b5050505050565b6001816000016000828254019250508190555050565b600081600001549050919050565b600073ffffffffffffffffffffffffffffffffffffffff168373ffffffffffffffffffffffffffffffffffffffff1603612520576040517f08c379a000000000000000000000000000000000000000000000000000000000815260040161251790615340565b60405180910390fd5b8051825114612564576040517f08c379a000000000000000000000000000000000000000000000000000000000815260040161255b90615098565b60405180910390fd5b600061256e611f13565b905061258e81856000868660405180602001604052806000815250612e60565b60005b83518110156126dd5760008482815181106125af576125ae6146ee565b5b6020026020010151905060008483815181106125ce576125cd6146ee565b5b6020026020010151905060006065600084815260200190815260200160002060008973ffffffffffffffffffffffffffffffffffffffff1673ffffffffffffffffffffffffffffffffffffffff16815260200190815260200160002054905081811015612670576040517f08c379a0000000000000000000000000000000000000000000000000000000008152600401612667906153d2565b60405180910390fd5b8181036065600085815260200190815260200160002060008a73ffffffffffffffffffffffffffffffffffffffff1673ffffffffffffffffffffffffffffffffffffffff1681526020019081526020016000208190555050505080806126d59061474c565b915050612591565b50600073ffffffffffffffffffffffffffffffffffffffff168473ffffffffffffffffffffffffffffffffffffffff168273ffffffffffffffffffffffffffffffffffffffff167f4a39dc06d4c0dbc64b70af90fd698a233a518aa5d07e595d983b8c0526c8f7fb86866040516127559291906151dc565b60405180910390a450505050565b8060679080519060200190612779929190613540565b5050565b600073ffffffffffffffffffffffffffffffffffffffff168373ffffffffffffffffffffffffffffffffffffffff16036127ec576040517f08c379a00000000000000000000000000000000000000000000000000000000081526004016127e390615340565b60405180910390fd5b60006127f6611f13565b905061282681856000612808876131af565b612811876131af565b60405180602001604052806000815250612e60565b60006065600085815260200190815260200160002060008673ffffffffffffffffffffffffffffffffffffffff1673ffffffffffffffffffffffffffffffffffffffff168152602001908152602001600020549050828110156128be576040517f08c379a00000000000000000000000000000000000000000000000000000000081526004016128b5906153d2565b60405180910390fd5b8281036065600086815260200190815260200160002060008773ffffffffffffffffffffffffffffffffffffffff1673ffffffffffffffffffffffffffffffffffffffff16815260200190815260200160002081905550600073ffffffffffffffffffffffffffffffffffffffff168573ffffffffffffffffffffffffffffffffffffffff168373ffffffffffffffffffffffffffffffffffffffff167fc3d58168c5ae7397731d063d5bbf3d657854427343f4c083240f7aacaa2d0f62878760405161298c9291906152a5565b60405180910390a45050505050565b8173ffffffffffffffffffffffffffffffffffffffff168373ffffffffffffffffffffffffffffffffffffffff1603612a09576040517f08c379a0000000000000000000000000000000000000000000000000000000008152600401612a0090615464565b60405180910390fd5b80606660008573ffffffffffffffffffffffffffffffffffffffff1673ffffffffffffffffffffffffffffffffffffffff16815260200190815260200160002060008473ffffffffffffffffffffffffffffffffffffffff1673ffffffffffffffffffffffffffffffffffffffff16815260200190815260200160002060006101000a81548160ff0219169083151502179055508173ffffffffffffffffffffffffffffffffffffffff168373ffffffffffffffffffffffffffffffffffffffff167f17307eab39ab6107e8899845ad3d59bd9653f200f220920489ca2b5937696c3183604051612afa91906137b1565b60405180910390a3505050565b6000612b1230613400565b15905090565b600060019054906101000a900460ff16612b67576040517f08c379a0000000000000000000000000000000000000000000000000000000008152600401612b5e906154f6565b60405180910390fd5b612b7081613423565b50565b612b7b61347e565b600160fb6000612b89610d84565b73ffffffffffffffffffffffffffffffffffffffff1673ffffffffffffffffffffffffffffffffffffffff16815260200190815260200160002060006101000a81548160ff021916908315150217905550565b600073ffffffffffffffffffffffffffffffffffffffff168473ffffffffffffffffffffffffffffffffffffffff1603612c4b576040517f08c379a0000000000000000000000000000000000000000000000000000000008152600401612c429061512a565b60405180910390fd5b6000612c55611f13565b9050612c75818787612c66886131af565b612c6f886131af565b87612e60565b60006065600086815260200190815260200160002060008873ffffffffffffffffffffffffffffffffffffffff1673ffffffffffffffffffffffffffffffffffffffff16815260200190815260200160002054905083811015612d0d576040517f08c379a0000000000000000000000000000000000000000000000000000000008152600401612d04906151bc565b60405180910390fd5b8381036065600087815260200190815260200160002060008973ffffffffffffffffffffffffffffffffffffffff1673ffffffffffffffffffffffffffffffffffffffff16815260200190815260200160002081905550836065600087815260200190815260200160002060008873ffffffffffffffffffffffffffffffffffffffff1673ffffffffffffffffffffffffffffffffffffffff1681526020019081526020016000206000828254612dc49190614892565b925050819055508573ffffffffffffffffffffffffffffffffffffffff168773ffffffffffffffffffffffffffffffffffffffff168373ffffffffffffffffffffffffffffffffffffffff167fc3d58168c5ae7397731d063d5bbf3d657854427343f4c083240f7aacaa2d0f628888604051612e419291906152a5565b60405180910390a4612e57828888888888613229565b50505050505050565b612e6e8686868686866134d7565b600073ffffffffffffffffffffffffffffffffffffffff168573ffffffffffffffffffffffffffffffffffffffff1603612f1f5760005b8351811015612f1d57828181518110612ec157612ec06146ee565b5b602002602001015160976000868481518110612ee057612edf6146ee565b5b602002602001015181526020019081526020016000206000828254612f059190614892565b9250508190555080612f169061474c565b9050612ea5565b505b600073ffffffffffffffffffffffffffffffffffffffff168473ffffffffffffffffffffffffffffffffffffffff1603612fd05760005b8351811015612fce57828181518110612f7257612f716146ee565b5b602002602001015160976000868481518110612f9157612f906146ee565b5b602002602001015181526020019081526020016000206000828254612fb69190614be0565b9250508190555080612fc79061474c565b9050612f56565b505b505050505050565b612ff78473ffffffffffffffffffffffffffffffffffffffff16613400565b156131a7578373ffffffffffffffffffffffffffffffffffffffff1663bc197c8187878686866040518663ffffffff1660e01b815260040161303d95949392919061556b565b6020604051808303816000875af192505050801561307957506040513d601f19601f8201168201806040525081019061307691906155e8565b60015b61311e57613085615622565b806308c379a0036130e15750613099615644565b806130a457506130e3565b806040517f08c379a00000000000000000000000000000000000000000000000000000000081526004016130d89190613865565b60405180910390fd5b505b6040517f08c379a000000000000000000000000000000000000000000000000000000000815260040161311590615746565b60405180910390fd5b63bc197c8160e01b7bffffffffffffffffffffffffffffffffffffffffffffffffffffffff1916817bffffffffffffffffffffffffffffffffffffffffffffffffffffffff1916146131a5576040517f08c379a000000000000000000000000000000000000000000000000000000000815260040161319c906157d8565b60405180910390fd5b505b505050505050565b60606000600167ffffffffffffffff8111156131ce576131cd6138e6565b5b6040519080825280602002602001820160405280156131fc5781602001602082028036833780820191505090505b5090508281600081518110613214576132136146ee565b5b60200260200101818152505080915050919050565b6132488473ffffffffffffffffffffffffffffffffffffffff16613400565b156133f8578373ffffffffffffffffffffffffffffffffffffffff1663f23a6e6187878686866040518663ffffffff1660e01b815260040161328e9594939291906157f8565b6020604051808303816000875af19250505080156132ca57506040513d601f19601f820116820180604052508101906132c791906155e8565b60015b61336f576132d6615622565b806308c379a00361333257506132ea615644565b806132f55750613334565b806040517f08c379a00000000000000000000000000000000000000000000000000000000081526004016133299190613865565b60405180910390fd5b505b6040517f08c379a000000000000000000000000000000000000000000000000000000000815260040161336690615746565b60405180910390fd5b63f23a6e6160e01b7bffffffffffffffffffffffffffffffffffffffffffffffffffffffff1916817bffffffffffffffffffffffffffffffffffffffffffffffffffffffff1916146133f6576040517f08c379a00000000000000000000000000000000000000000000000000000000081526004016133ed906157d8565b60405180910390fd5b505b505050505050565b6000808273ffffffffffffffffffffffffffffffffffffffff163b119050919050565b600060019054906101000a900460ff16613472576040517f08c379a0000000000000000000000000000000000000000000000000000000008152600401613469906154f6565b60405180910390fd5b61347b81612763565b50565b600060019054906101000a900460ff166134cd576040517f08c379a00000000000000000000000000000000000000000000000000000000081526004016134c4906154f6565b60405180910390fd5b6134d56134df565b565b505050505050565b600060019054906101000a900460ff1661352e576040517f08c379a0000000000000000000000000000000000000000000000000000000008152600401613525906154f6565b60405180910390fd5b61353e613539611f13565b612231565b565b82805461354c906144a7565b90600052602060002090601f01602090048101928261356e57600085556135b5565b82601f1061358757805160ff19168380011785556135b5565b828001600101855582156135b5579182015b828111156135b4578251825591602001919060010190613599565b5b5090506135c291906135e2565b5090565b6040518060400160405280606081526020016000151581525090565b5b808211156135fb5760008160009055506001016135e3565b5090565b6000604051905090565b600080fd5b600080fd5b600073ffffffffffffffffffffffffffffffffffffffff82169050919050565b600061363e82613613565b9050919050565b61364e81613633565b811461365957600080fd5b50565b60008135905061366b81613645565b92915050565b6000819050919050565b61368481613671565b811461368f57600080fd5b50565b6000813590506136a18161367b565b92915050565b600080604083850312156136be576136bd613609565b5b60006136cc8582860161365c565b92505060206136dd85828601613692565b9150509250929050565b6136f081613671565b82525050565b600060208201905061370b60008301846136e7565b92915050565b60007fffffffff0000000000000000000000000000000000000000000000000000000082169050919050565b61374681613711565b811461375157600080fd5b50565b6000813590506137638161373d565b92915050565b60006020828403121561377f5761377e613609565b5b600061378d84828501613754565b91505092915050565b60008115159050919050565b6137ab81613796565b82525050565b60006020820190506137c660008301846137a2565b92915050565b600081519050919050565b600082825260208201905092915050565b60005b838110156138065780820151818401526020810190506137eb565b83811115613815576000848401525b50505050565b6000601f19601f8301169050919050565b6000613837826137cc565b61384181856137d7565b93506138518185602086016137e8565b61385a8161381b565b840191505092915050565b6000602082019050818103600083015261387f818461382c565b905092915050565b60006020828403121561389d5761389c613609565b5b60006138ab84828501613692565b91505092915050565b6000602082840312156138ca576138c9613609565b5b60006138d88482850161365c565b91505092915050565b600080fd5b7f4e487b7100000000000000000000000000000000000000000000000000000000600052604160045260246000fd5b61391e8261381b565b810181811067ffffffffffffffff8211171561393d5761393c6138e6565b5b80604052505050565b60006139506135ff565b905061395c8282613915565b919050565b600067ffffffffffffffff82111561397c5761397b6138e6565b5b602082029050602081019050919050565b600080fd5b60006139a56139a084613961565b613946565b905080838252602082019050602084028301858111156139c8576139c761398d565b5b835b818110156139f157806139dd8882613692565b8452602084019350506020810190506139ca565b5050509392505050565b600082601f830112613a1057613a0f6138e1565b5b8135613a20848260208601613992565b91505092915050565b600080fd5b600067ffffffffffffffff821115613a4957613a486138e6565b5b613a528261381b565b9050602081019050919050565b82818337600083830152505050565b6000613a81613a7c84613a2e565b613946565b905082815260208101848484011115613a9d57613a9c613a29565b5b613aa8848285613a5f565b509392505050565b600082601f830112613ac557613ac46138e1565b5b8135613ad5848260208601613a6e565b91505092915050565b600080600080600060a08688031215613afa57613af9613609565b5b6000613b088882890161365c565b9550506020613b198882890161365c565b945050604086013567ffffffffffffffff811115613b3a57613b3961360e565b5b613b46888289016139fb565b935050606086013567ffffffffffffffff811115613b6757613b6661360e565b5b613b73888289016139fb565b925050608086013567ffffffffffffffff811115613b9457613b9361360e565b5b613ba088828901613ab0565b9150509295509295909350565b600080fd5b600080fd5b600067ffffffffffffffff821115613bd257613bd16138e6565b5b613bdb8261381b565b9050602081019050919050565b6000613bfb613bf684613bb7565b613946565b905082815260208101848484011115613c1757613c16613a29565b5b613c22848285613a5f565b509392505050565b600082601f830112613c3f57613c3e6138e1565b5b8135613c4f848260208601613be8565b91505092915050565b613c6181613796565b8114613c6c57600080fd5b50565b600081359050613c7e81613c58565b92915050565b600060408284031215613c9a57613c99613bad565b5b613ca46040613946565b9050600082013567ffffffffffffffff811115613cc457613cc3613bb2565b5b613cd084828501613c2a565b6000830152506020613ce484828501613c6f565b60208301525092915050565b60008060408385031215613d0757613d06613609565b5b6000613d1585828601613692565b925050602083013567ffffffffffffffff811115613d3657613d3561360e565b5b613d4285828601613c84565b9150509250929050565b600067ffffffffffffffff821115613d6757613d666138e6565b5b602082029050602081019050919050565b6000613d8b613d8684613d4c565b613946565b90508083825260208201905060208402830185811115613dae57613dad61398d565b5b835b81811015613dd75780613dc3888261365c565b845260208401935050602081019050613db0565b5050509392505050565b600082601f830112613df657613df56138e1565b5b8135613e06848260208601613d78565b91505092915050565b60008060408385031215613e2657613e25613609565b5b600083013567ffffffffffffffff811115613e4457613e4361360e565b5b613e5085828601613de1565b925050602083013567ffffffffffffffff811115613e7157613e7061360e565b5b613e7d858286016139fb565b9150509250929050565b600081519050919050565b600082825260208201905092915050565b6000819050602082019050919050565b613ebc81613671565b82525050565b6000613ece8383613eb3565b60208301905092915050565b6000602082019050919050565b6000613ef282613e87565b613efc8185613e92565b9350613f0783613ea3565b8060005b83811015613f38578151613f1f8882613ec2565b9750613f2a83613eda565b925050600181019050613f0b565b5085935050505092915050565b60006020820190508181036000830152613f5f8184613ee7565b905092915050565b600080600060608486031215613f8057613f7f613609565b5b6000613f8e86828701613692565b9350506020613f9f8682870161365c565b9250506040613fb086828701613692565b9150509250925092565b613fc381613633565b82525050565b6000602082019050613fde6000830184613fba565b92915050565b600060208284031215613ffa57613ff9613609565b5b600082013567ffffffffffffffff8111156140185761401761360e565b5b61402484828501613c84565b91505092915050565b60008060006060848603121561404657614045613609565b5b600084013567ffffffffffffffff8111156140645761406361360e565b5b614070868287016139fb565b93505060206140818682870161365c565b925050604084013567ffffffffffffffff8111156140a2576140a161360e565b5b6140ae868287016139fb565b9150509250925092565b6000602082840312156140ce576140cd613609565b5b600082013567ffffffffffffffff8111156140ec576140eb61360e565b5b6140f884828501613c2a565b91505092915050565b6000806040838503121561411857614117613609565b5b60006141268582860161365c565b925050602061413785828601613c6f565b9150509250929050565b60008060006060848603121561415a57614159613609565b5b600084013567ffffffffffffffff8111156141785761417761360e565b5b61418486828701613c2a565b935050602084013567ffffffffffffffff8111156141a5576141a461360e565b5b6141b186828701613c2a565b925050604084013567ffffffffffffffff8111156141d2576141d161360e565b5b6141de86828701613c2a565b9150509250925092565b60008060006060848603121561420157614200613609565b5b600061420f8682870161365c565b935050602061422086828701613692565b925050604084013567ffffffffffffffff8111156142415761424061360e565b5b61424d86828701613c84565b9150509250925092565b600082825260208201905092915050565b6000614273826137cc565b61427d8185614257565b935061428d8185602086016137e8565b6142968161381b565b840191505092915050565b6142aa81613796565b82525050565b600060408301600083015184820360008601526142cd8282614268565b91505060208301516142e260208601826142a1565b508091505092915050565b6000602082019050818103600083015261430781846142b0565b905092915050565b6000806040838503121561432657614325613609565b5b60006143348582860161365c565b92505060206143458582860161365c565b9150509250929050565b600080600080600060a0868803121561436b5761436a613609565b5b60006143798882890161365c565b955050602061438a8882890161365c565b945050604061439b88828901613692565b93505060606143ac88828901613692565b925050608086013567ffffffffffffffff8111156143cd576143cc61360e565b5b6143d988828901613ab0565b9150509295509295909350565b7f455243313135353a2062616c616e636520717565727920666f7220746865207a60008201527f65726f2061646472657373000000000000000000000000000000000000000000602082015250565b6000614442602b836137d7565b915061444d826143e6565b604082019050919050565b6000602082019050818103600083015261447181614435565b9050919050565b7f4e487b7100000000000000000000000000000000000000000000000000000000600052602260045260246000fd5b600060028204905060018216806144bf57607f821691505b6020821081036144d2576144d1614478565b5b50919050565b600081905092915050565b60006144ee826137cc565b6144f881856144d8565b93506145088185602086016137e8565b80840191505092915050565b600061452082856144e3565b915061452c82846144e3565b91508190509392505050565b7f455243313135353a207472616e736665722063616c6c6572206973206e6f742060008201527f6f776e6572206e6f7220617070726f7665640000000000000000000000000000602082015250565b60006145946032836137d7565b915061459f82614538565b604082019050919050565b600060208201905081810360008301526145c381614587565b9050919050565b7f4f706572617461626c653a2063616c6c6572206973206e6f7420746865206f7760008201527f6e65720000000000000000000000000000000000000000000000000000000000602082015250565b60006146266023836137d7565b9150614631826145ca565b604082019050919050565b6000602082019050818103600083015261465581614619565b9050919050565b7f455243313135353a206163636f756e747320616e6420696473206c656e67746860008201527f206d69736d617463680000000000000000000000000000000000000000000000602082015250565b60006146b86029836137d7565b91506146c38261465c565b604082019050919050565b600060208201905081810360008301526146e7816146ab565b9050919050565b7f4e487b7100000000000000000000000000000000000000000000000000000000600052603260045260246000fd5b7f4e487b7100000000000000000000000000000000000000000000000000000000600052601160045260246000fd5b600061475782613671565b91507fffffffffffffffffffffffffffffffffffffffffffffffffffffffffffffffff82036147895761478861471d565b5b600182019050919050565b7f4f776e61626c653a2063616c6c6572206973206e6f7420746865206f776e6572600082015250565b60006147ca6020836137d7565b91506147d582614794565b602082019050919050565b600060208201905081810360008301526147f9816147bd565b9050919050565b7f5549544e4654546f6b656e3a20416d6f756e74206f66206974656d7320746f2060008201527f6d696e74206d757374206265206d6f7265207468616e20300000000000000000602082015250565b600061485c6038836137d7565b915061486782614800565b604082019050919050565b6000602082019050818103600083015261488b8161484f565b9050919050565b600061489d82613671565b91506148a883613671565b9250827fffffffffffffffffffffffffffffffffffffffffffffffffffffffffffffffff038211156148dd576148dc61471d565b5b828201905092915050565b60008190508160005260206000209050919050565b6000815461490a816144a7565b6149148186614257565b9450600182166000811461492f576001811461494157614974565b60ff1983168652602086019350614974565b61494a856148e8565b60005b8381101561496c5781548189015260018201915060208101905061494d565b808801955050505b50505092915050565b60008160001c9050919050565b600060ff82169050919050565b60006149aa6149a58361497d565b61498a565b9050919050565b600060408301600080840185830360008701526149ce83826148fd565b925050600184015490506149e181614997565b6149ee60208701826142a1565b50819250505092915050565b6000604082019050614a0f60008301856136e7565b8181036020830152614a2181846149b1565b90509392505050565b7f5549544e4654546f6b656e3a206974656d4964206d75737420626520756e697160008201527f7565000000000000000000000000000000000000000000000000000000000000602082015250565b6000614a866022836137d7565b9150614a9182614a2a565b604082019050919050565b60006020820190508181036000830152614ab581614a79565b9050919050565b7f5549544e4654546f6b656e3a2063616c6c6572206973206e6f74206f776e657260008201527f206e6f7220617070726f76656400000000000000000000000000000000000000602082015250565b6000614b18602d836137d7565b9150614b2382614abc565b604082019050919050565b60006020820190508181036000830152614b4781614b0b565b9050919050565b7f5549544e4654546f6b656e3a206c656e677468206f66205f6964732c205f616d60008201527f6f756e747320617265206e6f74207468652073616d6500000000000000000000602082015250565b6000614baa6036836137d7565b9150614bb582614b4e565b604082019050919050565b60006020820190508181036000830152614bd981614b9d565b9050919050565b6000614beb82613671565b9150614bf683613671565b925082821015614c0957614c0861471d565b5b828203905092915050565b600081905092915050565b614c2881613671565b82525050565b6000614c3a8383614c1f565b60208301905092915050565b6000614c5182613e87565b614c5b8185614c14565b9350614c6683613ea3565b8060005b83811015614c97578151614c7e8882614c2e565b9750614c8983613eda565b925050600181019050614c6a565b5085935050505092915050565b6000614cb08284614c46565b915081905092915050565b7f5549544e4654546f6b656e3a20416d6f756e74206f66206974656d7320746f2060008201527f6275726e206d757374206265206d6f7265207468616e20300000000000000000602082015250565b6000614d176038836137d7565b9150614d2282614cbb565b604082019050919050565b60006020820190508181036000830152614d4681614d0a565b9050919050565b7f5549544e4654546f6b656e3a204e6f7420656e6f756768206974656d7320746f60008201527f204275726e000000000000000000000000000000000000000000000000000000602082015250565b6000614da96025836137d7565b9150614db482614d4d565b604082019050919050565b60006020820190508181036000830152614dd881614d9c565b9050919050565b7f496e697469616c697a61626c653a20636f6e747261637420697320616c72656160008201527f647920696e697469616c697a6564000000000000000000000000000000000000602082015250565b6000614e3b602e836137d7565b9150614e4682614ddf565b604082019050919050565b60006020820190508181036000830152614e6a81614e2e565b9050919050565b7f455243313135353a2063616c6c6572206973206e6f74206f776e6572206e6f7260008201527f20617070726f7665640000000000000000000000000000000000000000000000602082015250565b6000614ecd6029836137d7565b9150614ed882614e71565b604082019050919050565b60006020820190508181036000830152614efc81614ec0565b9050919050565b7f4f776e61626c653a206e6577206f776e657220697320746865207a65726f206160008201527f6464726573730000000000000000000000000000000000000000000000000000602082015250565b6000614f5f6026836137d7565b9150614f6a82614f03565b604082019050919050565b60006020820190508181036000830152614f8e81614f52565b9050919050565b7f4e487b7100000000000000000000000000000000000000000000000000000000600052601260045260246000fd5b6000614fcf82613671565b9150614fda83613671565b925082614fea57614fe9614f95565b5b828204905092915050565b600061500082613671565b915061500b83613671565b92508261501b5761501a614f95565b5b828206905092915050565b7f455243313135353a2069647320616e6420616d6f756e7473206c656e6774682060008201527f6d69736d61746368000000000000000000000000000000000000000000000000602082015250565b60006150826028836137d7565b915061508d82615026565b604082019050919050565b600060208201905081810360008301526150b181615075565b9050919050565b7f455243313135353a207472616e7366657220746f20746865207a65726f20616460008201527f6472657373000000000000000000000000000000000000000000000000000000602082015250565b60006151146025836137d7565b915061511f826150b8565b604082019050919050565b6000602082019050818103600083015261514381615107565b9050919050565b7f455243313135353a20696e73756666696369656e742062616c616e636520666f60008201527f72207472616e7366657200000000000000000000000000000000000000000000602082015250565b60006151a6602a836137d7565b91506151b18261514a565b604082019050919050565b600060208201905081810360008301526151d581615199565b9050919050565b600060408201905081810360008301526151f68185613ee7565b9050818103602083015261520a8184613ee7565b90509392505050565b7f455243313135353a206d696e7420746f20746865207a65726f2061646472657360008201527f7300000000000000000000000000000000000000000000000000000000000000602082015250565b600061526f6021836137d7565b915061527a82615213565b604082019050919050565b6000602082019050818103600083015261529e81615262565b9050919050565b60006040820190506152ba60008301856136e7565b6152c760208301846136e7565b9392505050565b7f455243313135353a206275726e2066726f6d20746865207a65726f206164647260008201527f6573730000000000000000000000000000000000000000000000000000000000602082015250565b600061532a6023836137d7565b9150615335826152ce565b604082019050919050565b600060208201905081810360008301526153598161531d565b9050919050565b7f455243313135353a206275726e20616d6f756e7420657863656564732062616c60008201527f616e636500000000000000000000000000000000000000000000000000000000602082015250565b60006153bc6024836137d7565b91506153c782615360565b604082019050919050565b600060208201905081810360008301526153eb816153af565b9050919050565b7f455243313135353a2073657474696e6720617070726f76616c2073746174757360008201527f20666f722073656c660000000000000000000000000000000000000000000000602082015250565b600061544e6029836137d7565b9150615459826153f2565b604082019050919050565b6000602082019050818103600083015261547d81615441565b9050919050565b7f496e697469616c697a61626c653a20636f6e7472616374206973206e6f74206960008201527f6e697469616c697a696e67000000000000000000000000000000000000000000602082015250565b60006154e0602b836137d7565b91506154eb82615484565b604082019050919050565b6000602082019050818103600083015261550f816154d3565b9050919050565b600081519050919050565b600082825260208201905092915050565b600061553d82615516565b6155478185615521565b93506155578185602086016137e8565b6155608161381b565b840191505092915050565b600060a0820190506155806000830188613fba565b61558d6020830187613fba565b818103604083015261559f8186613ee7565b905081810360608301526155b38185613ee7565b905081810360808301526155c78184615532565b90509695505050505050565b6000815190506155e28161373d565b92915050565b6000602082840312156155fe576155fd613609565b5b600061560c848285016155d3565b91505092915050565b60008160e01c9050919050565b600060033d11156156415760046000803e61563e600051615615565b90505b90565b600060443d106156d1576156566135ff565b60043d036004823e80513d602482011167ffffffffffffffff8211171561567e5750506156d1565b808201805167ffffffffffffffff81111561569c57505050506156d1565b80602083010160043d0385018111156156b95750505050506156d1565b6156c882602001850186613915565b82955050505050505b90565b7f455243313135353a207472616e7366657220746f206e6f6e204552433131353560008201527f526563656976657220696d706c656d656e746572000000000000000000000000602082015250565b60006157306034836137d7565b915061573b826156d4565b604082019050919050565b6000602082019050818103600083015261575f81615723565b9050919050565b7f455243313135353a204552433131353552656365697665722072656a6563746560008201527f6420746f6b656e73000000000000000000000000000000000000000000000000602082015250565b60006157c26028836137d7565b91506157cd82615766565b604082019050919050565b600060208201905081810360008301526157f1816157b5565b9050919050565b600060a08201905061580d6000830188613fba565b61581a6020830187613fba565b61582760408301866136e7565b61583460608301856136e7565b81810360808301526158468184615532565b9050969550505050505056fea2646970667358221220fdae516536a6ffa379228ecdb4b333068fe32b31a8107116a5bb455ca9dc66a664736f6c634300080e0033",
  "immutableReferences": {},
  "source": "//SPDX-License-Identifier: MIT\r\npragma solidity ^0.8.0;\r\n\r\nimport \"@openzeppelin/contracts-upgradeable/token/ERC1155/extensions/ERC1155SupplyUpgradeable.sol\";\r\nimport \"@openzeppelin/contracts/utils/Counters.sol\";\r\nimport \"@openzeppelin/contracts/utils/Strings.sol\";\r\nimport \"../common/OperatableUpgradeable.sol\";\r\nimport \"./interfaces/IUITNFTToken.sol\";\r\n\r\ncontract UITNFTToken is ERC1155SupplyUpgradeable, OperatableUpgradeable, IUITNFTToken {\r\n\r\n    using Strings for uint256;\r\n    using Counters for Counters.Counter;\r\n\r\n    string public name;\r\n    string public symbol;\r\n\r\n    uint public totalSupply;\r\n\r\n    Counters.Counter private idIndex;\r\n\r\n    mapping(uint => NFTInfo) nftInfo;\r\n    mapping(uint => bool) public nonce;\r\n\r\n    function initialize(string memory _name, string memory _symbol, string memory _uri) external initializer {\r\n        name = _name;\r\n        symbol = _symbol;\r\n        __ERC1155_init(_uri);\r\n        __operatable_init();\r\n    }\r\n\r\n    function uri(uint id) public view override (ERC1155Upgradeable, IUITNFTToken) returns (string memory) {\r\n        string memory _uri = super.uri(id);\r\n        return bytes(_uri).length > 0 ? string(abi.encodePacked(_uri, id.toString())) : \"\";\r\n    }\r\n\r\n    function setUri(string memory _uri) external onlyOwner {\r\n        _setURI(_uri);\r\n    }\r\n\r\n    function setNFTInfo(uint _id, NFTInfo memory _nftInfo)\r\n        external\r\n        override\r\n        onlyOperator\r\n    {\r\n        nftInfo[_id] = _nftInfo;\r\n\r\n        emit NFTInfoUpdated(_id, _nftInfo);\r\n    }\r\n\r\n    function getNFTInfo(uint _id) external view override onlyOperator returns(NFTInfo memory) {\r\n        return nftInfo[_id];\r\n    }\r\n\r\n    function getIdIndex() external view override onlyOperator returns(uint) {\r\n        return idIndex.current();\r\n    }\r\n\r\n    function mint(uint _id, address _account, uint _amount) public override onlyOperator virtual {\r\n        require(_amount > 0, \"UITNFTToken: Amount of items to mint must be more than 0\");\r\n        _mint(_account, _id, _amount, \"\");\r\n        totalSupply += _amount;\r\n\r\n        emit NFTMinted(_id, _account, _amount, nftInfo[_id]);\r\n    }\r\n\r\n    function mint(address _account, uint _amount, NFTInfo memory _nftInfo)\r\n        external\r\n        override\r\n        onlyOperator\r\n    {\r\n        idIndex.increment();\r\n        uint id = idIndex.current();\r\n        require(!nonce[id], \"UITNFTToken: itemId must be unique\");\r\n        nftInfo[id] = _nftInfo;\r\n        mint(id, _account, _amount);\r\n        nonce[id] = true;\r\n    }\r\n\r\n    function burn(uint _id, address _account, uint _amount) public override virtual {\r\n        require(\r\n            _account == _msgSender() || isApprovedForAll(_account, _msgSender()),\r\n            \"UITNFTToken: caller is not owner nor approved\"\r\n        );\r\n        require(_amount > 0, \"UITNFTToken: Amount of items to burn must be more than 0\");\r\n        require(balanceOf(_account, _id) >= _amount, \"UITNFTToken: Not enough items to Burn\");\r\n        _burn(_account, _id, _amount);\r\n        totalSupply -= _amount;\r\n\r\n        emit NFTBurned(_id, _account, _amount);\r\n    }\r\n\r\n    function burnBatch(uint[] memory _ids, address _account, uint[] memory _amounts) public override {\r\n        require(\r\n            _account == _msgSender() || isApprovedForAll(_account, _msgSender()),\r\n            \"UITNFTToken: caller is not owner nor approved\"\r\n        );\r\n        require(_ids.length == _amounts.length, \"UITNFTToken: length of _ids, _amounts are not the same\");\r\n        uint totalBurnAmount;\r\n        for (uint i; i < _ids.length; i++) {\r\n            totalBurnAmount += _amounts[i];\r\n        }\r\n        _burnBatch(_account, _ids, _amounts);\r\n        totalSupply -= totalBurnAmount;\r\n\r\n        emit NFTBurnBatched(_ids, _account, _amounts);\r\n    }\r\n\r\n    function createNFT(NFTInfo memory _nftInfo)\r\n        external\r\n        override\r\n        onlyOperator\r\n    {\r\n        idIndex.increment();\r\n        uint id = idIndex.current();\r\n        require(!nonce[id], \"UITNFTToken: itemId must be unique\");\r\n        nftInfo[id] = _nftInfo;\r\n        nonce[id] = true;\r\n\r\n        emit NFTCreated(id, _nftInfo);\r\n    }\r\n}\r\n",
  "sourcePath": "E:\\KLTN\\KLTN\\KLTN-contracts\\contracts\\token\\UITNFTToken.sol",
  "compiler": {
    "name": "solc",
    "version": "0.8.14+commit.80d49f37.Emscripten.clang"
  },
  "schemaVersion": "3.4.3",
  "updatedAt": "2022-05-21T08:22:32.817Z",
  "networkType": "ethereum",
  "devdoc": {
    "kind": "dev",
    "methods": {
      "balanceOf(address,uint256)": {
        "details": "See {IERC1155-balanceOf}. Requirements: - `account` cannot be the zero address."
      },
      "balanceOfBatch(address[],uint256[])": {
        "details": "See {IERC1155-balanceOfBatch}. Requirements: - `accounts` and `ids` must have the same length."
      },
      "exists(uint256)": {
        "details": "Indicates whether any token exist with a given id, or not."
      },
      "isApprovedForAll(address,address)": {
        "details": "See {IERC1155-isApprovedForAll}."
      },
      "owner()": {
        "details": "Returns the address of the current owner."
      },
      "renounceOwnership()": {
        "details": "Leaves the contract without owner. It will not be possible to call `onlyOwner` functions anymore. Can only be called by the current owner. NOTE: Renouncing ownership will leave the contract without an owner, thereby removing any functionality that is only available to the owner."
      },
      "safeBatchTransferFrom(address,address,uint256[],uint256[],bytes)": {
        "details": "See {IERC1155-safeBatchTransferFrom}."
      },
      "safeTransferFrom(address,address,uint256,uint256,bytes)": {
        "details": "See {IERC1155-safeTransferFrom}."
      },
      "setApprovalForAll(address,bool)": {
        "details": "See {IERC1155-setApprovalForAll}."
      },
      "supportsInterface(bytes4)": {
        "details": "See {IERC165-supportsInterface}."
      },
      "totalSupply(uint256)": {
        "details": "Total amount of tokens in with a given id."
      },
      "transferOwnership(address)": {
        "details": "Transfers ownership of the contract to a new account (`newOwner`). Can only be called by the current owner."
      }
    },
    "version": 1
  },
  "userdoc": {
    "kind": "user",
    "methods": {},
    "version": 1
  }
}