{
  "contractName": "UITNFTToken",
  "abi": [
    {
      "anonymous": false,
      "inputs": [
        {
          "indexed": true,
          "internalType": "address",
          "name": "account",
          "type": "address"
        },
        {
          "indexed": true,
          "internalType": "address",
          "name": "operator",
          "type": "address"
        },
        {
          "indexed": false,
          "internalType": "bool",
          "name": "approved",
          "type": "bool"
        }
      ],
      "name": "ApprovalForAll",
      "type": "event"
    },
    {
      "anonymous": false,
      "inputs": [
        {
          "indexed": true,
          "internalType": "uint256[]",
          "name": "_ids",
          "type": "uint256[]"
        },
        {
          "indexed": true,
          "internalType": "address",
          "name": "_account",
          "type": "address"
        },
        {
          "indexed": false,
          "internalType": "uint256[]",
          "name": "_amounts",
          "type": "uint256[]"
        }
      ],
      "name": "NFTBurnBatched",
      "type": "event"
    },
    {
      "anonymous": false,
      "inputs": [
        {
          "indexed": true,
          "internalType": "uint256",
          "name": "_id",
          "type": "uint256"
        },
        {
          "indexed": true,
          "internalType": "address",
          "name": "_account",
          "type": "address"
        },
        {
          "indexed": false,
          "internalType": "uint256",
          "name": "_amount",
          "type": "uint256"
        }
      ],
      "name": "NFTBurned",
      "type": "event"
    },
    {
      "anonymous": false,
      "inputs": [
        {
          "indexed": true,
          "internalType": "uint256",
          "name": "_id",
          "type": "uint256"
        },
        {
          "components": [
            {
              "internalType": "string",
              "name": "metadataInHash",
              "type": "string"
            },
            {
              "internalType": "bool",
              "name": "isCourseNFT",
              "type": "bool"
            }
          ],
          "indexed": false,
          "internalType": "struct ISharedStruct.NFTInfo",
          "name": "_nftInfo",
          "type": "tuple"
        }
      ],
      "name": "NFTCreated",
      "type": "event"
    },
    {
      "anonymous": false,
      "inputs": [
        {
          "indexed": true,
          "internalType": "uint256",
          "name": "_id",
          "type": "uint256"
        },
        {
          "components": [
            {
              "internalType": "string",
              "name": "metadataInHash",
              "type": "string"
            },
            {
              "internalType": "bool",
              "name": "isCourseNFT",
              "type": "bool"
            }
          ],
          "indexed": false,
          "internalType": "struct ISharedStruct.NFTInfo",
          "name": "_nftInfo",
          "type": "tuple"
        }
      ],
      "name": "NFTInfoUpdated",
      "type": "event"
    },
    {
      "anonymous": false,
      "inputs": [
        {
          "indexed": true,
          "internalType": "uint256",
          "name": "_id",
          "type": "uint256"
        },
        {
          "indexed": true,
          "internalType": "address",
          "name": "_account",
          "type": "address"
        },
        {
          "indexed": false,
          "internalType": "uint256",
          "name": "_amount",
          "type": "uint256"
        },
        {
          "components": [
            {
              "internalType": "string",
              "name": "metadataInHash",
              "type": "string"
            },
            {
              "internalType": "bool",
              "name": "isCourseNFT",
              "type": "bool"
            }
          ],
          "indexed": false,
          "internalType": "struct ISharedStruct.NFTInfo",
          "name": "_nftInfo",
          "type": "tuple"
        }
      ],
      "name": "NFTMinted",
      "type": "event"
    },
    {
      "anonymous": false,
      "inputs": [
        {
          "indexed": true,
          "internalType": "address",
          "name": "previousOwner",
          "type": "address"
        },
        {
          "indexed": true,
          "internalType": "address",
          "name": "newOwner",
          "type": "address"
        }
      ],
      "name": "OwnershipTransferred",
      "type": "event"
    },
    {
      "anonymous": false,
      "inputs": [
        {
          "indexed": true,
          "internalType": "address",
          "name": "operator",
          "type": "address"
        },
        {
          "indexed": true,
          "internalType": "address",
          "name": "from",
          "type": "address"
        },
        {
          "indexed": true,
          "internalType": "address",
          "name": "to",
          "type": "address"
        },
        {
          "indexed": false,
          "internalType": "uint256[]",
          "name": "ids",
          "type": "uint256[]"
        },
        {
          "indexed": false,
          "internalType": "uint256[]",
          "name": "values",
          "type": "uint256[]"
        }
      ],
      "name": "TransferBatch",
      "type": "event"
    },
    {
      "anonymous": false,
      "inputs": [
        {
          "indexed": true,
          "internalType": "address",
          "name": "operator",
          "type": "address"
        },
        {
          "indexed": true,
          "internalType": "address",
          "name": "from",
          "type": "address"
        },
        {
          "indexed": true,
          "internalType": "address",
          "name": "to",
          "type": "address"
        },
        {
          "indexed": false,
          "internalType": "uint256",
          "name": "id",
          "type": "uint256"
        },
        {
          "indexed": false,
          "internalType": "uint256",
          "name": "value",
          "type": "uint256"
        }
      ],
      "name": "TransferSingle",
      "type": "event"
    },
    {
      "anonymous": false,
      "inputs": [
        {
          "indexed": false,
          "internalType": "string",
          "name": "value",
          "type": "string"
        },
        {
          "indexed": true,
          "internalType": "uint256",
          "name": "id",
          "type": "uint256"
        }
      ],
      "name": "URI",
      "type": "event"
    },
    {
      "inputs": [
        {
          "internalType": "address",
          "name": "operator",
          "type": "address"
        }
      ],
      "name": "addOperator",
      "outputs": [],
      "stateMutability": "nonpayable",
      "type": "function"
    },
    {
      "inputs": [
        {
          "internalType": "address",
          "name": "account",
          "type": "address"
        },
        {
          "internalType": "uint256",
          "name": "id",
          "type": "uint256"
        }
      ],
      "name": "balanceOf",
      "outputs": [
        {
          "internalType": "uint256",
          "name": "",
          "type": "uint256"
        }
      ],
      "stateMutability": "view",
      "type": "function",
      "constant": true
    },
    {
      "inputs": [
        {
          "internalType": "address[]",
          "name": "accounts",
          "type": "address[]"
        },
        {
          "internalType": "uint256[]",
          "name": "ids",
          "type": "uint256[]"
        }
      ],
      "name": "balanceOfBatch",
      "outputs": [
        {
          "internalType": "uint256[]",
          "name": "",
          "type": "uint256[]"
        }
      ],
      "stateMutability": "view",
      "type": "function",
      "constant": true
    },
    {
      "inputs": [
        {
          "internalType": "uint256",
          "name": "id",
          "type": "uint256"
        }
      ],
      "name": "exists",
      "outputs": [
        {
          "internalType": "bool",
          "name": "",
          "type": "bool"
        }
      ],
      "stateMutability": "view",
      "type": "function",
      "constant": true
    },
    {
      "inputs": [
        {
          "internalType": "address",
          "name": "account",
          "type": "address"
        },
        {
          "internalType": "address",
          "name": "operator",
          "type": "address"
        }
      ],
      "name": "isApprovedForAll",
      "outputs": [
        {
          "internalType": "bool",
          "name": "",
          "type": "bool"
        }
      ],
      "stateMutability": "view",
      "type": "function",
      "constant": true
    },
    {
      "inputs": [],
      "name": "name",
      "outputs": [
        {
          "internalType": "string",
          "name": "",
          "type": "string"
        }
      ],
      "stateMutability": "view",
      "type": "function",
      "constant": true
    },
    {
      "inputs": [
        {
          "internalType": "uint256",
          "name": "",
          "type": "uint256"
        }
      ],
      "name": "nonce",
      "outputs": [
        {
          "internalType": "bool",
          "name": "",
          "type": "bool"
        }
      ],
      "stateMutability": "view",
      "type": "function",
      "constant": true
    },
    {
      "inputs": [
        {
          "internalType": "address",
          "name": "",
          "type": "address"
        }
      ],
      "name": "operators",
      "outputs": [
        {
          "internalType": "bool",
          "name": "",
          "type": "bool"
        }
      ],
      "stateMutability": "view",
      "type": "function",
      "constant": true
    },
    {
      "inputs": [],
      "name": "owner",
      "outputs": [
        {
          "internalType": "address",
          "name": "",
          "type": "address"
        }
      ],
      "stateMutability": "view",
      "type": "function",
      "constant": true
    },
    {
      "inputs": [
        {
          "internalType": "address",
          "name": "operator",
          "type": "address"
        }
      ],
      "name": "removeOperator",
      "outputs": [],
      "stateMutability": "nonpayable",
      "type": "function"
    },
    {
      "inputs": [],
      "name": "renounceOwnership",
      "outputs": [],
      "stateMutability": "nonpayable",
      "type": "function"
    },
    {
      "inputs": [
        {
          "internalType": "address",
          "name": "from",
          "type": "address"
        },
        {
          "internalType": "address",
          "name": "to",
          "type": "address"
        },
        {
          "internalType": "uint256[]",
          "name": "ids",
          "type": "uint256[]"
        },
        {
          "internalType": "uint256[]",
          "name": "amounts",
          "type": "uint256[]"
        },
        {
          "internalType": "bytes",
          "name": "data",
          "type": "bytes"
        }
      ],
      "name": "safeBatchTransferFrom",
      "outputs": [],
      "stateMutability": "nonpayable",
      "type": "function"
    },
    {
      "inputs": [
        {
          "internalType": "address",
          "name": "from",
          "type": "address"
        },
        {
          "internalType": "address",
          "name": "to",
          "type": "address"
        },
        {
          "internalType": "uint256",
          "name": "id",
          "type": "uint256"
        },
        {
          "internalType": "uint256",
          "name": "amount",
          "type": "uint256"
        },
        {
          "internalType": "bytes",
          "name": "data",
          "type": "bytes"
        }
      ],
      "name": "safeTransferFrom",
      "outputs": [],
      "stateMutability": "nonpayable",
      "type": "function"
    },
    {
      "inputs": [
        {
          "internalType": "address",
          "name": "operator",
          "type": "address"
        },
        {
          "internalType": "bool",
          "name": "approved",
          "type": "bool"
        }
      ],
      "name": "setApprovalForAll",
      "outputs": [],
      "stateMutability": "nonpayable",
      "type": "function"
    },
    {
      "inputs": [
        {
          "internalType": "bytes4",
          "name": "interfaceId",
          "type": "bytes4"
        }
      ],
      "name": "supportsInterface",
      "outputs": [
        {
          "internalType": "bool",
          "name": "",
          "type": "bool"
        }
      ],
      "stateMutability": "view",
      "type": "function",
      "constant": true
    },
    {
      "inputs": [],
      "name": "symbol",
      "outputs": [
        {
          "internalType": "string",
          "name": "",
          "type": "string"
        }
      ],
      "stateMutability": "view",
      "type": "function",
      "constant": true
    },
    {
      "inputs": [],
      "name": "totalSupply",
      "outputs": [
        {
          "internalType": "uint256",
          "name": "",
          "type": "uint256"
        }
      ],
      "stateMutability": "view",
      "type": "function",
      "constant": true
    },
    {
      "inputs": [
        {
          "internalType": "uint256",
          "name": "id",
          "type": "uint256"
        }
      ],
      "name": "totalSupply",
      "outputs": [
        {
          "internalType": "uint256",
          "name": "",
          "type": "uint256"
        }
      ],
      "stateMutability": "view",
      "type": "function",
      "constant": true
    },
    {
      "inputs": [
        {
          "internalType": "address",
          "name": "newOwner",
          "type": "address"
        }
      ],
      "name": "transferOwnership",
      "outputs": [],
      "stateMutability": "nonpayable",
      "type": "function"
    },
    {
      "inputs": [
        {
          "internalType": "string",
          "name": "_name",
          "type": "string"
        },
        {
          "internalType": "string",
          "name": "_symbol",
          "type": "string"
        },
        {
          "internalType": "string",
          "name": "_uri",
          "type": "string"
        }
      ],
      "name": "initialize",
      "outputs": [],
      "stateMutability": "nonpayable",
      "type": "function"
    },
    {
      "inputs": [
        {
          "internalType": "uint256",
          "name": "id",
          "type": "uint256"
        }
      ],
      "name": "uri",
      "outputs": [
        {
          "internalType": "string",
          "name": "",
          "type": "string"
        }
      ],
      "stateMutability": "view",
      "type": "function",
      "constant": true
    },
    {
      "inputs": [
        {
          "internalType": "string",
          "name": "_uri",
          "type": "string"
        }
      ],
      "name": "setUri",
      "outputs": [],
      "stateMutability": "nonpayable",
      "type": "function"
    },
    {
      "inputs": [
        {
          "internalType": "uint256",
          "name": "_id",
          "type": "uint256"
        },
        {
          "components": [
            {
              "internalType": "string",
              "name": "metadataInHash",
              "type": "string"
            },
            {
              "internalType": "bool",
              "name": "isCourseNFT",
              "type": "bool"
            }
          ],
          "internalType": "struct ISharedStruct.NFTInfo",
          "name": "_nftInfo",
          "type": "tuple"
        }
      ],
      "name": "setNFTInfo",
      "outputs": [],
      "stateMutability": "nonpayable",
      "type": "function"
    },
    {
      "inputs": [
        {
          "internalType": "uint256",
          "name": "_id",
          "type": "uint256"
        }
      ],
      "name": "getNFTInfo",
      "outputs": [
        {
          "components": [
            {
              "internalType": "string",
              "name": "metadataInHash",
              "type": "string"
            },
            {
              "internalType": "bool",
              "name": "isCourseNFT",
              "type": "bool"
            }
          ],
          "internalType": "struct ISharedStruct.NFTInfo",
          "name": "",
          "type": "tuple"
        }
      ],
      "stateMutability": "view",
      "type": "function",
      "constant": true
    },
    {
      "inputs": [],
      "name": "getIdIndex",
      "outputs": [
        {
          "internalType": "uint256",
          "name": "",
          "type": "uint256"
        }
      ],
      "stateMutability": "view",
      "type": "function",
      "constant": true
    },
    {
      "inputs": [
        {
          "internalType": "uint256",
          "name": "_id",
          "type": "uint256"
        },
        {
          "internalType": "address",
          "name": "_account",
          "type": "address"
        },
        {
          "internalType": "uint256",
          "name": "_amount",
          "type": "uint256"
        }
      ],
      "name": "mint",
      "outputs": [],
      "stateMutability": "nonpayable",
      "type": "function"
    },
    {
      "inputs": [
        {
          "internalType": "address",
          "name": "_account",
          "type": "address"
        },
        {
          "internalType": "uint256",
          "name": "_amount",
          "type": "uint256"
        },
        {
          "components": [
            {
              "internalType": "string",
              "name": "metadataInHash",
              "type": "string"
            },
            {
              "internalType": "bool",
              "name": "isCourseNFT",
              "type": "bool"
            }
          ],
          "internalType": "struct ISharedStruct.NFTInfo",
          "name": "_nftInfo",
          "type": "tuple"
        }
      ],
      "name": "mint",
      "outputs": [],
      "stateMutability": "nonpayable",
      "type": "function"
    },
    {
      "inputs": [
        {
          "internalType": "uint256",
          "name": "_id",
          "type": "uint256"
        },
        {
          "internalType": "address",
          "name": "_account",
          "type": "address"
        },
        {
          "internalType": "uint256",
          "name": "_amount",
          "type": "uint256"
        }
      ],
      "name": "burn",
      "outputs": [],
      "stateMutability": "nonpayable",
      "type": "function"
    },
    {
      "inputs": [
        {
          "internalType": "uint256[]",
          "name": "_ids",
          "type": "uint256[]"
        },
        {
          "internalType": "address",
          "name": "_account",
          "type": "address"
        },
        {
          "internalType": "uint256[]",
          "name": "_amounts",
          "type": "uint256[]"
        }
      ],
      "name": "burnBatch",
      "outputs": [],
      "stateMutability": "nonpayable",
      "type": "function"
    },
    {
      "inputs": [
        {
          "components": [
            {
              "internalType": "string",
              "name": "metadataInHash",
              "type": "string"
            },
            {
              "internalType": "bool",
              "name": "isCourseNFT",
              "type": "bool"
            }
          ],
          "internalType": "struct ISharedStruct.NFTInfo",
          "name": "_nftInfo",
          "type": "tuple"
        }
      ],
      "name": "createNFT",
      "outputs": [],
      "stateMutability": "nonpayable",
      "type": "function"
    }
  ],
  "bytecode": "0x608060405234801561001057600080fd5b5061577080620000216000396000f3fe608060405234801561001057600080fd5b50600436106101d95760003560e01c806395d89b4111610104578063ac8a584a116100a2578063d188929f11610071578063d188929f1461054e578063e985e9c51461057e578063f242432a146105ae578063f2fde38b146105ca576101d9565b8063ac8a584a146104b4578063b02a2756146104d0578063bd85b039146104ee578063ce03fdab1461051e576101d9565b80639eea5f66116100de5780639eea5f6614610444578063a22cb46514610460578063a6487c531461047c578063ab023d4414610498576101d9565b806395d89b41146103ee5780639870d7fe1461040c5780639b642de114610428576101d9565b80633545d3c71161017c578063836a10401161014b578063836a10401461037c5780638da5cb5b1461039857806391ac2c4e146103b657806393f7d6c7146103d2576101d9565b80633545d3c7146102f65780634e1273f4146103125780634f558e7914610342578063715018a614610372576101d9565b80630e89341c116101b85780630e89341c1461025c57806313e7c9d81461028c57806318160ddd146102bc5780632eb2c2d6146102da576101d9565b8062fdd58e146101de57806301ffc9a71461020e57806306fdde031461023e575b600080fd5b6101f860048036038101906101f3919061358f565b6105e6565b60405161020591906135de565b60405180910390f35b61022860048036038101906102239190613651565b6106af565b6040516102359190613699565b60405180910390f35b610246610791565b604051610253919061374d565b60405180910390f35b6102766004803603810190610271919061376f565b61081f565b604051610283919061374d565b60405180910390f35b6102a660048036038101906102a1919061379c565b61087f565b6040516102b39190613699565b60405180910390f35b6102c461089f565b6040516102d191906135de565b60405180910390f35b6102f460048036038101906102ef91906139c6565b6108a5565b005b610310600480360381019061030b9190613bd8565b610946565b005b61032c60048036038101906103279190613cf7565b610a63565b6040516103399190613e2d565b60405180910390f35b61035c6004803603810190610357919061376f565b610b7c565b6040516103699190613699565b60405180910390f35b61037a610b90565b005b61039660048036038101906103919190613e4f565b610c18565b005b6103a0610d84565b6040516103ad9190613eb1565b60405180910390f35b6103d060048036038101906103cb9190613ecc565b610dae565b005b6103ec60048036038101906103e79190613f15565b610f72565b005b6103f661111a565b604051610403919061374d565b60405180910390f35b6104266004803603810190610421919061379c565b6111a8565b005b610442600480360381019061043d9190613fa0565b61127f565b005b61045e60048036038101906104599190613e4f565b611307565b005b61047a60048036038101906104759190613fe9565b61149b565b005b61049660048036038101906104919190614029565b6114b1565b005b6104b260048036038101906104ad91906140d0565b6115d7565b005b6104ce60048036038101906104c9919061379c565b611770565b005b6104d8611847565b6040516104e591906135de565b60405180910390f35b6105086004803603810190610503919061376f565b611858565b60405161051591906135de565b60405180910390f35b6105386004803603810190610533919061376f565b611875565b6040516105459190613699565b60405180910390f35b6105686004803603810190610563919061376f565b611896565b60405161057591906141d5565b60405180910390f35b610598600480360381019061059391906141f7565b611971565b6040516105a59190613699565b60405180910390f35b6105c860048036038101906105c39190614237565b611a05565b005b6105e460048036038101906105df919061379c565b611aa6565b005b60008073ffffffffffffffffffffffffffffffffffffffff168373ffffffffffffffffffffffffffffffffffffffff1603610656576040517f08c379a000000000000000000000000000000000000000000000000000000000815260040161064d90614340565b60405180910390fd5b6065600083815260200190815260200160002060008473ffffffffffffffffffffffffffffffffffffffff1673ffffffffffffffffffffffffffffffffffffffff16815260200190815260200160002054905092915050565b60007fd9b67a26000000000000000000000000000000000000000000000000000000007bffffffffffffffffffffffffffffffffffffffffffffffffffffffff1916827bffffffffffffffffffffffffffffffffffffffffffffffffffffffff1916148061077a57507f0e89341c000000000000000000000000000000000000000000000000000000007bffffffffffffffffffffffffffffffffffffffffffffffffffffffff1916827bffffffffffffffffffffffffffffffffffffffffffffffffffffffff1916145b8061078a575061078982611b9d565b5b9050919050565b60fc805461079e9061438f565b80601f01602080910402602001604051908101604052809291908181526020018280546107ca9061438f565b80156108175780601f106107ec57610100808354040283529160200191610817565b820191906000526020600020905b8154815290600101906020018083116107fa57829003601f168201915b505050505081565b6060600061082c83611c07565b9050600081511161084c5760405180602001604052806000815250610877565b8061085684611c9b565b6040516020016108679291906143fc565b6040516020818303038152906040525b915050919050565b60fb6020528060005260406000206000915054906101000a900460ff1681565b60fe5481565b6108ad611dfb565b73ffffffffffffffffffffffffffffffffffffffff168573ffffffffffffffffffffffffffffffffffffffff1614806108f357506108f2856108ed611dfb565b611971565b5b610932576040517f08c379a000000000000000000000000000000000000000000000000000000000815260040161092990614492565b60405180910390fd5b61093f8585858585611e03565b5050505050565b60fb60003373ffffffffffffffffffffffffffffffffffffffff1673ffffffffffffffffffffffffffffffffffffffff16815260200190815260200160002060009054906101000a900460ff166109d2576040517f08c379a00000000000000000000000000000000000000000000000000000000081526004016109c990614524565b60405180910390fd5b8061010060008481526020019081526020016000206000820151816000019080519060200190610a03929190613428565b5060208201518160010160006101000a81548160ff021916908315150217905550905050817fe99169418508e71624f7d14602f4e4b7e9810eb1cb18bb97bfb8f5dc771a416c82604051610a5791906141d5565b60405180910390a25050565b60608151835114610aa9576040517f08c379a0000000000000000000000000000000000000000000000000000000008152600401610aa0906145b6565b60405180910390fd5b6000835167ffffffffffffffff811115610ac657610ac56137ce565b5b604051908082528060200260200182016040528015610af45781602001602082028036833780820191505090505b50905060005b8451811015610b7157610b41858281518110610b1957610b186145d6565b5b6020026020010151858381518110610b3457610b336145d6565b5b60200260200101516105e6565b828281518110610b5457610b536145d6565b5b60200260200101818152505080610b6a90614634565b9050610afa565b508091505092915050565b600080610b8883611858565b119050919050565b610b98611dfb565b73ffffffffffffffffffffffffffffffffffffffff16610bb6610d84565b73ffffffffffffffffffffffffffffffffffffffff1614610c0c576040517f08c379a0000000000000000000000000000000000000000000000000000000008152600401610c03906146c8565b60405180910390fd5b610c166000612119565b565b60fb60003373ffffffffffffffffffffffffffffffffffffffff1673ffffffffffffffffffffffffffffffffffffffff16815260200190815260200160002060009054906101000a900460ff16610ca4576040517f08c379a0000000000000000000000000000000000000000000000000000000008152600401610c9b90614524565b60405180910390fd5b60008111610ce7576040517f08c379a0000000000000000000000000000000000000000000000000000000008152600401610cde9061475a565b60405180910390fd5b610d02828483604051806020016040528060008152506121df565b8060fe6000828254610d14919061477a565b925050819055508173ffffffffffffffffffffffffffffffffffffffff16837fd3c2c95cb9cebcb225edf4e9fa8f674bf107ca191820eef5456d8b3fd64d8064836101006000888152602001908152602001600020604051610d779291906148e2565b60405180910390a3505050565b600060c960009054906101000a900473ffffffffffffffffffffffffffffffffffffffff16905090565b60fb60003373ffffffffffffffffffffffffffffffffffffffff1673ffffffffffffffffffffffffffffffffffffffff16815260200190815260200160002060009054906101000a900460ff16610e3a576040517f08c379a0000000000000000000000000000000000000000000000000000000008152600401610e3190614524565b60405180910390fd5b610e4460ff612375565b6000610e5060ff61238b565b9050610101600082815260200190815260200160002060009054906101000a900460ff1615610eb4576040517f08c379a0000000000000000000000000000000000000000000000000000000008152600401610eab90614984565b60405180910390fd5b8161010060008381526020019081526020016000206000820151816000019080519060200190610ee5929190613428565b5060208201518160010160006101000a81548160ff0219169083151502179055509050506001610101600083815260200190815260200160002060006101000a81548160ff021916908315150217905550807fdc9b10ed49d4b2b90a276a5a1e5cf03a124a16e960deb1958159c205dda3972483604051610f6691906141d5565b60405180910390a25050565b610f7a611dfb565b73ffffffffffffffffffffffffffffffffffffffff168273ffffffffffffffffffffffffffffffffffffffff161480610fc05750610fbf82610fba611dfb565b611971565b5b610fff576040517f08c379a0000000000000000000000000000000000000000000000000000000008152600401610ff690614a16565b60405180910390fd5b8051835114611043576040517f08c379a000000000000000000000000000000000000000000000000000000000815260040161103a90614aa8565b60405180910390fd5b6000805b845181101561108b57828181518110611063576110626145d6565b5b602002602001015182611076919061477a565b9150808061108390614634565b915050611047565b50611097838584612399565b8060fe60008282546110a99190614ac8565b925050819055508273ffffffffffffffffffffffffffffffffffffffff16846040516110d59190614b8c565b60405180910390207fa636dab3a05fbb1ffb680655657b36f6d6d55fea93039f2f7579d06ad2980d458460405161110c9190613e2d565b60405180910390a350505050565b60fd80546111279061438f565b80601f01602080910402602001604051908101604052809291908181526020018280546111539061438f565b80156111a05780601f10611175576101008083540402835291602001916111a0565b820191906000526020600020905b81548152906001019060200180831161118357829003601f168201915b505050505081565b6111b0611dfb565b73ffffffffffffffffffffffffffffffffffffffff166111ce610d84565b73ffffffffffffffffffffffffffffffffffffffff1614611224576040517f08c379a000000000000000000000000000000000000000000000000000000000815260040161121b906146c8565b60405180910390fd5b600160fb60008373ffffffffffffffffffffffffffffffffffffffff1673ffffffffffffffffffffffffffffffffffffffff16815260200190815260200160002060006101000a81548160ff02191690831515021790555050565b611287611dfb565b73ffffffffffffffffffffffffffffffffffffffff166112a5610d84565b73ffffffffffffffffffffffffffffffffffffffff16146112fb576040517f08c379a00000000000000000000000000000000000000000000000000000000081526004016112f2906146c8565b60405180910390fd5b6113048161264b565b50565b61130f611dfb565b73ffffffffffffffffffffffffffffffffffffffff168273ffffffffffffffffffffffffffffffffffffffff16148061135557506113548261134f611dfb565b611971565b5b611394576040517f08c379a000000000000000000000000000000000000000000000000000000000815260040161138b90614a16565b60405180910390fd5b600081116113d7576040517f08c379a00000000000000000000000000000000000000000000000000000000081526004016113ce90614c15565b60405180910390fd5b806113e283856105e6565b1015611423576040517f08c379a000000000000000000000000000000000000000000000000000000000815260040161141a90614ca7565b60405180910390fd5b61142e828483612665565b8060fe60008282546114409190614ac8565b925050819055508173ffffffffffffffffffffffffffffffffffffffff16837f4bd6378fc96c203e736dbbe9b3f824c4ca435287821d857f16fd4c8e82cc1cca8360405161148e91906135de565b60405180910390a3505050565b6114ad6114a6611dfb565b8383612883565b5050565b600060019054906101000a900460ff166114d95760008054906101000a900460ff16156114e2565b6114e16129ef565b5b611521576040517f08c379a000000000000000000000000000000000000000000000000000000000815260040161151890614d39565b60405180910390fd5b60008060019054906101000a900460ff161590508015611571576001600060016101000a81548160ff02191690831515021790555060016000806101000a81548160ff0219169083151502179055505b8360fc9080519060200190611587929190613428565b508260fd908051906020019061159e929190613428565b506115a882612a00565b6115b0612a5b565b80156115d15760008060016101000a81548160ff0219169083151502179055505b50505050565b60fb60003373ffffffffffffffffffffffffffffffffffffffff1673ffffffffffffffffffffffffffffffffffffffff16815260200190815260200160002060009054906101000a900460ff16611663576040517f08c379a000000000000000000000000000000000000000000000000000000000815260040161165a90614524565b60405180910390fd5b61166d60ff612375565b600061167960ff61238b565b9050610101600082815260200190815260200160002060009054906101000a900460ff16156116dd576040517f08c379a00000000000000000000000000000000000000000000000000000000081526004016116d490614984565b60405180910390fd5b816101006000838152602001908152602001600020600082015181600001908051906020019061170e929190613428565b5060208201518160010160006101000a81548160ff02191690831515021790555090505061173d818585610c18565b6001610101600083815260200190815260200160002060006101000a81548160ff02191690831515021790555050505050565b611778611dfb565b73ffffffffffffffffffffffffffffffffffffffff16611796610d84565b73ffffffffffffffffffffffffffffffffffffffff16146117ec576040517f08c379a00000000000000000000000000000000000000000000000000000000081526004016117e3906146c8565b60405180910390fd5b600060fb60008373ffffffffffffffffffffffffffffffffffffffff1673ffffffffffffffffffffffffffffffffffffffff16815260200190815260200160002060006101000a81548160ff02191690831515021790555050565b600061185360ff61238b565b905090565b600060976000838152602001908152602001600020549050919050565b6101016020528060005260406000206000915054906101000a900460ff1681565b61189e6134ae565b61010060008381526020019081526020016000206040518060400160405290816000820180546118cd9061438f565b80601f01602080910402602001604051908101604052809291908181526020018280546118f99061438f565b80156119465780601f1061191b57610100808354040283529160200191611946565b820191906000526020600020905b81548152906001019060200180831161192957829003601f168201915b505050505081526020016001820160009054906101000a900460ff1615151515815250509050919050565b6000606660008473ffffffffffffffffffffffffffffffffffffffff1673ffffffffffffffffffffffffffffffffffffffff16815260200190815260200160002060008373ffffffffffffffffffffffffffffffffffffffff1673ffffffffffffffffffffffffffffffffffffffff16815260200190815260200160002060009054906101000a900460ff16905092915050565b611a0d611dfb565b73ffffffffffffffffffffffffffffffffffffffff168573ffffffffffffffffffffffffffffffffffffffff161480611a535750611a5285611a4d611dfb565b611971565b5b611a92576040517f08c379a0000000000000000000000000000000000000000000000000000000008152600401611a8990614dcb565b60405180910390fd5b611a9f8585858585612ac4565b5050505050565b611aae611dfb565b73ffffffffffffffffffffffffffffffffffffffff16611acc610d84565b73ffffffffffffffffffffffffffffffffffffffff1614611b22576040517f08c379a0000000000000000000000000000000000000000000000000000000008152600401611b19906146c8565b60405180910390fd5b600073ffffffffffffffffffffffffffffffffffffffff168173ffffffffffffffffffffffffffffffffffffffff1603611b91576040517f08c379a0000000000000000000000000000000000000000000000000000000008152600401611b8890614e5d565b60405180910390fd5b611b9a81612119565b50565b60007f01ffc9a7000000000000000000000000000000000000000000000000000000007bffffffffffffffffffffffffffffffffffffffffffffffffffffffff1916827bffffffffffffffffffffffffffffffffffffffffffffffffffffffff1916149050919050565b606060678054611c169061438f565b80601f0160208091040260200160405190810160405280929190818152602001828054611c429061438f565b8015611c8f5780601f10611c6457610100808354040283529160200191611c8f565b820191906000526020600020905b815481529060010190602001808311611c7257829003601f168201915b50505050509050919050565b606060008203611ce2576040518060400160405280600181526020017f30000000000000000000000000000000000000000000000000000000000000008152509050611df6565b600082905060005b60008214611d14578080611cfd90614634565b915050600a82611d0d9190614eac565b9150611cea565b60008167ffffffffffffffff811115611d3057611d2f6137ce565b5b6040519080825280601f01601f191660200182016040528015611d625781602001600182028036833780820191505090505b5090505b60008514611def57600182611d7b9190614ac8565b9150600a85611d8a9190614edd565b6030611d96919061477a565b60f81b818381518110611dac57611dab6145d6565b5b60200101907effffffffffffffffffffffffffffffffffffffffffffffffffffffffffffff1916908160001a905350600a85611de89190614eac565b9450611d66565b8093505050505b919050565b600033905090565b8151835114611e47576040517f08c379a0000000000000000000000000000000000000000000000000000000008152600401611e3e90614f80565b60405180910390fd5b600073ffffffffffffffffffffffffffffffffffffffff168473ffffffffffffffffffffffffffffffffffffffff1603611eb6576040517f08c379a0000000000000000000000000000000000000000000000000000000008152600401611ead90615012565b60405180910390fd5b6000611ec0611dfb565b9050611ed0818787878787612d48565b60005b8451811015612084576000858281518110611ef157611ef06145d6565b5b602002602001015190506000858381518110611f1057611f0f6145d6565b5b6020026020010151905060006065600084815260200190815260200160002060008b73ffffffffffffffffffffffffffffffffffffffff1673ffffffffffffffffffffffffffffffffffffffff16815260200190815260200160002054905081811015611fb2576040517f08c379a0000000000000000000000000000000000000000000000000000000008152600401611fa9906150a4565b60405180910390fd5b8181036065600085815260200190815260200160002060008c73ffffffffffffffffffffffffffffffffffffffff1673ffffffffffffffffffffffffffffffffffffffff16815260200190815260200160002081905550816065600085815260200190815260200160002060008b73ffffffffffffffffffffffffffffffffffffffff1673ffffffffffffffffffffffffffffffffffffffff1681526020019081526020016000206000828254612069919061477a565b925050819055505050508061207d90614634565b9050611ed3565b508473ffffffffffffffffffffffffffffffffffffffff168673ffffffffffffffffffffffffffffffffffffffff168273ffffffffffffffffffffffffffffffffffffffff167f4a39dc06d4c0dbc64b70af90fd698a233a518aa5d07e595d983b8c0526c8f7fb87876040516120fb9291906150c4565b60405180910390a4612111818787878787612ec0565b505050505050565b600060c960009054906101000a900473ffffffffffffffffffffffffffffffffffffffff1690508160c960006101000a81548173ffffffffffffffffffffffffffffffffffffffff021916908373ffffffffffffffffffffffffffffffffffffffff1602179055508173ffffffffffffffffffffffffffffffffffffffff168173ffffffffffffffffffffffffffffffffffffffff167f8be0079c531659141344cd1fd0a4f28419497f9722a3daafe3b4186f6b6457e060405160405180910390a35050565b600073ffffffffffffffffffffffffffffffffffffffff168473ffffffffffffffffffffffffffffffffffffffff160361224e576040517f08c379a00000000000000000000000000000000000000000000000000000000081526004016122459061516d565b60405180910390fd5b6000612258611dfb565b90506122798160008761226a88613097565b61227388613097565b87612d48565b826065600086815260200190815260200160002060008773ffffffffffffffffffffffffffffffffffffffff1673ffffffffffffffffffffffffffffffffffffffff16815260200190815260200160002060008282546122d9919061477a565b925050819055508473ffffffffffffffffffffffffffffffffffffffff16600073ffffffffffffffffffffffffffffffffffffffff168273ffffffffffffffffffffffffffffffffffffffff167fc3d58168c5ae7397731d063d5bbf3d657854427343f4c083240f7aacaa2d0f62878760405161235792919061518d565b60405180910390a461236e81600087878787613111565b5050505050565b6001816000016000828254019250508190555050565b600081600001549050919050565b600073ffffffffffffffffffffffffffffffffffffffff168373ffffffffffffffffffffffffffffffffffffffff1603612408576040517f08c379a00000000000000000000000000000000000000000000000000000000081526004016123ff90615228565b60405180910390fd5b805182511461244c576040517f08c379a000000000000000000000000000000000000000000000000000000000815260040161244390614f80565b60405180910390fd5b6000612456611dfb565b905061247681856000868660405180602001604052806000815250612d48565b60005b83518110156125c5576000848281518110612497576124966145d6565b5b6020026020010151905060008483815181106124b6576124b56145d6565b5b6020026020010151905060006065600084815260200190815260200160002060008973ffffffffffffffffffffffffffffffffffffffff1673ffffffffffffffffffffffffffffffffffffffff16815260200190815260200160002054905081811015612558576040517f08c379a000000000000000000000000000000000000000000000000000000000815260040161254f906152ba565b60405180910390fd5b8181036065600085815260200190815260200160002060008a73ffffffffffffffffffffffffffffffffffffffff1673ffffffffffffffffffffffffffffffffffffffff1681526020019081526020016000208190555050505080806125bd90614634565b915050612479565b50600073ffffffffffffffffffffffffffffffffffffffff168473ffffffffffffffffffffffffffffffffffffffff168273ffffffffffffffffffffffffffffffffffffffff167f4a39dc06d4c0dbc64b70af90fd698a233a518aa5d07e595d983b8c0526c8f7fb868660405161263d9291906150c4565b60405180910390a450505050565b8060679080519060200190612661929190613428565b5050565b600073ffffffffffffffffffffffffffffffffffffffff168373ffffffffffffffffffffffffffffffffffffffff16036126d4576040517f08c379a00000000000000000000000000000000000000000000000000000000081526004016126cb90615228565b60405180910390fd5b60006126de611dfb565b905061270e818560006126f087613097565b6126f987613097565b60405180602001604052806000815250612d48565b60006065600085815260200190815260200160002060008673ffffffffffffffffffffffffffffffffffffffff1673ffffffffffffffffffffffffffffffffffffffff168152602001908152602001600020549050828110156127a6576040517f08c379a000000000000000000000000000000000000000000000000000000000815260040161279d906152ba565b60405180910390fd5b8281036065600086815260200190815260200160002060008773ffffffffffffffffffffffffffffffffffffffff1673ffffffffffffffffffffffffffffffffffffffff16815260200190815260200160002081905550600073ffffffffffffffffffffffffffffffffffffffff168573ffffffffffffffffffffffffffffffffffffffff168373ffffffffffffffffffffffffffffffffffffffff167fc3d58168c5ae7397731d063d5bbf3d657854427343f4c083240f7aacaa2d0f62878760405161287492919061518d565b60405180910390a45050505050565b8173ffffffffffffffffffffffffffffffffffffffff168373ffffffffffffffffffffffffffffffffffffffff16036128f1576040517f08c379a00000000000000000000000000000000000000000000000000000000081526004016128e89061534c565b60405180910390fd5b80606660008573ffffffffffffffffffffffffffffffffffffffff1673ffffffffffffffffffffffffffffffffffffffff16815260200190815260200160002060008473ffffffffffffffffffffffffffffffffffffffff1673ffffffffffffffffffffffffffffffffffffffff16815260200190815260200160002060006101000a81548160ff0219169083151502179055508173ffffffffffffffffffffffffffffffffffffffff168373ffffffffffffffffffffffffffffffffffffffff167f17307eab39ab6107e8899845ad3d59bd9653f200f220920489ca2b5937696c31836040516129e29190613699565b60405180910390a3505050565b60006129fa306132e8565b15905090565b600060019054906101000a900460ff16612a4f576040517f08c379a0000000000000000000000000000000000000000000000000000000008152600401612a46906153de565b60405180910390fd5b612a588161330b565b50565b612a63613366565b600160fb6000612a71610d84565b73ffffffffffffffffffffffffffffffffffffffff1673ffffffffffffffffffffffffffffffffffffffff16815260200190815260200160002060006101000a81548160ff021916908315150217905550565b600073ffffffffffffffffffffffffffffffffffffffff168473ffffffffffffffffffffffffffffffffffffffff1603612b33576040517f08c379a0000000000000000000000000000000000000000000000000000000008152600401612b2a90615012565b60405180910390fd5b6000612b3d611dfb565b9050612b5d818787612b4e88613097565b612b5788613097565b87612d48565b60006065600086815260200190815260200160002060008873ffffffffffffffffffffffffffffffffffffffff1673ffffffffffffffffffffffffffffffffffffffff16815260200190815260200160002054905083811015612bf5576040517f08c379a0000000000000000000000000000000000000000000000000000000008152600401612bec906150a4565b60405180910390fd5b8381036065600087815260200190815260200160002060008973ffffffffffffffffffffffffffffffffffffffff1673ffffffffffffffffffffffffffffffffffffffff16815260200190815260200160002081905550836065600087815260200190815260200160002060008873ffffffffffffffffffffffffffffffffffffffff1673ffffffffffffffffffffffffffffffffffffffff1681526020019081526020016000206000828254612cac919061477a565b925050819055508573ffffffffffffffffffffffffffffffffffffffff168773ffffffffffffffffffffffffffffffffffffffff168373ffffffffffffffffffffffffffffffffffffffff167fc3d58168c5ae7397731d063d5bbf3d657854427343f4c083240f7aacaa2d0f628888604051612d2992919061518d565b60405180910390a4612d3f828888888888613111565b50505050505050565b612d568686868686866133bf565b600073ffffffffffffffffffffffffffffffffffffffff168573ffffffffffffffffffffffffffffffffffffffff1603612e075760005b8351811015612e0557828181518110612da957612da86145d6565b5b602002602001015160976000868481518110612dc857612dc76145d6565b5b602002602001015181526020019081526020016000206000828254612ded919061477a565b9250508190555080612dfe90614634565b9050612d8d565b505b600073ffffffffffffffffffffffffffffffffffffffff168473ffffffffffffffffffffffffffffffffffffffff1603612eb85760005b8351811015612eb657828181518110612e5a57612e596145d6565b5b602002602001015160976000868481518110612e7957612e786145d6565b5b602002602001015181526020019081526020016000206000828254612e9e9190614ac8565b9250508190555080612eaf90614634565b9050612e3e565b505b505050505050565b612edf8473ffffffffffffffffffffffffffffffffffffffff166132e8565b1561308f578373ffffffffffffffffffffffffffffffffffffffff1663bc197c8187878686866040518663ffffffff1660e01b8152600401612f25959493929190615453565b6020604051808303816000875af1925050508015612f6157506040513d601f19601f82011682018060405250810190612f5e91906154d0565b60015b61300657612f6d61550a565b806308c379a003612fc95750612f8161552c565b80612f8c5750612fcb565b806040517f08c379a0000000000000000000000000000000000000000000000000000000008152600401612fc0919061374d565b60405180910390fd5b505b6040517f08c379a0000000000000000000000000000000000000000000000000000000008152600401612ffd9061562e565b60405180910390fd5b63bc197c8160e01b7bffffffffffffffffffffffffffffffffffffffffffffffffffffffff1916817bffffffffffffffffffffffffffffffffffffffffffffffffffffffff19161461308d576040517f08c379a0000000000000000000000000000000000000000000000000000000008152600401613084906156c0565b60405180910390fd5b505b505050505050565b60606000600167ffffffffffffffff8111156130b6576130b56137ce565b5b6040519080825280602002602001820160405280156130e45781602001602082028036833780820191505090505b50905082816000815181106130fc576130fb6145d6565b5b60200260200101818152505080915050919050565b6131308473ffffffffffffffffffffffffffffffffffffffff166132e8565b156132e0578373ffffffffffffffffffffffffffffffffffffffff1663f23a6e6187878686866040518663ffffffff1660e01b81526004016131769594939291906156e0565b6020604051808303816000875af19250505080156131b257506040513d601f19601f820116820180604052508101906131af91906154d0565b60015b613257576131be61550a565b806308c379a00361321a57506131d261552c565b806131dd575061321c565b806040517f08c379a0000000000000000000000000000000000000000000000000000000008152600401613211919061374d565b60405180910390fd5b505b6040517f08c379a000000000000000000000000000000000000000000000000000000000815260040161324e9061562e565b60405180910390fd5b63f23a6e6160e01b7bffffffffffffffffffffffffffffffffffffffffffffffffffffffff1916817bffffffffffffffffffffffffffffffffffffffffffffffffffffffff1916146132de576040517f08c379a00000000000000000000000000000000000000000000000000000000081526004016132d5906156c0565b60405180910390fd5b505b505050505050565b6000808273ffffffffffffffffffffffffffffffffffffffff163b119050919050565b600060019054906101000a900460ff1661335a576040517f08c379a0000000000000000000000000000000000000000000000000000000008152600401613351906153de565b60405180910390fd5b6133638161264b565b50565b600060019054906101000a900460ff166133b5576040517f08c379a00000000000000000000000000000000000000000000000000000000081526004016133ac906153de565b60405180910390fd5b6133bd6133c7565b565b505050505050565b600060019054906101000a900460ff16613416576040517f08c379a000000000000000000000000000000000000000000000000000000000815260040161340d906153de565b60405180910390fd5b613426613421611dfb565b612119565b565b8280546134349061438f565b90600052602060002090601f016020900481019282613456576000855561349d565b82601f1061346f57805160ff191683800117855561349d565b8280016001018555821561349d579182015b8281111561349c578251825591602001919060010190613481565b5b5090506134aa91906134ca565b5090565b6040518060400160405280606081526020016000151581525090565b5b808211156134e35760008160009055506001016134cb565b5090565b6000604051905090565b600080fd5b600080fd5b600073ffffffffffffffffffffffffffffffffffffffff82169050919050565b6000613526826134fb565b9050919050565b6135368161351b565b811461354157600080fd5b50565b6000813590506135538161352d565b92915050565b6000819050919050565b61356c81613559565b811461357757600080fd5b50565b60008135905061358981613563565b92915050565b600080604083850312156135a6576135a56134f1565b5b60006135b485828601613544565b92505060206135c58582860161357a565b9150509250929050565b6135d881613559565b82525050565b60006020820190506135f360008301846135cf565b92915050565b60007fffffffff0000000000000000000000000000000000000000000000000000000082169050919050565b61362e816135f9565b811461363957600080fd5b50565b60008135905061364b81613625565b92915050565b600060208284031215613667576136666134f1565b5b60006136758482850161363c565b91505092915050565b60008115159050919050565b6136938161367e565b82525050565b60006020820190506136ae600083018461368a565b92915050565b600081519050919050565b600082825260208201905092915050565b60005b838110156136ee5780820151818401526020810190506136d3565b838111156136fd576000848401525b50505050565b6000601f19601f8301169050919050565b600061371f826136b4565b61372981856136bf565b93506137398185602086016136d0565b61374281613703565b840191505092915050565b600060208201905081810360008301526137678184613714565b905092915050565b600060208284031215613785576137846134f1565b5b60006137938482850161357a565b91505092915050565b6000602082840312156137b2576137b16134f1565b5b60006137c084828501613544565b91505092915050565b600080fd5b7f4e487b7100000000000000000000000000000000000000000000000000000000600052604160045260246000fd5b61380682613703565b810181811067ffffffffffffffff82111715613825576138246137ce565b5b80604052505050565b60006138386134e7565b905061384482826137fd565b919050565b600067ffffffffffffffff821115613864576138636137ce565b5b602082029050602081019050919050565b600080fd5b600061388d61388884613849565b61382e565b905080838252602082019050602084028301858111156138b0576138af613875565b5b835b818110156138d957806138c5888261357a565b8452602084019350506020810190506138b2565b5050509392505050565b600082601f8301126138f8576138f76137c9565b5b813561390884826020860161387a565b91505092915050565b600080fd5b600067ffffffffffffffff821115613931576139306137ce565b5b61393a82613703565b9050602081019050919050565b82818337600083830152505050565b600061396961396484613916565b61382e565b90508281526020810184848401111561398557613984613911565b5b613990848285613947565b509392505050565b600082601f8301126139ad576139ac6137c9565b5b81356139bd848260208601613956565b91505092915050565b600080600080600060a086880312156139e2576139e16134f1565b5b60006139f088828901613544565b9550506020613a0188828901613544565b945050604086013567ffffffffffffffff811115613a2257613a216134f6565b5b613a2e888289016138e3565b935050606086013567ffffffffffffffff811115613a4f57613a4e6134f6565b5b613a5b888289016138e3565b925050608086013567ffffffffffffffff811115613a7c57613a7b6134f6565b5b613a8888828901613998565b9150509295509295909350565b600080fd5b600080fd5b600067ffffffffffffffff821115613aba57613ab96137ce565b5b613ac382613703565b9050602081019050919050565b6000613ae3613ade84613a9f565b61382e565b905082815260208101848484011115613aff57613afe613911565b5b613b0a848285613947565b509392505050565b600082601f830112613b2757613b266137c9565b5b8135613b37848260208601613ad0565b91505092915050565b613b498161367e565b8114613b5457600080fd5b50565b600081359050613b6681613b40565b92915050565b600060408284031215613b8257613b81613a95565b5b613b8c604061382e565b9050600082013567ffffffffffffffff811115613bac57613bab613a9a565b5b613bb884828501613b12565b6000830152506020613bcc84828501613b57565b60208301525092915050565b60008060408385031215613bef57613bee6134f1565b5b6000613bfd8582860161357a565b925050602083013567ffffffffffffffff811115613c1e57613c1d6134f6565b5b613c2a85828601613b6c565b9150509250929050565b600067ffffffffffffffff821115613c4f57613c4e6137ce565b5b602082029050602081019050919050565b6000613c73613c6e84613c34565b61382e565b90508083825260208201905060208402830185811115613c9657613c95613875565b5b835b81811015613cbf5780613cab8882613544565b845260208401935050602081019050613c98565b5050509392505050565b600082601f830112613cde57613cdd6137c9565b5b8135613cee848260208601613c60565b91505092915050565b60008060408385031215613d0e57613d0d6134f1565b5b600083013567ffffffffffffffff811115613d2c57613d2b6134f6565b5b613d3885828601613cc9565b925050602083013567ffffffffffffffff811115613d5957613d586134f6565b5b613d65858286016138e3565b9150509250929050565b600081519050919050565b600082825260208201905092915050565b6000819050602082019050919050565b613da481613559565b82525050565b6000613db68383613d9b565b60208301905092915050565b6000602082019050919050565b6000613dda82613d6f565b613de48185613d7a565b9350613def83613d8b565b8060005b83811015613e20578151613e078882613daa565b9750613e1283613dc2565b925050600181019050613df3565b5085935050505092915050565b60006020820190508181036000830152613e478184613dcf565b905092915050565b600080600060608486031215613e6857613e676134f1565b5b6000613e768682870161357a565b9350506020613e8786828701613544565b9250506040613e988682870161357a565b9150509250925092565b613eab8161351b565b82525050565b6000602082019050613ec66000830184613ea2565b92915050565b600060208284031215613ee257613ee16134f1565b5b600082013567ffffffffffffffff811115613f0057613eff6134f6565b5b613f0c84828501613b6c565b91505092915050565b600080600060608486031215613f2e57613f2d6134f1565b5b600084013567ffffffffffffffff811115613f4c57613f4b6134f6565b5b613f58868287016138e3565b9350506020613f6986828701613544565b925050604084013567ffffffffffffffff811115613f8a57613f896134f6565b5b613f96868287016138e3565b9150509250925092565b600060208284031215613fb657613fb56134f1565b5b600082013567ffffffffffffffff811115613fd457613fd36134f6565b5b613fe084828501613b12565b91505092915050565b6000806040838503121561400057613fff6134f1565b5b600061400e85828601613544565b925050602061401f85828601613b57565b9150509250929050565b600080600060608486031215614042576140416134f1565b5b600084013567ffffffffffffffff8111156140605761405f6134f6565b5b61406c86828701613b12565b935050602084013567ffffffffffffffff81111561408d5761408c6134f6565b5b61409986828701613b12565b925050604084013567ffffffffffffffff8111156140ba576140b96134f6565b5b6140c686828701613b12565b9150509250925092565b6000806000606084860312156140e9576140e86134f1565b5b60006140f786828701613544565b93505060206141088682870161357a565b925050604084013567ffffffffffffffff811115614129576141286134f6565b5b61413586828701613b6c565b9150509250925092565b600082825260208201905092915050565b600061415b826136b4565b614165818561413f565b93506141758185602086016136d0565b61417e81613703565b840191505092915050565b6141928161367e565b82525050565b600060408301600083015184820360008601526141b58282614150565b91505060208301516141ca6020860182614189565b508091505092915050565b600060208201905081810360008301526141ef8184614198565b905092915050565b6000806040838503121561420e5761420d6134f1565b5b600061421c85828601613544565b925050602061422d85828601613544565b9150509250929050565b600080600080600060a08688031215614253576142526134f1565b5b600061426188828901613544565b955050602061427288828901613544565b94505060406142838882890161357a565b93505060606142948882890161357a565b925050608086013567ffffffffffffffff8111156142b5576142b46134f6565b5b6142c188828901613998565b9150509295509295909350565b7f455243313135353a2062616c616e636520717565727920666f7220746865207a60008201527f65726f2061646472657373000000000000000000000000000000000000000000602082015250565b600061432a602b836136bf565b9150614335826142ce565b604082019050919050565b600060208201905081810360008301526143598161431d565b9050919050565b7f4e487b7100000000000000000000000000000000000000000000000000000000600052602260045260246000fd5b600060028204905060018216806143a757607f821691505b6020821081036143ba576143b9614360565b5b50919050565b600081905092915050565b60006143d6826136b4565b6143e081856143c0565b93506143f08185602086016136d0565b80840191505092915050565b600061440882856143cb565b915061441482846143cb565b91508190509392505050565b7f455243313135353a207472616e736665722063616c6c6572206973206e6f742060008201527f6f776e6572206e6f7220617070726f7665640000000000000000000000000000602082015250565b600061447c6032836136bf565b915061448782614420565b604082019050919050565b600060208201905081810360008301526144ab8161446f565b9050919050565b7f4f706572617461626c653a2063616c6c6572206973206e6f7420746865206f7760008201527f6e65720000000000000000000000000000000000000000000000000000000000602082015250565b600061450e6023836136bf565b9150614519826144b2565b604082019050919050565b6000602082019050818103600083015261453d81614501565b9050919050565b7f455243313135353a206163636f756e747320616e6420696473206c656e67746860008201527f206d69736d617463680000000000000000000000000000000000000000000000602082015250565b60006145a06029836136bf565b91506145ab82614544565b604082019050919050565b600060208201905081810360008301526145cf81614593565b9050919050565b7f4e487b7100000000000000000000000000000000000000000000000000000000600052603260045260246000fd5b7f4e487b7100000000000000000000000000000000000000000000000000000000600052601160045260246000fd5b600061463f82613559565b91507fffffffffffffffffffffffffffffffffffffffffffffffffffffffffffffffff820361467157614670614605565b5b600182019050919050565b7f4f776e61626c653a2063616c6c6572206973206e6f7420746865206f776e6572600082015250565b60006146b26020836136bf565b91506146bd8261467c565b602082019050919050565b600060208201905081810360008301526146e1816146a5565b9050919050565b7f5549544e4654546f6b656e3a20416d6f756e74206f66206974656d7320746f2060008201527f6d696e74206d757374206265206d6f7265207468616e20300000000000000000602082015250565b60006147446038836136bf565b915061474f826146e8565b604082019050919050565b6000602082019050818103600083015261477381614737565b9050919050565b600061478582613559565b915061479083613559565b9250827fffffffffffffffffffffffffffffffffffffffffffffffffffffffffffffffff038211156147c5576147c4614605565b5b828201905092915050565b60008190508160005260206000209050919050565b600081546147f28161438f565b6147fc818661413f565b9450600182166000811461481757600181146148295761485c565b60ff198316865260208601935061485c565b614832856147d0565b60005b8381101561485457815481890152600182019150602081019050614835565b808801955050505b50505092915050565b60008160001c9050919050565b600060ff82169050919050565b600061489261488d83614865565b614872565b9050919050565b600060408301600080840185830360008701526148b683826147e5565b925050600184015490506148c98161487f565b6148d66020870182614189565b50819250505092915050565b60006040820190506148f760008301856135cf565b81810360208301526149098184614899565b90509392505050565b7f5549544e4654546f6b656e3a206974656d4964206d75737420626520756e697160008201527f7565000000000000000000000000000000000000000000000000000000000000602082015250565b600061496e6022836136bf565b915061497982614912565b604082019050919050565b6000602082019050818103600083015261499d81614961565b9050919050565b7f5549544e4654546f6b656e3a2063616c6c6572206973206e6f74206f776e657260008201527f206e6f7220617070726f76656400000000000000000000000000000000000000602082015250565b6000614a00602d836136bf565b9150614a0b826149a4565b604082019050919050565b60006020820190508181036000830152614a2f816149f3565b9050919050565b7f5549544e4654546f6b656e3a206c656e677468206f66205f6964732c205f616d60008201527f6f756e747320617265206e6f74207468652073616d6500000000000000000000602082015250565b6000614a926036836136bf565b9150614a9d82614a36565b604082019050919050565b60006020820190508181036000830152614ac181614a85565b9050919050565b6000614ad382613559565b9150614ade83613559565b925082821015614af157614af0614605565b5b828203905092915050565b600081905092915050565b614b1081613559565b82525050565b6000614b228383614b07565b60208301905092915050565b6000614b3982613d6f565b614b438185614afc565b9350614b4e83613d8b565b8060005b83811015614b7f578151614b668882614b16565b9750614b7183613dc2565b925050600181019050614b52565b5085935050505092915050565b6000614b988284614b2e565b915081905092915050565b7f5549544e4654546f6b656e3a20416d6f756e74206f66206974656d7320746f2060008201527f6275726e206d757374206265206d6f7265207468616e20300000000000000000602082015250565b6000614bff6038836136bf565b9150614c0a82614ba3565b604082019050919050565b60006020820190508181036000830152614c2e81614bf2565b9050919050565b7f5549544e4654546f6b656e3a204e6f7420656e6f756768206974656d7320746f60008201527f204275726e000000000000000000000000000000000000000000000000000000602082015250565b6000614c916025836136bf565b9150614c9c82614c35565b604082019050919050565b60006020820190508181036000830152614cc081614c84565b9050919050565b7f496e697469616c697a61626c653a20636f6e747261637420697320616c72656160008201527f647920696e697469616c697a6564000000000000000000000000000000000000602082015250565b6000614d23602e836136bf565b9150614d2e82614cc7565b604082019050919050565b60006020820190508181036000830152614d5281614d16565b9050919050565b7f455243313135353a2063616c6c6572206973206e6f74206f776e6572206e6f7260008201527f20617070726f7665640000000000000000000000000000000000000000000000602082015250565b6000614db56029836136bf565b9150614dc082614d59565b604082019050919050565b60006020820190508181036000830152614de481614da8565b9050919050565b7f4f776e61626c653a206e6577206f776e657220697320746865207a65726f206160008201527f6464726573730000000000000000000000000000000000000000000000000000602082015250565b6000614e476026836136bf565b9150614e5282614deb565b604082019050919050565b60006020820190508181036000830152614e7681614e3a565b9050919050565b7f4e487b7100000000000000000000000000000000000000000000000000000000600052601260045260246000fd5b6000614eb782613559565b9150614ec283613559565b925082614ed257614ed1614e7d565b5b828204905092915050565b6000614ee882613559565b9150614ef383613559565b925082614f0357614f02614e7d565b5b828206905092915050565b7f455243313135353a2069647320616e6420616d6f756e7473206c656e6774682060008201527f6d69736d61746368000000000000000000000000000000000000000000000000602082015250565b6000614f6a6028836136bf565b9150614f7582614f0e565b604082019050919050565b60006020820190508181036000830152614f9981614f5d565b9050919050565b7f455243313135353a207472616e7366657220746f20746865207a65726f20616460008201527f6472657373000000000000000000000000000000000000000000000000000000602082015250565b6000614ffc6025836136bf565b915061500782614fa0565b604082019050919050565b6000602082019050818103600083015261502b81614fef565b9050919050565b7f455243313135353a20696e73756666696369656e742062616c616e636520666f60008201527f72207472616e7366657200000000000000000000000000000000000000000000602082015250565b600061508e602a836136bf565b915061509982615032565b604082019050919050565b600060208201905081810360008301526150bd81615081565b9050919050565b600060408201905081810360008301526150de8185613dcf565b905081810360208301526150f28184613dcf565b90509392505050565b7f455243313135353a206d696e7420746f20746865207a65726f2061646472657360008201527f7300000000000000000000000000000000000000000000000000000000000000602082015250565b60006151576021836136bf565b9150615162826150fb565b604082019050919050565b600060208201905081810360008301526151868161514a565b9050919050565b60006040820190506151a260008301856135cf565b6151af60208301846135cf565b9392505050565b7f455243313135353a206275726e2066726f6d20746865207a65726f206164647260008201527f6573730000000000000000000000000000000000000000000000000000000000602082015250565b60006152126023836136bf565b915061521d826151b6565b604082019050919050565b6000602082019050818103600083015261524181615205565b9050919050565b7f455243313135353a206275726e20616d6f756e7420657863656564732062616c60008201527f616e636500000000000000000000000000000000000000000000000000000000602082015250565b60006152a46024836136bf565b91506152af82615248565b604082019050919050565b600060208201905081810360008301526152d381615297565b9050919050565b7f455243313135353a2073657474696e6720617070726f76616c2073746174757360008201527f20666f722073656c660000000000000000000000000000000000000000000000602082015250565b60006153366029836136bf565b9150615341826152da565b604082019050919050565b6000602082019050818103600083015261536581615329565b9050919050565b7f496e697469616c697a61626c653a20636f6e7472616374206973206e6f74206960008201527f6e697469616c697a696e67000000000000000000000000000000000000000000602082015250565b60006153c8602b836136bf565b91506153d38261536c565b604082019050919050565b600060208201905081810360008301526153f7816153bb565b9050919050565b600081519050919050565b600082825260208201905092915050565b6000615425826153fe565b61542f8185615409565b935061543f8185602086016136d0565b61544881613703565b840191505092915050565b600060a0820190506154686000830188613ea2565b6154756020830187613ea2565b81810360408301526154878186613dcf565b9050818103606083015261549b8185613dcf565b905081810360808301526154af818461541a565b90509695505050505050565b6000815190506154ca81613625565b92915050565b6000602082840312156154e6576154e56134f1565b5b60006154f4848285016154bb565b91505092915050565b60008160e01c9050919050565b600060033d11156155295760046000803e6155266000516154fd565b90505b90565b600060443d106155b95761553e6134e7565b60043d036004823e80513d602482011167ffffffffffffffff821117156155665750506155b9565b808201805167ffffffffffffffff81111561558457505050506155b9565b80602083010160043d0385018111156155a15750505050506155b9565b6155b0826020018501866137fd565b82955050505050505b90565b7f455243313135353a207472616e7366657220746f206e6f6e204552433131353560008201527f526563656976657220696d706c656d656e746572000000000000000000000000602082015250565b60006156186034836136bf565b9150615623826155bc565b604082019050919050565b600060208201905081810360008301526156478161560b565b9050919050565b7f455243313135353a204552433131353552656365697665722072656a6563746560008201527f6420746f6b656e73000000000000000000000000000000000000000000000000602082015250565b60006156aa6028836136bf565b91506156b58261564e565b604082019050919050565b600060208201905081810360008301526156d98161569d565b9050919050565b600060a0820190506156f56000830188613ea2565b6157026020830187613ea2565b61570f60408301866135cf565b61571c60608301856135cf565b818103608083015261572e818461541a565b9050969550505050505056fea264697066735822122056b77036f989a4a360562ebc858d16483c2b83865f03d88f818ff889ff899ab064736f6c634300080e0033",
  "immutableReferences": {},
  "source": "//SPDX-License-Identifier: MIT\r\npragma solidity ^0.8.0;\r\n\r\nimport \"@openzeppelin/contracts-upgradeable/token/ERC1155/extensions/ERC1155SupplyUpgradeable.sol\";\r\nimport \"@openzeppelin/contracts/utils/Counters.sol\";\r\nimport \"@openzeppelin/contracts/utils/Strings.sol\";\r\nimport \"../common/OperatableUpgradeable.sol\";\r\nimport \"./interfaces/IUITNFTToken.sol\";\r\n\r\ncontract UITNFTToken is ERC1155SupplyUpgradeable, OperatableUpgradeable, IUITNFTToken {\r\n\r\n    using Strings for uint256;\r\n    using Counters for Counters.Counter;\r\n\r\n    string public name;\r\n    string public symbol;\r\n\r\n    uint public totalSupply;\r\n\r\n    Counters.Counter private idIndex;\r\n\r\n    mapping(uint => NFTInfo) nftInfo;\r\n    mapping(uint => bool) public nonce;\r\n\r\n    function initialize(string memory _name, string memory _symbol, string memory _uri) external initializer {\r\n        name = _name;\r\n        symbol = _symbol;\r\n        __ERC1155_init(_uri);\r\n        __operatable_init();\r\n    }\r\n\r\n    function uri(uint id) public view override (ERC1155Upgradeable, IUITNFTToken) returns (string memory) {\r\n        string memory _uri = super.uri(id);\r\n        return bytes(_uri).length > 0 ? string(abi.encodePacked(_uri, id.toString())) : \"\";\r\n    }\r\n\r\n    function setUri(string memory _uri) external onlyOwner {\r\n        _setURI(_uri);\r\n    }\r\n\r\n    function setNFTInfo(uint _id, NFTInfo memory _nftInfo)\r\n        external\r\n        override\r\n        onlyOperator\r\n    {\r\n        nftInfo[_id] = _nftInfo;\r\n\r\n        emit NFTInfoUpdated(_id, _nftInfo);\r\n    }\r\n\r\n    function getNFTInfo(uint _id) external view override returns(NFTInfo memory) {\r\n        return nftInfo[_id];\r\n    }\r\n\r\n    function getIdIndex() external view override returns(uint) {\r\n        return idIndex.current();\r\n    }\r\n\r\n    function mint(uint _id, address _account, uint _amount) public override onlyOperator virtual {\r\n        require(_amount > 0, \"UITNFTToken: Amount of items to mint must be more than 0\");\r\n        _mint(_account, _id, _amount, \"\");\r\n        totalSupply += _amount;\r\n\r\n        emit NFTMinted(_id, _account, _amount, nftInfo[_id]);\r\n    }\r\n\r\n    function mint(address _account, uint _amount, NFTInfo memory _nftInfo)\r\n        external\r\n        override\r\n        onlyOperator\r\n    {\r\n        idIndex.increment();\r\n        uint id = idIndex.current();\r\n        require(!nonce[id], \"UITNFTToken: itemId must be unique\");\r\n        nftInfo[id] = _nftInfo;\r\n        mint(id, _account, _amount);\r\n        nonce[id] = true;\r\n    }\r\n\r\n    function burn(uint _id, address _account, uint _amount) public override virtual {\r\n        require(\r\n            _account == _msgSender() || isApprovedForAll(_account, _msgSender()),\r\n            \"UITNFTToken: caller is not owner nor approved\"\r\n        );\r\n        require(_amount > 0, \"UITNFTToken: Amount of items to burn must be more than 0\");\r\n        require(balanceOf(_account, _id) >= _amount, \"UITNFTToken: Not enough items to Burn\");\r\n        _burn(_account, _id, _amount);\r\n        totalSupply -= _amount;\r\n\r\n        emit NFTBurned(_id, _account, _amount);\r\n    }\r\n\r\n    function burnBatch(uint[] memory _ids, address _account, uint[] memory _amounts) public override {\r\n        require(\r\n            _account == _msgSender() || isApprovedForAll(_account, _msgSender()),\r\n            \"UITNFTToken: caller is not owner nor approved\"\r\n        );\r\n        require(_ids.length == _amounts.length, \"UITNFTToken: length of _ids, _amounts are not the same\");\r\n        uint totalBurnAmount;\r\n        for (uint i; i < _ids.length; i++) {\r\n            totalBurnAmount += _amounts[i];\r\n        }\r\n        _burnBatch(_account, _ids, _amounts);\r\n        totalSupply -= totalBurnAmount;\r\n\r\n        emit NFTBurnBatched(_ids, _account, _amounts);\r\n    }\r\n\r\n    function createNFT(NFTInfo memory _nftInfo)\r\n        external\r\n        override\r\n        onlyOperator\r\n    {\r\n        idIndex.increment();\r\n        uint id = idIndex.current();\r\n        require(!nonce[id], \"UITNFTToken: itemId must be unique\");\r\n        nftInfo[id] = _nftInfo;\r\n        nonce[id] = true;\r\n\r\n        emit NFTCreated(id, _nftInfo);\r\n    }\r\n}\r\n",
  "sourcePath": "E:\\KLTN\\KLTN\\KLTN-contracts\\contracts\\token\\UITNFTToken.sol",
  "compiler": {
    "name": "solc",
    "version": "0.8.14+commit.80d49f37.Emscripten.clang"
  },
  "schemaVersion": "3.4.3",
  "updatedAt": "2022-06-13T07:55:11.252Z",
  "networkType": "ethereum",
  "devdoc": {
    "kind": "dev",
    "methods": {
      "balanceOf(address,uint256)": {
        "details": "See {IERC1155-balanceOf}. Requirements: - `account` cannot be the zero address."
      },
      "balanceOfBatch(address[],uint256[])": {
        "details": "See {IERC1155-balanceOfBatch}. Requirements: - `accounts` and `ids` must have the same length."
      },
      "exists(uint256)": {
        "details": "Indicates whether any token exist with a given id, or not."
      },
      "isApprovedForAll(address,address)": {
        "details": "See {IERC1155-isApprovedForAll}."
      },
      "owner()": {
        "details": "Returns the address of the current owner."
      },
      "renounceOwnership()": {
        "details": "Leaves the contract without owner. It will not be possible to call `onlyOwner` functions anymore. Can only be called by the current owner. NOTE: Renouncing ownership will leave the contract without an owner, thereby removing any functionality that is only available to the owner."
      },
      "safeBatchTransferFrom(address,address,uint256[],uint256[],bytes)": {
        "details": "See {IERC1155-safeBatchTransferFrom}."
      },
      "safeTransferFrom(address,address,uint256,uint256,bytes)": {
        "details": "See {IERC1155-safeTransferFrom}."
      },
      "setApprovalForAll(address,bool)": {
        "details": "See {IERC1155-setApprovalForAll}."
      },
      "supportsInterface(bytes4)": {
        "details": "See {IERC165-supportsInterface}."
      },
      "totalSupply(uint256)": {
        "details": "Total amount of tokens in with a given id."
      },
      "transferOwnership(address)": {
        "details": "Transfers ownership of the contract to a new account (`newOwner`). Can only be called by the current owner."
      }
    },
    "version": 1
  },
  "userdoc": {
    "kind": "user",
    "methods": {},
    "version": 1
  }
}